{
  "contracts/farm/EmberVault.sol": {
    "EmberVault": {
      "abi": [
        {
          "inputs": [
            {
              "internalType": "contract IEmberERC20",
              "name": "_ember",
              "type": "address"
            },
            {
              "internalType": "uint256",
              "name": "_emberPerBlock",
              "type": "uint256"
            }
          ],
          "stateMutability": "nonpayable",
          "type": "constructor"
        },
        {
          "anonymous": false,
          "inputs": [
            {
              "indexed": true,
              "internalType": "address",
              "name": "caller",
              "type": "address"
            },
            {
              "indexed": false,
              "internalType": "uint256",
              "name": "previousAmount",
              "type": "uint256"
            },
            {
              "indexed": false,
              "internalType": "uint256",
              "name": "newAmount",
              "type": "uint256"
            }
          ],
          "name": "AllocPointsUpdated",
          "type": "event"
        },
        {
          "anonymous": false,
          "inputs": [
            {
              "indexed": true,
              "internalType": "address",
              "name": "user",
              "type": "address"
            },
            {
              "indexed": true,
              "internalType": "uint256",
              "name": "pid",
              "type": "uint256"
            },
            {
              "indexed": false,
              "internalType": "uint256",
              "name": "amount",
              "type": "uint256"
            }
          ],
          "name": "Deposit",
          "type": "event"
        },
        {
          "anonymous": false,
          "inputs": [
            {
              "indexed": true,
              "internalType": "address",
              "name": "caller",
              "type": "address"
            },
            {
              "indexed": false,
              "internalType": "address",
              "name": "oldAddress",
              "type": "address"
            },
            {
              "indexed": false,
              "internalType": "address",
              "name": "newAddress",
              "type": "address"
            }
          ],
          "name": "DevAddressChanged",
          "type": "event"
        },
        {
          "anonymous": false,
          "inputs": [
            {
              "indexed": true,
              "internalType": "address",
              "name": "user",
              "type": "address"
            },
            {
              "indexed": true,
              "internalType": "uint256",
              "name": "pid",
              "type": "uint256"
            },
            {
              "indexed": false,
              "internalType": "uint256",
              "name": "amount",
              "type": "uint256"
            }
          ],
          "name": "EmergencyWithdraw",
          "type": "event"
        },
        {
          "anonymous": false,
          "inputs": [
            {
              "indexed": true,
              "internalType": "address",
              "name": "caller",
              "type": "address"
            },
            {
              "indexed": false,
              "internalType": "uint256",
              "name": "previousAmount",
              "type": "uint256"
            },
            {
              "indexed": false,
              "internalType": "uint256",
              "name": "newAmount",
              "type": "uint256"
            }
          ],
          "name": "EmissionRateUpdated",
          "type": "event"
        },
        {
          "anonymous": false,
          "inputs": [
            {
              "indexed": true,
              "internalType": "address",
              "name": "caller",
              "type": "address"
            },
            {
              "indexed": false,
              "internalType": "address",
              "name": "oldAddress",
              "type": "address"
            },
            {
              "indexed": false,
              "internalType": "address",
              "name": "newAddress",
              "type": "address"
            }
          ],
          "name": "FeeAddressChanged",
          "type": "event"
        },
        {
          "anonymous": false,
          "inputs": [
            {
              "indexed": true,
              "internalType": "address",
              "name": "caller",
              "type": "address"
            }
          ],
          "name": "MetaTxnsDisabled",
          "type": "event"
        },
        {
          "anonymous": false,
          "inputs": [
            {
              "indexed": true,
              "internalType": "address",
              "name": "caller",
              "type": "address"
            }
          ],
          "name": "MetaTxnsEnabled",
          "type": "event"
        },
        {
          "anonymous": false,
          "inputs": [
            {
              "indexed": true,
              "internalType": "address",
              "name": "previousOperator",
              "type": "address"
            },
            {
              "indexed": true,
              "internalType": "address",
              "name": "newOperator",
              "type": "address"
            }
          ],
          "name": "OperatorTransferred",
          "type": "event"
        },
        {
          "anonymous": false,
          "inputs": [
            {
              "indexed": true,
              "internalType": "address",
              "name": "previousOwner",
              "type": "address"
            },
            {
              "indexed": true,
              "internalType": "address",
              "name": "newOwner",
              "type": "address"
            }
          ],
          "name": "OwnershipTransferred",
          "type": "event"
        },
        {
          "anonymous": false,
          "inputs": [
            {
              "indexed": true,
              "internalType": "address",
              "name": "user",
              "type": "address"
            },
            {
              "indexed": true,
              "internalType": "uint256",
              "name": "pid",
              "type": "uint256"
            },
            {
              "indexed": false,
              "internalType": "uint256",
              "name": "amountLockedUp",
              "type": "uint256"
            }
          ],
          "name": "RewardLockedUp",
          "type": "event"
        },
        {
          "anonymous": false,
          "inputs": [
            {
              "indexed": true,
              "internalType": "address",
              "name": "user",
              "type": "address"
            },
            {
              "indexed": true,
              "internalType": "uint256",
              "name": "pid",
              "type": "uint256"
            },
            {
              "indexed": false,
              "internalType": "uint256",
              "name": "amount",
              "type": "uint256"
            }
          ],
          "name": "Withdraw",
          "type": "event"
        },
        {
          "inputs": [],
          "name": "MAXIMUM_DEPOSIT_FEE_RATE",
          "outputs": [
            {
              "internalType": "uint16",
              "name": "",
              "type": "uint16"
            }
          ],
          "stateMutability": "view",
          "type": "function"
        },
        {
          "inputs": [],
          "name": "MAXIMUM_HARVEST_INTERVAL",
          "outputs": [
            {
              "internalType": "uint256",
              "name": "",
              "type": "uint256"
            }
          ],
          "stateMutability": "view",
          "type": "function"
        },
        {
          "inputs": [
            {
              "internalType": "uint256",
              "name": "_allocPoint",
              "type": "uint256"
            },
            {
              "internalType": "contract IERC20",
              "name": "_lpToken",
              "type": "address"
            },
            {
              "internalType": "uint16",
              "name": "_depositFeeBP",
              "type": "uint16"
            },
            {
              "internalType": "uint256",
              "name": "_harvestInterval",
              "type": "uint256"
            },
            {
              "internalType": "uint256",
              "name": "_lockupDuration",
              "type": "uint256"
            },
            {
              "internalType": "bool",
              "name": "_withUpdate",
              "type": "bool"
            }
          ],
          "name": "add",
          "outputs": [],
          "stateMutability": "nonpayable",
          "type": "function"
        },
        {
          "inputs": [
            {
              "internalType": "uint256",
              "name": "_pid",
              "type": "uint256"
            },
            {
              "internalType": "address",
              "name": "_user",
              "type": "address"
            }
          ],
          "name": "canHarvest",
          "outputs": [
            {
              "internalType": "bool",
              "name": "",
              "type": "bool"
            }
          ],
          "stateMutability": "view",
          "type": "function"
        },
        {
          "inputs": [
            {
              "internalType": "uint256",
              "name": "_pid",
              "type": "uint256"
            },
            {
              "internalType": "uint256",
              "name": "_amount",
              "type": "uint256"
            }
          ],
          "name": "deposit",
          "outputs": [],
          "stateMutability": "nonpayable",
          "type": "function"
        },
        {
          "inputs": [],
          "name": "devAddress",
          "outputs": [
            {
              "internalType": "address",
              "name": "",
              "type": "address"
            }
          ],
          "stateMutability": "view",
          "type": "function"
        },
        {
          "inputs": [],
          "name": "disableMetaTxns",
          "outputs": [],
          "stateMutability": "nonpayable",
          "type": "function"
        },
        {
          "inputs": [],
          "name": "ember",
          "outputs": [
            {
              "internalType": "contract IEmberERC20",
              "name": "",
              "type": "address"
            }
          ],
          "stateMutability": "view",
          "type": "function"
        },
        {
          "inputs": [],
          "name": "emberPerBlock",
          "outputs": [
            {
              "internalType": "uint256",
              "name": "",
              "type": "uint256"
            }
          ],
          "stateMutability": "view",
          "type": "function"
        },
        {
          "inputs": [],
          "name": "enableMetaTxns",
          "outputs": [],
          "stateMutability": "nonpayable",
          "type": "function"
        },
        {
          "inputs": [],
          "name": "feeAddress",
          "outputs": [
            {
              "internalType": "address",
              "name": "",
              "type": "address"
            }
          ],
          "stateMutability": "view",
          "type": "function"
        },
        {
          "inputs": [
            {
              "internalType": "uint256",
              "name": "_from",
              "type": "uint256"
            },
            {
              "internalType": "uint256",
              "name": "_to",
              "type": "uint256"
            }
          ],
          "name": "getMultiplier",
          "outputs": [
            {
              "internalType": "uint256",
              "name": "",
              "type": "uint256"
            }
          ],
          "stateMutability": "pure",
          "type": "function"
        },
        {
          "inputs": [
            {
              "internalType": "address",
              "name": "forwarder",
              "type": "address"
            }
          ],
          "name": "isTrustedForwarder",
          "outputs": [
            {
              "internalType": "bool",
              "name": "",
              "type": "bool"
            }
          ],
          "stateMutability": "view",
          "type": "function"
        },
        {
          "inputs": [],
          "name": "massUpdatePools",
          "outputs": [],
          "stateMutability": "nonpayable",
          "type": "function"
        },
        {
          "inputs": [],
          "name": "metaTxnsEnabled",
          "outputs": [
            {
              "internalType": "bool",
              "name": "",
              "type": "bool"
            }
          ],
          "stateMutability": "view",
          "type": "function"
        },
        {
          "inputs": [],
          "name": "operator",
          "outputs": [
            {
              "internalType": "address",
              "name": "",
              "type": "address"
            }
          ],
          "stateMutability": "view",
          "type": "function"
        },
        {
          "inputs": [],
          "name": "owner",
          "outputs": [
            {
              "internalType": "address",
              "name": "",
              "type": "address"
            }
          ],
          "stateMutability": "view",
          "type": "function"
        },
        {
          "inputs": [
            {
              "internalType": "uint256",
              "name": "_pid",
              "type": "uint256"
            },
            {
              "internalType": "address",
              "name": "_user",
              "type": "address"
            }
          ],
          "name": "pendingEmber",
          "outputs": [
            {
              "internalType": "uint256",
              "name": "",
              "type": "uint256"
            }
          ],
          "stateMutability": "view",
          "type": "function"
        },
        {
          "inputs": [
            {
              "internalType": "uint256",
              "name": "",
              "type": "uint256"
            }
          ],
          "name": "poolInfo",
          "outputs": [
            {
              "internalType": "contract IERC20",
              "name": "lpToken",
              "type": "address"
            },
            {
              "internalType": "uint256",
              "name": "allocPoint",
              "type": "uint256"
            },
            {
              "internalType": "uint256",
              "name": "lastRewardBlock",
              "type": "uint256"
            },
            {
              "internalType": "uint256",
              "name": "accEmberPerShare",
              "type": "uint256"
            },
            {
              "internalType": "uint16",
              "name": "depositFeeBP",
              "type": "uint16"
            },
            {
              "internalType": "uint256",
              "name": "harvestInterval",
              "type": "uint256"
            },
            {
              "internalType": "uint256",
              "name": "totalLp",
              "type": "uint256"
            },
            {
              "internalType": "uint256",
              "name": "lockupDuration",
              "type": "uint256"
            }
          ],
          "stateMutability": "view",
          "type": "function"
        },
        {
          "inputs": [],
          "name": "poolLength",
          "outputs": [
            {
              "internalType": "uint256",
              "name": "",
              "type": "uint256"
            }
          ],
          "stateMutability": "view",
          "type": "function"
        },
        {
          "inputs": [],
          "name": "renounceOwnership",
          "outputs": [],
          "stateMutability": "nonpayable",
          "type": "function"
        },
        {
          "inputs": [
            {
              "internalType": "address",
              "name": "_devAddress",
              "type": "address"
            }
          ],
          "name": "setDevAddress",
          "outputs": [],
          "stateMutability": "nonpayable",
          "type": "function"
        },
        {
          "inputs": [
            {
              "internalType": "address",
              "name": "_feeAddress",
              "type": "address"
            }
          ],
          "name": "setFeeAddress",
          "outputs": [],
          "stateMutability": "nonpayable",
          "type": "function"
        },
        {
          "inputs": [],
          "name": "startBlock",
          "outputs": [
            {
              "internalType": "uint256",
              "name": "",
              "type": "uint256"
            }
          ],
          "stateMutability": "view",
          "type": "function"
        },
        {
          "inputs": [],
          "name": "startFarming",
          "outputs": [],
          "stateMutability": "nonpayable",
          "type": "function"
        },
        {
          "inputs": [],
          "name": "totalAllocPoint",
          "outputs": [
            {
              "internalType": "uint256",
              "name": "",
              "type": "uint256"
            }
          ],
          "stateMutability": "view",
          "type": "function"
        },
        {
          "inputs": [],
          "name": "totalEmberInPools",
          "outputs": [
            {
              "internalType": "uint256",
              "name": "",
              "type": "uint256"
            }
          ],
          "stateMutability": "view",
          "type": "function"
        },
        {
          "inputs": [],
          "name": "totalLockedUpRewards",
          "outputs": [
            {
              "internalType": "uint256",
              "name": "",
              "type": "uint256"
            }
          ],
          "stateMutability": "view",
          "type": "function"
        },
        {
          "inputs": [
            {
              "internalType": "address",
              "name": "newOperator",
              "type": "address"
            }
          ],
          "name": "transferOperator",
          "outputs": [],
          "stateMutability": "nonpayable",
          "type": "function"
        },
        {
          "inputs": [
            {
              "internalType": "address",
              "name": "newOwner",
              "type": "address"
            }
          ],
          "name": "transferOwnership",
          "outputs": [],
          "stateMutability": "nonpayable",
          "type": "function"
        },
        {
          "inputs": [
            {
              "internalType": "uint256",
              "name": "_pid",
              "type": "uint256"
            },
            {
              "internalType": "uint256",
              "name": "_allocPoint",
              "type": "uint256"
            },
            {
              "internalType": "bool",
              "name": "_withUpdate",
              "type": "bool"
            }
          ],
          "name": "updateAllocPoint",
          "outputs": [],
          "stateMutability": "nonpayable",
          "type": "function"
        },
        {
          "inputs": [
            {
              "internalType": "uint256",
              "name": "_emberPerBlock",
              "type": "uint256"
            }
          ],
          "name": "updateEmissionRate",
          "outputs": [],
          "stateMutability": "nonpayable",
          "type": "function"
        },
        {
          "inputs": [
            {
              "internalType": "uint256",
              "name": "_pid",
              "type": "uint256"
            }
          ],
          "name": "updatePool",
          "outputs": [],
          "stateMutability": "nonpayable",
          "type": "function"
        },
        {
          "inputs": [
            {
              "internalType": "uint256",
              "name": "",
              "type": "uint256"
            },
            {
              "internalType": "address",
              "name": "",
              "type": "address"
            }
          ],
          "name": "userInfo",
          "outputs": [
            {
              "internalType": "uint256",
              "name": "amount",
              "type": "uint256"
            },
            {
              "internalType": "uint256",
              "name": "rewardDebt",
              "type": "uint256"
            },
            {
              "internalType": "uint256",
              "name": "rewardLockedUp",
              "type": "uint256"
            },
            {
              "internalType": "uint256",
              "name": "nextHarvestUntil",
              "type": "uint256"
            },
            {
              "internalType": "uint256",
              "name": "lastInteraction",
              "type": "uint256"
            }
          ],
          "stateMutability": "view",
          "type": "function"
        },
        {
          "inputs": [
            {
              "internalType": "uint256",
              "name": "_pid",
              "type": "uint256"
            },
            {
              "internalType": "address",
              "name": "_user",
              "type": "address"
            }
          ],
          "name": "userLockedUntil",
          "outputs": [
            {
              "internalType": "uint256",
              "name": "",
              "type": "uint256"
            }
          ],
          "stateMutability": "view",
          "type": "function"
        },
        {
          "inputs": [
            {
              "internalType": "uint256",
              "name": "_pid",
              "type": "uint256"
            },
            {
              "internalType": "uint256",
              "name": "_amount",
              "type": "uint256"
            }
          ],
          "name": "withdraw",
          "outputs": [],
          "stateMutability": "nonpayable",
          "type": "function"
        }
      ],
      "devdoc": {
        "kind": "dev",
        "methods": {
          "owner()": {
            "details": "Returns the address of the current owner."
          },
          "renounceOwnership()": {
            "details": "Leaves the contract without owner. It will not be possible to call `onlyOwner` functions anymore. Can only be called by the current owner. NOTE: Renouncing ownership will leave the contract without an owner, thereby removing any functionality that is only available to the owner."
          },
          "transferOwnership(address)": {
            "details": "Transfers ownership of the contract to a new account (`newOwner`). Can only be called by the current owner."
          }
        },
        "version": 1
      },
      "evm": {
        "bytecode": {
          "linkReferences": {},
          "object": "608060405260006009819055600c55600d805460ff191690553480156200002557600080fd5b5060405162003504380380620035048339810160408190526200004891620001b2565b6200005c62000056620000ec565b62000126565b6001805562000070436312cc0300620001ee565b600a55600280546001600160a01b0384166001600160a01b031991821617909155600682905560048054821633908117909155600580548316821790556003805490921681179091556040516000907f74da04524d50c64947f5dd5381ef1a4dca5cba8ed1d816243f9e48aa0b5617ed908290a3505062000215565b6000620000f93362000176565b156200010c575060131936013560601c90565b62000121620001ae60201b620026481760201c565b905090565b600080546001600160a01b038381166001600160a01b0319831681178455604051919092169283917f8be0079c531659141344cd1fd0a4f28419497f9722a3daafe3b4186f6b6457e09190a35050565b600d5460009060ff168015620001a857506001600160a01b038216730d998dda948c62a4feca7355e46d6b801a1aedd6145b92915050565b3390565b60008060408385031215620001c657600080fd5b82516001600160a01b0381168114620001de57600080fd5b6020939093015192949293505050565b600082198211156200021057634e487b7160e01b600052601160045260246000fd5b500190565b6132df80620002256000396000f3fe608060405234801561001057600080fd5b506004361061025c5760003560e01c8063578bb42d11610145578063afbcfea1116100bd578063d0d41fe11161008c578063de73149d11610071578063de73149d14610599578063e2bbb158146105a3578063f2fde38b146105b657600080fd5b8063d0d41fe114610573578063d1593bc81461058657600080fd5b8063afbcfea11461053c578063bc83ee2214610544578063bde4aeca14610557578063c9e118521461056a57600080fd5b80638705fcd4116101145780638dbb1e3a116100f95780638dbb1e3a146104ac57806393f1a40b146104bf578063a8c95dc01461052f57600080fd5b80638705fcd41461047b5780638da5cb5b1461048e57600080fd5b8063578bb42d14610447578063630b5ba11461044f578063715018a614610457578063812c64f11461045f57600080fd5b8063330ae003116101d8578063474fa630116101a757806351eb05a61161018c57806351eb05a614610403578063570ca73514610416578063572b6c051461043457600080fd5b8063474fa630146103f157806348cd4cb1146103fa57600080fd5b8063330ae0031461038b5780633ad10ef61461039e57806341275358146103be578063441a3e70146103de57600080fd5b806317caf6f11161022f57806329605e771161021457806329605e771461034c5780632a22bc431461035f5780632e6c998d1461036857600080fd5b806317caf6f1146102fe5780631f1b9a7c1461030757600080fd5b8063081e3eda1461026157806308383640146102785780630ba84cd2146102825780631526fe2714610295575b600080fd5b6007545b6040519081526020015b60405180910390f35b6102806105c9565b005b610280610290366004612f77565b61077a565b6102a86102a3366004612f77565b61086b565b6040805173ffffffffffffffffffffffffffffffffffffffff9099168952602089019790975295870194909452606086019290925261ffff16608085015260a084015260c083015260e08201526101000161026f565b61026560095481565b6002546103279073ffffffffffffffffffffffffffffffffffffffff1681565b60405173ffffffffffffffffffffffffffffffffffffffff909116815260200161026f565b61028061035a366004612f3d565b6108dd565b610265600c5481565b61037b610376366004612fa9565b610ab4565b604051901515815260200161026f565b610280610399366004612fd9565b610b01565b6004546103279073ffffffffffffffffffffffffffffffffffffffff1681565b6005546103279073ffffffffffffffffffffffffffffffffffffffff1681565b6102806103ec366004613047565b610ec7565b610265600b5481565b610265600a5481565b610280610411366004612f77565b6112ae565b60035473ffffffffffffffffffffffffffffffffffffffff16610327565b61037b610442366004612f3d565b6114c0565b610280611504565b6102806116b4565b6102806116df565b6104686103e881565b60405161ffff909116815260200161026f565b610280610489366004612f3d565b6117a5565b60005473ffffffffffffffffffffffffffffffffffffffff16610327565b6102656104ba366004613047565b611968565b6105076104cd366004612fa9565b6008602090815260009283526040808420909152908252902080546001820154600283015460038401546004909401549293919290919085565b604080519586526020860194909452928401919091526060830152608082015260a00161026f565b600d5461037b9060ff1681565b61028061197b565b610265610552366004612fa9565b611af6565b610280610565366004613069565b611ca8565b61026560065481565b610280610581366004612f3d565b611e57565b610265610594366004612fa9565b61201a565b6102656212750081565b6102806105b1366004613047565b61208d565b6102806105c4366004612f3d565b6124df565b60035473ffffffffffffffffffffffffffffffffffffffff163314610674576040517f08c379a0000000000000000000000000000000000000000000000000000000008152602060048201526024808201527f4f70657261746f723a2063616c6c6572206973206e6f7420746865206f70657260448201527f61746f720000000000000000000000000000000000000000000000000000000060648201526084015b60405180910390fd5b600d5460ff16610706576040517f08c379a000000000000000000000000000000000000000000000000000000000815260206004820152603260248201527f456d6265725661756c743a206d657461207472616e73616374696f6e7320617260448201527f6520616c72656164792064697361626c65640000000000000000000000000000606482015260840161066b565b600d80547fffffffffffffffffffffffffffffffffffffffffffffffffffffffffffffff0016905561073661264c565b73ffffffffffffffffffffffffffffffffffffffff167f096be170ccc67847e55535e7d8334b2afedd95805baedc160005addb9144745060405160405180910390a2565b60035473ffffffffffffffffffffffffffffffffffffffff163314610820576040517f08c379a0000000000000000000000000000000000000000000000000000000008152602060048201526024808201527f4f70657261746f723a2063616c6c6572206973206e6f7420746865206f70657260448201527f61746f7200000000000000000000000000000000000000000000000000000000606482015260840161066b565b6108286116b4565b600654604080519182526020820183905233917feedc6338c9c1ad8f3cd6c90dd09dbe98dbd57e610d3e59a17996d07acb0d9511910160405180910390a2600655565b6007818154811061087b57600080fd5b60009182526020909120600890910201805460018201546002830154600384015460048501546005860154600687015460079097015473ffffffffffffffffffffffffffffffffffffffff909616975093959294919361ffff90911692909188565b60035473ffffffffffffffffffffffffffffffffffffffff163314610983576040517f08c379a0000000000000000000000000000000000000000000000000000000008152602060048201526024808201527f4f70657261746f723a2063616c6c6572206973206e6f7420746865206f70657260448201527f61746f7200000000000000000000000000000000000000000000000000000000606482015260840161066b565b73ffffffffffffffffffffffffffffffffffffffff8116610a26576040517f08c379a000000000000000000000000000000000000000000000000000000000815260206004820152603260248201527f5472616e736665724f70657261746f723a206e6577206f70657261746f72206960448201527f7320746865207a65726f20616464726573730000000000000000000000000000606482015260840161066b565b60035460405173ffffffffffffffffffffffffffffffffffffffff8084169216907f74da04524d50c64947f5dd5381ef1a4dca5cba8ed1d816243f9e48aa0b5617ed90600090a3600380547fffffffffffffffffffffffff00000000000000000000000000000000000000001673ffffffffffffffffffffffffffffffffffffffff92909216919091179055565b600082815260086020908152604080832073ffffffffffffffffffffffffffffffffffffffff851684529091528120600a544310801590610af9575080600301544210155b949350505050565b610b0961264c565b73ffffffffffffffffffffffffffffffffffffffff16610b3e60005473ffffffffffffffffffffffffffffffffffffffff1690565b73ffffffffffffffffffffffffffffffffffffffff1614610bbb576040517f08c379a000000000000000000000000000000000000000000000000000000000815260206004820181905260248201527f4f776e61626c653a2063616c6c6572206973206e6f7420746865206f776e6572604482015260640161066b565b6103e861ffff85161115610c2b576040517f08c379a000000000000000000000000000000000000000000000000000000000815260206004820152601960248201527f4164643a206465706f7369742066656520746f6f206869676800000000000000604482015260640161066b565b62127500831115610c98576040517f08c379a000000000000000000000000000000000000000000000000000000000815260206004820152601d60248201527f4164643a20696e76616c6964206861727665737420696e74657276616c000000604482015260640161066b565b8015610ca657610ca66116b4565b6000600a544311610cb957600a54610cbb565b435b600954909150610ccb908861268c565b600955604080516101008101825273ffffffffffffffffffffffffffffffffffffffff97881681526020810198895290810191825260006060820181815261ffff9788166080840190815260a0840197885260c0840183815260e0850197885260078054600181018255945293517fa66cc928b5edb82af9bd49922954155ab7b0942694bea4ce44661d9a8736c688600890940293840180547fffffffffffffffffffffffff00000000000000000000000000000000000000001691909b161790995598517fa66cc928b5edb82af9bd49922954155ab7b0942694bea4ce44661d9a8736c68982015591517fa66cc928b5edb82af9bd49922954155ab7b0942694bea4ce44661d9a8736c68a83015596517fa66cc928b5edb82af9bd49922954155ab7b0942694bea4ce44661d9a8736c68b82015594517fa66cc928b5edb82af9bd49922954155ab7b0942694bea4ce44661d9a8736c68c860180547fffffffffffffffffffffffffffffffffffffffffffffffffffffffffffff000016919095161790935590517fa66cc928b5edb82af9bd49922954155ab7b0942694bea4ce44661d9a8736c68d84015592517fa66cc928b5edb82af9bd49922954155ab7b0942694bea4ce44661d9a8736c68e8301555090517fa66cc928b5edb82af9bd49922954155ab7b0942694bea4ce44661d9a8736c68f90910155565b60026001541415610f34576040517f08c379a000000000000000000000000000000000000000000000000000000000815260206004820152601f60248201527f5265656e7472616e637947756172643a207265656e7472616e742063616c6c00604482015260640161066b565b6002600181905550600060078381548110610f5157610f5161324a565b906000526020600020906008020190506000600860008581526020019081526020016000206000610f8061264c565b73ffffffffffffffffffffffffffffffffffffffff1673ffffffffffffffffffffffffffffffffffffffff16815260200190815260200160002090508281600001541015611050576040517f08c379a000000000000000000000000000000000000000000000000000000000815260206004820152602360248201527f57697468647261773a207573657220616d6f756e74206973206e6f7420656e6f60448201527f7567680000000000000000000000000000000000000000000000000000000000606482015260840161066b565b82826006015410156110e4576040517f08c379a000000000000000000000000000000000000000000000000000000000815260206004820152602260248201527f57697468647261773a20706f6f6c20746f74616c206973206e6f7420656e6f7560448201527f6768000000000000000000000000000000000000000000000000000000000000606482015260840161066b565b816007015481600401546110f8919061310f565b4211611186576040517f08c379a000000000000000000000000000000000000000000000000000000000815260206004820152602160248201527f57697468647261773a20796f752063616e6e6f7420776974686472617720796560448201527f7400000000000000000000000000000000000000000000000000000000000000606482015260840161066b565b61118f846112ae565b61119884612698565b82156112205780546111aa90846128a3565b815560068201546111bb90846128a3565b6006830155600254825473ffffffffffffffffffffffffffffffffffffffff908116911614156111f657600c546111f290846128a3565b600c555b61122061120161264c565b835473ffffffffffffffffffffffffffffffffffffffff1690856128af565b600382015481546112419164e8d4a510009161123b91612988565b90612994565b60018201554260048201558361125561264c565b73ffffffffffffffffffffffffffffffffffffffff167ff279e6a1f5e320cca91135676d9cb6e44ca8a08c0b88342bcdb1144f6511b5688560405161129c91815260200190565b60405180910390a35050600180555050565b6000600782815481106112c3576112c361324a565b90600052602060002090600802019050806002015443116112e2575050565b60068101548015806112f657506001820154155b1561130657504360029091015550565b6000611316836002015443611968565b9050600061134360095461123b866001015461133d6006548761298890919063ffffffff16565b90612988565b60025460045491925073ffffffffffffffffffffffffffffffffffffffff908116916340c10f19911661137784600a612994565b6040517fffffffff0000000000000000000000000000000000000000000000000000000060e085901b16815273ffffffffffffffffffffffffffffffffffffffff90921660048301526024820152604401600060405180830381600087803b1580156113e257600080fd5b505af11580156113f6573d6000803e3d6000fd5b50506002546040517f40c10f190000000000000000000000000000000000000000000000000000000081523060048201526024810185905273ffffffffffffffffffffffffffffffffffffffff90911692506340c10f199150604401600060405180830381600087803b15801561146c57600080fd5b505af1158015611480573d6000803e3d6000fd5b50505060068501546114ab91506114a09061123b8464e8d4a51000612988565b60038601549061268c565b60038501555050436002909201919091555050565b600d5460009060ff1680156114fe575073ffffffffffffffffffffffffffffffffffffffff8216730d998dda948c62a4feca7355e46d6b801a1aedd6145b92915050565b60035473ffffffffffffffffffffffffffffffffffffffff1633146115aa576040517f08c379a0000000000000000000000000000000000000000000000000000000008152602060048201526024808201527f4f70657261746f723a2063616c6c6572206973206e6f7420746865206f70657260448201527f61746f7200000000000000000000000000000000000000000000000000000000606482015260840161066b565b600d5460ff161561163d576040517f08c379a000000000000000000000000000000000000000000000000000000000815260206004820152603160248201527f456d6265725661756c743a206d657461207472616e73616374696f6e7320617260448201527f6520616c726561647920656e61626c6564000000000000000000000000000000606482015260840161066b565b600d80547fffffffffffffffffffffffffffffffffffffffffffffffffffffffffffffff0016600117905561167061264c565b73ffffffffffffffffffffffffffffffffffffffff167f92e4c08d47b71e8dc051232b8e475ec296489a67a4ba5cca88ff20fb6ac499e660405160405180910390a2565b60075460005b818110156116db576116cb816112ae565b6116d4816131e2565b90506116ba565b5050565b6116e761264c565b73ffffffffffffffffffffffffffffffffffffffff1661171c60005473ffffffffffffffffffffffffffffffffffffffff1690565b73ffffffffffffffffffffffffffffffffffffffff1614611799576040517f08c379a000000000000000000000000000000000000000000000000000000000815260206004820181905260248201527f4f776e61626c653a2063616c6c6572206973206e6f7420746865206f776e6572604482015260640161066b565b6117a360006129a0565b565b60055473ffffffffffffffffffffffffffffffffffffffff166117c661264c565b73ffffffffffffffffffffffffffffffffffffffff1614611843576040517f08c379a000000000000000000000000000000000000000000000000000000000815260206004820152601860248201527f736574466565416464726573733a20464f5242494444454e0000000000000000604482015260640161066b565b73ffffffffffffffffffffffffffffffffffffffff81166118c0576040517f08c379a000000000000000000000000000000000000000000000000000000000815260206004820152601360248201527f736574466565416464726573733a205a45524f00000000000000000000000000604482015260640161066b565b6118c861264c565b6005546040805173ffffffffffffffffffffffffffffffffffffffff9283168152848316602082015292909116917f6690a53895b5691c039238b384bd857e65c42adcc727775381e02cb90a122613910160405180910390a2600580547fffffffffffffffffffffffff00000000000000000000000000000000000000001673ffffffffffffffffffffffffffffffffffffffff92909216919091179055565b600061197482846128a3565b9392505050565b61198361264c565b73ffffffffffffffffffffffffffffffffffffffff166119b860005473ffffffffffffffffffffffffffffffffffffffff1690565b73ffffffffffffffffffffffffffffffffffffffff1614611a35576040517f08c379a000000000000000000000000000000000000000000000000000000000815260206004820181905260248201527f4f776e61626c653a2063616c6c6572206973206e6f7420746865206f776e6572604482015260640161066b565b600a544310611aa0576040517f08c379a000000000000000000000000000000000000000000000000000000000815260206004820152601b60248201527f4572726f723a206661726d207374617274656420616c72656164790000000000604482015260640161066b565b60075460005b81811015611aee57600060078281548110611ac357611ac361324a565b906000526020600020906008020190504381600201819055505080611ae7906131e2565b9050611aa6565b505043600a55565b60008060078481548110611b0c57611b0c61324a565b600091825260208083208784526008808352604080862073ffffffffffffffffffffffffffffffffffffffff8a811688529452808620949091029091016003810154815492517f70a0823100000000000000000000000000000000000000000000000000000000815230600482015291965093949291909116906370a082319060240160206040518083038186803b158015611ba757600080fd5b505afa158015611bbb573d6000803e3d6000fd5b505050506040513d601f19601f82011682018060405250810190611bdf9190612f90565b9050836002015443118015611bf357508015155b15611c53576000611c08856002015443611968565b90506000611c2f60095461123b886001015461133d6006548761298890919063ffffffff16565b9050611c4e611c478461123b8464e8d4a51000612988565b859061268c565b935050505b6000611c838460010154611c7d64e8d4a5100061123b87896000015461298890919063ffffffff16565b906128a3565b9050611c9c84600201548261268c90919063ffffffff16565b98975050505050505050565b60035473ffffffffffffffffffffffffffffffffffffffff163314611d4e576040517f08c379a0000000000000000000000000000000000000000000000000000000008152602060048201526024808201527f4f70657261746f723a2063616c6c6572206973206e6f7420746865206f70657260448201527f61746f7200000000000000000000000000000000000000000000000000000000606482015260840161066b565b8015611d5c57611d5c6116b4565b611d6461264c565b73ffffffffffffffffffffffffffffffffffffffff167f802633c8d26237616d81bdac01bc40fcdf36e098832601582ec19d7e431c5ef360078581548110611dae57611dae61324a565b90600052602060002090600802016001015484604051611dd8929190918252602082015260400190565b60405180910390a2611e2382611e1d60078681548110611dfa57611dfa61324a565b9060005260206000209060080201600101546009546128a390919063ffffffff16565b9061268c565b6009819055508160078481548110611e3d57611e3d61324a565b906000526020600020906008020160010181905550505050565b60045473ffffffffffffffffffffffffffffffffffffffff16611e7861264c565b73ffffffffffffffffffffffffffffffffffffffff1614611ef5576040517f08c379a000000000000000000000000000000000000000000000000000000000815260206004820152601860248201527f736574446576416464726573733a20464f5242494444454e0000000000000000604482015260640161066b565b73ffffffffffffffffffffffffffffffffffffffff8116611f72576040517f08c379a000000000000000000000000000000000000000000000000000000000815260206004820152601360248201527f736574446576416464726573733a205a45524f00000000000000000000000000604482015260640161066b565b611f7a61264c565b6004546040805173ffffffffffffffffffffffffffffffffffffffff9283168152848316602082015292909116917fd36d63f6c513a911d7912853de740af476b0fbb569aa769e1a4f5bfa37a325c4910160405180910390a2600480547fffffffffffffffffffffffff00000000000000000000000000000000000000001673ffffffffffffffffffffffffffffffffffffffff92909216919091179055565b600082815260086020908152604080832073ffffffffffffffffffffffffffffffffffffffff85168452909152812060078054839190869081106120605761206061324a565b9060005260206000209060080201905080600701548260040154612084919061310f565b95945050505050565b600260015414156120fa576040517f08c379a000000000000000000000000000000000000000000000000000000000815260206004820152601f60248201527f5265656e7472616e637947756172643a207265656e7472616e742063616c6c00604482015260640161066b565b6002600155600a54431015612191576040517f08c379a000000000000000000000000000000000000000000000000000000000815260206004820152602f60248201527f456d6265725661756c743a2063616e6e6f74206465706f736974206265666f7260448201527f65206661726d696e672073746172740000000000000000000000000000000000606482015260840161066b565b6000600783815481106121a6576121a661324a565b9060005260206000209060080201905060006008600085815260200190815260200160002060006121d561264c565b73ffffffffffffffffffffffffffffffffffffffff1673ffffffffffffffffffffffffffffffffffffffff168152602001908152602001600020905061221a846112ae565b61222384612698565b82156124695781546040517f70a0823100000000000000000000000000000000000000000000000000000000815230600482015260009173ffffffffffffffffffffffffffffffffffffffff16906370a082319060240160206040518083038186803b15801561229257600080fd5b505afa1580156122a6573d6000803e3d6000fd5b505050506040513d601f19601f820116820180604052508101906122ca9190612f90565b90506122f76122d761264c565b845473ffffffffffffffffffffffffffffffffffffffff16903087612a15565b82546040517f70a0823100000000000000000000000000000000000000000000000000000000815230600482015260009173ffffffffffffffffffffffffffffffffffffffff16906370a082319060240160206040518083038186803b15801561236057600080fd5b505afa158015612374573d6000803e3d6000fd5b505050506040513d601f19601f820116820180604052508101906123989190612f90565b90506123a481836128a3565b600485015490955061ffff161561240e5760048401546000906123d4906127109061123b90899061ffff16612988565b60055486549192506124009173ffffffffffffffffffffffffffffffffffffffff9081169116836128af565b61240a86826128a3565b9550505b825461241a908661268c565b8355600684015461242b908661268c565b6006850155600254845473ffffffffffffffffffffffffffffffffffffffff9081169116141561246657600c54612462908661268c565b600c555b50505b600382015481546124849164e8d4a510009161123b91612988565b60018201554260048201558361249861264c565b73ffffffffffffffffffffffffffffffffffffffff167f90890809c654f11d6e72a28fa60149770a0d11ec6c92319d6ceb2bb0a4ea1a158560405161129c91815260200190565b6124e761264c565b73ffffffffffffffffffffffffffffffffffffffff1661251c60005473ffffffffffffffffffffffffffffffffffffffff1690565b73ffffffffffffffffffffffffffffffffffffffff1614612599576040517f08c379a000000000000000000000000000000000000000000000000000000000815260206004820181905260248201527f4f776e61626c653a2063616c6c6572206973206e6f7420746865206f776e6572604482015260640161066b565b73ffffffffffffffffffffffffffffffffffffffff811661263c576040517f08c379a000000000000000000000000000000000000000000000000000000000815260206004820152602660248201527f4f776e61626c653a206e6577206f776e657220697320746865207a65726f206160448201527f6464726573730000000000000000000000000000000000000000000000000000606482015260840161066b565b612645816129a0565b50565b3390565b6000612657336114c0565b1561268757507fffffffffffffffffffffffffffffffffffffffffffffffffffffffffffffffec36013560601c90565b503390565b6000611974828461310f565b6000600782815481106126ad576126ad61324a565b9060005260206000209060080201905060006008600084815260200190815260200160002060006126dc61264c565b73ffffffffffffffffffffffffffffffffffffffff1673ffffffffffffffffffffffffffffffffffffffff16815260200190815260200160002090508060030154600014801561272e5750600a544310155b1561274957600582015461274390429061268c565b60038201555b60006127778260010154611c7d64e8d4a5100061123b8760030154876000015461298890919063ffffffff16565b90506127858461037661264c565b1561281457600081118061279d575060008260020154115b1561280f5760006127bb83600201548361268c90919063ffffffff16565b90506127d68360020154600b546128a390919063ffffffff16565b600b5560006002840155426004840181905560058501546127f7919061268c565b600384015561280d61280761264c565b82612a73565b505b61289d565b801561289d576002820154612829908261268c565b6002830155426004830155600b54612841908261268c565b600b558361284d61264c565b73ffffffffffffffffffffffffffffffffffffffff167fee470483107f579a55c754fa00613c45a9a3b617a418b39cb0be97e5381ba7c18360405161289491815260200190565b60405180910390a35b50505050565b6000611974828461319f565b60405173ffffffffffffffffffffffffffffffffffffffff83166024820152604481018290526129839084907fa9059cbb00000000000000000000000000000000000000000000000000000000906064015b604080517fffffffffffffffffffffffffffffffffffffffffffffffffffffffffffffffe08184030181529190526020810180517bffffffffffffffffffffffffffffffffffffffffffffffffffffffff167fffffffff0000000000000000000000000000000000000000000000000000000090931692909217909152612ce5565b505050565b60006119748284613162565b60006119748284613127565b6000805473ffffffffffffffffffffffffffffffffffffffff8381167fffffffffffffffffffffffff0000000000000000000000000000000000000000831681178455604051919092169283917f8be0079c531659141344cd1fd0a4f28419497f9722a3daafe3b4186f6b6457e09190a35050565b60405173ffffffffffffffffffffffffffffffffffffffff8085166024830152831660448201526064810182905261289d9085907f23b872dd0000000000000000000000000000000000000000000000000000000090608401612901565b600c546002546040517f70a0823100000000000000000000000000000000000000000000000000000000815230600482015273ffffffffffffffffffffffffffffffffffffffff909116906370a082319060240160206040518083038186803b158015612adf57600080fd5b505afa158015612af3573d6000803e3d6000fd5b505050506040513d601f19601f82011682018060405250810190612b179190612f90565b11156116db57600c546002546040517f70a08231000000000000000000000000000000000000000000000000000000008152306004820152600092612bca92909173ffffffffffffffffffffffffffffffffffffffff909116906370a082319060240160206040518083038186803b158015612b9257600080fd5b505afa158015612ba6573d6000803e3d6000fd5b505050506040513d601f19601f82011682018060405250810190611c7d9190612f90565b9050808210612c80576002546040517fa9059cbb00000000000000000000000000000000000000000000000000000000815273ffffffffffffffffffffffffffffffffffffffff8581166004830152602482018490529091169063a9059cbb906044015b602060405180830381600087803b158015612c4857600080fd5b505af1158015612c5c573d6000803e3d6000fd5b505050506040513d601f19601f8201168201806040525081019061289d9190612f5a565b8115612983576002546040517fa9059cbb00000000000000000000000000000000000000000000000000000000815273ffffffffffffffffffffffffffffffffffffffff8581166004830152602482018590529091169063a9059cbb90604401612c2e565b6000612d47826040518060400160405280602081526020017f5361666545524332303a206c6f772d6c6576656c2063616c6c206661696c65648152508573ffffffffffffffffffffffffffffffffffffffff16612df19092919063ffffffff16565b8051909150156129835780806020019051810190612d659190612f5a565b612983576040517f08c379a000000000000000000000000000000000000000000000000000000000815260206004820152602a60248201527f5361666545524332303a204552433230206f7065726174696f6e20646964206e60448201527f6f74207375636365656400000000000000000000000000000000000000000000606482015260840161066b565b6060610af9848460008585843b612e64576040517f08c379a000000000000000000000000000000000000000000000000000000000815260206004820152601d60248201527f416464726573733a2063616c6c20746f206e6f6e2d636f6e7472616374000000604482015260640161066b565b6000808673ffffffffffffffffffffffffffffffffffffffff168587604051612e8d91906130a2565b60006040518083038185875af1925050503d8060008114612eca576040519150601f19603f3d011682016040523d82523d6000602084013e612ecf565b606091505b5091509150612edf828286612eea565b979650505050505050565b60608315612ef9575081611974565b825115612f095782518084602001fd5b816040517f08c379a000000000000000000000000000000000000000000000000000000000815260040161066b91906130be565b600060208284031215612f4f57600080fd5b813561197481613279565b600060208284031215612f6c57600080fd5b81516119748161329b565b600060208284031215612f8957600080fd5b5035919050565b600060208284031215612fa257600080fd5b5051919050565b60008060408385031215612fbc57600080fd5b823591506020830135612fce81613279565b809150509250929050565b60008060008060008060c08789031215612ff257600080fd5b86359550602087013561300481613279565b9450604087013561ffff8116811461301b57600080fd5b9350606087013592506080870135915060a08701356130398161329b565b809150509295509295509295565b6000806040838503121561305a57600080fd5b50508035926020909101359150565b60008060006060848603121561307e57600080fd5b833592506020840135915060408401356130978161329b565b809150509250925092565b600082516130b48184602087016131b6565b9190910192915050565b60208152600082518060208401526130dd8160408501602087016131b6565b601f017fffffffffffffffffffffffffffffffffffffffffffffffffffffffffffffffe0169190910160400192915050565b600082198211156131225761312261321b565b500190565b60008261315d577f4e487b7100000000000000000000000000000000000000000000000000000000600052601260045260246000fd5b500490565b6000817fffffffffffffffffffffffffffffffffffffffffffffffffffffffffffffffff048311821515161561319a5761319a61321b565b500290565b6000828210156131b1576131b161321b565b500390565b60005b838110156131d15781810151838201526020016131b9565b8381111561289d5750506000910152565b60007fffffffffffffffffffffffffffffffffffffffffffffffffffffffffffffffff8214156132145761321461321b565b5060010190565b7f4e487b7100000000000000000000000000000000000000000000000000000000600052601160045260246000fd5b7f4e487b7100000000000000000000000000000000000000000000000000000000600052603260045260246000fd5b73ffffffffffffffffffffffffffffffffffffffff8116811461264557600080fd5b801515811461264557600080fdfea26469706673582212207dc5611a2fb5fc7e9275fc2459a49ad85d99823e7cc290c1204308ea6bbe435064736f6c63430008070033",
          "opcodes": "PUSH1 0x80 PUSH1 0x40 MSTORE PUSH1 0x0 PUSH1 0x9 DUP2 SWAP1 SSTORE PUSH1 0xC SSTORE PUSH1 0xD DUP1 SLOAD PUSH1 0xFF NOT AND SWAP1 SSTORE CALLVALUE DUP1 ISZERO PUSH3 0x25 JUMPI PUSH1 0x0 DUP1 REVERT JUMPDEST POP PUSH1 0x40 MLOAD PUSH3 0x3504 CODESIZE SUB DUP1 PUSH3 0x3504 DUP4 CODECOPY DUP2 ADD PUSH1 0x40 DUP2 SWAP1 MSTORE PUSH3 0x48 SWAP2 PUSH3 0x1B2 JUMP JUMPDEST PUSH3 0x5C PUSH3 0x56 PUSH3 0xEC JUMP JUMPDEST PUSH3 0x126 JUMP JUMPDEST PUSH1 0x1 DUP1 SSTORE PUSH3 0x70 NUMBER PUSH4 0x12CC0300 PUSH3 0x1EE JUMP JUMPDEST PUSH1 0xA SSTORE PUSH1 0x2 DUP1 SLOAD PUSH1 0x1 PUSH1 0x1 PUSH1 0xA0 SHL SUB DUP5 AND PUSH1 0x1 PUSH1 0x1 PUSH1 0xA0 SHL SUB NOT SWAP2 DUP3 AND OR SWAP1 SWAP2 SSTORE PUSH1 0x6 DUP3 SWAP1 SSTORE PUSH1 0x4 DUP1 SLOAD DUP3 AND CALLER SWAP1 DUP2 OR SWAP1 SWAP2 SSTORE PUSH1 0x5 DUP1 SLOAD DUP4 AND DUP3 OR SWAP1 SSTORE PUSH1 0x3 DUP1 SLOAD SWAP1 SWAP3 AND DUP2 OR SWAP1 SWAP2 SSTORE PUSH1 0x40 MLOAD PUSH1 0x0 SWAP1 PUSH32 0x74DA04524D50C64947F5DD5381EF1A4DCA5CBA8ED1D816243F9E48AA0B5617ED SWAP1 DUP3 SWAP1 LOG3 POP POP PUSH3 0x215 JUMP JUMPDEST PUSH1 0x0 PUSH3 0xF9 CALLER PUSH3 0x176 JUMP JUMPDEST ISZERO PUSH3 0x10C JUMPI POP PUSH1 0x13 NOT CALLDATASIZE ADD CALLDATALOAD PUSH1 0x60 SHR SWAP1 JUMP JUMPDEST PUSH3 0x121 PUSH3 0x1AE PUSH1 0x20 SHL PUSH3 0x2648 OR PUSH1 0x20 SHR JUMP JUMPDEST SWAP1 POP SWAP1 JUMP JUMPDEST PUSH1 0x0 DUP1 SLOAD PUSH1 0x1 PUSH1 0x1 PUSH1 0xA0 SHL SUB DUP4 DUP2 AND PUSH1 0x1 PUSH1 0x1 PUSH1 0xA0 SHL SUB NOT DUP4 AND DUP2 OR DUP5 SSTORE PUSH1 0x40 MLOAD SWAP2 SWAP1 SWAP3 AND SWAP3 DUP4 SWAP2 PUSH32 0x8BE0079C531659141344CD1FD0A4F28419497F9722A3DAAFE3B4186F6B6457E0 SWAP2 SWAP1 LOG3 POP POP JUMP JUMPDEST PUSH1 0xD SLOAD PUSH1 0x0 SWAP1 PUSH1 0xFF AND DUP1 ISZERO PUSH3 0x1A8 JUMPI POP PUSH1 0x1 PUSH1 0x1 PUSH1 0xA0 SHL SUB DUP3 AND PUSH20 0xD998DDA948C62A4FECA7355E46D6B801A1AEDD6 EQ JUMPDEST SWAP3 SWAP2 POP POP JUMP JUMPDEST CALLER SWAP1 JUMP JUMPDEST PUSH1 0x0 DUP1 PUSH1 0x40 DUP4 DUP6 SUB SLT ISZERO PUSH3 0x1C6 JUMPI PUSH1 0x0 DUP1 REVERT JUMPDEST DUP3 MLOAD PUSH1 0x1 PUSH1 0x1 PUSH1 0xA0 SHL SUB DUP2 AND DUP2 EQ PUSH3 0x1DE JUMPI PUSH1 0x0 DUP1 REVERT JUMPDEST PUSH1 0x20 SWAP4 SWAP1 SWAP4 ADD MLOAD SWAP3 SWAP5 SWAP3 SWAP4 POP POP POP JUMP JUMPDEST PUSH1 0x0 DUP3 NOT DUP3 GT ISZERO PUSH3 0x210 JUMPI PUSH4 0x4E487B71 PUSH1 0xE0 SHL PUSH1 0x0 MSTORE PUSH1 0x11 PUSH1 0x4 MSTORE PUSH1 0x24 PUSH1 0x0 REVERT JUMPDEST POP ADD SWAP1 JUMP JUMPDEST PUSH2 0x32DF DUP1 PUSH3 0x225 PUSH1 0x0 CODECOPY PUSH1 0x0 RETURN INVALID PUSH1 0x80 PUSH1 0x40 MSTORE CALLVALUE DUP1 ISZERO PUSH2 0x10 JUMPI PUSH1 0x0 DUP1 REVERT JUMPDEST POP PUSH1 0x4 CALLDATASIZE LT PUSH2 0x25C JUMPI PUSH1 0x0 CALLDATALOAD PUSH1 0xE0 SHR DUP1 PUSH4 0x578BB42D GT PUSH2 0x145 JUMPI DUP1 PUSH4 0xAFBCFEA1 GT PUSH2 0xBD JUMPI DUP1 PUSH4 0xD0D41FE1 GT PUSH2 0x8C JUMPI DUP1 PUSH4 0xDE73149D GT PUSH2 0x71 JUMPI DUP1 PUSH4 0xDE73149D EQ PUSH2 0x599 JUMPI DUP1 PUSH4 0xE2BBB158 EQ PUSH2 0x5A3 JUMPI DUP1 PUSH4 0xF2FDE38B EQ PUSH2 0x5B6 JUMPI PUSH1 0x0 DUP1 REVERT JUMPDEST DUP1 PUSH4 0xD0D41FE1 EQ PUSH2 0x573 JUMPI DUP1 PUSH4 0xD1593BC8 EQ PUSH2 0x586 JUMPI PUSH1 0x0 DUP1 REVERT JUMPDEST DUP1 PUSH4 0xAFBCFEA1 EQ PUSH2 0x53C JUMPI DUP1 PUSH4 0xBC83EE22 EQ PUSH2 0x544 JUMPI DUP1 PUSH4 0xBDE4AECA EQ PUSH2 0x557 JUMPI DUP1 PUSH4 0xC9E11852 EQ PUSH2 0x56A JUMPI PUSH1 0x0 DUP1 REVERT JUMPDEST DUP1 PUSH4 0x8705FCD4 GT PUSH2 0x114 JUMPI DUP1 PUSH4 0x8DBB1E3A GT PUSH2 0xF9 JUMPI DUP1 PUSH4 0x8DBB1E3A EQ PUSH2 0x4AC JUMPI DUP1 PUSH4 0x93F1A40B EQ PUSH2 0x4BF JUMPI DUP1 PUSH4 0xA8C95DC0 EQ PUSH2 0x52F JUMPI PUSH1 0x0 DUP1 REVERT JUMPDEST DUP1 PUSH4 0x8705FCD4 EQ PUSH2 0x47B JUMPI DUP1 PUSH4 0x8DA5CB5B EQ PUSH2 0x48E JUMPI PUSH1 0x0 DUP1 REVERT JUMPDEST DUP1 PUSH4 0x578BB42D EQ PUSH2 0x447 JUMPI DUP1 PUSH4 0x630B5BA1 EQ PUSH2 0x44F JUMPI DUP1 PUSH4 0x715018A6 EQ PUSH2 0x457 JUMPI DUP1 PUSH4 0x812C64F1 EQ PUSH2 0x45F JUMPI PUSH1 0x0 DUP1 REVERT JUMPDEST DUP1 PUSH4 0x330AE003 GT PUSH2 0x1D8 JUMPI DUP1 PUSH4 0x474FA630 GT PUSH2 0x1A7 JUMPI DUP1 PUSH4 0x51EB05A6 GT PUSH2 0x18C JUMPI DUP1 PUSH4 0x51EB05A6 EQ PUSH2 0x403 JUMPI DUP1 PUSH4 0x570CA735 EQ PUSH2 0x416 JUMPI DUP1 PUSH4 0x572B6C05 EQ PUSH2 0x434 JUMPI PUSH1 0x0 DUP1 REVERT JUMPDEST DUP1 PUSH4 0x474FA630 EQ PUSH2 0x3F1 JUMPI DUP1 PUSH4 0x48CD4CB1 EQ PUSH2 0x3FA JUMPI PUSH1 0x0 DUP1 REVERT JUMPDEST DUP1 PUSH4 0x330AE003 EQ PUSH2 0x38B JUMPI DUP1 PUSH4 0x3AD10EF6 EQ PUSH2 0x39E JUMPI DUP1 PUSH4 0x41275358 EQ PUSH2 0x3BE JUMPI DUP1 PUSH4 0x441A3E70 EQ PUSH2 0x3DE JUMPI PUSH1 0x0 DUP1 REVERT JUMPDEST DUP1 PUSH4 0x17CAF6F1 GT PUSH2 0x22F JUMPI DUP1 PUSH4 0x29605E77 GT PUSH2 0x214 JUMPI DUP1 PUSH4 0x29605E77 EQ PUSH2 0x34C JUMPI DUP1 PUSH4 0x2A22BC43 EQ PUSH2 0x35F JUMPI DUP1 PUSH4 0x2E6C998D EQ PUSH2 0x368 JUMPI PUSH1 0x0 DUP1 REVERT JUMPDEST DUP1 PUSH4 0x17CAF6F1 EQ PUSH2 0x2FE JUMPI DUP1 PUSH4 0x1F1B9A7C EQ PUSH2 0x307 JUMPI PUSH1 0x0 DUP1 REVERT JUMPDEST DUP1 PUSH4 0x81E3EDA EQ PUSH2 0x261 JUMPI DUP1 PUSH4 0x8383640 EQ PUSH2 0x278 JUMPI DUP1 PUSH4 0xBA84CD2 EQ PUSH2 0x282 JUMPI DUP1 PUSH4 0x1526FE27 EQ PUSH2 0x295 JUMPI JUMPDEST PUSH1 0x0 DUP1 REVERT JUMPDEST PUSH1 0x7 SLOAD JUMPDEST PUSH1 0x40 MLOAD SWAP1 DUP2 MSTORE PUSH1 0x20 ADD JUMPDEST PUSH1 0x40 MLOAD DUP1 SWAP2 SUB SWAP1 RETURN JUMPDEST PUSH2 0x280 PUSH2 0x5C9 JUMP JUMPDEST STOP JUMPDEST PUSH2 0x280 PUSH2 0x290 CALLDATASIZE PUSH1 0x4 PUSH2 0x2F77 JUMP JUMPDEST PUSH2 0x77A JUMP JUMPDEST PUSH2 0x2A8 PUSH2 0x2A3 CALLDATASIZE PUSH1 0x4 PUSH2 0x2F77 JUMP JUMPDEST PUSH2 0x86B JUMP JUMPDEST PUSH1 0x40 DUP1 MLOAD PUSH20 0xFFFFFFFFFFFFFFFFFFFFFFFFFFFFFFFFFFFFFFFF SWAP1 SWAP10 AND DUP10 MSTORE PUSH1 0x20 DUP10 ADD SWAP8 SWAP1 SWAP8 MSTORE SWAP6 DUP8 ADD SWAP5 SWAP1 SWAP5 MSTORE PUSH1 0x60 DUP7 ADD SWAP3 SWAP1 SWAP3 MSTORE PUSH2 0xFFFF AND PUSH1 0x80 DUP6 ADD MSTORE PUSH1 0xA0 DUP5 ADD MSTORE PUSH1 0xC0 DUP4 ADD MSTORE PUSH1 0xE0 DUP3 ADD MSTORE PUSH2 0x100 ADD PUSH2 0x26F JUMP JUMPDEST PUSH2 0x265 PUSH1 0x9 SLOAD DUP2 JUMP JUMPDEST PUSH1 0x2 SLOAD PUSH2 0x327 SWAP1 PUSH20 0xFFFFFFFFFFFFFFFFFFFFFFFFFFFFFFFFFFFFFFFF AND DUP2 JUMP JUMPDEST PUSH1 0x40 MLOAD PUSH20 0xFFFFFFFFFFFFFFFFFFFFFFFFFFFFFFFFFFFFFFFF SWAP1 SWAP2 AND DUP2 MSTORE PUSH1 0x20 ADD PUSH2 0x26F JUMP JUMPDEST PUSH2 0x280 PUSH2 0x35A CALLDATASIZE PUSH1 0x4 PUSH2 0x2F3D JUMP JUMPDEST PUSH2 0x8DD JUMP JUMPDEST PUSH2 0x265 PUSH1 0xC SLOAD DUP2 JUMP JUMPDEST PUSH2 0x37B PUSH2 0x376 CALLDATASIZE PUSH1 0x4 PUSH2 0x2FA9 JUMP JUMPDEST PUSH2 0xAB4 JUMP JUMPDEST PUSH1 0x40 MLOAD SWAP1 ISZERO ISZERO DUP2 MSTORE PUSH1 0x20 ADD PUSH2 0x26F JUMP JUMPDEST PUSH2 0x280 PUSH2 0x399 CALLDATASIZE PUSH1 0x4 PUSH2 0x2FD9 JUMP JUMPDEST PUSH2 0xB01 JUMP JUMPDEST PUSH1 0x4 SLOAD PUSH2 0x327 SWAP1 PUSH20 0xFFFFFFFFFFFFFFFFFFFFFFFFFFFFFFFFFFFFFFFF AND DUP2 JUMP JUMPDEST PUSH1 0x5 SLOAD PUSH2 0x327 SWAP1 PUSH20 0xFFFFFFFFFFFFFFFFFFFFFFFFFFFFFFFFFFFFFFFF AND DUP2 JUMP JUMPDEST PUSH2 0x280 PUSH2 0x3EC CALLDATASIZE PUSH1 0x4 PUSH2 0x3047 JUMP JUMPDEST PUSH2 0xEC7 JUMP JUMPDEST PUSH2 0x265 PUSH1 0xB SLOAD DUP2 JUMP JUMPDEST PUSH2 0x265 PUSH1 0xA SLOAD DUP2 JUMP JUMPDEST PUSH2 0x280 PUSH2 0x411 CALLDATASIZE PUSH1 0x4 PUSH2 0x2F77 JUMP JUMPDEST PUSH2 0x12AE JUMP JUMPDEST PUSH1 0x3 SLOAD PUSH20 0xFFFFFFFFFFFFFFFFFFFFFFFFFFFFFFFFFFFFFFFF AND PUSH2 0x327 JUMP JUMPDEST PUSH2 0x37B PUSH2 0x442 CALLDATASIZE PUSH1 0x4 PUSH2 0x2F3D JUMP JUMPDEST PUSH2 0x14C0 JUMP JUMPDEST PUSH2 0x280 PUSH2 0x1504 JUMP JUMPDEST PUSH2 0x280 PUSH2 0x16B4 JUMP JUMPDEST PUSH2 0x280 PUSH2 0x16DF JUMP JUMPDEST PUSH2 0x468 PUSH2 0x3E8 DUP2 JUMP JUMPDEST PUSH1 0x40 MLOAD PUSH2 0xFFFF SWAP1 SWAP2 AND DUP2 MSTORE PUSH1 0x20 ADD PUSH2 0x26F JUMP JUMPDEST PUSH2 0x280 PUSH2 0x489 CALLDATASIZE PUSH1 0x4 PUSH2 0x2F3D JUMP JUMPDEST PUSH2 0x17A5 JUMP JUMPDEST PUSH1 0x0 SLOAD PUSH20 0xFFFFFFFFFFFFFFFFFFFFFFFFFFFFFFFFFFFFFFFF AND PUSH2 0x327 JUMP JUMPDEST PUSH2 0x265 PUSH2 0x4BA CALLDATASIZE PUSH1 0x4 PUSH2 0x3047 JUMP JUMPDEST PUSH2 0x1968 JUMP JUMPDEST PUSH2 0x507 PUSH2 0x4CD CALLDATASIZE PUSH1 0x4 PUSH2 0x2FA9 JUMP JUMPDEST PUSH1 0x8 PUSH1 0x20 SWAP1 DUP2 MSTORE PUSH1 0x0 SWAP3 DUP4 MSTORE PUSH1 0x40 DUP1 DUP5 KECCAK256 SWAP1 SWAP2 MSTORE SWAP1 DUP3 MSTORE SWAP1 KECCAK256 DUP1 SLOAD PUSH1 0x1 DUP3 ADD SLOAD PUSH1 0x2 DUP4 ADD SLOAD PUSH1 0x3 DUP5 ADD SLOAD PUSH1 0x4 SWAP1 SWAP5 ADD SLOAD SWAP3 SWAP4 SWAP2 SWAP3 SWAP1 SWAP2 SWAP1 DUP6 JUMP JUMPDEST PUSH1 0x40 DUP1 MLOAD SWAP6 DUP7 MSTORE PUSH1 0x20 DUP7 ADD SWAP5 SWAP1 SWAP5 MSTORE SWAP3 DUP5 ADD SWAP2 SWAP1 SWAP2 MSTORE PUSH1 0x60 DUP4 ADD MSTORE PUSH1 0x80 DUP3 ADD MSTORE PUSH1 0xA0 ADD PUSH2 0x26F JUMP JUMPDEST PUSH1 0xD SLOAD PUSH2 0x37B SWAP1 PUSH1 0xFF AND DUP2 JUMP JUMPDEST PUSH2 0x280 PUSH2 0x197B JUMP JUMPDEST PUSH2 0x265 PUSH2 0x552 CALLDATASIZE PUSH1 0x4 PUSH2 0x2FA9 JUMP JUMPDEST PUSH2 0x1AF6 JUMP JUMPDEST PUSH2 0x280 PUSH2 0x565 CALLDATASIZE PUSH1 0x4 PUSH2 0x3069 JUMP JUMPDEST PUSH2 0x1CA8 JUMP JUMPDEST PUSH2 0x265 PUSH1 0x6 SLOAD DUP2 JUMP JUMPDEST PUSH2 0x280 PUSH2 0x581 CALLDATASIZE PUSH1 0x4 PUSH2 0x2F3D JUMP JUMPDEST PUSH2 0x1E57 JUMP JUMPDEST PUSH2 0x265 PUSH2 0x594 CALLDATASIZE PUSH1 0x4 PUSH2 0x2FA9 JUMP JUMPDEST PUSH2 0x201A JUMP JUMPDEST PUSH2 0x265 PUSH3 0x127500 DUP2 JUMP JUMPDEST PUSH2 0x280 PUSH2 0x5B1 CALLDATASIZE PUSH1 0x4 PUSH2 0x3047 JUMP JUMPDEST PUSH2 0x208D JUMP JUMPDEST PUSH2 0x280 PUSH2 0x5C4 CALLDATASIZE PUSH1 0x4 PUSH2 0x2F3D JUMP JUMPDEST PUSH2 0x24DF JUMP JUMPDEST PUSH1 0x3 SLOAD PUSH20 0xFFFFFFFFFFFFFFFFFFFFFFFFFFFFFFFFFFFFFFFF AND CALLER EQ PUSH2 0x674 JUMPI PUSH1 0x40 MLOAD PUSH32 0x8C379A000000000000000000000000000000000000000000000000000000000 DUP2 MSTORE PUSH1 0x20 PUSH1 0x4 DUP3 ADD MSTORE PUSH1 0x24 DUP1 DUP3 ADD MSTORE PUSH32 0x4F70657261746F723A2063616C6C6572206973206E6F7420746865206F706572 PUSH1 0x44 DUP3 ADD MSTORE PUSH32 0x61746F7200000000000000000000000000000000000000000000000000000000 PUSH1 0x64 DUP3 ADD MSTORE PUSH1 0x84 ADD JUMPDEST PUSH1 0x40 MLOAD DUP1 SWAP2 SUB SWAP1 REVERT JUMPDEST PUSH1 0xD SLOAD PUSH1 0xFF AND PUSH2 0x706 JUMPI PUSH1 0x40 MLOAD PUSH32 0x8C379A000000000000000000000000000000000000000000000000000000000 DUP2 MSTORE PUSH1 0x20 PUSH1 0x4 DUP3 ADD MSTORE PUSH1 0x32 PUSH1 0x24 DUP3 ADD MSTORE PUSH32 0x456D6265725661756C743A206D657461207472616E73616374696F6E73206172 PUSH1 0x44 DUP3 ADD MSTORE PUSH32 0x6520616C72656164792064697361626C65640000000000000000000000000000 PUSH1 0x64 DUP3 ADD MSTORE PUSH1 0x84 ADD PUSH2 0x66B JUMP JUMPDEST PUSH1 0xD DUP1 SLOAD PUSH32 0xFFFFFFFFFFFFFFFFFFFFFFFFFFFFFFFFFFFFFFFFFFFFFFFFFFFFFFFFFFFFFF00 AND SWAP1 SSTORE PUSH2 0x736 PUSH2 0x264C JUMP JUMPDEST PUSH20 0xFFFFFFFFFFFFFFFFFFFFFFFFFFFFFFFFFFFFFFFF AND PUSH32 0x96BE170CCC67847E55535E7D8334B2AFEDD95805BAEDC160005ADDB91447450 PUSH1 0x40 MLOAD PUSH1 0x40 MLOAD DUP1 SWAP2 SUB SWAP1 LOG2 JUMP JUMPDEST PUSH1 0x3 SLOAD PUSH20 0xFFFFFFFFFFFFFFFFFFFFFFFFFFFFFFFFFFFFFFFF AND CALLER EQ PUSH2 0x820 JUMPI PUSH1 0x40 MLOAD PUSH32 0x8C379A000000000000000000000000000000000000000000000000000000000 DUP2 MSTORE PUSH1 0x20 PUSH1 0x4 DUP3 ADD MSTORE PUSH1 0x24 DUP1 DUP3 ADD MSTORE PUSH32 0x4F70657261746F723A2063616C6C6572206973206E6F7420746865206F706572 PUSH1 0x44 DUP3 ADD MSTORE PUSH32 0x61746F7200000000000000000000000000000000000000000000000000000000 PUSH1 0x64 DUP3 ADD MSTORE PUSH1 0x84 ADD PUSH2 0x66B JUMP JUMPDEST PUSH2 0x828 PUSH2 0x16B4 JUMP JUMPDEST PUSH1 0x6 SLOAD PUSH1 0x40 DUP1 MLOAD SWAP2 DUP3 MSTORE PUSH1 0x20 DUP3 ADD DUP4 SWAP1 MSTORE CALLER SWAP2 PUSH32 0xEEDC6338C9C1AD8F3CD6C90DD09DBE98DBD57E610D3E59A17996D07ACB0D9511 SWAP2 ADD PUSH1 0x40 MLOAD DUP1 SWAP2 SUB SWAP1 LOG2 PUSH1 0x6 SSTORE JUMP JUMPDEST PUSH1 0x7 DUP2 DUP2 SLOAD DUP2 LT PUSH2 0x87B JUMPI PUSH1 0x0 DUP1 REVERT JUMPDEST PUSH1 0x0 SWAP2 DUP3 MSTORE PUSH1 0x20 SWAP1 SWAP2 KECCAK256 PUSH1 0x8 SWAP1 SWAP2 MUL ADD DUP1 SLOAD PUSH1 0x1 DUP3 ADD SLOAD PUSH1 0x2 DUP4 ADD SLOAD PUSH1 0x3 DUP5 ADD SLOAD PUSH1 0x4 DUP6 ADD SLOAD PUSH1 0x5 DUP7 ADD SLOAD PUSH1 0x6 DUP8 ADD SLOAD PUSH1 0x7 SWAP1 SWAP8 ADD SLOAD PUSH20 0xFFFFFFFFFFFFFFFFFFFFFFFFFFFFFFFFFFFFFFFF SWAP1 SWAP7 AND SWAP8 POP SWAP4 SWAP6 SWAP3 SWAP5 SWAP2 SWAP4 PUSH2 0xFFFF SWAP1 SWAP2 AND SWAP3 SWAP1 SWAP2 DUP9 JUMP JUMPDEST PUSH1 0x3 SLOAD PUSH20 0xFFFFFFFFFFFFFFFFFFFFFFFFFFFFFFFFFFFFFFFF AND CALLER EQ PUSH2 0x983 JUMPI PUSH1 0x40 MLOAD PUSH32 0x8C379A000000000000000000000000000000000000000000000000000000000 DUP2 MSTORE PUSH1 0x20 PUSH1 0x4 DUP3 ADD MSTORE PUSH1 0x24 DUP1 DUP3 ADD MSTORE PUSH32 0x4F70657261746F723A2063616C6C6572206973206E6F7420746865206F706572 PUSH1 0x44 DUP3 ADD MSTORE PUSH32 0x61746F7200000000000000000000000000000000000000000000000000000000 PUSH1 0x64 DUP3 ADD MSTORE PUSH1 0x84 ADD PUSH2 0x66B JUMP JUMPDEST PUSH20 0xFFFFFFFFFFFFFFFFFFFFFFFFFFFFFFFFFFFFFFFF DUP2 AND PUSH2 0xA26 JUMPI PUSH1 0x40 MLOAD PUSH32 0x8C379A000000000000000000000000000000000000000000000000000000000 DUP2 MSTORE PUSH1 0x20 PUSH1 0x4 DUP3 ADD MSTORE PUSH1 0x32 PUSH1 0x24 DUP3 ADD MSTORE PUSH32 0x5472616E736665724F70657261746F723A206E6577206F70657261746F722069 PUSH1 0x44 DUP3 ADD MSTORE PUSH32 0x7320746865207A65726F20616464726573730000000000000000000000000000 PUSH1 0x64 DUP3 ADD MSTORE PUSH1 0x84 ADD PUSH2 0x66B JUMP JUMPDEST PUSH1 0x3 SLOAD PUSH1 0x40 MLOAD PUSH20 0xFFFFFFFFFFFFFFFFFFFFFFFFFFFFFFFFFFFFFFFF DUP1 DUP5 AND SWAP3 AND SWAP1 PUSH32 0x74DA04524D50C64947F5DD5381EF1A4DCA5CBA8ED1D816243F9E48AA0B5617ED SWAP1 PUSH1 0x0 SWAP1 LOG3 PUSH1 0x3 DUP1 SLOAD PUSH32 0xFFFFFFFFFFFFFFFFFFFFFFFF0000000000000000000000000000000000000000 AND PUSH20 0xFFFFFFFFFFFFFFFFFFFFFFFFFFFFFFFFFFFFFFFF SWAP3 SWAP1 SWAP3 AND SWAP2 SWAP1 SWAP2 OR SWAP1 SSTORE JUMP JUMPDEST PUSH1 0x0 DUP3 DUP2 MSTORE PUSH1 0x8 PUSH1 0x20 SWAP1 DUP2 MSTORE PUSH1 0x40 DUP1 DUP4 KECCAK256 PUSH20 0xFFFFFFFFFFFFFFFFFFFFFFFFFFFFFFFFFFFFFFFF DUP6 AND DUP5 MSTORE SWAP1 SWAP2 MSTORE DUP2 KECCAK256 PUSH1 0xA SLOAD NUMBER LT DUP1 ISZERO SWAP1 PUSH2 0xAF9 JUMPI POP DUP1 PUSH1 0x3 ADD SLOAD TIMESTAMP LT ISZERO JUMPDEST SWAP5 SWAP4 POP POP POP POP JUMP JUMPDEST PUSH2 0xB09 PUSH2 0x264C JUMP JUMPDEST PUSH20 0xFFFFFFFFFFFFFFFFFFFFFFFFFFFFFFFFFFFFFFFF AND PUSH2 0xB3E PUSH1 0x0 SLOAD PUSH20 0xFFFFFFFFFFFFFFFFFFFFFFFFFFFFFFFFFFFFFFFF AND SWAP1 JUMP JUMPDEST PUSH20 0xFFFFFFFFFFFFFFFFFFFFFFFFFFFFFFFFFFFFFFFF AND EQ PUSH2 0xBBB JUMPI PUSH1 0x40 MLOAD PUSH32 0x8C379A000000000000000000000000000000000000000000000000000000000 DUP2 MSTORE PUSH1 0x20 PUSH1 0x4 DUP3 ADD DUP2 SWAP1 MSTORE PUSH1 0x24 DUP3 ADD MSTORE PUSH32 0x4F776E61626C653A2063616C6C6572206973206E6F7420746865206F776E6572 PUSH1 0x44 DUP3 ADD MSTORE PUSH1 0x64 ADD PUSH2 0x66B JUMP JUMPDEST PUSH2 0x3E8 PUSH2 0xFFFF DUP6 AND GT ISZERO PUSH2 0xC2B JUMPI PUSH1 0x40 MLOAD PUSH32 0x8C379A000000000000000000000000000000000000000000000000000000000 DUP2 MSTORE PUSH1 0x20 PUSH1 0x4 DUP3 ADD MSTORE PUSH1 0x19 PUSH1 0x24 DUP3 ADD MSTORE PUSH32 0x4164643A206465706F7369742066656520746F6F206869676800000000000000 PUSH1 0x44 DUP3 ADD MSTORE PUSH1 0x64 ADD PUSH2 0x66B JUMP JUMPDEST PUSH3 0x127500 DUP4 GT ISZERO PUSH2 0xC98 JUMPI PUSH1 0x40 MLOAD PUSH32 0x8C379A000000000000000000000000000000000000000000000000000000000 DUP2 MSTORE PUSH1 0x20 PUSH1 0x4 DUP3 ADD MSTORE PUSH1 0x1D PUSH1 0x24 DUP3 ADD MSTORE PUSH32 0x4164643A20696E76616C6964206861727665737420696E74657276616C000000 PUSH1 0x44 DUP3 ADD MSTORE PUSH1 0x64 ADD PUSH2 0x66B JUMP JUMPDEST DUP1 ISZERO PUSH2 0xCA6 JUMPI PUSH2 0xCA6 PUSH2 0x16B4 JUMP JUMPDEST PUSH1 0x0 PUSH1 0xA SLOAD NUMBER GT PUSH2 0xCB9 JUMPI PUSH1 0xA SLOAD PUSH2 0xCBB JUMP JUMPDEST NUMBER JUMPDEST PUSH1 0x9 SLOAD SWAP1 SWAP2 POP PUSH2 0xCCB SWAP1 DUP9 PUSH2 0x268C JUMP JUMPDEST PUSH1 0x9 SSTORE PUSH1 0x40 DUP1 MLOAD PUSH2 0x100 DUP2 ADD DUP3 MSTORE PUSH20 0xFFFFFFFFFFFFFFFFFFFFFFFFFFFFFFFFFFFFFFFF SWAP8 DUP9 AND DUP2 MSTORE PUSH1 0x20 DUP2 ADD SWAP9 DUP10 MSTORE SWAP1 DUP2 ADD SWAP2 DUP3 MSTORE PUSH1 0x0 PUSH1 0x60 DUP3 ADD DUP2 DUP2 MSTORE PUSH2 0xFFFF SWAP8 DUP9 AND PUSH1 0x80 DUP5 ADD SWAP1 DUP2 MSTORE PUSH1 0xA0 DUP5 ADD SWAP8 DUP9 MSTORE PUSH1 0xC0 DUP5 ADD DUP4 DUP2 MSTORE PUSH1 0xE0 DUP6 ADD SWAP8 DUP9 MSTORE PUSH1 0x7 DUP1 SLOAD PUSH1 0x1 DUP2 ADD DUP3 SSTORE SWAP5 MSTORE SWAP4 MLOAD PUSH32 0xA66CC928B5EDB82AF9BD49922954155AB7B0942694BEA4CE44661D9A8736C688 PUSH1 0x8 SWAP1 SWAP5 MUL SWAP4 DUP5 ADD DUP1 SLOAD PUSH32 0xFFFFFFFFFFFFFFFFFFFFFFFF0000000000000000000000000000000000000000 AND SWAP2 SWAP1 SWAP12 AND OR SWAP1 SWAP10 SSTORE SWAP9 MLOAD PUSH32 0xA66CC928B5EDB82AF9BD49922954155AB7B0942694BEA4CE44661D9A8736C689 DUP3 ADD SSTORE SWAP2 MLOAD PUSH32 0xA66CC928B5EDB82AF9BD49922954155AB7B0942694BEA4CE44661D9A8736C68A DUP4 ADD SSTORE SWAP7 MLOAD PUSH32 0xA66CC928B5EDB82AF9BD49922954155AB7B0942694BEA4CE44661D9A8736C68B DUP3 ADD SSTORE SWAP5 MLOAD PUSH32 0xA66CC928B5EDB82AF9BD49922954155AB7B0942694BEA4CE44661D9A8736C68C DUP7 ADD DUP1 SLOAD PUSH32 0xFFFFFFFFFFFFFFFFFFFFFFFFFFFFFFFFFFFFFFFFFFFFFFFFFFFFFFFFFFFF0000 AND SWAP2 SWAP1 SWAP6 AND OR SWAP1 SWAP4 SSTORE SWAP1 MLOAD PUSH32 0xA66CC928B5EDB82AF9BD49922954155AB7B0942694BEA4CE44661D9A8736C68D DUP5 ADD SSTORE SWAP3 MLOAD PUSH32 0xA66CC928B5EDB82AF9BD49922954155AB7B0942694BEA4CE44661D9A8736C68E DUP4 ADD SSTORE POP SWAP1 MLOAD PUSH32 0xA66CC928B5EDB82AF9BD49922954155AB7B0942694BEA4CE44661D9A8736C68F SWAP1 SWAP2 ADD SSTORE JUMP JUMPDEST PUSH1 0x2 PUSH1 0x1 SLOAD EQ ISZERO PUSH2 0xF34 JUMPI PUSH1 0x40 MLOAD PUSH32 0x8C379A000000000000000000000000000000000000000000000000000000000 DUP2 MSTORE PUSH1 0x20 PUSH1 0x4 DUP3 ADD MSTORE PUSH1 0x1F PUSH1 0x24 DUP3 ADD MSTORE PUSH32 0x5265656E7472616E637947756172643A207265656E7472616E742063616C6C00 PUSH1 0x44 DUP3 ADD MSTORE PUSH1 0x64 ADD PUSH2 0x66B JUMP JUMPDEST PUSH1 0x2 PUSH1 0x1 DUP2 SWAP1 SSTORE POP PUSH1 0x0 PUSH1 0x7 DUP4 DUP2 SLOAD DUP2 LT PUSH2 0xF51 JUMPI PUSH2 0xF51 PUSH2 0x324A JUMP JUMPDEST SWAP1 PUSH1 0x0 MSTORE PUSH1 0x20 PUSH1 0x0 KECCAK256 SWAP1 PUSH1 0x8 MUL ADD SWAP1 POP PUSH1 0x0 PUSH1 0x8 PUSH1 0x0 DUP6 DUP2 MSTORE PUSH1 0x20 ADD SWAP1 DUP2 MSTORE PUSH1 0x20 ADD PUSH1 0x0 KECCAK256 PUSH1 0x0 PUSH2 0xF80 PUSH2 0x264C JUMP JUMPDEST PUSH20 0xFFFFFFFFFFFFFFFFFFFFFFFFFFFFFFFFFFFFFFFF AND PUSH20 0xFFFFFFFFFFFFFFFFFFFFFFFFFFFFFFFFFFFFFFFF AND DUP2 MSTORE PUSH1 0x20 ADD SWAP1 DUP2 MSTORE PUSH1 0x20 ADD PUSH1 0x0 KECCAK256 SWAP1 POP DUP3 DUP2 PUSH1 0x0 ADD SLOAD LT ISZERO PUSH2 0x1050 JUMPI PUSH1 0x40 MLOAD PUSH32 0x8C379A000000000000000000000000000000000000000000000000000000000 DUP2 MSTORE PUSH1 0x20 PUSH1 0x4 DUP3 ADD MSTORE PUSH1 0x23 PUSH1 0x24 DUP3 ADD MSTORE PUSH32 0x57697468647261773A207573657220616D6F756E74206973206E6F7420656E6F PUSH1 0x44 DUP3 ADD MSTORE PUSH32 0x7567680000000000000000000000000000000000000000000000000000000000 PUSH1 0x64 DUP3 ADD MSTORE PUSH1 0x84 ADD PUSH2 0x66B JUMP JUMPDEST DUP3 DUP3 PUSH1 0x6 ADD SLOAD LT ISZERO PUSH2 0x10E4 JUMPI PUSH1 0x40 MLOAD PUSH32 0x8C379A000000000000000000000000000000000000000000000000000000000 DUP2 MSTORE PUSH1 0x20 PUSH1 0x4 DUP3 ADD MSTORE PUSH1 0x22 PUSH1 0x24 DUP3 ADD MSTORE PUSH32 0x57697468647261773A20706F6F6C20746F74616C206973206E6F7420656E6F75 PUSH1 0x44 DUP3 ADD MSTORE PUSH32 0x6768000000000000000000000000000000000000000000000000000000000000 PUSH1 0x64 DUP3 ADD MSTORE PUSH1 0x84 ADD PUSH2 0x66B JUMP JUMPDEST DUP2 PUSH1 0x7 ADD SLOAD DUP2 PUSH1 0x4 ADD SLOAD PUSH2 0x10F8 SWAP2 SWAP1 PUSH2 0x310F JUMP JUMPDEST TIMESTAMP GT PUSH2 0x1186 JUMPI PUSH1 0x40 MLOAD PUSH32 0x8C379A000000000000000000000000000000000000000000000000000000000 DUP2 MSTORE PUSH1 0x20 PUSH1 0x4 DUP3 ADD MSTORE PUSH1 0x21 PUSH1 0x24 DUP3 ADD MSTORE PUSH32 0x57697468647261773A20796F752063616E6E6F74207769746864726177207965 PUSH1 0x44 DUP3 ADD MSTORE PUSH32 0x7400000000000000000000000000000000000000000000000000000000000000 PUSH1 0x64 DUP3 ADD MSTORE PUSH1 0x84 ADD PUSH2 0x66B JUMP JUMPDEST PUSH2 0x118F DUP5 PUSH2 0x12AE JUMP JUMPDEST PUSH2 0x1198 DUP5 PUSH2 0x2698 JUMP JUMPDEST DUP3 ISZERO PUSH2 0x1220 JUMPI DUP1 SLOAD PUSH2 0x11AA SWAP1 DUP5 PUSH2 0x28A3 JUMP JUMPDEST DUP2 SSTORE PUSH1 0x6 DUP3 ADD SLOAD PUSH2 0x11BB SWAP1 DUP5 PUSH2 0x28A3 JUMP JUMPDEST PUSH1 0x6 DUP4 ADD SSTORE PUSH1 0x2 SLOAD DUP3 SLOAD PUSH20 0xFFFFFFFFFFFFFFFFFFFFFFFFFFFFFFFFFFFFFFFF SWAP1 DUP2 AND SWAP2 AND EQ ISZERO PUSH2 0x11F6 JUMPI PUSH1 0xC SLOAD PUSH2 0x11F2 SWAP1 DUP5 PUSH2 0x28A3 JUMP JUMPDEST PUSH1 0xC SSTORE JUMPDEST PUSH2 0x1220 PUSH2 0x1201 PUSH2 0x264C JUMP JUMPDEST DUP4 SLOAD PUSH20 0xFFFFFFFFFFFFFFFFFFFFFFFFFFFFFFFFFFFFFFFF AND SWAP1 DUP6 PUSH2 0x28AF JUMP JUMPDEST PUSH1 0x3 DUP3 ADD SLOAD DUP2 SLOAD PUSH2 0x1241 SWAP2 PUSH5 0xE8D4A51000 SWAP2 PUSH2 0x123B SWAP2 PUSH2 0x2988 JUMP JUMPDEST SWAP1 PUSH2 0x2994 JUMP JUMPDEST PUSH1 0x1 DUP3 ADD SSTORE TIMESTAMP PUSH1 0x4 DUP3 ADD SSTORE DUP4 PUSH2 0x1255 PUSH2 0x264C JUMP JUMPDEST PUSH20 0xFFFFFFFFFFFFFFFFFFFFFFFFFFFFFFFFFFFFFFFF AND PUSH32 0xF279E6A1F5E320CCA91135676D9CB6E44CA8A08C0B88342BCDB1144F6511B568 DUP6 PUSH1 0x40 MLOAD PUSH2 0x129C SWAP2 DUP2 MSTORE PUSH1 0x20 ADD SWAP1 JUMP JUMPDEST PUSH1 0x40 MLOAD DUP1 SWAP2 SUB SWAP1 LOG3 POP POP PUSH1 0x1 DUP1 SSTORE POP POP JUMP JUMPDEST PUSH1 0x0 PUSH1 0x7 DUP3 DUP2 SLOAD DUP2 LT PUSH2 0x12C3 JUMPI PUSH2 0x12C3 PUSH2 0x324A JUMP JUMPDEST SWAP1 PUSH1 0x0 MSTORE PUSH1 0x20 PUSH1 0x0 KECCAK256 SWAP1 PUSH1 0x8 MUL ADD SWAP1 POP DUP1 PUSH1 0x2 ADD SLOAD NUMBER GT PUSH2 0x12E2 JUMPI POP POP JUMP JUMPDEST PUSH1 0x6 DUP2 ADD SLOAD DUP1 ISZERO DUP1 PUSH2 0x12F6 JUMPI POP PUSH1 0x1 DUP3 ADD SLOAD ISZERO JUMPDEST ISZERO PUSH2 0x1306 JUMPI POP NUMBER PUSH1 0x2 SWAP1 SWAP2 ADD SSTORE POP JUMP JUMPDEST PUSH1 0x0 PUSH2 0x1316 DUP4 PUSH1 0x2 ADD SLOAD NUMBER PUSH2 0x1968 JUMP JUMPDEST SWAP1 POP PUSH1 0x0 PUSH2 0x1343 PUSH1 0x9 SLOAD PUSH2 0x123B DUP7 PUSH1 0x1 ADD SLOAD PUSH2 0x133D PUSH1 0x6 SLOAD DUP8 PUSH2 0x2988 SWAP1 SWAP2 SWAP1 PUSH4 0xFFFFFFFF AND JUMP JUMPDEST SWAP1 PUSH2 0x2988 JUMP JUMPDEST PUSH1 0x2 SLOAD PUSH1 0x4 SLOAD SWAP2 SWAP3 POP PUSH20 0xFFFFFFFFFFFFFFFFFFFFFFFFFFFFFFFFFFFFFFFF SWAP1 DUP2 AND SWAP2 PUSH4 0x40C10F19 SWAP2 AND PUSH2 0x1377 DUP5 PUSH1 0xA PUSH2 0x2994 JUMP JUMPDEST PUSH1 0x40 MLOAD PUSH32 0xFFFFFFFF00000000000000000000000000000000000000000000000000000000 PUSH1 0xE0 DUP6 SWAP1 SHL AND DUP2 MSTORE PUSH20 0xFFFFFFFFFFFFFFFFFFFFFFFFFFFFFFFFFFFFFFFF SWAP1 SWAP3 AND PUSH1 0x4 DUP4 ADD MSTORE PUSH1 0x24 DUP3 ADD MSTORE PUSH1 0x44 ADD PUSH1 0x0 PUSH1 0x40 MLOAD DUP1 DUP4 SUB DUP2 PUSH1 0x0 DUP8 DUP1 EXTCODESIZE ISZERO DUP1 ISZERO PUSH2 0x13E2 JUMPI PUSH1 0x0 DUP1 REVERT JUMPDEST POP GAS CALL ISZERO DUP1 ISZERO PUSH2 0x13F6 JUMPI RETURNDATASIZE PUSH1 0x0 DUP1 RETURNDATACOPY RETURNDATASIZE PUSH1 0x0 REVERT JUMPDEST POP POP PUSH1 0x2 SLOAD PUSH1 0x40 MLOAD PUSH32 0x40C10F1900000000000000000000000000000000000000000000000000000000 DUP2 MSTORE ADDRESS PUSH1 0x4 DUP3 ADD MSTORE PUSH1 0x24 DUP2 ADD DUP6 SWAP1 MSTORE PUSH20 0xFFFFFFFFFFFFFFFFFFFFFFFFFFFFFFFFFFFFFFFF SWAP1 SWAP2 AND SWAP3 POP PUSH4 0x40C10F19 SWAP2 POP PUSH1 0x44 ADD PUSH1 0x0 PUSH1 0x40 MLOAD DUP1 DUP4 SUB DUP2 PUSH1 0x0 DUP8 DUP1 EXTCODESIZE ISZERO DUP1 ISZERO PUSH2 0x146C JUMPI PUSH1 0x0 DUP1 REVERT JUMPDEST POP GAS CALL ISZERO DUP1 ISZERO PUSH2 0x1480 JUMPI RETURNDATASIZE PUSH1 0x0 DUP1 RETURNDATACOPY RETURNDATASIZE PUSH1 0x0 REVERT JUMPDEST POP POP POP PUSH1 0x6 DUP6 ADD SLOAD PUSH2 0x14AB SWAP2 POP PUSH2 0x14A0 SWAP1 PUSH2 0x123B DUP5 PUSH5 0xE8D4A51000 PUSH2 0x2988 JUMP JUMPDEST PUSH1 0x3 DUP7 ADD SLOAD SWAP1 PUSH2 0x268C JUMP JUMPDEST PUSH1 0x3 DUP6 ADD SSTORE POP POP NUMBER PUSH1 0x2 SWAP1 SWAP3 ADD SWAP2 SWAP1 SWAP2 SSTORE POP POP JUMP JUMPDEST PUSH1 0xD SLOAD PUSH1 0x0 SWAP1 PUSH1 0xFF AND DUP1 ISZERO PUSH2 0x14FE JUMPI POP PUSH20 0xFFFFFFFFFFFFFFFFFFFFFFFFFFFFFFFFFFFFFFFF DUP3 AND PUSH20 0xD998DDA948C62A4FECA7355E46D6B801A1AEDD6 EQ JUMPDEST SWAP3 SWAP2 POP POP JUMP JUMPDEST PUSH1 0x3 SLOAD PUSH20 0xFFFFFFFFFFFFFFFFFFFFFFFFFFFFFFFFFFFFFFFF AND CALLER EQ PUSH2 0x15AA JUMPI PUSH1 0x40 MLOAD PUSH32 0x8C379A000000000000000000000000000000000000000000000000000000000 DUP2 MSTORE PUSH1 0x20 PUSH1 0x4 DUP3 ADD MSTORE PUSH1 0x24 DUP1 DUP3 ADD MSTORE PUSH32 0x4F70657261746F723A2063616C6C6572206973206E6F7420746865206F706572 PUSH1 0x44 DUP3 ADD MSTORE PUSH32 0x61746F7200000000000000000000000000000000000000000000000000000000 PUSH1 0x64 DUP3 ADD MSTORE PUSH1 0x84 ADD PUSH2 0x66B JUMP JUMPDEST PUSH1 0xD SLOAD PUSH1 0xFF AND ISZERO PUSH2 0x163D JUMPI PUSH1 0x40 MLOAD PUSH32 0x8C379A000000000000000000000000000000000000000000000000000000000 DUP2 MSTORE PUSH1 0x20 PUSH1 0x4 DUP3 ADD MSTORE PUSH1 0x31 PUSH1 0x24 DUP3 ADD MSTORE PUSH32 0x456D6265725661756C743A206D657461207472616E73616374696F6E73206172 PUSH1 0x44 DUP3 ADD MSTORE PUSH32 0x6520616C726561647920656E61626C6564000000000000000000000000000000 PUSH1 0x64 DUP3 ADD MSTORE PUSH1 0x84 ADD PUSH2 0x66B JUMP JUMPDEST PUSH1 0xD DUP1 SLOAD PUSH32 0xFFFFFFFFFFFFFFFFFFFFFFFFFFFFFFFFFFFFFFFFFFFFFFFFFFFFFFFFFFFFFF00 AND PUSH1 0x1 OR SWAP1 SSTORE PUSH2 0x1670 PUSH2 0x264C JUMP JUMPDEST PUSH20 0xFFFFFFFFFFFFFFFFFFFFFFFFFFFFFFFFFFFFFFFF AND PUSH32 0x92E4C08D47B71E8DC051232B8E475EC296489A67A4BA5CCA88FF20FB6AC499E6 PUSH1 0x40 MLOAD PUSH1 0x40 MLOAD DUP1 SWAP2 SUB SWAP1 LOG2 JUMP JUMPDEST PUSH1 0x7 SLOAD PUSH1 0x0 JUMPDEST DUP2 DUP2 LT ISZERO PUSH2 0x16DB JUMPI PUSH2 0x16CB DUP2 PUSH2 0x12AE JUMP JUMPDEST PUSH2 0x16D4 DUP2 PUSH2 0x31E2 JUMP JUMPDEST SWAP1 POP PUSH2 0x16BA JUMP JUMPDEST POP POP JUMP JUMPDEST PUSH2 0x16E7 PUSH2 0x264C JUMP JUMPDEST PUSH20 0xFFFFFFFFFFFFFFFFFFFFFFFFFFFFFFFFFFFFFFFF AND PUSH2 0x171C PUSH1 0x0 SLOAD PUSH20 0xFFFFFFFFFFFFFFFFFFFFFFFFFFFFFFFFFFFFFFFF AND SWAP1 JUMP JUMPDEST PUSH20 0xFFFFFFFFFFFFFFFFFFFFFFFFFFFFFFFFFFFFFFFF AND EQ PUSH2 0x1799 JUMPI PUSH1 0x40 MLOAD PUSH32 0x8C379A000000000000000000000000000000000000000000000000000000000 DUP2 MSTORE PUSH1 0x20 PUSH1 0x4 DUP3 ADD DUP2 SWAP1 MSTORE PUSH1 0x24 DUP3 ADD MSTORE PUSH32 0x4F776E61626C653A2063616C6C6572206973206E6F7420746865206F776E6572 PUSH1 0x44 DUP3 ADD MSTORE PUSH1 0x64 ADD PUSH2 0x66B JUMP JUMPDEST PUSH2 0x17A3 PUSH1 0x0 PUSH2 0x29A0 JUMP JUMPDEST JUMP JUMPDEST PUSH1 0x5 SLOAD PUSH20 0xFFFFFFFFFFFFFFFFFFFFFFFFFFFFFFFFFFFFFFFF AND PUSH2 0x17C6 PUSH2 0x264C JUMP JUMPDEST PUSH20 0xFFFFFFFFFFFFFFFFFFFFFFFFFFFFFFFFFFFFFFFF AND EQ PUSH2 0x1843 JUMPI PUSH1 0x40 MLOAD PUSH32 0x8C379A000000000000000000000000000000000000000000000000000000000 DUP2 MSTORE PUSH1 0x20 PUSH1 0x4 DUP3 ADD MSTORE PUSH1 0x18 PUSH1 0x24 DUP3 ADD MSTORE PUSH32 0x736574466565416464726573733A20464F5242494444454E0000000000000000 PUSH1 0x44 DUP3 ADD MSTORE PUSH1 0x64 ADD PUSH2 0x66B JUMP JUMPDEST PUSH20 0xFFFFFFFFFFFFFFFFFFFFFFFFFFFFFFFFFFFFFFFF DUP2 AND PUSH2 0x18C0 JUMPI PUSH1 0x40 MLOAD PUSH32 0x8C379A000000000000000000000000000000000000000000000000000000000 DUP2 MSTORE PUSH1 0x20 PUSH1 0x4 DUP3 ADD MSTORE PUSH1 0x13 PUSH1 0x24 DUP3 ADD MSTORE PUSH32 0x736574466565416464726573733A205A45524F00000000000000000000000000 PUSH1 0x44 DUP3 ADD MSTORE PUSH1 0x64 ADD PUSH2 0x66B JUMP JUMPDEST PUSH2 0x18C8 PUSH2 0x264C JUMP JUMPDEST PUSH1 0x5 SLOAD PUSH1 0x40 DUP1 MLOAD PUSH20 0xFFFFFFFFFFFFFFFFFFFFFFFFFFFFFFFFFFFFFFFF SWAP3 DUP4 AND DUP2 MSTORE DUP5 DUP4 AND PUSH1 0x20 DUP3 ADD MSTORE SWAP3 SWAP1 SWAP2 AND SWAP2 PUSH32 0x6690A53895B5691C039238B384BD857E65C42ADCC727775381E02CB90A122613 SWAP2 ADD PUSH1 0x40 MLOAD DUP1 SWAP2 SUB SWAP1 LOG2 PUSH1 0x5 DUP1 SLOAD PUSH32 0xFFFFFFFFFFFFFFFFFFFFFFFF0000000000000000000000000000000000000000 AND PUSH20 0xFFFFFFFFFFFFFFFFFFFFFFFFFFFFFFFFFFFFFFFF SWAP3 SWAP1 SWAP3 AND SWAP2 SWAP1 SWAP2 OR SWAP1 SSTORE JUMP JUMPDEST PUSH1 0x0 PUSH2 0x1974 DUP3 DUP5 PUSH2 0x28A3 JUMP JUMPDEST SWAP4 SWAP3 POP POP POP JUMP JUMPDEST PUSH2 0x1983 PUSH2 0x264C JUMP JUMPDEST PUSH20 0xFFFFFFFFFFFFFFFFFFFFFFFFFFFFFFFFFFFFFFFF AND PUSH2 0x19B8 PUSH1 0x0 SLOAD PUSH20 0xFFFFFFFFFFFFFFFFFFFFFFFFFFFFFFFFFFFFFFFF AND SWAP1 JUMP JUMPDEST PUSH20 0xFFFFFFFFFFFFFFFFFFFFFFFFFFFFFFFFFFFFFFFF AND EQ PUSH2 0x1A35 JUMPI PUSH1 0x40 MLOAD PUSH32 0x8C379A000000000000000000000000000000000000000000000000000000000 DUP2 MSTORE PUSH1 0x20 PUSH1 0x4 DUP3 ADD DUP2 SWAP1 MSTORE PUSH1 0x24 DUP3 ADD MSTORE PUSH32 0x4F776E61626C653A2063616C6C6572206973206E6F7420746865206F776E6572 PUSH1 0x44 DUP3 ADD MSTORE PUSH1 0x64 ADD PUSH2 0x66B JUMP JUMPDEST PUSH1 0xA SLOAD NUMBER LT PUSH2 0x1AA0 JUMPI PUSH1 0x40 MLOAD PUSH32 0x8C379A000000000000000000000000000000000000000000000000000000000 DUP2 MSTORE PUSH1 0x20 PUSH1 0x4 DUP3 ADD MSTORE PUSH1 0x1B PUSH1 0x24 DUP3 ADD MSTORE PUSH32 0x4572726F723A206661726D207374617274656420616C72656164790000000000 PUSH1 0x44 DUP3 ADD MSTORE PUSH1 0x64 ADD PUSH2 0x66B JUMP JUMPDEST PUSH1 0x7 SLOAD PUSH1 0x0 JUMPDEST DUP2 DUP2 LT ISZERO PUSH2 0x1AEE JUMPI PUSH1 0x0 PUSH1 0x7 DUP3 DUP2 SLOAD DUP2 LT PUSH2 0x1AC3 JUMPI PUSH2 0x1AC3 PUSH2 0x324A JUMP JUMPDEST SWAP1 PUSH1 0x0 MSTORE PUSH1 0x20 PUSH1 0x0 KECCAK256 SWAP1 PUSH1 0x8 MUL ADD SWAP1 POP NUMBER DUP2 PUSH1 0x2 ADD DUP2 SWAP1 SSTORE POP POP DUP1 PUSH2 0x1AE7 SWAP1 PUSH2 0x31E2 JUMP JUMPDEST SWAP1 POP PUSH2 0x1AA6 JUMP JUMPDEST POP POP NUMBER PUSH1 0xA SSTORE JUMP JUMPDEST PUSH1 0x0 DUP1 PUSH1 0x7 DUP5 DUP2 SLOAD DUP2 LT PUSH2 0x1B0C JUMPI PUSH2 0x1B0C PUSH2 0x324A JUMP JUMPDEST PUSH1 0x0 SWAP2 DUP3 MSTORE PUSH1 0x20 DUP1 DUP4 KECCAK256 DUP8 DUP5 MSTORE PUSH1 0x8 DUP1 DUP4 MSTORE PUSH1 0x40 DUP1 DUP7 KECCAK256 PUSH20 0xFFFFFFFFFFFFFFFFFFFFFFFFFFFFFFFFFFFFFFFF DUP11 DUP2 AND DUP9 MSTORE SWAP5 MSTORE DUP1 DUP7 KECCAK256 SWAP5 SWAP1 SWAP2 MUL SWAP1 SWAP2 ADD PUSH1 0x3 DUP2 ADD SLOAD DUP2 SLOAD SWAP3 MLOAD PUSH32 0x70A0823100000000000000000000000000000000000000000000000000000000 DUP2 MSTORE ADDRESS PUSH1 0x4 DUP3 ADD MSTORE SWAP2 SWAP7 POP SWAP4 SWAP5 SWAP3 SWAP2 SWAP1 SWAP2 AND SWAP1 PUSH4 0x70A08231 SWAP1 PUSH1 0x24 ADD PUSH1 0x20 PUSH1 0x40 MLOAD DUP1 DUP4 SUB DUP2 DUP7 DUP1 EXTCODESIZE ISZERO DUP1 ISZERO PUSH2 0x1BA7 JUMPI PUSH1 0x0 DUP1 REVERT JUMPDEST POP GAS STATICCALL ISZERO DUP1 ISZERO PUSH2 0x1BBB JUMPI RETURNDATASIZE PUSH1 0x0 DUP1 RETURNDATACOPY RETURNDATASIZE PUSH1 0x0 REVERT JUMPDEST POP POP POP POP PUSH1 0x40 MLOAD RETURNDATASIZE PUSH1 0x1F NOT PUSH1 0x1F DUP3 ADD AND DUP3 ADD DUP1 PUSH1 0x40 MSTORE POP DUP2 ADD SWAP1 PUSH2 0x1BDF SWAP2 SWAP1 PUSH2 0x2F90 JUMP JUMPDEST SWAP1 POP DUP4 PUSH1 0x2 ADD SLOAD NUMBER GT DUP1 ISZERO PUSH2 0x1BF3 JUMPI POP DUP1 ISZERO ISZERO JUMPDEST ISZERO PUSH2 0x1C53 JUMPI PUSH1 0x0 PUSH2 0x1C08 DUP6 PUSH1 0x2 ADD SLOAD NUMBER PUSH2 0x1968 JUMP JUMPDEST SWAP1 POP PUSH1 0x0 PUSH2 0x1C2F PUSH1 0x9 SLOAD PUSH2 0x123B DUP9 PUSH1 0x1 ADD SLOAD PUSH2 0x133D PUSH1 0x6 SLOAD DUP8 PUSH2 0x2988 SWAP1 SWAP2 SWAP1 PUSH4 0xFFFFFFFF AND JUMP JUMPDEST SWAP1 POP PUSH2 0x1C4E PUSH2 0x1C47 DUP5 PUSH2 0x123B DUP5 PUSH5 0xE8D4A51000 PUSH2 0x2988 JUMP JUMPDEST DUP6 SWAP1 PUSH2 0x268C JUMP JUMPDEST SWAP4 POP POP POP JUMPDEST PUSH1 0x0 PUSH2 0x1C83 DUP5 PUSH1 0x1 ADD SLOAD PUSH2 0x1C7D PUSH5 0xE8D4A51000 PUSH2 0x123B DUP8 DUP10 PUSH1 0x0 ADD SLOAD PUSH2 0x2988 SWAP1 SWAP2 SWAP1 PUSH4 0xFFFFFFFF AND JUMP JUMPDEST SWAP1 PUSH2 0x28A3 JUMP JUMPDEST SWAP1 POP PUSH2 0x1C9C DUP5 PUSH1 0x2 ADD SLOAD DUP3 PUSH2 0x268C SWAP1 SWAP2 SWAP1 PUSH4 0xFFFFFFFF AND JUMP JUMPDEST SWAP9 SWAP8 POP POP POP POP POP POP POP POP JUMP JUMPDEST PUSH1 0x3 SLOAD PUSH20 0xFFFFFFFFFFFFFFFFFFFFFFFFFFFFFFFFFFFFFFFF AND CALLER EQ PUSH2 0x1D4E JUMPI PUSH1 0x40 MLOAD PUSH32 0x8C379A000000000000000000000000000000000000000000000000000000000 DUP2 MSTORE PUSH1 0x20 PUSH1 0x4 DUP3 ADD MSTORE PUSH1 0x24 DUP1 DUP3 ADD MSTORE PUSH32 0x4F70657261746F723A2063616C6C6572206973206E6F7420746865206F706572 PUSH1 0x44 DUP3 ADD MSTORE PUSH32 0x61746F7200000000000000000000000000000000000000000000000000000000 PUSH1 0x64 DUP3 ADD MSTORE PUSH1 0x84 ADD PUSH2 0x66B JUMP JUMPDEST DUP1 ISZERO PUSH2 0x1D5C JUMPI PUSH2 0x1D5C PUSH2 0x16B4 JUMP JUMPDEST PUSH2 0x1D64 PUSH2 0x264C JUMP JUMPDEST PUSH20 0xFFFFFFFFFFFFFFFFFFFFFFFFFFFFFFFFFFFFFFFF AND PUSH32 0x802633C8D26237616D81BDAC01BC40FCDF36E098832601582EC19D7E431C5EF3 PUSH1 0x7 DUP6 DUP2 SLOAD DUP2 LT PUSH2 0x1DAE JUMPI PUSH2 0x1DAE PUSH2 0x324A JUMP JUMPDEST SWAP1 PUSH1 0x0 MSTORE PUSH1 0x20 PUSH1 0x0 KECCAK256 SWAP1 PUSH1 0x8 MUL ADD PUSH1 0x1 ADD SLOAD DUP5 PUSH1 0x40 MLOAD PUSH2 0x1DD8 SWAP3 SWAP2 SWAP1 SWAP2 DUP3 MSTORE PUSH1 0x20 DUP3 ADD MSTORE PUSH1 0x40 ADD SWAP1 JUMP JUMPDEST PUSH1 0x40 MLOAD DUP1 SWAP2 SUB SWAP1 LOG2 PUSH2 0x1E23 DUP3 PUSH2 0x1E1D PUSH1 0x7 DUP7 DUP2 SLOAD DUP2 LT PUSH2 0x1DFA JUMPI PUSH2 0x1DFA PUSH2 0x324A JUMP JUMPDEST SWAP1 PUSH1 0x0 MSTORE PUSH1 0x20 PUSH1 0x0 KECCAK256 SWAP1 PUSH1 0x8 MUL ADD PUSH1 0x1 ADD SLOAD PUSH1 0x9 SLOAD PUSH2 0x28A3 SWAP1 SWAP2 SWAP1 PUSH4 0xFFFFFFFF AND JUMP JUMPDEST SWAP1 PUSH2 0x268C JUMP JUMPDEST PUSH1 0x9 DUP2 SWAP1 SSTORE POP DUP2 PUSH1 0x7 DUP5 DUP2 SLOAD DUP2 LT PUSH2 0x1E3D JUMPI PUSH2 0x1E3D PUSH2 0x324A JUMP JUMPDEST SWAP1 PUSH1 0x0 MSTORE PUSH1 0x20 PUSH1 0x0 KECCAK256 SWAP1 PUSH1 0x8 MUL ADD PUSH1 0x1 ADD DUP2 SWAP1 SSTORE POP POP POP POP JUMP JUMPDEST PUSH1 0x4 SLOAD PUSH20 0xFFFFFFFFFFFFFFFFFFFFFFFFFFFFFFFFFFFFFFFF AND PUSH2 0x1E78 PUSH2 0x264C JUMP JUMPDEST PUSH20 0xFFFFFFFFFFFFFFFFFFFFFFFFFFFFFFFFFFFFFFFF AND EQ PUSH2 0x1EF5 JUMPI PUSH1 0x40 MLOAD PUSH32 0x8C379A000000000000000000000000000000000000000000000000000000000 DUP2 MSTORE PUSH1 0x20 PUSH1 0x4 DUP3 ADD MSTORE PUSH1 0x18 PUSH1 0x24 DUP3 ADD MSTORE PUSH32 0x736574446576416464726573733A20464F5242494444454E0000000000000000 PUSH1 0x44 DUP3 ADD MSTORE PUSH1 0x64 ADD PUSH2 0x66B JUMP JUMPDEST PUSH20 0xFFFFFFFFFFFFFFFFFFFFFFFFFFFFFFFFFFFFFFFF DUP2 AND PUSH2 0x1F72 JUMPI PUSH1 0x40 MLOAD PUSH32 0x8C379A000000000000000000000000000000000000000000000000000000000 DUP2 MSTORE PUSH1 0x20 PUSH1 0x4 DUP3 ADD MSTORE PUSH1 0x13 PUSH1 0x24 DUP3 ADD MSTORE PUSH32 0x736574446576416464726573733A205A45524F00000000000000000000000000 PUSH1 0x44 DUP3 ADD MSTORE PUSH1 0x64 ADD PUSH2 0x66B JUMP JUMPDEST PUSH2 0x1F7A PUSH2 0x264C JUMP JUMPDEST PUSH1 0x4 SLOAD PUSH1 0x40 DUP1 MLOAD PUSH20 0xFFFFFFFFFFFFFFFFFFFFFFFFFFFFFFFFFFFFFFFF SWAP3 DUP4 AND DUP2 MSTORE DUP5 DUP4 AND PUSH1 0x20 DUP3 ADD MSTORE SWAP3 SWAP1 SWAP2 AND SWAP2 PUSH32 0xD36D63F6C513A911D7912853DE740AF476B0FBB569AA769E1A4F5BFA37A325C4 SWAP2 ADD PUSH1 0x40 MLOAD DUP1 SWAP2 SUB SWAP1 LOG2 PUSH1 0x4 DUP1 SLOAD PUSH32 0xFFFFFFFFFFFFFFFFFFFFFFFF0000000000000000000000000000000000000000 AND PUSH20 0xFFFFFFFFFFFFFFFFFFFFFFFFFFFFFFFFFFFFFFFF SWAP3 SWAP1 SWAP3 AND SWAP2 SWAP1 SWAP2 OR SWAP1 SSTORE JUMP JUMPDEST PUSH1 0x0 DUP3 DUP2 MSTORE PUSH1 0x8 PUSH1 0x20 SWAP1 DUP2 MSTORE PUSH1 0x40 DUP1 DUP4 KECCAK256 PUSH20 0xFFFFFFFFFFFFFFFFFFFFFFFFFFFFFFFFFFFFFFFF DUP6 AND DUP5 MSTORE SWAP1 SWAP2 MSTORE DUP2 KECCAK256 PUSH1 0x7 DUP1 SLOAD DUP4 SWAP2 SWAP1 DUP7 SWAP1 DUP2 LT PUSH2 0x2060 JUMPI PUSH2 0x2060 PUSH2 0x324A JUMP JUMPDEST SWAP1 PUSH1 0x0 MSTORE PUSH1 0x20 PUSH1 0x0 KECCAK256 SWAP1 PUSH1 0x8 MUL ADD SWAP1 POP DUP1 PUSH1 0x7 ADD SLOAD DUP3 PUSH1 0x4 ADD SLOAD PUSH2 0x2084 SWAP2 SWAP1 PUSH2 0x310F JUMP JUMPDEST SWAP6 SWAP5 POP POP POP POP POP JUMP JUMPDEST PUSH1 0x2 PUSH1 0x1 SLOAD EQ ISZERO PUSH2 0x20FA JUMPI PUSH1 0x40 MLOAD PUSH32 0x8C379A000000000000000000000000000000000000000000000000000000000 DUP2 MSTORE PUSH1 0x20 PUSH1 0x4 DUP3 ADD MSTORE PUSH1 0x1F PUSH1 0x24 DUP3 ADD MSTORE PUSH32 0x5265656E7472616E637947756172643A207265656E7472616E742063616C6C00 PUSH1 0x44 DUP3 ADD MSTORE PUSH1 0x64 ADD PUSH2 0x66B JUMP JUMPDEST PUSH1 0x2 PUSH1 0x1 SSTORE PUSH1 0xA SLOAD NUMBER LT ISZERO PUSH2 0x2191 JUMPI PUSH1 0x40 MLOAD PUSH32 0x8C379A000000000000000000000000000000000000000000000000000000000 DUP2 MSTORE PUSH1 0x20 PUSH1 0x4 DUP3 ADD MSTORE PUSH1 0x2F PUSH1 0x24 DUP3 ADD MSTORE PUSH32 0x456D6265725661756C743A2063616E6E6F74206465706F736974206265666F72 PUSH1 0x44 DUP3 ADD MSTORE PUSH32 0x65206661726D696E672073746172740000000000000000000000000000000000 PUSH1 0x64 DUP3 ADD MSTORE PUSH1 0x84 ADD PUSH2 0x66B JUMP JUMPDEST PUSH1 0x0 PUSH1 0x7 DUP4 DUP2 SLOAD DUP2 LT PUSH2 0x21A6 JUMPI PUSH2 0x21A6 PUSH2 0x324A JUMP JUMPDEST SWAP1 PUSH1 0x0 MSTORE PUSH1 0x20 PUSH1 0x0 KECCAK256 SWAP1 PUSH1 0x8 MUL ADD SWAP1 POP PUSH1 0x0 PUSH1 0x8 PUSH1 0x0 DUP6 DUP2 MSTORE PUSH1 0x20 ADD SWAP1 DUP2 MSTORE PUSH1 0x20 ADD PUSH1 0x0 KECCAK256 PUSH1 0x0 PUSH2 0x21D5 PUSH2 0x264C JUMP JUMPDEST PUSH20 0xFFFFFFFFFFFFFFFFFFFFFFFFFFFFFFFFFFFFFFFF AND PUSH20 0xFFFFFFFFFFFFFFFFFFFFFFFFFFFFFFFFFFFFFFFF AND DUP2 MSTORE PUSH1 0x20 ADD SWAP1 DUP2 MSTORE PUSH1 0x20 ADD PUSH1 0x0 KECCAK256 SWAP1 POP PUSH2 0x221A DUP5 PUSH2 0x12AE JUMP JUMPDEST PUSH2 0x2223 DUP5 PUSH2 0x2698 JUMP JUMPDEST DUP3 ISZERO PUSH2 0x2469 JUMPI DUP2 SLOAD PUSH1 0x40 MLOAD PUSH32 0x70A0823100000000000000000000000000000000000000000000000000000000 DUP2 MSTORE ADDRESS PUSH1 0x4 DUP3 ADD MSTORE PUSH1 0x0 SWAP2 PUSH20 0xFFFFFFFFFFFFFFFFFFFFFFFFFFFFFFFFFFFFFFFF AND SWAP1 PUSH4 0x70A08231 SWAP1 PUSH1 0x24 ADD PUSH1 0x20 PUSH1 0x40 MLOAD DUP1 DUP4 SUB DUP2 DUP7 DUP1 EXTCODESIZE ISZERO DUP1 ISZERO PUSH2 0x2292 JUMPI PUSH1 0x0 DUP1 REVERT JUMPDEST POP GAS STATICCALL ISZERO DUP1 ISZERO PUSH2 0x22A6 JUMPI RETURNDATASIZE PUSH1 0x0 DUP1 RETURNDATACOPY RETURNDATASIZE PUSH1 0x0 REVERT JUMPDEST POP POP POP POP PUSH1 0x40 MLOAD RETURNDATASIZE PUSH1 0x1F NOT PUSH1 0x1F DUP3 ADD AND DUP3 ADD DUP1 PUSH1 0x40 MSTORE POP DUP2 ADD SWAP1 PUSH2 0x22CA SWAP2 SWAP1 PUSH2 0x2F90 JUMP JUMPDEST SWAP1 POP PUSH2 0x22F7 PUSH2 0x22D7 PUSH2 0x264C JUMP JUMPDEST DUP5 SLOAD PUSH20 0xFFFFFFFFFFFFFFFFFFFFFFFFFFFFFFFFFFFFFFFF AND SWAP1 ADDRESS DUP8 PUSH2 0x2A15 JUMP JUMPDEST DUP3 SLOAD PUSH1 0x40 MLOAD PUSH32 0x70A0823100000000000000000000000000000000000000000000000000000000 DUP2 MSTORE ADDRESS PUSH1 0x4 DUP3 ADD MSTORE PUSH1 0x0 SWAP2 PUSH20 0xFFFFFFFFFFFFFFFFFFFFFFFFFFFFFFFFFFFFFFFF AND SWAP1 PUSH4 0x70A08231 SWAP1 PUSH1 0x24 ADD PUSH1 0x20 PUSH1 0x40 MLOAD DUP1 DUP4 SUB DUP2 DUP7 DUP1 EXTCODESIZE ISZERO DUP1 ISZERO PUSH2 0x2360 JUMPI PUSH1 0x0 DUP1 REVERT JUMPDEST POP GAS STATICCALL ISZERO DUP1 ISZERO PUSH2 0x2374 JUMPI RETURNDATASIZE PUSH1 0x0 DUP1 RETURNDATACOPY RETURNDATASIZE PUSH1 0x0 REVERT JUMPDEST POP POP POP POP PUSH1 0x40 MLOAD RETURNDATASIZE PUSH1 0x1F NOT PUSH1 0x1F DUP3 ADD AND DUP3 ADD DUP1 PUSH1 0x40 MSTORE POP DUP2 ADD SWAP1 PUSH2 0x2398 SWAP2 SWAP1 PUSH2 0x2F90 JUMP JUMPDEST SWAP1 POP PUSH2 0x23A4 DUP2 DUP4 PUSH2 0x28A3 JUMP JUMPDEST PUSH1 0x4 DUP6 ADD SLOAD SWAP1 SWAP6 POP PUSH2 0xFFFF AND ISZERO PUSH2 0x240E JUMPI PUSH1 0x4 DUP5 ADD SLOAD PUSH1 0x0 SWAP1 PUSH2 0x23D4 SWAP1 PUSH2 0x2710 SWAP1 PUSH2 0x123B SWAP1 DUP10 SWAP1 PUSH2 0xFFFF AND PUSH2 0x2988 JUMP JUMPDEST PUSH1 0x5 SLOAD DUP7 SLOAD SWAP2 SWAP3 POP PUSH2 0x2400 SWAP2 PUSH20 0xFFFFFFFFFFFFFFFFFFFFFFFFFFFFFFFFFFFFFFFF SWAP1 DUP2 AND SWAP2 AND DUP4 PUSH2 0x28AF JUMP JUMPDEST PUSH2 0x240A DUP7 DUP3 PUSH2 0x28A3 JUMP JUMPDEST SWAP6 POP POP JUMPDEST DUP3 SLOAD PUSH2 0x241A SWAP1 DUP7 PUSH2 0x268C JUMP JUMPDEST DUP4 SSTORE PUSH1 0x6 DUP5 ADD SLOAD PUSH2 0x242B SWAP1 DUP7 PUSH2 0x268C JUMP JUMPDEST PUSH1 0x6 DUP6 ADD SSTORE PUSH1 0x2 SLOAD DUP5 SLOAD PUSH20 0xFFFFFFFFFFFFFFFFFFFFFFFFFFFFFFFFFFFFFFFF SWAP1 DUP2 AND SWAP2 AND EQ ISZERO PUSH2 0x2466 JUMPI PUSH1 0xC SLOAD PUSH2 0x2462 SWAP1 DUP7 PUSH2 0x268C JUMP JUMPDEST PUSH1 0xC SSTORE JUMPDEST POP POP JUMPDEST PUSH1 0x3 DUP3 ADD SLOAD DUP2 SLOAD PUSH2 0x2484 SWAP2 PUSH5 0xE8D4A51000 SWAP2 PUSH2 0x123B SWAP2 PUSH2 0x2988 JUMP JUMPDEST PUSH1 0x1 DUP3 ADD SSTORE TIMESTAMP PUSH1 0x4 DUP3 ADD SSTORE DUP4 PUSH2 0x2498 PUSH2 0x264C JUMP JUMPDEST PUSH20 0xFFFFFFFFFFFFFFFFFFFFFFFFFFFFFFFFFFFFFFFF AND PUSH32 0x90890809C654F11D6E72A28FA60149770A0D11EC6C92319D6CEB2BB0A4EA1A15 DUP6 PUSH1 0x40 MLOAD PUSH2 0x129C SWAP2 DUP2 MSTORE PUSH1 0x20 ADD SWAP1 JUMP JUMPDEST PUSH2 0x24E7 PUSH2 0x264C JUMP JUMPDEST PUSH20 0xFFFFFFFFFFFFFFFFFFFFFFFFFFFFFFFFFFFFFFFF AND PUSH2 0x251C PUSH1 0x0 SLOAD PUSH20 0xFFFFFFFFFFFFFFFFFFFFFFFFFFFFFFFFFFFFFFFF AND SWAP1 JUMP JUMPDEST PUSH20 0xFFFFFFFFFFFFFFFFFFFFFFFFFFFFFFFFFFFFFFFF AND EQ PUSH2 0x2599 JUMPI PUSH1 0x40 MLOAD PUSH32 0x8C379A000000000000000000000000000000000000000000000000000000000 DUP2 MSTORE PUSH1 0x20 PUSH1 0x4 DUP3 ADD DUP2 SWAP1 MSTORE PUSH1 0x24 DUP3 ADD MSTORE PUSH32 0x4F776E61626C653A2063616C6C6572206973206E6F7420746865206F776E6572 PUSH1 0x44 DUP3 ADD MSTORE PUSH1 0x64 ADD PUSH2 0x66B JUMP JUMPDEST PUSH20 0xFFFFFFFFFFFFFFFFFFFFFFFFFFFFFFFFFFFFFFFF DUP2 AND PUSH2 0x263C JUMPI PUSH1 0x40 MLOAD PUSH32 0x8C379A000000000000000000000000000000000000000000000000000000000 DUP2 MSTORE PUSH1 0x20 PUSH1 0x4 DUP3 ADD MSTORE PUSH1 0x26 PUSH1 0x24 DUP3 ADD MSTORE PUSH32 0x4F776E61626C653A206E6577206F776E657220697320746865207A65726F2061 PUSH1 0x44 DUP3 ADD MSTORE PUSH32 0x6464726573730000000000000000000000000000000000000000000000000000 PUSH1 0x64 DUP3 ADD MSTORE PUSH1 0x84 ADD PUSH2 0x66B JUMP JUMPDEST PUSH2 0x2645 DUP2 PUSH2 0x29A0 JUMP JUMPDEST POP JUMP JUMPDEST CALLER SWAP1 JUMP JUMPDEST PUSH1 0x0 PUSH2 0x2657 CALLER PUSH2 0x14C0 JUMP JUMPDEST ISZERO PUSH2 0x2687 JUMPI POP PUSH32 0xFFFFFFFFFFFFFFFFFFFFFFFFFFFFFFFFFFFFFFFFFFFFFFFFFFFFFFFFFFFFFFEC CALLDATASIZE ADD CALLDATALOAD PUSH1 0x60 SHR SWAP1 JUMP JUMPDEST POP CALLER SWAP1 JUMP JUMPDEST PUSH1 0x0 PUSH2 0x1974 DUP3 DUP5 PUSH2 0x310F JUMP JUMPDEST PUSH1 0x0 PUSH1 0x7 DUP3 DUP2 SLOAD DUP2 LT PUSH2 0x26AD JUMPI PUSH2 0x26AD PUSH2 0x324A JUMP JUMPDEST SWAP1 PUSH1 0x0 MSTORE PUSH1 0x20 PUSH1 0x0 KECCAK256 SWAP1 PUSH1 0x8 MUL ADD SWAP1 POP PUSH1 0x0 PUSH1 0x8 PUSH1 0x0 DUP5 DUP2 MSTORE PUSH1 0x20 ADD SWAP1 DUP2 MSTORE PUSH1 0x20 ADD PUSH1 0x0 KECCAK256 PUSH1 0x0 PUSH2 0x26DC PUSH2 0x264C JUMP JUMPDEST PUSH20 0xFFFFFFFFFFFFFFFFFFFFFFFFFFFFFFFFFFFFFFFF AND PUSH20 0xFFFFFFFFFFFFFFFFFFFFFFFFFFFFFFFFFFFFFFFF AND DUP2 MSTORE PUSH1 0x20 ADD SWAP1 DUP2 MSTORE PUSH1 0x20 ADD PUSH1 0x0 KECCAK256 SWAP1 POP DUP1 PUSH1 0x3 ADD SLOAD PUSH1 0x0 EQ DUP1 ISZERO PUSH2 0x272E JUMPI POP PUSH1 0xA SLOAD NUMBER LT ISZERO JUMPDEST ISZERO PUSH2 0x2749 JUMPI PUSH1 0x5 DUP3 ADD SLOAD PUSH2 0x2743 SWAP1 TIMESTAMP SWAP1 PUSH2 0x268C JUMP JUMPDEST PUSH1 0x3 DUP3 ADD SSTORE JUMPDEST PUSH1 0x0 PUSH2 0x2777 DUP3 PUSH1 0x1 ADD SLOAD PUSH2 0x1C7D PUSH5 0xE8D4A51000 PUSH2 0x123B DUP8 PUSH1 0x3 ADD SLOAD DUP8 PUSH1 0x0 ADD SLOAD PUSH2 0x2988 SWAP1 SWAP2 SWAP1 PUSH4 0xFFFFFFFF AND JUMP JUMPDEST SWAP1 POP PUSH2 0x2785 DUP5 PUSH2 0x376 PUSH2 0x264C JUMP JUMPDEST ISZERO PUSH2 0x2814 JUMPI PUSH1 0x0 DUP2 GT DUP1 PUSH2 0x279D JUMPI POP PUSH1 0x0 DUP3 PUSH1 0x2 ADD SLOAD GT JUMPDEST ISZERO PUSH2 0x280F JUMPI PUSH1 0x0 PUSH2 0x27BB DUP4 PUSH1 0x2 ADD SLOAD DUP4 PUSH2 0x268C SWAP1 SWAP2 SWAP1 PUSH4 0xFFFFFFFF AND JUMP JUMPDEST SWAP1 POP PUSH2 0x27D6 DUP4 PUSH1 0x2 ADD SLOAD PUSH1 0xB SLOAD PUSH2 0x28A3 SWAP1 SWAP2 SWAP1 PUSH4 0xFFFFFFFF AND JUMP JUMPDEST PUSH1 0xB SSTORE PUSH1 0x0 PUSH1 0x2 DUP5 ADD SSTORE TIMESTAMP PUSH1 0x4 DUP5 ADD DUP2 SWAP1 SSTORE PUSH1 0x5 DUP6 ADD SLOAD PUSH2 0x27F7 SWAP2 SWAP1 PUSH2 0x268C JUMP JUMPDEST PUSH1 0x3 DUP5 ADD SSTORE PUSH2 0x280D PUSH2 0x2807 PUSH2 0x264C JUMP JUMPDEST DUP3 PUSH2 0x2A73 JUMP JUMPDEST POP JUMPDEST PUSH2 0x289D JUMP JUMPDEST DUP1 ISZERO PUSH2 0x289D JUMPI PUSH1 0x2 DUP3 ADD SLOAD PUSH2 0x2829 SWAP1 DUP3 PUSH2 0x268C JUMP JUMPDEST PUSH1 0x2 DUP4 ADD SSTORE TIMESTAMP PUSH1 0x4 DUP4 ADD SSTORE PUSH1 0xB SLOAD PUSH2 0x2841 SWAP1 DUP3 PUSH2 0x268C JUMP JUMPDEST PUSH1 0xB SSTORE DUP4 PUSH2 0x284D PUSH2 0x264C JUMP JUMPDEST PUSH20 0xFFFFFFFFFFFFFFFFFFFFFFFFFFFFFFFFFFFFFFFF AND PUSH32 0xEE470483107F579A55C754FA00613C45A9A3B617A418B39CB0BE97E5381BA7C1 DUP4 PUSH1 0x40 MLOAD PUSH2 0x2894 SWAP2 DUP2 MSTORE PUSH1 0x20 ADD SWAP1 JUMP JUMPDEST PUSH1 0x40 MLOAD DUP1 SWAP2 SUB SWAP1 LOG3 JUMPDEST POP POP POP POP JUMP JUMPDEST PUSH1 0x0 PUSH2 0x1974 DUP3 DUP5 PUSH2 0x319F JUMP JUMPDEST PUSH1 0x40 MLOAD PUSH20 0xFFFFFFFFFFFFFFFFFFFFFFFFFFFFFFFFFFFFFFFF DUP4 AND PUSH1 0x24 DUP3 ADD MSTORE PUSH1 0x44 DUP2 ADD DUP3 SWAP1 MSTORE PUSH2 0x2983 SWAP1 DUP5 SWAP1 PUSH32 0xA9059CBB00000000000000000000000000000000000000000000000000000000 SWAP1 PUSH1 0x64 ADD JUMPDEST PUSH1 0x40 DUP1 MLOAD PUSH32 0xFFFFFFFFFFFFFFFFFFFFFFFFFFFFFFFFFFFFFFFFFFFFFFFFFFFFFFFFFFFFFFE0 DUP2 DUP5 SUB ADD DUP2 MSTORE SWAP2 SWAP1 MSTORE PUSH1 0x20 DUP2 ADD DUP1 MLOAD PUSH28 0xFFFFFFFFFFFFFFFFFFFFFFFFFFFFFFFFFFFFFFFFFFFFFFFFFFFFFFFF AND PUSH32 0xFFFFFFFF00000000000000000000000000000000000000000000000000000000 SWAP1 SWAP4 AND SWAP3 SWAP1 SWAP3 OR SWAP1 SWAP2 MSTORE PUSH2 0x2CE5 JUMP JUMPDEST POP POP POP JUMP JUMPDEST PUSH1 0x0 PUSH2 0x1974 DUP3 DUP5 PUSH2 0x3162 JUMP JUMPDEST PUSH1 0x0 PUSH2 0x1974 DUP3 DUP5 PUSH2 0x3127 JUMP JUMPDEST PUSH1 0x0 DUP1 SLOAD PUSH20 0xFFFFFFFFFFFFFFFFFFFFFFFFFFFFFFFFFFFFFFFF DUP4 DUP2 AND PUSH32 0xFFFFFFFFFFFFFFFFFFFFFFFF0000000000000000000000000000000000000000 DUP4 AND DUP2 OR DUP5 SSTORE PUSH1 0x40 MLOAD SWAP2 SWAP1 SWAP3 AND SWAP3 DUP4 SWAP2 PUSH32 0x8BE0079C531659141344CD1FD0A4F28419497F9722A3DAAFE3B4186F6B6457E0 SWAP2 SWAP1 LOG3 POP POP JUMP JUMPDEST PUSH1 0x40 MLOAD PUSH20 0xFFFFFFFFFFFFFFFFFFFFFFFFFFFFFFFFFFFFFFFF DUP1 DUP6 AND PUSH1 0x24 DUP4 ADD MSTORE DUP4 AND PUSH1 0x44 DUP3 ADD MSTORE PUSH1 0x64 DUP2 ADD DUP3 SWAP1 MSTORE PUSH2 0x289D SWAP1 DUP6 SWAP1 PUSH32 0x23B872DD00000000000000000000000000000000000000000000000000000000 SWAP1 PUSH1 0x84 ADD PUSH2 0x2901 JUMP JUMPDEST PUSH1 0xC SLOAD PUSH1 0x2 SLOAD PUSH1 0x40 MLOAD PUSH32 0x70A0823100000000000000000000000000000000000000000000000000000000 DUP2 MSTORE ADDRESS PUSH1 0x4 DUP3 ADD MSTORE PUSH20 0xFFFFFFFFFFFFFFFFFFFFFFFFFFFFFFFFFFFFFFFF SWAP1 SWAP2 AND SWAP1 PUSH4 0x70A08231 SWAP1 PUSH1 0x24 ADD PUSH1 0x20 PUSH1 0x40 MLOAD DUP1 DUP4 SUB DUP2 DUP7 DUP1 EXTCODESIZE ISZERO DUP1 ISZERO PUSH2 0x2ADF JUMPI PUSH1 0x0 DUP1 REVERT JUMPDEST POP GAS STATICCALL ISZERO DUP1 ISZERO PUSH2 0x2AF3 JUMPI RETURNDATASIZE PUSH1 0x0 DUP1 RETURNDATACOPY RETURNDATASIZE PUSH1 0x0 REVERT JUMPDEST POP POP POP POP PUSH1 0x40 MLOAD RETURNDATASIZE PUSH1 0x1F NOT PUSH1 0x1F DUP3 ADD AND DUP3 ADD DUP1 PUSH1 0x40 MSTORE POP DUP2 ADD SWAP1 PUSH2 0x2B17 SWAP2 SWAP1 PUSH2 0x2F90 JUMP JUMPDEST GT ISZERO PUSH2 0x16DB JUMPI PUSH1 0xC SLOAD PUSH1 0x2 SLOAD PUSH1 0x40 MLOAD PUSH32 0x70A0823100000000000000000000000000000000000000000000000000000000 DUP2 MSTORE ADDRESS PUSH1 0x4 DUP3 ADD MSTORE PUSH1 0x0 SWAP3 PUSH2 0x2BCA SWAP3 SWAP1 SWAP2 PUSH20 0xFFFFFFFFFFFFFFFFFFFFFFFFFFFFFFFFFFFFFFFF SWAP1 SWAP2 AND SWAP1 PUSH4 0x70A08231 SWAP1 PUSH1 0x24 ADD PUSH1 0x20 PUSH1 0x40 MLOAD DUP1 DUP4 SUB DUP2 DUP7 DUP1 EXTCODESIZE ISZERO DUP1 ISZERO PUSH2 0x2B92 JUMPI PUSH1 0x0 DUP1 REVERT JUMPDEST POP GAS STATICCALL ISZERO DUP1 ISZERO PUSH2 0x2BA6 JUMPI RETURNDATASIZE PUSH1 0x0 DUP1 RETURNDATACOPY RETURNDATASIZE PUSH1 0x0 REVERT JUMPDEST POP POP POP POP PUSH1 0x40 MLOAD RETURNDATASIZE PUSH1 0x1F NOT PUSH1 0x1F DUP3 ADD AND DUP3 ADD DUP1 PUSH1 0x40 MSTORE POP DUP2 ADD SWAP1 PUSH2 0x1C7D SWAP2 SWAP1 PUSH2 0x2F90 JUMP JUMPDEST SWAP1 POP DUP1 DUP3 LT PUSH2 0x2C80 JUMPI PUSH1 0x2 SLOAD PUSH1 0x40 MLOAD PUSH32 0xA9059CBB00000000000000000000000000000000000000000000000000000000 DUP2 MSTORE PUSH20 0xFFFFFFFFFFFFFFFFFFFFFFFFFFFFFFFFFFFFFFFF DUP6 DUP2 AND PUSH1 0x4 DUP4 ADD MSTORE PUSH1 0x24 DUP3 ADD DUP5 SWAP1 MSTORE SWAP1 SWAP2 AND SWAP1 PUSH4 0xA9059CBB SWAP1 PUSH1 0x44 ADD JUMPDEST PUSH1 0x20 PUSH1 0x40 MLOAD DUP1 DUP4 SUB DUP2 PUSH1 0x0 DUP8 DUP1 EXTCODESIZE ISZERO DUP1 ISZERO PUSH2 0x2C48 JUMPI PUSH1 0x0 DUP1 REVERT JUMPDEST POP GAS CALL ISZERO DUP1 ISZERO PUSH2 0x2C5C JUMPI RETURNDATASIZE PUSH1 0x0 DUP1 RETURNDATACOPY RETURNDATASIZE PUSH1 0x0 REVERT JUMPDEST POP POP POP POP PUSH1 0x40 MLOAD RETURNDATASIZE PUSH1 0x1F NOT PUSH1 0x1F DUP3 ADD AND DUP3 ADD DUP1 PUSH1 0x40 MSTORE POP DUP2 ADD SWAP1 PUSH2 0x289D SWAP2 SWAP1 PUSH2 0x2F5A JUMP JUMPDEST DUP2 ISZERO PUSH2 0x2983 JUMPI PUSH1 0x2 SLOAD PUSH1 0x40 MLOAD PUSH32 0xA9059CBB00000000000000000000000000000000000000000000000000000000 DUP2 MSTORE PUSH20 0xFFFFFFFFFFFFFFFFFFFFFFFFFFFFFFFFFFFFFFFF DUP6 DUP2 AND PUSH1 0x4 DUP4 ADD MSTORE PUSH1 0x24 DUP3 ADD DUP6 SWAP1 MSTORE SWAP1 SWAP2 AND SWAP1 PUSH4 0xA9059CBB SWAP1 PUSH1 0x44 ADD PUSH2 0x2C2E JUMP JUMPDEST PUSH1 0x0 PUSH2 0x2D47 DUP3 PUSH1 0x40 MLOAD DUP1 PUSH1 0x40 ADD PUSH1 0x40 MSTORE DUP1 PUSH1 0x20 DUP2 MSTORE PUSH1 0x20 ADD PUSH32 0x5361666545524332303A206C6F772D6C6576656C2063616C6C206661696C6564 DUP2 MSTORE POP DUP6 PUSH20 0xFFFFFFFFFFFFFFFFFFFFFFFFFFFFFFFFFFFFFFFF AND PUSH2 0x2DF1 SWAP1 SWAP3 SWAP2 SWAP1 PUSH4 0xFFFFFFFF AND JUMP JUMPDEST DUP1 MLOAD SWAP1 SWAP2 POP ISZERO PUSH2 0x2983 JUMPI DUP1 DUP1 PUSH1 0x20 ADD SWAP1 MLOAD DUP2 ADD SWAP1 PUSH2 0x2D65 SWAP2 SWAP1 PUSH2 0x2F5A JUMP JUMPDEST PUSH2 0x2983 JUMPI PUSH1 0x40 MLOAD PUSH32 0x8C379A000000000000000000000000000000000000000000000000000000000 DUP2 MSTORE PUSH1 0x20 PUSH1 0x4 DUP3 ADD MSTORE PUSH1 0x2A PUSH1 0x24 DUP3 ADD MSTORE PUSH32 0x5361666545524332303A204552433230206F7065726174696F6E20646964206E PUSH1 0x44 DUP3 ADD MSTORE PUSH32 0x6F74207375636365656400000000000000000000000000000000000000000000 PUSH1 0x64 DUP3 ADD MSTORE PUSH1 0x84 ADD PUSH2 0x66B JUMP JUMPDEST PUSH1 0x60 PUSH2 0xAF9 DUP5 DUP5 PUSH1 0x0 DUP6 DUP6 DUP5 EXTCODESIZE PUSH2 0x2E64 JUMPI PUSH1 0x40 MLOAD PUSH32 0x8C379A000000000000000000000000000000000000000000000000000000000 DUP2 MSTORE PUSH1 0x20 PUSH1 0x4 DUP3 ADD MSTORE PUSH1 0x1D PUSH1 0x24 DUP3 ADD MSTORE PUSH32 0x416464726573733A2063616C6C20746F206E6F6E2D636F6E7472616374000000 PUSH1 0x44 DUP3 ADD MSTORE PUSH1 0x64 ADD PUSH2 0x66B JUMP JUMPDEST PUSH1 0x0 DUP1 DUP7 PUSH20 0xFFFFFFFFFFFFFFFFFFFFFFFFFFFFFFFFFFFFFFFF AND DUP6 DUP8 PUSH1 0x40 MLOAD PUSH2 0x2E8D SWAP2 SWAP1 PUSH2 0x30A2 JUMP JUMPDEST PUSH1 0x0 PUSH1 0x40 MLOAD DUP1 DUP4 SUB DUP2 DUP6 DUP8 GAS CALL SWAP3 POP POP POP RETURNDATASIZE DUP1 PUSH1 0x0 DUP2 EQ PUSH2 0x2ECA JUMPI PUSH1 0x40 MLOAD SWAP2 POP PUSH1 0x1F NOT PUSH1 0x3F RETURNDATASIZE ADD AND DUP3 ADD PUSH1 0x40 MSTORE RETURNDATASIZE DUP3 MSTORE RETURNDATASIZE PUSH1 0x0 PUSH1 0x20 DUP5 ADD RETURNDATACOPY PUSH2 0x2ECF JUMP JUMPDEST PUSH1 0x60 SWAP2 POP JUMPDEST POP SWAP2 POP SWAP2 POP PUSH2 0x2EDF DUP3 DUP3 DUP7 PUSH2 0x2EEA JUMP JUMPDEST SWAP8 SWAP7 POP POP POP POP POP POP POP JUMP JUMPDEST PUSH1 0x60 DUP4 ISZERO PUSH2 0x2EF9 JUMPI POP DUP2 PUSH2 0x1974 JUMP JUMPDEST DUP3 MLOAD ISZERO PUSH2 0x2F09 JUMPI DUP3 MLOAD DUP1 DUP5 PUSH1 0x20 ADD REVERT JUMPDEST DUP2 PUSH1 0x40 MLOAD PUSH32 0x8C379A000000000000000000000000000000000000000000000000000000000 DUP2 MSTORE PUSH1 0x4 ADD PUSH2 0x66B SWAP2 SWAP1 PUSH2 0x30BE JUMP JUMPDEST PUSH1 0x0 PUSH1 0x20 DUP3 DUP5 SUB SLT ISZERO PUSH2 0x2F4F JUMPI PUSH1 0x0 DUP1 REVERT JUMPDEST DUP2 CALLDATALOAD PUSH2 0x1974 DUP2 PUSH2 0x3279 JUMP JUMPDEST PUSH1 0x0 PUSH1 0x20 DUP3 DUP5 SUB SLT ISZERO PUSH2 0x2F6C JUMPI PUSH1 0x0 DUP1 REVERT JUMPDEST DUP2 MLOAD PUSH2 0x1974 DUP2 PUSH2 0x329B JUMP JUMPDEST PUSH1 0x0 PUSH1 0x20 DUP3 DUP5 SUB SLT ISZERO PUSH2 0x2F89 JUMPI PUSH1 0x0 DUP1 REVERT JUMPDEST POP CALLDATALOAD SWAP2 SWAP1 POP JUMP JUMPDEST PUSH1 0x0 PUSH1 0x20 DUP3 DUP5 SUB SLT ISZERO PUSH2 0x2FA2 JUMPI PUSH1 0x0 DUP1 REVERT JUMPDEST POP MLOAD SWAP2 SWAP1 POP JUMP JUMPDEST PUSH1 0x0 DUP1 PUSH1 0x40 DUP4 DUP6 SUB SLT ISZERO PUSH2 0x2FBC JUMPI PUSH1 0x0 DUP1 REVERT JUMPDEST DUP3 CALLDATALOAD SWAP2 POP PUSH1 0x20 DUP4 ADD CALLDATALOAD PUSH2 0x2FCE DUP2 PUSH2 0x3279 JUMP JUMPDEST DUP1 SWAP2 POP POP SWAP3 POP SWAP3 SWAP1 POP JUMP JUMPDEST PUSH1 0x0 DUP1 PUSH1 0x0 DUP1 PUSH1 0x0 DUP1 PUSH1 0xC0 DUP8 DUP10 SUB SLT ISZERO PUSH2 0x2FF2 JUMPI PUSH1 0x0 DUP1 REVERT JUMPDEST DUP7 CALLDATALOAD SWAP6 POP PUSH1 0x20 DUP8 ADD CALLDATALOAD PUSH2 0x3004 DUP2 PUSH2 0x3279 JUMP JUMPDEST SWAP5 POP PUSH1 0x40 DUP8 ADD CALLDATALOAD PUSH2 0xFFFF DUP2 AND DUP2 EQ PUSH2 0x301B JUMPI PUSH1 0x0 DUP1 REVERT JUMPDEST SWAP4 POP PUSH1 0x60 DUP8 ADD CALLDATALOAD SWAP3 POP PUSH1 0x80 DUP8 ADD CALLDATALOAD SWAP2 POP PUSH1 0xA0 DUP8 ADD CALLDATALOAD PUSH2 0x3039 DUP2 PUSH2 0x329B JUMP JUMPDEST DUP1 SWAP2 POP POP SWAP3 SWAP6 POP SWAP3 SWAP6 POP SWAP3 SWAP6 JUMP JUMPDEST PUSH1 0x0 DUP1 PUSH1 0x40 DUP4 DUP6 SUB SLT ISZERO PUSH2 0x305A JUMPI PUSH1 0x0 DUP1 REVERT JUMPDEST POP POP DUP1 CALLDATALOAD SWAP3 PUSH1 0x20 SWAP1 SWAP2 ADD CALLDATALOAD SWAP2 POP JUMP JUMPDEST PUSH1 0x0 DUP1 PUSH1 0x0 PUSH1 0x60 DUP5 DUP7 SUB SLT ISZERO PUSH2 0x307E JUMPI PUSH1 0x0 DUP1 REVERT JUMPDEST DUP4 CALLDATALOAD SWAP3 POP PUSH1 0x20 DUP5 ADD CALLDATALOAD SWAP2 POP PUSH1 0x40 DUP5 ADD CALLDATALOAD PUSH2 0x3097 DUP2 PUSH2 0x329B JUMP JUMPDEST DUP1 SWAP2 POP POP SWAP3 POP SWAP3 POP SWAP3 JUMP JUMPDEST PUSH1 0x0 DUP3 MLOAD PUSH2 0x30B4 DUP2 DUP5 PUSH1 0x20 DUP8 ADD PUSH2 0x31B6 JUMP JUMPDEST SWAP2 SWAP1 SWAP2 ADD SWAP3 SWAP2 POP POP JUMP JUMPDEST PUSH1 0x20 DUP2 MSTORE PUSH1 0x0 DUP3 MLOAD DUP1 PUSH1 0x20 DUP5 ADD MSTORE PUSH2 0x30DD DUP2 PUSH1 0x40 DUP6 ADD PUSH1 0x20 DUP8 ADD PUSH2 0x31B6 JUMP JUMPDEST PUSH1 0x1F ADD PUSH32 0xFFFFFFFFFFFFFFFFFFFFFFFFFFFFFFFFFFFFFFFFFFFFFFFFFFFFFFFFFFFFFFE0 AND SWAP2 SWAP1 SWAP2 ADD PUSH1 0x40 ADD SWAP3 SWAP2 POP POP JUMP JUMPDEST PUSH1 0x0 DUP3 NOT DUP3 GT ISZERO PUSH2 0x3122 JUMPI PUSH2 0x3122 PUSH2 0x321B JUMP JUMPDEST POP ADD SWAP1 JUMP JUMPDEST PUSH1 0x0 DUP3 PUSH2 0x315D JUMPI PUSH32 0x4E487B7100000000000000000000000000000000000000000000000000000000 PUSH1 0x0 MSTORE PUSH1 0x12 PUSH1 0x4 MSTORE PUSH1 0x24 PUSH1 0x0 REVERT JUMPDEST POP DIV SWAP1 JUMP JUMPDEST PUSH1 0x0 DUP2 PUSH32 0xFFFFFFFFFFFFFFFFFFFFFFFFFFFFFFFFFFFFFFFFFFFFFFFFFFFFFFFFFFFFFFFF DIV DUP4 GT DUP3 ISZERO ISZERO AND ISZERO PUSH2 0x319A JUMPI PUSH2 0x319A PUSH2 0x321B JUMP JUMPDEST POP MUL SWAP1 JUMP JUMPDEST PUSH1 0x0 DUP3 DUP3 LT ISZERO PUSH2 0x31B1 JUMPI PUSH2 0x31B1 PUSH2 0x321B JUMP JUMPDEST POP SUB SWAP1 JUMP JUMPDEST PUSH1 0x0 JUMPDEST DUP4 DUP2 LT ISZERO PUSH2 0x31D1 JUMPI DUP2 DUP2 ADD MLOAD DUP4 DUP3 ADD MSTORE PUSH1 0x20 ADD PUSH2 0x31B9 JUMP JUMPDEST DUP4 DUP2 GT ISZERO PUSH2 0x289D JUMPI POP POP PUSH1 0x0 SWAP2 ADD MSTORE JUMP JUMPDEST PUSH1 0x0 PUSH32 0xFFFFFFFFFFFFFFFFFFFFFFFFFFFFFFFFFFFFFFFFFFFFFFFFFFFFFFFFFFFFFFFF DUP3 EQ ISZERO PUSH2 0x3214 JUMPI PUSH2 0x3214 PUSH2 0x321B JUMP JUMPDEST POP PUSH1 0x1 ADD SWAP1 JUMP JUMPDEST PUSH32 0x4E487B7100000000000000000000000000000000000000000000000000000000 PUSH1 0x0 MSTORE PUSH1 0x11 PUSH1 0x4 MSTORE PUSH1 0x24 PUSH1 0x0 REVERT JUMPDEST PUSH32 0x4E487B7100000000000000000000000000000000000000000000000000000000 PUSH1 0x0 MSTORE PUSH1 0x32 PUSH1 0x4 MSTORE PUSH1 0x24 PUSH1 0x0 REVERT JUMPDEST PUSH20 0xFFFFFFFFFFFFFFFFFFFFFFFFFFFFFFFFFFFFFFFF DUP2 AND DUP2 EQ PUSH2 0x2645 JUMPI PUSH1 0x0 DUP1 REVERT JUMPDEST DUP1 ISZERO ISZERO DUP2 EQ PUSH2 0x2645 JUMPI PUSH1 0x0 DUP1 REVERT INVALID LOG2 PUSH5 0x6970667358 0x22 SLT KECCAK256 PUSH30 0xC5611A2FB5FC7E9275FC2459A49AD85D99823E7CC290C1204308EA6BBE43 POP PUSH5 0x736F6C6343 STOP ADDMOD SMOD STOP CALLER "
        },
        "gasEstimates": {
          "creation": {
            "codeDepositCost": "2604600",
            "executionCost": "infinite",
            "totalCost": "infinite"
          },
          "external": {
            "MAXIMUM_DEPOSIT_FEE_RATE()": "316",
            "MAXIMUM_HARVEST_INTERVAL()": "250",
            "add(uint256,address,uint16,uint256,uint256,bool)": "infinite",
            "canHarvest(uint256,address)": "4901",
            "deposit(uint256,uint256)": "infinite",
            "devAddress()": "2381",
            "disableMetaTxns()": "32059",
            "ember()": "2404",
            "emberPerBlock()": "2395",
            "enableMetaTxns()": "32076",
            "feeAddress()": "2403",
            "getMultiplier(uint256,uint256)": "infinite",
            "isTrustedForwarder(address)": "2620",
            "massUpdatePools()": "infinite",
            "metaTxnsEnabled()": "2421",
            "operator()": "2396",
            "owner()": "2397",
            "pendingEmber(uint256,address)": "infinite",
            "poolInfo(uint256)": "19672",
            "poolLength()": "2317",
            "renounceOwnership()": "30443",
            "setDevAddress(address)": "infinite",
            "setFeeAddress(address)": "infinite",
            "startBlock()": "2374",
            "startFarming()": "infinite",
            "totalAllocPoint()": "2353",
            "totalEmberInPools()": "2374",
            "totalLockedUpRewards()": "2352",
            "transferOperator(address)": "30387",
            "transferOwnership(address)": "infinite",
            "updateAllocPoint(uint256,uint256,bool)": "infinite",
            "updateEmissionRate(uint256)": "infinite",
            "updatePool(uint256)": "infinite",
            "userInfo(uint256,address)": "11237",
            "userLockedUntil(uint256,address)": "7112",
            "withdraw(uint256,uint256)": "infinite"
          },
          "internal": {
            "_msgData()": "infinite",
            "_msgSender()": "2238",
            "payOrLockupPendingEmber(uint256)": "infinite",
            "safeEmberTransfer(address,uint256)": "infinite"
          }
        },
        "methodIdentifiers": {
          "MAXIMUM_DEPOSIT_FEE_RATE()": "812c64f1",
          "MAXIMUM_HARVEST_INTERVAL()": "de73149d",
          "add(uint256,address,uint16,uint256,uint256,bool)": "330ae003",
          "canHarvest(uint256,address)": "2e6c998d",
          "deposit(uint256,uint256)": "e2bbb158",
          "devAddress()": "3ad10ef6",
          "disableMetaTxns()": "08383640",
          "ember()": "1f1b9a7c",
          "emberPerBlock()": "c9e11852",
          "enableMetaTxns()": "578bb42d",
          "feeAddress()": "41275358",
          "getMultiplier(uint256,uint256)": "8dbb1e3a",
          "isTrustedForwarder(address)": "572b6c05",
          "massUpdatePools()": "630b5ba1",
          "metaTxnsEnabled()": "a8c95dc0",
          "operator()": "570ca735",
          "owner()": "8da5cb5b",
          "pendingEmber(uint256,address)": "bc83ee22",
          "poolInfo(uint256)": "1526fe27",
          "poolLength()": "081e3eda",
          "renounceOwnership()": "715018a6",
          "setDevAddress(address)": "d0d41fe1",
          "setFeeAddress(address)": "8705fcd4",
          "startBlock()": "48cd4cb1",
          "startFarming()": "afbcfea1",
          "totalAllocPoint()": "17caf6f1",
          "totalEmberInPools()": "2a22bc43",
          "totalLockedUpRewards()": "474fa630",
          "transferOperator(address)": "29605e77",
          "transferOwnership(address)": "f2fde38b",
          "updateAllocPoint(uint256,uint256,bool)": "bde4aeca",
          "updateEmissionRate(uint256)": "0ba84cd2",
          "updatePool(uint256)": "51eb05a6",
          "userInfo(uint256,address)": "93f1a40b",
          "userLockedUntil(uint256,address)": "d1593bc8",
          "withdraw(uint256,uint256)": "441a3e70"
        }
      },
      "storageLayout": {
        "storage": [
          {
            "astId": 619,
            "contract": "contracts/farm/EmberVault.sol:EmberVault",
            "label": "_owner",
            "offset": 0,
            "slot": "0",
            "type": "t_address"
          },
          {
            "astId": 725,
            "contract": "contracts/farm/EmberVault.sol:EmberVault",
            "label": "_status",
            "offset": 0,
            "slot": "1",
            "type": "t_uint256"
          },
          {
            "astId": 1161,
            "contract": "contracts/farm/EmberVault.sol:EmberVault",
            "label": "ember",
            "offset": 0,
            "slot": "2",
            "type": "t_contract(IEmberERC20)1114"
          },
          {
            "astId": 1163,
            "contract": "contracts/farm/EmberVault.sol:EmberVault",
            "label": "_operator",
            "offset": 0,
            "slot": "3",
            "type": "t_address"
          },
          {
            "astId": 1165,
            "contract": "contracts/farm/EmberVault.sol:EmberVault",
            "label": "devAddress",
            "offset": 0,
            "slot": "4",
            "type": "t_address"
          },
          {
            "astId": 1167,
            "contract": "contracts/farm/EmberVault.sol:EmberVault",
            "label": "feeAddress",
            "offset": 0,
            "slot": "5",
            "type": "t_address"
          },
          {
            "astId": 1169,
            "contract": "contracts/farm/EmberVault.sol:EmberVault",
            "label": "emberPerBlock",
            "offset": 0,
            "slot": "6",
            "type": "t_uint256"
          },
          {
            "astId": 1179,
            "contract": "contracts/farm/EmberVault.sol:EmberVault",
            "label": "poolInfo",
            "offset": 0,
            "slot": "7",
            "type": "t_array(t_struct(PoolInfo)1158_storage)dyn_storage"
          },
          {
            "astId": 1186,
            "contract": "contracts/farm/EmberVault.sol:EmberVault",
            "label": "userInfo",
            "offset": 0,
            "slot": "8",
            "type": "t_mapping(t_uint256,t_mapping(t_address,t_struct(UserInfo)1140_storage))"
          },
          {
            "astId": 1189,
            "contract": "contracts/farm/EmberVault.sol:EmberVault",
            "label": "totalAllocPoint",
            "offset": 0,
            "slot": "9",
            "type": "t_uint256"
          },
          {
            "astId": 1191,
            "contract": "contracts/farm/EmberVault.sol:EmberVault",
            "label": "startBlock",
            "offset": 0,
            "slot": "10",
            "type": "t_uint256"
          },
          {
            "astId": 1193,
            "contract": "contracts/farm/EmberVault.sol:EmberVault",
            "label": "totalLockedUpRewards",
            "offset": 0,
            "slot": "11",
            "type": "t_uint256"
          },
          {
            "astId": 1196,
            "contract": "contracts/farm/EmberVault.sol:EmberVault",
            "label": "totalEmberInPools",
            "offset": 0,
            "slot": "12",
            "type": "t_uint256"
          },
          {
            "astId": 1199,
            "contract": "contracts/farm/EmberVault.sol:EmberVault",
            "label": "metaTxnsEnabled",
            "offset": 0,
            "slot": "13",
            "type": "t_bool"
          }
        ],
        "types": {
          "t_address": {
            "encoding": "inplace",
            "label": "address",
            "numberOfBytes": "20"
          },
          "t_array(t_struct(PoolInfo)1158_storage)dyn_storage": {
            "base": "t_struct(PoolInfo)1158_storage",
            "encoding": "dynamic_array",
            "label": "struct EmberVault.PoolInfo[]",
            "numberOfBytes": "32"
          },
          "t_bool": {
            "encoding": "inplace",
            "label": "bool",
            "numberOfBytes": "1"
          },
          "t_contract(IERC20)77": {
            "encoding": "inplace",
            "label": "contract IERC20",
            "numberOfBytes": "20"
          },
          "t_contract(IEmberERC20)1114": {
            "encoding": "inplace",
            "label": "contract IEmberERC20",
            "numberOfBytes": "20"
          },
          "t_mapping(t_address,t_struct(UserInfo)1140_storage)": {
            "encoding": "mapping",
            "key": "t_address",
            "label": "mapping(address => struct EmberVault.UserInfo)",
            "numberOfBytes": "32",
            "value": "t_struct(UserInfo)1140_storage"
          },
          "t_mapping(t_uint256,t_mapping(t_address,t_struct(UserInfo)1140_storage))": {
            "encoding": "mapping",
            "key": "t_uint256",
            "label": "mapping(uint256 => mapping(address => struct EmberVault.UserInfo))",
            "numberOfBytes": "32",
            "value": "t_mapping(t_address,t_struct(UserInfo)1140_storage)"
          },
          "t_struct(PoolInfo)1158_storage": {
            "encoding": "inplace",
            "label": "struct EmberVault.PoolInfo",
            "members": [
              {
                "astId": 1143,
                "contract": "contracts/farm/EmberVault.sol:EmberVault",
                "label": "lpToken",
                "offset": 0,
                "slot": "0",
                "type": "t_contract(IERC20)77"
              },
              {
                "astId": 1145,
                "contract": "contracts/farm/EmberVault.sol:EmberVault",
                "label": "allocPoint",
                "offset": 0,
                "slot": "1",
                "type": "t_uint256"
              },
              {
                "astId": 1147,
                "contract": "contracts/farm/EmberVault.sol:EmberVault",
                "label": "lastRewardBlock",
                "offset": 0,
                "slot": "2",
                "type": "t_uint256"
              },
              {
                "astId": 1149,
                "contract": "contracts/farm/EmberVault.sol:EmberVault",
                "label": "accEmberPerShare",
                "offset": 0,
                "slot": "3",
                "type": "t_uint256"
              },
              {
                "astId": 1151,
                "contract": "contracts/farm/EmberVault.sol:EmberVault",
                "label": "depositFeeBP",
                "offset": 0,
                "slot": "4",
                "type": "t_uint16"
              },
              {
                "astId": 1153,
                "contract": "contracts/farm/EmberVault.sol:EmberVault",
                "label": "harvestInterval",
                "offset": 0,
                "slot": "5",
                "type": "t_uint256"
              },
              {
                "astId": 1155,
                "contract": "contracts/farm/EmberVault.sol:EmberVault",
                "label": "totalLp",
                "offset": 0,
                "slot": "6",
                "type": "t_uint256"
              },
              {
                "astId": 1157,
                "contract": "contracts/farm/EmberVault.sol:EmberVault",
                "label": "lockupDuration",
                "offset": 0,
                "slot": "7",
                "type": "t_uint256"
              }
            ],
            "numberOfBytes": "256"
          },
          "t_struct(UserInfo)1140_storage": {
            "encoding": "inplace",
            "label": "struct EmberVault.UserInfo",
            "members": [
              {
                "astId": 1131,
                "contract": "contracts/farm/EmberVault.sol:EmberVault",
                "label": "amount",
                "offset": 0,
                "slot": "0",
                "type": "t_uint256"
              },
              {
                "astId": 1133,
                "contract": "contracts/farm/EmberVault.sol:EmberVault",
                "label": "rewardDebt",
                "offset": 0,
                "slot": "1",
                "type": "t_uint256"
              },
              {
                "astId": 1135,
                "contract": "contracts/farm/EmberVault.sol:EmberVault",
                "label": "rewardLockedUp",
                "offset": 0,
                "slot": "2",
                "type": "t_uint256"
              },
              {
                "astId": 1137,
                "contract": "contracts/farm/EmberVault.sol:EmberVault",
                "label": "nextHarvestUntil",
                "offset": 0,
                "slot": "3",
                "type": "t_uint256"
              },
              {
                "astId": 1139,
                "contract": "contracts/farm/EmberVault.sol:EmberVault",
                "label": "lastInteraction",
                "offset": 0,
                "slot": "4",
                "type": "t_uint256"
              }
            ],
            "numberOfBytes": "160"
          },
          "t_uint16": {
            "encoding": "inplace",
            "label": "uint16",
            "numberOfBytes": "2"
          },
          "t_uint256": {
            "encoding": "inplace",
            "label": "uint256",
            "numberOfBytes": "32"
          }
        }
      },
      "userdoc": {
        "kind": "user",
        "methods": {},
        "version": 1
      }
    }
  }
}