{
  "contracts/staking/TokenFarm.sol": {
    "TokenFarm": {
      "abi": [
        {
          "inputs": [
            {
              "internalType": "address",
              "name": "_rewardHolder",
              "type": "address"
            }
          ],
          "stateMutability": "nonpayable",
          "type": "constructor"
        },
        {
          "anonymous": false,
          "inputs": [
            {
              "indexed": true,
              "internalType": "uint256",
              "name": "campaignID",
              "type": "uint256"
            },
            {
              "indexed": false,
              "internalType": "contract IBoringERC20",
              "name": "stakingToken",
              "type": "address"
            },
            {
              "indexed": false,
              "internalType": "contract IBoringERC20",
              "name": "rewardToken",
              "type": "address"
            },
            {
              "indexed": false,
              "internalType": "uint256",
              "name": "startTimestamp",
              "type": "uint256"
            }
          ],
          "name": "AddCampaignInfo",
          "type": "event"
        },
        {
          "anonymous": false,
          "inputs": [
            {
              "indexed": true,
              "internalType": "uint256",
              "name": "campaignID",
              "type": "uint256"
            },
            {
              "indexed": true,
              "internalType": "uint256",
              "name": "phase",
              "type": "uint256"
            },
            {
              "indexed": false,
              "internalType": "uint256",
              "name": "endTimestamp",
              "type": "uint256"
            },
            {
              "indexed": false,
              "internalType": "uint256",
              "name": "rewardPerTimestamp",
              "type": "uint256"
            }
          ],
          "name": "AddRewardInfo",
          "type": "event"
        },
        {
          "anonymous": false,
          "inputs": [
            {
              "indexed": true,
              "internalType": "address",
              "name": "user",
              "type": "address"
            },
            {
              "indexed": false,
              "internalType": "uint256",
              "name": "amount",
              "type": "uint256"
            },
            {
              "indexed": false,
              "internalType": "uint256",
              "name": "campaign",
              "type": "uint256"
            }
          ],
          "name": "Deposit",
          "type": "event"
        },
        {
          "anonymous": false,
          "inputs": [
            {
              "indexed": true,
              "internalType": "address",
              "name": "user",
              "type": "address"
            },
            {
              "indexed": false,
              "internalType": "uint256",
              "name": "amount",
              "type": "uint256"
            },
            {
              "indexed": false,
              "internalType": "uint256",
              "name": "campaign",
              "type": "uint256"
            }
          ],
          "name": "EmergencyWithdraw",
          "type": "event"
        },
        {
          "anonymous": false,
          "inputs": [
            {
              "indexed": true,
              "internalType": "address",
              "name": "previousOwner",
              "type": "address"
            },
            {
              "indexed": true,
              "internalType": "address",
              "name": "newOwner",
              "type": "address"
            }
          ],
          "name": "OwnershipTransferred",
          "type": "event"
        },
        {
          "anonymous": false,
          "inputs": [
            {
              "indexed": false,
              "internalType": "address",
              "name": "rewardHolder",
              "type": "address"
            }
          ],
          "name": "SetRewardHolder",
          "type": "event"
        },
        {
          "anonymous": false,
          "inputs": [
            {
              "indexed": false,
              "internalType": "uint256",
              "name": "rewardInfoLimit",
              "type": "uint256"
            }
          ],
          "name": "SetRewardInfoLimit",
          "type": "event"
        },
        {
          "anonymous": false,
          "inputs": [
            {
              "indexed": true,
              "internalType": "address",
              "name": "user",
              "type": "address"
            },
            {
              "indexed": false,
              "internalType": "uint256",
              "name": "amount",
              "type": "uint256"
            },
            {
              "indexed": false,
              "internalType": "uint256",
              "name": "campaign",
              "type": "uint256"
            }
          ],
          "name": "Withdraw",
          "type": "event"
        },
        {
          "inputs": [
            {
              "internalType": "contract IBoringERC20",
              "name": "_stakingToken",
              "type": "address"
            },
            {
              "internalType": "contract IBoringERC20",
              "name": "_rewardToken",
              "type": "address"
            },
            {
              "internalType": "uint256",
              "name": "_startTimestamp",
              "type": "uint256"
            }
          ],
          "name": "addCampaignInfo",
          "outputs": [],
          "stateMutability": "nonpayable",
          "type": "function"
        },
        {
          "inputs": [
            {
              "internalType": "uint256",
              "name": "_campaignID",
              "type": "uint256"
            },
            {
              "internalType": "uint256",
              "name": "_endTimestamp",
              "type": "uint256"
            },
            {
              "internalType": "uint256",
              "name": "_rewardPerSec",
              "type": "uint256"
            }
          ],
          "name": "addRewardInfo",
          "outputs": [],
          "stateMutability": "nonpayable",
          "type": "function"
        },
        {
          "inputs": [
            {
              "internalType": "uint256",
              "name": "",
              "type": "uint256"
            }
          ],
          "name": "campaignInfo",
          "outputs": [
            {
              "internalType": "contract IBoringERC20",
              "name": "stakingToken",
              "type": "address"
            },
            {
              "internalType": "contract IBoringERC20",
              "name": "rewardToken",
              "type": "address"
            },
            {
              "internalType": "uint256",
              "name": "precision",
              "type": "uint256"
            },
            {
              "internalType": "uint256",
              "name": "startTimestamp",
              "type": "uint256"
            },
            {
              "internalType": "uint256",
              "name": "lastRewardTimestamp",
              "type": "uint256"
            },
            {
              "internalType": "uint256",
              "name": "accRewardPerShare",
              "type": "uint256"
            },
            {
              "internalType": "uint256",
              "name": "totalStaked",
              "type": "uint256"
            },
            {
              "internalType": "uint256",
              "name": "totalRewards",
              "type": "uint256"
            }
          ],
          "stateMutability": "view",
          "type": "function"
        },
        {
          "inputs": [],
          "name": "campaignInfoLen",
          "outputs": [
            {
              "internalType": "uint256",
              "name": "",
              "type": "uint256"
            }
          ],
          "stateMutability": "view",
          "type": "function"
        },
        {
          "inputs": [
            {
              "internalType": "uint256",
              "name": "",
              "type": "uint256"
            },
            {
              "internalType": "uint256",
              "name": "",
              "type": "uint256"
            }
          ],
          "name": "campaignRewardInfo",
          "outputs": [
            {
              "internalType": "uint256",
              "name": "endTimestamp",
              "type": "uint256"
            },
            {
              "internalType": "uint256",
              "name": "rewardPerSec",
              "type": "uint256"
            }
          ],
          "stateMutability": "view",
          "type": "function"
        },
        {
          "inputs": [
            {
              "internalType": "uint256",
              "name": "_campaignID",
              "type": "uint256"
            }
          ],
          "name": "currentEndTimestamp",
          "outputs": [
            {
              "internalType": "uint256",
              "name": "",
              "type": "uint256"
            }
          ],
          "stateMutability": "view",
          "type": "function"
        },
        {
          "inputs": [
            {
              "internalType": "uint256",
              "name": "_campaignID",
              "type": "uint256"
            }
          ],
          "name": "currentRewardPerSec",
          "outputs": [
            {
              "internalType": "uint256",
              "name": "",
              "type": "uint256"
            }
          ],
          "stateMutability": "view",
          "type": "function"
        },
        {
          "inputs": [
            {
              "internalType": "uint256",
              "name": "_campaignID",
              "type": "uint256"
            },
            {
              "internalType": "uint256",
              "name": "_amount",
              "type": "uint256"
            }
          ],
          "name": "deposit",
          "outputs": [],
          "stateMutability": "nonpayable",
          "type": "function"
        },
        {
          "inputs": [
            {
              "internalType": "uint256",
              "name": "_campaignID",
              "type": "uint256"
            },
            {
              "internalType": "uint256",
              "name": "_amount",
              "type": "uint256"
            },
            {
              "internalType": "uint256",
              "name": "deadline",
              "type": "uint256"
            },
            {
              "internalType": "uint8",
              "name": "v",
              "type": "uint8"
            },
            {
              "internalType": "bytes32",
              "name": "r",
              "type": "bytes32"
            },
            {
              "internalType": "bytes32",
              "name": "s",
              "type": "bytes32"
            }
          ],
          "name": "depositWithPermit",
          "outputs": [],
          "stateMutability": "nonpayable",
          "type": "function"
        },
        {
          "inputs": [
            {
              "internalType": "uint256",
              "name": "_campaignID",
              "type": "uint256"
            },
            {
              "internalType": "uint256",
              "name": "_amount",
              "type": "uint256"
            },
            {
              "internalType": "address",
              "name": "_beneficiary",
              "type": "address"
            }
          ],
          "name": "emergencyRewardWithdraw",
          "outputs": [],
          "stateMutability": "nonpayable",
          "type": "function"
        },
        {
          "inputs": [
            {
              "internalType": "uint256",
              "name": "_campaignID",
              "type": "uint256"
            }
          ],
          "name": "emergencyWithdraw",
          "outputs": [],
          "stateMutability": "nonpayable",
          "type": "function"
        },
        {
          "inputs": [
            {
              "internalType": "uint256",
              "name": "_from",
              "type": "uint256"
            },
            {
              "internalType": "uint256",
              "name": "_to",
              "type": "uint256"
            },
            {
              "internalType": "uint256",
              "name": "_endTimestamp",
              "type": "uint256"
            }
          ],
          "name": "getMultiplier",
          "outputs": [
            {
              "internalType": "uint256",
              "name": "",
              "type": "uint256"
            }
          ],
          "stateMutability": "pure",
          "type": "function"
        },
        {
          "inputs": [
            {
              "internalType": "uint256[]",
              "name": "_campaignIDs",
              "type": "uint256[]"
            }
          ],
          "name": "harvest",
          "outputs": [],
          "stateMutability": "nonpayable",
          "type": "function"
        },
        {
          "inputs": [],
          "name": "massUpdateCampaigns",
          "outputs": [],
          "stateMutability": "nonpayable",
          "type": "function"
        },
        {
          "inputs": [],
          "name": "owner",
          "outputs": [
            {
              "internalType": "address",
              "name": "",
              "type": "address"
            }
          ],
          "stateMutability": "view",
          "type": "function"
        },
        {
          "inputs": [
            {
              "internalType": "uint256",
              "name": "_campaignID",
              "type": "uint256"
            },
            {
              "internalType": "address",
              "name": "_user",
              "type": "address"
            }
          ],
          "name": "pendingReward",
          "outputs": [
            {
              "internalType": "uint256",
              "name": "",
              "type": "uint256"
            }
          ],
          "stateMutability": "view",
          "type": "function"
        },
        {
          "inputs": [],
          "name": "renounceOwnership",
          "outputs": [],
          "stateMutability": "nonpayable",
          "type": "function"
        },
        {
          "inputs": [],
          "name": "rewardHolder",
          "outputs": [
            {
              "internalType": "address",
              "name": "",
              "type": "address"
            }
          ],
          "stateMutability": "view",
          "type": "function"
        },
        {
          "inputs": [
            {
              "internalType": "uint256",
              "name": "_campaignID",
              "type": "uint256"
            }
          ],
          "name": "rewardInfoLen",
          "outputs": [
            {
              "internalType": "uint256",
              "name": "",
              "type": "uint256"
            }
          ],
          "stateMutability": "view",
          "type": "function"
        },
        {
          "inputs": [],
          "name": "rewardInfoLimit",
          "outputs": [
            {
              "internalType": "uint256",
              "name": "",
              "type": "uint256"
            }
          ],
          "stateMutability": "view",
          "type": "function"
        },
        {
          "inputs": [
            {
              "internalType": "address",
              "name": "_rewardHolder",
              "type": "address"
            }
          ],
          "name": "setRewardHolder",
          "outputs": [],
          "stateMutability": "nonpayable",
          "type": "function"
        },
        {
          "inputs": [
            {
              "internalType": "uint256",
              "name": "_updatedRewardInfoLimit",
              "type": "uint256"
            }
          ],
          "name": "setRewardInfoLimit",
          "outputs": [],
          "stateMutability": "nonpayable",
          "type": "function"
        },
        {
          "inputs": [
            {
              "internalType": "address",
              "name": "newOwner",
              "type": "address"
            }
          ],
          "name": "transferOwnership",
          "outputs": [],
          "stateMutability": "nonpayable",
          "type": "function"
        },
        {
          "inputs": [
            {
              "internalType": "uint256",
              "name": "_campaignID",
              "type": "uint256"
            }
          ],
          "name": "updateCampaign",
          "outputs": [],
          "stateMutability": "nonpayable",
          "type": "function"
        },
        {
          "inputs": [
            {
              "internalType": "uint256",
              "name": "",
              "type": "uint256"
            },
            {
              "internalType": "address",
              "name": "",
              "type": "address"
            }
          ],
          "name": "userInfo",
          "outputs": [
            {
              "internalType": "uint256",
              "name": "amount",
              "type": "uint256"
            },
            {
              "internalType": "uint256",
              "name": "rewardDebt",
              "type": "uint256"
            }
          ],
          "stateMutability": "view",
          "type": "function"
        },
        {
          "inputs": [
            {
              "internalType": "uint256",
              "name": "_campaignID",
              "type": "uint256"
            },
            {
              "internalType": "uint256",
              "name": "_amount",
              "type": "uint256"
            }
          ],
          "name": "withdraw",
          "outputs": [],
          "stateMutability": "nonpayable",
          "type": "function"
        }
      ],
      "devdoc": {
        "kind": "dev",
        "methods": {
          "owner()": {
            "details": "Returns the address of the current owner."
          },
          "renounceOwnership()": {
            "details": "Leaves the contract without owner. It will not be possible to call `onlyOwner` functions anymore. Can only be called by the current owner. NOTE: Renouncing ownership will leave the contract without an owner, thereby removing any functionality that is only available to the owner."
          },
          "transferOwnership(address)": {
            "details": "Transfers ownership of the contract to a new account (`newOwner`). Can only be called by the current owner."
          }
        },
        "version": 1
      },
      "evm": {
        "bytecode": {
          "linkReferences": {},
          "object": "60806040523480156200001157600080fd5b5060405162002c5238038062002c528339810160408190526200003491620000be565b6200003f336200006e565b600180556035600555600680546001600160a01b0319166001600160a01b0392909216919091179055620000f0565b600080546001600160a01b038381166001600160a01b0319831681178455604051919092169283917f8be0079c531659141344cd1fd0a4f28419497f9722a3daafe3b4186f6b6457e09190a35050565b600060208284031215620000d157600080fd5b81516001600160a01b0381168114620000e957600080fd5b9392505050565b612b5280620001006000396000f3fe608060405234801561001057600080fd5b50600436106101ad5760003560e01c80635d14b06f116100ee57806398969e8211610097578063cef7042d11610071578063cef7042d1461041a578063e2bbb1581461042d578063eebdced514610440578063f2fde38b1461044857600080fd5b806398969e821461038e5780639e494bee146103a1578063bb2238ec146103b457600080fd5b80637bafb029116100c85780637bafb0291461032b5780638da5cb5b1461033e57806393f1a40b1461035c57600080fd5b80635d14b06f146102fd5780636806cc9314610310578063715018a61461032357600080fd5b8063409e00fc1161015b5780634ae56bae116101355780634ae56bae14610272578063515bc323146102925780635312ea8e146102a5578063569c93d2146102b857600080fd5b8063409e00fc14610244578063441a3e70146102575780634ad7ce801461026a57600080fd5b80632ea807c51161018c5780632ea807c51461020b57806332215c421461021e57806333824b871461023157600080fd5b8062d74850146101b257806310f7a6af146101ce5780631d123131146101f6575b600080fd5b6101bb60055481565b6040519081526020015b60405180910390f35b6101e16101dc366004612754565b61045b565b604080519283526020830191909152016101c5565b610209610204366004612776565b610497565b005b6102096102193660046127af565b6106b3565b6101bb61022c36600461270b565b610ace565b61020961023f36600461270b565b610ae0565b6102096102523660046126ca565b610b9d565b610209610265366004612754565b610f34565b6003546101bb565b6101bb61028036600461270b565b60009081526002602052604090205490565b6102096102a03660046127db565b610fb8565b6102096102b336600461270b565b611117565b6006546102d89073ffffffffffffffffffffffffffffffffffffffff1681565b60405173ffffffffffffffffffffffffffffffffffffffff90911681526020016101c5565b61020961030b366004612633565b61125b565b61020961031e366004612616565b611314565b610209611408565b6101bb6103393660046127af565b611495565b60005473ffffffffffffffffffffffffffffffffffffffff166102d8565b6101e161036a366004612724565b60046020908152600092835260408084209091529082529020805460019091015482565b6101bb61039c366004612724565b6114de565b6101bb6103af36600461270b565b611520565b6103c76103c236600461270b565b61152c565b6040805173ffffffffffffffffffffffffffffffffffffffff998a168152989097166020890152958701949094526060860192909252608085015260a084015260c083015260e0820152610100016101c5565b61020961042836600461270b565b61159b565b61020961043b366004612754565b61161d565b610209611699565b610209610456366004612616565b611732565b6002602052816000526040600020818154811061047757600080fd5b600091825260209091206002909102018054600190910154909250905082565b60005473ffffffffffffffffffffffffffffffffffffffff16331461051d576040517f08c379a000000000000000000000000000000000000000000000000000000000815260206004820181905260248201527f4f776e61626c653a2063616c6c6572206973206e6f7420746865206f776e657260448201526064015b60405180910390fd5b6002600154141561058a576040517f08c379a000000000000000000000000000000000000000000000000000000000815260206004820152601f60248201527f5265656e7472616e637947756172643a207265656e7472616e742063616c6c006044820152606401610514565b60026001819055506000600384815481106105a7576105a7612abc565b9060005260206000209060080201905060006105c98583600601546000611862565b60078301549091506105db8583612886565b1115610669576040517f08c379a000000000000000000000000000000000000000000000000000000000815260206004820152603060248201527f656d657267656e637952657761726457697468647261773a3a6e6f7420656e6f60448201527f7567682072657761726420746f6b656e000000000000000000000000000000006064820152608401610514565b8382600701600082825461067d9190612a3d565b909155505060018201546106a89073ffffffffffffffffffffffffffffffffffffffff168486611a8d565b505060018055505050565b60005473ffffffffffffffffffffffffffffffffffffffff163314610734576040517f08c379a000000000000000000000000000000000000000000000000000000000815260206004820181905260248201527f4f776e61626c653a2063616c6c6572206973206e6f7420746865206f776e65726044820152606401610514565b6000838152600260205260408120600380549192918690811061075957610759612abc565b906000526020600020906008020190506005548280549050106107fe576040517f08c379a000000000000000000000000000000000000000000000000000000000815260206004820152603360248201527f616464526577617264496e666f3a3a72657761726420696e666f206c656e677460448201527f68206578636565647320746865206c696d6974000000000000000000000000006064820152608401610514565b8154158061083e575081544290839061081990600190612a3d565b8154811061082957610829612abc565b90600052602060002090600202016000015410155b6108ca576040517f08c379a000000000000000000000000000000000000000000000000000000000815260206004820152602260248201527f616464526577617264496e666f3a3a72657761726420706572696f6420656e6460448201527f65640000000000000000000000000000000000000000000000000000000000006064820152608401610514565b8154158061090957508154849083906108e590600190612a3d565b815481106108f5576108f5612abc565b906000526020600020906002020160000154105b610995576040517f08c379a000000000000000000000000000000000000000000000000000000000815260206004820152602360248201527f616464526577617264496e666f3a3a626164206e657720656e6454696d65737460448201527f616d7000000000000000000000000000000000000000000000000000000000006064820152608401610514565b8154600090156109d657825483906109af90600190612a3d565b815481106109bf576109bf612abc565b9060005260206000209060020201600001546109dc565b81600301545b905060006109ea8287612a3d565b905060006109f88287612a00565b6006546001860154919250610a289173ffffffffffffffffffffffffffffffffffffffff90811691163084611bfd565b80846007016000828254610a3c9190612886565b9091555050604080518082019091528781526020808201888152875460018181018a5560008a8152939093209351600290910290930192835551918101919091558554610a899190612a3d565b60408051898152602081018990528a917fad90731bd0d97445f5af66088f3adebf343c520c20e033cc42f93b124258cdc2910160405180910390a35050505050505050565b6000610ada8242611d76565b92915050565b60005473ffffffffffffffffffffffffffffffffffffffff163314610b61576040517f08c379a000000000000000000000000000000000000000000000000000000000815260206004820181905260248201527f4f776e61626c653a2063616c6c6572206973206e6f7420746865206f776e65726044820152606401610514565b60058190556040518181527fb64f58843e750a8bea7135ef396cf0a7790bfc9a8f43f11ac0e0aacc1b5787ba906020015b60405180910390a150565b60005473ffffffffffffffffffffffffffffffffffffffff163314610c1e576040517f08c379a000000000000000000000000000000000000000000000000000000000815260206004820181905260248201527f4f776e61626c653a2063616c6c6572206973206e6f7420746865206f776e65726044820152606401610514565b6000610c3f8373ffffffffffffffffffffffffffffffffffffffff16611e71565b60ff169050601e8110610cd4576040517f08c379a000000000000000000000000000000000000000000000000000000000815260206004820152603960248201527f636f6e7374727563746f723a2072657761726420746f6b656e20646563696d6160448201527f6c73206d75737420626520696e666572696f7220746f203330000000000000006064820152608401610514565b6000610ce182601e612a3d565b610cec90600a61293a565b604080516101008101825273ffffffffffffffffffffffffffffffffffffffff8089168252878116602083019081529282018481526060830188815260808401898152600060a0860181815260c0870182815260e0880183815260038054600181810183559582905299516008909a027fc2575a0e9e593c00f959f8c92f12db2869c3395a3b0502d05e2516446f71f85b810180549b8b167fffffffffffffffffffffffff00000000000000000000000000000000000000009c8d161790559a517fc2575a0e9e593c00f959f8c92f12db2869c3395a3b0502d05e2516446f71f85c8c01805491909a169a169990991790975594517fc2575a0e9e593c00f959f8c92f12db2869c3395a3b0502d05e2516446f71f85d89015592517fc2575a0e9e593c00f959f8c92f12db2869c3395a3b0502d05e2516446f71f85e88015590517fc2575a0e9e593c00f959f8c92f12db2869c3395a3b0502d05e2516446f71f85f87015590517fc2575a0e9e593c00f959f8c92f12db2869c3395a3b0502d05e2516446f71f86086015590517fc2575a0e9e593c00f959f8c92f12db2869c3395a3b0502d05e2516446f71f86185015590517fc2575a0e9e593c00f959f8c92f12db2869c3395a3b0502d05e2516446f71f8629093019290925554919250610ed491612a3d565b6040805173ffffffffffffffffffffffffffffffffffffffff8089168252871660208201529081018590527f9b2f18f9a188a5aec4a95ee3164fe234dfbb6117628b2ad1a581939e61c69f4e906060015b60405180910390a25050505050565b60026001541415610fa1576040517f08c379a000000000000000000000000000000000000000000000000000000000815260206004820152601f60248201527f5265656e7472616e637947756172643a207265656e7472616e742063616c6c006044820152606401610514565b6002600155610fb08282611f6c565b505060018055565b60026001541415611025576040517f08c379a000000000000000000000000000000000000000000000000000000000815260206004820152601f60248201527f5265656e7472616e637947756172643a207265656e7472616e742063616c6c006044820152606401610514565b600260018190555060006003878154811061104257611042612abc565b6000918252602090912060089091020180546040517fd505accf000000000000000000000000000000000000000000000000000000008152336004820152306024820152604481018990526064810188905260ff8716608482015260a4810186905260c4810185905291925073ffffffffffffffffffffffffffffffffffffffff169063d505accf9060e401600060405180830381600087803b1580156110e857600080fd5b505af11580156110fc573d6000803e3d6000fd5b5050505061110a8787612138565b5050600180555050505050565b60026001541415611184576040517f08c379a000000000000000000000000000000000000000000000000000000000815260206004820152601f60248201527f5265656e7472616e637947756172643a207265656e7472616e742063616c6c006044820152606401610514565b60026001819055506000600382815481106111a1576111a1612abc565b60009182526020808320858452600482526040808520338652909252908320805460089390930290910160068101805491955091938392916111e4908490612a3d565b90915550506000808355600183015582546112169073ffffffffffffffffffffffffffffffffffffffff163383611a8d565b604080518281526020810186905233917fbb757047c2b5f3974fe26b7c10f732e7bce710b0952a71082702781e62ae0595910160405180910390a25050600180555050565b600260015414156112c8576040517f08c379a000000000000000000000000000000000000000000000000000000000815260206004820152601f60248201527f5265656e7472616e637947756172643a207265656e7472616e742063616c6c006044820152606401610514565b600260015560005b8181101561130b576112fb8383838181106112ed576112ed612abc565b905060200201356000611f6c565b61130481612a54565b90506112d0565b50506001805550565b60005473ffffffffffffffffffffffffffffffffffffffff163314611395576040517f08c379a000000000000000000000000000000000000000000000000000000000815260206004820181905260248201527f4f776e61626c653a2063616c6c6572206973206e6f7420746865206f776e65726044820152606401610514565b600680547fffffffffffffffffffffffff00000000000000000000000000000000000000001673ffffffffffffffffffffffffffffffffffffffff83169081179091556040519081527f860da714d66641e1bb8025e657aa279ec5bbe56385e52a9ee03a12718e5600cb90602001610b92565b60005473ffffffffffffffffffffffffffffffffffffffff163314611489576040517f08c379a000000000000000000000000000000000000000000000000000000000815260206004820181905260248201527f4f776e61626c653a2063616c6c6572206973206e6f7420746865206f776e65726044820152606401610514565b61149360006122ae565b565b600081841015806114a557508284115b156114b2575060006114d7565b8183116114ca576114c38484612a3d565b90506114d7565b6114d48483612a3d565b90505b9392505050565b600082815260046020908152604080832073ffffffffffffffffffffffffffffffffffffffff85168452909152812080546001909101546114d7918591611862565b6000610ada8242612323565b6003818154811061153c57600080fd5b60009182526020909120600890910201805460018201546002830154600384015460048501546005860154600687015460079097015473ffffffffffffffffffffffffffffffffffffffff968716985094909516959294919390929088565b60026001541415611608576040517f08c379a000000000000000000000000000000000000000000000000000000000815260206004820152601f60248201527f5265656e7472616e637947756172643a207265656e7472616e742063616c6c006044820152606401610514565b600260015561161681612445565b5060018055565b6002600154141561168a576040517f08c379a000000000000000000000000000000000000000000000000000000000815260206004820152601f60248201527f5265656e7472616e637947756172643a207265656e7472616e742063616c6c006044820152606401610514565b6002600155610fb08282612138565b60026001541415611706576040517f08c379a000000000000000000000000000000000000000000000000000000000815260206004820152601f60248201527f5265656e7472616e637947756172643a207265656e7472616e742063616c6c006044820152606401610514565b600260015560035460005b81811015610fb05761172281612445565b61172b81612a54565b9050611711565b60005473ffffffffffffffffffffffffffffffffffffffff1633146117b3576040517f08c379a000000000000000000000000000000000000000000000000000000000815260206004820181905260248201527f4f776e61626c653a2063616c6c6572206973206e6f7420746865206f776e65726044820152606401610514565b73ffffffffffffffffffffffffffffffffffffffff8116611856576040517f08c379a000000000000000000000000000000000000000000000000000000000815260206004820152602660248201527f4f776e61626c653a206e6577206f776e657220697320746865207a65726f206160448201527f64647265737300000000000000000000000000000000000000000000000000006064820152608401610514565b61185f816122ae565b50565b6000806003858154811061187857611878612abc565b6000918252602080832060408051610100810182526008909402909101805473ffffffffffffffffffffffffffffffffffffffff908116855260018201541684840152600280820154858401526003820154606086015260048201546080860152600582015460a0860152600682015460c086015260079091015460e08501528985528252808420805482518185028101850190935280835293955090929091849084015b828210156119635783829060005260206000209060020201604051806040016040529081600082015481526020016001820154815250508152602001906001019061191d565b50505050905060008260a001519050826080015142118015611988575060c083015115155b15611a5d57608083015160005b8351811015611a5a5760006119c883428785815181106119b7576119b7612abc565b602002602001015160000151611495565b9050806119d55750611a4a565b8482815181106119e7576119e7612abc565b60200260200101516000015192508560c001518660400151868481518110611a1157611a11612abc565b60200260200101516020015183611a289190612a00565b611a329190612a00565b611a3c919061289e565b611a469085612886565b9350505b611a5381612a54565b9050611995565b50505b60408301518590611a6e8389612a00565b611a78919061289e565b611a829190612a3d565b979650505050505050565b6040805173ffffffffffffffffffffffffffffffffffffffff8481166024830152604480830185905283518084039091018152606490920183526020820180517bffffffffffffffffffffffffffffffffffffffffffffffffffffffff167fa9059cbb000000000000000000000000000000000000000000000000000000001790529151600092839290871691611b24919061284b565b6000604051808303816000865af19150503d8060008114611b61576040519150601f19603f3d011682016040523d82523d6000602084013e611b66565b606091505b5091509150818015611b90575080511580611b90575080806020019051810190611b9091906126a8565b611bf6576040517f08c379a000000000000000000000000000000000000000000000000000000000815260206004820152601c60248201527f426f72696e6745524332303a205472616e73666572206661696c6564000000006044820152606401610514565b5050505050565b6040805173ffffffffffffffffffffffffffffffffffffffff85811660248301528481166044830152606480830185905283518084039091018152608490920183526020820180517bffffffffffffffffffffffffffffffffffffffffffffffffffffffff167f23b872dd000000000000000000000000000000000000000000000000000000001790529151600092839290881691611c9c919061284b565b6000604051808303816000865af19150503d8060008114611cd9576040519150601f19603f3d011682016040523d82523d6000602084013e611cde565b606091505b5091509150818015611d08575080511580611d08575080806020019051810190611d0891906126a8565b611d6e576040517f08c379a000000000000000000000000000000000000000000000000000000000815260206004820181905260248201527f426f72696e6745524332303a205472616e7366657246726f6d206661696c65646044820152606401610514565b505050505050565b600082815260026020908152604080832080548251818502810185019093528083528493849084015b82821015611de557838290600052602060002090600202016040518060400160405290816000820154815260200160018201548152505081526020019060010190611d9f565b50508251929350505080611dfe57600092505050610ada565b60005b81811015611e6557828181518110611e1b57611e1b612abc565b6020026020010151600001518511611e5557828181518110611e3f57611e3f612abc565b6020026020010151602001519350505050610ada565b611e5e81612a54565b9050611e01565b50600095945050505050565b60408051600481526024810182526020810180517bffffffffffffffffffffffffffffffffffffffffffffffffffffffff167f313ce5670000000000000000000000000000000000000000000000000000000017905290516000918291829173ffffffffffffffffffffffffffffffffffffffff861691611ef2919061284b565b600060405180830381855afa9150503d8060008114611f2d576040519150601f19603f3d011682016040523d82523d6000602084013e611f32565b606091505b5091509150818015611f45575080516020145b611f50576012611f64565b80806020019051810190611f64919061282e565b949350505050565b600060038381548110611f8157611f81612abc565b600091825260208083208684526004825260408085203386529092529220805460089092029092019250831115612014576040517f08c379a000000000000000000000000000000000000000000000000000000000815260206004820152601d60248201527f77697468647261773a3a62616420776974686472617720616d6f756e740000006044820152606401610514565b61201d84612445565b6000816001015483600201548460050154846000015461203d9190612a00565b612047919061289e565b6120519190612a3d565b9050801561207f57600183015461207f9073ffffffffffffffffffffffffffffffffffffffff163383611a8d565b83156120db57838260000160008282546120999190612a3d565b909155505082546120c19073ffffffffffffffffffffffffffffffffffffffff163386611a8d565b838360060160008282546120d59190612a3d565b90915550505b6002830154600584015483546120f19190612a00565b6120fb919061289e565b6001830155604080518581526020810187905233917ff279e6a1f5e320cca91135676d9cb6e44ca8a08c0b88342bcdb1144f6511b5689101610f25565b60006003838154811061214d5761214d612abc565b6000918252602080832086845260048252604080852033865290925292206008909102909101915061217e84612445565b8054156121e957600081600101548360020154846005015484600001546121a59190612a00565b6121af919061289e565b6121b99190612a3d565b905080156121e75760018301546121e79073ffffffffffffffffffffffffffffffffffffffff163383611a8d565b505b82156122485781546122139073ffffffffffffffffffffffffffffffffffffffff16333086611bfd565b828160000160008282546122279190612886565b92505081905550828260060160008282546122429190612886565b90915550505b60028201546005830154825461225e9190612a00565b612268919061289e565b6001820155604080518481526020810186905233917f90890809c654f11d6e72a28fa60149770a0d11ec6c92319d6ceb2bb0a4ea1a15910160405180910390a250505050565b6000805473ffffffffffffffffffffffffffffffffffffffff8381167fffffffffffffffffffffffff0000000000000000000000000000000000000000831681178455604051919092169283917f8be0079c531659141344cd1fd0a4f28419497f9722a3daafe3b4186f6b6457e09190a35050565b600082815260026020908152604080832080548251818502810185019093528083528493849084015b828210156123925783829060005260206000209060020201604051806040016040529081600082015481526020016001820154815250508152602001906001019061234c565b505082519293505050806123ab57600092505050610ada565b60005b81811015612412578281815181106123c8576123c8612abc565b6020026020010151600001518511612402578281815181106123ec576123ec612abc565b6020026020010151600001519350505050610ada565b61240b81612a54565b90506123ae565b508161241f600183612a3d565b8151811061242f5761242f612abc565b6020026020010151600001519250505092915050565b60006003828154811061245a5761245a612abc565b60009182526020808320858452600282526040808520805482518186028101860190935280835260089095029092019550929091849084015b828210156124d957838290600052602060002090600202016040518060400160405290816000820154815260200160018201548152505081526020019060010190612493565b505050509050816004015442116124ef57505050565b6006820154612515576125028342612323565b421115612510574260048301555b505050565b60005b815181101561261057600061253e8460040154428585815181106119b7576119b7612abc565b90508061254b5750612600565b82828151811061255d5761255d612abc565b6020026020010151600001514211156125985782828151811061258257612582612abc565b602090810291909101015151600485015561259f565b4260048501555b836006015484600201548484815181106125bb576125bb612abc565b602002602001015160200151836125d29190612a00565b6125dc9190612a00565b6125e6919061289e565b8460050160008282546125f99190612886565b9091555050505b61260981612a54565b9050612518565b50505050565b60006020828403121561262857600080fd5b81356114d781612aeb565b6000806020838503121561264657600080fd5b823567ffffffffffffffff8082111561265e57600080fd5b818501915085601f83011261267257600080fd5b81358181111561268157600080fd5b8660208260051b850101111561269657600080fd5b60209290920196919550909350505050565b6000602082840312156126ba57600080fd5b815180151581146114d757600080fd5b6000806000606084860312156126df57600080fd5b83356126ea81612aeb565b925060208401356126fa81612aeb565b929592945050506040919091013590565b60006020828403121561271d57600080fd5b5035919050565b6000806040838503121561273757600080fd5b82359150602083013561274981612aeb565b809150509250929050565b6000806040838503121561276757600080fd5b50508035926020909101359150565b60008060006060848603121561278b57600080fd5b833592506020840135915060408401356127a481612aeb565b809150509250925092565b6000806000606084860312156127c457600080fd5b505081359360208301359350604090920135919050565b60008060008060008060c087890312156127f457600080fd5b863595506020870135945060408701359350606087013561281481612b0d565b9598949750929560808101359460a0909101359350915050565b60006020828403121561284057600080fd5b81516114d781612b0d565b6000825160005b8181101561286c5760208186018101518583015201612852565b8181111561287b576000828501525b509190910192915050565b6000821982111561289957612899612a8d565b500190565b6000826128d4577f4e487b7100000000000000000000000000000000000000000000000000000000600052601260045260246000fd5b500490565b600181815b8085111561293257817fffffffffffffffffffffffffffffffffffffffffffffffffffffffffffffffff0482111561291857612918612a8d565b8085161561292557918102915b93841c93908002906128de565b509250929050565b60006114d7838360008261295057506001610ada565b8161295d57506000610ada565b8160018114612973576002811461297d57612999565b6001915050610ada565b60ff84111561298e5761298e612a8d565b50506001821b610ada565b5060208310610133831016604e8410600b84101617156129bc575081810a610ada565b6129c683836128d9565b807fffffffffffffffffffffffffffffffffffffffffffffffffffffffffffffffff048211156129f8576129f8612a8d565b029392505050565b6000817fffffffffffffffffffffffffffffffffffffffffffffffffffffffffffffffff0483118215151615612a3857612a38612a8d565b500290565b600082821015612a4f57612a4f612a8d565b500390565b60007fffffffffffffffffffffffffffffffffffffffffffffffffffffffffffffffff821415612a8657612a86612a8d565b5060010190565b7f4e487b7100000000000000000000000000000000000000000000000000000000600052601160045260246000fd5b7f4e487b7100000000000000000000000000000000000000000000000000000000600052603260045260246000fd5b73ffffffffffffffffffffffffffffffffffffffff8116811461185f57600080fd5b60ff8116811461185f57600080fdfea264697066735822122014b9146c3c7bf0e76c07837e7aed02bf4d6804c8ed65fdf1aafc171e1c41f6aa64736f6c63430008070033",
          "opcodes": "PUSH1 0x80 PUSH1 0x40 MSTORE CALLVALUE DUP1 ISZERO PUSH3 0x11 JUMPI PUSH1 0x0 DUP1 REVERT JUMPDEST POP PUSH1 0x40 MLOAD PUSH3 0x2C52 CODESIZE SUB DUP1 PUSH3 0x2C52 DUP4 CODECOPY DUP2 ADD PUSH1 0x40 DUP2 SWAP1 MSTORE PUSH3 0x34 SWAP2 PUSH3 0xBE JUMP JUMPDEST PUSH3 0x3F CALLER PUSH3 0x6E JUMP JUMPDEST PUSH1 0x1 DUP1 SSTORE PUSH1 0x35 PUSH1 0x5 SSTORE PUSH1 0x6 DUP1 SLOAD PUSH1 0x1 PUSH1 0x1 PUSH1 0xA0 SHL SUB NOT AND PUSH1 0x1 PUSH1 0x1 PUSH1 0xA0 SHL SUB SWAP3 SWAP1 SWAP3 AND SWAP2 SWAP1 SWAP2 OR SWAP1 SSTORE PUSH3 0xF0 JUMP JUMPDEST PUSH1 0x0 DUP1 SLOAD PUSH1 0x1 PUSH1 0x1 PUSH1 0xA0 SHL SUB DUP4 DUP2 AND PUSH1 0x1 PUSH1 0x1 PUSH1 0xA0 SHL SUB NOT DUP4 AND DUP2 OR DUP5 SSTORE PUSH1 0x40 MLOAD SWAP2 SWAP1 SWAP3 AND SWAP3 DUP4 SWAP2 PUSH32 0x8BE0079C531659141344CD1FD0A4F28419497F9722A3DAAFE3B4186F6B6457E0 SWAP2 SWAP1 LOG3 POP POP JUMP JUMPDEST PUSH1 0x0 PUSH1 0x20 DUP3 DUP5 SUB SLT ISZERO PUSH3 0xD1 JUMPI PUSH1 0x0 DUP1 REVERT JUMPDEST DUP2 MLOAD PUSH1 0x1 PUSH1 0x1 PUSH1 0xA0 SHL SUB DUP2 AND DUP2 EQ PUSH3 0xE9 JUMPI PUSH1 0x0 DUP1 REVERT JUMPDEST SWAP4 SWAP3 POP POP POP JUMP JUMPDEST PUSH2 0x2B52 DUP1 PUSH3 0x100 PUSH1 0x0 CODECOPY PUSH1 0x0 RETURN INVALID PUSH1 0x80 PUSH1 0x40 MSTORE CALLVALUE DUP1 ISZERO PUSH2 0x10 JUMPI PUSH1 0x0 DUP1 REVERT JUMPDEST POP PUSH1 0x4 CALLDATASIZE LT PUSH2 0x1AD JUMPI PUSH1 0x0 CALLDATALOAD PUSH1 0xE0 SHR DUP1 PUSH4 0x5D14B06F GT PUSH2 0xEE JUMPI DUP1 PUSH4 0x98969E82 GT PUSH2 0x97 JUMPI DUP1 PUSH4 0xCEF7042D GT PUSH2 0x71 JUMPI DUP1 PUSH4 0xCEF7042D EQ PUSH2 0x41A JUMPI DUP1 PUSH4 0xE2BBB158 EQ PUSH2 0x42D JUMPI DUP1 PUSH4 0xEEBDCED5 EQ PUSH2 0x440 JUMPI DUP1 PUSH4 0xF2FDE38B EQ PUSH2 0x448 JUMPI PUSH1 0x0 DUP1 REVERT JUMPDEST DUP1 PUSH4 0x98969E82 EQ PUSH2 0x38E JUMPI DUP1 PUSH4 0x9E494BEE EQ PUSH2 0x3A1 JUMPI DUP1 PUSH4 0xBB2238EC EQ PUSH2 0x3B4 JUMPI PUSH1 0x0 DUP1 REVERT JUMPDEST DUP1 PUSH4 0x7BAFB029 GT PUSH2 0xC8 JUMPI DUP1 PUSH4 0x7BAFB029 EQ PUSH2 0x32B JUMPI DUP1 PUSH4 0x8DA5CB5B EQ PUSH2 0x33E JUMPI DUP1 PUSH4 0x93F1A40B EQ PUSH2 0x35C JUMPI PUSH1 0x0 DUP1 REVERT JUMPDEST DUP1 PUSH4 0x5D14B06F EQ PUSH2 0x2FD JUMPI DUP1 PUSH4 0x6806CC93 EQ PUSH2 0x310 JUMPI DUP1 PUSH4 0x715018A6 EQ PUSH2 0x323 JUMPI PUSH1 0x0 DUP1 REVERT JUMPDEST DUP1 PUSH4 0x409E00FC GT PUSH2 0x15B JUMPI DUP1 PUSH4 0x4AE56BAE GT PUSH2 0x135 JUMPI DUP1 PUSH4 0x4AE56BAE EQ PUSH2 0x272 JUMPI DUP1 PUSH4 0x515BC323 EQ PUSH2 0x292 JUMPI DUP1 PUSH4 0x5312EA8E EQ PUSH2 0x2A5 JUMPI DUP1 PUSH4 0x569C93D2 EQ PUSH2 0x2B8 JUMPI PUSH1 0x0 DUP1 REVERT JUMPDEST DUP1 PUSH4 0x409E00FC EQ PUSH2 0x244 JUMPI DUP1 PUSH4 0x441A3E70 EQ PUSH2 0x257 JUMPI DUP1 PUSH4 0x4AD7CE80 EQ PUSH2 0x26A JUMPI PUSH1 0x0 DUP1 REVERT JUMPDEST DUP1 PUSH4 0x2EA807C5 GT PUSH2 0x18C JUMPI DUP1 PUSH4 0x2EA807C5 EQ PUSH2 0x20B JUMPI DUP1 PUSH4 0x32215C42 EQ PUSH2 0x21E JUMPI DUP1 PUSH4 0x33824B87 EQ PUSH2 0x231 JUMPI PUSH1 0x0 DUP1 REVERT JUMPDEST DUP1 PUSH3 0xD74850 EQ PUSH2 0x1B2 JUMPI DUP1 PUSH4 0x10F7A6AF EQ PUSH2 0x1CE JUMPI DUP1 PUSH4 0x1D123131 EQ PUSH2 0x1F6 JUMPI JUMPDEST PUSH1 0x0 DUP1 REVERT JUMPDEST PUSH2 0x1BB PUSH1 0x5 SLOAD DUP2 JUMP JUMPDEST PUSH1 0x40 MLOAD SWAP1 DUP2 MSTORE PUSH1 0x20 ADD JUMPDEST PUSH1 0x40 MLOAD DUP1 SWAP2 SUB SWAP1 RETURN JUMPDEST PUSH2 0x1E1 PUSH2 0x1DC CALLDATASIZE PUSH1 0x4 PUSH2 0x2754 JUMP JUMPDEST PUSH2 0x45B JUMP JUMPDEST PUSH1 0x40 DUP1 MLOAD SWAP3 DUP4 MSTORE PUSH1 0x20 DUP4 ADD SWAP2 SWAP1 SWAP2 MSTORE ADD PUSH2 0x1C5 JUMP JUMPDEST PUSH2 0x209 PUSH2 0x204 CALLDATASIZE PUSH1 0x4 PUSH2 0x2776 JUMP JUMPDEST PUSH2 0x497 JUMP JUMPDEST STOP JUMPDEST PUSH2 0x209 PUSH2 0x219 CALLDATASIZE PUSH1 0x4 PUSH2 0x27AF JUMP JUMPDEST PUSH2 0x6B3 JUMP JUMPDEST PUSH2 0x1BB PUSH2 0x22C CALLDATASIZE PUSH1 0x4 PUSH2 0x270B JUMP JUMPDEST PUSH2 0xACE JUMP JUMPDEST PUSH2 0x209 PUSH2 0x23F CALLDATASIZE PUSH1 0x4 PUSH2 0x270B JUMP JUMPDEST PUSH2 0xAE0 JUMP JUMPDEST PUSH2 0x209 PUSH2 0x252 CALLDATASIZE PUSH1 0x4 PUSH2 0x26CA JUMP JUMPDEST PUSH2 0xB9D JUMP JUMPDEST PUSH2 0x209 PUSH2 0x265 CALLDATASIZE PUSH1 0x4 PUSH2 0x2754 JUMP JUMPDEST PUSH2 0xF34 JUMP JUMPDEST PUSH1 0x3 SLOAD PUSH2 0x1BB JUMP JUMPDEST PUSH2 0x1BB PUSH2 0x280 CALLDATASIZE PUSH1 0x4 PUSH2 0x270B JUMP JUMPDEST PUSH1 0x0 SWAP1 DUP2 MSTORE PUSH1 0x2 PUSH1 0x20 MSTORE PUSH1 0x40 SWAP1 KECCAK256 SLOAD SWAP1 JUMP JUMPDEST PUSH2 0x209 PUSH2 0x2A0 CALLDATASIZE PUSH1 0x4 PUSH2 0x27DB JUMP JUMPDEST PUSH2 0xFB8 JUMP JUMPDEST PUSH2 0x209 PUSH2 0x2B3 CALLDATASIZE PUSH1 0x4 PUSH2 0x270B JUMP JUMPDEST PUSH2 0x1117 JUMP JUMPDEST PUSH1 0x6 SLOAD PUSH2 0x2D8 SWAP1 PUSH20 0xFFFFFFFFFFFFFFFFFFFFFFFFFFFFFFFFFFFFFFFF AND DUP2 JUMP JUMPDEST PUSH1 0x40 MLOAD PUSH20 0xFFFFFFFFFFFFFFFFFFFFFFFFFFFFFFFFFFFFFFFF SWAP1 SWAP2 AND DUP2 MSTORE PUSH1 0x20 ADD PUSH2 0x1C5 JUMP JUMPDEST PUSH2 0x209 PUSH2 0x30B CALLDATASIZE PUSH1 0x4 PUSH2 0x2633 JUMP JUMPDEST PUSH2 0x125B JUMP JUMPDEST PUSH2 0x209 PUSH2 0x31E CALLDATASIZE PUSH1 0x4 PUSH2 0x2616 JUMP JUMPDEST PUSH2 0x1314 JUMP JUMPDEST PUSH2 0x209 PUSH2 0x1408 JUMP JUMPDEST PUSH2 0x1BB PUSH2 0x339 CALLDATASIZE PUSH1 0x4 PUSH2 0x27AF JUMP JUMPDEST PUSH2 0x1495 JUMP JUMPDEST PUSH1 0x0 SLOAD PUSH20 0xFFFFFFFFFFFFFFFFFFFFFFFFFFFFFFFFFFFFFFFF AND PUSH2 0x2D8 JUMP JUMPDEST PUSH2 0x1E1 PUSH2 0x36A CALLDATASIZE PUSH1 0x4 PUSH2 0x2724 JUMP JUMPDEST PUSH1 0x4 PUSH1 0x20 SWAP1 DUP2 MSTORE PUSH1 0x0 SWAP3 DUP4 MSTORE PUSH1 0x40 DUP1 DUP5 KECCAK256 SWAP1 SWAP2 MSTORE SWAP1 DUP3 MSTORE SWAP1 KECCAK256 DUP1 SLOAD PUSH1 0x1 SWAP1 SWAP2 ADD SLOAD DUP3 JUMP JUMPDEST PUSH2 0x1BB PUSH2 0x39C CALLDATASIZE PUSH1 0x4 PUSH2 0x2724 JUMP JUMPDEST PUSH2 0x14DE JUMP JUMPDEST PUSH2 0x1BB PUSH2 0x3AF CALLDATASIZE PUSH1 0x4 PUSH2 0x270B JUMP JUMPDEST PUSH2 0x1520 JUMP JUMPDEST PUSH2 0x3C7 PUSH2 0x3C2 CALLDATASIZE PUSH1 0x4 PUSH2 0x270B JUMP JUMPDEST PUSH2 0x152C JUMP JUMPDEST PUSH1 0x40 DUP1 MLOAD PUSH20 0xFFFFFFFFFFFFFFFFFFFFFFFFFFFFFFFFFFFFFFFF SWAP10 DUP11 AND DUP2 MSTORE SWAP9 SWAP1 SWAP8 AND PUSH1 0x20 DUP10 ADD MSTORE SWAP6 DUP8 ADD SWAP5 SWAP1 SWAP5 MSTORE PUSH1 0x60 DUP7 ADD SWAP3 SWAP1 SWAP3 MSTORE PUSH1 0x80 DUP6 ADD MSTORE PUSH1 0xA0 DUP5 ADD MSTORE PUSH1 0xC0 DUP4 ADD MSTORE PUSH1 0xE0 DUP3 ADD MSTORE PUSH2 0x100 ADD PUSH2 0x1C5 JUMP JUMPDEST PUSH2 0x209 PUSH2 0x428 CALLDATASIZE PUSH1 0x4 PUSH2 0x270B JUMP JUMPDEST PUSH2 0x159B JUMP JUMPDEST PUSH2 0x209 PUSH2 0x43B CALLDATASIZE PUSH1 0x4 PUSH2 0x2754 JUMP JUMPDEST PUSH2 0x161D JUMP JUMPDEST PUSH2 0x209 PUSH2 0x1699 JUMP JUMPDEST PUSH2 0x209 PUSH2 0x456 CALLDATASIZE PUSH1 0x4 PUSH2 0x2616 JUMP JUMPDEST PUSH2 0x1732 JUMP JUMPDEST PUSH1 0x2 PUSH1 0x20 MSTORE DUP2 PUSH1 0x0 MSTORE PUSH1 0x40 PUSH1 0x0 KECCAK256 DUP2 DUP2 SLOAD DUP2 LT PUSH2 0x477 JUMPI PUSH1 0x0 DUP1 REVERT JUMPDEST PUSH1 0x0 SWAP2 DUP3 MSTORE PUSH1 0x20 SWAP1 SWAP2 KECCAK256 PUSH1 0x2 SWAP1 SWAP2 MUL ADD DUP1 SLOAD PUSH1 0x1 SWAP1 SWAP2 ADD SLOAD SWAP1 SWAP3 POP SWAP1 POP DUP3 JUMP JUMPDEST PUSH1 0x0 SLOAD PUSH20 0xFFFFFFFFFFFFFFFFFFFFFFFFFFFFFFFFFFFFFFFF AND CALLER EQ PUSH2 0x51D JUMPI PUSH1 0x40 MLOAD PUSH32 0x8C379A000000000000000000000000000000000000000000000000000000000 DUP2 MSTORE PUSH1 0x20 PUSH1 0x4 DUP3 ADD DUP2 SWAP1 MSTORE PUSH1 0x24 DUP3 ADD MSTORE PUSH32 0x4F776E61626C653A2063616C6C6572206973206E6F7420746865206F776E6572 PUSH1 0x44 DUP3 ADD MSTORE PUSH1 0x64 ADD JUMPDEST PUSH1 0x40 MLOAD DUP1 SWAP2 SUB SWAP1 REVERT JUMPDEST PUSH1 0x2 PUSH1 0x1 SLOAD EQ ISZERO PUSH2 0x58A JUMPI PUSH1 0x40 MLOAD PUSH32 0x8C379A000000000000000000000000000000000000000000000000000000000 DUP2 MSTORE PUSH1 0x20 PUSH1 0x4 DUP3 ADD MSTORE PUSH1 0x1F PUSH1 0x24 DUP3 ADD MSTORE PUSH32 0x5265656E7472616E637947756172643A207265656E7472616E742063616C6C00 PUSH1 0x44 DUP3 ADD MSTORE PUSH1 0x64 ADD PUSH2 0x514 JUMP JUMPDEST PUSH1 0x2 PUSH1 0x1 DUP2 SWAP1 SSTORE POP PUSH1 0x0 PUSH1 0x3 DUP5 DUP2 SLOAD DUP2 LT PUSH2 0x5A7 JUMPI PUSH2 0x5A7 PUSH2 0x2ABC JUMP JUMPDEST SWAP1 PUSH1 0x0 MSTORE PUSH1 0x20 PUSH1 0x0 KECCAK256 SWAP1 PUSH1 0x8 MUL ADD SWAP1 POP PUSH1 0x0 PUSH2 0x5C9 DUP6 DUP4 PUSH1 0x6 ADD SLOAD PUSH1 0x0 PUSH2 0x1862 JUMP JUMPDEST PUSH1 0x7 DUP4 ADD SLOAD SWAP1 SWAP2 POP PUSH2 0x5DB DUP6 DUP4 PUSH2 0x2886 JUMP JUMPDEST GT ISZERO PUSH2 0x669 JUMPI PUSH1 0x40 MLOAD PUSH32 0x8C379A000000000000000000000000000000000000000000000000000000000 DUP2 MSTORE PUSH1 0x20 PUSH1 0x4 DUP3 ADD MSTORE PUSH1 0x30 PUSH1 0x24 DUP3 ADD MSTORE PUSH32 0x656D657267656E637952657761726457697468647261773A3A6E6F7420656E6F PUSH1 0x44 DUP3 ADD MSTORE PUSH32 0x7567682072657761726420746F6B656E00000000000000000000000000000000 PUSH1 0x64 DUP3 ADD MSTORE PUSH1 0x84 ADD PUSH2 0x514 JUMP JUMPDEST DUP4 DUP3 PUSH1 0x7 ADD PUSH1 0x0 DUP3 DUP3 SLOAD PUSH2 0x67D SWAP2 SWAP1 PUSH2 0x2A3D JUMP JUMPDEST SWAP1 SWAP2 SSTORE POP POP PUSH1 0x1 DUP3 ADD SLOAD PUSH2 0x6A8 SWAP1 PUSH20 0xFFFFFFFFFFFFFFFFFFFFFFFFFFFFFFFFFFFFFFFF AND DUP5 DUP7 PUSH2 0x1A8D JUMP JUMPDEST POP POP PUSH1 0x1 DUP1 SSTORE POP POP POP JUMP JUMPDEST PUSH1 0x0 SLOAD PUSH20 0xFFFFFFFFFFFFFFFFFFFFFFFFFFFFFFFFFFFFFFFF AND CALLER EQ PUSH2 0x734 JUMPI PUSH1 0x40 MLOAD PUSH32 0x8C379A000000000000000000000000000000000000000000000000000000000 DUP2 MSTORE PUSH1 0x20 PUSH1 0x4 DUP3 ADD DUP2 SWAP1 MSTORE PUSH1 0x24 DUP3 ADD MSTORE PUSH32 0x4F776E61626C653A2063616C6C6572206973206E6F7420746865206F776E6572 PUSH1 0x44 DUP3 ADD MSTORE PUSH1 0x64 ADD PUSH2 0x514 JUMP JUMPDEST PUSH1 0x0 DUP4 DUP2 MSTORE PUSH1 0x2 PUSH1 0x20 MSTORE PUSH1 0x40 DUP2 KECCAK256 PUSH1 0x3 DUP1 SLOAD SWAP2 SWAP3 SWAP2 DUP7 SWAP1 DUP2 LT PUSH2 0x759 JUMPI PUSH2 0x759 PUSH2 0x2ABC JUMP JUMPDEST SWAP1 PUSH1 0x0 MSTORE PUSH1 0x20 PUSH1 0x0 KECCAK256 SWAP1 PUSH1 0x8 MUL ADD SWAP1 POP PUSH1 0x5 SLOAD DUP3 DUP1 SLOAD SWAP1 POP LT PUSH2 0x7FE JUMPI PUSH1 0x40 MLOAD PUSH32 0x8C379A000000000000000000000000000000000000000000000000000000000 DUP2 MSTORE PUSH1 0x20 PUSH1 0x4 DUP3 ADD MSTORE PUSH1 0x33 PUSH1 0x24 DUP3 ADD MSTORE PUSH32 0x616464526577617264496E666F3A3A72657761726420696E666F206C656E6774 PUSH1 0x44 DUP3 ADD MSTORE PUSH32 0x68206578636565647320746865206C696D697400000000000000000000000000 PUSH1 0x64 DUP3 ADD MSTORE PUSH1 0x84 ADD PUSH2 0x514 JUMP JUMPDEST DUP2 SLOAD ISZERO DUP1 PUSH2 0x83E JUMPI POP DUP2 SLOAD TIMESTAMP SWAP1 DUP4 SWAP1 PUSH2 0x819 SWAP1 PUSH1 0x1 SWAP1 PUSH2 0x2A3D JUMP JUMPDEST DUP2 SLOAD DUP2 LT PUSH2 0x829 JUMPI PUSH2 0x829 PUSH2 0x2ABC JUMP JUMPDEST SWAP1 PUSH1 0x0 MSTORE PUSH1 0x20 PUSH1 0x0 KECCAK256 SWAP1 PUSH1 0x2 MUL ADD PUSH1 0x0 ADD SLOAD LT ISZERO JUMPDEST PUSH2 0x8CA JUMPI PUSH1 0x40 MLOAD PUSH32 0x8C379A000000000000000000000000000000000000000000000000000000000 DUP2 MSTORE PUSH1 0x20 PUSH1 0x4 DUP3 ADD MSTORE PUSH1 0x22 PUSH1 0x24 DUP3 ADD MSTORE PUSH32 0x616464526577617264496E666F3A3A72657761726420706572696F6420656E64 PUSH1 0x44 DUP3 ADD MSTORE PUSH32 0x6564000000000000000000000000000000000000000000000000000000000000 PUSH1 0x64 DUP3 ADD MSTORE PUSH1 0x84 ADD PUSH2 0x514 JUMP JUMPDEST DUP2 SLOAD ISZERO DUP1 PUSH2 0x909 JUMPI POP DUP2 SLOAD DUP5 SWAP1 DUP4 SWAP1 PUSH2 0x8E5 SWAP1 PUSH1 0x1 SWAP1 PUSH2 0x2A3D JUMP JUMPDEST DUP2 SLOAD DUP2 LT PUSH2 0x8F5 JUMPI PUSH2 0x8F5 PUSH2 0x2ABC JUMP JUMPDEST SWAP1 PUSH1 0x0 MSTORE PUSH1 0x20 PUSH1 0x0 KECCAK256 SWAP1 PUSH1 0x2 MUL ADD PUSH1 0x0 ADD SLOAD LT JUMPDEST PUSH2 0x995 JUMPI PUSH1 0x40 MLOAD PUSH32 0x8C379A000000000000000000000000000000000000000000000000000000000 DUP2 MSTORE PUSH1 0x20 PUSH1 0x4 DUP3 ADD MSTORE PUSH1 0x23 PUSH1 0x24 DUP3 ADD MSTORE PUSH32 0x616464526577617264496E666F3A3A626164206E657720656E6454696D657374 PUSH1 0x44 DUP3 ADD MSTORE PUSH32 0x616D700000000000000000000000000000000000000000000000000000000000 PUSH1 0x64 DUP3 ADD MSTORE PUSH1 0x84 ADD PUSH2 0x514 JUMP JUMPDEST DUP2 SLOAD PUSH1 0x0 SWAP1 ISZERO PUSH2 0x9D6 JUMPI DUP3 SLOAD DUP4 SWAP1 PUSH2 0x9AF SWAP1 PUSH1 0x1 SWAP1 PUSH2 0x2A3D JUMP JUMPDEST DUP2 SLOAD DUP2 LT PUSH2 0x9BF JUMPI PUSH2 0x9BF PUSH2 0x2ABC JUMP JUMPDEST SWAP1 PUSH1 0x0 MSTORE PUSH1 0x20 PUSH1 0x0 KECCAK256 SWAP1 PUSH1 0x2 MUL ADD PUSH1 0x0 ADD SLOAD PUSH2 0x9DC JUMP JUMPDEST DUP2 PUSH1 0x3 ADD SLOAD JUMPDEST SWAP1 POP PUSH1 0x0 PUSH2 0x9EA DUP3 DUP8 PUSH2 0x2A3D JUMP JUMPDEST SWAP1 POP PUSH1 0x0 PUSH2 0x9F8 DUP3 DUP8 PUSH2 0x2A00 JUMP JUMPDEST PUSH1 0x6 SLOAD PUSH1 0x1 DUP7 ADD SLOAD SWAP2 SWAP3 POP PUSH2 0xA28 SWAP2 PUSH20 0xFFFFFFFFFFFFFFFFFFFFFFFFFFFFFFFFFFFFFFFF SWAP1 DUP2 AND SWAP2 AND ADDRESS DUP5 PUSH2 0x1BFD JUMP JUMPDEST DUP1 DUP5 PUSH1 0x7 ADD PUSH1 0x0 DUP3 DUP3 SLOAD PUSH2 0xA3C SWAP2 SWAP1 PUSH2 0x2886 JUMP JUMPDEST SWAP1 SWAP2 SSTORE POP POP PUSH1 0x40 DUP1 MLOAD DUP1 DUP3 ADD SWAP1 SWAP2 MSTORE DUP8 DUP2 MSTORE PUSH1 0x20 DUP1 DUP3 ADD DUP9 DUP2 MSTORE DUP8 SLOAD PUSH1 0x1 DUP2 DUP2 ADD DUP11 SSTORE PUSH1 0x0 DUP11 DUP2 MSTORE SWAP4 SWAP1 SWAP4 KECCAK256 SWAP4 MLOAD PUSH1 0x2 SWAP1 SWAP2 MUL SWAP1 SWAP4 ADD SWAP3 DUP4 SSTORE MLOAD SWAP2 DUP2 ADD SWAP2 SWAP1 SWAP2 SSTORE DUP6 SLOAD PUSH2 0xA89 SWAP2 SWAP1 PUSH2 0x2A3D JUMP JUMPDEST PUSH1 0x40 DUP1 MLOAD DUP10 DUP2 MSTORE PUSH1 0x20 DUP2 ADD DUP10 SWAP1 MSTORE DUP11 SWAP2 PUSH32 0xAD90731BD0D97445F5AF66088F3ADEBF343C520C20E033CC42F93B124258CDC2 SWAP2 ADD PUSH1 0x40 MLOAD DUP1 SWAP2 SUB SWAP1 LOG3 POP POP POP POP POP POP POP POP JUMP JUMPDEST PUSH1 0x0 PUSH2 0xADA DUP3 TIMESTAMP PUSH2 0x1D76 JUMP JUMPDEST SWAP3 SWAP2 POP POP JUMP JUMPDEST PUSH1 0x0 SLOAD PUSH20 0xFFFFFFFFFFFFFFFFFFFFFFFFFFFFFFFFFFFFFFFF AND CALLER EQ PUSH2 0xB61 JUMPI PUSH1 0x40 MLOAD PUSH32 0x8C379A000000000000000000000000000000000000000000000000000000000 DUP2 MSTORE PUSH1 0x20 PUSH1 0x4 DUP3 ADD DUP2 SWAP1 MSTORE PUSH1 0x24 DUP3 ADD MSTORE PUSH32 0x4F776E61626C653A2063616C6C6572206973206E6F7420746865206F776E6572 PUSH1 0x44 DUP3 ADD MSTORE PUSH1 0x64 ADD PUSH2 0x514 JUMP JUMPDEST PUSH1 0x5 DUP2 SWAP1 SSTORE PUSH1 0x40 MLOAD DUP2 DUP2 MSTORE PUSH32 0xB64F58843E750A8BEA7135EF396CF0A7790BFC9A8F43F11AC0E0AACC1B5787BA SWAP1 PUSH1 0x20 ADD JUMPDEST PUSH1 0x40 MLOAD DUP1 SWAP2 SUB SWAP1 LOG1 POP JUMP JUMPDEST PUSH1 0x0 SLOAD PUSH20 0xFFFFFFFFFFFFFFFFFFFFFFFFFFFFFFFFFFFFFFFF AND CALLER EQ PUSH2 0xC1E JUMPI PUSH1 0x40 MLOAD PUSH32 0x8C379A000000000000000000000000000000000000000000000000000000000 DUP2 MSTORE PUSH1 0x20 PUSH1 0x4 DUP3 ADD DUP2 SWAP1 MSTORE PUSH1 0x24 DUP3 ADD MSTORE PUSH32 0x4F776E61626C653A2063616C6C6572206973206E6F7420746865206F776E6572 PUSH1 0x44 DUP3 ADD MSTORE PUSH1 0x64 ADD PUSH2 0x514 JUMP JUMPDEST PUSH1 0x0 PUSH2 0xC3F DUP4 PUSH20 0xFFFFFFFFFFFFFFFFFFFFFFFFFFFFFFFFFFFFFFFF AND PUSH2 0x1E71 JUMP JUMPDEST PUSH1 0xFF AND SWAP1 POP PUSH1 0x1E DUP2 LT PUSH2 0xCD4 JUMPI PUSH1 0x40 MLOAD PUSH32 0x8C379A000000000000000000000000000000000000000000000000000000000 DUP2 MSTORE PUSH1 0x20 PUSH1 0x4 DUP3 ADD MSTORE PUSH1 0x39 PUSH1 0x24 DUP3 ADD MSTORE PUSH32 0x636F6E7374727563746F723A2072657761726420746F6B656E20646563696D61 PUSH1 0x44 DUP3 ADD MSTORE PUSH32 0x6C73206D75737420626520696E666572696F7220746F20333000000000000000 PUSH1 0x64 DUP3 ADD MSTORE PUSH1 0x84 ADD PUSH2 0x514 JUMP JUMPDEST PUSH1 0x0 PUSH2 0xCE1 DUP3 PUSH1 0x1E PUSH2 0x2A3D JUMP JUMPDEST PUSH2 0xCEC SWAP1 PUSH1 0xA PUSH2 0x293A JUMP JUMPDEST PUSH1 0x40 DUP1 MLOAD PUSH2 0x100 DUP2 ADD DUP3 MSTORE PUSH20 0xFFFFFFFFFFFFFFFFFFFFFFFFFFFFFFFFFFFFFFFF DUP1 DUP10 AND DUP3 MSTORE DUP8 DUP2 AND PUSH1 0x20 DUP4 ADD SWAP1 DUP2 MSTORE SWAP3 DUP3 ADD DUP5 DUP2 MSTORE PUSH1 0x60 DUP4 ADD DUP9 DUP2 MSTORE PUSH1 0x80 DUP5 ADD DUP10 DUP2 MSTORE PUSH1 0x0 PUSH1 0xA0 DUP7 ADD DUP2 DUP2 MSTORE PUSH1 0xC0 DUP8 ADD DUP3 DUP2 MSTORE PUSH1 0xE0 DUP9 ADD DUP4 DUP2 MSTORE PUSH1 0x3 DUP1 SLOAD PUSH1 0x1 DUP2 DUP2 ADD DUP4 SSTORE SWAP6 DUP3 SWAP1 MSTORE SWAP10 MLOAD PUSH1 0x8 SWAP1 SWAP11 MUL PUSH32 0xC2575A0E9E593C00F959F8C92F12DB2869C3395A3B0502D05E2516446F71F85B DUP2 ADD DUP1 SLOAD SWAP12 DUP12 AND PUSH32 0xFFFFFFFFFFFFFFFFFFFFFFFF0000000000000000000000000000000000000000 SWAP13 DUP14 AND OR SWAP1 SSTORE SWAP11 MLOAD PUSH32 0xC2575A0E9E593C00F959F8C92F12DB2869C3395A3B0502D05E2516446F71F85C DUP13 ADD DUP1 SLOAD SWAP2 SWAP1 SWAP11 AND SWAP11 AND SWAP10 SWAP1 SWAP10 OR SWAP1 SWAP8 SSTORE SWAP5 MLOAD PUSH32 0xC2575A0E9E593C00F959F8C92F12DB2869C3395A3B0502D05E2516446F71F85D DUP10 ADD SSTORE SWAP3 MLOAD PUSH32 0xC2575A0E9E593C00F959F8C92F12DB2869C3395A3B0502D05E2516446F71F85E DUP9 ADD SSTORE SWAP1 MLOAD PUSH32 0xC2575A0E9E593C00F959F8C92F12DB2869C3395A3B0502D05E2516446F71F85F DUP8 ADD SSTORE SWAP1 MLOAD PUSH32 0xC2575A0E9E593C00F959F8C92F12DB2869C3395A3B0502D05E2516446F71F860 DUP7 ADD SSTORE SWAP1 MLOAD PUSH32 0xC2575A0E9E593C00F959F8C92F12DB2869C3395A3B0502D05E2516446F71F861 DUP6 ADD SSTORE SWAP1 MLOAD PUSH32 0xC2575A0E9E593C00F959F8C92F12DB2869C3395A3B0502D05E2516446F71F862 SWAP1 SWAP4 ADD SWAP3 SWAP1 SWAP3 SSTORE SLOAD SWAP2 SWAP3 POP PUSH2 0xED4 SWAP2 PUSH2 0x2A3D JUMP JUMPDEST PUSH1 0x40 DUP1 MLOAD PUSH20 0xFFFFFFFFFFFFFFFFFFFFFFFFFFFFFFFFFFFFFFFF DUP1 DUP10 AND DUP3 MSTORE DUP8 AND PUSH1 0x20 DUP3 ADD MSTORE SWAP1 DUP2 ADD DUP6 SWAP1 MSTORE PUSH32 0x9B2F18F9A188A5AEC4A95EE3164FE234DFBB6117628B2AD1A581939E61C69F4E SWAP1 PUSH1 0x60 ADD JUMPDEST PUSH1 0x40 MLOAD DUP1 SWAP2 SUB SWAP1 LOG2 POP POP POP POP POP JUMP JUMPDEST PUSH1 0x2 PUSH1 0x1 SLOAD EQ ISZERO PUSH2 0xFA1 JUMPI PUSH1 0x40 MLOAD PUSH32 0x8C379A000000000000000000000000000000000000000000000000000000000 DUP2 MSTORE PUSH1 0x20 PUSH1 0x4 DUP3 ADD MSTORE PUSH1 0x1F PUSH1 0x24 DUP3 ADD MSTORE PUSH32 0x5265656E7472616E637947756172643A207265656E7472616E742063616C6C00 PUSH1 0x44 DUP3 ADD MSTORE PUSH1 0x64 ADD PUSH2 0x514 JUMP JUMPDEST PUSH1 0x2 PUSH1 0x1 SSTORE PUSH2 0xFB0 DUP3 DUP3 PUSH2 0x1F6C JUMP JUMPDEST POP POP PUSH1 0x1 DUP1 SSTORE JUMP JUMPDEST PUSH1 0x2 PUSH1 0x1 SLOAD EQ ISZERO PUSH2 0x1025 JUMPI PUSH1 0x40 MLOAD PUSH32 0x8C379A000000000000000000000000000000000000000000000000000000000 DUP2 MSTORE PUSH1 0x20 PUSH1 0x4 DUP3 ADD MSTORE PUSH1 0x1F PUSH1 0x24 DUP3 ADD MSTORE PUSH32 0x5265656E7472616E637947756172643A207265656E7472616E742063616C6C00 PUSH1 0x44 DUP3 ADD MSTORE PUSH1 0x64 ADD PUSH2 0x514 JUMP JUMPDEST PUSH1 0x2 PUSH1 0x1 DUP2 SWAP1 SSTORE POP PUSH1 0x0 PUSH1 0x3 DUP8 DUP2 SLOAD DUP2 LT PUSH2 0x1042 JUMPI PUSH2 0x1042 PUSH2 0x2ABC JUMP JUMPDEST PUSH1 0x0 SWAP2 DUP3 MSTORE PUSH1 0x20 SWAP1 SWAP2 KECCAK256 PUSH1 0x8 SWAP1 SWAP2 MUL ADD DUP1 SLOAD PUSH1 0x40 MLOAD PUSH32 0xD505ACCF00000000000000000000000000000000000000000000000000000000 DUP2 MSTORE CALLER PUSH1 0x4 DUP3 ADD MSTORE ADDRESS PUSH1 0x24 DUP3 ADD MSTORE PUSH1 0x44 DUP2 ADD DUP10 SWAP1 MSTORE PUSH1 0x64 DUP2 ADD DUP9 SWAP1 MSTORE PUSH1 0xFF DUP8 AND PUSH1 0x84 DUP3 ADD MSTORE PUSH1 0xA4 DUP2 ADD DUP7 SWAP1 MSTORE PUSH1 0xC4 DUP2 ADD DUP6 SWAP1 MSTORE SWAP2 SWAP3 POP PUSH20 0xFFFFFFFFFFFFFFFFFFFFFFFFFFFFFFFFFFFFFFFF AND SWAP1 PUSH4 0xD505ACCF SWAP1 PUSH1 0xE4 ADD PUSH1 0x0 PUSH1 0x40 MLOAD DUP1 DUP4 SUB DUP2 PUSH1 0x0 DUP8 DUP1 EXTCODESIZE ISZERO DUP1 ISZERO PUSH2 0x10E8 JUMPI PUSH1 0x0 DUP1 REVERT JUMPDEST POP GAS CALL ISZERO DUP1 ISZERO PUSH2 0x10FC JUMPI RETURNDATASIZE PUSH1 0x0 DUP1 RETURNDATACOPY RETURNDATASIZE PUSH1 0x0 REVERT JUMPDEST POP POP POP POP PUSH2 0x110A DUP8 DUP8 PUSH2 0x2138 JUMP JUMPDEST POP POP PUSH1 0x1 DUP1 SSTORE POP POP POP POP POP JUMP JUMPDEST PUSH1 0x2 PUSH1 0x1 SLOAD EQ ISZERO PUSH2 0x1184 JUMPI PUSH1 0x40 MLOAD PUSH32 0x8C379A000000000000000000000000000000000000000000000000000000000 DUP2 MSTORE PUSH1 0x20 PUSH1 0x4 DUP3 ADD MSTORE PUSH1 0x1F PUSH1 0x24 DUP3 ADD MSTORE PUSH32 0x5265656E7472616E637947756172643A207265656E7472616E742063616C6C00 PUSH1 0x44 DUP3 ADD MSTORE PUSH1 0x64 ADD PUSH2 0x514 JUMP JUMPDEST PUSH1 0x2 PUSH1 0x1 DUP2 SWAP1 SSTORE POP PUSH1 0x0 PUSH1 0x3 DUP3 DUP2 SLOAD DUP2 LT PUSH2 0x11A1 JUMPI PUSH2 0x11A1 PUSH2 0x2ABC JUMP JUMPDEST PUSH1 0x0 SWAP2 DUP3 MSTORE PUSH1 0x20 DUP1 DUP4 KECCAK256 DUP6 DUP5 MSTORE PUSH1 0x4 DUP3 MSTORE PUSH1 0x40 DUP1 DUP6 KECCAK256 CALLER DUP7 MSTORE SWAP1 SWAP3 MSTORE SWAP1 DUP4 KECCAK256 DUP1 SLOAD PUSH1 0x8 SWAP4 SWAP1 SWAP4 MUL SWAP1 SWAP2 ADD PUSH1 0x6 DUP2 ADD DUP1 SLOAD SWAP2 SWAP6 POP SWAP2 SWAP4 DUP4 SWAP3 SWAP2 PUSH2 0x11E4 SWAP1 DUP5 SWAP1 PUSH2 0x2A3D JUMP JUMPDEST SWAP1 SWAP2 SSTORE POP POP PUSH1 0x0 DUP1 DUP4 SSTORE PUSH1 0x1 DUP4 ADD SSTORE DUP3 SLOAD PUSH2 0x1216 SWAP1 PUSH20 0xFFFFFFFFFFFFFFFFFFFFFFFFFFFFFFFFFFFFFFFF AND CALLER DUP4 PUSH2 0x1A8D JUMP JUMPDEST PUSH1 0x40 DUP1 MLOAD DUP3 DUP2 MSTORE PUSH1 0x20 DUP2 ADD DUP7 SWAP1 MSTORE CALLER SWAP2 PUSH32 0xBB757047C2B5F3974FE26B7C10F732E7BCE710B0952A71082702781E62AE0595 SWAP2 ADD PUSH1 0x40 MLOAD DUP1 SWAP2 SUB SWAP1 LOG2 POP POP PUSH1 0x1 DUP1 SSTORE POP POP JUMP JUMPDEST PUSH1 0x2 PUSH1 0x1 SLOAD EQ ISZERO PUSH2 0x12C8 JUMPI PUSH1 0x40 MLOAD PUSH32 0x8C379A000000000000000000000000000000000000000000000000000000000 DUP2 MSTORE PUSH1 0x20 PUSH1 0x4 DUP3 ADD MSTORE PUSH1 0x1F PUSH1 0x24 DUP3 ADD MSTORE PUSH32 0x5265656E7472616E637947756172643A207265656E7472616E742063616C6C00 PUSH1 0x44 DUP3 ADD MSTORE PUSH1 0x64 ADD PUSH2 0x514 JUMP JUMPDEST PUSH1 0x2 PUSH1 0x1 SSTORE PUSH1 0x0 JUMPDEST DUP2 DUP2 LT ISZERO PUSH2 0x130B JUMPI PUSH2 0x12FB DUP4 DUP4 DUP4 DUP2 DUP2 LT PUSH2 0x12ED JUMPI PUSH2 0x12ED PUSH2 0x2ABC JUMP JUMPDEST SWAP1 POP PUSH1 0x20 MUL ADD CALLDATALOAD PUSH1 0x0 PUSH2 0x1F6C JUMP JUMPDEST PUSH2 0x1304 DUP2 PUSH2 0x2A54 JUMP JUMPDEST SWAP1 POP PUSH2 0x12D0 JUMP JUMPDEST POP POP PUSH1 0x1 DUP1 SSTORE POP JUMP JUMPDEST PUSH1 0x0 SLOAD PUSH20 0xFFFFFFFFFFFFFFFFFFFFFFFFFFFFFFFFFFFFFFFF AND CALLER EQ PUSH2 0x1395 JUMPI PUSH1 0x40 MLOAD PUSH32 0x8C379A000000000000000000000000000000000000000000000000000000000 DUP2 MSTORE PUSH1 0x20 PUSH1 0x4 DUP3 ADD DUP2 SWAP1 MSTORE PUSH1 0x24 DUP3 ADD MSTORE PUSH32 0x4F776E61626C653A2063616C6C6572206973206E6F7420746865206F776E6572 PUSH1 0x44 DUP3 ADD MSTORE PUSH1 0x64 ADD PUSH2 0x514 JUMP JUMPDEST PUSH1 0x6 DUP1 SLOAD PUSH32 0xFFFFFFFFFFFFFFFFFFFFFFFF0000000000000000000000000000000000000000 AND PUSH20 0xFFFFFFFFFFFFFFFFFFFFFFFFFFFFFFFFFFFFFFFF DUP4 AND SWAP1 DUP2 OR SWAP1 SWAP2 SSTORE PUSH1 0x40 MLOAD SWAP1 DUP2 MSTORE PUSH32 0x860DA714D66641E1BB8025E657AA279EC5BBE56385E52A9EE03A12718E5600CB SWAP1 PUSH1 0x20 ADD PUSH2 0xB92 JUMP JUMPDEST PUSH1 0x0 SLOAD PUSH20 0xFFFFFFFFFFFFFFFFFFFFFFFFFFFFFFFFFFFFFFFF AND CALLER EQ PUSH2 0x1489 JUMPI PUSH1 0x40 MLOAD PUSH32 0x8C379A000000000000000000000000000000000000000000000000000000000 DUP2 MSTORE PUSH1 0x20 PUSH1 0x4 DUP3 ADD DUP2 SWAP1 MSTORE PUSH1 0x24 DUP3 ADD MSTORE PUSH32 0x4F776E61626C653A2063616C6C6572206973206E6F7420746865206F776E6572 PUSH1 0x44 DUP3 ADD MSTORE PUSH1 0x64 ADD PUSH2 0x514 JUMP JUMPDEST PUSH2 0x1493 PUSH1 0x0 PUSH2 0x22AE JUMP JUMPDEST JUMP JUMPDEST PUSH1 0x0 DUP2 DUP5 LT ISZERO DUP1 PUSH2 0x14A5 JUMPI POP DUP3 DUP5 GT JUMPDEST ISZERO PUSH2 0x14B2 JUMPI POP PUSH1 0x0 PUSH2 0x14D7 JUMP JUMPDEST DUP2 DUP4 GT PUSH2 0x14CA JUMPI PUSH2 0x14C3 DUP5 DUP5 PUSH2 0x2A3D JUMP JUMPDEST SWAP1 POP PUSH2 0x14D7 JUMP JUMPDEST PUSH2 0x14D4 DUP5 DUP4 PUSH2 0x2A3D JUMP JUMPDEST SWAP1 POP JUMPDEST SWAP4 SWAP3 POP POP POP JUMP JUMPDEST PUSH1 0x0 DUP3 DUP2 MSTORE PUSH1 0x4 PUSH1 0x20 SWAP1 DUP2 MSTORE PUSH1 0x40 DUP1 DUP4 KECCAK256 PUSH20 0xFFFFFFFFFFFFFFFFFFFFFFFFFFFFFFFFFFFFFFFF DUP6 AND DUP5 MSTORE SWAP1 SWAP2 MSTORE DUP2 KECCAK256 DUP1 SLOAD PUSH1 0x1 SWAP1 SWAP2 ADD SLOAD PUSH2 0x14D7 SWAP2 DUP6 SWAP2 PUSH2 0x1862 JUMP JUMPDEST PUSH1 0x0 PUSH2 0xADA DUP3 TIMESTAMP PUSH2 0x2323 JUMP JUMPDEST PUSH1 0x3 DUP2 DUP2 SLOAD DUP2 LT PUSH2 0x153C JUMPI PUSH1 0x0 DUP1 REVERT JUMPDEST PUSH1 0x0 SWAP2 DUP3 MSTORE PUSH1 0x20 SWAP1 SWAP2 KECCAK256 PUSH1 0x8 SWAP1 SWAP2 MUL ADD DUP1 SLOAD PUSH1 0x1 DUP3 ADD SLOAD PUSH1 0x2 DUP4 ADD SLOAD PUSH1 0x3 DUP5 ADD SLOAD PUSH1 0x4 DUP6 ADD SLOAD PUSH1 0x5 DUP7 ADD SLOAD PUSH1 0x6 DUP8 ADD SLOAD PUSH1 0x7 SWAP1 SWAP8 ADD SLOAD PUSH20 0xFFFFFFFFFFFFFFFFFFFFFFFFFFFFFFFFFFFFFFFF SWAP7 DUP8 AND SWAP9 POP SWAP5 SWAP1 SWAP6 AND SWAP6 SWAP3 SWAP5 SWAP2 SWAP4 SWAP1 SWAP3 SWAP1 DUP9 JUMP JUMPDEST PUSH1 0x2 PUSH1 0x1 SLOAD EQ ISZERO PUSH2 0x1608 JUMPI PUSH1 0x40 MLOAD PUSH32 0x8C379A000000000000000000000000000000000000000000000000000000000 DUP2 MSTORE PUSH1 0x20 PUSH1 0x4 DUP3 ADD MSTORE PUSH1 0x1F PUSH1 0x24 DUP3 ADD MSTORE PUSH32 0x5265656E7472616E637947756172643A207265656E7472616E742063616C6C00 PUSH1 0x44 DUP3 ADD MSTORE PUSH1 0x64 ADD PUSH2 0x514 JUMP JUMPDEST PUSH1 0x2 PUSH1 0x1 SSTORE PUSH2 0x1616 DUP2 PUSH2 0x2445 JUMP JUMPDEST POP PUSH1 0x1 DUP1 SSTORE JUMP JUMPDEST PUSH1 0x2 PUSH1 0x1 SLOAD EQ ISZERO PUSH2 0x168A JUMPI PUSH1 0x40 MLOAD PUSH32 0x8C379A000000000000000000000000000000000000000000000000000000000 DUP2 MSTORE PUSH1 0x20 PUSH1 0x4 DUP3 ADD MSTORE PUSH1 0x1F PUSH1 0x24 DUP3 ADD MSTORE PUSH32 0x5265656E7472616E637947756172643A207265656E7472616E742063616C6C00 PUSH1 0x44 DUP3 ADD MSTORE PUSH1 0x64 ADD PUSH2 0x514 JUMP JUMPDEST PUSH1 0x2 PUSH1 0x1 SSTORE PUSH2 0xFB0 DUP3 DUP3 PUSH2 0x2138 JUMP JUMPDEST PUSH1 0x2 PUSH1 0x1 SLOAD EQ ISZERO PUSH2 0x1706 JUMPI PUSH1 0x40 MLOAD PUSH32 0x8C379A000000000000000000000000000000000000000000000000000000000 DUP2 MSTORE PUSH1 0x20 PUSH1 0x4 DUP3 ADD MSTORE PUSH1 0x1F PUSH1 0x24 DUP3 ADD MSTORE PUSH32 0x5265656E7472616E637947756172643A207265656E7472616E742063616C6C00 PUSH1 0x44 DUP3 ADD MSTORE PUSH1 0x64 ADD PUSH2 0x514 JUMP JUMPDEST PUSH1 0x2 PUSH1 0x1 SSTORE PUSH1 0x3 SLOAD PUSH1 0x0 JUMPDEST DUP2 DUP2 LT ISZERO PUSH2 0xFB0 JUMPI PUSH2 0x1722 DUP2 PUSH2 0x2445 JUMP JUMPDEST PUSH2 0x172B DUP2 PUSH2 0x2A54 JUMP JUMPDEST SWAP1 POP PUSH2 0x1711 JUMP JUMPDEST PUSH1 0x0 SLOAD PUSH20 0xFFFFFFFFFFFFFFFFFFFFFFFFFFFFFFFFFFFFFFFF AND CALLER EQ PUSH2 0x17B3 JUMPI PUSH1 0x40 MLOAD PUSH32 0x8C379A000000000000000000000000000000000000000000000000000000000 DUP2 MSTORE PUSH1 0x20 PUSH1 0x4 DUP3 ADD DUP2 SWAP1 MSTORE PUSH1 0x24 DUP3 ADD MSTORE PUSH32 0x4F776E61626C653A2063616C6C6572206973206E6F7420746865206F776E6572 PUSH1 0x44 DUP3 ADD MSTORE PUSH1 0x64 ADD PUSH2 0x514 JUMP JUMPDEST PUSH20 0xFFFFFFFFFFFFFFFFFFFFFFFFFFFFFFFFFFFFFFFF DUP2 AND PUSH2 0x1856 JUMPI PUSH1 0x40 MLOAD PUSH32 0x8C379A000000000000000000000000000000000000000000000000000000000 DUP2 MSTORE PUSH1 0x20 PUSH1 0x4 DUP3 ADD MSTORE PUSH1 0x26 PUSH1 0x24 DUP3 ADD MSTORE PUSH32 0x4F776E61626C653A206E6577206F776E657220697320746865207A65726F2061 PUSH1 0x44 DUP3 ADD MSTORE PUSH32 0x6464726573730000000000000000000000000000000000000000000000000000 PUSH1 0x64 DUP3 ADD MSTORE PUSH1 0x84 ADD PUSH2 0x514 JUMP JUMPDEST PUSH2 0x185F DUP2 PUSH2 0x22AE JUMP JUMPDEST POP JUMP JUMPDEST PUSH1 0x0 DUP1 PUSH1 0x3 DUP6 DUP2 SLOAD DUP2 LT PUSH2 0x1878 JUMPI PUSH2 0x1878 PUSH2 0x2ABC JUMP JUMPDEST PUSH1 0x0 SWAP2 DUP3 MSTORE PUSH1 0x20 DUP1 DUP4 KECCAK256 PUSH1 0x40 DUP1 MLOAD PUSH2 0x100 DUP2 ADD DUP3 MSTORE PUSH1 0x8 SWAP1 SWAP5 MUL SWAP1 SWAP2 ADD DUP1 SLOAD PUSH20 0xFFFFFFFFFFFFFFFFFFFFFFFFFFFFFFFFFFFFFFFF SWAP1 DUP2 AND DUP6 MSTORE PUSH1 0x1 DUP3 ADD SLOAD AND DUP5 DUP5 ADD MSTORE PUSH1 0x2 DUP1 DUP3 ADD SLOAD DUP6 DUP5 ADD MSTORE PUSH1 0x3 DUP3 ADD SLOAD PUSH1 0x60 DUP7 ADD MSTORE PUSH1 0x4 DUP3 ADD SLOAD PUSH1 0x80 DUP7 ADD MSTORE PUSH1 0x5 DUP3 ADD SLOAD PUSH1 0xA0 DUP7 ADD MSTORE PUSH1 0x6 DUP3 ADD SLOAD PUSH1 0xC0 DUP7 ADD MSTORE PUSH1 0x7 SWAP1 SWAP2 ADD SLOAD PUSH1 0xE0 DUP6 ADD MSTORE DUP10 DUP6 MSTORE DUP3 MSTORE DUP1 DUP5 KECCAK256 DUP1 SLOAD DUP3 MLOAD DUP2 DUP6 MUL DUP2 ADD DUP6 ADD SWAP1 SWAP4 MSTORE DUP1 DUP4 MSTORE SWAP4 SWAP6 POP SWAP1 SWAP3 SWAP1 SWAP2 DUP5 SWAP1 DUP5 ADD JUMPDEST DUP3 DUP3 LT ISZERO PUSH2 0x1963 JUMPI DUP4 DUP3 SWAP1 PUSH1 0x0 MSTORE PUSH1 0x20 PUSH1 0x0 KECCAK256 SWAP1 PUSH1 0x2 MUL ADD PUSH1 0x40 MLOAD DUP1 PUSH1 0x40 ADD PUSH1 0x40 MSTORE SWAP1 DUP2 PUSH1 0x0 DUP3 ADD SLOAD DUP2 MSTORE PUSH1 0x20 ADD PUSH1 0x1 DUP3 ADD SLOAD DUP2 MSTORE POP POP DUP2 MSTORE PUSH1 0x20 ADD SWAP1 PUSH1 0x1 ADD SWAP1 PUSH2 0x191D JUMP JUMPDEST POP POP POP POP SWAP1 POP PUSH1 0x0 DUP3 PUSH1 0xA0 ADD MLOAD SWAP1 POP DUP3 PUSH1 0x80 ADD MLOAD TIMESTAMP GT DUP1 ISZERO PUSH2 0x1988 JUMPI POP PUSH1 0xC0 DUP4 ADD MLOAD ISZERO ISZERO JUMPDEST ISZERO PUSH2 0x1A5D JUMPI PUSH1 0x80 DUP4 ADD MLOAD PUSH1 0x0 JUMPDEST DUP4 MLOAD DUP2 LT ISZERO PUSH2 0x1A5A JUMPI PUSH1 0x0 PUSH2 0x19C8 DUP4 TIMESTAMP DUP8 DUP6 DUP2 MLOAD DUP2 LT PUSH2 0x19B7 JUMPI PUSH2 0x19B7 PUSH2 0x2ABC JUMP JUMPDEST PUSH1 0x20 MUL PUSH1 0x20 ADD ADD MLOAD PUSH1 0x0 ADD MLOAD PUSH2 0x1495 JUMP JUMPDEST SWAP1 POP DUP1 PUSH2 0x19D5 JUMPI POP PUSH2 0x1A4A JUMP JUMPDEST DUP5 DUP3 DUP2 MLOAD DUP2 LT PUSH2 0x19E7 JUMPI PUSH2 0x19E7 PUSH2 0x2ABC JUMP JUMPDEST PUSH1 0x20 MUL PUSH1 0x20 ADD ADD MLOAD PUSH1 0x0 ADD MLOAD SWAP3 POP DUP6 PUSH1 0xC0 ADD MLOAD DUP7 PUSH1 0x40 ADD MLOAD DUP7 DUP5 DUP2 MLOAD DUP2 LT PUSH2 0x1A11 JUMPI PUSH2 0x1A11 PUSH2 0x2ABC JUMP JUMPDEST PUSH1 0x20 MUL PUSH1 0x20 ADD ADD MLOAD PUSH1 0x20 ADD MLOAD DUP4 PUSH2 0x1A28 SWAP2 SWAP1 PUSH2 0x2A00 JUMP JUMPDEST PUSH2 0x1A32 SWAP2 SWAP1 PUSH2 0x2A00 JUMP JUMPDEST PUSH2 0x1A3C SWAP2 SWAP1 PUSH2 0x289E JUMP JUMPDEST PUSH2 0x1A46 SWAP1 DUP6 PUSH2 0x2886 JUMP JUMPDEST SWAP4 POP POP JUMPDEST PUSH2 0x1A53 DUP2 PUSH2 0x2A54 JUMP JUMPDEST SWAP1 POP PUSH2 0x1995 JUMP JUMPDEST POP POP JUMPDEST PUSH1 0x40 DUP4 ADD MLOAD DUP6 SWAP1 PUSH2 0x1A6E DUP4 DUP10 PUSH2 0x2A00 JUMP JUMPDEST PUSH2 0x1A78 SWAP2 SWAP1 PUSH2 0x289E JUMP JUMPDEST PUSH2 0x1A82 SWAP2 SWAP1 PUSH2 0x2A3D JUMP JUMPDEST SWAP8 SWAP7 POP POP POP POP POP POP POP JUMP JUMPDEST PUSH1 0x40 DUP1 MLOAD PUSH20 0xFFFFFFFFFFFFFFFFFFFFFFFFFFFFFFFFFFFFFFFF DUP5 DUP2 AND PUSH1 0x24 DUP4 ADD MSTORE PUSH1 0x44 DUP1 DUP4 ADD DUP6 SWAP1 MSTORE DUP4 MLOAD DUP1 DUP5 SUB SWAP1 SWAP2 ADD DUP2 MSTORE PUSH1 0x64 SWAP1 SWAP3 ADD DUP4 MSTORE PUSH1 0x20 DUP3 ADD DUP1 MLOAD PUSH28 0xFFFFFFFFFFFFFFFFFFFFFFFFFFFFFFFFFFFFFFFFFFFFFFFFFFFFFFFF AND PUSH32 0xA9059CBB00000000000000000000000000000000000000000000000000000000 OR SWAP1 MSTORE SWAP2 MLOAD PUSH1 0x0 SWAP3 DUP4 SWAP3 SWAP1 DUP8 AND SWAP2 PUSH2 0x1B24 SWAP2 SWAP1 PUSH2 0x284B JUMP JUMPDEST PUSH1 0x0 PUSH1 0x40 MLOAD DUP1 DUP4 SUB DUP2 PUSH1 0x0 DUP7 GAS CALL SWAP2 POP POP RETURNDATASIZE DUP1 PUSH1 0x0 DUP2 EQ PUSH2 0x1B61 JUMPI PUSH1 0x40 MLOAD SWAP2 POP PUSH1 0x1F NOT PUSH1 0x3F RETURNDATASIZE ADD AND DUP3 ADD PUSH1 0x40 MSTORE RETURNDATASIZE DUP3 MSTORE RETURNDATASIZE PUSH1 0x0 PUSH1 0x20 DUP5 ADD RETURNDATACOPY PUSH2 0x1B66 JUMP JUMPDEST PUSH1 0x60 SWAP2 POP JUMPDEST POP SWAP2 POP SWAP2 POP DUP2 DUP1 ISZERO PUSH2 0x1B90 JUMPI POP DUP1 MLOAD ISZERO DUP1 PUSH2 0x1B90 JUMPI POP DUP1 DUP1 PUSH1 0x20 ADD SWAP1 MLOAD DUP2 ADD SWAP1 PUSH2 0x1B90 SWAP2 SWAP1 PUSH2 0x26A8 JUMP JUMPDEST PUSH2 0x1BF6 JUMPI PUSH1 0x40 MLOAD PUSH32 0x8C379A000000000000000000000000000000000000000000000000000000000 DUP2 MSTORE PUSH1 0x20 PUSH1 0x4 DUP3 ADD MSTORE PUSH1 0x1C PUSH1 0x24 DUP3 ADD MSTORE PUSH32 0x426F72696E6745524332303A205472616E73666572206661696C656400000000 PUSH1 0x44 DUP3 ADD MSTORE PUSH1 0x64 ADD PUSH2 0x514 JUMP JUMPDEST POP POP POP POP POP JUMP JUMPDEST PUSH1 0x40 DUP1 MLOAD PUSH20 0xFFFFFFFFFFFFFFFFFFFFFFFFFFFFFFFFFFFFFFFF DUP6 DUP2 AND PUSH1 0x24 DUP4 ADD MSTORE DUP5 DUP2 AND PUSH1 0x44 DUP4 ADD MSTORE PUSH1 0x64 DUP1 DUP4 ADD DUP6 SWAP1 MSTORE DUP4 MLOAD DUP1 DUP5 SUB SWAP1 SWAP2 ADD DUP2 MSTORE PUSH1 0x84 SWAP1 SWAP3 ADD DUP4 MSTORE PUSH1 0x20 DUP3 ADD DUP1 MLOAD PUSH28 0xFFFFFFFFFFFFFFFFFFFFFFFFFFFFFFFFFFFFFFFFFFFFFFFFFFFFFFFF AND PUSH32 0x23B872DD00000000000000000000000000000000000000000000000000000000 OR SWAP1 MSTORE SWAP2 MLOAD PUSH1 0x0 SWAP3 DUP4 SWAP3 SWAP1 DUP9 AND SWAP2 PUSH2 0x1C9C SWAP2 SWAP1 PUSH2 0x284B JUMP JUMPDEST PUSH1 0x0 PUSH1 0x40 MLOAD DUP1 DUP4 SUB DUP2 PUSH1 0x0 DUP7 GAS CALL SWAP2 POP POP RETURNDATASIZE DUP1 PUSH1 0x0 DUP2 EQ PUSH2 0x1CD9 JUMPI PUSH1 0x40 MLOAD SWAP2 POP PUSH1 0x1F NOT PUSH1 0x3F RETURNDATASIZE ADD AND DUP3 ADD PUSH1 0x40 MSTORE RETURNDATASIZE DUP3 MSTORE RETURNDATASIZE PUSH1 0x0 PUSH1 0x20 DUP5 ADD RETURNDATACOPY PUSH2 0x1CDE JUMP JUMPDEST PUSH1 0x60 SWAP2 POP JUMPDEST POP SWAP2 POP SWAP2 POP DUP2 DUP1 ISZERO PUSH2 0x1D08 JUMPI POP DUP1 MLOAD ISZERO DUP1 PUSH2 0x1D08 JUMPI POP DUP1 DUP1 PUSH1 0x20 ADD SWAP1 MLOAD DUP2 ADD SWAP1 PUSH2 0x1D08 SWAP2 SWAP1 PUSH2 0x26A8 JUMP JUMPDEST PUSH2 0x1D6E JUMPI PUSH1 0x40 MLOAD PUSH32 0x8C379A000000000000000000000000000000000000000000000000000000000 DUP2 MSTORE PUSH1 0x20 PUSH1 0x4 DUP3 ADD DUP2 SWAP1 MSTORE PUSH1 0x24 DUP3 ADD MSTORE PUSH32 0x426F72696E6745524332303A205472616E7366657246726F6D206661696C6564 PUSH1 0x44 DUP3 ADD MSTORE PUSH1 0x64 ADD PUSH2 0x514 JUMP JUMPDEST POP POP POP POP POP POP JUMP JUMPDEST PUSH1 0x0 DUP3 DUP2 MSTORE PUSH1 0x2 PUSH1 0x20 SWAP1 DUP2 MSTORE PUSH1 0x40 DUP1 DUP4 KECCAK256 DUP1 SLOAD DUP3 MLOAD DUP2 DUP6 MUL DUP2 ADD DUP6 ADD SWAP1 SWAP4 MSTORE DUP1 DUP4 MSTORE DUP5 SWAP4 DUP5 SWAP1 DUP5 ADD JUMPDEST DUP3 DUP3 LT ISZERO PUSH2 0x1DE5 JUMPI DUP4 DUP3 SWAP1 PUSH1 0x0 MSTORE PUSH1 0x20 PUSH1 0x0 KECCAK256 SWAP1 PUSH1 0x2 MUL ADD PUSH1 0x40 MLOAD DUP1 PUSH1 0x40 ADD PUSH1 0x40 MSTORE SWAP1 DUP2 PUSH1 0x0 DUP3 ADD SLOAD DUP2 MSTORE PUSH1 0x20 ADD PUSH1 0x1 DUP3 ADD SLOAD DUP2 MSTORE POP POP DUP2 MSTORE PUSH1 0x20 ADD SWAP1 PUSH1 0x1 ADD SWAP1 PUSH2 0x1D9F JUMP JUMPDEST POP POP DUP3 MLOAD SWAP3 SWAP4 POP POP POP DUP1 PUSH2 0x1DFE JUMPI PUSH1 0x0 SWAP3 POP POP POP PUSH2 0xADA JUMP JUMPDEST PUSH1 0x0 JUMPDEST DUP2 DUP2 LT ISZERO PUSH2 0x1E65 JUMPI DUP3 DUP2 DUP2 MLOAD DUP2 LT PUSH2 0x1E1B JUMPI PUSH2 0x1E1B PUSH2 0x2ABC JUMP JUMPDEST PUSH1 0x20 MUL PUSH1 0x20 ADD ADD MLOAD PUSH1 0x0 ADD MLOAD DUP6 GT PUSH2 0x1E55 JUMPI DUP3 DUP2 DUP2 MLOAD DUP2 LT PUSH2 0x1E3F JUMPI PUSH2 0x1E3F PUSH2 0x2ABC JUMP JUMPDEST PUSH1 0x20 MUL PUSH1 0x20 ADD ADD MLOAD PUSH1 0x20 ADD MLOAD SWAP4 POP POP POP POP PUSH2 0xADA JUMP JUMPDEST PUSH2 0x1E5E DUP2 PUSH2 0x2A54 JUMP JUMPDEST SWAP1 POP PUSH2 0x1E01 JUMP JUMPDEST POP PUSH1 0x0 SWAP6 SWAP5 POP POP POP POP POP JUMP JUMPDEST PUSH1 0x40 DUP1 MLOAD PUSH1 0x4 DUP2 MSTORE PUSH1 0x24 DUP2 ADD DUP3 MSTORE PUSH1 0x20 DUP2 ADD DUP1 MLOAD PUSH28 0xFFFFFFFFFFFFFFFFFFFFFFFFFFFFFFFFFFFFFFFFFFFFFFFFFFFFFFFF AND PUSH32 0x313CE56700000000000000000000000000000000000000000000000000000000 OR SWAP1 MSTORE SWAP1 MLOAD PUSH1 0x0 SWAP2 DUP3 SWAP2 DUP3 SWAP2 PUSH20 0xFFFFFFFFFFFFFFFFFFFFFFFFFFFFFFFFFFFFFFFF DUP7 AND SWAP2 PUSH2 0x1EF2 SWAP2 SWAP1 PUSH2 0x284B JUMP JUMPDEST PUSH1 0x0 PUSH1 0x40 MLOAD DUP1 DUP4 SUB DUP2 DUP6 GAS STATICCALL SWAP2 POP POP RETURNDATASIZE DUP1 PUSH1 0x0 DUP2 EQ PUSH2 0x1F2D JUMPI PUSH1 0x40 MLOAD SWAP2 POP PUSH1 0x1F NOT PUSH1 0x3F RETURNDATASIZE ADD AND DUP3 ADD PUSH1 0x40 MSTORE RETURNDATASIZE DUP3 MSTORE RETURNDATASIZE PUSH1 0x0 PUSH1 0x20 DUP5 ADD RETURNDATACOPY PUSH2 0x1F32 JUMP JUMPDEST PUSH1 0x60 SWAP2 POP JUMPDEST POP SWAP2 POP SWAP2 POP DUP2 DUP1 ISZERO PUSH2 0x1F45 JUMPI POP DUP1 MLOAD PUSH1 0x20 EQ JUMPDEST PUSH2 0x1F50 JUMPI PUSH1 0x12 PUSH2 0x1F64 JUMP JUMPDEST DUP1 DUP1 PUSH1 0x20 ADD SWAP1 MLOAD DUP2 ADD SWAP1 PUSH2 0x1F64 SWAP2 SWAP1 PUSH2 0x282E JUMP JUMPDEST SWAP5 SWAP4 POP POP POP POP JUMP JUMPDEST PUSH1 0x0 PUSH1 0x3 DUP4 DUP2 SLOAD DUP2 LT PUSH2 0x1F81 JUMPI PUSH2 0x1F81 PUSH2 0x2ABC JUMP JUMPDEST PUSH1 0x0 SWAP2 DUP3 MSTORE PUSH1 0x20 DUP1 DUP4 KECCAK256 DUP7 DUP5 MSTORE PUSH1 0x4 DUP3 MSTORE PUSH1 0x40 DUP1 DUP6 KECCAK256 CALLER DUP7 MSTORE SWAP1 SWAP3 MSTORE SWAP3 KECCAK256 DUP1 SLOAD PUSH1 0x8 SWAP1 SWAP3 MUL SWAP1 SWAP3 ADD SWAP3 POP DUP4 GT ISZERO PUSH2 0x2014 JUMPI PUSH1 0x40 MLOAD PUSH32 0x8C379A000000000000000000000000000000000000000000000000000000000 DUP2 MSTORE PUSH1 0x20 PUSH1 0x4 DUP3 ADD MSTORE PUSH1 0x1D PUSH1 0x24 DUP3 ADD MSTORE PUSH32 0x77697468647261773A3A62616420776974686472617720616D6F756E74000000 PUSH1 0x44 DUP3 ADD MSTORE PUSH1 0x64 ADD PUSH2 0x514 JUMP JUMPDEST PUSH2 0x201D DUP5 PUSH2 0x2445 JUMP JUMPDEST PUSH1 0x0 DUP2 PUSH1 0x1 ADD SLOAD DUP4 PUSH1 0x2 ADD SLOAD DUP5 PUSH1 0x5 ADD SLOAD DUP5 PUSH1 0x0 ADD SLOAD PUSH2 0x203D SWAP2 SWAP1 PUSH2 0x2A00 JUMP JUMPDEST PUSH2 0x2047 SWAP2 SWAP1 PUSH2 0x289E JUMP JUMPDEST PUSH2 0x2051 SWAP2 SWAP1 PUSH2 0x2A3D JUMP JUMPDEST SWAP1 POP DUP1 ISZERO PUSH2 0x207F JUMPI PUSH1 0x1 DUP4 ADD SLOAD PUSH2 0x207F SWAP1 PUSH20 0xFFFFFFFFFFFFFFFFFFFFFFFFFFFFFFFFFFFFFFFF AND CALLER DUP4 PUSH2 0x1A8D JUMP JUMPDEST DUP4 ISZERO PUSH2 0x20DB JUMPI DUP4 DUP3 PUSH1 0x0 ADD PUSH1 0x0 DUP3 DUP3 SLOAD PUSH2 0x2099 SWAP2 SWAP1 PUSH2 0x2A3D JUMP JUMPDEST SWAP1 SWAP2 SSTORE POP POP DUP3 SLOAD PUSH2 0x20C1 SWAP1 PUSH20 0xFFFFFFFFFFFFFFFFFFFFFFFFFFFFFFFFFFFFFFFF AND CALLER DUP7 PUSH2 0x1A8D JUMP JUMPDEST DUP4 DUP4 PUSH1 0x6 ADD PUSH1 0x0 DUP3 DUP3 SLOAD PUSH2 0x20D5 SWAP2 SWAP1 PUSH2 0x2A3D JUMP JUMPDEST SWAP1 SWAP2 SSTORE POP POP JUMPDEST PUSH1 0x2 DUP4 ADD SLOAD PUSH1 0x5 DUP5 ADD SLOAD DUP4 SLOAD PUSH2 0x20F1 SWAP2 SWAP1 PUSH2 0x2A00 JUMP JUMPDEST PUSH2 0x20FB SWAP2 SWAP1 PUSH2 0x289E JUMP JUMPDEST PUSH1 0x1 DUP4 ADD SSTORE PUSH1 0x40 DUP1 MLOAD DUP6 DUP2 MSTORE PUSH1 0x20 DUP2 ADD DUP8 SWAP1 MSTORE CALLER SWAP2 PUSH32 0xF279E6A1F5E320CCA91135676D9CB6E44CA8A08C0B88342BCDB1144F6511B568 SWAP2 ADD PUSH2 0xF25 JUMP JUMPDEST PUSH1 0x0 PUSH1 0x3 DUP4 DUP2 SLOAD DUP2 LT PUSH2 0x214D JUMPI PUSH2 0x214D PUSH2 0x2ABC JUMP JUMPDEST PUSH1 0x0 SWAP2 DUP3 MSTORE PUSH1 0x20 DUP1 DUP4 KECCAK256 DUP7 DUP5 MSTORE PUSH1 0x4 DUP3 MSTORE PUSH1 0x40 DUP1 DUP6 KECCAK256 CALLER DUP7 MSTORE SWAP1 SWAP3 MSTORE SWAP3 KECCAK256 PUSH1 0x8 SWAP1 SWAP2 MUL SWAP1 SWAP2 ADD SWAP2 POP PUSH2 0x217E DUP5 PUSH2 0x2445 JUMP JUMPDEST DUP1 SLOAD ISZERO PUSH2 0x21E9 JUMPI PUSH1 0x0 DUP2 PUSH1 0x1 ADD SLOAD DUP4 PUSH1 0x2 ADD SLOAD DUP5 PUSH1 0x5 ADD SLOAD DUP5 PUSH1 0x0 ADD SLOAD PUSH2 0x21A5 SWAP2 SWAP1 PUSH2 0x2A00 JUMP JUMPDEST PUSH2 0x21AF SWAP2 SWAP1 PUSH2 0x289E JUMP JUMPDEST PUSH2 0x21B9 SWAP2 SWAP1 PUSH2 0x2A3D JUMP JUMPDEST SWAP1 POP DUP1 ISZERO PUSH2 0x21E7 JUMPI PUSH1 0x1 DUP4 ADD SLOAD PUSH2 0x21E7 SWAP1 PUSH20 0xFFFFFFFFFFFFFFFFFFFFFFFFFFFFFFFFFFFFFFFF AND CALLER DUP4 PUSH2 0x1A8D JUMP JUMPDEST POP JUMPDEST DUP3 ISZERO PUSH2 0x2248 JUMPI DUP2 SLOAD PUSH2 0x2213 SWAP1 PUSH20 0xFFFFFFFFFFFFFFFFFFFFFFFFFFFFFFFFFFFFFFFF AND CALLER ADDRESS DUP7 PUSH2 0x1BFD JUMP JUMPDEST DUP3 DUP2 PUSH1 0x0 ADD PUSH1 0x0 DUP3 DUP3 SLOAD PUSH2 0x2227 SWAP2 SWAP1 PUSH2 0x2886 JUMP JUMPDEST SWAP3 POP POP DUP2 SWAP1 SSTORE POP DUP3 DUP3 PUSH1 0x6 ADD PUSH1 0x0 DUP3 DUP3 SLOAD PUSH2 0x2242 SWAP2 SWAP1 PUSH2 0x2886 JUMP JUMPDEST SWAP1 SWAP2 SSTORE POP POP JUMPDEST PUSH1 0x2 DUP3 ADD SLOAD PUSH1 0x5 DUP4 ADD SLOAD DUP3 SLOAD PUSH2 0x225E SWAP2 SWAP1 PUSH2 0x2A00 JUMP JUMPDEST PUSH2 0x2268 SWAP2 SWAP1 PUSH2 0x289E JUMP JUMPDEST PUSH1 0x1 DUP3 ADD SSTORE PUSH1 0x40 DUP1 MLOAD DUP5 DUP2 MSTORE PUSH1 0x20 DUP2 ADD DUP7 SWAP1 MSTORE CALLER SWAP2 PUSH32 0x90890809C654F11D6E72A28FA60149770A0D11EC6C92319D6CEB2BB0A4EA1A15 SWAP2 ADD PUSH1 0x40 MLOAD DUP1 SWAP2 SUB SWAP1 LOG2 POP POP POP POP JUMP JUMPDEST PUSH1 0x0 DUP1 SLOAD PUSH20 0xFFFFFFFFFFFFFFFFFFFFFFFFFFFFFFFFFFFFFFFF DUP4 DUP2 AND PUSH32 0xFFFFFFFFFFFFFFFFFFFFFFFF0000000000000000000000000000000000000000 DUP4 AND DUP2 OR DUP5 SSTORE PUSH1 0x40 MLOAD SWAP2 SWAP1 SWAP3 AND SWAP3 DUP4 SWAP2 PUSH32 0x8BE0079C531659141344CD1FD0A4F28419497F9722A3DAAFE3B4186F6B6457E0 SWAP2 SWAP1 LOG3 POP POP JUMP JUMPDEST PUSH1 0x0 DUP3 DUP2 MSTORE PUSH1 0x2 PUSH1 0x20 SWAP1 DUP2 MSTORE PUSH1 0x40 DUP1 DUP4 KECCAK256 DUP1 SLOAD DUP3 MLOAD DUP2 DUP6 MUL DUP2 ADD DUP6 ADD SWAP1 SWAP4 MSTORE DUP1 DUP4 MSTORE DUP5 SWAP4 DUP5 SWAP1 DUP5 ADD JUMPDEST DUP3 DUP3 LT ISZERO PUSH2 0x2392 JUMPI DUP4 DUP3 SWAP1 PUSH1 0x0 MSTORE PUSH1 0x20 PUSH1 0x0 KECCAK256 SWAP1 PUSH1 0x2 MUL ADD PUSH1 0x40 MLOAD DUP1 PUSH1 0x40 ADD PUSH1 0x40 MSTORE SWAP1 DUP2 PUSH1 0x0 DUP3 ADD SLOAD DUP2 MSTORE PUSH1 0x20 ADD PUSH1 0x1 DUP3 ADD SLOAD DUP2 MSTORE POP POP DUP2 MSTORE PUSH1 0x20 ADD SWAP1 PUSH1 0x1 ADD SWAP1 PUSH2 0x234C JUMP JUMPDEST POP POP DUP3 MLOAD SWAP3 SWAP4 POP POP POP DUP1 PUSH2 0x23AB JUMPI PUSH1 0x0 SWAP3 POP POP POP PUSH2 0xADA JUMP JUMPDEST PUSH1 0x0 JUMPDEST DUP2 DUP2 LT ISZERO PUSH2 0x2412 JUMPI DUP3 DUP2 DUP2 MLOAD DUP2 LT PUSH2 0x23C8 JUMPI PUSH2 0x23C8 PUSH2 0x2ABC JUMP JUMPDEST PUSH1 0x20 MUL PUSH1 0x20 ADD ADD MLOAD PUSH1 0x0 ADD MLOAD DUP6 GT PUSH2 0x2402 JUMPI DUP3 DUP2 DUP2 MLOAD DUP2 LT PUSH2 0x23EC JUMPI PUSH2 0x23EC PUSH2 0x2ABC JUMP JUMPDEST PUSH1 0x20 MUL PUSH1 0x20 ADD ADD MLOAD PUSH1 0x0 ADD MLOAD SWAP4 POP POP POP POP PUSH2 0xADA JUMP JUMPDEST PUSH2 0x240B DUP2 PUSH2 0x2A54 JUMP JUMPDEST SWAP1 POP PUSH2 0x23AE JUMP JUMPDEST POP DUP2 PUSH2 0x241F PUSH1 0x1 DUP4 PUSH2 0x2A3D JUMP JUMPDEST DUP2 MLOAD DUP2 LT PUSH2 0x242F JUMPI PUSH2 0x242F PUSH2 0x2ABC JUMP JUMPDEST PUSH1 0x20 MUL PUSH1 0x20 ADD ADD MLOAD PUSH1 0x0 ADD MLOAD SWAP3 POP POP POP SWAP3 SWAP2 POP POP JUMP JUMPDEST PUSH1 0x0 PUSH1 0x3 DUP3 DUP2 SLOAD DUP2 LT PUSH2 0x245A JUMPI PUSH2 0x245A PUSH2 0x2ABC JUMP JUMPDEST PUSH1 0x0 SWAP2 DUP3 MSTORE PUSH1 0x20 DUP1 DUP4 KECCAK256 DUP6 DUP5 MSTORE PUSH1 0x2 DUP3 MSTORE PUSH1 0x40 DUP1 DUP6 KECCAK256 DUP1 SLOAD DUP3 MLOAD DUP2 DUP7 MUL DUP2 ADD DUP7 ADD SWAP1 SWAP4 MSTORE DUP1 DUP4 MSTORE PUSH1 0x8 SWAP1 SWAP6 MUL SWAP1 SWAP3 ADD SWAP6 POP SWAP3 SWAP1 SWAP2 DUP5 SWAP1 DUP5 ADD JUMPDEST DUP3 DUP3 LT ISZERO PUSH2 0x24D9 JUMPI DUP4 DUP3 SWAP1 PUSH1 0x0 MSTORE PUSH1 0x20 PUSH1 0x0 KECCAK256 SWAP1 PUSH1 0x2 MUL ADD PUSH1 0x40 MLOAD DUP1 PUSH1 0x40 ADD PUSH1 0x40 MSTORE SWAP1 DUP2 PUSH1 0x0 DUP3 ADD SLOAD DUP2 MSTORE PUSH1 0x20 ADD PUSH1 0x1 DUP3 ADD SLOAD DUP2 MSTORE POP POP DUP2 MSTORE PUSH1 0x20 ADD SWAP1 PUSH1 0x1 ADD SWAP1 PUSH2 0x2493 JUMP JUMPDEST POP POP POP POP SWAP1 POP DUP2 PUSH1 0x4 ADD SLOAD TIMESTAMP GT PUSH2 0x24EF JUMPI POP POP POP JUMP JUMPDEST PUSH1 0x6 DUP3 ADD SLOAD PUSH2 0x2515 JUMPI PUSH2 0x2502 DUP4 TIMESTAMP PUSH2 0x2323 JUMP JUMPDEST TIMESTAMP GT ISZERO PUSH2 0x2510 JUMPI TIMESTAMP PUSH1 0x4 DUP4 ADD SSTORE JUMPDEST POP POP POP JUMP JUMPDEST PUSH1 0x0 JUMPDEST DUP2 MLOAD DUP2 LT ISZERO PUSH2 0x2610 JUMPI PUSH1 0x0 PUSH2 0x253E DUP5 PUSH1 0x4 ADD SLOAD TIMESTAMP DUP6 DUP6 DUP2 MLOAD DUP2 LT PUSH2 0x19B7 JUMPI PUSH2 0x19B7 PUSH2 0x2ABC JUMP JUMPDEST SWAP1 POP DUP1 PUSH2 0x254B JUMPI POP PUSH2 0x2600 JUMP JUMPDEST DUP3 DUP3 DUP2 MLOAD DUP2 LT PUSH2 0x255D JUMPI PUSH2 0x255D PUSH2 0x2ABC JUMP JUMPDEST PUSH1 0x20 MUL PUSH1 0x20 ADD ADD MLOAD PUSH1 0x0 ADD MLOAD TIMESTAMP GT ISZERO PUSH2 0x2598 JUMPI DUP3 DUP3 DUP2 MLOAD DUP2 LT PUSH2 0x2582 JUMPI PUSH2 0x2582 PUSH2 0x2ABC JUMP JUMPDEST PUSH1 0x20 SWAP1 DUP2 MUL SWAP2 SWAP1 SWAP2 ADD ADD MLOAD MLOAD PUSH1 0x4 DUP6 ADD SSTORE PUSH2 0x259F JUMP JUMPDEST TIMESTAMP PUSH1 0x4 DUP6 ADD SSTORE JUMPDEST DUP4 PUSH1 0x6 ADD SLOAD DUP5 PUSH1 0x2 ADD SLOAD DUP5 DUP5 DUP2 MLOAD DUP2 LT PUSH2 0x25BB JUMPI PUSH2 0x25BB PUSH2 0x2ABC JUMP JUMPDEST PUSH1 0x20 MUL PUSH1 0x20 ADD ADD MLOAD PUSH1 0x20 ADD MLOAD DUP4 PUSH2 0x25D2 SWAP2 SWAP1 PUSH2 0x2A00 JUMP JUMPDEST PUSH2 0x25DC SWAP2 SWAP1 PUSH2 0x2A00 JUMP JUMPDEST PUSH2 0x25E6 SWAP2 SWAP1 PUSH2 0x289E JUMP JUMPDEST DUP5 PUSH1 0x5 ADD PUSH1 0x0 DUP3 DUP3 SLOAD PUSH2 0x25F9 SWAP2 SWAP1 PUSH2 0x2886 JUMP JUMPDEST SWAP1 SWAP2 SSTORE POP POP POP JUMPDEST PUSH2 0x2609 DUP2 PUSH2 0x2A54 JUMP JUMPDEST SWAP1 POP PUSH2 0x2518 JUMP JUMPDEST POP POP POP POP JUMP JUMPDEST PUSH1 0x0 PUSH1 0x20 DUP3 DUP5 SUB SLT ISZERO PUSH2 0x2628 JUMPI PUSH1 0x0 DUP1 REVERT JUMPDEST DUP2 CALLDATALOAD PUSH2 0x14D7 DUP2 PUSH2 0x2AEB JUMP JUMPDEST PUSH1 0x0 DUP1 PUSH1 0x20 DUP4 DUP6 SUB SLT ISZERO PUSH2 0x2646 JUMPI PUSH1 0x0 DUP1 REVERT JUMPDEST DUP3 CALLDATALOAD PUSH8 0xFFFFFFFFFFFFFFFF DUP1 DUP3 GT ISZERO PUSH2 0x265E JUMPI PUSH1 0x0 DUP1 REVERT JUMPDEST DUP2 DUP6 ADD SWAP2 POP DUP6 PUSH1 0x1F DUP4 ADD SLT PUSH2 0x2672 JUMPI PUSH1 0x0 DUP1 REVERT JUMPDEST DUP2 CALLDATALOAD DUP2 DUP2 GT ISZERO PUSH2 0x2681 JUMPI PUSH1 0x0 DUP1 REVERT JUMPDEST DUP7 PUSH1 0x20 DUP3 PUSH1 0x5 SHL DUP6 ADD ADD GT ISZERO PUSH2 0x2696 JUMPI PUSH1 0x0 DUP1 REVERT JUMPDEST PUSH1 0x20 SWAP3 SWAP1 SWAP3 ADD SWAP7 SWAP2 SWAP6 POP SWAP1 SWAP4 POP POP POP POP JUMP JUMPDEST PUSH1 0x0 PUSH1 0x20 DUP3 DUP5 SUB SLT ISZERO PUSH2 0x26BA JUMPI PUSH1 0x0 DUP1 REVERT JUMPDEST DUP2 MLOAD DUP1 ISZERO ISZERO DUP2 EQ PUSH2 0x14D7 JUMPI PUSH1 0x0 DUP1 REVERT JUMPDEST PUSH1 0x0 DUP1 PUSH1 0x0 PUSH1 0x60 DUP5 DUP7 SUB SLT ISZERO PUSH2 0x26DF JUMPI PUSH1 0x0 DUP1 REVERT JUMPDEST DUP4 CALLDATALOAD PUSH2 0x26EA DUP2 PUSH2 0x2AEB JUMP JUMPDEST SWAP3 POP PUSH1 0x20 DUP5 ADD CALLDATALOAD PUSH2 0x26FA DUP2 PUSH2 0x2AEB JUMP JUMPDEST SWAP3 SWAP6 SWAP3 SWAP5 POP POP POP PUSH1 0x40 SWAP2 SWAP1 SWAP2 ADD CALLDATALOAD SWAP1 JUMP JUMPDEST PUSH1 0x0 PUSH1 0x20 DUP3 DUP5 SUB SLT ISZERO PUSH2 0x271D JUMPI PUSH1 0x0 DUP1 REVERT JUMPDEST POP CALLDATALOAD SWAP2 SWAP1 POP JUMP JUMPDEST PUSH1 0x0 DUP1 PUSH1 0x40 DUP4 DUP6 SUB SLT ISZERO PUSH2 0x2737 JUMPI PUSH1 0x0 DUP1 REVERT JUMPDEST DUP3 CALLDATALOAD SWAP2 POP PUSH1 0x20 DUP4 ADD CALLDATALOAD PUSH2 0x2749 DUP2 PUSH2 0x2AEB JUMP JUMPDEST DUP1 SWAP2 POP POP SWAP3 POP SWAP3 SWAP1 POP JUMP JUMPDEST PUSH1 0x0 DUP1 PUSH1 0x40 DUP4 DUP6 SUB SLT ISZERO PUSH2 0x2767 JUMPI PUSH1 0x0 DUP1 REVERT JUMPDEST POP POP DUP1 CALLDATALOAD SWAP3 PUSH1 0x20 SWAP1 SWAP2 ADD CALLDATALOAD SWAP2 POP JUMP JUMPDEST PUSH1 0x0 DUP1 PUSH1 0x0 PUSH1 0x60 DUP5 DUP7 SUB SLT ISZERO PUSH2 0x278B JUMPI PUSH1 0x0 DUP1 REVERT JUMPDEST DUP4 CALLDATALOAD SWAP3 POP PUSH1 0x20 DUP5 ADD CALLDATALOAD SWAP2 POP PUSH1 0x40 DUP5 ADD CALLDATALOAD PUSH2 0x27A4 DUP2 PUSH2 0x2AEB JUMP JUMPDEST DUP1 SWAP2 POP POP SWAP3 POP SWAP3 POP SWAP3 JUMP JUMPDEST PUSH1 0x0 DUP1 PUSH1 0x0 PUSH1 0x60 DUP5 DUP7 SUB SLT ISZERO PUSH2 0x27C4 JUMPI PUSH1 0x0 DUP1 REVERT JUMPDEST POP POP DUP2 CALLDATALOAD SWAP4 PUSH1 0x20 DUP4 ADD CALLDATALOAD SWAP4 POP PUSH1 0x40 SWAP1 SWAP3 ADD CALLDATALOAD SWAP2 SWAP1 POP JUMP JUMPDEST PUSH1 0x0 DUP1 PUSH1 0x0 DUP1 PUSH1 0x0 DUP1 PUSH1 0xC0 DUP8 DUP10 SUB SLT ISZERO PUSH2 0x27F4 JUMPI PUSH1 0x0 DUP1 REVERT JUMPDEST DUP7 CALLDATALOAD SWAP6 POP PUSH1 0x20 DUP8 ADD CALLDATALOAD SWAP5 POP PUSH1 0x40 DUP8 ADD CALLDATALOAD SWAP4 POP PUSH1 0x60 DUP8 ADD CALLDATALOAD PUSH2 0x2814 DUP2 PUSH2 0x2B0D JUMP JUMPDEST SWAP6 SWAP9 SWAP5 SWAP8 POP SWAP3 SWAP6 PUSH1 0x80 DUP2 ADD CALLDATALOAD SWAP5 PUSH1 0xA0 SWAP1 SWAP2 ADD CALLDATALOAD SWAP4 POP SWAP2 POP POP JUMP JUMPDEST PUSH1 0x0 PUSH1 0x20 DUP3 DUP5 SUB SLT ISZERO PUSH2 0x2840 JUMPI PUSH1 0x0 DUP1 REVERT JUMPDEST DUP2 MLOAD PUSH2 0x14D7 DUP2 PUSH2 0x2B0D JUMP JUMPDEST PUSH1 0x0 DUP3 MLOAD PUSH1 0x0 JUMPDEST DUP2 DUP2 LT ISZERO PUSH2 0x286C JUMPI PUSH1 0x20 DUP2 DUP7 ADD DUP2 ADD MLOAD DUP6 DUP4 ADD MSTORE ADD PUSH2 0x2852 JUMP JUMPDEST DUP2 DUP2 GT ISZERO PUSH2 0x287B JUMPI PUSH1 0x0 DUP3 DUP6 ADD MSTORE JUMPDEST POP SWAP2 SWAP1 SWAP2 ADD SWAP3 SWAP2 POP POP JUMP JUMPDEST PUSH1 0x0 DUP3 NOT DUP3 GT ISZERO PUSH2 0x2899 JUMPI PUSH2 0x2899 PUSH2 0x2A8D JUMP JUMPDEST POP ADD SWAP1 JUMP JUMPDEST PUSH1 0x0 DUP3 PUSH2 0x28D4 JUMPI PUSH32 0x4E487B7100000000000000000000000000000000000000000000000000000000 PUSH1 0x0 MSTORE PUSH1 0x12 PUSH1 0x4 MSTORE PUSH1 0x24 PUSH1 0x0 REVERT JUMPDEST POP DIV SWAP1 JUMP JUMPDEST PUSH1 0x1 DUP2 DUP2 JUMPDEST DUP1 DUP6 GT ISZERO PUSH2 0x2932 JUMPI DUP2 PUSH32 0xFFFFFFFFFFFFFFFFFFFFFFFFFFFFFFFFFFFFFFFFFFFFFFFFFFFFFFFFFFFFFFFF DIV DUP3 GT ISZERO PUSH2 0x2918 JUMPI PUSH2 0x2918 PUSH2 0x2A8D JUMP JUMPDEST DUP1 DUP6 AND ISZERO PUSH2 0x2925 JUMPI SWAP2 DUP2 MUL SWAP2 JUMPDEST SWAP4 DUP5 SHR SWAP4 SWAP1 DUP1 MUL SWAP1 PUSH2 0x28DE JUMP JUMPDEST POP SWAP3 POP SWAP3 SWAP1 POP JUMP JUMPDEST PUSH1 0x0 PUSH2 0x14D7 DUP4 DUP4 PUSH1 0x0 DUP3 PUSH2 0x2950 JUMPI POP PUSH1 0x1 PUSH2 0xADA JUMP JUMPDEST DUP2 PUSH2 0x295D JUMPI POP PUSH1 0x0 PUSH2 0xADA JUMP JUMPDEST DUP2 PUSH1 0x1 DUP2 EQ PUSH2 0x2973 JUMPI PUSH1 0x2 DUP2 EQ PUSH2 0x297D JUMPI PUSH2 0x2999 JUMP JUMPDEST PUSH1 0x1 SWAP2 POP POP PUSH2 0xADA JUMP JUMPDEST PUSH1 0xFF DUP5 GT ISZERO PUSH2 0x298E JUMPI PUSH2 0x298E PUSH2 0x2A8D JUMP JUMPDEST POP POP PUSH1 0x1 DUP3 SHL PUSH2 0xADA JUMP JUMPDEST POP PUSH1 0x20 DUP4 LT PUSH2 0x133 DUP4 LT AND PUSH1 0x4E DUP5 LT PUSH1 0xB DUP5 LT AND OR ISZERO PUSH2 0x29BC JUMPI POP DUP2 DUP2 EXP PUSH2 0xADA JUMP JUMPDEST PUSH2 0x29C6 DUP4 DUP4 PUSH2 0x28D9 JUMP JUMPDEST DUP1 PUSH32 0xFFFFFFFFFFFFFFFFFFFFFFFFFFFFFFFFFFFFFFFFFFFFFFFFFFFFFFFFFFFFFFFF DIV DUP3 GT ISZERO PUSH2 0x29F8 JUMPI PUSH2 0x29F8 PUSH2 0x2A8D JUMP JUMPDEST MUL SWAP4 SWAP3 POP POP POP JUMP JUMPDEST PUSH1 0x0 DUP2 PUSH32 0xFFFFFFFFFFFFFFFFFFFFFFFFFFFFFFFFFFFFFFFFFFFFFFFFFFFFFFFFFFFFFFFF DIV DUP4 GT DUP3 ISZERO ISZERO AND ISZERO PUSH2 0x2A38 JUMPI PUSH2 0x2A38 PUSH2 0x2A8D JUMP JUMPDEST POP MUL SWAP1 JUMP JUMPDEST PUSH1 0x0 DUP3 DUP3 LT ISZERO PUSH2 0x2A4F JUMPI PUSH2 0x2A4F PUSH2 0x2A8D JUMP JUMPDEST POP SUB SWAP1 JUMP JUMPDEST PUSH1 0x0 PUSH32 0xFFFFFFFFFFFFFFFFFFFFFFFFFFFFFFFFFFFFFFFFFFFFFFFFFFFFFFFFFFFFFFFF DUP3 EQ ISZERO PUSH2 0x2A86 JUMPI PUSH2 0x2A86 PUSH2 0x2A8D JUMP JUMPDEST POP PUSH1 0x1 ADD SWAP1 JUMP JUMPDEST PUSH32 0x4E487B7100000000000000000000000000000000000000000000000000000000 PUSH1 0x0 MSTORE PUSH1 0x11 PUSH1 0x4 MSTORE PUSH1 0x24 PUSH1 0x0 REVERT JUMPDEST PUSH32 0x4E487B7100000000000000000000000000000000000000000000000000000000 PUSH1 0x0 MSTORE PUSH1 0x32 PUSH1 0x4 MSTORE PUSH1 0x24 PUSH1 0x0 REVERT JUMPDEST PUSH20 0xFFFFFFFFFFFFFFFFFFFFFFFFFFFFFFFFFFFFFFFF DUP2 AND DUP2 EQ PUSH2 0x185F JUMPI PUSH1 0x0 DUP1 REVERT JUMPDEST PUSH1 0xFF DUP2 AND DUP2 EQ PUSH2 0x185F JUMPI PUSH1 0x0 DUP1 REVERT INVALID LOG2 PUSH5 0x6970667358 0x22 SLT KECCAK256 EQ 0xB9 EQ PUSH13 0x3C7BF0E76C07837E7AED02BF4D PUSH9 0x4C8ED65FDF1AAFC17 0x1E SHR COINBASE 0xF6 0xAA PUSH5 0x736F6C6343 STOP ADDMOD SMOD STOP CALLER "
        },
        "gasEstimates": {
          "creation": {
            "codeDepositCost": "2218000",
            "executionCost": "infinite",
            "totalCost": "infinite"
          },
          "external": {
            "addCampaignInfo(address,address,uint256)": "infinite",
            "addRewardInfo(uint256,uint256,uint256)": "infinite",
            "campaignInfo(uint256)": "19642",
            "campaignInfoLen()": "2371",
            "campaignRewardInfo(uint256,uint256)": "6891",
            "currentEndTimestamp(uint256)": "infinite",
            "currentRewardPerSec(uint256)": "infinite",
            "deposit(uint256,uint256)": "infinite",
            "depositWithPermit(uint256,uint256,uint256,uint8,bytes32,bytes32)": "infinite",
            "emergencyRewardWithdraw(uint256,uint256,address)": "infinite",
            "emergencyWithdraw(uint256)": "infinite",
            "getMultiplier(uint256,uint256,uint256)": "536",
            "harvest(uint256[])": "infinite",
            "massUpdateCampaigns()": "infinite",
            "owner()": "2374",
            "pendingReward(uint256,address)": "infinite",
            "renounceOwnership()": "28165",
            "rewardHolder()": "2424",
            "rewardInfoLen(uint256)": "2472",
            "rewardInfoLimit()": "2331",
            "setRewardHolder(address)": "27787",
            "setRewardInfoLimit(uint256)": "25608",
            "transferOwnership(address)": "infinite",
            "updateCampaign(uint256)": "infinite",
            "userInfo(uint256,address)": "4832",
            "withdraw(uint256,uint256)": "infinite"
          },
          "internal": {
            "_deposit(uint256,uint256)": "infinite",
            "_endTimestampOf(uint256,uint256)": "infinite",
            "_pendingReward(uint256,uint256,uint256)": "infinite",
            "_rewardPerSecOf(uint256,uint256)": "infinite",
            "_updateCampaign(uint256)": "infinite",
            "_withdraw(uint256,uint256)": "infinite"
          }
        },
        "methodIdentifiers": {
          "addCampaignInfo(address,address,uint256)": "409e00fc",
          "addRewardInfo(uint256,uint256,uint256)": "2ea807c5",
          "campaignInfo(uint256)": "bb2238ec",
          "campaignInfoLen()": "4ad7ce80",
          "campaignRewardInfo(uint256,uint256)": "10f7a6af",
          "currentEndTimestamp(uint256)": "9e494bee",
          "currentRewardPerSec(uint256)": "32215c42",
          "deposit(uint256,uint256)": "e2bbb158",
          "depositWithPermit(uint256,uint256,uint256,uint8,bytes32,bytes32)": "515bc323",
          "emergencyRewardWithdraw(uint256,uint256,address)": "1d123131",
          "emergencyWithdraw(uint256)": "5312ea8e",
          "getMultiplier(uint256,uint256,uint256)": "7bafb029",
          "harvest(uint256[])": "5d14b06f",
          "massUpdateCampaigns()": "eebdced5",
          "owner()": "8da5cb5b",
          "pendingReward(uint256,address)": "98969e82",
          "renounceOwnership()": "715018a6",
          "rewardHolder()": "569c93d2",
          "rewardInfoLen(uint256)": "4ae56bae",
          "rewardInfoLimit()": "00d74850",
          "setRewardHolder(address)": "6806cc93",
          "setRewardInfoLimit(uint256)": "33824b87",
          "transferOwnership(address)": "f2fde38b",
          "updateCampaign(uint256)": "cef7042d",
          "userInfo(uint256,address)": "93f1a40b",
          "withdraw(uint256,uint256)": "441a3e70"
        }
      },
      "storageLayout": {
        "storage": [
          {
            "astId": 65,
            "contract": "contracts/staking/TokenFarm.sol:TokenFarm",
            "label": "_owner",
            "offset": 0,
            "slot": "0",
            "type": "t_address"
          },
          {
            "astId": 10,
            "contract": "contracts/staking/TokenFarm.sol:TokenFarm",
            "label": "_status",
            "offset": 0,
            "slot": "1",
            "type": "t_uint256"
          },
          {
            "astId": 586,
            "contract": "contracts/staking/TokenFarm.sol:TokenFarm",
            "label": "campaignRewardInfo",
            "offset": 0,
            "slot": "2",
            "type": "t_mapping(t_uint256,t_array(t_struct(RewardInfo)580_storage)dyn_storage)"
          },
          {
            "astId": 590,
            "contract": "contracts/staking/TokenFarm.sol:TokenFarm",
            "label": "campaignInfo",
            "offset": 0,
            "slot": "3",
            "type": "t_array(t_struct(CampaignInfo)575_storage)dyn_storage"
          },
          {
            "astId": 597,
            "contract": "contracts/staking/TokenFarm.sol:TokenFarm",
            "label": "userInfo",
            "offset": 0,
            "slot": "4",
            "type": "t_mapping(t_uint256,t_mapping(t_address,t_struct(UserInfo)556_storage))"
          },
          {
            "astId": 599,
            "contract": "contracts/staking/TokenFarm.sol:TokenFarm",
            "label": "rewardInfoLimit",
            "offset": 0,
            "slot": "5",
            "type": "t_uint256"
          },
          {
            "astId": 601,
            "contract": "contracts/staking/TokenFarm.sol:TokenFarm",
            "label": "rewardHolder",
            "offset": 0,
            "slot": "6",
            "type": "t_address"
          }
        ],
        "types": {
          "t_address": {
            "encoding": "inplace",
            "label": "address",
            "numberOfBytes": "20"
          },
          "t_array(t_struct(CampaignInfo)575_storage)dyn_storage": {
            "base": "t_struct(CampaignInfo)575_storage",
            "encoding": "dynamic_array",
            "label": "struct TokenFarm.CampaignInfo[]",
            "numberOfBytes": "32"
          },
          "t_array(t_struct(RewardInfo)580_storage)dyn_storage": {
            "base": "t_struct(RewardInfo)580_storage",
            "encoding": "dynamic_array",
            "label": "struct TokenFarm.RewardInfo[]",
            "numberOfBytes": "32"
          },
          "t_contract(IBoringERC20)234": {
            "encoding": "inplace",
            "label": "contract IBoringERC20",
            "numberOfBytes": "20"
          },
          "t_mapping(t_address,t_struct(UserInfo)556_storage)": {
            "encoding": "mapping",
            "key": "t_address",
            "label": "mapping(address => struct TokenFarm.UserInfo)",
            "numberOfBytes": "32",
            "value": "t_struct(UserInfo)556_storage"
          },
          "t_mapping(t_uint256,t_array(t_struct(RewardInfo)580_storage)dyn_storage)": {
            "encoding": "mapping",
            "key": "t_uint256",
            "label": "mapping(uint256 => struct TokenFarm.RewardInfo[])",
            "numberOfBytes": "32",
            "value": "t_array(t_struct(RewardInfo)580_storage)dyn_storage"
          },
          "t_mapping(t_uint256,t_mapping(t_address,t_struct(UserInfo)556_storage))": {
            "encoding": "mapping",
            "key": "t_uint256",
            "label": "mapping(uint256 => mapping(address => struct TokenFarm.UserInfo))",
            "numberOfBytes": "32",
            "value": "t_mapping(t_address,t_struct(UserInfo)556_storage)"
          },
          "t_struct(CampaignInfo)575_storage": {
            "encoding": "inplace",
            "label": "struct TokenFarm.CampaignInfo",
            "members": [
              {
                "astId": 559,
                "contract": "contracts/staking/TokenFarm.sol:TokenFarm",
                "label": "stakingToken",
                "offset": 0,
                "slot": "0",
                "type": "t_contract(IBoringERC20)234"
              },
              {
                "astId": 562,
                "contract": "contracts/staking/TokenFarm.sol:TokenFarm",
                "label": "rewardToken",
                "offset": 0,
                "slot": "1",
                "type": "t_contract(IBoringERC20)234"
              },
              {
                "astId": 564,
                "contract": "contracts/staking/TokenFarm.sol:TokenFarm",
                "label": "precision",
                "offset": 0,
                "slot": "2",
                "type": "t_uint256"
              },
              {
                "astId": 566,
                "contract": "contracts/staking/TokenFarm.sol:TokenFarm",
                "label": "startTimestamp",
                "offset": 0,
                "slot": "3",
                "type": "t_uint256"
              },
              {
                "astId": 568,
                "contract": "contracts/staking/TokenFarm.sol:TokenFarm",
                "label": "lastRewardTimestamp",
                "offset": 0,
                "slot": "4",
                "type": "t_uint256"
              },
              {
                "astId": 570,
                "contract": "contracts/staking/TokenFarm.sol:TokenFarm",
                "label": "accRewardPerShare",
                "offset": 0,
                "slot": "5",
                "type": "t_uint256"
              },
              {
                "astId": 572,
                "contract": "contracts/staking/TokenFarm.sol:TokenFarm",
                "label": "totalStaked",
                "offset": 0,
                "slot": "6",
                "type": "t_uint256"
              },
              {
                "astId": 574,
                "contract": "contracts/staking/TokenFarm.sol:TokenFarm",
                "label": "totalRewards",
                "offset": 0,
                "slot": "7",
                "type": "t_uint256"
              }
            ],
            "numberOfBytes": "256"
          },
          "t_struct(RewardInfo)580_storage": {
            "encoding": "inplace",
            "label": "struct TokenFarm.RewardInfo",
            "members": [
              {
                "astId": 577,
                "contract": "contracts/staking/TokenFarm.sol:TokenFarm",
                "label": "endTimestamp",
                "offset": 0,
                "slot": "0",
                "type": "t_uint256"
              },
              {
                "astId": 579,
                "contract": "contracts/staking/TokenFarm.sol:TokenFarm",
                "label": "rewardPerSec",
                "offset": 0,
                "slot": "1",
                "type": "t_uint256"
              }
            ],
            "numberOfBytes": "64"
          },
          "t_struct(UserInfo)556_storage": {
            "encoding": "inplace",
            "label": "struct TokenFarm.UserInfo",
            "members": [
              {
                "astId": 553,
                "contract": "contracts/staking/TokenFarm.sol:TokenFarm",
                "label": "amount",
                "offset": 0,
                "slot": "0",
                "type": "t_uint256"
              },
              {
                "astId": 555,
                "contract": "contracts/staking/TokenFarm.sol:TokenFarm",
                "label": "rewardDebt",
                "offset": 0,
                "slot": "1",
                "type": "t_uint256"
              }
            ],
            "numberOfBytes": "64"
          },
          "t_uint256": {
            "encoding": "inplace",
            "label": "uint256",
            "numberOfBytes": "32"
          }
        }
      },
      "userdoc": {
        "kind": "user",
        "methods": {},
        "version": 1
      }
    }
  }
}