{
  "contracts/farm/EmberDistributorV2.sol": {
    "EmberDistributorV2": {
      "abi": [
        {
          "inputs": [
            {
              "internalType": "contract IBoringERC20",
              "name": "_ember",
              "type": "address"
            },
            {
              "internalType": "uint256",
              "name": "_emberPerSec",
              "type": "uint256"
            },
            {
              "internalType": "address",
              "name": "_teamAddress",
              "type": "address"
            },
            {
              "internalType": "address",
              "name": "_treasuryAddress",
              "type": "address"
            },
            {
              "internalType": "address",
              "name": "_investorAddress",
              "type": "address"
            },
            {
              "internalType": "uint256",
              "name": "_teamPercent",
              "type": "uint256"
            },
            {
              "internalType": "uint256",
              "name": "_treasuryPercent",
              "type": "uint256"
            },
            {
              "internalType": "uint256",
              "name": "_investorPercent",
              "type": "uint256"
            }
          ],
          "stateMutability": "nonpayable",
          "type": "constructor"
        },
        {
          "anonymous": false,
          "inputs": [
            {
              "indexed": true,
              "internalType": "uint256",
              "name": "pid",
              "type": "uint256"
            },
            {
              "indexed": false,
              "internalType": "uint256",
              "name": "allocPoint",
              "type": "uint256"
            },
            {
              "indexed": true,
              "internalType": "contract IBoringERC20",
              "name": "lpToken",
              "type": "address"
            },
            {
              "indexed": false,
              "internalType": "uint16",
              "name": "depositFeeBP",
              "type": "uint16"
            },
            {
              "indexed": false,
              "internalType": "uint256",
              "name": "harvestInterval",
              "type": "uint256"
            },
            {
              "indexed": true,
              "internalType": "contract IComplexRewarder[]",
              "name": "rewarders",
              "type": "address[]"
            }
          ],
          "name": "Add",
          "type": "event"
        },
        {
          "anonymous": false,
          "inputs": [
            {
              "indexed": true,
              "internalType": "address",
              "name": "caller",
              "type": "address"
            },
            {
              "indexed": false,
              "internalType": "uint256",
              "name": "previousAmount",
              "type": "uint256"
            },
            {
              "indexed": false,
              "internalType": "uint256",
              "name": "newAmount",
              "type": "uint256"
            }
          ],
          "name": "AllocPointsUpdated",
          "type": "event"
        },
        {
          "anonymous": false,
          "inputs": [
            {
              "indexed": true,
              "internalType": "address",
              "name": "user",
              "type": "address"
            },
            {
              "indexed": true,
              "internalType": "uint256",
              "name": "pid",
              "type": "uint256"
            },
            {
              "indexed": false,
              "internalType": "uint256",
              "name": "amount",
              "type": "uint256"
            }
          ],
          "name": "Deposit",
          "type": "event"
        },
        {
          "anonymous": false,
          "inputs": [
            {
              "indexed": true,
              "internalType": "address",
              "name": "user",
              "type": "address"
            },
            {
              "indexed": true,
              "internalType": "uint256",
              "name": "pid",
              "type": "uint256"
            },
            {
              "indexed": false,
              "internalType": "uint256",
              "name": "amount",
              "type": "uint256"
            }
          ],
          "name": "EmergencyWithdraw",
          "type": "event"
        },
        {
          "anonymous": false,
          "inputs": [
            {
              "indexed": true,
              "internalType": "address",
              "name": "caller",
              "type": "address"
            },
            {
              "indexed": false,
              "internalType": "uint256",
              "name": "previousValue",
              "type": "uint256"
            },
            {
              "indexed": false,
              "internalType": "uint256",
              "name": "newValue",
              "type": "uint256"
            }
          ],
          "name": "EmissionRateUpdated",
          "type": "event"
        },
        {
          "anonymous": false,
          "inputs": [
            {
              "indexed": true,
              "internalType": "address",
              "name": "previousOwner",
              "type": "address"
            },
            {
              "indexed": true,
              "internalType": "address",
              "name": "newOwner",
              "type": "address"
            }
          ],
          "name": "OwnershipTransferred",
          "type": "event"
        },
        {
          "anonymous": false,
          "inputs": [
            {
              "indexed": true,
              "internalType": "address",
              "name": "user",
              "type": "address"
            },
            {
              "indexed": true,
              "internalType": "uint256",
              "name": "pid",
              "type": "uint256"
            },
            {
              "indexed": false,
              "internalType": "uint256",
              "name": "amountLockedUp",
              "type": "uint256"
            }
          ],
          "name": "RewardLockedUp",
          "type": "event"
        },
        {
          "anonymous": false,
          "inputs": [
            {
              "indexed": true,
              "internalType": "uint256",
              "name": "pid",
              "type": "uint256"
            },
            {
              "indexed": false,
              "internalType": "uint256",
              "name": "allocPoint",
              "type": "uint256"
            },
            {
              "indexed": false,
              "internalType": "uint16",
              "name": "depositFeeBP",
              "type": "uint16"
            },
            {
              "indexed": false,
              "internalType": "uint256",
              "name": "harvestInterval",
              "type": "uint256"
            },
            {
              "indexed": true,
              "internalType": "contract IComplexRewarder[]",
              "name": "rewarders",
              "type": "address[]"
            }
          ],
          "name": "Set",
          "type": "event"
        },
        {
          "anonymous": false,
          "inputs": [
            {
              "indexed": true,
              "internalType": "address",
              "name": "oldAddress",
              "type": "address"
            },
            {
              "indexed": true,
              "internalType": "address",
              "name": "newAddress",
              "type": "address"
            }
          ],
          "name": "SetInvestorAddress",
          "type": "event"
        },
        {
          "anonymous": false,
          "inputs": [
            {
              "indexed": false,
              "internalType": "uint256",
              "name": "oldPercent",
              "type": "uint256"
            },
            {
              "indexed": false,
              "internalType": "uint256",
              "name": "newPercent",
              "type": "uint256"
            }
          ],
          "name": "SetInvestorPercent",
          "type": "event"
        },
        {
          "anonymous": false,
          "inputs": [
            {
              "indexed": true,
              "internalType": "address",
              "name": "oldAddress",
              "type": "address"
            },
            {
              "indexed": true,
              "internalType": "address",
              "name": "newAddress",
              "type": "address"
            }
          ],
          "name": "SetTeamAddress",
          "type": "event"
        },
        {
          "anonymous": false,
          "inputs": [
            {
              "indexed": false,
              "internalType": "uint256",
              "name": "oldPercent",
              "type": "uint256"
            },
            {
              "indexed": false,
              "internalType": "uint256",
              "name": "newPercent",
              "type": "uint256"
            }
          ],
          "name": "SetTeamPercent",
          "type": "event"
        },
        {
          "anonymous": false,
          "inputs": [
            {
              "indexed": true,
              "internalType": "address",
              "name": "oldAddress",
              "type": "address"
            },
            {
              "indexed": true,
              "internalType": "address",
              "name": "newAddress",
              "type": "address"
            }
          ],
          "name": "SetTreasuryAddress",
          "type": "event"
        },
        {
          "anonymous": false,
          "inputs": [
            {
              "indexed": false,
              "internalType": "uint256",
              "name": "oldPercent",
              "type": "uint256"
            },
            {
              "indexed": false,
              "internalType": "uint256",
              "name": "newPercent",
              "type": "uint256"
            }
          ],
          "name": "SetTreasuryPercent",
          "type": "event"
        },
        {
          "anonymous": false,
          "inputs": [
            {
              "indexed": true,
              "internalType": "uint256",
              "name": "pid",
              "type": "uint256"
            },
            {
              "indexed": false,
              "internalType": "uint256",
              "name": "lastRewardTimestamp",
              "type": "uint256"
            },
            {
              "indexed": false,
              "internalType": "uint256",
              "name": "lpSupply",
              "type": "uint256"
            },
            {
              "indexed": false,
              "internalType": "uint256",
              "name": "accEmberPerShare",
              "type": "uint256"
            }
          ],
          "name": "UpdatePool",
          "type": "event"
        },
        {
          "anonymous": false,
          "inputs": [
            {
              "indexed": true,
              "internalType": "address",
              "name": "user",
              "type": "address"
            },
            {
              "indexed": true,
              "internalType": "uint256",
              "name": "pid",
              "type": "uint256"
            },
            {
              "indexed": false,
              "internalType": "uint256",
              "name": "amount",
              "type": "uint256"
            }
          ],
          "name": "Withdraw",
          "type": "event"
        },
        {
          "inputs": [],
          "name": "MAXIMUM_DEPOSIT_FEE_RATE",
          "outputs": [
            {
              "internalType": "uint16",
              "name": "",
              "type": "uint16"
            }
          ],
          "stateMutability": "view",
          "type": "function"
        },
        {
          "inputs": [],
          "name": "MAXIMUM_HARVEST_INTERVAL",
          "outputs": [
            {
              "internalType": "uint256",
              "name": "",
              "type": "uint256"
            }
          ],
          "stateMutability": "view",
          "type": "function"
        },
        {
          "inputs": [
            {
              "internalType": "uint256",
              "name": "_allocPoint",
              "type": "uint256"
            },
            {
              "internalType": "contract IBoringERC20",
              "name": "_lpToken",
              "type": "address"
            },
            {
              "internalType": "uint16",
              "name": "_depositFeeBP",
              "type": "uint16"
            },
            {
              "internalType": "uint256",
              "name": "_harvestInterval",
              "type": "uint256"
            },
            {
              "internalType": "contract IComplexRewarder[]",
              "name": "_rewarders",
              "type": "address[]"
            }
          ],
          "name": "add",
          "outputs": [],
          "stateMutability": "nonpayable",
          "type": "function"
        },
        {
          "inputs": [
            {
              "internalType": "uint256",
              "name": "_pid",
              "type": "uint256"
            },
            {
              "internalType": "address",
              "name": "_user",
              "type": "address"
            }
          ],
          "name": "canHarvest",
          "outputs": [
            {
              "internalType": "bool",
              "name": "",
              "type": "bool"
            }
          ],
          "stateMutability": "view",
          "type": "function"
        },
        {
          "inputs": [
            {
              "internalType": "uint256",
              "name": "_pid",
              "type": "uint256"
            },
            {
              "internalType": "uint256",
              "name": "_amount",
              "type": "uint256"
            }
          ],
          "name": "deposit",
          "outputs": [],
          "stateMutability": "nonpayable",
          "type": "function"
        },
        {
          "inputs": [
            {
              "internalType": "uint256",
              "name": "pid",
              "type": "uint256"
            },
            {
              "internalType": "uint256",
              "name": "amount",
              "type": "uint256"
            },
            {
              "internalType": "uint256",
              "name": "deadline",
              "type": "uint256"
            },
            {
              "internalType": "uint8",
              "name": "v",
              "type": "uint8"
            },
            {
              "internalType": "bytes32",
              "name": "r",
              "type": "bytes32"
            },
            {
              "internalType": "bytes32",
              "name": "s",
              "type": "bytes32"
            }
          ],
          "name": "depositWithPermit",
          "outputs": [],
          "stateMutability": "nonpayable",
          "type": "function"
        },
        {
          "inputs": [],
          "name": "ember",
          "outputs": [
            {
              "internalType": "contract IBoringERC20",
              "name": "",
              "type": "address"
            }
          ],
          "stateMutability": "view",
          "type": "function"
        },
        {
          "inputs": [],
          "name": "emberPerSec",
          "outputs": [
            {
              "internalType": "uint256",
              "name": "",
              "type": "uint256"
            }
          ],
          "stateMutability": "view",
          "type": "function"
        },
        {
          "inputs": [
            {
              "internalType": "uint256",
              "name": "_pid",
              "type": "uint256"
            }
          ],
          "name": "emergencyWithdraw",
          "outputs": [],
          "stateMutability": "nonpayable",
          "type": "function"
        },
        {
          "inputs": [
            {
              "internalType": "uint256[]",
              "name": "_pids",
              "type": "uint256[]"
            }
          ],
          "name": "harvestMany",
          "outputs": [],
          "stateMutability": "nonpayable",
          "type": "function"
        },
        {
          "inputs": [],
          "name": "investorAddress",
          "outputs": [
            {
              "internalType": "address",
              "name": "",
              "type": "address"
            }
          ],
          "stateMutability": "view",
          "type": "function"
        },
        {
          "inputs": [],
          "name": "investorPercent",
          "outputs": [
            {
              "internalType": "uint256",
              "name": "",
              "type": "uint256"
            }
          ],
          "stateMutability": "view",
          "type": "function"
        },
        {
          "inputs": [],
          "name": "massUpdatePools",
          "outputs": [],
          "stateMutability": "nonpayable",
          "type": "function"
        },
        {
          "inputs": [],
          "name": "owner",
          "outputs": [
            {
              "internalType": "address",
              "name": "",
              "type": "address"
            }
          ],
          "stateMutability": "view",
          "type": "function"
        },
        {
          "inputs": [
            {
              "internalType": "uint256",
              "name": "_pid",
              "type": "uint256"
            },
            {
              "internalType": "address",
              "name": "_user",
              "type": "address"
            }
          ],
          "name": "pendingTokens",
          "outputs": [
            {
              "internalType": "address[]",
              "name": "addresses",
              "type": "address[]"
            },
            {
              "internalType": "string[]",
              "name": "symbols",
              "type": "string[]"
            },
            {
              "internalType": "uint256[]",
              "name": "decimals",
              "type": "uint256[]"
            },
            {
              "internalType": "uint256[]",
              "name": "amounts",
              "type": "uint256[]"
            }
          ],
          "stateMutability": "view",
          "type": "function"
        },
        {
          "inputs": [
            {
              "internalType": "uint256",
              "name": "",
              "type": "uint256"
            }
          ],
          "name": "poolInfo",
          "outputs": [
            {
              "internalType": "contract IBoringERC20",
              "name": "lpToken",
              "type": "address"
            },
            {
              "internalType": "uint256",
              "name": "allocPoint",
              "type": "uint256"
            },
            {
              "internalType": "uint256",
              "name": "lastRewardTimestamp",
              "type": "uint256"
            },
            {
              "internalType": "uint256",
              "name": "accEmberPerShare",
              "type": "uint256"
            },
            {
              "internalType": "uint16",
              "name": "depositFeeBP",
              "type": "uint16"
            },
            {
              "internalType": "uint256",
              "name": "harvestInterval",
              "type": "uint256"
            },
            {
              "internalType": "uint256",
              "name": "totalLp",
              "type": "uint256"
            }
          ],
          "stateMutability": "view",
          "type": "function"
        },
        {
          "inputs": [],
          "name": "poolLength",
          "outputs": [
            {
              "internalType": "uint256",
              "name": "",
              "type": "uint256"
            }
          ],
          "stateMutability": "view",
          "type": "function"
        },
        {
          "inputs": [
            {
              "internalType": "uint256",
              "name": "_pid",
              "type": "uint256"
            }
          ],
          "name": "poolRewarders",
          "outputs": [
            {
              "internalType": "address[]",
              "name": "rewarders",
              "type": "address[]"
            }
          ],
          "stateMutability": "view",
          "type": "function"
        },
        {
          "inputs": [
            {
              "internalType": "uint256",
              "name": "_pid",
              "type": "uint256"
            }
          ],
          "name": "poolRewardsPerSec",
          "outputs": [
            {
              "internalType": "address[]",
              "name": "addresses",
              "type": "address[]"
            },
            {
              "internalType": "string[]",
              "name": "symbols",
              "type": "string[]"
            },
            {
              "internalType": "uint256[]",
              "name": "decimals",
              "type": "uint256[]"
            },
            {
              "internalType": "uint256[]",
              "name": "rewardsPerSec",
              "type": "uint256[]"
            }
          ],
          "stateMutability": "view",
          "type": "function"
        },
        {
          "inputs": [
            {
              "internalType": "uint256",
              "name": "pid",
              "type": "uint256"
            }
          ],
          "name": "poolTotalLp",
          "outputs": [
            {
              "internalType": "uint256",
              "name": "",
              "type": "uint256"
            }
          ],
          "stateMutability": "view",
          "type": "function"
        },
        {
          "inputs": [],
          "name": "renounceOwnership",
          "outputs": [],
          "stateMutability": "nonpayable",
          "type": "function"
        },
        {
          "inputs": [
            {
              "internalType": "uint256",
              "name": "_pid",
              "type": "uint256"
            },
            {
              "internalType": "uint256",
              "name": "_allocPoint",
              "type": "uint256"
            },
            {
              "internalType": "uint16",
              "name": "_depositFeeBP",
              "type": "uint16"
            },
            {
              "internalType": "uint256",
              "name": "_harvestInterval",
              "type": "uint256"
            },
            {
              "internalType": "contract IComplexRewarder[]",
              "name": "_rewarders",
              "type": "address[]"
            }
          ],
          "name": "set",
          "outputs": [],
          "stateMutability": "nonpayable",
          "type": "function"
        },
        {
          "inputs": [
            {
              "internalType": "address",
              "name": "_investorAddress",
              "type": "address"
            }
          ],
          "name": "setInvestorAddress",
          "outputs": [],
          "stateMutability": "nonpayable",
          "type": "function"
        },
        {
          "inputs": [
            {
              "internalType": "uint256",
              "name": "_newInvestorPercent",
              "type": "uint256"
            }
          ],
          "name": "setInvestorPercent",
          "outputs": [],
          "stateMutability": "nonpayable",
          "type": "function"
        },
        {
          "inputs": [
            {
              "internalType": "address",
              "name": "_teamAddress",
              "type": "address"
            }
          ],
          "name": "setTeamAddress",
          "outputs": [],
          "stateMutability": "nonpayable",
          "type": "function"
        },
        {
          "inputs": [
            {
              "internalType": "uint256",
              "name": "_newTeamPercent",
              "type": "uint256"
            }
          ],
          "name": "setTeamPercent",
          "outputs": [],
          "stateMutability": "nonpayable",
          "type": "function"
        },
        {
          "inputs": [
            {
              "internalType": "address",
              "name": "_treasuryAddress",
              "type": "address"
            }
          ],
          "name": "setTreasuryAddress",
          "outputs": [],
          "stateMutability": "nonpayable",
          "type": "function"
        },
        {
          "inputs": [
            {
              "internalType": "uint256",
              "name": "_newTreasuryPercent",
              "type": "uint256"
            }
          ],
          "name": "setTreasuryPercent",
          "outputs": [],
          "stateMutability": "nonpayable",
          "type": "function"
        },
        {
          "inputs": [],
          "name": "startFarming",
          "outputs": [],
          "stateMutability": "nonpayable",
          "type": "function"
        },
        {
          "inputs": [],
          "name": "startTimestamp",
          "outputs": [
            {
              "internalType": "uint256",
              "name": "",
              "type": "uint256"
            }
          ],
          "stateMutability": "view",
          "type": "function"
        },
        {
          "inputs": [],
          "name": "teamAddress",
          "outputs": [
            {
              "internalType": "address",
              "name": "",
              "type": "address"
            }
          ],
          "stateMutability": "view",
          "type": "function"
        },
        {
          "inputs": [],
          "name": "teamPercent",
          "outputs": [
            {
              "internalType": "uint256",
              "name": "",
              "type": "uint256"
            }
          ],
          "stateMutability": "view",
          "type": "function"
        },
        {
          "inputs": [],
          "name": "totalAllocPoint",
          "outputs": [
            {
              "internalType": "uint256",
              "name": "",
              "type": "uint256"
            }
          ],
          "stateMutability": "view",
          "type": "function"
        },
        {
          "inputs": [],
          "name": "totalEmberInPools",
          "outputs": [
            {
              "internalType": "uint256",
              "name": "",
              "type": "uint256"
            }
          ],
          "stateMutability": "view",
          "type": "function"
        },
        {
          "inputs": [],
          "name": "totalLockedUpRewards",
          "outputs": [
            {
              "internalType": "uint256",
              "name": "",
              "type": "uint256"
            }
          ],
          "stateMutability": "view",
          "type": "function"
        },
        {
          "inputs": [
            {
              "internalType": "address",
              "name": "newOwner",
              "type": "address"
            }
          ],
          "name": "transferOwnership",
          "outputs": [],
          "stateMutability": "nonpayable",
          "type": "function"
        },
        {
          "inputs": [],
          "name": "treasuryAddress",
          "outputs": [
            {
              "internalType": "address",
              "name": "",
              "type": "address"
            }
          ],
          "stateMutability": "view",
          "type": "function"
        },
        {
          "inputs": [],
          "name": "treasuryPercent",
          "outputs": [
            {
              "internalType": "uint256",
              "name": "",
              "type": "uint256"
            }
          ],
          "stateMutability": "view",
          "type": "function"
        },
        {
          "inputs": [
            {
              "internalType": "uint256",
              "name": "_pid",
              "type": "uint256"
            },
            {
              "internalType": "uint256",
              "name": "_allocPoint",
              "type": "uint256"
            }
          ],
          "name": "updateAllocPoint",
          "outputs": [],
          "stateMutability": "nonpayable",
          "type": "function"
        },
        {
          "inputs": [
            {
              "internalType": "uint256",
              "name": "_emberPerSec",
              "type": "uint256"
            }
          ],
          "name": "updateEmissionRate",
          "outputs": [],
          "stateMutability": "nonpayable",
          "type": "function"
        },
        {
          "inputs": [
            {
              "internalType": "uint256",
              "name": "_pid",
              "type": "uint256"
            }
          ],
          "name": "updatePool",
          "outputs": [],
          "stateMutability": "nonpayable",
          "type": "function"
        },
        {
          "inputs": [
            {
              "internalType": "uint256",
              "name": "",
              "type": "uint256"
            },
            {
              "internalType": "address",
              "name": "",
              "type": "address"
            }
          ],
          "name": "userInfo",
          "outputs": [
            {
              "internalType": "uint256",
              "name": "amount",
              "type": "uint256"
            },
            {
              "internalType": "uint256",
              "name": "rewardDebt",
              "type": "uint256"
            },
            {
              "internalType": "uint256",
              "name": "rewardLockedUp",
              "type": "uint256"
            },
            {
              "internalType": "uint256",
              "name": "nextHarvestUntil",
              "type": "uint256"
            }
          ],
          "stateMutability": "view",
          "type": "function"
        },
        {
          "inputs": [
            {
              "internalType": "uint256",
              "name": "_pid",
              "type": "uint256"
            },
            {
              "internalType": "uint256",
              "name": "_amount",
              "type": "uint256"
            }
          ],
          "name": "withdraw",
          "outputs": [],
          "stateMutability": "nonpayable",
          "type": "function"
        }
      ],
      "devdoc": {
        "kind": "dev",
        "methods": {
          "owner()": {
            "details": "Returns the address of the current owner."
          },
          "renounceOwnership()": {
            "details": "Leaves the contract without owner. It will not be possible to call `onlyOwner` functions anymore. Can only be called by the current owner. NOTE: Renouncing ownership will leave the contract without an owner, thereby removing any functionality that is only available to the owner."
          },
          "transferOwnership(address)": {
            "details": "Transfers ownership of the contract to a new account (`newOwner`). Can only be called by the current owner."
          }
        },
        "version": 1
      },
      "evm": {
        "bytecode": {
          "linkReferences": {},
          "object": "60a06040526000600681905560095564e8d4a510006080523480156200002457600080fd5b5060405162005ec238038062005ec28339810160408190526200004791620002cf565b62000052336200027f565b600180556103e8831115620000be5760405162461bcd60e51b815260206004820152602760248201527f636f6e7374727563746f723a20696e76616c6964207465616d2070657263656e604482015266742076616c756560c81b60648201526084015b60405180910390fd5b6103e8821115620001265760405162461bcd60e51b815260206004820152602b60248201527f636f6e7374727563746f723a20696e76616c696420747265617375727920706560448201526a7263656e742076616c756560a81b6064820152608401620000b5565b6103e88111156200018e5760405162461bcd60e51b815260206004820152602b60248201527f636f6e7374727563746f723a20696e76616c696420696e766573746f7220706560448201526a7263656e742076616c756560a81b6064820152608401620000b5565b6103e8816200019e84866200035e565b620001aa91906200035e565b1115620002065760405162461bcd60e51b815260206004820152602360248201527f636f6e7374727563746f723a20746f74616c2070657263656e74206f766572206044820152620dac2f60eb1b6064820152608401620000b5565b62000216426301e133806200035e565b600755600280546001600160a01b03199081166001600160a01b039a8b1617909155600397909755600a8054881696891696909617909555600b8054871694881694909417909355600c80549095169190951617909255600d92909255600e55600f556200039e565b600080546001600160a01b038381166001600160a01b0319831681178455604051919092169283917f8be0079c531659141344cd1fd0a4f28419497f9722a3daafe3b4186f6b6457e09190a35050565b600080600080600080600080610100898b031215620002ed57600080fd5b8851620002fa8162000385565b60208a015160408b01519199509750620003148162000385565b60608a0151909650620003278162000385565b60808a01519095506200033a8162000385565b60a08a015160c08b015160e0909b0151999c989b5096999598909790945092505050565b600082198211156200038057634e487b7160e01b600052601160045260246000fd5b500190565b6001600160a01b03811681146200039b57600080fd5b50565b608051615ae5620003dd600039600081816111ad01528181613897015281816138e50152818161429a015281816143c10152614b850152615ae56000f3fe608060405234801561001057600080fd5b50600436106102e95760003560e01c8063630b5ba111610191578063afbcfea1116100e3578063e2bbb15811610097578063eff8976b11610071578063eff8976b146106a0578063f2fde38b146106c0578063ffcd4263146106d357600080fd5b8063e2bbb15814610671578063e6fd48bc14610684578063eddf96521461068d57600080fd5b8063dc640ac9116100c8578063dc640ac91461064b578063de73149d1461065e578063e164ac501461066857600080fd5b8063afbcfea114610623578063c5f956af1461062b57600080fd5b8063812c64f1116101455780638da5cb5b1161011f5780638da5cb5b1461059257806393f1a40b146105b0578063949e63021461061057600080fd5b8063812c64f114610550578063876d3c9c1461056c57806389a2bc251461057f57600080fd5b80636605bfda116101765780636605bfda146105225780636690864e14610535578063715018a61461054857600080fd5b8063630b5ba114610507578063654c9ece1461050f57600080fd5b80632081ccc41161024a578063465e81ec116101fe578063515bc323116101d8578063515bc323146104ce57806351eb05a6146104e15780635312ea8e146104f457600080fd5b8063465e81ec1461048f578063474fa630146104b2578063508593ab146104bb57600080fd5b80632e6c998d1161022f5780632e6c998d1461044657806342602f1e14610469578063441a3e701461047c57600080fd5b80632081ccc41461042a5780632a22bc431461043d57600080fd5b80631526fe27116102a157806317caf6f11161028657806317caf6f1146103e15780631c75f085146103ea5780631f1b9a7c1461040a57600080fd5b80631526fe27146103755780631745d2e4146103d857600080fd5b8063081e3eda116102d2578063081e3eda146103135780630ba84cd21461031b57806312e228fd1461033057600080fd5b806304ef9d58146102ee5780630735b2081461030a575b600080fd5b6102f7600e5481565b6040519081526020015b60405180910390f35b6102f7600f5481565b6004546102f7565b61032e610329366004615563565b6106e6565b005b600c546103509073ffffffffffffffffffffffffffffffffffffffff1681565b60405173ffffffffffffffffffffffffffffffffffffffff9091168152602001610301565b610388610383366004615563565b6107b7565b6040805173ffffffffffffffffffffffffffffffffffffffff9098168852602088019690965294860193909352606085019190915261ffff16608084015260a083015260c082015260e001610301565b6102f760035481565b6102f760065481565b600a546103509073ffffffffffffffffffffffffffffffffffffffff1681565b6002546103509073ffffffffffffffffffffffffffffffffffffffff1681565b61032e610438366004615661565b610821565b6102f760095481565b610459610454366004615595565b610c7f565b6040519015158152602001610301565b61032e6104773660046153fa565b610d3d565b61032e61048a36600461563f565b610f1e565b6104a261049d366004615563565b61131a565b6040516103019493929190615800565b6102f760085481565b61032e6104c93660046155c5565b611a86565b61032e6104dc366004615691565b611fab565b61032e6104ef366004615563565b612178565b61032e610502366004615563565b6121fa565b61032e6124e7565b6102f761051d366004615563565b612567565b61032e6105303660046153fa565b612595565b61032e6105433660046153fa565b612776565b61032e612957565b6105596103e881565b60405161ffff9091168152602001610301565b61032e61057a366004615563565b6129e4565b61032e61058d366004615563565b612be4565b60005473ffffffffffffffffffffffffffffffffffffffff16610350565b6105f06105be366004615595565b600560209081526000928352604080842090915290825290208054600182015460028301546003909301549192909184565b604080519485526020850193909352918301526060820152608001610301565b61032e61061e366004615563565b612de4565b61032e612fe4565b600b546103509073ffffffffffffffffffffffffffffffffffffffff1681565b61032e610659366004615417565b61314c565b6102f76212750081565b6102f7600d5481565b61032e61067f36600461563f565b613270565b6102f760075481565b61032e61069b36600461563f565b6132f4565b6106b36106ae366004615563565b61346a565b60405161030191906157ed565b61032e6106ce3660046153fa565b6135e9565b6104a26106e1366004615595565b613719565b60005473ffffffffffffffffffffffffffffffffffffffff16331461076c576040517f08c379a000000000000000000000000000000000000000000000000000000000815260206004820181905260248201527f4f776e61626c653a2063616c6c6572206973206e6f7420746865206f776e657260448201526064015b60405180910390fd5b610774613e24565b600354604080519182526020820183905233917feedc6338c9c1ad8f3cd6c90dd09dbe98dbd57e610d3e59a17996d07acb0d9511910160405180910390a2600355565b600481815481106107c757600080fd5b6000918252602090912060089091020180546001820154600283015460038401546004850154600586015460069096015473ffffffffffffffffffffffffffffffffffffffff909516965092949193909261ffff16919087565b60005473ffffffffffffffffffffffffffffffffffffffff1633146108a2576040517f08c379a000000000000000000000000000000000000000000000000000000000815260206004820181905260248201527f4f776e61626c653a2063616c6c6572206973206e6f7420746865206f776e65726044820152606401610763565b6004548690811061090f576040517f08c379a000000000000000000000000000000000000000000000000000000000815260206004820152601360248201527f506f6f6c20646f6573206e6f74206578697374000000000000000000000000006044820152606401610763565b600a82111561097a576040517f08c379a000000000000000000000000000000000000000000000000000000000815260206004820152601760248201527f7365743a20746f6f206d616e79207265776172646572730000000000000000006044820152606401610763565b6103e861ffff861611156109ea576040517f08c379a000000000000000000000000000000000000000000000000000000000815260206004820152601960248201527f7365743a206465706f7369742066656520746f6f2068696768000000000000006044820152606401610763565b62127500841115610a57576040517f08c379a000000000000000000000000000000000000000000000000000000000815260206004820152601d60248201527f7365743a20696e76616c6964206861727665737420696e74657276616c0000006044820152606401610763565b60005b82811015610b0857610a92848483818110610a7757610a77615a20565b9050602002016020810190610a8c91906153fa565b3b151590565b610af8576040517f08c379a000000000000000000000000000000000000000000000000000000000815260206004820152601e60248201527f7365743a207265776172646572206d75737420626520636f6e747261637400006044820152606401610763565b610b0181615998565b9050610a5a565b50610b11613e24565b8560048881548110610b2557610b25615a20565b906000526020600020906008020160010154600654610b449190615955565b610b4e91906158c5565b6006819055508560048881548110610b6857610b68615a20565b9060005260206000209060080201600101819055508460048881548110610b9157610b91615a20565b906000526020600020906008020160040160006101000a81548161ffff021916908361ffff1602179055508360048881548110610bd057610bd0615a20565b906000526020600020906008020160050181905550828260048981548110610bfa57610bfa615a20565b90600052602060002090600802016007019190610c18929190615285565b508282604051610c29929190615782565b6040805191829003822088835261ffff881660208401529082018690529088907f5ed6f0deef9ab49d02900b40d596df4cd637a2a7fbfa56bbcb377389d3ce8d289060600160405180910390a350505050505050565b60045460009083908110610cef576040517f08c379a000000000000000000000000000000000000000000000000000000000815260206004820152601360248201527f506f6f6c20646f6573206e6f74206578697374000000000000000000000000006044820152606401610763565b600084815260056020908152604080832073ffffffffffffffffffffffffffffffffffffffff8716845290915290206007544210801590610d34575080600301544210155b95945050505050565b600c5473ffffffffffffffffffffffffffffffffffffffff163314610e0a576040517f08c379a000000000000000000000000000000000000000000000000000000000815260206004820152604160248201527f73657420696e766573746f7220616464726573733a206f6e6c7920707265766960448201527f6f757320696e766573746f722063616e2063616c6c2074686973206d6574686f60648201527f6400000000000000000000000000000000000000000000000000000000000000608482015260a401610763565b73ffffffffffffffffffffffffffffffffffffffff8116610ead576040517f08c379a000000000000000000000000000000000000000000000000000000000815260206004820152603260248201527f73657420696e766573746f7220616464726573733a20696e76616c6964206e6560448201527f7720696e766573746f72206164647265737300000000000000000000000000006064820152608401610763565b600c80547fffffffffffffffffffffffff00000000000000000000000000000000000000001673ffffffffffffffffffffffffffffffffffffffff831690811790915560405133907f6260cb34f06b782e83bde168f7d74ab2133041cb53b63ce22b127822a92b679190600090a350565b60026001541415610f8b576040517f08c379a000000000000000000000000000000000000000000000000000000000815260206004820152601f60248201527f5265656e7472616e637947756172643a207265656e7472616e742063616c6c006044820152606401610763565b600260015560045482908110610ffd576040517f08c379a000000000000000000000000000000000000000000000000000000000815260206004820152601360248201527f506f6f6c20646f6573206e6f74206578697374000000000000000000000000006044820152606401610763565b60006004848154811061101257611012615a20565b6000918252602080832087845260058252604080852033865290925292208054600890920290920192508411156110a5576040517f08c379a000000000000000000000000000000000000000000000000000000000815260206004820181905260248201527f77697468647261773a207573657220616d6f756e74206e6f7420656e6f7567686044820152606401610763565b8382600601541015611113576040517f08c379a000000000000000000000000000000000000000000000000000000000815260206004820152601f60248201527f77697468647261773a20706f6f6c20746f74616c206e6f7420656e6f756768006044820152606401610763565b61111c85613e4a565b6111258561434d565b83156111a4578381600001600082825461113f9190615955565b9091555050600254825473ffffffffffffffffffffffffffffffffffffffff9081169116141561118157836009600082825461117b9190615955565b90915550505b81546111a49073ffffffffffffffffffffffffffffffffffffffff163386614502565b600382015481547f0000000000000000000000000000000000000000000000000000000000000000916111d691615918565b6111e091906158dd565b600182015560005b60078301548110156112b75782600701818154811061120957611209615a20565b60009182526020909120015482546040517f8ad1472800000000000000000000000000000000000000000000000000000000815260048101899052336024820152604481019190915273ffffffffffffffffffffffffffffffffffffffff90911690638ad1472890606401600060405180830381600087803b15801561128e57600080fd5b505af11580156112a2573d6000803e3d6000fd5b50505050806112b090615998565b90506111e8565b5083156112d857838260060160008282546112d29190615955565b90915550505b604051848152859033907ff279e6a1f5e320cca91135676d9cb6e44ca8a08c0b88342bcdb1144f6511b5689060200160405180910390a3505060018055505050565b60608060608084600480549050811061138f576040517f08c379a000000000000000000000000000000000000000000000000000000000815260206004820152601360248201527f506f6f6c20646f6573206e6f74206578697374000000000000000000000000006044820152606401610763565b6000600487815481106113a4576113a4615a20565b90600052602060002090600802019050806007018054905060016113c891906158c5565b67ffffffffffffffff8111156113e0576113e0615a4f565b604051908082528060200260200182016040528015611409578160200160208202803683370190505b50600782015490965061141d9060016158c5565b67ffffffffffffffff81111561143557611435615a4f565b60405190808252806020026020018201604052801561146857816020015b60608152602001906001900390816114535790505b50600782015490955061147c9060016158c5565b67ffffffffffffffff81111561149457611494615a4f565b6040519080825280602002602001820160405280156114bd578160200160208202803683370190505b5060078201549094506114d19060016158c5565b67ffffffffffffffff8111156114e9576114e9615a4f565b604051908082528060200260200182016040528015611512578160200160208202803683370190505b50600254875191945073ffffffffffffffffffffffffffffffffffffffff1690879060009061154357611543615a20565b73ffffffffffffffffffffffffffffffffffffffff92831660209182029290920101526002546115739116614672565b8560008151811061158657611586615a20565b60209081029190910101526002546115b39073ffffffffffffffffffffffffffffffffffffffff1661478a565b60ff16846000815181106115c9576115c9615a20565b60200260200101818152505060006103e890506000600f54600e54600d54846115f29190615955565b6115fc9190615955565b6116069190615955565b90508160065482600354866001015461161f9190615918565b6116299190615918565b61163391906158dd565b61163d91906158dd565b8560008151811061165057611650615a20565b60200260200101818152505060005b6007840154811015611a7a5783600701818154811061168057611680615a20565b60009182526020918290200154604080517ff7c618c1000000000000000000000000000000000000000000000000000000008152905173ffffffffffffffffffffffffffffffffffffffff9092169263f7c618c192600480840193829003018186803b1580156116ef57600080fd5b505afa158015611703573d6000803e3d6000fd5b505050506040513d601f19601f82011682018060405250810190611727919061547b565b896117338360016158c5565b8151811061174357611743615a20565b602002602001019073ffffffffffffffffffffffffffffffffffffffff16908173ffffffffffffffffffffffffffffffffffffffff168152505061185784600701828154811061179557611795615a20565b60009182526020918290200154604080517ff7c618c1000000000000000000000000000000000000000000000000000000008152905173ffffffffffffffffffffffffffffffffffffffff9092169263f7c618c192600480840193829003018186803b15801561180457600080fd5b505afa158015611818573d6000803e3d6000fd5b505050506040513d601f19601f8201168201806040525081019061183c919061547b565b73ffffffffffffffffffffffffffffffffffffffff16614672565b886118638360016158c5565b8151811061187357611873615a20565b602002602001018190525061195884600701828154811061189657611896615a20565b60009182526020918290200154604080517ff7c618c1000000000000000000000000000000000000000000000000000000008152905173ffffffffffffffffffffffffffffffffffffffff9092169263f7c618c192600480840193829003018186803b15801561190557600080fd5b505afa158015611919573d6000803e3d6000fd5b505050506040513d601f19601f8201168201806040525081019061193d919061547b565b73ffffffffffffffffffffffffffffffffffffffff1661478a565b60ff16876119678360016158c5565b8151811061197757611977615a20565b60200260200101818152505083600701818154811061199857611998615a20565b6000918252602090912001546040517f465e81ec000000000000000000000000000000000000000000000000000000008152600481018c905273ffffffffffffffffffffffffffffffffffffffff9091169063465e81ec9060240160206040518083038186803b158015611a0b57600080fd5b505afa158015611a1f573d6000803e3d6000fd5b505050506040513d601f19601f82011682018060405250810190611a43919061557c565b86611a4f8360016158c5565b81518110611a5f57611a5f615a20565b6020908102919091010152611a7381615998565b905061165f565b50505050509193509193565b60005473ffffffffffffffffffffffffffffffffffffffff163314611b07576040517f08c379a000000000000000000000000000000000000000000000000000000000815260206004820181905260248201527f4f776e61626c653a2063616c6c6572206973206e6f7420746865206f776e65726044820152606401610763565b600a811115611b72576040517f08c379a000000000000000000000000000000000000000000000000000000000815260206004820152601760248201527f6164643a20746f6f206d616e79207265776172646572730000000000000000006044820152606401610763565b6103e861ffff85161115611be2576040517f08c379a000000000000000000000000000000000000000000000000000000000815260206004820152601960248201527f6164643a206465706f7369742066656520746f6f2068696768000000000000006044820152606401610763565b62127500831115611c4f576040517f08c379a000000000000000000000000000000000000000000000000000000000815260206004820152601d60248201527f6164643a20696e76616c6964206861727665737420696e74657276616c0000006044820152606401610763565b843b611cdd576040517f08c379a000000000000000000000000000000000000000000000000000000000815260206004820152602660248201527f6164643a204c5020746f6b656e206d75737420626520612076616c696420636f60448201527f6e747261637400000000000000000000000000000000000000000000000000006064820152608401610763565b60005b81811015611d7357611cfd838383818110610a7757610a77615a20565b611d63576040517f08c379a000000000000000000000000000000000000000000000000000000000815260206004820152601e60248201527f6164643a207265776172646572206d75737420626520636f6e747261637400006044820152606401610763565b611d6c81615998565b9050611ce0565b50611d7c613e24565b60006007544211611d8f57600754611d91565b425b90508660066000828254611da591906158c5565b9250508190555060046040518061010001604052808873ffffffffffffffffffffffffffffffffffffffff168152602001898152602001838152602001600081526020018761ffff168152602001868152602001600081526020018585808060200260200160405190810160405280939291908181526020018383602002808284376000920182905250939094525050835460018082018655948252602091829020845160089092020180547fffffffffffffffffffffffff00000000000000000000000000000000000000001673ffffffffffffffffffffffffffffffffffffffff9092169190911781558382015194810194909455604083015160028501556060830151600385015560808301516004850180547fffffffffffffffffffffffffffffffffffffffffffffffffffffffffffff00001661ffff90921691909117905560a0830151600585015560c0830151600685015560e08301518051939493611f1b93506007850192919091019061530d565b5050508282604051611f2e929190615782565b60405190819003902060045473ffffffffffffffffffffffffffffffffffffffff881690611f5e90600190615955565b604080518b815261ffff8a1660208201529081018890527f5ed295c4f5af5aeb1ccd905e1cd55a86ab3bb9fc1fe2346ff64ac47dbef366619060600160405180910390a450505050505050565b60026001541415612018576040517f08c379a000000000000000000000000000000000000000000000000000000000815260206004820152601f60248201527f5265656e7472616e637947756172643a207265656e7472616e742063616c6c006044820152606401610763565b60026001556004548690811061208a576040517f08c379a000000000000000000000000000000000000000000000000000000000815260206004820152601360248201527f506f6f6c20646f6573206e6f74206578697374000000000000000000000000006044820152606401610763565b60006004888154811061209f5761209f615a20565b6000918252602090912060089091020180546040517fd505accf000000000000000000000000000000000000000000000000000000008152336004820152306024820152604481018a90526064810189905260ff8816608482015260a4810187905260c4810186905291925073ffffffffffffffffffffffffffffffffffffffff1690819063d505accf9060e401600060405180830381600087803b15801561214757600080fd5b505af115801561215b573d6000803e3d6000fd5b50505050612169898961487d565b50506001805550505050505050565b600260015414156121e5576040517f08c379a000000000000000000000000000000000000000000000000000000000815260206004820152601f60248201527f5265656e7472616e637947756172643a207265656e7472616e742063616c6c006044820152606401610763565b60026001556121f381613e4a565b5060018055565b60026001541415612267576040517f08c379a000000000000000000000000000000000000000000000000000000000815260206004820152601f60248201527f5265656e7472616e637947756172643a207265656e7472616e742063616c6c006044820152606401610763565b600260018190555060006004828154811061228457612284615a20565b60009182526020808320858452600582526040808520338652909252922080546008929092029092016006810154909350811115612344576040517f08c379a000000000000000000000000000000000000000000000000000000000815260206004820152602960248201527f656d657267656e63792077697468647261773a20706f6f6c20746f74616c206e60448201527f6f7420656e6f75676800000000000000000000000000000000000000000000006064820152608401610763565b6000808355600183018190556002830181905560038301819055600684018054839290612372908490615955565b90915550600090505b60078401548110156124455783600701818154811061239c5761239c615a20565b60009182526020822001546040517f8ad1472800000000000000000000000000000000000000000000000000000000815260048101889052336024820152604481019290925273ffffffffffffffffffffffffffffffffffffffff1690638ad1472890606401600060405180830381600087803b15801561241c57600080fd5b505af1158015612430573d6000803e3d6000fd5b505050508061243e90615998565b905061237b565b50600254835473ffffffffffffffffffffffffffffffffffffffff9081169116141561248357806009600082825461247d9190615955565b90915550505b82546124a69073ffffffffffffffffffffffffffffffffffffffff163383614502565b604051818152849033907fbb757047c2b5f3974fe26b7c10f732e7bce710b0952a71082702781e62ae05959060200160405180910390a35050600180555050565b60026001541415612554576040517f08c379a000000000000000000000000000000000000000000000000000000000815260206004820152601f60248201527f5265656e7472616e637947756172643a207265656e7472616e742063616c6c006044820152606401610763565b6002600155612561613e24565b60018055565b60006004828154811061257c5761257c615a20565b9060005260206000209060080201600601549050919050565b600b5473ffffffffffffffffffffffffffffffffffffffff163314612662576040517f08c379a000000000000000000000000000000000000000000000000000000000815260206004820152604960248201527f73657420747265617375727920616464726573733a206f6e6c7920707265766960448201527f6f757320747265617375727920616464726573732063616e2063616c6c20746860648201527f6973206d6574686f640000000000000000000000000000000000000000000000608482015260a401610763565b73ffffffffffffffffffffffffffffffffffffffff8116612705576040517f08c379a000000000000000000000000000000000000000000000000000000000815260206004820152603260248201527f73657420747265617375727920616464726573733a20696e76616c6964206e6560448201527f77207472656173757279206164647265737300000000000000000000000000006064820152608401610763565b600b80547fffffffffffffffffffffffff00000000000000000000000000000000000000001673ffffffffffffffffffffffffffffffffffffffff831690811790915560405133907f61885cdba916be748ff3e3f6f15e4206153b8ea3b7acabade9d04b4063a8351090600090a350565b600a5473ffffffffffffffffffffffffffffffffffffffff163314612843576040517f08c379a000000000000000000000000000000000000000000000000000000000815260206004820152604160248201527f736574207465616d20616464726573733a206f6e6c792070726576696f75732060448201527f7465616d20616464726573732063616e2063616c6c2074686973206d6574686f60648201527f6400000000000000000000000000000000000000000000000000000000000000608482015260a401610763565b73ffffffffffffffffffffffffffffffffffffffff81166128e6576040517f08c379a000000000000000000000000000000000000000000000000000000000815260206004820152602a60248201527f736574207465616d20616464726573733a20696e76616c6964206e657720746560448201527f616d2061646472657373000000000000000000000000000000000000000000006064820152608401610763565b600a80547fffffffffffffffffffffffff00000000000000000000000000000000000000001673ffffffffffffffffffffffffffffffffffffffff831690811790915560405133907f42fbc17d847fdc3e5c82da842a5ef3979c64f3b94cd4e7382310fd5525c6ee0f90600090a350565b60005473ffffffffffffffffffffffffffffffffffffffff1633146129d8576040517f08c379a000000000000000000000000000000000000000000000000000000000815260206004820181905260248201527f4f776e61626c653a2063616c6c6572206973206e6f7420746865206f776e65726044820152606401610763565b6129e26000614cee565b565b60005473ffffffffffffffffffffffffffffffffffffffff163314612a65576040517f08c379a000000000000000000000000000000000000000000000000000000000815260206004820181905260248201527f4f776e61626c653a2063616c6c6572206973206e6f7420746865206f776e65726044820152606401610763565b6103e8811115612af7576040517f08c379a000000000000000000000000000000000000000000000000000000000815260206004820152602b60248201527f73657420696e766573746f722070657263656e743a20696e76616c696420706560448201527f7263656e742076616c75650000000000000000000000000000000000000000006064820152608401610763565b6103e8600e5482600d54612b0b91906158c5565b612b1591906158c5565b1115612ba3576040517f08c379a000000000000000000000000000000000000000000000000000000000815260206004820152602c60248201527f73657420696e766573746f722070657263656e743a20746f74616c207065726360448201527f656e74206f766572206d617800000000000000000000000000000000000000006064820152608401610763565b600f5460408051918252602082018390527f905b464403a98b455243c8b4d30c545b8fbd70cda670142b9326425b2c039f3b910160405180910390a1600f55565b60005473ffffffffffffffffffffffffffffffffffffffff163314612c65576040517f08c379a000000000000000000000000000000000000000000000000000000000815260206004820181905260248201527f4f776e61626c653a2063616c6c6572206973206e6f7420746865206f776e65726044820152606401610763565b6103e8811115612cf7576040517f08c379a000000000000000000000000000000000000000000000000000000000815260206004820152602b60248201527f7365742074726561737572792070657263656e743a20696e76616c696420706560448201527f7263656e742076616c75650000000000000000000000000000000000000000006064820152608401610763565b6103e8600f5482600d54612d0b91906158c5565b612d1591906158c5565b1115612da3576040517f08c379a000000000000000000000000000000000000000000000000000000000815260206004820152602c60248201527f7365742074726561737572792070657263656e743a20746f74616c207065726360448201527f656e74206f766572206d617800000000000000000000000000000000000000006064820152608401610763565b600e5460408051918252602082018390527fa565895c0101fca10e6a7b85742e56cf52ac5f58b09ce030425d3555b47069fd910160405180910390a1600e55565b60005473ffffffffffffffffffffffffffffffffffffffff163314612e65576040517f08c379a000000000000000000000000000000000000000000000000000000000815260206004820181905260248201527f4f776e61626c653a2063616c6c6572206973206e6f7420746865206f776e65726044820152606401610763565b6103e8811115612ef7576040517f08c379a000000000000000000000000000000000000000000000000000000000815260206004820152602760248201527f736574207465616d2070657263656e743a20696e76616c69642070657263656e60448201527f742076616c7565000000000000000000000000000000000000000000000000006064820152608401610763565b6103e8600f5482600e54612f0b91906158c5565b612f1591906158c5565b1115612fa3576040517f08c379a000000000000000000000000000000000000000000000000000000000815260206004820152602860248201527f736574207465616d2070657263656e743a20746f74616c2070657263656e742060448201527f6f766572206d61780000000000000000000000000000000000000000000000006064820152608401610763565b600d5460408051918252602082018390527f204a076f4a2e4e5e646bb8841cc285306bf747e277f40dbfd5750e782e17b7a6910160405180910390a1600d55565b60005473ffffffffffffffffffffffffffffffffffffffff163314613065576040517f08c379a000000000000000000000000000000000000000000000000000000000815260206004820181905260248201527f4f776e61626c653a2063616c6c6572206973206e6f7420746865206f776e65726044820152606401610763565b60075442106130f6576040517f08c379a000000000000000000000000000000000000000000000000000000000815260206004820152602360248201527f7374617274206661726d696e673a206661726d207374617274656420616c726560448201527f61647900000000000000000000000000000000000000000000000000000000006064820152608401610763565b60045460005b818110156131445760006004828154811061311957613119615a20565b90600052602060002090600802019050428160020181905550508061313d90615998565b90506130fc565b505042600755565b600260015414156131b9576040517f08c379a000000000000000000000000000000000000000000000000000000000815260206004820152601f60248201527f5265656e7472616e637947756172643a207265656e7472616e742063616c6c006044820152606401610763565b6002600155601e811115613229576040517f08c379a000000000000000000000000000000000000000000000000000000000815260206004820152601f60248201527f68617276657374206d616e793a20746f6f206d616e7920706f6f6c20696473006044820152606401610763565b60005b818110156132675761325783838381811061324957613249615a20565b90506020020135600061487d565b61326081615998565b905061322c565b50506001805550565b600260015414156132dd576040517f08c379a000000000000000000000000000000000000000000000000000000000815260206004820152601f60248201527f5265656e7472616e637947756172643a207265656e7472616e742063616c6c006044820152606401610763565b60026001556132ec828261487d565b505060018055565b60005473ffffffffffffffffffffffffffffffffffffffff163314613375576040517f08c379a000000000000000000000000000000000000000000000000000000000815260206004820181905260248201527f4f776e61626c653a2063616c6c6572206973206e6f7420746865206f776e65726044820152606401610763565b61337d613e24565b3373ffffffffffffffffffffffffffffffffffffffff167f802633c8d26237616d81bdac01bc40fcdf36e098832601582ec19d7e431c5ef3600484815481106133c8576133c8615a20565b906000526020600020906008020160010154836040516133f2929190918252602082015260400190565b60405180910390a2806004838154811061340e5761340e615a20565b90600052602060002090600802016001015460065461342d9190615955565b61343791906158c5565b600681905550806004838154811061345157613451615a20565b9060005260206000209060080201600101819055505050565b600454606090829081106134da576040517f08c379a000000000000000000000000000000000000000000000000000000000815260206004820152601360248201527f506f6f6c20646f6573206e6f74206578697374000000000000000000000000006044820152606401610763565b6000600484815481106134ef576134ef615a20565b90600052602060002090600802019050806007018054905067ffffffffffffffff81111561351f5761351f615a4f565b604051908082528060200260200182016040528015613548578160200160208202803683370190505b50925060005b60078201548110156135e15781600701818154811061356f5761356f615a20565b9060005260206000200160009054906101000a900473ffffffffffffffffffffffffffffffffffffffff168482815181106135ac576135ac615a20565b73ffffffffffffffffffffffffffffffffffffffff909216602092830291909101909101526135da81615998565b905061354e565b505050919050565b60005473ffffffffffffffffffffffffffffffffffffffff16331461366a576040517f08c379a000000000000000000000000000000000000000000000000000000000815260206004820181905260248201527f4f776e61626c653a2063616c6c6572206973206e6f7420746865206f776e65726044820152606401610763565b73ffffffffffffffffffffffffffffffffffffffff811661370d576040517f08c379a000000000000000000000000000000000000000000000000000000000815260206004820152602660248201527f4f776e61626c653a206e6577206f776e657220697320746865207a65726f206160448201527f64647265737300000000000000000000000000000000000000000000000000006064820152608401610763565b61371681614cee565b50565b60608060608085600480549050811061378e576040517f08c379a000000000000000000000000000000000000000000000000000000000815260206004820152601360248201527f506f6f6c20646f6573206e6f74206578697374000000000000000000000000006044820152606401610763565b6000600488815481106137a3576137a3615a20565b600091825260208083208b845260058252604080852073ffffffffffffffffffffffffffffffffffffffff8d168652909252922060036008909202909201908101546006820154600283015492945090914211801561380157508015155b156138d75760008460020154426138189190615955565b905060006103e890506000600f54600e54600d54846138379190615955565b6138419190615955565b61384b9190615955565b9050600082600654838a60010154600354886138679190615918565b6138719190615918565b61387b9190615918565b61388591906158dd565b61388f91906158dd565b9050846138bc7f000000000000000000000000000000000000000000000000000000000000000083615918565b6138c691906158dd565b6138d090876158c5565b9550505050505b6000836002015484600101547f00000000000000000000000000000000000000000000000000000000000000008587600001546139149190615918565b61391e91906158dd565b6139289190615955565b61393291906158c5565b60078601549091506139459060016158c5565b67ffffffffffffffff81111561395d5761395d615a4f565b604051908082528060200260200182016040528015613986578160200160208202803683370190505b506007860154909a5061399a9060016158c5565b67ffffffffffffffff8111156139b2576139b2615a4f565b6040519080825280602002602001820160405280156139e557816020015b60608152602001906001900390816139d05790505b5060078601549099506139f99060016158c5565b67ffffffffffffffff811115613a1157613a11615a4f565b604051908082528060200260200182016040528015613a3a578160200160208202803683370190505b506007860154909750613a4e9060016158c5565b67ffffffffffffffff811115613a6657613a66615a4f565b604051908082528060200260200182016040528015613a8f578160200160208202803683370190505b506002548b5191995073ffffffffffffffffffffffffffffffffffffffff16908b90600090613ac057613ac0615a20565b73ffffffffffffffffffffffffffffffffffffffff9283166020918202929092010152600254613af09116614672565b89600081518110613b0357613b03615a20565b6020908102919091010152600254613b309073ffffffffffffffffffffffffffffffffffffffff1661478a565b60ff1688600081518110613b4657613b46615a20565b6020026020010181815250508087600081518110613b6657613b66615a20565b60200260200101818152505060005b6007860154811015613e1457856007018181548110613b9657613b96615a20565b60009182526020918290200154604080517ff7c618c1000000000000000000000000000000000000000000000000000000008152905173ffffffffffffffffffffffffffffffffffffffff9092169263f7c618c192600480840193829003018186803b158015613c0557600080fd5b505afa158015613c19573d6000803e3d6000fd5b505050506040513d601f19601f82011682018060405250810190613c3d919061547b565b8b613c498360016158c5565b81518110613c5957613c59615a20565b602002602001019073ffffffffffffffffffffffffffffffffffffffff16908173ffffffffffffffffffffffffffffffffffffffff1681525050613cab86600701828154811061179557611795615a20565b8a613cb78360016158c5565b81518110613cc757613cc7615a20565b6020026020010181905250613cea86600701828154811061189657611896615a20565b60ff1689613cf98360016158c5565b81518110613d0957613d09615a20565b602002602001018181525050856007018181548110613d2a57613d2a615a20565b6000918252602090912001546040517fffcd4263000000000000000000000000000000000000000000000000000000008152600481018f905273ffffffffffffffffffffffffffffffffffffffff8e811660248301529091169063ffcd42639060440160206040518083038186803b158015613da557600080fd5b505afa158015613db9573d6000803e3d6000fd5b505050506040513d601f19601f82011682018060405250810190613ddd919061557c565b88613de98360016158c5565b81518110613df957613df9615a20565b6020908102919091010152613e0d81615998565b9050613b75565b5050505050505092959194509250565b60005b60045481101561371657613e3a81613e4a565b613e4381615998565b9050613e27565b60045481908110613eb7576040517f08c379a000000000000000000000000000000000000000000000000000000000815260206004820152601360248201527f506f6f6c20646f6573206e6f74206578697374000000000000000000000000006044820152606401610763565b600060048381548110613ecc57613ecc615a20565b9060005260206000209060080201905080600201544211613eec57505050565b6006810154801580613f0057506001820154155b15613f115750426002909101555050565b6000826002015442613f239190615955565b90506000600654846001015460035484613f3d9190615918565b613f479190615918565b613f5191906158dd565b905060006103e890506000600f54600e54600d5484613f709190615955565b613f7a9190615955565b613f849190615955565b600254600a54600d5492935073ffffffffffffffffffffffffffffffffffffffff918216926340c10f1992909116908590613fbf9088615918565b613fc991906158dd565b6040517fffffffff0000000000000000000000000000000000000000000000000000000060e085901b16815273ffffffffffffffffffffffffffffffffffffffff90921660048301526024820152604401600060405180830381600087803b15801561403457600080fd5b505af1158015614048573d6000803e3d6000fd5b5050600254600b54600e5473ffffffffffffffffffffffffffffffffffffffff92831694506340c10f19935091169085906140839088615918565b61408d91906158dd565b6040517fffffffff0000000000000000000000000000000000000000000000000000000060e085901b16815273ffffffffffffffffffffffffffffffffffffffff90921660048301526024820152604401600060405180830381600087803b1580156140f857600080fd5b505af115801561410c573d6000803e3d6000fd5b5050600254600c54600f5473ffffffffffffffffffffffffffffffffffffffff92831694506340c10f19935091169085906141479088615918565b61415191906158dd565b6040517fffffffff0000000000000000000000000000000000000000000000000000000060e085901b16815273ffffffffffffffffffffffffffffffffffffffff90921660048301526024820152604401600060405180830381600087803b1580156141bc57600080fd5b505af11580156141d0573d6000803e3d6000fd5b505060025473ffffffffffffffffffffffffffffffffffffffff1691506340c10f19905030846142008588615918565b61420a91906158dd565b6040517fffffffff0000000000000000000000000000000000000000000000000000000060e085901b16815273ffffffffffffffffffffffffffffffffffffffff90921660048301526024820152604401600060405180830381600087803b15801561427557600080fd5b505af1158015614289573d6000803e3d6000fd5b5050506006870154839150826142bf7f000000000000000000000000000000000000000000000000000000000000000087615918565b6142c99190615918565b6142d391906158dd565b6142dd91906158dd565b8660030160008282546142f091906158c5565b909155505042600287018190556003870154604080519283526020830188905282015288907f3be3541fc42237d611b30329040bfa4569541d156560acdbbae57640d20b8f469060600160405180910390a25050505050505b5050565b60006004828154811061436257614362615a20565b60009182526020808320858452600582526040808520338652909252922060038101546008909202909201925015801561439e57506007544210155b156143b85760058201546143b290426158c5565b60038201555b600081600101547f0000000000000000000000000000000000000000000000000000000000000000846003015484600001546143f49190615918565b6143fe91906158dd565b6144089190615955565b90506144148433610c7f565b1561448c57600081118061442c575060008260020154115b1561448757600082600201548261444391906158c5565b905082600201546008600082825461445b9190615955565b909155505060006002840155600584015461447690426158c5565b60038401556144853382614d63565b505b6144fc565b80156144fc5780600860008282546144a491906158c5565b92505081905550808260020160008282546144bf91906158c5565b9091555050604051818152849033907fee470483107f579a55c754fa00613c45a9a3b617a418b39cb0be97e5381ba7c19060200160405180910390a35b50505050565b6040805173ffffffffffffffffffffffffffffffffffffffff8481166024830152604480830185905283518084039091018152606490920183526020820180517bffffffffffffffffffffffffffffffffffffffffffffffffffffffff167fa9059cbb00000000000000000000000000000000000000000000000000000000179052915160009283929087169161459991906157d1565b6000604051808303816000865af19150503d80600081146145d6576040519150601f19603f3d011682016040523d82523d6000602084013e6145db565b606091505b50915091508180156146055750805115806146055750808060200190518101906146059190615459565b61466b576040517f08c379a000000000000000000000000000000000000000000000000000000000815260206004820152601c60248201527f426f72696e6745524332303a205472616e73666572206661696c6564000000006044820152606401610763565b5050505050565b60408051600481526024810182526020810180517bffffffffffffffffffffffffffffffffffffffffffffffffffffffff167f95d89b41000000000000000000000000000000000000000000000000000000001790529051606091600091829173ffffffffffffffffffffffffffffffffffffffff8616916146f491906157d1565b600060405180830381855afa9150503d806000811461472f576040519150601f19603f3d011682016040523d82523d6000602084013e614734565b606091505b509150915081614779576040518060400160405280600381526020017f3f3f3f0000000000000000000000000000000000000000000000000000000000815250614782565b61478281614f19565b949350505050565b60408051600481526024810182526020810180517bffffffffffffffffffffffffffffffffffffffffffffffffffffffff167f313ce5670000000000000000000000000000000000000000000000000000000017905290516000918291829173ffffffffffffffffffffffffffffffffffffffff86169161480b91906157d1565b600060405180830381855afa9150503d8060008114614846576040519150601f19603f3d011682016040523d82523d6000602084013e61484b565b606091505b509150915081801561485e575080516020145b614869576012614782565b8080602001905181019061478291906156e4565b600454829081106148ea576040517f08c379a000000000000000000000000000000000000000000000000000000000815260206004820152601360248201527f506f6f6c20646f6573206e6f74206578697374000000000000000000000000006044820152606401610763565b6000600484815481106148ff576148ff615a20565b6000918252602080832087845260058252604080852033865290925292206008909102909101915061493085613e4a565b6149398561434d565b8315614b7c5781546040517f70a0823100000000000000000000000000000000000000000000000000000000815230600482015260009173ffffffffffffffffffffffffffffffffffffffff16906370a082319060240160206040518083038186803b1580156149a857600080fd5b505afa1580156149bc573d6000803e3d6000fd5b505050506040513d601f19601f820116820180604052508101906149e0919061557c565b8354909150614a079073ffffffffffffffffffffffffffffffffffffffff1633308861510c565b82546040517f70a0823100000000000000000000000000000000000000000000000000000000815230600482015260009173ffffffffffffffffffffffffffffffffffffffff16906370a082319060240160206040518083038186803b158015614a7057600080fd5b505afa158015614a84573d6000803e3d6000fd5b505050506040513d601f19601f82011682018060405250810190614aa8919061557c565b9050614ab48282615955565b600485015490965061ffff1615614b2357600484015460009061271090614adf9061ffff1689615918565b614ae991906158dd565b600b548654919250614b159173ffffffffffffffffffffffffffffffffffffffff908116911683614502565b614b1f8188615955565b9650505b85836000016000828254614b3791906158c5565b9091555050600254845473ffffffffffffffffffffffffffffffffffffffff90811691161415614b79578560096000828254614b7391906158c5565b90915550505b50505b600382015481547f000000000000000000000000000000000000000000000000000000000000000091614bae91615918565b614bb891906158dd565b600182015560005b6007830154811015614c8f57826007018181548110614be157614be1615a20565b60009182526020909120015482546040517f8ad1472800000000000000000000000000000000000000000000000000000000815260048101899052336024820152604481019190915273ffffffffffffffffffffffffffffffffffffffff90911690638ad1472890606401600060405180830381600087803b158015614c6657600080fd5b505af1158015614c7a573d6000803e3d6000fd5b5050505080614c8890615998565b9050614bc0565b508315614cb05783826006016000828254614caa91906158c5565b90915550505b604051848152859033907f90890809c654f11d6e72a28fa60149770a0d11ec6c92319d6ceb2bb0a4ea1a159060200160405180910390a35050505050565b6000805473ffffffffffffffffffffffffffffffffffffffff8381167fffffffffffffffffffffffff0000000000000000000000000000000000000000831681178455604051919092169283917f8be0079c531659141344cd1fd0a4f28419497f9722a3daafe3b4186f6b6457e09190a35050565b6009546002546040517f70a0823100000000000000000000000000000000000000000000000000000000815230600482015273ffffffffffffffffffffffffffffffffffffffff909116906370a082319060240160206040518083038186803b158015614dcf57600080fd5b505afa158015614de3573d6000803e3d6000fd5b505050506040513d601f19601f82011682018060405250810190614e07919061557c565b1115614349576009546002546040517f70a082310000000000000000000000000000000000000000000000000000000081523060048201526000929173ffffffffffffffffffffffffffffffffffffffff16906370a082319060240160206040518083038186803b158015614e7b57600080fd5b505afa158015614e8f573d6000803e3d6000fd5b505050506040513d601f19601f82011682018060405250810190614eb3919061557c565b614ebd9190615955565b9050808210614eef57600254614eea9073ffffffffffffffffffffffffffffffffffffffff168483614502565b505050565b8115614eea57600254614eea9073ffffffffffffffffffffffffffffffffffffffff168484614502565b60606040825110614f3e5781806020019051810190614f389190615498565b92915050565b8151602014156150ce5760005b60208160ff16108015614f985750828160ff1681518110614f6e57614f6e615a20565b01602001517fff000000000000000000000000000000000000000000000000000000000000001615155b15614faf5780614fa7816159d1565b915050614f4b565b60008160ff1667ffffffffffffffff811115614fcd57614fcd615a4f565b6040519080825280601f01601f191660200182016040528015614ff7576020820181803683370190505b509050600091505b60208260ff1610801561504c5750838260ff168151811061502257615022615a20565b01602001517fff000000000000000000000000000000000000000000000000000000000000001615155b156150c757838260ff168151811061506657615066615a20565b602001015160f81c60f81b818360ff168151811061508657615086615a20565b60200101907effffffffffffffffffffffffffffffffffffffffffffffffffffffffffffff1916908160001a905350816150bf816159d1565b925050614fff565b9392505050565b505060408051808201909152600381527f3f3f3f0000000000000000000000000000000000000000000000000000000000602082015290565b919050565b6040805173ffffffffffffffffffffffffffffffffffffffff85811660248301528481166044830152606480830185905283518084039091018152608490920183526020820180517bffffffffffffffffffffffffffffffffffffffffffffffffffffffff167f23b872dd0000000000000000000000000000000000000000000000000000000017905291516000928392908816916151ab91906157d1565b6000604051808303816000865af19150503d80600081146151e8576040519150601f19603f3d011682016040523d82523d6000602084013e6151ed565b606091505b50915091508180156152175750805115806152175750808060200190518101906152179190615459565b61527d576040517f08c379a000000000000000000000000000000000000000000000000000000000815260206004820181905260248201527f426f72696e6745524332303a205472616e7366657246726f6d206661696c65646044820152606401610763565b505050505050565b8280548282559060005260206000209081019282156152fd579160200282015b828111156152fd5781547fffffffffffffffffffffffff00000000000000000000000000000000000000001673ffffffffffffffffffffffffffffffffffffffff8435161782556020909201916001909101906152a5565b50615309929150615387565b5090565b8280548282559060005260206000209081019282156152fd579160200282015b828111156152fd57825182547fffffffffffffffffffffffff00000000000000000000000000000000000000001673ffffffffffffffffffffffffffffffffffffffff90911617825560209092019160019091019061532d565b5b808211156153095760008155600101615388565b60008083601f8401126153ae57600080fd5b50813567ffffffffffffffff8111156153c657600080fd5b6020830191508360208260051b85010111156153e157600080fd5b9250929050565b803561ffff8116811461510757600080fd5b60006020828403121561540c57600080fd5b81356150c781615a7e565b6000806020838503121561542a57600080fd5b823567ffffffffffffffff81111561544157600080fd5b61544d8582860161539c565b90969095509350505050565b60006020828403121561546b57600080fd5b815180151581146150c757600080fd5b60006020828403121561548d57600080fd5b81516150c781615a7e565b6000602082840312156154aa57600080fd5b815167ffffffffffffffff808211156154c257600080fd5b818401915084601f8301126154d657600080fd5b8151818111156154e8576154e8615a4f565b604051601f82017fffffffffffffffffffffffffffffffffffffffffffffffffffffffffffffffe0908116603f0116810190838211818310171561552e5761552e615a4f565b8160405282815287602084870101111561554757600080fd5b61555883602083016020880161596c565b979650505050505050565b60006020828403121561557557600080fd5b5035919050565b60006020828403121561558e57600080fd5b5051919050565b600080604083850312156155a857600080fd5b8235915060208301356155ba81615a7e565b809150509250929050565b60008060008060008060a087890312156155de57600080fd5b8635955060208701356155f081615a7e565b94506155fe604088016153e8565b935060608701359250608087013567ffffffffffffffff81111561562157600080fd5b61562d89828a0161539c565b979a9699509497509295939492505050565b6000806040838503121561565257600080fd5b50508035926020909101359150565b60008060008060008060a0878903121561567a57600080fd5b86359550602087013594506155fe604088016153e8565b60008060008060008060c087890312156156aa57600080fd5b86359550602087013594506040870135935060608701356156ca81615aa0565b9598949750929560808101359460a0909101359350915050565b6000602082840312156156f657600080fd5b81516150c781615aa0565b600081518084526020808501945080840160005b8381101561574757815173ffffffffffffffffffffffffffffffffffffffff1687529582019590820190600101615715565b509495945050505050565b600081518084526020808501945080840160005b8381101561574757815187529582019590820190600101615766565b60008184825b858110156157c657813561579b81615a7e565b73ffffffffffffffffffffffffffffffffffffffff1683526020928301929190910190600101615788565b509095945050505050565b600082516157e381846020870161596c565b9190910192915050565b6020815260006150c76020830184615701565b6080815260006158136080830187615701565b6020838203818501528187518084528284019150828160051b850101838a0160005b83811015615899577fffffffffffffffffffffffffffffffffffffffffffffffffffffffffffffffe0808885030186528251805180865261587b818a88018b850161596c565b96880196601f01909116939093018601925090850190600101615835565b505086810360408801526158ad818a615752565b94505050505082810360608401526155588185615752565b600082198211156158d8576158d86159f1565b500190565b600082615913577f4e487b7100000000000000000000000000000000000000000000000000000000600052601260045260246000fd5b500490565b6000817fffffffffffffffffffffffffffffffffffffffffffffffffffffffffffffffff0483118215151615615950576159506159f1565b500290565b600082821015615967576159676159f1565b500390565b60005b8381101561598757818101518382015260200161596f565b838111156144fc5750506000910152565b60007fffffffffffffffffffffffffffffffffffffffffffffffffffffffffffffffff8214156159ca576159ca6159f1565b5060010190565b600060ff821660ff8114156159e8576159e86159f1565b60010192915050565b7f4e487b7100000000000000000000000000000000000000000000000000000000600052601160045260246000fd5b7f4e487b7100000000000000000000000000000000000000000000000000000000600052603260045260246000fd5b7f4e487b7100000000000000000000000000000000000000000000000000000000600052604160045260246000fd5b73ffffffffffffffffffffffffffffffffffffffff8116811461371657600080fd5b60ff8116811461371657600080fdfea2646970667358221220675acd47b434fa866a339703ba174905316bc1a1a0cbcd6244a1a80c23c63aaa64736f6c63430008070033",
          "opcodes": "PUSH1 0xA0 PUSH1 0x40 MSTORE PUSH1 0x0 PUSH1 0x6 DUP2 SWAP1 SSTORE PUSH1 0x9 SSTORE PUSH5 0xE8D4A51000 PUSH1 0x80 MSTORE CALLVALUE DUP1 ISZERO PUSH3 0x24 JUMPI PUSH1 0x0 DUP1 REVERT JUMPDEST POP PUSH1 0x40 MLOAD PUSH3 0x5EC2 CODESIZE SUB DUP1 PUSH3 0x5EC2 DUP4 CODECOPY DUP2 ADD PUSH1 0x40 DUP2 SWAP1 MSTORE PUSH3 0x47 SWAP2 PUSH3 0x2CF JUMP JUMPDEST PUSH3 0x52 CALLER PUSH3 0x27F JUMP JUMPDEST PUSH1 0x1 DUP1 SSTORE PUSH2 0x3E8 DUP4 GT ISZERO PUSH3 0xBE JUMPI PUSH1 0x40 MLOAD PUSH3 0x461BCD PUSH1 0xE5 SHL DUP2 MSTORE PUSH1 0x20 PUSH1 0x4 DUP3 ADD MSTORE PUSH1 0x27 PUSH1 0x24 DUP3 ADD MSTORE PUSH32 0x636F6E7374727563746F723A20696E76616C6964207465616D2070657263656E PUSH1 0x44 DUP3 ADD MSTORE PUSH7 0x742076616C7565 PUSH1 0xC8 SHL PUSH1 0x64 DUP3 ADD MSTORE PUSH1 0x84 ADD JUMPDEST PUSH1 0x40 MLOAD DUP1 SWAP2 SUB SWAP1 REVERT JUMPDEST PUSH2 0x3E8 DUP3 GT ISZERO PUSH3 0x126 JUMPI PUSH1 0x40 MLOAD PUSH3 0x461BCD PUSH1 0xE5 SHL DUP2 MSTORE PUSH1 0x20 PUSH1 0x4 DUP3 ADD MSTORE PUSH1 0x2B PUSH1 0x24 DUP3 ADD MSTORE PUSH32 0x636F6E7374727563746F723A20696E76616C6964207472656173757279207065 PUSH1 0x44 DUP3 ADD MSTORE PUSH11 0x7263656E742076616C7565 PUSH1 0xA8 SHL PUSH1 0x64 DUP3 ADD MSTORE PUSH1 0x84 ADD PUSH3 0xB5 JUMP JUMPDEST PUSH2 0x3E8 DUP2 GT ISZERO PUSH3 0x18E JUMPI PUSH1 0x40 MLOAD PUSH3 0x461BCD PUSH1 0xE5 SHL DUP2 MSTORE PUSH1 0x20 PUSH1 0x4 DUP3 ADD MSTORE PUSH1 0x2B PUSH1 0x24 DUP3 ADD MSTORE PUSH32 0x636F6E7374727563746F723A20696E76616C696420696E766573746F72207065 PUSH1 0x44 DUP3 ADD MSTORE PUSH11 0x7263656E742076616C7565 PUSH1 0xA8 SHL PUSH1 0x64 DUP3 ADD MSTORE PUSH1 0x84 ADD PUSH3 0xB5 JUMP JUMPDEST PUSH2 0x3E8 DUP2 PUSH3 0x19E DUP5 DUP7 PUSH3 0x35E JUMP JUMPDEST PUSH3 0x1AA SWAP2 SWAP1 PUSH3 0x35E JUMP JUMPDEST GT ISZERO PUSH3 0x206 JUMPI PUSH1 0x40 MLOAD PUSH3 0x461BCD PUSH1 0xE5 SHL DUP2 MSTORE PUSH1 0x20 PUSH1 0x4 DUP3 ADD MSTORE PUSH1 0x23 PUSH1 0x24 DUP3 ADD MSTORE PUSH32 0x636F6E7374727563746F723A20746F74616C2070657263656E74206F76657220 PUSH1 0x44 DUP3 ADD MSTORE PUSH3 0xDAC2F PUSH1 0xEB SHL PUSH1 0x64 DUP3 ADD MSTORE PUSH1 0x84 ADD PUSH3 0xB5 JUMP JUMPDEST PUSH3 0x216 TIMESTAMP PUSH4 0x1E13380 PUSH3 0x35E JUMP JUMPDEST PUSH1 0x7 SSTORE PUSH1 0x2 DUP1 SLOAD PUSH1 0x1 PUSH1 0x1 PUSH1 0xA0 SHL SUB NOT SWAP1 DUP2 AND PUSH1 0x1 PUSH1 0x1 PUSH1 0xA0 SHL SUB SWAP11 DUP12 AND OR SWAP1 SWAP2 SSTORE PUSH1 0x3 SWAP8 SWAP1 SWAP8 SSTORE PUSH1 0xA DUP1 SLOAD DUP9 AND SWAP7 DUP10 AND SWAP7 SWAP1 SWAP7 OR SWAP1 SWAP6 SSTORE PUSH1 0xB DUP1 SLOAD DUP8 AND SWAP5 DUP9 AND SWAP5 SWAP1 SWAP5 OR SWAP1 SWAP4 SSTORE PUSH1 0xC DUP1 SLOAD SWAP1 SWAP6 AND SWAP2 SWAP1 SWAP6 AND OR SWAP1 SWAP3 SSTORE PUSH1 0xD SWAP3 SWAP1 SWAP3 SSTORE PUSH1 0xE SSTORE PUSH1 0xF SSTORE PUSH3 0x39E JUMP JUMPDEST PUSH1 0x0 DUP1 SLOAD PUSH1 0x1 PUSH1 0x1 PUSH1 0xA0 SHL SUB DUP4 DUP2 AND PUSH1 0x1 PUSH1 0x1 PUSH1 0xA0 SHL SUB NOT DUP4 AND DUP2 OR DUP5 SSTORE PUSH1 0x40 MLOAD SWAP2 SWAP1 SWAP3 AND SWAP3 DUP4 SWAP2 PUSH32 0x8BE0079C531659141344CD1FD0A4F28419497F9722A3DAAFE3B4186F6B6457E0 SWAP2 SWAP1 LOG3 POP POP JUMP JUMPDEST PUSH1 0x0 DUP1 PUSH1 0x0 DUP1 PUSH1 0x0 DUP1 PUSH1 0x0 DUP1 PUSH2 0x100 DUP10 DUP12 SUB SLT ISZERO PUSH3 0x2ED JUMPI PUSH1 0x0 DUP1 REVERT JUMPDEST DUP9 MLOAD PUSH3 0x2FA DUP2 PUSH3 0x385 JUMP JUMPDEST PUSH1 0x20 DUP11 ADD MLOAD PUSH1 0x40 DUP12 ADD MLOAD SWAP2 SWAP10 POP SWAP8 POP PUSH3 0x314 DUP2 PUSH3 0x385 JUMP JUMPDEST PUSH1 0x60 DUP11 ADD MLOAD SWAP1 SWAP7 POP PUSH3 0x327 DUP2 PUSH3 0x385 JUMP JUMPDEST PUSH1 0x80 DUP11 ADD MLOAD SWAP1 SWAP6 POP PUSH3 0x33A DUP2 PUSH3 0x385 JUMP JUMPDEST PUSH1 0xA0 DUP11 ADD MLOAD PUSH1 0xC0 DUP12 ADD MLOAD PUSH1 0xE0 SWAP1 SWAP12 ADD MLOAD SWAP10 SWAP13 SWAP9 SWAP12 POP SWAP7 SWAP10 SWAP6 SWAP9 SWAP1 SWAP8 SWAP1 SWAP5 POP SWAP3 POP POP POP JUMP JUMPDEST PUSH1 0x0 DUP3 NOT DUP3 GT ISZERO PUSH3 0x380 JUMPI PUSH4 0x4E487B71 PUSH1 0xE0 SHL PUSH1 0x0 MSTORE PUSH1 0x11 PUSH1 0x4 MSTORE PUSH1 0x24 PUSH1 0x0 REVERT JUMPDEST POP ADD SWAP1 JUMP JUMPDEST PUSH1 0x1 PUSH1 0x1 PUSH1 0xA0 SHL SUB DUP2 AND DUP2 EQ PUSH3 0x39B JUMPI PUSH1 0x0 DUP1 REVERT JUMPDEST POP JUMP JUMPDEST PUSH1 0x80 MLOAD PUSH2 0x5AE5 PUSH3 0x3DD PUSH1 0x0 CODECOPY PUSH1 0x0 DUP2 DUP2 PUSH2 0x11AD ADD MSTORE DUP2 DUP2 PUSH2 0x3897 ADD MSTORE DUP2 DUP2 PUSH2 0x38E5 ADD MSTORE DUP2 DUP2 PUSH2 0x429A ADD MSTORE DUP2 DUP2 PUSH2 0x43C1 ADD MSTORE PUSH2 0x4B85 ADD MSTORE PUSH2 0x5AE5 PUSH1 0x0 RETURN INVALID PUSH1 0x80 PUSH1 0x40 MSTORE CALLVALUE DUP1 ISZERO PUSH2 0x10 JUMPI PUSH1 0x0 DUP1 REVERT JUMPDEST POP PUSH1 0x4 CALLDATASIZE LT PUSH2 0x2E9 JUMPI PUSH1 0x0 CALLDATALOAD PUSH1 0xE0 SHR DUP1 PUSH4 0x630B5BA1 GT PUSH2 0x191 JUMPI DUP1 PUSH4 0xAFBCFEA1 GT PUSH2 0xE3 JUMPI DUP1 PUSH4 0xE2BBB158 GT PUSH2 0x97 JUMPI DUP1 PUSH4 0xEFF8976B GT PUSH2 0x71 JUMPI DUP1 PUSH4 0xEFF8976B EQ PUSH2 0x6A0 JUMPI DUP1 PUSH4 0xF2FDE38B EQ PUSH2 0x6C0 JUMPI DUP1 PUSH4 0xFFCD4263 EQ PUSH2 0x6D3 JUMPI PUSH1 0x0 DUP1 REVERT JUMPDEST DUP1 PUSH4 0xE2BBB158 EQ PUSH2 0x671 JUMPI DUP1 PUSH4 0xE6FD48BC EQ PUSH2 0x684 JUMPI DUP1 PUSH4 0xEDDF9652 EQ PUSH2 0x68D JUMPI PUSH1 0x0 DUP1 REVERT JUMPDEST DUP1 PUSH4 0xDC640AC9 GT PUSH2 0xC8 JUMPI DUP1 PUSH4 0xDC640AC9 EQ PUSH2 0x64B JUMPI DUP1 PUSH4 0xDE73149D EQ PUSH2 0x65E JUMPI DUP1 PUSH4 0xE164AC50 EQ PUSH2 0x668 JUMPI PUSH1 0x0 DUP1 REVERT JUMPDEST DUP1 PUSH4 0xAFBCFEA1 EQ PUSH2 0x623 JUMPI DUP1 PUSH4 0xC5F956AF EQ PUSH2 0x62B JUMPI PUSH1 0x0 DUP1 REVERT JUMPDEST DUP1 PUSH4 0x812C64F1 GT PUSH2 0x145 JUMPI DUP1 PUSH4 0x8DA5CB5B GT PUSH2 0x11F JUMPI DUP1 PUSH4 0x8DA5CB5B EQ PUSH2 0x592 JUMPI DUP1 PUSH4 0x93F1A40B EQ PUSH2 0x5B0 JUMPI DUP1 PUSH4 0x949E6302 EQ PUSH2 0x610 JUMPI PUSH1 0x0 DUP1 REVERT JUMPDEST DUP1 PUSH4 0x812C64F1 EQ PUSH2 0x550 JUMPI DUP1 PUSH4 0x876D3C9C EQ PUSH2 0x56C JUMPI DUP1 PUSH4 0x89A2BC25 EQ PUSH2 0x57F JUMPI PUSH1 0x0 DUP1 REVERT JUMPDEST DUP1 PUSH4 0x6605BFDA GT PUSH2 0x176 JUMPI DUP1 PUSH4 0x6605BFDA EQ PUSH2 0x522 JUMPI DUP1 PUSH4 0x6690864E EQ PUSH2 0x535 JUMPI DUP1 PUSH4 0x715018A6 EQ PUSH2 0x548 JUMPI PUSH1 0x0 DUP1 REVERT JUMPDEST DUP1 PUSH4 0x630B5BA1 EQ PUSH2 0x507 JUMPI DUP1 PUSH4 0x654C9ECE EQ PUSH2 0x50F JUMPI PUSH1 0x0 DUP1 REVERT JUMPDEST DUP1 PUSH4 0x2081CCC4 GT PUSH2 0x24A JUMPI DUP1 PUSH4 0x465E81EC GT PUSH2 0x1FE JUMPI DUP1 PUSH4 0x515BC323 GT PUSH2 0x1D8 JUMPI DUP1 PUSH4 0x515BC323 EQ PUSH2 0x4CE JUMPI DUP1 PUSH4 0x51EB05A6 EQ PUSH2 0x4E1 JUMPI DUP1 PUSH4 0x5312EA8E EQ PUSH2 0x4F4 JUMPI PUSH1 0x0 DUP1 REVERT JUMPDEST DUP1 PUSH4 0x465E81EC EQ PUSH2 0x48F JUMPI DUP1 PUSH4 0x474FA630 EQ PUSH2 0x4B2 JUMPI DUP1 PUSH4 0x508593AB EQ PUSH2 0x4BB JUMPI PUSH1 0x0 DUP1 REVERT JUMPDEST DUP1 PUSH4 0x2E6C998D GT PUSH2 0x22F JUMPI DUP1 PUSH4 0x2E6C998D EQ PUSH2 0x446 JUMPI DUP1 PUSH4 0x42602F1E EQ PUSH2 0x469 JUMPI DUP1 PUSH4 0x441A3E70 EQ PUSH2 0x47C JUMPI PUSH1 0x0 DUP1 REVERT JUMPDEST DUP1 PUSH4 0x2081CCC4 EQ PUSH2 0x42A JUMPI DUP1 PUSH4 0x2A22BC43 EQ PUSH2 0x43D JUMPI PUSH1 0x0 DUP1 REVERT JUMPDEST DUP1 PUSH4 0x1526FE27 GT PUSH2 0x2A1 JUMPI DUP1 PUSH4 0x17CAF6F1 GT PUSH2 0x286 JUMPI DUP1 PUSH4 0x17CAF6F1 EQ PUSH2 0x3E1 JUMPI DUP1 PUSH4 0x1C75F085 EQ PUSH2 0x3EA JUMPI DUP1 PUSH4 0x1F1B9A7C EQ PUSH2 0x40A JUMPI PUSH1 0x0 DUP1 REVERT JUMPDEST DUP1 PUSH4 0x1526FE27 EQ PUSH2 0x375 JUMPI DUP1 PUSH4 0x1745D2E4 EQ PUSH2 0x3D8 JUMPI PUSH1 0x0 DUP1 REVERT JUMPDEST DUP1 PUSH4 0x81E3EDA GT PUSH2 0x2D2 JUMPI DUP1 PUSH4 0x81E3EDA EQ PUSH2 0x313 JUMPI DUP1 PUSH4 0xBA84CD2 EQ PUSH2 0x31B JUMPI DUP1 PUSH4 0x12E228FD EQ PUSH2 0x330 JUMPI PUSH1 0x0 DUP1 REVERT JUMPDEST DUP1 PUSH4 0x4EF9D58 EQ PUSH2 0x2EE JUMPI DUP1 PUSH4 0x735B208 EQ PUSH2 0x30A JUMPI JUMPDEST PUSH1 0x0 DUP1 REVERT JUMPDEST PUSH2 0x2F7 PUSH1 0xE SLOAD DUP2 JUMP JUMPDEST PUSH1 0x40 MLOAD SWAP1 DUP2 MSTORE PUSH1 0x20 ADD JUMPDEST PUSH1 0x40 MLOAD DUP1 SWAP2 SUB SWAP1 RETURN JUMPDEST PUSH2 0x2F7 PUSH1 0xF SLOAD DUP2 JUMP JUMPDEST PUSH1 0x4 SLOAD PUSH2 0x2F7 JUMP JUMPDEST PUSH2 0x32E PUSH2 0x329 CALLDATASIZE PUSH1 0x4 PUSH2 0x5563 JUMP JUMPDEST PUSH2 0x6E6 JUMP JUMPDEST STOP JUMPDEST PUSH1 0xC SLOAD PUSH2 0x350 SWAP1 PUSH20 0xFFFFFFFFFFFFFFFFFFFFFFFFFFFFFFFFFFFFFFFF AND DUP2 JUMP JUMPDEST PUSH1 0x40 MLOAD PUSH20 0xFFFFFFFFFFFFFFFFFFFFFFFFFFFFFFFFFFFFFFFF SWAP1 SWAP2 AND DUP2 MSTORE PUSH1 0x20 ADD PUSH2 0x301 JUMP JUMPDEST PUSH2 0x388 PUSH2 0x383 CALLDATASIZE PUSH1 0x4 PUSH2 0x5563 JUMP JUMPDEST PUSH2 0x7B7 JUMP JUMPDEST PUSH1 0x40 DUP1 MLOAD PUSH20 0xFFFFFFFFFFFFFFFFFFFFFFFFFFFFFFFFFFFFFFFF SWAP1 SWAP9 AND DUP9 MSTORE PUSH1 0x20 DUP9 ADD SWAP7 SWAP1 SWAP7 MSTORE SWAP5 DUP7 ADD SWAP4 SWAP1 SWAP4 MSTORE PUSH1 0x60 DUP6 ADD SWAP2 SWAP1 SWAP2 MSTORE PUSH2 0xFFFF AND PUSH1 0x80 DUP5 ADD MSTORE PUSH1 0xA0 DUP4 ADD MSTORE PUSH1 0xC0 DUP3 ADD MSTORE PUSH1 0xE0 ADD PUSH2 0x301 JUMP JUMPDEST PUSH2 0x2F7 PUSH1 0x3 SLOAD DUP2 JUMP JUMPDEST PUSH2 0x2F7 PUSH1 0x6 SLOAD DUP2 JUMP JUMPDEST PUSH1 0xA SLOAD PUSH2 0x350 SWAP1 PUSH20 0xFFFFFFFFFFFFFFFFFFFFFFFFFFFFFFFFFFFFFFFF AND DUP2 JUMP JUMPDEST PUSH1 0x2 SLOAD PUSH2 0x350 SWAP1 PUSH20 0xFFFFFFFFFFFFFFFFFFFFFFFFFFFFFFFFFFFFFFFF AND DUP2 JUMP JUMPDEST PUSH2 0x32E PUSH2 0x438 CALLDATASIZE PUSH1 0x4 PUSH2 0x5661 JUMP JUMPDEST PUSH2 0x821 JUMP JUMPDEST PUSH2 0x2F7 PUSH1 0x9 SLOAD DUP2 JUMP JUMPDEST PUSH2 0x459 PUSH2 0x454 CALLDATASIZE PUSH1 0x4 PUSH2 0x5595 JUMP JUMPDEST PUSH2 0xC7F JUMP JUMPDEST PUSH1 0x40 MLOAD SWAP1 ISZERO ISZERO DUP2 MSTORE PUSH1 0x20 ADD PUSH2 0x301 JUMP JUMPDEST PUSH2 0x32E PUSH2 0x477 CALLDATASIZE PUSH1 0x4 PUSH2 0x53FA JUMP JUMPDEST PUSH2 0xD3D JUMP JUMPDEST PUSH2 0x32E PUSH2 0x48A CALLDATASIZE PUSH1 0x4 PUSH2 0x563F JUMP JUMPDEST PUSH2 0xF1E JUMP JUMPDEST PUSH2 0x4A2 PUSH2 0x49D CALLDATASIZE PUSH1 0x4 PUSH2 0x5563 JUMP JUMPDEST PUSH2 0x131A JUMP JUMPDEST PUSH1 0x40 MLOAD PUSH2 0x301 SWAP5 SWAP4 SWAP3 SWAP2 SWAP1 PUSH2 0x5800 JUMP JUMPDEST PUSH2 0x2F7 PUSH1 0x8 SLOAD DUP2 JUMP JUMPDEST PUSH2 0x32E PUSH2 0x4C9 CALLDATASIZE PUSH1 0x4 PUSH2 0x55C5 JUMP JUMPDEST PUSH2 0x1A86 JUMP JUMPDEST PUSH2 0x32E PUSH2 0x4DC CALLDATASIZE PUSH1 0x4 PUSH2 0x5691 JUMP JUMPDEST PUSH2 0x1FAB JUMP JUMPDEST PUSH2 0x32E PUSH2 0x4EF CALLDATASIZE PUSH1 0x4 PUSH2 0x5563 JUMP JUMPDEST PUSH2 0x2178 JUMP JUMPDEST PUSH2 0x32E PUSH2 0x502 CALLDATASIZE PUSH1 0x4 PUSH2 0x5563 JUMP JUMPDEST PUSH2 0x21FA JUMP JUMPDEST PUSH2 0x32E PUSH2 0x24E7 JUMP JUMPDEST PUSH2 0x2F7 PUSH2 0x51D CALLDATASIZE PUSH1 0x4 PUSH2 0x5563 JUMP JUMPDEST PUSH2 0x2567 JUMP JUMPDEST PUSH2 0x32E PUSH2 0x530 CALLDATASIZE PUSH1 0x4 PUSH2 0x53FA JUMP JUMPDEST PUSH2 0x2595 JUMP JUMPDEST PUSH2 0x32E PUSH2 0x543 CALLDATASIZE PUSH1 0x4 PUSH2 0x53FA JUMP JUMPDEST PUSH2 0x2776 JUMP JUMPDEST PUSH2 0x32E PUSH2 0x2957 JUMP JUMPDEST PUSH2 0x559 PUSH2 0x3E8 DUP2 JUMP JUMPDEST PUSH1 0x40 MLOAD PUSH2 0xFFFF SWAP1 SWAP2 AND DUP2 MSTORE PUSH1 0x20 ADD PUSH2 0x301 JUMP JUMPDEST PUSH2 0x32E PUSH2 0x57A CALLDATASIZE PUSH1 0x4 PUSH2 0x5563 JUMP JUMPDEST PUSH2 0x29E4 JUMP JUMPDEST PUSH2 0x32E PUSH2 0x58D CALLDATASIZE PUSH1 0x4 PUSH2 0x5563 JUMP JUMPDEST PUSH2 0x2BE4 JUMP JUMPDEST PUSH1 0x0 SLOAD PUSH20 0xFFFFFFFFFFFFFFFFFFFFFFFFFFFFFFFFFFFFFFFF AND PUSH2 0x350 JUMP JUMPDEST PUSH2 0x5F0 PUSH2 0x5BE CALLDATASIZE PUSH1 0x4 PUSH2 0x5595 JUMP JUMPDEST PUSH1 0x5 PUSH1 0x20 SWAP1 DUP2 MSTORE PUSH1 0x0 SWAP3 DUP4 MSTORE PUSH1 0x40 DUP1 DUP5 KECCAK256 SWAP1 SWAP2 MSTORE SWAP1 DUP3 MSTORE SWAP1 KECCAK256 DUP1 SLOAD PUSH1 0x1 DUP3 ADD SLOAD PUSH1 0x2 DUP4 ADD SLOAD PUSH1 0x3 SWAP1 SWAP4 ADD SLOAD SWAP2 SWAP3 SWAP1 SWAP2 DUP5 JUMP JUMPDEST PUSH1 0x40 DUP1 MLOAD SWAP5 DUP6 MSTORE PUSH1 0x20 DUP6 ADD SWAP4 SWAP1 SWAP4 MSTORE SWAP2 DUP4 ADD MSTORE PUSH1 0x60 DUP3 ADD MSTORE PUSH1 0x80 ADD PUSH2 0x301 JUMP JUMPDEST PUSH2 0x32E PUSH2 0x61E CALLDATASIZE PUSH1 0x4 PUSH2 0x5563 JUMP JUMPDEST PUSH2 0x2DE4 JUMP JUMPDEST PUSH2 0x32E PUSH2 0x2FE4 JUMP JUMPDEST PUSH1 0xB SLOAD PUSH2 0x350 SWAP1 PUSH20 0xFFFFFFFFFFFFFFFFFFFFFFFFFFFFFFFFFFFFFFFF AND DUP2 JUMP JUMPDEST PUSH2 0x32E PUSH2 0x659 CALLDATASIZE PUSH1 0x4 PUSH2 0x5417 JUMP JUMPDEST PUSH2 0x314C JUMP JUMPDEST PUSH2 0x2F7 PUSH3 0x127500 DUP2 JUMP JUMPDEST PUSH2 0x2F7 PUSH1 0xD SLOAD DUP2 JUMP JUMPDEST PUSH2 0x32E PUSH2 0x67F CALLDATASIZE PUSH1 0x4 PUSH2 0x563F JUMP JUMPDEST PUSH2 0x3270 JUMP JUMPDEST PUSH2 0x2F7 PUSH1 0x7 SLOAD DUP2 JUMP JUMPDEST PUSH2 0x32E PUSH2 0x69B CALLDATASIZE PUSH1 0x4 PUSH2 0x563F JUMP JUMPDEST PUSH2 0x32F4 JUMP JUMPDEST PUSH2 0x6B3 PUSH2 0x6AE CALLDATASIZE PUSH1 0x4 PUSH2 0x5563 JUMP JUMPDEST PUSH2 0x346A JUMP JUMPDEST PUSH1 0x40 MLOAD PUSH2 0x301 SWAP2 SWAP1 PUSH2 0x57ED JUMP JUMPDEST PUSH2 0x32E PUSH2 0x6CE CALLDATASIZE PUSH1 0x4 PUSH2 0x53FA JUMP JUMPDEST PUSH2 0x35E9 JUMP JUMPDEST PUSH2 0x4A2 PUSH2 0x6E1 CALLDATASIZE PUSH1 0x4 PUSH2 0x5595 JUMP JUMPDEST PUSH2 0x3719 JUMP JUMPDEST PUSH1 0x0 SLOAD PUSH20 0xFFFFFFFFFFFFFFFFFFFFFFFFFFFFFFFFFFFFFFFF AND CALLER EQ PUSH2 0x76C JUMPI PUSH1 0x40 MLOAD PUSH32 0x8C379A000000000000000000000000000000000000000000000000000000000 DUP2 MSTORE PUSH1 0x20 PUSH1 0x4 DUP3 ADD DUP2 SWAP1 MSTORE PUSH1 0x24 DUP3 ADD MSTORE PUSH32 0x4F776E61626C653A2063616C6C6572206973206E6F7420746865206F776E6572 PUSH1 0x44 DUP3 ADD MSTORE PUSH1 0x64 ADD JUMPDEST PUSH1 0x40 MLOAD DUP1 SWAP2 SUB SWAP1 REVERT JUMPDEST PUSH2 0x774 PUSH2 0x3E24 JUMP JUMPDEST PUSH1 0x3 SLOAD PUSH1 0x40 DUP1 MLOAD SWAP2 DUP3 MSTORE PUSH1 0x20 DUP3 ADD DUP4 SWAP1 MSTORE CALLER SWAP2 PUSH32 0xEEDC6338C9C1AD8F3CD6C90DD09DBE98DBD57E610D3E59A17996D07ACB0D9511 SWAP2 ADD PUSH1 0x40 MLOAD DUP1 SWAP2 SUB SWAP1 LOG2 PUSH1 0x3 SSTORE JUMP JUMPDEST PUSH1 0x4 DUP2 DUP2 SLOAD DUP2 LT PUSH2 0x7C7 JUMPI PUSH1 0x0 DUP1 REVERT JUMPDEST PUSH1 0x0 SWAP2 DUP3 MSTORE PUSH1 0x20 SWAP1 SWAP2 KECCAK256 PUSH1 0x8 SWAP1 SWAP2 MUL ADD DUP1 SLOAD PUSH1 0x1 DUP3 ADD SLOAD PUSH1 0x2 DUP4 ADD SLOAD PUSH1 0x3 DUP5 ADD SLOAD PUSH1 0x4 DUP6 ADD SLOAD PUSH1 0x5 DUP7 ADD SLOAD PUSH1 0x6 SWAP1 SWAP7 ADD SLOAD PUSH20 0xFFFFFFFFFFFFFFFFFFFFFFFFFFFFFFFFFFFFFFFF SWAP1 SWAP6 AND SWAP7 POP SWAP3 SWAP5 SWAP2 SWAP4 SWAP1 SWAP3 PUSH2 0xFFFF AND SWAP2 SWAP1 DUP8 JUMP JUMPDEST PUSH1 0x0 SLOAD PUSH20 0xFFFFFFFFFFFFFFFFFFFFFFFFFFFFFFFFFFFFFFFF AND CALLER EQ PUSH2 0x8A2 JUMPI PUSH1 0x40 MLOAD PUSH32 0x8C379A000000000000000000000000000000000000000000000000000000000 DUP2 MSTORE PUSH1 0x20 PUSH1 0x4 DUP3 ADD DUP2 SWAP1 MSTORE PUSH1 0x24 DUP3 ADD MSTORE PUSH32 0x4F776E61626C653A2063616C6C6572206973206E6F7420746865206F776E6572 PUSH1 0x44 DUP3 ADD MSTORE PUSH1 0x64 ADD PUSH2 0x763 JUMP JUMPDEST PUSH1 0x4 SLOAD DUP7 SWAP1 DUP2 LT PUSH2 0x90F JUMPI PUSH1 0x40 MLOAD PUSH32 0x8C379A000000000000000000000000000000000000000000000000000000000 DUP2 MSTORE PUSH1 0x20 PUSH1 0x4 DUP3 ADD MSTORE PUSH1 0x13 PUSH1 0x24 DUP3 ADD MSTORE PUSH32 0x506F6F6C20646F6573206E6F7420657869737400000000000000000000000000 PUSH1 0x44 DUP3 ADD MSTORE PUSH1 0x64 ADD PUSH2 0x763 JUMP JUMPDEST PUSH1 0xA DUP3 GT ISZERO PUSH2 0x97A JUMPI PUSH1 0x40 MLOAD PUSH32 0x8C379A000000000000000000000000000000000000000000000000000000000 DUP2 MSTORE PUSH1 0x20 PUSH1 0x4 DUP3 ADD MSTORE PUSH1 0x17 PUSH1 0x24 DUP3 ADD MSTORE PUSH32 0x7365743A20746F6F206D616E7920726577617264657273000000000000000000 PUSH1 0x44 DUP3 ADD MSTORE PUSH1 0x64 ADD PUSH2 0x763 JUMP JUMPDEST PUSH2 0x3E8 PUSH2 0xFFFF DUP7 AND GT ISZERO PUSH2 0x9EA JUMPI PUSH1 0x40 MLOAD PUSH32 0x8C379A000000000000000000000000000000000000000000000000000000000 DUP2 MSTORE PUSH1 0x20 PUSH1 0x4 DUP3 ADD MSTORE PUSH1 0x19 PUSH1 0x24 DUP3 ADD MSTORE PUSH32 0x7365743A206465706F7369742066656520746F6F206869676800000000000000 PUSH1 0x44 DUP3 ADD MSTORE PUSH1 0x64 ADD PUSH2 0x763 JUMP JUMPDEST PUSH3 0x127500 DUP5 GT ISZERO PUSH2 0xA57 JUMPI PUSH1 0x40 MLOAD PUSH32 0x8C379A000000000000000000000000000000000000000000000000000000000 DUP2 MSTORE PUSH1 0x20 PUSH1 0x4 DUP3 ADD MSTORE PUSH1 0x1D PUSH1 0x24 DUP3 ADD MSTORE PUSH32 0x7365743A20696E76616C6964206861727665737420696E74657276616C000000 PUSH1 0x44 DUP3 ADD MSTORE PUSH1 0x64 ADD PUSH2 0x763 JUMP JUMPDEST PUSH1 0x0 JUMPDEST DUP3 DUP2 LT ISZERO PUSH2 0xB08 JUMPI PUSH2 0xA92 DUP5 DUP5 DUP4 DUP2 DUP2 LT PUSH2 0xA77 JUMPI PUSH2 0xA77 PUSH2 0x5A20 JUMP JUMPDEST SWAP1 POP PUSH1 0x20 MUL ADD PUSH1 0x20 DUP2 ADD SWAP1 PUSH2 0xA8C SWAP2 SWAP1 PUSH2 0x53FA JUMP JUMPDEST EXTCODESIZE ISZERO ISZERO SWAP1 JUMP JUMPDEST PUSH2 0xAF8 JUMPI PUSH1 0x40 MLOAD PUSH32 0x8C379A000000000000000000000000000000000000000000000000000000000 DUP2 MSTORE PUSH1 0x20 PUSH1 0x4 DUP3 ADD MSTORE PUSH1 0x1E PUSH1 0x24 DUP3 ADD MSTORE PUSH32 0x7365743A207265776172646572206D75737420626520636F6E74726163740000 PUSH1 0x44 DUP3 ADD MSTORE PUSH1 0x64 ADD PUSH2 0x763 JUMP JUMPDEST PUSH2 0xB01 DUP2 PUSH2 0x5998 JUMP JUMPDEST SWAP1 POP PUSH2 0xA5A JUMP JUMPDEST POP PUSH2 0xB11 PUSH2 0x3E24 JUMP JUMPDEST DUP6 PUSH1 0x4 DUP9 DUP2 SLOAD DUP2 LT PUSH2 0xB25 JUMPI PUSH2 0xB25 PUSH2 0x5A20 JUMP JUMPDEST SWAP1 PUSH1 0x0 MSTORE PUSH1 0x20 PUSH1 0x0 KECCAK256 SWAP1 PUSH1 0x8 MUL ADD PUSH1 0x1 ADD SLOAD PUSH1 0x6 SLOAD PUSH2 0xB44 SWAP2 SWAP1 PUSH2 0x5955 JUMP JUMPDEST PUSH2 0xB4E SWAP2 SWAP1 PUSH2 0x58C5 JUMP JUMPDEST PUSH1 0x6 DUP2 SWAP1 SSTORE POP DUP6 PUSH1 0x4 DUP9 DUP2 SLOAD DUP2 LT PUSH2 0xB68 JUMPI PUSH2 0xB68 PUSH2 0x5A20 JUMP JUMPDEST SWAP1 PUSH1 0x0 MSTORE PUSH1 0x20 PUSH1 0x0 KECCAK256 SWAP1 PUSH1 0x8 MUL ADD PUSH1 0x1 ADD DUP2 SWAP1 SSTORE POP DUP5 PUSH1 0x4 DUP9 DUP2 SLOAD DUP2 LT PUSH2 0xB91 JUMPI PUSH2 0xB91 PUSH2 0x5A20 JUMP JUMPDEST SWAP1 PUSH1 0x0 MSTORE PUSH1 0x20 PUSH1 0x0 KECCAK256 SWAP1 PUSH1 0x8 MUL ADD PUSH1 0x4 ADD PUSH1 0x0 PUSH2 0x100 EXP DUP2 SLOAD DUP2 PUSH2 0xFFFF MUL NOT AND SWAP1 DUP4 PUSH2 0xFFFF AND MUL OR SWAP1 SSTORE POP DUP4 PUSH1 0x4 DUP9 DUP2 SLOAD DUP2 LT PUSH2 0xBD0 JUMPI PUSH2 0xBD0 PUSH2 0x5A20 JUMP JUMPDEST SWAP1 PUSH1 0x0 MSTORE PUSH1 0x20 PUSH1 0x0 KECCAK256 SWAP1 PUSH1 0x8 MUL ADD PUSH1 0x5 ADD DUP2 SWAP1 SSTORE POP DUP3 DUP3 PUSH1 0x4 DUP10 DUP2 SLOAD DUP2 LT PUSH2 0xBFA JUMPI PUSH2 0xBFA PUSH2 0x5A20 JUMP JUMPDEST SWAP1 PUSH1 0x0 MSTORE PUSH1 0x20 PUSH1 0x0 KECCAK256 SWAP1 PUSH1 0x8 MUL ADD PUSH1 0x7 ADD SWAP2 SWAP1 PUSH2 0xC18 SWAP3 SWAP2 SWAP1 PUSH2 0x5285 JUMP JUMPDEST POP DUP3 DUP3 PUSH1 0x40 MLOAD PUSH2 0xC29 SWAP3 SWAP2 SWAP1 PUSH2 0x5782 JUMP JUMPDEST PUSH1 0x40 DUP1 MLOAD SWAP2 DUP3 SWAP1 SUB DUP3 KECCAK256 DUP9 DUP4 MSTORE PUSH2 0xFFFF DUP9 AND PUSH1 0x20 DUP5 ADD MSTORE SWAP1 DUP3 ADD DUP7 SWAP1 MSTORE SWAP1 DUP9 SWAP1 PUSH32 0x5ED6F0DEEF9AB49D02900B40D596DF4CD637A2A7FBFA56BBCB377389D3CE8D28 SWAP1 PUSH1 0x60 ADD PUSH1 0x40 MLOAD DUP1 SWAP2 SUB SWAP1 LOG3 POP POP POP POP POP POP POP JUMP JUMPDEST PUSH1 0x4 SLOAD PUSH1 0x0 SWAP1 DUP4 SWAP1 DUP2 LT PUSH2 0xCEF JUMPI PUSH1 0x40 MLOAD PUSH32 0x8C379A000000000000000000000000000000000000000000000000000000000 DUP2 MSTORE PUSH1 0x20 PUSH1 0x4 DUP3 ADD MSTORE PUSH1 0x13 PUSH1 0x24 DUP3 ADD MSTORE PUSH32 0x506F6F6C20646F6573206E6F7420657869737400000000000000000000000000 PUSH1 0x44 DUP3 ADD MSTORE PUSH1 0x64 ADD PUSH2 0x763 JUMP JUMPDEST PUSH1 0x0 DUP5 DUP2 MSTORE PUSH1 0x5 PUSH1 0x20 SWAP1 DUP2 MSTORE PUSH1 0x40 DUP1 DUP4 KECCAK256 PUSH20 0xFFFFFFFFFFFFFFFFFFFFFFFFFFFFFFFFFFFFFFFF DUP8 AND DUP5 MSTORE SWAP1 SWAP2 MSTORE SWAP1 KECCAK256 PUSH1 0x7 SLOAD TIMESTAMP LT DUP1 ISZERO SWAP1 PUSH2 0xD34 JUMPI POP DUP1 PUSH1 0x3 ADD SLOAD TIMESTAMP LT ISZERO JUMPDEST SWAP6 SWAP5 POP POP POP POP POP JUMP JUMPDEST PUSH1 0xC SLOAD PUSH20 0xFFFFFFFFFFFFFFFFFFFFFFFFFFFFFFFFFFFFFFFF AND CALLER EQ PUSH2 0xE0A JUMPI PUSH1 0x40 MLOAD PUSH32 0x8C379A000000000000000000000000000000000000000000000000000000000 DUP2 MSTORE PUSH1 0x20 PUSH1 0x4 DUP3 ADD MSTORE PUSH1 0x41 PUSH1 0x24 DUP3 ADD MSTORE PUSH32 0x73657420696E766573746F7220616464726573733A206F6E6C79207072657669 PUSH1 0x44 DUP3 ADD MSTORE PUSH32 0x6F757320696E766573746F722063616E2063616C6C2074686973206D6574686F PUSH1 0x64 DUP3 ADD MSTORE PUSH32 0x6400000000000000000000000000000000000000000000000000000000000000 PUSH1 0x84 DUP3 ADD MSTORE PUSH1 0xA4 ADD PUSH2 0x763 JUMP JUMPDEST PUSH20 0xFFFFFFFFFFFFFFFFFFFFFFFFFFFFFFFFFFFFFFFF DUP2 AND PUSH2 0xEAD JUMPI PUSH1 0x40 MLOAD PUSH32 0x8C379A000000000000000000000000000000000000000000000000000000000 DUP2 MSTORE PUSH1 0x20 PUSH1 0x4 DUP3 ADD MSTORE PUSH1 0x32 PUSH1 0x24 DUP3 ADD MSTORE PUSH32 0x73657420696E766573746F7220616464726573733A20696E76616C6964206E65 PUSH1 0x44 DUP3 ADD MSTORE PUSH32 0x7720696E766573746F7220616464726573730000000000000000000000000000 PUSH1 0x64 DUP3 ADD MSTORE PUSH1 0x84 ADD PUSH2 0x763 JUMP JUMPDEST PUSH1 0xC DUP1 SLOAD PUSH32 0xFFFFFFFFFFFFFFFFFFFFFFFF0000000000000000000000000000000000000000 AND PUSH20 0xFFFFFFFFFFFFFFFFFFFFFFFFFFFFFFFFFFFFFFFF DUP4 AND SWAP1 DUP2 OR SWAP1 SWAP2 SSTORE PUSH1 0x40 MLOAD CALLER SWAP1 PUSH32 0x6260CB34F06B782E83BDE168F7D74AB2133041CB53B63CE22B127822A92B6791 SWAP1 PUSH1 0x0 SWAP1 LOG3 POP JUMP JUMPDEST PUSH1 0x2 PUSH1 0x1 SLOAD EQ ISZERO PUSH2 0xF8B JUMPI PUSH1 0x40 MLOAD PUSH32 0x8C379A000000000000000000000000000000000000000000000000000000000 DUP2 MSTORE PUSH1 0x20 PUSH1 0x4 DUP3 ADD MSTORE PUSH1 0x1F PUSH1 0x24 DUP3 ADD MSTORE PUSH32 0x5265656E7472616E637947756172643A207265656E7472616E742063616C6C00 PUSH1 0x44 DUP3 ADD MSTORE PUSH1 0x64 ADD PUSH2 0x763 JUMP JUMPDEST PUSH1 0x2 PUSH1 0x1 SSTORE PUSH1 0x4 SLOAD DUP3 SWAP1 DUP2 LT PUSH2 0xFFD JUMPI PUSH1 0x40 MLOAD PUSH32 0x8C379A000000000000000000000000000000000000000000000000000000000 DUP2 MSTORE PUSH1 0x20 PUSH1 0x4 DUP3 ADD MSTORE PUSH1 0x13 PUSH1 0x24 DUP3 ADD MSTORE PUSH32 0x506F6F6C20646F6573206E6F7420657869737400000000000000000000000000 PUSH1 0x44 DUP3 ADD MSTORE PUSH1 0x64 ADD PUSH2 0x763 JUMP JUMPDEST PUSH1 0x0 PUSH1 0x4 DUP5 DUP2 SLOAD DUP2 LT PUSH2 0x1012 JUMPI PUSH2 0x1012 PUSH2 0x5A20 JUMP JUMPDEST PUSH1 0x0 SWAP2 DUP3 MSTORE PUSH1 0x20 DUP1 DUP4 KECCAK256 DUP8 DUP5 MSTORE PUSH1 0x5 DUP3 MSTORE PUSH1 0x40 DUP1 DUP6 KECCAK256 CALLER DUP7 MSTORE SWAP1 SWAP3 MSTORE SWAP3 KECCAK256 DUP1 SLOAD PUSH1 0x8 SWAP1 SWAP3 MUL SWAP1 SWAP3 ADD SWAP3 POP DUP5 GT ISZERO PUSH2 0x10A5 JUMPI PUSH1 0x40 MLOAD PUSH32 0x8C379A000000000000000000000000000000000000000000000000000000000 DUP2 MSTORE PUSH1 0x20 PUSH1 0x4 DUP3 ADD DUP2 SWAP1 MSTORE PUSH1 0x24 DUP3 ADD MSTORE PUSH32 0x77697468647261773A207573657220616D6F756E74206E6F7420656E6F756768 PUSH1 0x44 DUP3 ADD MSTORE PUSH1 0x64 ADD PUSH2 0x763 JUMP JUMPDEST DUP4 DUP3 PUSH1 0x6 ADD SLOAD LT ISZERO PUSH2 0x1113 JUMPI PUSH1 0x40 MLOAD PUSH32 0x8C379A000000000000000000000000000000000000000000000000000000000 DUP2 MSTORE PUSH1 0x20 PUSH1 0x4 DUP3 ADD MSTORE PUSH1 0x1F PUSH1 0x24 DUP3 ADD MSTORE PUSH32 0x77697468647261773A20706F6F6C20746F74616C206E6F7420656E6F75676800 PUSH1 0x44 DUP3 ADD MSTORE PUSH1 0x64 ADD PUSH2 0x763 JUMP JUMPDEST PUSH2 0x111C DUP6 PUSH2 0x3E4A JUMP JUMPDEST PUSH2 0x1125 DUP6 PUSH2 0x434D JUMP JUMPDEST DUP4 ISZERO PUSH2 0x11A4 JUMPI DUP4 DUP2 PUSH1 0x0 ADD PUSH1 0x0 DUP3 DUP3 SLOAD PUSH2 0x113F SWAP2 SWAP1 PUSH2 0x5955 JUMP JUMPDEST SWAP1 SWAP2 SSTORE POP POP PUSH1 0x2 SLOAD DUP3 SLOAD PUSH20 0xFFFFFFFFFFFFFFFFFFFFFFFFFFFFFFFFFFFFFFFF SWAP1 DUP2 AND SWAP2 AND EQ ISZERO PUSH2 0x1181 JUMPI DUP4 PUSH1 0x9 PUSH1 0x0 DUP3 DUP3 SLOAD PUSH2 0x117B SWAP2 SWAP1 PUSH2 0x5955 JUMP JUMPDEST SWAP1 SWAP2 SSTORE POP POP JUMPDEST DUP2 SLOAD PUSH2 0x11A4 SWAP1 PUSH20 0xFFFFFFFFFFFFFFFFFFFFFFFFFFFFFFFFFFFFFFFF AND CALLER DUP7 PUSH2 0x4502 JUMP JUMPDEST PUSH1 0x3 DUP3 ADD SLOAD DUP2 SLOAD PUSH32 0x0 SWAP2 PUSH2 0x11D6 SWAP2 PUSH2 0x5918 JUMP JUMPDEST PUSH2 0x11E0 SWAP2 SWAP1 PUSH2 0x58DD JUMP JUMPDEST PUSH1 0x1 DUP3 ADD SSTORE PUSH1 0x0 JUMPDEST PUSH1 0x7 DUP4 ADD SLOAD DUP2 LT ISZERO PUSH2 0x12B7 JUMPI DUP3 PUSH1 0x7 ADD DUP2 DUP2 SLOAD DUP2 LT PUSH2 0x1209 JUMPI PUSH2 0x1209 PUSH2 0x5A20 JUMP JUMPDEST PUSH1 0x0 SWAP2 DUP3 MSTORE PUSH1 0x20 SWAP1 SWAP2 KECCAK256 ADD SLOAD DUP3 SLOAD PUSH1 0x40 MLOAD PUSH32 0x8AD1472800000000000000000000000000000000000000000000000000000000 DUP2 MSTORE PUSH1 0x4 DUP2 ADD DUP10 SWAP1 MSTORE CALLER PUSH1 0x24 DUP3 ADD MSTORE PUSH1 0x44 DUP2 ADD SWAP2 SWAP1 SWAP2 MSTORE PUSH20 0xFFFFFFFFFFFFFFFFFFFFFFFFFFFFFFFFFFFFFFFF SWAP1 SWAP2 AND SWAP1 PUSH4 0x8AD14728 SWAP1 PUSH1 0x64 ADD PUSH1 0x0 PUSH1 0x40 MLOAD DUP1 DUP4 SUB DUP2 PUSH1 0x0 DUP8 DUP1 EXTCODESIZE ISZERO DUP1 ISZERO PUSH2 0x128E JUMPI PUSH1 0x0 DUP1 REVERT JUMPDEST POP GAS CALL ISZERO DUP1 ISZERO PUSH2 0x12A2 JUMPI RETURNDATASIZE PUSH1 0x0 DUP1 RETURNDATACOPY RETURNDATASIZE PUSH1 0x0 REVERT JUMPDEST POP POP POP POP DUP1 PUSH2 0x12B0 SWAP1 PUSH2 0x5998 JUMP JUMPDEST SWAP1 POP PUSH2 0x11E8 JUMP JUMPDEST POP DUP4 ISZERO PUSH2 0x12D8 JUMPI DUP4 DUP3 PUSH1 0x6 ADD PUSH1 0x0 DUP3 DUP3 SLOAD PUSH2 0x12D2 SWAP2 SWAP1 PUSH2 0x5955 JUMP JUMPDEST SWAP1 SWAP2 SSTORE POP POP JUMPDEST PUSH1 0x40 MLOAD DUP5 DUP2 MSTORE DUP6 SWAP1 CALLER SWAP1 PUSH32 0xF279E6A1F5E320CCA91135676D9CB6E44CA8A08C0B88342BCDB1144F6511B568 SWAP1 PUSH1 0x20 ADD PUSH1 0x40 MLOAD DUP1 SWAP2 SUB SWAP1 LOG3 POP POP PUSH1 0x1 DUP1 SSTORE POP POP POP JUMP JUMPDEST PUSH1 0x60 DUP1 PUSH1 0x60 DUP1 DUP5 PUSH1 0x4 DUP1 SLOAD SWAP1 POP DUP2 LT PUSH2 0x138F JUMPI PUSH1 0x40 MLOAD PUSH32 0x8C379A000000000000000000000000000000000000000000000000000000000 DUP2 MSTORE PUSH1 0x20 PUSH1 0x4 DUP3 ADD MSTORE PUSH1 0x13 PUSH1 0x24 DUP3 ADD MSTORE PUSH32 0x506F6F6C20646F6573206E6F7420657869737400000000000000000000000000 PUSH1 0x44 DUP3 ADD MSTORE PUSH1 0x64 ADD PUSH2 0x763 JUMP JUMPDEST PUSH1 0x0 PUSH1 0x4 DUP8 DUP2 SLOAD DUP2 LT PUSH2 0x13A4 JUMPI PUSH2 0x13A4 PUSH2 0x5A20 JUMP JUMPDEST SWAP1 PUSH1 0x0 MSTORE PUSH1 0x20 PUSH1 0x0 KECCAK256 SWAP1 PUSH1 0x8 MUL ADD SWAP1 POP DUP1 PUSH1 0x7 ADD DUP1 SLOAD SWAP1 POP PUSH1 0x1 PUSH2 0x13C8 SWAP2 SWAP1 PUSH2 0x58C5 JUMP JUMPDEST PUSH8 0xFFFFFFFFFFFFFFFF DUP2 GT ISZERO PUSH2 0x13E0 JUMPI PUSH2 0x13E0 PUSH2 0x5A4F JUMP JUMPDEST PUSH1 0x40 MLOAD SWAP1 DUP1 DUP3 MSTORE DUP1 PUSH1 0x20 MUL PUSH1 0x20 ADD DUP3 ADD PUSH1 0x40 MSTORE DUP1 ISZERO PUSH2 0x1409 JUMPI DUP2 PUSH1 0x20 ADD PUSH1 0x20 DUP3 MUL DUP1 CALLDATASIZE DUP4 CALLDATACOPY ADD SWAP1 POP JUMPDEST POP PUSH1 0x7 DUP3 ADD SLOAD SWAP1 SWAP7 POP PUSH2 0x141D SWAP1 PUSH1 0x1 PUSH2 0x58C5 JUMP JUMPDEST PUSH8 0xFFFFFFFFFFFFFFFF DUP2 GT ISZERO PUSH2 0x1435 JUMPI PUSH2 0x1435 PUSH2 0x5A4F JUMP JUMPDEST PUSH1 0x40 MLOAD SWAP1 DUP1 DUP3 MSTORE DUP1 PUSH1 0x20 MUL PUSH1 0x20 ADD DUP3 ADD PUSH1 0x40 MSTORE DUP1 ISZERO PUSH2 0x1468 JUMPI DUP2 PUSH1 0x20 ADD JUMPDEST PUSH1 0x60 DUP2 MSTORE PUSH1 0x20 ADD SWAP1 PUSH1 0x1 SWAP1 SUB SWAP1 DUP2 PUSH2 0x1453 JUMPI SWAP1 POP JUMPDEST POP PUSH1 0x7 DUP3 ADD SLOAD SWAP1 SWAP6 POP PUSH2 0x147C SWAP1 PUSH1 0x1 PUSH2 0x58C5 JUMP JUMPDEST PUSH8 0xFFFFFFFFFFFFFFFF DUP2 GT ISZERO PUSH2 0x1494 JUMPI PUSH2 0x1494 PUSH2 0x5A4F JUMP JUMPDEST PUSH1 0x40 MLOAD SWAP1 DUP1 DUP3 MSTORE DUP1 PUSH1 0x20 MUL PUSH1 0x20 ADD DUP3 ADD PUSH1 0x40 MSTORE DUP1 ISZERO PUSH2 0x14BD JUMPI DUP2 PUSH1 0x20 ADD PUSH1 0x20 DUP3 MUL DUP1 CALLDATASIZE DUP4 CALLDATACOPY ADD SWAP1 POP JUMPDEST POP PUSH1 0x7 DUP3 ADD SLOAD SWAP1 SWAP5 POP PUSH2 0x14D1 SWAP1 PUSH1 0x1 PUSH2 0x58C5 JUMP JUMPDEST PUSH8 0xFFFFFFFFFFFFFFFF DUP2 GT ISZERO PUSH2 0x14E9 JUMPI PUSH2 0x14E9 PUSH2 0x5A4F JUMP JUMPDEST PUSH1 0x40 MLOAD SWAP1 DUP1 DUP3 MSTORE DUP1 PUSH1 0x20 MUL PUSH1 0x20 ADD DUP3 ADD PUSH1 0x40 MSTORE DUP1 ISZERO PUSH2 0x1512 JUMPI DUP2 PUSH1 0x20 ADD PUSH1 0x20 DUP3 MUL DUP1 CALLDATASIZE DUP4 CALLDATACOPY ADD SWAP1 POP JUMPDEST POP PUSH1 0x2 SLOAD DUP8 MLOAD SWAP2 SWAP5 POP PUSH20 0xFFFFFFFFFFFFFFFFFFFFFFFFFFFFFFFFFFFFFFFF AND SWAP1 DUP8 SWAP1 PUSH1 0x0 SWAP1 PUSH2 0x1543 JUMPI PUSH2 0x1543 PUSH2 0x5A20 JUMP JUMPDEST PUSH20 0xFFFFFFFFFFFFFFFFFFFFFFFFFFFFFFFFFFFFFFFF SWAP3 DUP4 AND PUSH1 0x20 SWAP2 DUP3 MUL SWAP3 SWAP1 SWAP3 ADD ADD MSTORE PUSH1 0x2 SLOAD PUSH2 0x1573 SWAP2 AND PUSH2 0x4672 JUMP JUMPDEST DUP6 PUSH1 0x0 DUP2 MLOAD DUP2 LT PUSH2 0x1586 JUMPI PUSH2 0x1586 PUSH2 0x5A20 JUMP JUMPDEST PUSH1 0x20 SWAP1 DUP2 MUL SWAP2 SWAP1 SWAP2 ADD ADD MSTORE PUSH1 0x2 SLOAD PUSH2 0x15B3 SWAP1 PUSH20 0xFFFFFFFFFFFFFFFFFFFFFFFFFFFFFFFFFFFFFFFF AND PUSH2 0x478A JUMP JUMPDEST PUSH1 0xFF AND DUP5 PUSH1 0x0 DUP2 MLOAD DUP2 LT PUSH2 0x15C9 JUMPI PUSH2 0x15C9 PUSH2 0x5A20 JUMP JUMPDEST PUSH1 0x20 MUL PUSH1 0x20 ADD ADD DUP2 DUP2 MSTORE POP POP PUSH1 0x0 PUSH2 0x3E8 SWAP1 POP PUSH1 0x0 PUSH1 0xF SLOAD PUSH1 0xE SLOAD PUSH1 0xD SLOAD DUP5 PUSH2 0x15F2 SWAP2 SWAP1 PUSH2 0x5955 JUMP JUMPDEST PUSH2 0x15FC SWAP2 SWAP1 PUSH2 0x5955 JUMP JUMPDEST PUSH2 0x1606 SWAP2 SWAP1 PUSH2 0x5955 JUMP JUMPDEST SWAP1 POP DUP2 PUSH1 0x6 SLOAD DUP3 PUSH1 0x3 SLOAD DUP7 PUSH1 0x1 ADD SLOAD PUSH2 0x161F SWAP2 SWAP1 PUSH2 0x5918 JUMP JUMPDEST PUSH2 0x1629 SWAP2 SWAP1 PUSH2 0x5918 JUMP JUMPDEST PUSH2 0x1633 SWAP2 SWAP1 PUSH2 0x58DD JUMP JUMPDEST PUSH2 0x163D SWAP2 SWAP1 PUSH2 0x58DD JUMP JUMPDEST DUP6 PUSH1 0x0 DUP2 MLOAD DUP2 LT PUSH2 0x1650 JUMPI PUSH2 0x1650 PUSH2 0x5A20 JUMP JUMPDEST PUSH1 0x20 MUL PUSH1 0x20 ADD ADD DUP2 DUP2 MSTORE POP POP PUSH1 0x0 JUMPDEST PUSH1 0x7 DUP5 ADD SLOAD DUP2 LT ISZERO PUSH2 0x1A7A JUMPI DUP4 PUSH1 0x7 ADD DUP2 DUP2 SLOAD DUP2 LT PUSH2 0x1680 JUMPI PUSH2 0x1680 PUSH2 0x5A20 JUMP JUMPDEST PUSH1 0x0 SWAP2 DUP3 MSTORE PUSH1 0x20 SWAP2 DUP3 SWAP1 KECCAK256 ADD SLOAD PUSH1 0x40 DUP1 MLOAD PUSH32 0xF7C618C100000000000000000000000000000000000000000000000000000000 DUP2 MSTORE SWAP1 MLOAD PUSH20 0xFFFFFFFFFFFFFFFFFFFFFFFFFFFFFFFFFFFFFFFF SWAP1 SWAP3 AND SWAP3 PUSH4 0xF7C618C1 SWAP3 PUSH1 0x4 DUP1 DUP5 ADD SWAP4 DUP3 SWAP1 SUB ADD DUP2 DUP7 DUP1 EXTCODESIZE ISZERO DUP1 ISZERO PUSH2 0x16EF JUMPI PUSH1 0x0 DUP1 REVERT JUMPDEST POP GAS STATICCALL ISZERO DUP1 ISZERO PUSH2 0x1703 JUMPI RETURNDATASIZE PUSH1 0x0 DUP1 RETURNDATACOPY RETURNDATASIZE PUSH1 0x0 REVERT JUMPDEST POP POP POP POP PUSH1 0x40 MLOAD RETURNDATASIZE PUSH1 0x1F NOT PUSH1 0x1F DUP3 ADD AND DUP3 ADD DUP1 PUSH1 0x40 MSTORE POP DUP2 ADD SWAP1 PUSH2 0x1727 SWAP2 SWAP1 PUSH2 0x547B JUMP JUMPDEST DUP10 PUSH2 0x1733 DUP4 PUSH1 0x1 PUSH2 0x58C5 JUMP JUMPDEST DUP2 MLOAD DUP2 LT PUSH2 0x1743 JUMPI PUSH2 0x1743 PUSH2 0x5A20 JUMP JUMPDEST PUSH1 0x20 MUL PUSH1 0x20 ADD ADD SWAP1 PUSH20 0xFFFFFFFFFFFFFFFFFFFFFFFFFFFFFFFFFFFFFFFF AND SWAP1 DUP2 PUSH20 0xFFFFFFFFFFFFFFFFFFFFFFFFFFFFFFFFFFFFFFFF AND DUP2 MSTORE POP POP PUSH2 0x1857 DUP5 PUSH1 0x7 ADD DUP3 DUP2 SLOAD DUP2 LT PUSH2 0x1795 JUMPI PUSH2 0x1795 PUSH2 0x5A20 JUMP JUMPDEST PUSH1 0x0 SWAP2 DUP3 MSTORE PUSH1 0x20 SWAP2 DUP3 SWAP1 KECCAK256 ADD SLOAD PUSH1 0x40 DUP1 MLOAD PUSH32 0xF7C618C100000000000000000000000000000000000000000000000000000000 DUP2 MSTORE SWAP1 MLOAD PUSH20 0xFFFFFFFFFFFFFFFFFFFFFFFFFFFFFFFFFFFFFFFF SWAP1 SWAP3 AND SWAP3 PUSH4 0xF7C618C1 SWAP3 PUSH1 0x4 DUP1 DUP5 ADD SWAP4 DUP3 SWAP1 SUB ADD DUP2 DUP7 DUP1 EXTCODESIZE ISZERO DUP1 ISZERO PUSH2 0x1804 JUMPI PUSH1 0x0 DUP1 REVERT JUMPDEST POP GAS STATICCALL ISZERO DUP1 ISZERO PUSH2 0x1818 JUMPI RETURNDATASIZE PUSH1 0x0 DUP1 RETURNDATACOPY RETURNDATASIZE PUSH1 0x0 REVERT JUMPDEST POP POP POP POP PUSH1 0x40 MLOAD RETURNDATASIZE PUSH1 0x1F NOT PUSH1 0x1F DUP3 ADD AND DUP3 ADD DUP1 PUSH1 0x40 MSTORE POP DUP2 ADD SWAP1 PUSH2 0x183C SWAP2 SWAP1 PUSH2 0x547B JUMP JUMPDEST PUSH20 0xFFFFFFFFFFFFFFFFFFFFFFFFFFFFFFFFFFFFFFFF AND PUSH2 0x4672 JUMP JUMPDEST DUP9 PUSH2 0x1863 DUP4 PUSH1 0x1 PUSH2 0x58C5 JUMP JUMPDEST DUP2 MLOAD DUP2 LT PUSH2 0x1873 JUMPI PUSH2 0x1873 PUSH2 0x5A20 JUMP JUMPDEST PUSH1 0x20 MUL PUSH1 0x20 ADD ADD DUP2 SWAP1 MSTORE POP PUSH2 0x1958 DUP5 PUSH1 0x7 ADD DUP3 DUP2 SLOAD DUP2 LT PUSH2 0x1896 JUMPI PUSH2 0x1896 PUSH2 0x5A20 JUMP JUMPDEST PUSH1 0x0 SWAP2 DUP3 MSTORE PUSH1 0x20 SWAP2 DUP3 SWAP1 KECCAK256 ADD SLOAD PUSH1 0x40 DUP1 MLOAD PUSH32 0xF7C618C100000000000000000000000000000000000000000000000000000000 DUP2 MSTORE SWAP1 MLOAD PUSH20 0xFFFFFFFFFFFFFFFFFFFFFFFFFFFFFFFFFFFFFFFF SWAP1 SWAP3 AND SWAP3 PUSH4 0xF7C618C1 SWAP3 PUSH1 0x4 DUP1 DUP5 ADD SWAP4 DUP3 SWAP1 SUB ADD DUP2 DUP7 DUP1 EXTCODESIZE ISZERO DUP1 ISZERO PUSH2 0x1905 JUMPI PUSH1 0x0 DUP1 REVERT JUMPDEST POP GAS STATICCALL ISZERO DUP1 ISZERO PUSH2 0x1919 JUMPI RETURNDATASIZE PUSH1 0x0 DUP1 RETURNDATACOPY RETURNDATASIZE PUSH1 0x0 REVERT JUMPDEST POP POP POP POP PUSH1 0x40 MLOAD RETURNDATASIZE PUSH1 0x1F NOT PUSH1 0x1F DUP3 ADD AND DUP3 ADD DUP1 PUSH1 0x40 MSTORE POP DUP2 ADD SWAP1 PUSH2 0x193D SWAP2 SWAP1 PUSH2 0x547B JUMP JUMPDEST PUSH20 0xFFFFFFFFFFFFFFFFFFFFFFFFFFFFFFFFFFFFFFFF AND PUSH2 0x478A JUMP JUMPDEST PUSH1 0xFF AND DUP8 PUSH2 0x1967 DUP4 PUSH1 0x1 PUSH2 0x58C5 JUMP JUMPDEST DUP2 MLOAD DUP2 LT PUSH2 0x1977 JUMPI PUSH2 0x1977 PUSH2 0x5A20 JUMP JUMPDEST PUSH1 0x20 MUL PUSH1 0x20 ADD ADD DUP2 DUP2 MSTORE POP POP DUP4 PUSH1 0x7 ADD DUP2 DUP2 SLOAD DUP2 LT PUSH2 0x1998 JUMPI PUSH2 0x1998 PUSH2 0x5A20 JUMP JUMPDEST PUSH1 0x0 SWAP2 DUP3 MSTORE PUSH1 0x20 SWAP1 SWAP2 KECCAK256 ADD SLOAD PUSH1 0x40 MLOAD PUSH32 0x465E81EC00000000000000000000000000000000000000000000000000000000 DUP2 MSTORE PUSH1 0x4 DUP2 ADD DUP13 SWAP1 MSTORE PUSH20 0xFFFFFFFFFFFFFFFFFFFFFFFFFFFFFFFFFFFFFFFF SWAP1 SWAP2 AND SWAP1 PUSH4 0x465E81EC SWAP1 PUSH1 0x24 ADD PUSH1 0x20 PUSH1 0x40 MLOAD DUP1 DUP4 SUB DUP2 DUP7 DUP1 EXTCODESIZE ISZERO DUP1 ISZERO PUSH2 0x1A0B JUMPI PUSH1 0x0 DUP1 REVERT JUMPDEST POP GAS STATICCALL ISZERO DUP1 ISZERO PUSH2 0x1A1F JUMPI RETURNDATASIZE PUSH1 0x0 DUP1 RETURNDATACOPY RETURNDATASIZE PUSH1 0x0 REVERT JUMPDEST POP POP POP POP PUSH1 0x40 MLOAD RETURNDATASIZE PUSH1 0x1F NOT PUSH1 0x1F DUP3 ADD AND DUP3 ADD DUP1 PUSH1 0x40 MSTORE POP DUP2 ADD SWAP1 PUSH2 0x1A43 SWAP2 SWAP1 PUSH2 0x557C JUMP JUMPDEST DUP7 PUSH2 0x1A4F DUP4 PUSH1 0x1 PUSH2 0x58C5 JUMP JUMPDEST DUP2 MLOAD DUP2 LT PUSH2 0x1A5F JUMPI PUSH2 0x1A5F PUSH2 0x5A20 JUMP JUMPDEST PUSH1 0x20 SWAP1 DUP2 MUL SWAP2 SWAP1 SWAP2 ADD ADD MSTORE PUSH2 0x1A73 DUP2 PUSH2 0x5998 JUMP JUMPDEST SWAP1 POP PUSH2 0x165F JUMP JUMPDEST POP POP POP POP POP SWAP2 SWAP4 POP SWAP2 SWAP4 JUMP JUMPDEST PUSH1 0x0 SLOAD PUSH20 0xFFFFFFFFFFFFFFFFFFFFFFFFFFFFFFFFFFFFFFFF AND CALLER EQ PUSH2 0x1B07 JUMPI PUSH1 0x40 MLOAD PUSH32 0x8C379A000000000000000000000000000000000000000000000000000000000 DUP2 MSTORE PUSH1 0x20 PUSH1 0x4 DUP3 ADD DUP2 SWAP1 MSTORE PUSH1 0x24 DUP3 ADD MSTORE PUSH32 0x4F776E61626C653A2063616C6C6572206973206E6F7420746865206F776E6572 PUSH1 0x44 DUP3 ADD MSTORE PUSH1 0x64 ADD PUSH2 0x763 JUMP JUMPDEST PUSH1 0xA DUP2 GT ISZERO PUSH2 0x1B72 JUMPI PUSH1 0x40 MLOAD PUSH32 0x8C379A000000000000000000000000000000000000000000000000000000000 DUP2 MSTORE PUSH1 0x20 PUSH1 0x4 DUP3 ADD MSTORE PUSH1 0x17 PUSH1 0x24 DUP3 ADD MSTORE PUSH32 0x6164643A20746F6F206D616E7920726577617264657273000000000000000000 PUSH1 0x44 DUP3 ADD MSTORE PUSH1 0x64 ADD PUSH2 0x763 JUMP JUMPDEST PUSH2 0x3E8 PUSH2 0xFFFF DUP6 AND GT ISZERO PUSH2 0x1BE2 JUMPI PUSH1 0x40 MLOAD PUSH32 0x8C379A000000000000000000000000000000000000000000000000000000000 DUP2 MSTORE PUSH1 0x20 PUSH1 0x4 DUP3 ADD MSTORE PUSH1 0x19 PUSH1 0x24 DUP3 ADD MSTORE PUSH32 0x6164643A206465706F7369742066656520746F6F206869676800000000000000 PUSH1 0x44 DUP3 ADD MSTORE PUSH1 0x64 ADD PUSH2 0x763 JUMP JUMPDEST PUSH3 0x127500 DUP4 GT ISZERO PUSH2 0x1C4F JUMPI PUSH1 0x40 MLOAD PUSH32 0x8C379A000000000000000000000000000000000000000000000000000000000 DUP2 MSTORE PUSH1 0x20 PUSH1 0x4 DUP3 ADD MSTORE PUSH1 0x1D PUSH1 0x24 DUP3 ADD MSTORE PUSH32 0x6164643A20696E76616C6964206861727665737420696E74657276616C000000 PUSH1 0x44 DUP3 ADD MSTORE PUSH1 0x64 ADD PUSH2 0x763 JUMP JUMPDEST DUP5 EXTCODESIZE PUSH2 0x1CDD JUMPI PUSH1 0x40 MLOAD PUSH32 0x8C379A000000000000000000000000000000000000000000000000000000000 DUP2 MSTORE PUSH1 0x20 PUSH1 0x4 DUP3 ADD MSTORE PUSH1 0x26 PUSH1 0x24 DUP3 ADD MSTORE PUSH32 0x6164643A204C5020746F6B656E206D75737420626520612076616C696420636F PUSH1 0x44 DUP3 ADD MSTORE PUSH32 0x6E74726163740000000000000000000000000000000000000000000000000000 PUSH1 0x64 DUP3 ADD MSTORE PUSH1 0x84 ADD PUSH2 0x763 JUMP JUMPDEST PUSH1 0x0 JUMPDEST DUP2 DUP2 LT ISZERO PUSH2 0x1D73 JUMPI PUSH2 0x1CFD DUP4 DUP4 DUP4 DUP2 DUP2 LT PUSH2 0xA77 JUMPI PUSH2 0xA77 PUSH2 0x5A20 JUMP JUMPDEST PUSH2 0x1D63 JUMPI PUSH1 0x40 MLOAD PUSH32 0x8C379A000000000000000000000000000000000000000000000000000000000 DUP2 MSTORE PUSH1 0x20 PUSH1 0x4 DUP3 ADD MSTORE PUSH1 0x1E PUSH1 0x24 DUP3 ADD MSTORE PUSH32 0x6164643A207265776172646572206D75737420626520636F6E74726163740000 PUSH1 0x44 DUP3 ADD MSTORE PUSH1 0x64 ADD PUSH2 0x763 JUMP JUMPDEST PUSH2 0x1D6C DUP2 PUSH2 0x5998 JUMP JUMPDEST SWAP1 POP PUSH2 0x1CE0 JUMP JUMPDEST POP PUSH2 0x1D7C PUSH2 0x3E24 JUMP JUMPDEST PUSH1 0x0 PUSH1 0x7 SLOAD TIMESTAMP GT PUSH2 0x1D8F JUMPI PUSH1 0x7 SLOAD PUSH2 0x1D91 JUMP JUMPDEST TIMESTAMP JUMPDEST SWAP1 POP DUP7 PUSH1 0x6 PUSH1 0x0 DUP3 DUP3 SLOAD PUSH2 0x1DA5 SWAP2 SWAP1 PUSH2 0x58C5 JUMP JUMPDEST SWAP3 POP POP DUP2 SWAP1 SSTORE POP PUSH1 0x4 PUSH1 0x40 MLOAD DUP1 PUSH2 0x100 ADD PUSH1 0x40 MSTORE DUP1 DUP9 PUSH20 0xFFFFFFFFFFFFFFFFFFFFFFFFFFFFFFFFFFFFFFFF AND DUP2 MSTORE PUSH1 0x20 ADD DUP10 DUP2 MSTORE PUSH1 0x20 ADD DUP4 DUP2 MSTORE PUSH1 0x20 ADD PUSH1 0x0 DUP2 MSTORE PUSH1 0x20 ADD DUP8 PUSH2 0xFFFF AND DUP2 MSTORE PUSH1 0x20 ADD DUP7 DUP2 MSTORE PUSH1 0x20 ADD PUSH1 0x0 DUP2 MSTORE PUSH1 0x20 ADD DUP6 DUP6 DUP1 DUP1 PUSH1 0x20 MUL PUSH1 0x20 ADD PUSH1 0x40 MLOAD SWAP1 DUP2 ADD PUSH1 0x40 MSTORE DUP1 SWAP4 SWAP3 SWAP2 SWAP1 DUP2 DUP2 MSTORE PUSH1 0x20 ADD DUP4 DUP4 PUSH1 0x20 MUL DUP1 DUP3 DUP5 CALLDATACOPY PUSH1 0x0 SWAP3 ADD DUP3 SWAP1 MSTORE POP SWAP4 SWAP1 SWAP5 MSTORE POP POP DUP4 SLOAD PUSH1 0x1 DUP1 DUP3 ADD DUP7 SSTORE SWAP5 DUP3 MSTORE PUSH1 0x20 SWAP2 DUP3 SWAP1 KECCAK256 DUP5 MLOAD PUSH1 0x8 SWAP1 SWAP3 MUL ADD DUP1 SLOAD PUSH32 0xFFFFFFFFFFFFFFFFFFFFFFFF0000000000000000000000000000000000000000 AND PUSH20 0xFFFFFFFFFFFFFFFFFFFFFFFFFFFFFFFFFFFFFFFF SWAP1 SWAP3 AND SWAP2 SWAP1 SWAP2 OR DUP2 SSTORE DUP4 DUP3 ADD MLOAD SWAP5 DUP2 ADD SWAP5 SWAP1 SWAP5 SSTORE PUSH1 0x40 DUP4 ADD MLOAD PUSH1 0x2 DUP6 ADD SSTORE PUSH1 0x60 DUP4 ADD MLOAD PUSH1 0x3 DUP6 ADD SSTORE PUSH1 0x80 DUP4 ADD MLOAD PUSH1 0x4 DUP6 ADD DUP1 SLOAD PUSH32 0xFFFFFFFFFFFFFFFFFFFFFFFFFFFFFFFFFFFFFFFFFFFFFFFFFFFFFFFFFFFF0000 AND PUSH2 0xFFFF SWAP1 SWAP3 AND SWAP2 SWAP1 SWAP2 OR SWAP1 SSTORE PUSH1 0xA0 DUP4 ADD MLOAD PUSH1 0x5 DUP6 ADD SSTORE PUSH1 0xC0 DUP4 ADD MLOAD PUSH1 0x6 DUP6 ADD SSTORE PUSH1 0xE0 DUP4 ADD MLOAD DUP1 MLOAD SWAP4 SWAP5 SWAP4 PUSH2 0x1F1B SWAP4 POP PUSH1 0x7 DUP6 ADD SWAP3 SWAP2 SWAP1 SWAP2 ADD SWAP1 PUSH2 0x530D JUMP JUMPDEST POP POP POP DUP3 DUP3 PUSH1 0x40 MLOAD PUSH2 0x1F2E SWAP3 SWAP2 SWAP1 PUSH2 0x5782 JUMP JUMPDEST PUSH1 0x40 MLOAD SWAP1 DUP2 SWAP1 SUB SWAP1 KECCAK256 PUSH1 0x4 SLOAD PUSH20 0xFFFFFFFFFFFFFFFFFFFFFFFFFFFFFFFFFFFFFFFF DUP9 AND SWAP1 PUSH2 0x1F5E SWAP1 PUSH1 0x1 SWAP1 PUSH2 0x5955 JUMP JUMPDEST PUSH1 0x40 DUP1 MLOAD DUP12 DUP2 MSTORE PUSH2 0xFFFF DUP11 AND PUSH1 0x20 DUP3 ADD MSTORE SWAP1 DUP2 ADD DUP9 SWAP1 MSTORE PUSH32 0x5ED295C4F5AF5AEB1CCD905E1CD55A86AB3BB9FC1FE2346FF64AC47DBEF36661 SWAP1 PUSH1 0x60 ADD PUSH1 0x40 MLOAD DUP1 SWAP2 SUB SWAP1 LOG4 POP POP POP POP POP POP POP JUMP JUMPDEST PUSH1 0x2 PUSH1 0x1 SLOAD EQ ISZERO PUSH2 0x2018 JUMPI PUSH1 0x40 MLOAD PUSH32 0x8C379A000000000000000000000000000000000000000000000000000000000 DUP2 MSTORE PUSH1 0x20 PUSH1 0x4 DUP3 ADD MSTORE PUSH1 0x1F PUSH1 0x24 DUP3 ADD MSTORE PUSH32 0x5265656E7472616E637947756172643A207265656E7472616E742063616C6C00 PUSH1 0x44 DUP3 ADD MSTORE PUSH1 0x64 ADD PUSH2 0x763 JUMP JUMPDEST PUSH1 0x2 PUSH1 0x1 SSTORE PUSH1 0x4 SLOAD DUP7 SWAP1 DUP2 LT PUSH2 0x208A JUMPI PUSH1 0x40 MLOAD PUSH32 0x8C379A000000000000000000000000000000000000000000000000000000000 DUP2 MSTORE PUSH1 0x20 PUSH1 0x4 DUP3 ADD MSTORE PUSH1 0x13 PUSH1 0x24 DUP3 ADD MSTORE PUSH32 0x506F6F6C20646F6573206E6F7420657869737400000000000000000000000000 PUSH1 0x44 DUP3 ADD MSTORE PUSH1 0x64 ADD PUSH2 0x763 JUMP JUMPDEST PUSH1 0x0 PUSH1 0x4 DUP9 DUP2 SLOAD DUP2 LT PUSH2 0x209F JUMPI PUSH2 0x209F PUSH2 0x5A20 JUMP JUMPDEST PUSH1 0x0 SWAP2 DUP3 MSTORE PUSH1 0x20 SWAP1 SWAP2 KECCAK256 PUSH1 0x8 SWAP1 SWAP2 MUL ADD DUP1 SLOAD PUSH1 0x40 MLOAD PUSH32 0xD505ACCF00000000000000000000000000000000000000000000000000000000 DUP2 MSTORE CALLER PUSH1 0x4 DUP3 ADD MSTORE ADDRESS PUSH1 0x24 DUP3 ADD MSTORE PUSH1 0x44 DUP2 ADD DUP11 SWAP1 MSTORE PUSH1 0x64 DUP2 ADD DUP10 SWAP1 MSTORE PUSH1 0xFF DUP9 AND PUSH1 0x84 DUP3 ADD MSTORE PUSH1 0xA4 DUP2 ADD DUP8 SWAP1 MSTORE PUSH1 0xC4 DUP2 ADD DUP7 SWAP1 MSTORE SWAP2 SWAP3 POP PUSH20 0xFFFFFFFFFFFFFFFFFFFFFFFFFFFFFFFFFFFFFFFF AND SWAP1 DUP2 SWAP1 PUSH4 0xD505ACCF SWAP1 PUSH1 0xE4 ADD PUSH1 0x0 PUSH1 0x40 MLOAD DUP1 DUP4 SUB DUP2 PUSH1 0x0 DUP8 DUP1 EXTCODESIZE ISZERO DUP1 ISZERO PUSH2 0x2147 JUMPI PUSH1 0x0 DUP1 REVERT JUMPDEST POP GAS CALL ISZERO DUP1 ISZERO PUSH2 0x215B JUMPI RETURNDATASIZE PUSH1 0x0 DUP1 RETURNDATACOPY RETURNDATASIZE PUSH1 0x0 REVERT JUMPDEST POP POP POP POP PUSH2 0x2169 DUP10 DUP10 PUSH2 0x487D JUMP JUMPDEST POP POP PUSH1 0x1 DUP1 SSTORE POP POP POP POP POP POP POP JUMP JUMPDEST PUSH1 0x2 PUSH1 0x1 SLOAD EQ ISZERO PUSH2 0x21E5 JUMPI PUSH1 0x40 MLOAD PUSH32 0x8C379A000000000000000000000000000000000000000000000000000000000 DUP2 MSTORE PUSH1 0x20 PUSH1 0x4 DUP3 ADD MSTORE PUSH1 0x1F PUSH1 0x24 DUP3 ADD MSTORE PUSH32 0x5265656E7472616E637947756172643A207265656E7472616E742063616C6C00 PUSH1 0x44 DUP3 ADD MSTORE PUSH1 0x64 ADD PUSH2 0x763 JUMP JUMPDEST PUSH1 0x2 PUSH1 0x1 SSTORE PUSH2 0x21F3 DUP2 PUSH2 0x3E4A JUMP JUMPDEST POP PUSH1 0x1 DUP1 SSTORE JUMP JUMPDEST PUSH1 0x2 PUSH1 0x1 SLOAD EQ ISZERO PUSH2 0x2267 JUMPI PUSH1 0x40 MLOAD PUSH32 0x8C379A000000000000000000000000000000000000000000000000000000000 DUP2 MSTORE PUSH1 0x20 PUSH1 0x4 DUP3 ADD MSTORE PUSH1 0x1F PUSH1 0x24 DUP3 ADD MSTORE PUSH32 0x5265656E7472616E637947756172643A207265656E7472616E742063616C6C00 PUSH1 0x44 DUP3 ADD MSTORE PUSH1 0x64 ADD PUSH2 0x763 JUMP JUMPDEST PUSH1 0x2 PUSH1 0x1 DUP2 SWAP1 SSTORE POP PUSH1 0x0 PUSH1 0x4 DUP3 DUP2 SLOAD DUP2 LT PUSH2 0x2284 JUMPI PUSH2 0x2284 PUSH2 0x5A20 JUMP JUMPDEST PUSH1 0x0 SWAP2 DUP3 MSTORE PUSH1 0x20 DUP1 DUP4 KECCAK256 DUP6 DUP5 MSTORE PUSH1 0x5 DUP3 MSTORE PUSH1 0x40 DUP1 DUP6 KECCAK256 CALLER DUP7 MSTORE SWAP1 SWAP3 MSTORE SWAP3 KECCAK256 DUP1 SLOAD PUSH1 0x8 SWAP3 SWAP1 SWAP3 MUL SWAP1 SWAP3 ADD PUSH1 0x6 DUP2 ADD SLOAD SWAP1 SWAP4 POP DUP2 GT ISZERO PUSH2 0x2344 JUMPI PUSH1 0x40 MLOAD PUSH32 0x8C379A000000000000000000000000000000000000000000000000000000000 DUP2 MSTORE PUSH1 0x20 PUSH1 0x4 DUP3 ADD MSTORE PUSH1 0x29 PUSH1 0x24 DUP3 ADD MSTORE PUSH32 0x656D657267656E63792077697468647261773A20706F6F6C20746F74616C206E PUSH1 0x44 DUP3 ADD MSTORE PUSH32 0x6F7420656E6F7567680000000000000000000000000000000000000000000000 PUSH1 0x64 DUP3 ADD MSTORE PUSH1 0x84 ADD PUSH2 0x763 JUMP JUMPDEST PUSH1 0x0 DUP1 DUP4 SSTORE PUSH1 0x1 DUP4 ADD DUP2 SWAP1 SSTORE PUSH1 0x2 DUP4 ADD DUP2 SWAP1 SSTORE PUSH1 0x3 DUP4 ADD DUP2 SWAP1 SSTORE PUSH1 0x6 DUP5 ADD DUP1 SLOAD DUP4 SWAP3 SWAP1 PUSH2 0x2372 SWAP1 DUP5 SWAP1 PUSH2 0x5955 JUMP JUMPDEST SWAP1 SWAP2 SSTORE POP PUSH1 0x0 SWAP1 POP JUMPDEST PUSH1 0x7 DUP5 ADD SLOAD DUP2 LT ISZERO PUSH2 0x2445 JUMPI DUP4 PUSH1 0x7 ADD DUP2 DUP2 SLOAD DUP2 LT PUSH2 0x239C JUMPI PUSH2 0x239C PUSH2 0x5A20 JUMP JUMPDEST PUSH1 0x0 SWAP2 DUP3 MSTORE PUSH1 0x20 DUP3 KECCAK256 ADD SLOAD PUSH1 0x40 MLOAD PUSH32 0x8AD1472800000000000000000000000000000000000000000000000000000000 DUP2 MSTORE PUSH1 0x4 DUP2 ADD DUP9 SWAP1 MSTORE CALLER PUSH1 0x24 DUP3 ADD MSTORE PUSH1 0x44 DUP2 ADD SWAP3 SWAP1 SWAP3 MSTORE PUSH20 0xFFFFFFFFFFFFFFFFFFFFFFFFFFFFFFFFFFFFFFFF AND SWAP1 PUSH4 0x8AD14728 SWAP1 PUSH1 0x64 ADD PUSH1 0x0 PUSH1 0x40 MLOAD DUP1 DUP4 SUB DUP2 PUSH1 0x0 DUP8 DUP1 EXTCODESIZE ISZERO DUP1 ISZERO PUSH2 0x241C JUMPI PUSH1 0x0 DUP1 REVERT JUMPDEST POP GAS CALL ISZERO DUP1 ISZERO PUSH2 0x2430 JUMPI RETURNDATASIZE PUSH1 0x0 DUP1 RETURNDATACOPY RETURNDATASIZE PUSH1 0x0 REVERT JUMPDEST POP POP POP POP DUP1 PUSH2 0x243E SWAP1 PUSH2 0x5998 JUMP JUMPDEST SWAP1 POP PUSH2 0x237B JUMP JUMPDEST POP PUSH1 0x2 SLOAD DUP4 SLOAD PUSH20 0xFFFFFFFFFFFFFFFFFFFFFFFFFFFFFFFFFFFFFFFF SWAP1 DUP2 AND SWAP2 AND EQ ISZERO PUSH2 0x2483 JUMPI DUP1 PUSH1 0x9 PUSH1 0x0 DUP3 DUP3 SLOAD PUSH2 0x247D SWAP2 SWAP1 PUSH2 0x5955 JUMP JUMPDEST SWAP1 SWAP2 SSTORE POP POP JUMPDEST DUP3 SLOAD PUSH2 0x24A6 SWAP1 PUSH20 0xFFFFFFFFFFFFFFFFFFFFFFFFFFFFFFFFFFFFFFFF AND CALLER DUP4 PUSH2 0x4502 JUMP JUMPDEST PUSH1 0x40 MLOAD DUP2 DUP2 MSTORE DUP5 SWAP1 CALLER SWAP1 PUSH32 0xBB757047C2B5F3974FE26B7C10F732E7BCE710B0952A71082702781E62AE0595 SWAP1 PUSH1 0x20 ADD PUSH1 0x40 MLOAD DUP1 SWAP2 SUB SWAP1 LOG3 POP POP PUSH1 0x1 DUP1 SSTORE POP POP JUMP JUMPDEST PUSH1 0x2 PUSH1 0x1 SLOAD EQ ISZERO PUSH2 0x2554 JUMPI PUSH1 0x40 MLOAD PUSH32 0x8C379A000000000000000000000000000000000000000000000000000000000 DUP2 MSTORE PUSH1 0x20 PUSH1 0x4 DUP3 ADD MSTORE PUSH1 0x1F PUSH1 0x24 DUP3 ADD MSTORE PUSH32 0x5265656E7472616E637947756172643A207265656E7472616E742063616C6C00 PUSH1 0x44 DUP3 ADD MSTORE PUSH1 0x64 ADD PUSH2 0x763 JUMP JUMPDEST PUSH1 0x2 PUSH1 0x1 SSTORE PUSH2 0x2561 PUSH2 0x3E24 JUMP JUMPDEST PUSH1 0x1 DUP1 SSTORE JUMP JUMPDEST PUSH1 0x0 PUSH1 0x4 DUP3 DUP2 SLOAD DUP2 LT PUSH2 0x257C JUMPI PUSH2 0x257C PUSH2 0x5A20 JUMP JUMPDEST SWAP1 PUSH1 0x0 MSTORE PUSH1 0x20 PUSH1 0x0 KECCAK256 SWAP1 PUSH1 0x8 MUL ADD PUSH1 0x6 ADD SLOAD SWAP1 POP SWAP2 SWAP1 POP JUMP JUMPDEST PUSH1 0xB SLOAD PUSH20 0xFFFFFFFFFFFFFFFFFFFFFFFFFFFFFFFFFFFFFFFF AND CALLER EQ PUSH2 0x2662 JUMPI PUSH1 0x40 MLOAD PUSH32 0x8C379A000000000000000000000000000000000000000000000000000000000 DUP2 MSTORE PUSH1 0x20 PUSH1 0x4 DUP3 ADD MSTORE PUSH1 0x49 PUSH1 0x24 DUP3 ADD MSTORE PUSH32 0x73657420747265617375727920616464726573733A206F6E6C79207072657669 PUSH1 0x44 DUP3 ADD MSTORE PUSH32 0x6F757320747265617375727920616464726573732063616E2063616C6C207468 PUSH1 0x64 DUP3 ADD MSTORE PUSH32 0x6973206D6574686F640000000000000000000000000000000000000000000000 PUSH1 0x84 DUP3 ADD MSTORE PUSH1 0xA4 ADD PUSH2 0x763 JUMP JUMPDEST PUSH20 0xFFFFFFFFFFFFFFFFFFFFFFFFFFFFFFFFFFFFFFFF DUP2 AND PUSH2 0x2705 JUMPI PUSH1 0x40 MLOAD PUSH32 0x8C379A000000000000000000000000000000000000000000000000000000000 DUP2 MSTORE PUSH1 0x20 PUSH1 0x4 DUP3 ADD MSTORE PUSH1 0x32 PUSH1 0x24 DUP3 ADD MSTORE PUSH32 0x73657420747265617375727920616464726573733A20696E76616C6964206E65 PUSH1 0x44 DUP3 ADD MSTORE PUSH32 0x7720747265617375727920616464726573730000000000000000000000000000 PUSH1 0x64 DUP3 ADD MSTORE PUSH1 0x84 ADD PUSH2 0x763 JUMP JUMPDEST PUSH1 0xB DUP1 SLOAD PUSH32 0xFFFFFFFFFFFFFFFFFFFFFFFF0000000000000000000000000000000000000000 AND PUSH20 0xFFFFFFFFFFFFFFFFFFFFFFFFFFFFFFFFFFFFFFFF DUP4 AND SWAP1 DUP2 OR SWAP1 SWAP2 SSTORE PUSH1 0x40 MLOAD CALLER SWAP1 PUSH32 0x61885CDBA916BE748FF3E3F6F15E4206153B8EA3B7ACABADE9D04B4063A83510 SWAP1 PUSH1 0x0 SWAP1 LOG3 POP JUMP JUMPDEST PUSH1 0xA SLOAD PUSH20 0xFFFFFFFFFFFFFFFFFFFFFFFFFFFFFFFFFFFFFFFF AND CALLER EQ PUSH2 0x2843 JUMPI PUSH1 0x40 MLOAD PUSH32 0x8C379A000000000000000000000000000000000000000000000000000000000 DUP2 MSTORE PUSH1 0x20 PUSH1 0x4 DUP3 ADD MSTORE PUSH1 0x41 PUSH1 0x24 DUP3 ADD MSTORE PUSH32 0x736574207465616D20616464726573733A206F6E6C792070726576696F757320 PUSH1 0x44 DUP3 ADD MSTORE PUSH32 0x7465616D20616464726573732063616E2063616C6C2074686973206D6574686F PUSH1 0x64 DUP3 ADD MSTORE PUSH32 0x6400000000000000000000000000000000000000000000000000000000000000 PUSH1 0x84 DUP3 ADD MSTORE PUSH1 0xA4 ADD PUSH2 0x763 JUMP JUMPDEST PUSH20 0xFFFFFFFFFFFFFFFFFFFFFFFFFFFFFFFFFFFFFFFF DUP2 AND PUSH2 0x28E6 JUMPI PUSH1 0x40 MLOAD PUSH32 0x8C379A000000000000000000000000000000000000000000000000000000000 DUP2 MSTORE PUSH1 0x20 PUSH1 0x4 DUP3 ADD MSTORE PUSH1 0x2A PUSH1 0x24 DUP3 ADD MSTORE PUSH32 0x736574207465616D20616464726573733A20696E76616C6964206E6577207465 PUSH1 0x44 DUP3 ADD MSTORE PUSH32 0x616D206164647265737300000000000000000000000000000000000000000000 PUSH1 0x64 DUP3 ADD MSTORE PUSH1 0x84 ADD PUSH2 0x763 JUMP JUMPDEST PUSH1 0xA DUP1 SLOAD PUSH32 0xFFFFFFFFFFFFFFFFFFFFFFFF0000000000000000000000000000000000000000 AND PUSH20 0xFFFFFFFFFFFFFFFFFFFFFFFFFFFFFFFFFFFFFFFF DUP4 AND SWAP1 DUP2 OR SWAP1 SWAP2 SSTORE PUSH1 0x40 MLOAD CALLER SWAP1 PUSH32 0x42FBC17D847FDC3E5C82DA842A5EF3979C64F3B94CD4E7382310FD5525C6EE0F SWAP1 PUSH1 0x0 SWAP1 LOG3 POP JUMP JUMPDEST PUSH1 0x0 SLOAD PUSH20 0xFFFFFFFFFFFFFFFFFFFFFFFFFFFFFFFFFFFFFFFF AND CALLER EQ PUSH2 0x29D8 JUMPI PUSH1 0x40 MLOAD PUSH32 0x8C379A000000000000000000000000000000000000000000000000000000000 DUP2 MSTORE PUSH1 0x20 PUSH1 0x4 DUP3 ADD DUP2 SWAP1 MSTORE PUSH1 0x24 DUP3 ADD MSTORE PUSH32 0x4F776E61626C653A2063616C6C6572206973206E6F7420746865206F776E6572 PUSH1 0x44 DUP3 ADD MSTORE PUSH1 0x64 ADD PUSH2 0x763 JUMP JUMPDEST PUSH2 0x29E2 PUSH1 0x0 PUSH2 0x4CEE JUMP JUMPDEST JUMP JUMPDEST PUSH1 0x0 SLOAD PUSH20 0xFFFFFFFFFFFFFFFFFFFFFFFFFFFFFFFFFFFFFFFF AND CALLER EQ PUSH2 0x2A65 JUMPI PUSH1 0x40 MLOAD PUSH32 0x8C379A000000000000000000000000000000000000000000000000000000000 DUP2 MSTORE PUSH1 0x20 PUSH1 0x4 DUP3 ADD DUP2 SWAP1 MSTORE PUSH1 0x24 DUP3 ADD MSTORE PUSH32 0x4F776E61626C653A2063616C6C6572206973206E6F7420746865206F776E6572 PUSH1 0x44 DUP3 ADD MSTORE PUSH1 0x64 ADD PUSH2 0x763 JUMP JUMPDEST PUSH2 0x3E8 DUP2 GT ISZERO PUSH2 0x2AF7 JUMPI PUSH1 0x40 MLOAD PUSH32 0x8C379A000000000000000000000000000000000000000000000000000000000 DUP2 MSTORE PUSH1 0x20 PUSH1 0x4 DUP3 ADD MSTORE PUSH1 0x2B PUSH1 0x24 DUP3 ADD MSTORE PUSH32 0x73657420696E766573746F722070657263656E743A20696E76616C6964207065 PUSH1 0x44 DUP3 ADD MSTORE PUSH32 0x7263656E742076616C7565000000000000000000000000000000000000000000 PUSH1 0x64 DUP3 ADD MSTORE PUSH1 0x84 ADD PUSH2 0x763 JUMP JUMPDEST PUSH2 0x3E8 PUSH1 0xE SLOAD DUP3 PUSH1 0xD SLOAD PUSH2 0x2B0B SWAP2 SWAP1 PUSH2 0x58C5 JUMP JUMPDEST PUSH2 0x2B15 SWAP2 SWAP1 PUSH2 0x58C5 JUMP JUMPDEST GT ISZERO PUSH2 0x2BA3 JUMPI PUSH1 0x40 MLOAD PUSH32 0x8C379A000000000000000000000000000000000000000000000000000000000 DUP2 MSTORE PUSH1 0x20 PUSH1 0x4 DUP3 ADD MSTORE PUSH1 0x2C PUSH1 0x24 DUP3 ADD MSTORE PUSH32 0x73657420696E766573746F722070657263656E743A20746F74616C2070657263 PUSH1 0x44 DUP3 ADD MSTORE PUSH32 0x656E74206F766572206D61780000000000000000000000000000000000000000 PUSH1 0x64 DUP3 ADD MSTORE PUSH1 0x84 ADD PUSH2 0x763 JUMP JUMPDEST PUSH1 0xF SLOAD PUSH1 0x40 DUP1 MLOAD SWAP2 DUP3 MSTORE PUSH1 0x20 DUP3 ADD DUP4 SWAP1 MSTORE PUSH32 0x905B464403A98B455243C8B4D30C545B8FBD70CDA670142B9326425B2C039F3B SWAP2 ADD PUSH1 0x40 MLOAD DUP1 SWAP2 SUB SWAP1 LOG1 PUSH1 0xF SSTORE JUMP JUMPDEST PUSH1 0x0 SLOAD PUSH20 0xFFFFFFFFFFFFFFFFFFFFFFFFFFFFFFFFFFFFFFFF AND CALLER EQ PUSH2 0x2C65 JUMPI PUSH1 0x40 MLOAD PUSH32 0x8C379A000000000000000000000000000000000000000000000000000000000 DUP2 MSTORE PUSH1 0x20 PUSH1 0x4 DUP3 ADD DUP2 SWAP1 MSTORE PUSH1 0x24 DUP3 ADD MSTORE PUSH32 0x4F776E61626C653A2063616C6C6572206973206E6F7420746865206F776E6572 PUSH1 0x44 DUP3 ADD MSTORE PUSH1 0x64 ADD PUSH2 0x763 JUMP JUMPDEST PUSH2 0x3E8 DUP2 GT ISZERO PUSH2 0x2CF7 JUMPI PUSH1 0x40 MLOAD PUSH32 0x8C379A000000000000000000000000000000000000000000000000000000000 DUP2 MSTORE PUSH1 0x20 PUSH1 0x4 DUP3 ADD MSTORE PUSH1 0x2B PUSH1 0x24 DUP3 ADD MSTORE PUSH32 0x7365742074726561737572792070657263656E743A20696E76616C6964207065 PUSH1 0x44 DUP3 ADD MSTORE PUSH32 0x7263656E742076616C7565000000000000000000000000000000000000000000 PUSH1 0x64 DUP3 ADD MSTORE PUSH1 0x84 ADD PUSH2 0x763 JUMP JUMPDEST PUSH2 0x3E8 PUSH1 0xF SLOAD DUP3 PUSH1 0xD SLOAD PUSH2 0x2D0B SWAP2 SWAP1 PUSH2 0x58C5 JUMP JUMPDEST PUSH2 0x2D15 SWAP2 SWAP1 PUSH2 0x58C5 JUMP JUMPDEST GT ISZERO PUSH2 0x2DA3 JUMPI PUSH1 0x40 MLOAD PUSH32 0x8C379A000000000000000000000000000000000000000000000000000000000 DUP2 MSTORE PUSH1 0x20 PUSH1 0x4 DUP3 ADD MSTORE PUSH1 0x2C PUSH1 0x24 DUP3 ADD MSTORE PUSH32 0x7365742074726561737572792070657263656E743A20746F74616C2070657263 PUSH1 0x44 DUP3 ADD MSTORE PUSH32 0x656E74206F766572206D61780000000000000000000000000000000000000000 PUSH1 0x64 DUP3 ADD MSTORE PUSH1 0x84 ADD PUSH2 0x763 JUMP JUMPDEST PUSH1 0xE SLOAD PUSH1 0x40 DUP1 MLOAD SWAP2 DUP3 MSTORE PUSH1 0x20 DUP3 ADD DUP4 SWAP1 MSTORE PUSH32 0xA565895C0101FCA10E6A7B85742E56CF52AC5F58B09CE030425D3555B47069FD SWAP2 ADD PUSH1 0x40 MLOAD DUP1 SWAP2 SUB SWAP1 LOG1 PUSH1 0xE SSTORE JUMP JUMPDEST PUSH1 0x0 SLOAD PUSH20 0xFFFFFFFFFFFFFFFFFFFFFFFFFFFFFFFFFFFFFFFF AND CALLER EQ PUSH2 0x2E65 JUMPI PUSH1 0x40 MLOAD PUSH32 0x8C379A000000000000000000000000000000000000000000000000000000000 DUP2 MSTORE PUSH1 0x20 PUSH1 0x4 DUP3 ADD DUP2 SWAP1 MSTORE PUSH1 0x24 DUP3 ADD MSTORE PUSH32 0x4F776E61626C653A2063616C6C6572206973206E6F7420746865206F776E6572 PUSH1 0x44 DUP3 ADD MSTORE PUSH1 0x64 ADD PUSH2 0x763 JUMP JUMPDEST PUSH2 0x3E8 DUP2 GT ISZERO PUSH2 0x2EF7 JUMPI PUSH1 0x40 MLOAD PUSH32 0x8C379A000000000000000000000000000000000000000000000000000000000 DUP2 MSTORE PUSH1 0x20 PUSH1 0x4 DUP3 ADD MSTORE PUSH1 0x27 PUSH1 0x24 DUP3 ADD MSTORE PUSH32 0x736574207465616D2070657263656E743A20696E76616C69642070657263656E PUSH1 0x44 DUP3 ADD MSTORE PUSH32 0x742076616C756500000000000000000000000000000000000000000000000000 PUSH1 0x64 DUP3 ADD MSTORE PUSH1 0x84 ADD PUSH2 0x763 JUMP JUMPDEST PUSH2 0x3E8 PUSH1 0xF SLOAD DUP3 PUSH1 0xE SLOAD PUSH2 0x2F0B SWAP2 SWAP1 PUSH2 0x58C5 JUMP JUMPDEST PUSH2 0x2F15 SWAP2 SWAP1 PUSH2 0x58C5 JUMP JUMPDEST GT ISZERO PUSH2 0x2FA3 JUMPI PUSH1 0x40 MLOAD PUSH32 0x8C379A000000000000000000000000000000000000000000000000000000000 DUP2 MSTORE PUSH1 0x20 PUSH1 0x4 DUP3 ADD MSTORE PUSH1 0x28 PUSH1 0x24 DUP3 ADD MSTORE PUSH32 0x736574207465616D2070657263656E743A20746F74616C2070657263656E7420 PUSH1 0x44 DUP3 ADD MSTORE PUSH32 0x6F766572206D6178000000000000000000000000000000000000000000000000 PUSH1 0x64 DUP3 ADD MSTORE PUSH1 0x84 ADD PUSH2 0x763 JUMP JUMPDEST PUSH1 0xD SLOAD PUSH1 0x40 DUP1 MLOAD SWAP2 DUP3 MSTORE PUSH1 0x20 DUP3 ADD DUP4 SWAP1 MSTORE PUSH32 0x204A076F4A2E4E5E646BB8841CC285306BF747E277F40DBFD5750E782E17B7A6 SWAP2 ADD PUSH1 0x40 MLOAD DUP1 SWAP2 SUB SWAP1 LOG1 PUSH1 0xD SSTORE JUMP JUMPDEST PUSH1 0x0 SLOAD PUSH20 0xFFFFFFFFFFFFFFFFFFFFFFFFFFFFFFFFFFFFFFFF AND CALLER EQ PUSH2 0x3065 JUMPI PUSH1 0x40 MLOAD PUSH32 0x8C379A000000000000000000000000000000000000000000000000000000000 DUP2 MSTORE PUSH1 0x20 PUSH1 0x4 DUP3 ADD DUP2 SWAP1 MSTORE PUSH1 0x24 DUP3 ADD MSTORE PUSH32 0x4F776E61626C653A2063616C6C6572206973206E6F7420746865206F776E6572 PUSH1 0x44 DUP3 ADD MSTORE PUSH1 0x64 ADD PUSH2 0x763 JUMP JUMPDEST PUSH1 0x7 SLOAD TIMESTAMP LT PUSH2 0x30F6 JUMPI PUSH1 0x40 MLOAD PUSH32 0x8C379A000000000000000000000000000000000000000000000000000000000 DUP2 MSTORE PUSH1 0x20 PUSH1 0x4 DUP3 ADD MSTORE PUSH1 0x23 PUSH1 0x24 DUP3 ADD MSTORE PUSH32 0x7374617274206661726D696E673A206661726D207374617274656420616C7265 PUSH1 0x44 DUP3 ADD MSTORE PUSH32 0x6164790000000000000000000000000000000000000000000000000000000000 PUSH1 0x64 DUP3 ADD MSTORE PUSH1 0x84 ADD PUSH2 0x763 JUMP JUMPDEST PUSH1 0x4 SLOAD PUSH1 0x0 JUMPDEST DUP2 DUP2 LT ISZERO PUSH2 0x3144 JUMPI PUSH1 0x0 PUSH1 0x4 DUP3 DUP2 SLOAD DUP2 LT PUSH2 0x3119 JUMPI PUSH2 0x3119 PUSH2 0x5A20 JUMP JUMPDEST SWAP1 PUSH1 0x0 MSTORE PUSH1 0x20 PUSH1 0x0 KECCAK256 SWAP1 PUSH1 0x8 MUL ADD SWAP1 POP TIMESTAMP DUP2 PUSH1 0x2 ADD DUP2 SWAP1 SSTORE POP POP DUP1 PUSH2 0x313D SWAP1 PUSH2 0x5998 JUMP JUMPDEST SWAP1 POP PUSH2 0x30FC JUMP JUMPDEST POP POP TIMESTAMP PUSH1 0x7 SSTORE JUMP JUMPDEST PUSH1 0x2 PUSH1 0x1 SLOAD EQ ISZERO PUSH2 0x31B9 JUMPI PUSH1 0x40 MLOAD PUSH32 0x8C379A000000000000000000000000000000000000000000000000000000000 DUP2 MSTORE PUSH1 0x20 PUSH1 0x4 DUP3 ADD MSTORE PUSH1 0x1F PUSH1 0x24 DUP3 ADD MSTORE PUSH32 0x5265656E7472616E637947756172643A207265656E7472616E742063616C6C00 PUSH1 0x44 DUP3 ADD MSTORE PUSH1 0x64 ADD PUSH2 0x763 JUMP JUMPDEST PUSH1 0x2 PUSH1 0x1 SSTORE PUSH1 0x1E DUP2 GT ISZERO PUSH2 0x3229 JUMPI PUSH1 0x40 MLOAD PUSH32 0x8C379A000000000000000000000000000000000000000000000000000000000 DUP2 MSTORE PUSH1 0x20 PUSH1 0x4 DUP3 ADD MSTORE PUSH1 0x1F PUSH1 0x24 DUP3 ADD MSTORE PUSH32 0x68617276657374206D616E793A20746F6F206D616E7920706F6F6C2069647300 PUSH1 0x44 DUP3 ADD MSTORE PUSH1 0x64 ADD PUSH2 0x763 JUMP JUMPDEST PUSH1 0x0 JUMPDEST DUP2 DUP2 LT ISZERO PUSH2 0x3267 JUMPI PUSH2 0x3257 DUP4 DUP4 DUP4 DUP2 DUP2 LT PUSH2 0x3249 JUMPI PUSH2 0x3249 PUSH2 0x5A20 JUMP JUMPDEST SWAP1 POP PUSH1 0x20 MUL ADD CALLDATALOAD PUSH1 0x0 PUSH2 0x487D JUMP JUMPDEST PUSH2 0x3260 DUP2 PUSH2 0x5998 JUMP JUMPDEST SWAP1 POP PUSH2 0x322C JUMP JUMPDEST POP POP PUSH1 0x1 DUP1 SSTORE POP JUMP JUMPDEST PUSH1 0x2 PUSH1 0x1 SLOAD EQ ISZERO PUSH2 0x32DD JUMPI PUSH1 0x40 MLOAD PUSH32 0x8C379A000000000000000000000000000000000000000000000000000000000 DUP2 MSTORE PUSH1 0x20 PUSH1 0x4 DUP3 ADD MSTORE PUSH1 0x1F PUSH1 0x24 DUP3 ADD MSTORE PUSH32 0x5265656E7472616E637947756172643A207265656E7472616E742063616C6C00 PUSH1 0x44 DUP3 ADD MSTORE PUSH1 0x64 ADD PUSH2 0x763 JUMP JUMPDEST PUSH1 0x2 PUSH1 0x1 SSTORE PUSH2 0x32EC DUP3 DUP3 PUSH2 0x487D JUMP JUMPDEST POP POP PUSH1 0x1 DUP1 SSTORE JUMP JUMPDEST PUSH1 0x0 SLOAD PUSH20 0xFFFFFFFFFFFFFFFFFFFFFFFFFFFFFFFFFFFFFFFF AND CALLER EQ PUSH2 0x3375 JUMPI PUSH1 0x40 MLOAD PUSH32 0x8C379A000000000000000000000000000000000000000000000000000000000 DUP2 MSTORE PUSH1 0x20 PUSH1 0x4 DUP3 ADD DUP2 SWAP1 MSTORE PUSH1 0x24 DUP3 ADD MSTORE PUSH32 0x4F776E61626C653A2063616C6C6572206973206E6F7420746865206F776E6572 PUSH1 0x44 DUP3 ADD MSTORE PUSH1 0x64 ADD PUSH2 0x763 JUMP JUMPDEST PUSH2 0x337D PUSH2 0x3E24 JUMP JUMPDEST CALLER PUSH20 0xFFFFFFFFFFFFFFFFFFFFFFFFFFFFFFFFFFFFFFFF AND PUSH32 0x802633C8D26237616D81BDAC01BC40FCDF36E098832601582EC19D7E431C5EF3 PUSH1 0x4 DUP5 DUP2 SLOAD DUP2 LT PUSH2 0x33C8 JUMPI PUSH2 0x33C8 PUSH2 0x5A20 JUMP JUMPDEST SWAP1 PUSH1 0x0 MSTORE PUSH1 0x20 PUSH1 0x0 KECCAK256 SWAP1 PUSH1 0x8 MUL ADD PUSH1 0x1 ADD SLOAD DUP4 PUSH1 0x40 MLOAD PUSH2 0x33F2 SWAP3 SWAP2 SWAP1 SWAP2 DUP3 MSTORE PUSH1 0x20 DUP3 ADD MSTORE PUSH1 0x40 ADD SWAP1 JUMP JUMPDEST PUSH1 0x40 MLOAD DUP1 SWAP2 SUB SWAP1 LOG2 DUP1 PUSH1 0x4 DUP4 DUP2 SLOAD DUP2 LT PUSH2 0x340E JUMPI PUSH2 0x340E PUSH2 0x5A20 JUMP JUMPDEST SWAP1 PUSH1 0x0 MSTORE PUSH1 0x20 PUSH1 0x0 KECCAK256 SWAP1 PUSH1 0x8 MUL ADD PUSH1 0x1 ADD SLOAD PUSH1 0x6 SLOAD PUSH2 0x342D SWAP2 SWAP1 PUSH2 0x5955 JUMP JUMPDEST PUSH2 0x3437 SWAP2 SWAP1 PUSH2 0x58C5 JUMP JUMPDEST PUSH1 0x6 DUP2 SWAP1 SSTORE POP DUP1 PUSH1 0x4 DUP4 DUP2 SLOAD DUP2 LT PUSH2 0x3451 JUMPI PUSH2 0x3451 PUSH2 0x5A20 JUMP JUMPDEST SWAP1 PUSH1 0x0 MSTORE PUSH1 0x20 PUSH1 0x0 KECCAK256 SWAP1 PUSH1 0x8 MUL ADD PUSH1 0x1 ADD DUP2 SWAP1 SSTORE POP POP POP JUMP JUMPDEST PUSH1 0x4 SLOAD PUSH1 0x60 SWAP1 DUP3 SWAP1 DUP2 LT PUSH2 0x34DA JUMPI PUSH1 0x40 MLOAD PUSH32 0x8C379A000000000000000000000000000000000000000000000000000000000 DUP2 MSTORE PUSH1 0x20 PUSH1 0x4 DUP3 ADD MSTORE PUSH1 0x13 PUSH1 0x24 DUP3 ADD MSTORE PUSH32 0x506F6F6C20646F6573206E6F7420657869737400000000000000000000000000 PUSH1 0x44 DUP3 ADD MSTORE PUSH1 0x64 ADD PUSH2 0x763 JUMP JUMPDEST PUSH1 0x0 PUSH1 0x4 DUP5 DUP2 SLOAD DUP2 LT PUSH2 0x34EF JUMPI PUSH2 0x34EF PUSH2 0x5A20 JUMP JUMPDEST SWAP1 PUSH1 0x0 MSTORE PUSH1 0x20 PUSH1 0x0 KECCAK256 SWAP1 PUSH1 0x8 MUL ADD SWAP1 POP DUP1 PUSH1 0x7 ADD DUP1 SLOAD SWAP1 POP PUSH8 0xFFFFFFFFFFFFFFFF DUP2 GT ISZERO PUSH2 0x351F JUMPI PUSH2 0x351F PUSH2 0x5A4F JUMP JUMPDEST PUSH1 0x40 MLOAD SWAP1 DUP1 DUP3 MSTORE DUP1 PUSH1 0x20 MUL PUSH1 0x20 ADD DUP3 ADD PUSH1 0x40 MSTORE DUP1 ISZERO PUSH2 0x3548 JUMPI DUP2 PUSH1 0x20 ADD PUSH1 0x20 DUP3 MUL DUP1 CALLDATASIZE DUP4 CALLDATACOPY ADD SWAP1 POP JUMPDEST POP SWAP3 POP PUSH1 0x0 JUMPDEST PUSH1 0x7 DUP3 ADD SLOAD DUP2 LT ISZERO PUSH2 0x35E1 JUMPI DUP2 PUSH1 0x7 ADD DUP2 DUP2 SLOAD DUP2 LT PUSH2 0x356F JUMPI PUSH2 0x356F PUSH2 0x5A20 JUMP JUMPDEST SWAP1 PUSH1 0x0 MSTORE PUSH1 0x20 PUSH1 0x0 KECCAK256 ADD PUSH1 0x0 SWAP1 SLOAD SWAP1 PUSH2 0x100 EXP SWAP1 DIV PUSH20 0xFFFFFFFFFFFFFFFFFFFFFFFFFFFFFFFFFFFFFFFF AND DUP5 DUP3 DUP2 MLOAD DUP2 LT PUSH2 0x35AC JUMPI PUSH2 0x35AC PUSH2 0x5A20 JUMP JUMPDEST PUSH20 0xFFFFFFFFFFFFFFFFFFFFFFFFFFFFFFFFFFFFFFFF SWAP1 SWAP3 AND PUSH1 0x20 SWAP3 DUP4 MUL SWAP2 SWAP1 SWAP2 ADD SWAP1 SWAP2 ADD MSTORE PUSH2 0x35DA DUP2 PUSH2 0x5998 JUMP JUMPDEST SWAP1 POP PUSH2 0x354E JUMP JUMPDEST POP POP POP SWAP2 SWAP1 POP JUMP JUMPDEST PUSH1 0x0 SLOAD PUSH20 0xFFFFFFFFFFFFFFFFFFFFFFFFFFFFFFFFFFFFFFFF AND CALLER EQ PUSH2 0x366A JUMPI PUSH1 0x40 MLOAD PUSH32 0x8C379A000000000000000000000000000000000000000000000000000000000 DUP2 MSTORE PUSH1 0x20 PUSH1 0x4 DUP3 ADD DUP2 SWAP1 MSTORE PUSH1 0x24 DUP3 ADD MSTORE PUSH32 0x4F776E61626C653A2063616C6C6572206973206E6F7420746865206F776E6572 PUSH1 0x44 DUP3 ADD MSTORE PUSH1 0x64 ADD PUSH2 0x763 JUMP JUMPDEST PUSH20 0xFFFFFFFFFFFFFFFFFFFFFFFFFFFFFFFFFFFFFFFF DUP2 AND PUSH2 0x370D JUMPI PUSH1 0x40 MLOAD PUSH32 0x8C379A000000000000000000000000000000000000000000000000000000000 DUP2 MSTORE PUSH1 0x20 PUSH1 0x4 DUP3 ADD MSTORE PUSH1 0x26 PUSH1 0x24 DUP3 ADD MSTORE PUSH32 0x4F776E61626C653A206E6577206F776E657220697320746865207A65726F2061 PUSH1 0x44 DUP3 ADD MSTORE PUSH32 0x6464726573730000000000000000000000000000000000000000000000000000 PUSH1 0x64 DUP3 ADD MSTORE PUSH1 0x84 ADD PUSH2 0x763 JUMP JUMPDEST PUSH2 0x3716 DUP2 PUSH2 0x4CEE JUMP JUMPDEST POP JUMP JUMPDEST PUSH1 0x60 DUP1 PUSH1 0x60 DUP1 DUP6 PUSH1 0x4 DUP1 SLOAD SWAP1 POP DUP2 LT PUSH2 0x378E JUMPI PUSH1 0x40 MLOAD PUSH32 0x8C379A000000000000000000000000000000000000000000000000000000000 DUP2 MSTORE PUSH1 0x20 PUSH1 0x4 DUP3 ADD MSTORE PUSH1 0x13 PUSH1 0x24 DUP3 ADD MSTORE PUSH32 0x506F6F6C20646F6573206E6F7420657869737400000000000000000000000000 PUSH1 0x44 DUP3 ADD MSTORE PUSH1 0x64 ADD PUSH2 0x763 JUMP JUMPDEST PUSH1 0x0 PUSH1 0x4 DUP9 DUP2 SLOAD DUP2 LT PUSH2 0x37A3 JUMPI PUSH2 0x37A3 PUSH2 0x5A20 JUMP JUMPDEST PUSH1 0x0 SWAP2 DUP3 MSTORE PUSH1 0x20 DUP1 DUP4 KECCAK256 DUP12 DUP5 MSTORE PUSH1 0x5 DUP3 MSTORE PUSH1 0x40 DUP1 DUP6 KECCAK256 PUSH20 0xFFFFFFFFFFFFFFFFFFFFFFFFFFFFFFFFFFFFFFFF DUP14 AND DUP7 MSTORE SWAP1 SWAP3 MSTORE SWAP3 KECCAK256 PUSH1 0x3 PUSH1 0x8 SWAP1 SWAP3 MUL SWAP1 SWAP3 ADD SWAP1 DUP2 ADD SLOAD PUSH1 0x6 DUP3 ADD SLOAD PUSH1 0x2 DUP4 ADD SLOAD SWAP3 SWAP5 POP SWAP1 SWAP2 TIMESTAMP GT DUP1 ISZERO PUSH2 0x3801 JUMPI POP DUP1 ISZERO ISZERO JUMPDEST ISZERO PUSH2 0x38D7 JUMPI PUSH1 0x0 DUP5 PUSH1 0x2 ADD SLOAD TIMESTAMP PUSH2 0x3818 SWAP2 SWAP1 PUSH2 0x5955 JUMP JUMPDEST SWAP1 POP PUSH1 0x0 PUSH2 0x3E8 SWAP1 POP PUSH1 0x0 PUSH1 0xF SLOAD PUSH1 0xE SLOAD PUSH1 0xD SLOAD DUP5 PUSH2 0x3837 SWAP2 SWAP1 PUSH2 0x5955 JUMP JUMPDEST PUSH2 0x3841 SWAP2 SWAP1 PUSH2 0x5955 JUMP JUMPDEST PUSH2 0x384B SWAP2 SWAP1 PUSH2 0x5955 JUMP JUMPDEST SWAP1 POP PUSH1 0x0 DUP3 PUSH1 0x6 SLOAD DUP4 DUP11 PUSH1 0x1 ADD SLOAD PUSH1 0x3 SLOAD DUP9 PUSH2 0x3867 SWAP2 SWAP1 PUSH2 0x5918 JUMP JUMPDEST PUSH2 0x3871 SWAP2 SWAP1 PUSH2 0x5918 JUMP JUMPDEST PUSH2 0x387B SWAP2 SWAP1 PUSH2 0x5918 JUMP JUMPDEST PUSH2 0x3885 SWAP2 SWAP1 PUSH2 0x58DD JUMP JUMPDEST PUSH2 0x388F SWAP2 SWAP1 PUSH2 0x58DD JUMP JUMPDEST SWAP1 POP DUP5 PUSH2 0x38BC PUSH32 0x0 DUP4 PUSH2 0x5918 JUMP JUMPDEST PUSH2 0x38C6 SWAP2 SWAP1 PUSH2 0x58DD JUMP JUMPDEST PUSH2 0x38D0 SWAP1 DUP8 PUSH2 0x58C5 JUMP JUMPDEST SWAP6 POP POP POP POP POP JUMPDEST PUSH1 0x0 DUP4 PUSH1 0x2 ADD SLOAD DUP5 PUSH1 0x1 ADD SLOAD PUSH32 0x0 DUP6 DUP8 PUSH1 0x0 ADD SLOAD PUSH2 0x3914 SWAP2 SWAP1 PUSH2 0x5918 JUMP JUMPDEST PUSH2 0x391E SWAP2 SWAP1 PUSH2 0x58DD JUMP JUMPDEST PUSH2 0x3928 SWAP2 SWAP1 PUSH2 0x5955 JUMP JUMPDEST PUSH2 0x3932 SWAP2 SWAP1 PUSH2 0x58C5 JUMP JUMPDEST PUSH1 0x7 DUP7 ADD SLOAD SWAP1 SWAP2 POP PUSH2 0x3945 SWAP1 PUSH1 0x1 PUSH2 0x58C5 JUMP JUMPDEST PUSH8 0xFFFFFFFFFFFFFFFF DUP2 GT ISZERO PUSH2 0x395D JUMPI PUSH2 0x395D PUSH2 0x5A4F JUMP JUMPDEST PUSH1 0x40 MLOAD SWAP1 DUP1 DUP3 MSTORE DUP1 PUSH1 0x20 MUL PUSH1 0x20 ADD DUP3 ADD PUSH1 0x40 MSTORE DUP1 ISZERO PUSH2 0x3986 JUMPI DUP2 PUSH1 0x20 ADD PUSH1 0x20 DUP3 MUL DUP1 CALLDATASIZE DUP4 CALLDATACOPY ADD SWAP1 POP JUMPDEST POP PUSH1 0x7 DUP7 ADD SLOAD SWAP1 SWAP11 POP PUSH2 0x399A SWAP1 PUSH1 0x1 PUSH2 0x58C5 JUMP JUMPDEST PUSH8 0xFFFFFFFFFFFFFFFF DUP2 GT ISZERO PUSH2 0x39B2 JUMPI PUSH2 0x39B2 PUSH2 0x5A4F JUMP JUMPDEST PUSH1 0x40 MLOAD SWAP1 DUP1 DUP3 MSTORE DUP1 PUSH1 0x20 MUL PUSH1 0x20 ADD DUP3 ADD PUSH1 0x40 MSTORE DUP1 ISZERO PUSH2 0x39E5 JUMPI DUP2 PUSH1 0x20 ADD JUMPDEST PUSH1 0x60 DUP2 MSTORE PUSH1 0x20 ADD SWAP1 PUSH1 0x1 SWAP1 SUB SWAP1 DUP2 PUSH2 0x39D0 JUMPI SWAP1 POP JUMPDEST POP PUSH1 0x7 DUP7 ADD SLOAD SWAP1 SWAP10 POP PUSH2 0x39F9 SWAP1 PUSH1 0x1 PUSH2 0x58C5 JUMP JUMPDEST PUSH8 0xFFFFFFFFFFFFFFFF DUP2 GT ISZERO PUSH2 0x3A11 JUMPI PUSH2 0x3A11 PUSH2 0x5A4F JUMP JUMPDEST PUSH1 0x40 MLOAD SWAP1 DUP1 DUP3 MSTORE DUP1 PUSH1 0x20 MUL PUSH1 0x20 ADD DUP3 ADD PUSH1 0x40 MSTORE DUP1 ISZERO PUSH2 0x3A3A JUMPI DUP2 PUSH1 0x20 ADD PUSH1 0x20 DUP3 MUL DUP1 CALLDATASIZE DUP4 CALLDATACOPY ADD SWAP1 POP JUMPDEST POP PUSH1 0x7 DUP7 ADD SLOAD SWAP1 SWAP8 POP PUSH2 0x3A4E SWAP1 PUSH1 0x1 PUSH2 0x58C5 JUMP JUMPDEST PUSH8 0xFFFFFFFFFFFFFFFF DUP2 GT ISZERO PUSH2 0x3A66 JUMPI PUSH2 0x3A66 PUSH2 0x5A4F JUMP JUMPDEST PUSH1 0x40 MLOAD SWAP1 DUP1 DUP3 MSTORE DUP1 PUSH1 0x20 MUL PUSH1 0x20 ADD DUP3 ADD PUSH1 0x40 MSTORE DUP1 ISZERO PUSH2 0x3A8F JUMPI DUP2 PUSH1 0x20 ADD PUSH1 0x20 DUP3 MUL DUP1 CALLDATASIZE DUP4 CALLDATACOPY ADD SWAP1 POP JUMPDEST POP PUSH1 0x2 SLOAD DUP12 MLOAD SWAP2 SWAP10 POP PUSH20 0xFFFFFFFFFFFFFFFFFFFFFFFFFFFFFFFFFFFFFFFF AND SWAP1 DUP12 SWAP1 PUSH1 0x0 SWAP1 PUSH2 0x3AC0 JUMPI PUSH2 0x3AC0 PUSH2 0x5A20 JUMP JUMPDEST PUSH20 0xFFFFFFFFFFFFFFFFFFFFFFFFFFFFFFFFFFFFFFFF SWAP3 DUP4 AND PUSH1 0x20 SWAP2 DUP3 MUL SWAP3 SWAP1 SWAP3 ADD ADD MSTORE PUSH1 0x2 SLOAD PUSH2 0x3AF0 SWAP2 AND PUSH2 0x4672 JUMP JUMPDEST DUP10 PUSH1 0x0 DUP2 MLOAD DUP2 LT PUSH2 0x3B03 JUMPI PUSH2 0x3B03 PUSH2 0x5A20 JUMP JUMPDEST PUSH1 0x20 SWAP1 DUP2 MUL SWAP2 SWAP1 SWAP2 ADD ADD MSTORE PUSH1 0x2 SLOAD PUSH2 0x3B30 SWAP1 PUSH20 0xFFFFFFFFFFFFFFFFFFFFFFFFFFFFFFFFFFFFFFFF AND PUSH2 0x478A JUMP JUMPDEST PUSH1 0xFF AND DUP9 PUSH1 0x0 DUP2 MLOAD DUP2 LT PUSH2 0x3B46 JUMPI PUSH2 0x3B46 PUSH2 0x5A20 JUMP JUMPDEST PUSH1 0x20 MUL PUSH1 0x20 ADD ADD DUP2 DUP2 MSTORE POP POP DUP1 DUP8 PUSH1 0x0 DUP2 MLOAD DUP2 LT PUSH2 0x3B66 JUMPI PUSH2 0x3B66 PUSH2 0x5A20 JUMP JUMPDEST PUSH1 0x20 MUL PUSH1 0x20 ADD ADD DUP2 DUP2 MSTORE POP POP PUSH1 0x0 JUMPDEST PUSH1 0x7 DUP7 ADD SLOAD DUP2 LT ISZERO PUSH2 0x3E14 JUMPI DUP6 PUSH1 0x7 ADD DUP2 DUP2 SLOAD DUP2 LT PUSH2 0x3B96 JUMPI PUSH2 0x3B96 PUSH2 0x5A20 JUMP JUMPDEST PUSH1 0x0 SWAP2 DUP3 MSTORE PUSH1 0x20 SWAP2 DUP3 SWAP1 KECCAK256 ADD SLOAD PUSH1 0x40 DUP1 MLOAD PUSH32 0xF7C618C100000000000000000000000000000000000000000000000000000000 DUP2 MSTORE SWAP1 MLOAD PUSH20 0xFFFFFFFFFFFFFFFFFFFFFFFFFFFFFFFFFFFFFFFF SWAP1 SWAP3 AND SWAP3 PUSH4 0xF7C618C1 SWAP3 PUSH1 0x4 DUP1 DUP5 ADD SWAP4 DUP3 SWAP1 SUB ADD DUP2 DUP7 DUP1 EXTCODESIZE ISZERO DUP1 ISZERO PUSH2 0x3C05 JUMPI PUSH1 0x0 DUP1 REVERT JUMPDEST POP GAS STATICCALL ISZERO DUP1 ISZERO PUSH2 0x3C19 JUMPI RETURNDATASIZE PUSH1 0x0 DUP1 RETURNDATACOPY RETURNDATASIZE PUSH1 0x0 REVERT JUMPDEST POP POP POP POP PUSH1 0x40 MLOAD RETURNDATASIZE PUSH1 0x1F NOT PUSH1 0x1F DUP3 ADD AND DUP3 ADD DUP1 PUSH1 0x40 MSTORE POP DUP2 ADD SWAP1 PUSH2 0x3C3D SWAP2 SWAP1 PUSH2 0x547B JUMP JUMPDEST DUP12 PUSH2 0x3C49 DUP4 PUSH1 0x1 PUSH2 0x58C5 JUMP JUMPDEST DUP2 MLOAD DUP2 LT PUSH2 0x3C59 JUMPI PUSH2 0x3C59 PUSH2 0x5A20 JUMP JUMPDEST PUSH1 0x20 MUL PUSH1 0x20 ADD ADD SWAP1 PUSH20 0xFFFFFFFFFFFFFFFFFFFFFFFFFFFFFFFFFFFFFFFF AND SWAP1 DUP2 PUSH20 0xFFFFFFFFFFFFFFFFFFFFFFFFFFFFFFFFFFFFFFFF AND DUP2 MSTORE POP POP PUSH2 0x3CAB DUP7 PUSH1 0x7 ADD DUP3 DUP2 SLOAD DUP2 LT PUSH2 0x1795 JUMPI PUSH2 0x1795 PUSH2 0x5A20 JUMP JUMPDEST DUP11 PUSH2 0x3CB7 DUP4 PUSH1 0x1 PUSH2 0x58C5 JUMP JUMPDEST DUP2 MLOAD DUP2 LT PUSH2 0x3CC7 JUMPI PUSH2 0x3CC7 PUSH2 0x5A20 JUMP JUMPDEST PUSH1 0x20 MUL PUSH1 0x20 ADD ADD DUP2 SWAP1 MSTORE POP PUSH2 0x3CEA DUP7 PUSH1 0x7 ADD DUP3 DUP2 SLOAD DUP2 LT PUSH2 0x1896 JUMPI PUSH2 0x1896 PUSH2 0x5A20 JUMP JUMPDEST PUSH1 0xFF AND DUP10 PUSH2 0x3CF9 DUP4 PUSH1 0x1 PUSH2 0x58C5 JUMP JUMPDEST DUP2 MLOAD DUP2 LT PUSH2 0x3D09 JUMPI PUSH2 0x3D09 PUSH2 0x5A20 JUMP JUMPDEST PUSH1 0x20 MUL PUSH1 0x20 ADD ADD DUP2 DUP2 MSTORE POP POP DUP6 PUSH1 0x7 ADD DUP2 DUP2 SLOAD DUP2 LT PUSH2 0x3D2A JUMPI PUSH2 0x3D2A PUSH2 0x5A20 JUMP JUMPDEST PUSH1 0x0 SWAP2 DUP3 MSTORE PUSH1 0x20 SWAP1 SWAP2 KECCAK256 ADD SLOAD PUSH1 0x40 MLOAD PUSH32 0xFFCD426300000000000000000000000000000000000000000000000000000000 DUP2 MSTORE PUSH1 0x4 DUP2 ADD DUP16 SWAP1 MSTORE PUSH20 0xFFFFFFFFFFFFFFFFFFFFFFFFFFFFFFFFFFFFFFFF DUP15 DUP2 AND PUSH1 0x24 DUP4 ADD MSTORE SWAP1 SWAP2 AND SWAP1 PUSH4 0xFFCD4263 SWAP1 PUSH1 0x44 ADD PUSH1 0x20 PUSH1 0x40 MLOAD DUP1 DUP4 SUB DUP2 DUP7 DUP1 EXTCODESIZE ISZERO DUP1 ISZERO PUSH2 0x3DA5 JUMPI PUSH1 0x0 DUP1 REVERT JUMPDEST POP GAS STATICCALL ISZERO DUP1 ISZERO PUSH2 0x3DB9 JUMPI RETURNDATASIZE PUSH1 0x0 DUP1 RETURNDATACOPY RETURNDATASIZE PUSH1 0x0 REVERT JUMPDEST POP POP POP POP PUSH1 0x40 MLOAD RETURNDATASIZE PUSH1 0x1F NOT PUSH1 0x1F DUP3 ADD AND DUP3 ADD DUP1 PUSH1 0x40 MSTORE POP DUP2 ADD SWAP1 PUSH2 0x3DDD SWAP2 SWAP1 PUSH2 0x557C JUMP JUMPDEST DUP9 PUSH2 0x3DE9 DUP4 PUSH1 0x1 PUSH2 0x58C5 JUMP JUMPDEST DUP2 MLOAD DUP2 LT PUSH2 0x3DF9 JUMPI PUSH2 0x3DF9 PUSH2 0x5A20 JUMP JUMPDEST PUSH1 0x20 SWAP1 DUP2 MUL SWAP2 SWAP1 SWAP2 ADD ADD MSTORE PUSH2 0x3E0D DUP2 PUSH2 0x5998 JUMP JUMPDEST SWAP1 POP PUSH2 0x3B75 JUMP JUMPDEST POP POP POP POP POP POP POP SWAP3 SWAP6 SWAP2 SWAP5 POP SWAP3 POP JUMP JUMPDEST PUSH1 0x0 JUMPDEST PUSH1 0x4 SLOAD DUP2 LT ISZERO PUSH2 0x3716 JUMPI PUSH2 0x3E3A DUP2 PUSH2 0x3E4A JUMP JUMPDEST PUSH2 0x3E43 DUP2 PUSH2 0x5998 JUMP JUMPDEST SWAP1 POP PUSH2 0x3E27 JUMP JUMPDEST PUSH1 0x4 SLOAD DUP2 SWAP1 DUP2 LT PUSH2 0x3EB7 JUMPI PUSH1 0x40 MLOAD PUSH32 0x8C379A000000000000000000000000000000000000000000000000000000000 DUP2 MSTORE PUSH1 0x20 PUSH1 0x4 DUP3 ADD MSTORE PUSH1 0x13 PUSH1 0x24 DUP3 ADD MSTORE PUSH32 0x506F6F6C20646F6573206E6F7420657869737400000000000000000000000000 PUSH1 0x44 DUP3 ADD MSTORE PUSH1 0x64 ADD PUSH2 0x763 JUMP JUMPDEST PUSH1 0x0 PUSH1 0x4 DUP4 DUP2 SLOAD DUP2 LT PUSH2 0x3ECC JUMPI PUSH2 0x3ECC PUSH2 0x5A20 JUMP JUMPDEST SWAP1 PUSH1 0x0 MSTORE PUSH1 0x20 PUSH1 0x0 KECCAK256 SWAP1 PUSH1 0x8 MUL ADD SWAP1 POP DUP1 PUSH1 0x2 ADD SLOAD TIMESTAMP GT PUSH2 0x3EEC JUMPI POP POP POP JUMP JUMPDEST PUSH1 0x6 DUP2 ADD SLOAD DUP1 ISZERO DUP1 PUSH2 0x3F00 JUMPI POP PUSH1 0x1 DUP3 ADD SLOAD ISZERO JUMPDEST ISZERO PUSH2 0x3F11 JUMPI POP TIMESTAMP PUSH1 0x2 SWAP1 SWAP2 ADD SSTORE POP POP JUMP JUMPDEST PUSH1 0x0 DUP3 PUSH1 0x2 ADD SLOAD TIMESTAMP PUSH2 0x3F23 SWAP2 SWAP1 PUSH2 0x5955 JUMP JUMPDEST SWAP1 POP PUSH1 0x0 PUSH1 0x6 SLOAD DUP5 PUSH1 0x1 ADD SLOAD PUSH1 0x3 SLOAD DUP5 PUSH2 0x3F3D SWAP2 SWAP1 PUSH2 0x5918 JUMP JUMPDEST PUSH2 0x3F47 SWAP2 SWAP1 PUSH2 0x5918 JUMP JUMPDEST PUSH2 0x3F51 SWAP2 SWAP1 PUSH2 0x58DD JUMP JUMPDEST SWAP1 POP PUSH1 0x0 PUSH2 0x3E8 SWAP1 POP PUSH1 0x0 PUSH1 0xF SLOAD PUSH1 0xE SLOAD PUSH1 0xD SLOAD DUP5 PUSH2 0x3F70 SWAP2 SWAP1 PUSH2 0x5955 JUMP JUMPDEST PUSH2 0x3F7A SWAP2 SWAP1 PUSH2 0x5955 JUMP JUMPDEST PUSH2 0x3F84 SWAP2 SWAP1 PUSH2 0x5955 JUMP JUMPDEST PUSH1 0x2 SLOAD PUSH1 0xA SLOAD PUSH1 0xD SLOAD SWAP3 SWAP4 POP PUSH20 0xFFFFFFFFFFFFFFFFFFFFFFFFFFFFFFFFFFFFFFFF SWAP2 DUP3 AND SWAP3 PUSH4 0x40C10F19 SWAP3 SWAP1 SWAP2 AND SWAP1 DUP6 SWAP1 PUSH2 0x3FBF SWAP1 DUP9 PUSH2 0x5918 JUMP JUMPDEST PUSH2 0x3FC9 SWAP2 SWAP1 PUSH2 0x58DD JUMP JUMPDEST PUSH1 0x40 MLOAD PUSH32 0xFFFFFFFF00000000000000000000000000000000000000000000000000000000 PUSH1 0xE0 DUP6 SWAP1 SHL AND DUP2 MSTORE PUSH20 0xFFFFFFFFFFFFFFFFFFFFFFFFFFFFFFFFFFFFFFFF SWAP1 SWAP3 AND PUSH1 0x4 DUP4 ADD MSTORE PUSH1 0x24 DUP3 ADD MSTORE PUSH1 0x44 ADD PUSH1 0x0 PUSH1 0x40 MLOAD DUP1 DUP4 SUB DUP2 PUSH1 0x0 DUP8 DUP1 EXTCODESIZE ISZERO DUP1 ISZERO PUSH2 0x4034 JUMPI PUSH1 0x0 DUP1 REVERT JUMPDEST POP GAS CALL ISZERO DUP1 ISZERO PUSH2 0x4048 JUMPI RETURNDATASIZE PUSH1 0x0 DUP1 RETURNDATACOPY RETURNDATASIZE PUSH1 0x0 REVERT JUMPDEST POP POP PUSH1 0x2 SLOAD PUSH1 0xB SLOAD PUSH1 0xE SLOAD PUSH20 0xFFFFFFFFFFFFFFFFFFFFFFFFFFFFFFFFFFFFFFFF SWAP3 DUP4 AND SWAP5 POP PUSH4 0x40C10F19 SWAP4 POP SWAP2 AND SWAP1 DUP6 SWAP1 PUSH2 0x4083 SWAP1 DUP9 PUSH2 0x5918 JUMP JUMPDEST PUSH2 0x408D SWAP2 SWAP1 PUSH2 0x58DD JUMP JUMPDEST PUSH1 0x40 MLOAD PUSH32 0xFFFFFFFF00000000000000000000000000000000000000000000000000000000 PUSH1 0xE0 DUP6 SWAP1 SHL AND DUP2 MSTORE PUSH20 0xFFFFFFFFFFFFFFFFFFFFFFFFFFFFFFFFFFFFFFFF SWAP1 SWAP3 AND PUSH1 0x4 DUP4 ADD MSTORE PUSH1 0x24 DUP3 ADD MSTORE PUSH1 0x44 ADD PUSH1 0x0 PUSH1 0x40 MLOAD DUP1 DUP4 SUB DUP2 PUSH1 0x0 DUP8 DUP1 EXTCODESIZE ISZERO DUP1 ISZERO PUSH2 0x40F8 JUMPI PUSH1 0x0 DUP1 REVERT JUMPDEST POP GAS CALL ISZERO DUP1 ISZERO PUSH2 0x410C JUMPI RETURNDATASIZE PUSH1 0x0 DUP1 RETURNDATACOPY RETURNDATASIZE PUSH1 0x0 REVERT JUMPDEST POP POP PUSH1 0x2 SLOAD PUSH1 0xC SLOAD PUSH1 0xF SLOAD PUSH20 0xFFFFFFFFFFFFFFFFFFFFFFFFFFFFFFFFFFFFFFFF SWAP3 DUP4 AND SWAP5 POP PUSH4 0x40C10F19 SWAP4 POP SWAP2 AND SWAP1 DUP6 SWAP1 PUSH2 0x4147 SWAP1 DUP9 PUSH2 0x5918 JUMP JUMPDEST PUSH2 0x4151 SWAP2 SWAP1 PUSH2 0x58DD JUMP JUMPDEST PUSH1 0x40 MLOAD PUSH32 0xFFFFFFFF00000000000000000000000000000000000000000000000000000000 PUSH1 0xE0 DUP6 SWAP1 SHL AND DUP2 MSTORE PUSH20 0xFFFFFFFFFFFFFFFFFFFFFFFFFFFFFFFFFFFFFFFF SWAP1 SWAP3 AND PUSH1 0x4 DUP4 ADD MSTORE PUSH1 0x24 DUP3 ADD MSTORE PUSH1 0x44 ADD PUSH1 0x0 PUSH1 0x40 MLOAD DUP1 DUP4 SUB DUP2 PUSH1 0x0 DUP8 DUP1 EXTCODESIZE ISZERO DUP1 ISZERO PUSH2 0x41BC JUMPI PUSH1 0x0 DUP1 REVERT JUMPDEST POP GAS CALL ISZERO DUP1 ISZERO PUSH2 0x41D0 JUMPI RETURNDATASIZE PUSH1 0x0 DUP1 RETURNDATACOPY RETURNDATASIZE PUSH1 0x0 REVERT JUMPDEST POP POP PUSH1 0x2 SLOAD PUSH20 0xFFFFFFFFFFFFFFFFFFFFFFFFFFFFFFFFFFFFFFFF AND SWAP2 POP PUSH4 0x40C10F19 SWAP1 POP ADDRESS DUP5 PUSH2 0x4200 DUP6 DUP9 PUSH2 0x5918 JUMP JUMPDEST PUSH2 0x420A SWAP2 SWAP1 PUSH2 0x58DD JUMP JUMPDEST PUSH1 0x40 MLOAD PUSH32 0xFFFFFFFF00000000000000000000000000000000000000000000000000000000 PUSH1 0xE0 DUP6 SWAP1 SHL AND DUP2 MSTORE PUSH20 0xFFFFFFFFFFFFFFFFFFFFFFFFFFFFFFFFFFFFFFFF SWAP1 SWAP3 AND PUSH1 0x4 DUP4 ADD MSTORE PUSH1 0x24 DUP3 ADD MSTORE PUSH1 0x44 ADD PUSH1 0x0 PUSH1 0x40 MLOAD DUP1 DUP4 SUB DUP2 PUSH1 0x0 DUP8 DUP1 EXTCODESIZE ISZERO DUP1 ISZERO PUSH2 0x4275 JUMPI PUSH1 0x0 DUP1 REVERT JUMPDEST POP GAS CALL ISZERO DUP1 ISZERO PUSH2 0x4289 JUMPI RETURNDATASIZE PUSH1 0x0 DUP1 RETURNDATACOPY RETURNDATASIZE PUSH1 0x0 REVERT JUMPDEST POP POP POP PUSH1 0x6 DUP8 ADD SLOAD DUP4 SWAP2 POP DUP3 PUSH2 0x42BF PUSH32 0x0 DUP8 PUSH2 0x5918 JUMP JUMPDEST PUSH2 0x42C9 SWAP2 SWAP1 PUSH2 0x5918 JUMP JUMPDEST PUSH2 0x42D3 SWAP2 SWAP1 PUSH2 0x58DD JUMP JUMPDEST PUSH2 0x42DD SWAP2 SWAP1 PUSH2 0x58DD JUMP JUMPDEST DUP7 PUSH1 0x3 ADD PUSH1 0x0 DUP3 DUP3 SLOAD PUSH2 0x42F0 SWAP2 SWAP1 PUSH2 0x58C5 JUMP JUMPDEST SWAP1 SWAP2 SSTORE POP POP TIMESTAMP PUSH1 0x2 DUP8 ADD DUP2 SWAP1 SSTORE PUSH1 0x3 DUP8 ADD SLOAD PUSH1 0x40 DUP1 MLOAD SWAP3 DUP4 MSTORE PUSH1 0x20 DUP4 ADD DUP9 SWAP1 MSTORE DUP3 ADD MSTORE DUP9 SWAP1 PUSH32 0x3BE3541FC42237D611B30329040BFA4569541D156560ACDBBAE57640D20B8F46 SWAP1 PUSH1 0x60 ADD PUSH1 0x40 MLOAD DUP1 SWAP2 SUB SWAP1 LOG2 POP POP POP POP POP POP JUMPDEST POP POP JUMP JUMPDEST PUSH1 0x0 PUSH1 0x4 DUP3 DUP2 SLOAD DUP2 LT PUSH2 0x4362 JUMPI PUSH2 0x4362 PUSH2 0x5A20 JUMP JUMPDEST PUSH1 0x0 SWAP2 DUP3 MSTORE PUSH1 0x20 DUP1 DUP4 KECCAK256 DUP6 DUP5 MSTORE PUSH1 0x5 DUP3 MSTORE PUSH1 0x40 DUP1 DUP6 KECCAK256 CALLER DUP7 MSTORE SWAP1 SWAP3 MSTORE SWAP3 KECCAK256 PUSH1 0x3 DUP2 ADD SLOAD PUSH1 0x8 SWAP1 SWAP3 MUL SWAP1 SWAP3 ADD SWAP3 POP ISZERO DUP1 ISZERO PUSH2 0x439E JUMPI POP PUSH1 0x7 SLOAD TIMESTAMP LT ISZERO JUMPDEST ISZERO PUSH2 0x43B8 JUMPI PUSH1 0x5 DUP3 ADD SLOAD PUSH2 0x43B2 SWAP1 TIMESTAMP PUSH2 0x58C5 JUMP JUMPDEST PUSH1 0x3 DUP3 ADD SSTORE JUMPDEST PUSH1 0x0 DUP2 PUSH1 0x1 ADD SLOAD PUSH32 0x0 DUP5 PUSH1 0x3 ADD SLOAD DUP5 PUSH1 0x0 ADD SLOAD PUSH2 0x43F4 SWAP2 SWAP1 PUSH2 0x5918 JUMP JUMPDEST PUSH2 0x43FE SWAP2 SWAP1 PUSH2 0x58DD JUMP JUMPDEST PUSH2 0x4408 SWAP2 SWAP1 PUSH2 0x5955 JUMP JUMPDEST SWAP1 POP PUSH2 0x4414 DUP5 CALLER PUSH2 0xC7F JUMP JUMPDEST ISZERO PUSH2 0x448C JUMPI PUSH1 0x0 DUP2 GT DUP1 PUSH2 0x442C JUMPI POP PUSH1 0x0 DUP3 PUSH1 0x2 ADD SLOAD GT JUMPDEST ISZERO PUSH2 0x4487 JUMPI PUSH1 0x0 DUP3 PUSH1 0x2 ADD SLOAD DUP3 PUSH2 0x4443 SWAP2 SWAP1 PUSH2 0x58C5 JUMP JUMPDEST SWAP1 POP DUP3 PUSH1 0x2 ADD SLOAD PUSH1 0x8 PUSH1 0x0 DUP3 DUP3 SLOAD PUSH2 0x445B SWAP2 SWAP1 PUSH2 0x5955 JUMP JUMPDEST SWAP1 SWAP2 SSTORE POP POP PUSH1 0x0 PUSH1 0x2 DUP5 ADD SSTORE PUSH1 0x5 DUP5 ADD SLOAD PUSH2 0x4476 SWAP1 TIMESTAMP PUSH2 0x58C5 JUMP JUMPDEST PUSH1 0x3 DUP5 ADD SSTORE PUSH2 0x4485 CALLER DUP3 PUSH2 0x4D63 JUMP JUMPDEST POP JUMPDEST PUSH2 0x44FC JUMP JUMPDEST DUP1 ISZERO PUSH2 0x44FC JUMPI DUP1 PUSH1 0x8 PUSH1 0x0 DUP3 DUP3 SLOAD PUSH2 0x44A4 SWAP2 SWAP1 PUSH2 0x58C5 JUMP JUMPDEST SWAP3 POP POP DUP2 SWAP1 SSTORE POP DUP1 DUP3 PUSH1 0x2 ADD PUSH1 0x0 DUP3 DUP3 SLOAD PUSH2 0x44BF SWAP2 SWAP1 PUSH2 0x58C5 JUMP JUMPDEST SWAP1 SWAP2 SSTORE POP POP PUSH1 0x40 MLOAD DUP2 DUP2 MSTORE DUP5 SWAP1 CALLER SWAP1 PUSH32 0xEE470483107F579A55C754FA00613C45A9A3B617A418B39CB0BE97E5381BA7C1 SWAP1 PUSH1 0x20 ADD PUSH1 0x40 MLOAD DUP1 SWAP2 SUB SWAP1 LOG3 JUMPDEST POP POP POP POP JUMP JUMPDEST PUSH1 0x40 DUP1 MLOAD PUSH20 0xFFFFFFFFFFFFFFFFFFFFFFFFFFFFFFFFFFFFFFFF DUP5 DUP2 AND PUSH1 0x24 DUP4 ADD MSTORE PUSH1 0x44 DUP1 DUP4 ADD DUP6 SWAP1 MSTORE DUP4 MLOAD DUP1 DUP5 SUB SWAP1 SWAP2 ADD DUP2 MSTORE PUSH1 0x64 SWAP1 SWAP3 ADD DUP4 MSTORE PUSH1 0x20 DUP3 ADD DUP1 MLOAD PUSH28 0xFFFFFFFFFFFFFFFFFFFFFFFFFFFFFFFFFFFFFFFFFFFFFFFFFFFFFFFF AND PUSH32 0xA9059CBB00000000000000000000000000000000000000000000000000000000 OR SWAP1 MSTORE SWAP2 MLOAD PUSH1 0x0 SWAP3 DUP4 SWAP3 SWAP1 DUP8 AND SWAP2 PUSH2 0x4599 SWAP2 SWAP1 PUSH2 0x57D1 JUMP JUMPDEST PUSH1 0x0 PUSH1 0x40 MLOAD DUP1 DUP4 SUB DUP2 PUSH1 0x0 DUP7 GAS CALL SWAP2 POP POP RETURNDATASIZE DUP1 PUSH1 0x0 DUP2 EQ PUSH2 0x45D6 JUMPI PUSH1 0x40 MLOAD SWAP2 POP PUSH1 0x1F NOT PUSH1 0x3F RETURNDATASIZE ADD AND DUP3 ADD PUSH1 0x40 MSTORE RETURNDATASIZE DUP3 MSTORE RETURNDATASIZE PUSH1 0x0 PUSH1 0x20 DUP5 ADD RETURNDATACOPY PUSH2 0x45DB JUMP JUMPDEST PUSH1 0x60 SWAP2 POP JUMPDEST POP SWAP2 POP SWAP2 POP DUP2 DUP1 ISZERO PUSH2 0x4605 JUMPI POP DUP1 MLOAD ISZERO DUP1 PUSH2 0x4605 JUMPI POP DUP1 DUP1 PUSH1 0x20 ADD SWAP1 MLOAD DUP2 ADD SWAP1 PUSH2 0x4605 SWAP2 SWAP1 PUSH2 0x5459 JUMP JUMPDEST PUSH2 0x466B JUMPI PUSH1 0x40 MLOAD PUSH32 0x8C379A000000000000000000000000000000000000000000000000000000000 DUP2 MSTORE PUSH1 0x20 PUSH1 0x4 DUP3 ADD MSTORE PUSH1 0x1C PUSH1 0x24 DUP3 ADD MSTORE PUSH32 0x426F72696E6745524332303A205472616E73666572206661696C656400000000 PUSH1 0x44 DUP3 ADD MSTORE PUSH1 0x64 ADD PUSH2 0x763 JUMP JUMPDEST POP POP POP POP POP JUMP JUMPDEST PUSH1 0x40 DUP1 MLOAD PUSH1 0x4 DUP2 MSTORE PUSH1 0x24 DUP2 ADD DUP3 MSTORE PUSH1 0x20 DUP2 ADD DUP1 MLOAD PUSH28 0xFFFFFFFFFFFFFFFFFFFFFFFFFFFFFFFFFFFFFFFFFFFFFFFFFFFFFFFF AND PUSH32 0x95D89B4100000000000000000000000000000000000000000000000000000000 OR SWAP1 MSTORE SWAP1 MLOAD PUSH1 0x60 SWAP2 PUSH1 0x0 SWAP2 DUP3 SWAP2 PUSH20 0xFFFFFFFFFFFFFFFFFFFFFFFFFFFFFFFFFFFFFFFF DUP7 AND SWAP2 PUSH2 0x46F4 SWAP2 SWAP1 PUSH2 0x57D1 JUMP JUMPDEST PUSH1 0x0 PUSH1 0x40 MLOAD DUP1 DUP4 SUB DUP2 DUP6 GAS STATICCALL SWAP2 POP POP RETURNDATASIZE DUP1 PUSH1 0x0 DUP2 EQ PUSH2 0x472F JUMPI PUSH1 0x40 MLOAD SWAP2 POP PUSH1 0x1F NOT PUSH1 0x3F RETURNDATASIZE ADD AND DUP3 ADD PUSH1 0x40 MSTORE RETURNDATASIZE DUP3 MSTORE RETURNDATASIZE PUSH1 0x0 PUSH1 0x20 DUP5 ADD RETURNDATACOPY PUSH2 0x4734 JUMP JUMPDEST PUSH1 0x60 SWAP2 POP JUMPDEST POP SWAP2 POP SWAP2 POP DUP2 PUSH2 0x4779 JUMPI PUSH1 0x40 MLOAD DUP1 PUSH1 0x40 ADD PUSH1 0x40 MSTORE DUP1 PUSH1 0x3 DUP2 MSTORE PUSH1 0x20 ADD PUSH32 0x3F3F3F0000000000000000000000000000000000000000000000000000000000 DUP2 MSTORE POP PUSH2 0x4782 JUMP JUMPDEST PUSH2 0x4782 DUP2 PUSH2 0x4F19 JUMP JUMPDEST SWAP5 SWAP4 POP POP POP POP JUMP JUMPDEST PUSH1 0x40 DUP1 MLOAD PUSH1 0x4 DUP2 MSTORE PUSH1 0x24 DUP2 ADD DUP3 MSTORE PUSH1 0x20 DUP2 ADD DUP1 MLOAD PUSH28 0xFFFFFFFFFFFFFFFFFFFFFFFFFFFFFFFFFFFFFFFFFFFFFFFFFFFFFFFF AND PUSH32 0x313CE56700000000000000000000000000000000000000000000000000000000 OR SWAP1 MSTORE SWAP1 MLOAD PUSH1 0x0 SWAP2 DUP3 SWAP2 DUP3 SWAP2 PUSH20 0xFFFFFFFFFFFFFFFFFFFFFFFFFFFFFFFFFFFFFFFF DUP7 AND SWAP2 PUSH2 0x480B SWAP2 SWAP1 PUSH2 0x57D1 JUMP JUMPDEST PUSH1 0x0 PUSH1 0x40 MLOAD DUP1 DUP4 SUB DUP2 DUP6 GAS STATICCALL SWAP2 POP POP RETURNDATASIZE DUP1 PUSH1 0x0 DUP2 EQ PUSH2 0x4846 JUMPI PUSH1 0x40 MLOAD SWAP2 POP PUSH1 0x1F NOT PUSH1 0x3F RETURNDATASIZE ADD AND DUP3 ADD PUSH1 0x40 MSTORE RETURNDATASIZE DUP3 MSTORE RETURNDATASIZE PUSH1 0x0 PUSH1 0x20 DUP5 ADD RETURNDATACOPY PUSH2 0x484B JUMP JUMPDEST PUSH1 0x60 SWAP2 POP JUMPDEST POP SWAP2 POP SWAP2 POP DUP2 DUP1 ISZERO PUSH2 0x485E JUMPI POP DUP1 MLOAD PUSH1 0x20 EQ JUMPDEST PUSH2 0x4869 JUMPI PUSH1 0x12 PUSH2 0x4782 JUMP JUMPDEST DUP1 DUP1 PUSH1 0x20 ADD SWAP1 MLOAD DUP2 ADD SWAP1 PUSH2 0x4782 SWAP2 SWAP1 PUSH2 0x56E4 JUMP JUMPDEST PUSH1 0x4 SLOAD DUP3 SWAP1 DUP2 LT PUSH2 0x48EA JUMPI PUSH1 0x40 MLOAD PUSH32 0x8C379A000000000000000000000000000000000000000000000000000000000 DUP2 MSTORE PUSH1 0x20 PUSH1 0x4 DUP3 ADD MSTORE PUSH1 0x13 PUSH1 0x24 DUP3 ADD MSTORE PUSH32 0x506F6F6C20646F6573206E6F7420657869737400000000000000000000000000 PUSH1 0x44 DUP3 ADD MSTORE PUSH1 0x64 ADD PUSH2 0x763 JUMP JUMPDEST PUSH1 0x0 PUSH1 0x4 DUP5 DUP2 SLOAD DUP2 LT PUSH2 0x48FF JUMPI PUSH2 0x48FF PUSH2 0x5A20 JUMP JUMPDEST PUSH1 0x0 SWAP2 DUP3 MSTORE PUSH1 0x20 DUP1 DUP4 KECCAK256 DUP8 DUP5 MSTORE PUSH1 0x5 DUP3 MSTORE PUSH1 0x40 DUP1 DUP6 KECCAK256 CALLER DUP7 MSTORE SWAP1 SWAP3 MSTORE SWAP3 KECCAK256 PUSH1 0x8 SWAP1 SWAP2 MUL SWAP1 SWAP2 ADD SWAP2 POP PUSH2 0x4930 DUP6 PUSH2 0x3E4A JUMP JUMPDEST PUSH2 0x4939 DUP6 PUSH2 0x434D JUMP JUMPDEST DUP4 ISZERO PUSH2 0x4B7C JUMPI DUP2 SLOAD PUSH1 0x40 MLOAD PUSH32 0x70A0823100000000000000000000000000000000000000000000000000000000 DUP2 MSTORE ADDRESS PUSH1 0x4 DUP3 ADD MSTORE PUSH1 0x0 SWAP2 PUSH20 0xFFFFFFFFFFFFFFFFFFFFFFFFFFFFFFFFFFFFFFFF AND SWAP1 PUSH4 0x70A08231 SWAP1 PUSH1 0x24 ADD PUSH1 0x20 PUSH1 0x40 MLOAD DUP1 DUP4 SUB DUP2 DUP7 DUP1 EXTCODESIZE ISZERO DUP1 ISZERO PUSH2 0x49A8 JUMPI PUSH1 0x0 DUP1 REVERT JUMPDEST POP GAS STATICCALL ISZERO DUP1 ISZERO PUSH2 0x49BC JUMPI RETURNDATASIZE PUSH1 0x0 DUP1 RETURNDATACOPY RETURNDATASIZE PUSH1 0x0 REVERT JUMPDEST POP POP POP POP PUSH1 0x40 MLOAD RETURNDATASIZE PUSH1 0x1F NOT PUSH1 0x1F DUP3 ADD AND DUP3 ADD DUP1 PUSH1 0x40 MSTORE POP DUP2 ADD SWAP1 PUSH2 0x49E0 SWAP2 SWAP1 PUSH2 0x557C JUMP JUMPDEST DUP4 SLOAD SWAP1 SWAP2 POP PUSH2 0x4A07 SWAP1 PUSH20 0xFFFFFFFFFFFFFFFFFFFFFFFFFFFFFFFFFFFFFFFF AND CALLER ADDRESS DUP9 PUSH2 0x510C JUMP JUMPDEST DUP3 SLOAD PUSH1 0x40 MLOAD PUSH32 0x70A0823100000000000000000000000000000000000000000000000000000000 DUP2 MSTORE ADDRESS PUSH1 0x4 DUP3 ADD MSTORE PUSH1 0x0 SWAP2 PUSH20 0xFFFFFFFFFFFFFFFFFFFFFFFFFFFFFFFFFFFFFFFF AND SWAP1 PUSH4 0x70A08231 SWAP1 PUSH1 0x24 ADD PUSH1 0x20 PUSH1 0x40 MLOAD DUP1 DUP4 SUB DUP2 DUP7 DUP1 EXTCODESIZE ISZERO DUP1 ISZERO PUSH2 0x4A70 JUMPI PUSH1 0x0 DUP1 REVERT JUMPDEST POP GAS STATICCALL ISZERO DUP1 ISZERO PUSH2 0x4A84 JUMPI RETURNDATASIZE PUSH1 0x0 DUP1 RETURNDATACOPY RETURNDATASIZE PUSH1 0x0 REVERT JUMPDEST POP POP POP POP PUSH1 0x40 MLOAD RETURNDATASIZE PUSH1 0x1F NOT PUSH1 0x1F DUP3 ADD AND DUP3 ADD DUP1 PUSH1 0x40 MSTORE POP DUP2 ADD SWAP1 PUSH2 0x4AA8 SWAP2 SWAP1 PUSH2 0x557C JUMP JUMPDEST SWAP1 POP PUSH2 0x4AB4 DUP3 DUP3 PUSH2 0x5955 JUMP JUMPDEST PUSH1 0x4 DUP6 ADD SLOAD SWAP1 SWAP7 POP PUSH2 0xFFFF AND ISZERO PUSH2 0x4B23 JUMPI PUSH1 0x4 DUP5 ADD SLOAD PUSH1 0x0 SWAP1 PUSH2 0x2710 SWAP1 PUSH2 0x4ADF SWAP1 PUSH2 0xFFFF AND DUP10 PUSH2 0x5918 JUMP JUMPDEST PUSH2 0x4AE9 SWAP2 SWAP1 PUSH2 0x58DD JUMP JUMPDEST PUSH1 0xB SLOAD DUP7 SLOAD SWAP2 SWAP3 POP PUSH2 0x4B15 SWAP2 PUSH20 0xFFFFFFFFFFFFFFFFFFFFFFFFFFFFFFFFFFFFFFFF SWAP1 DUP2 AND SWAP2 AND DUP4 PUSH2 0x4502 JUMP JUMPDEST PUSH2 0x4B1F DUP2 DUP9 PUSH2 0x5955 JUMP JUMPDEST SWAP7 POP POP JUMPDEST DUP6 DUP4 PUSH1 0x0 ADD PUSH1 0x0 DUP3 DUP3 SLOAD PUSH2 0x4B37 SWAP2 SWAP1 PUSH2 0x58C5 JUMP JUMPDEST SWAP1 SWAP2 SSTORE POP POP PUSH1 0x2 SLOAD DUP5 SLOAD PUSH20 0xFFFFFFFFFFFFFFFFFFFFFFFFFFFFFFFFFFFFFFFF SWAP1 DUP2 AND SWAP2 AND EQ ISZERO PUSH2 0x4B79 JUMPI DUP6 PUSH1 0x9 PUSH1 0x0 DUP3 DUP3 SLOAD PUSH2 0x4B73 SWAP2 SWAP1 PUSH2 0x58C5 JUMP JUMPDEST SWAP1 SWAP2 SSTORE POP POP JUMPDEST POP POP JUMPDEST PUSH1 0x3 DUP3 ADD SLOAD DUP2 SLOAD PUSH32 0x0 SWAP2 PUSH2 0x4BAE SWAP2 PUSH2 0x5918 JUMP JUMPDEST PUSH2 0x4BB8 SWAP2 SWAP1 PUSH2 0x58DD JUMP JUMPDEST PUSH1 0x1 DUP3 ADD SSTORE PUSH1 0x0 JUMPDEST PUSH1 0x7 DUP4 ADD SLOAD DUP2 LT ISZERO PUSH2 0x4C8F JUMPI DUP3 PUSH1 0x7 ADD DUP2 DUP2 SLOAD DUP2 LT PUSH2 0x4BE1 JUMPI PUSH2 0x4BE1 PUSH2 0x5A20 JUMP JUMPDEST PUSH1 0x0 SWAP2 DUP3 MSTORE PUSH1 0x20 SWAP1 SWAP2 KECCAK256 ADD SLOAD DUP3 SLOAD PUSH1 0x40 MLOAD PUSH32 0x8AD1472800000000000000000000000000000000000000000000000000000000 DUP2 MSTORE PUSH1 0x4 DUP2 ADD DUP10 SWAP1 MSTORE CALLER PUSH1 0x24 DUP3 ADD MSTORE PUSH1 0x44 DUP2 ADD SWAP2 SWAP1 SWAP2 MSTORE PUSH20 0xFFFFFFFFFFFFFFFFFFFFFFFFFFFFFFFFFFFFFFFF SWAP1 SWAP2 AND SWAP1 PUSH4 0x8AD14728 SWAP1 PUSH1 0x64 ADD PUSH1 0x0 PUSH1 0x40 MLOAD DUP1 DUP4 SUB DUP2 PUSH1 0x0 DUP8 DUP1 EXTCODESIZE ISZERO DUP1 ISZERO PUSH2 0x4C66 JUMPI PUSH1 0x0 DUP1 REVERT JUMPDEST POP GAS CALL ISZERO DUP1 ISZERO PUSH2 0x4C7A JUMPI RETURNDATASIZE PUSH1 0x0 DUP1 RETURNDATACOPY RETURNDATASIZE PUSH1 0x0 REVERT JUMPDEST POP POP POP POP DUP1 PUSH2 0x4C88 SWAP1 PUSH2 0x5998 JUMP JUMPDEST SWAP1 POP PUSH2 0x4BC0 JUMP JUMPDEST POP DUP4 ISZERO PUSH2 0x4CB0 JUMPI DUP4 DUP3 PUSH1 0x6 ADD PUSH1 0x0 DUP3 DUP3 SLOAD PUSH2 0x4CAA SWAP2 SWAP1 PUSH2 0x58C5 JUMP JUMPDEST SWAP1 SWAP2 SSTORE POP POP JUMPDEST PUSH1 0x40 MLOAD DUP5 DUP2 MSTORE DUP6 SWAP1 CALLER SWAP1 PUSH32 0x90890809C654F11D6E72A28FA60149770A0D11EC6C92319D6CEB2BB0A4EA1A15 SWAP1 PUSH1 0x20 ADD PUSH1 0x40 MLOAD DUP1 SWAP2 SUB SWAP1 LOG3 POP POP POP POP POP JUMP JUMPDEST PUSH1 0x0 DUP1 SLOAD PUSH20 0xFFFFFFFFFFFFFFFFFFFFFFFFFFFFFFFFFFFFFFFF DUP4 DUP2 AND PUSH32 0xFFFFFFFFFFFFFFFFFFFFFFFF0000000000000000000000000000000000000000 DUP4 AND DUP2 OR DUP5 SSTORE PUSH1 0x40 MLOAD SWAP2 SWAP1 SWAP3 AND SWAP3 DUP4 SWAP2 PUSH32 0x8BE0079C531659141344CD1FD0A4F28419497F9722A3DAAFE3B4186F6B6457E0 SWAP2 SWAP1 LOG3 POP POP JUMP JUMPDEST PUSH1 0x9 SLOAD PUSH1 0x2 SLOAD PUSH1 0x40 MLOAD PUSH32 0x70A0823100000000000000000000000000000000000000000000000000000000 DUP2 MSTORE ADDRESS PUSH1 0x4 DUP3 ADD MSTORE PUSH20 0xFFFFFFFFFFFFFFFFFFFFFFFFFFFFFFFFFFFFFFFF SWAP1 SWAP2 AND SWAP1 PUSH4 0x70A08231 SWAP1 PUSH1 0x24 ADD PUSH1 0x20 PUSH1 0x40 MLOAD DUP1 DUP4 SUB DUP2 DUP7 DUP1 EXTCODESIZE ISZERO DUP1 ISZERO PUSH2 0x4DCF JUMPI PUSH1 0x0 DUP1 REVERT JUMPDEST POP GAS STATICCALL ISZERO DUP1 ISZERO PUSH2 0x4DE3 JUMPI RETURNDATASIZE PUSH1 0x0 DUP1 RETURNDATACOPY RETURNDATASIZE PUSH1 0x0 REVERT JUMPDEST POP POP POP POP PUSH1 0x40 MLOAD RETURNDATASIZE PUSH1 0x1F NOT PUSH1 0x1F DUP3 ADD AND DUP3 ADD DUP1 PUSH1 0x40 MSTORE POP DUP2 ADD SWAP1 PUSH2 0x4E07 SWAP2 SWAP1 PUSH2 0x557C JUMP JUMPDEST GT ISZERO PUSH2 0x4349 JUMPI PUSH1 0x9 SLOAD PUSH1 0x2 SLOAD PUSH1 0x40 MLOAD PUSH32 0x70A0823100000000000000000000000000000000000000000000000000000000 DUP2 MSTORE ADDRESS PUSH1 0x4 DUP3 ADD MSTORE PUSH1 0x0 SWAP3 SWAP2 PUSH20 0xFFFFFFFFFFFFFFFFFFFFFFFFFFFFFFFFFFFFFFFF AND SWAP1 PUSH4 0x70A08231 SWAP1 PUSH1 0x24 ADD PUSH1 0x20 PUSH1 0x40 MLOAD DUP1 DUP4 SUB DUP2 DUP7 DUP1 EXTCODESIZE ISZERO DUP1 ISZERO PUSH2 0x4E7B JUMPI PUSH1 0x0 DUP1 REVERT JUMPDEST POP GAS STATICCALL ISZERO DUP1 ISZERO PUSH2 0x4E8F JUMPI RETURNDATASIZE PUSH1 0x0 DUP1 RETURNDATACOPY RETURNDATASIZE PUSH1 0x0 REVERT JUMPDEST POP POP POP POP PUSH1 0x40 MLOAD RETURNDATASIZE PUSH1 0x1F NOT PUSH1 0x1F DUP3 ADD AND DUP3 ADD DUP1 PUSH1 0x40 MSTORE POP DUP2 ADD SWAP1 PUSH2 0x4EB3 SWAP2 SWAP1 PUSH2 0x557C JUMP JUMPDEST PUSH2 0x4EBD SWAP2 SWAP1 PUSH2 0x5955 JUMP JUMPDEST SWAP1 POP DUP1 DUP3 LT PUSH2 0x4EEF JUMPI PUSH1 0x2 SLOAD PUSH2 0x4EEA SWAP1 PUSH20 0xFFFFFFFFFFFFFFFFFFFFFFFFFFFFFFFFFFFFFFFF AND DUP5 DUP4 PUSH2 0x4502 JUMP JUMPDEST POP POP POP JUMP JUMPDEST DUP2 ISZERO PUSH2 0x4EEA JUMPI PUSH1 0x2 SLOAD PUSH2 0x4EEA SWAP1 PUSH20 0xFFFFFFFFFFFFFFFFFFFFFFFFFFFFFFFFFFFFFFFF AND DUP5 DUP5 PUSH2 0x4502 JUMP JUMPDEST PUSH1 0x60 PUSH1 0x40 DUP3 MLOAD LT PUSH2 0x4F3E JUMPI DUP2 DUP1 PUSH1 0x20 ADD SWAP1 MLOAD DUP2 ADD SWAP1 PUSH2 0x4F38 SWAP2 SWAP1 PUSH2 0x5498 JUMP JUMPDEST SWAP3 SWAP2 POP POP JUMP JUMPDEST DUP2 MLOAD PUSH1 0x20 EQ ISZERO PUSH2 0x50CE JUMPI PUSH1 0x0 JUMPDEST PUSH1 0x20 DUP2 PUSH1 0xFF AND LT DUP1 ISZERO PUSH2 0x4F98 JUMPI POP DUP3 DUP2 PUSH1 0xFF AND DUP2 MLOAD DUP2 LT PUSH2 0x4F6E JUMPI PUSH2 0x4F6E PUSH2 0x5A20 JUMP JUMPDEST ADD PUSH1 0x20 ADD MLOAD PUSH32 0xFF00000000000000000000000000000000000000000000000000000000000000 AND ISZERO ISZERO JUMPDEST ISZERO PUSH2 0x4FAF JUMPI DUP1 PUSH2 0x4FA7 DUP2 PUSH2 0x59D1 JUMP JUMPDEST SWAP2 POP POP PUSH2 0x4F4B JUMP JUMPDEST PUSH1 0x0 DUP2 PUSH1 0xFF AND PUSH8 0xFFFFFFFFFFFFFFFF DUP2 GT ISZERO PUSH2 0x4FCD JUMPI PUSH2 0x4FCD PUSH2 0x5A4F JUMP JUMPDEST PUSH1 0x40 MLOAD SWAP1 DUP1 DUP3 MSTORE DUP1 PUSH1 0x1F ADD PUSH1 0x1F NOT AND PUSH1 0x20 ADD DUP3 ADD PUSH1 0x40 MSTORE DUP1 ISZERO PUSH2 0x4FF7 JUMPI PUSH1 0x20 DUP3 ADD DUP2 DUP1 CALLDATASIZE DUP4 CALLDATACOPY ADD SWAP1 POP JUMPDEST POP SWAP1 POP PUSH1 0x0 SWAP2 POP JUMPDEST PUSH1 0x20 DUP3 PUSH1 0xFF AND LT DUP1 ISZERO PUSH2 0x504C JUMPI POP DUP4 DUP3 PUSH1 0xFF AND DUP2 MLOAD DUP2 LT PUSH2 0x5022 JUMPI PUSH2 0x5022 PUSH2 0x5A20 JUMP JUMPDEST ADD PUSH1 0x20 ADD MLOAD PUSH32 0xFF00000000000000000000000000000000000000000000000000000000000000 AND ISZERO ISZERO JUMPDEST ISZERO PUSH2 0x50C7 JUMPI DUP4 DUP3 PUSH1 0xFF AND DUP2 MLOAD DUP2 LT PUSH2 0x5066 JUMPI PUSH2 0x5066 PUSH2 0x5A20 JUMP JUMPDEST PUSH1 0x20 ADD ADD MLOAD PUSH1 0xF8 SHR PUSH1 0xF8 SHL DUP2 DUP4 PUSH1 0xFF AND DUP2 MLOAD DUP2 LT PUSH2 0x5086 JUMPI PUSH2 0x5086 PUSH2 0x5A20 JUMP JUMPDEST PUSH1 0x20 ADD ADD SWAP1 PUSH31 0xFFFFFFFFFFFFFFFFFFFFFFFFFFFFFFFFFFFFFFFFFFFFFFFFFFFFFFFFFFFFFF NOT AND SWAP1 DUP2 PUSH1 0x0 BYTE SWAP1 MSTORE8 POP DUP2 PUSH2 0x50BF DUP2 PUSH2 0x59D1 JUMP JUMPDEST SWAP3 POP POP PUSH2 0x4FFF JUMP JUMPDEST SWAP4 SWAP3 POP POP POP JUMP JUMPDEST POP POP PUSH1 0x40 DUP1 MLOAD DUP1 DUP3 ADD SWAP1 SWAP2 MSTORE PUSH1 0x3 DUP2 MSTORE PUSH32 0x3F3F3F0000000000000000000000000000000000000000000000000000000000 PUSH1 0x20 DUP3 ADD MSTORE SWAP1 JUMP JUMPDEST SWAP2 SWAP1 POP JUMP JUMPDEST PUSH1 0x40 DUP1 MLOAD PUSH20 0xFFFFFFFFFFFFFFFFFFFFFFFFFFFFFFFFFFFFFFFF DUP6 DUP2 AND PUSH1 0x24 DUP4 ADD MSTORE DUP5 DUP2 AND PUSH1 0x44 DUP4 ADD MSTORE PUSH1 0x64 DUP1 DUP4 ADD DUP6 SWAP1 MSTORE DUP4 MLOAD DUP1 DUP5 SUB SWAP1 SWAP2 ADD DUP2 MSTORE PUSH1 0x84 SWAP1 SWAP3 ADD DUP4 MSTORE PUSH1 0x20 DUP3 ADD DUP1 MLOAD PUSH28 0xFFFFFFFFFFFFFFFFFFFFFFFFFFFFFFFFFFFFFFFFFFFFFFFFFFFFFFFF AND PUSH32 0x23B872DD00000000000000000000000000000000000000000000000000000000 OR SWAP1 MSTORE SWAP2 MLOAD PUSH1 0x0 SWAP3 DUP4 SWAP3 SWAP1 DUP9 AND SWAP2 PUSH2 0x51AB SWAP2 SWAP1 PUSH2 0x57D1 JUMP JUMPDEST PUSH1 0x0 PUSH1 0x40 MLOAD DUP1 DUP4 SUB DUP2 PUSH1 0x0 DUP7 GAS CALL SWAP2 POP POP RETURNDATASIZE DUP1 PUSH1 0x0 DUP2 EQ PUSH2 0x51E8 JUMPI PUSH1 0x40 MLOAD SWAP2 POP PUSH1 0x1F NOT PUSH1 0x3F RETURNDATASIZE ADD AND DUP3 ADD PUSH1 0x40 MSTORE RETURNDATASIZE DUP3 MSTORE RETURNDATASIZE PUSH1 0x0 PUSH1 0x20 DUP5 ADD RETURNDATACOPY PUSH2 0x51ED JUMP JUMPDEST PUSH1 0x60 SWAP2 POP JUMPDEST POP SWAP2 POP SWAP2 POP DUP2 DUP1 ISZERO PUSH2 0x5217 JUMPI POP DUP1 MLOAD ISZERO DUP1 PUSH2 0x5217 JUMPI POP DUP1 DUP1 PUSH1 0x20 ADD SWAP1 MLOAD DUP2 ADD SWAP1 PUSH2 0x5217 SWAP2 SWAP1 PUSH2 0x5459 JUMP JUMPDEST PUSH2 0x527D JUMPI PUSH1 0x40 MLOAD PUSH32 0x8C379A000000000000000000000000000000000000000000000000000000000 DUP2 MSTORE PUSH1 0x20 PUSH1 0x4 DUP3 ADD DUP2 SWAP1 MSTORE PUSH1 0x24 DUP3 ADD MSTORE PUSH32 0x426F72696E6745524332303A205472616E7366657246726F6D206661696C6564 PUSH1 0x44 DUP3 ADD MSTORE PUSH1 0x64 ADD PUSH2 0x763 JUMP JUMPDEST POP POP POP POP POP POP JUMP JUMPDEST DUP3 DUP1 SLOAD DUP3 DUP3 SSTORE SWAP1 PUSH1 0x0 MSTORE PUSH1 0x20 PUSH1 0x0 KECCAK256 SWAP1 DUP2 ADD SWAP3 DUP3 ISZERO PUSH2 0x52FD JUMPI SWAP2 PUSH1 0x20 MUL DUP3 ADD JUMPDEST DUP3 DUP2 GT ISZERO PUSH2 0x52FD JUMPI DUP2 SLOAD PUSH32 0xFFFFFFFFFFFFFFFFFFFFFFFF0000000000000000000000000000000000000000 AND PUSH20 0xFFFFFFFFFFFFFFFFFFFFFFFFFFFFFFFFFFFFFFFF DUP5 CALLDATALOAD AND OR DUP3 SSTORE PUSH1 0x20 SWAP1 SWAP3 ADD SWAP2 PUSH1 0x1 SWAP1 SWAP2 ADD SWAP1 PUSH2 0x52A5 JUMP JUMPDEST POP PUSH2 0x5309 SWAP3 SWAP2 POP PUSH2 0x5387 JUMP JUMPDEST POP SWAP1 JUMP JUMPDEST DUP3 DUP1 SLOAD DUP3 DUP3 SSTORE SWAP1 PUSH1 0x0 MSTORE PUSH1 0x20 PUSH1 0x0 KECCAK256 SWAP1 DUP2 ADD SWAP3 DUP3 ISZERO PUSH2 0x52FD JUMPI SWAP2 PUSH1 0x20 MUL DUP3 ADD JUMPDEST DUP3 DUP2 GT ISZERO PUSH2 0x52FD JUMPI DUP3 MLOAD DUP3 SLOAD PUSH32 0xFFFFFFFFFFFFFFFFFFFFFFFF0000000000000000000000000000000000000000 AND PUSH20 0xFFFFFFFFFFFFFFFFFFFFFFFFFFFFFFFFFFFFFFFF SWAP1 SWAP2 AND OR DUP3 SSTORE PUSH1 0x20 SWAP1 SWAP3 ADD SWAP2 PUSH1 0x1 SWAP1 SWAP2 ADD SWAP1 PUSH2 0x532D JUMP JUMPDEST JUMPDEST DUP1 DUP3 GT ISZERO PUSH2 0x5309 JUMPI PUSH1 0x0 DUP2 SSTORE PUSH1 0x1 ADD PUSH2 0x5388 JUMP JUMPDEST PUSH1 0x0 DUP1 DUP4 PUSH1 0x1F DUP5 ADD SLT PUSH2 0x53AE JUMPI PUSH1 0x0 DUP1 REVERT JUMPDEST POP DUP2 CALLDATALOAD PUSH8 0xFFFFFFFFFFFFFFFF DUP2 GT ISZERO PUSH2 0x53C6 JUMPI PUSH1 0x0 DUP1 REVERT JUMPDEST PUSH1 0x20 DUP4 ADD SWAP2 POP DUP4 PUSH1 0x20 DUP3 PUSH1 0x5 SHL DUP6 ADD ADD GT ISZERO PUSH2 0x53E1 JUMPI PUSH1 0x0 DUP1 REVERT JUMPDEST SWAP3 POP SWAP3 SWAP1 POP JUMP JUMPDEST DUP1 CALLDATALOAD PUSH2 0xFFFF DUP2 AND DUP2 EQ PUSH2 0x5107 JUMPI PUSH1 0x0 DUP1 REVERT JUMPDEST PUSH1 0x0 PUSH1 0x20 DUP3 DUP5 SUB SLT ISZERO PUSH2 0x540C JUMPI PUSH1 0x0 DUP1 REVERT JUMPDEST DUP2 CALLDATALOAD PUSH2 0x50C7 DUP2 PUSH2 0x5A7E JUMP JUMPDEST PUSH1 0x0 DUP1 PUSH1 0x20 DUP4 DUP6 SUB SLT ISZERO PUSH2 0x542A JUMPI PUSH1 0x0 DUP1 REVERT JUMPDEST DUP3 CALLDATALOAD PUSH8 0xFFFFFFFFFFFFFFFF DUP2 GT ISZERO PUSH2 0x5441 JUMPI PUSH1 0x0 DUP1 REVERT JUMPDEST PUSH2 0x544D DUP6 DUP3 DUP7 ADD PUSH2 0x539C JUMP JUMPDEST SWAP1 SWAP7 SWAP1 SWAP6 POP SWAP4 POP POP POP POP JUMP JUMPDEST PUSH1 0x0 PUSH1 0x20 DUP3 DUP5 SUB SLT ISZERO PUSH2 0x546B JUMPI PUSH1 0x0 DUP1 REVERT JUMPDEST DUP2 MLOAD DUP1 ISZERO ISZERO DUP2 EQ PUSH2 0x50C7 JUMPI PUSH1 0x0 DUP1 REVERT JUMPDEST PUSH1 0x0 PUSH1 0x20 DUP3 DUP5 SUB SLT ISZERO PUSH2 0x548D JUMPI PUSH1 0x0 DUP1 REVERT JUMPDEST DUP2 MLOAD PUSH2 0x50C7 DUP2 PUSH2 0x5A7E JUMP JUMPDEST PUSH1 0x0 PUSH1 0x20 DUP3 DUP5 SUB SLT ISZERO PUSH2 0x54AA JUMPI PUSH1 0x0 DUP1 REVERT JUMPDEST DUP2 MLOAD PUSH8 0xFFFFFFFFFFFFFFFF DUP1 DUP3 GT ISZERO PUSH2 0x54C2 JUMPI PUSH1 0x0 DUP1 REVERT JUMPDEST DUP2 DUP5 ADD SWAP2 POP DUP5 PUSH1 0x1F DUP4 ADD SLT PUSH2 0x54D6 JUMPI PUSH1 0x0 DUP1 REVERT JUMPDEST DUP2 MLOAD DUP2 DUP2 GT ISZERO PUSH2 0x54E8 JUMPI PUSH2 0x54E8 PUSH2 0x5A4F JUMP JUMPDEST PUSH1 0x40 MLOAD PUSH1 0x1F DUP3 ADD PUSH32 0xFFFFFFFFFFFFFFFFFFFFFFFFFFFFFFFFFFFFFFFFFFFFFFFFFFFFFFFFFFFFFFE0 SWAP1 DUP2 AND PUSH1 0x3F ADD AND DUP2 ADD SWAP1 DUP4 DUP3 GT DUP2 DUP4 LT OR ISZERO PUSH2 0x552E JUMPI PUSH2 0x552E PUSH2 0x5A4F JUMP JUMPDEST DUP2 PUSH1 0x40 MSTORE DUP3 DUP2 MSTORE DUP8 PUSH1 0x20 DUP5 DUP8 ADD ADD GT ISZERO PUSH2 0x5547 JUMPI PUSH1 0x0 DUP1 REVERT JUMPDEST PUSH2 0x5558 DUP4 PUSH1 0x20 DUP4 ADD PUSH1 0x20 DUP9 ADD PUSH2 0x596C JUMP JUMPDEST SWAP8 SWAP7 POP POP POP POP POP POP POP JUMP JUMPDEST PUSH1 0x0 PUSH1 0x20 DUP3 DUP5 SUB SLT ISZERO PUSH2 0x5575 JUMPI PUSH1 0x0 DUP1 REVERT JUMPDEST POP CALLDATALOAD SWAP2 SWAP1 POP JUMP JUMPDEST PUSH1 0x0 PUSH1 0x20 DUP3 DUP5 SUB SLT ISZERO PUSH2 0x558E JUMPI PUSH1 0x0 DUP1 REVERT JUMPDEST POP MLOAD SWAP2 SWAP1 POP JUMP JUMPDEST PUSH1 0x0 DUP1 PUSH1 0x40 DUP4 DUP6 SUB SLT ISZERO PUSH2 0x55A8 JUMPI PUSH1 0x0 DUP1 REVERT JUMPDEST DUP3 CALLDATALOAD SWAP2 POP PUSH1 0x20 DUP4 ADD CALLDATALOAD PUSH2 0x55BA DUP2 PUSH2 0x5A7E JUMP JUMPDEST DUP1 SWAP2 POP POP SWAP3 POP SWAP3 SWAP1 POP JUMP JUMPDEST PUSH1 0x0 DUP1 PUSH1 0x0 DUP1 PUSH1 0x0 DUP1 PUSH1 0xA0 DUP8 DUP10 SUB SLT ISZERO PUSH2 0x55DE JUMPI PUSH1 0x0 DUP1 REVERT JUMPDEST DUP7 CALLDATALOAD SWAP6 POP PUSH1 0x20 DUP8 ADD CALLDATALOAD PUSH2 0x55F0 DUP2 PUSH2 0x5A7E JUMP JUMPDEST SWAP5 POP PUSH2 0x55FE PUSH1 0x40 DUP9 ADD PUSH2 0x53E8 JUMP JUMPDEST SWAP4 POP PUSH1 0x60 DUP8 ADD CALLDATALOAD SWAP3 POP PUSH1 0x80 DUP8 ADD CALLDATALOAD PUSH8 0xFFFFFFFFFFFFFFFF DUP2 GT ISZERO PUSH2 0x5621 JUMPI PUSH1 0x0 DUP1 REVERT JUMPDEST PUSH2 0x562D DUP10 DUP3 DUP11 ADD PUSH2 0x539C JUMP JUMPDEST SWAP8 SWAP11 SWAP7 SWAP10 POP SWAP5 SWAP8 POP SWAP3 SWAP6 SWAP4 SWAP5 SWAP3 POP POP POP JUMP JUMPDEST PUSH1 0x0 DUP1 PUSH1 0x40 DUP4 DUP6 SUB SLT ISZERO PUSH2 0x5652 JUMPI PUSH1 0x0 DUP1 REVERT JUMPDEST POP POP DUP1 CALLDATALOAD SWAP3 PUSH1 0x20 SWAP1 SWAP2 ADD CALLDATALOAD SWAP2 POP JUMP JUMPDEST PUSH1 0x0 DUP1 PUSH1 0x0 DUP1 PUSH1 0x0 DUP1 PUSH1 0xA0 DUP8 DUP10 SUB SLT ISZERO PUSH2 0x567A JUMPI PUSH1 0x0 DUP1 REVERT JUMPDEST DUP7 CALLDATALOAD SWAP6 POP PUSH1 0x20 DUP8 ADD CALLDATALOAD SWAP5 POP PUSH2 0x55FE PUSH1 0x40 DUP9 ADD PUSH2 0x53E8 JUMP JUMPDEST PUSH1 0x0 DUP1 PUSH1 0x0 DUP1 PUSH1 0x0 DUP1 PUSH1 0xC0 DUP8 DUP10 SUB SLT ISZERO PUSH2 0x56AA JUMPI PUSH1 0x0 DUP1 REVERT JUMPDEST DUP7 CALLDATALOAD SWAP6 POP PUSH1 0x20 DUP8 ADD CALLDATALOAD SWAP5 POP PUSH1 0x40 DUP8 ADD CALLDATALOAD SWAP4 POP PUSH1 0x60 DUP8 ADD CALLDATALOAD PUSH2 0x56CA DUP2 PUSH2 0x5AA0 JUMP JUMPDEST SWAP6 SWAP9 SWAP5 SWAP8 POP SWAP3 SWAP6 PUSH1 0x80 DUP2 ADD CALLDATALOAD SWAP5 PUSH1 0xA0 SWAP1 SWAP2 ADD CALLDATALOAD SWAP4 POP SWAP2 POP POP JUMP JUMPDEST PUSH1 0x0 PUSH1 0x20 DUP3 DUP5 SUB SLT ISZERO PUSH2 0x56F6 JUMPI PUSH1 0x0 DUP1 REVERT JUMPDEST DUP2 MLOAD PUSH2 0x50C7 DUP2 PUSH2 0x5AA0 JUMP JUMPDEST PUSH1 0x0 DUP2 MLOAD DUP1 DUP5 MSTORE PUSH1 0x20 DUP1 DUP6 ADD SWAP5 POP DUP1 DUP5 ADD PUSH1 0x0 JUMPDEST DUP4 DUP2 LT ISZERO PUSH2 0x5747 JUMPI DUP2 MLOAD PUSH20 0xFFFFFFFFFFFFFFFFFFFFFFFFFFFFFFFFFFFFFFFF AND DUP8 MSTORE SWAP6 DUP3 ADD SWAP6 SWAP1 DUP3 ADD SWAP1 PUSH1 0x1 ADD PUSH2 0x5715 JUMP JUMPDEST POP SWAP5 SWAP6 SWAP5 POP POP POP POP POP JUMP JUMPDEST PUSH1 0x0 DUP2 MLOAD DUP1 DUP5 MSTORE PUSH1 0x20 DUP1 DUP6 ADD SWAP5 POP DUP1 DUP5 ADD PUSH1 0x0 JUMPDEST DUP4 DUP2 LT ISZERO PUSH2 0x5747 JUMPI DUP2 MLOAD DUP8 MSTORE SWAP6 DUP3 ADD SWAP6 SWAP1 DUP3 ADD SWAP1 PUSH1 0x1 ADD PUSH2 0x5766 JUMP JUMPDEST PUSH1 0x0 DUP2 DUP5 DUP3 JUMPDEST DUP6 DUP2 LT ISZERO PUSH2 0x57C6 JUMPI DUP2 CALLDATALOAD PUSH2 0x579B DUP2 PUSH2 0x5A7E JUMP JUMPDEST PUSH20 0xFFFFFFFFFFFFFFFFFFFFFFFFFFFFFFFFFFFFFFFF AND DUP4 MSTORE PUSH1 0x20 SWAP3 DUP4 ADD SWAP3 SWAP2 SWAP1 SWAP2 ADD SWAP1 PUSH1 0x1 ADD PUSH2 0x5788 JUMP JUMPDEST POP SWAP1 SWAP6 SWAP5 POP POP POP POP POP JUMP JUMPDEST PUSH1 0x0 DUP3 MLOAD PUSH2 0x57E3 DUP2 DUP5 PUSH1 0x20 DUP8 ADD PUSH2 0x596C JUMP JUMPDEST SWAP2 SWAP1 SWAP2 ADD SWAP3 SWAP2 POP POP JUMP JUMPDEST PUSH1 0x20 DUP2 MSTORE PUSH1 0x0 PUSH2 0x50C7 PUSH1 0x20 DUP4 ADD DUP5 PUSH2 0x5701 JUMP JUMPDEST PUSH1 0x80 DUP2 MSTORE PUSH1 0x0 PUSH2 0x5813 PUSH1 0x80 DUP4 ADD DUP8 PUSH2 0x5701 JUMP JUMPDEST PUSH1 0x20 DUP4 DUP3 SUB DUP2 DUP6 ADD MSTORE DUP2 DUP8 MLOAD DUP1 DUP5 MSTORE DUP3 DUP5 ADD SWAP2 POP DUP3 DUP2 PUSH1 0x5 SHL DUP6 ADD ADD DUP4 DUP11 ADD PUSH1 0x0 JUMPDEST DUP4 DUP2 LT ISZERO PUSH2 0x5899 JUMPI PUSH32 0xFFFFFFFFFFFFFFFFFFFFFFFFFFFFFFFFFFFFFFFFFFFFFFFFFFFFFFFFFFFFFFE0 DUP1 DUP9 DUP6 SUB ADD DUP7 MSTORE DUP3 MLOAD DUP1 MLOAD DUP1 DUP7 MSTORE PUSH2 0x587B DUP2 DUP11 DUP9 ADD DUP12 DUP6 ADD PUSH2 0x596C JUMP JUMPDEST SWAP7 DUP9 ADD SWAP7 PUSH1 0x1F ADD SWAP1 SWAP2 AND SWAP4 SWAP1 SWAP4 ADD DUP7 ADD SWAP3 POP SWAP1 DUP6 ADD SWAP1 PUSH1 0x1 ADD PUSH2 0x5835 JUMP JUMPDEST POP POP DUP7 DUP2 SUB PUSH1 0x40 DUP9 ADD MSTORE PUSH2 0x58AD DUP2 DUP11 PUSH2 0x5752 JUMP JUMPDEST SWAP5 POP POP POP POP POP DUP3 DUP2 SUB PUSH1 0x60 DUP5 ADD MSTORE PUSH2 0x5558 DUP2 DUP6 PUSH2 0x5752 JUMP JUMPDEST PUSH1 0x0 DUP3 NOT DUP3 GT ISZERO PUSH2 0x58D8 JUMPI PUSH2 0x58D8 PUSH2 0x59F1 JUMP JUMPDEST POP ADD SWAP1 JUMP JUMPDEST PUSH1 0x0 DUP3 PUSH2 0x5913 JUMPI PUSH32 0x4E487B7100000000000000000000000000000000000000000000000000000000 PUSH1 0x0 MSTORE PUSH1 0x12 PUSH1 0x4 MSTORE PUSH1 0x24 PUSH1 0x0 REVERT JUMPDEST POP DIV SWAP1 JUMP JUMPDEST PUSH1 0x0 DUP2 PUSH32 0xFFFFFFFFFFFFFFFFFFFFFFFFFFFFFFFFFFFFFFFFFFFFFFFFFFFFFFFFFFFFFFFF DIV DUP4 GT DUP3 ISZERO ISZERO AND ISZERO PUSH2 0x5950 JUMPI PUSH2 0x5950 PUSH2 0x59F1 JUMP JUMPDEST POP MUL SWAP1 JUMP JUMPDEST PUSH1 0x0 DUP3 DUP3 LT ISZERO PUSH2 0x5967 JUMPI PUSH2 0x5967 PUSH2 0x59F1 JUMP JUMPDEST POP SUB SWAP1 JUMP JUMPDEST PUSH1 0x0 JUMPDEST DUP4 DUP2 LT ISZERO PUSH2 0x5987 JUMPI DUP2 DUP2 ADD MLOAD DUP4 DUP3 ADD MSTORE PUSH1 0x20 ADD PUSH2 0x596F JUMP JUMPDEST DUP4 DUP2 GT ISZERO PUSH2 0x44FC JUMPI POP POP PUSH1 0x0 SWAP2 ADD MSTORE JUMP JUMPDEST PUSH1 0x0 PUSH32 0xFFFFFFFFFFFFFFFFFFFFFFFFFFFFFFFFFFFFFFFFFFFFFFFFFFFFFFFFFFFFFFFF DUP3 EQ ISZERO PUSH2 0x59CA JUMPI PUSH2 0x59CA PUSH2 0x59F1 JUMP JUMPDEST POP PUSH1 0x1 ADD SWAP1 JUMP JUMPDEST PUSH1 0x0 PUSH1 0xFF DUP3 AND PUSH1 0xFF DUP2 EQ ISZERO PUSH2 0x59E8 JUMPI PUSH2 0x59E8 PUSH2 0x59F1 JUMP JUMPDEST PUSH1 0x1 ADD SWAP3 SWAP2 POP POP JUMP JUMPDEST PUSH32 0x4E487B7100000000000000000000000000000000000000000000000000000000 PUSH1 0x0 MSTORE PUSH1 0x11 PUSH1 0x4 MSTORE PUSH1 0x24 PUSH1 0x0 REVERT JUMPDEST PUSH32 0x4E487B7100000000000000000000000000000000000000000000000000000000 PUSH1 0x0 MSTORE PUSH1 0x32 PUSH1 0x4 MSTORE PUSH1 0x24 PUSH1 0x0 REVERT JUMPDEST PUSH32 0x4E487B7100000000000000000000000000000000000000000000000000000000 PUSH1 0x0 MSTORE PUSH1 0x41 PUSH1 0x4 MSTORE PUSH1 0x24 PUSH1 0x0 REVERT JUMPDEST PUSH20 0xFFFFFFFFFFFFFFFFFFFFFFFFFFFFFFFFFFFFFFFF DUP2 AND DUP2 EQ PUSH2 0x3716 JUMPI PUSH1 0x0 DUP1 REVERT JUMPDEST PUSH1 0xFF DUP2 AND DUP2 EQ PUSH2 0x3716 JUMPI PUSH1 0x0 DUP1 REVERT INVALID LOG2 PUSH5 0x6970667358 0x22 SLT KECCAK256 PUSH8 0x5ACD47B434FA866A CALLER SWAP8 SUB 0xBA OR 0x49 SDIV BALANCE PUSH12 0xC1A1A0CBCD6244A1A80C23C6 GASPRICE 0xAA PUSH5 0x736F6C6343 STOP ADDMOD SMOD STOP CALLER "
        },
        "gasEstimates": {
          "creation": {
            "codeDepositCost": "4653800",
            "executionCost": "infinite",
            "totalCost": "infinite"
          },
          "external": {
            "MAXIMUM_DEPOSIT_FEE_RATE()": "272",
            "MAXIMUM_HARVEST_INTERVAL()": "273",
            "add(uint256,address,uint16,uint256,address[])": "infinite",
            "canHarvest(uint256,address)": "6994",
            "deposit(uint256,uint256)": "infinite",
            "depositWithPermit(uint256,uint256,uint256,uint8,bytes32,bytes32)": "infinite",
            "ember()": "2425",
            "emberPerSec()": "2375",
            "emergencyWithdraw(uint256)": "infinite",
            "harvestMany(uint256[])": "infinite",
            "investorAddress()": "2426",
            "investorPercent()": "2376",
            "massUpdatePools()": "infinite",
            "owner()": "2374",
            "pendingTokens(uint256,address)": "infinite",
            "poolInfo(uint256)": "17495",
            "poolLength()": "2350",
            "poolRewarders(uint256)": "infinite",
            "poolRewardsPerSec(uint256)": "infinite",
            "poolTotalLp(uint256)": "4674",
            "renounceOwnership()": "28187",
            "set(uint256,uint256,uint16,uint256,address[])": "infinite",
            "setInvestorAddress(address)": "28286",
            "setInvestorPercent(uint256)": "infinite",
            "setTeamAddress(address)": "28286",
            "setTeamPercent(uint256)": "infinite",
            "setTreasuryAddress(address)": "28264",
            "setTreasuryPercent(uint256)": "infinite",
            "startFarming()": "infinite",
            "startTimestamp()": "2373",
            "teamAddress()": "2403",
            "teamPercent()": "2395",
            "totalAllocPoint()": "2352",
            "totalEmberInPools()": "2375",
            "totalLockedUpRewards()": "2374",
            "transferOwnership(address)": "infinite",
            "treasuryAddress()": "2403",
            "treasuryPercent()": "2354",
            "updateAllocPoint(uint256,uint256)": "infinite",
            "updateEmissionRate(uint256)": "infinite",
            "updatePool(uint256)": "infinite",
            "userInfo(uint256,address)": "9095",
            "withdraw(uint256,uint256)": "infinite"
          },
          "internal": {
            "_deposit(uint256,uint256)": "infinite",
            "_massUpdatePools()": "infinite",
            "_updatePool(uint256)": "infinite",
            "payOrLockupPendingEmber(uint256)": "infinite",
            "safeEmberTransfer(address,uint256)": "infinite"
          }
        },
        "methodIdentifiers": {
          "MAXIMUM_DEPOSIT_FEE_RATE()": "812c64f1",
          "MAXIMUM_HARVEST_INTERVAL()": "de73149d",
          "add(uint256,address,uint16,uint256,address[])": "508593ab",
          "canHarvest(uint256,address)": "2e6c998d",
          "deposit(uint256,uint256)": "e2bbb158",
          "depositWithPermit(uint256,uint256,uint256,uint8,bytes32,bytes32)": "515bc323",
          "ember()": "1f1b9a7c",
          "emberPerSec()": "1745d2e4",
          "emergencyWithdraw(uint256)": "5312ea8e",
          "harvestMany(uint256[])": "dc640ac9",
          "investorAddress()": "12e228fd",
          "investorPercent()": "0735b208",
          "massUpdatePools()": "630b5ba1",
          "owner()": "8da5cb5b",
          "pendingTokens(uint256,address)": "ffcd4263",
          "poolInfo(uint256)": "1526fe27",
          "poolLength()": "081e3eda",
          "poolRewarders(uint256)": "eff8976b",
          "poolRewardsPerSec(uint256)": "465e81ec",
          "poolTotalLp(uint256)": "654c9ece",
          "renounceOwnership()": "715018a6",
          "set(uint256,uint256,uint16,uint256,address[])": "2081ccc4",
          "setInvestorAddress(address)": "42602f1e",
          "setInvestorPercent(uint256)": "876d3c9c",
          "setTeamAddress(address)": "6690864e",
          "setTeamPercent(uint256)": "949e6302",
          "setTreasuryAddress(address)": "6605bfda",
          "setTreasuryPercent(uint256)": "89a2bc25",
          "startFarming()": "afbcfea1",
          "startTimestamp()": "e6fd48bc",
          "teamAddress()": "1c75f085",
          "teamPercent()": "e164ac50",
          "totalAllocPoint()": "17caf6f1",
          "totalEmberInPools()": "2a22bc43",
          "totalLockedUpRewards()": "474fa630",
          "transferOwnership(address)": "f2fde38b",
          "treasuryAddress()": "c5f956af",
          "treasuryPercent()": "04ef9d58",
          "updateAllocPoint(uint256,uint256)": "eddf9652",
          "updateEmissionRate(uint256)": "0ba84cd2",
          "updatePool(uint256)": "51eb05a6",
          "userInfo(uint256,address)": "93f1a40b",
          "withdraw(uint256,uint256)": "441a3e70"
        }
      },
      "storageLayout": {
        "storage": [
          {
            "astId": 26,
            "contract": "contracts/farm/EmberDistributorV2.sol:EmberDistributorV2",
            "label": "_owner",
            "offset": 0,
            "slot": "0",
            "type": "t_address"
          },
          {
            "astId": 132,
            "contract": "contracts/farm/EmberDistributorV2.sol:EmberDistributorV2",
            "label": "_status",
            "offset": 0,
            "slot": "1",
            "type": "t_uint256"
          },
          {
            "astId": 937,
            "contract": "contracts/farm/EmberDistributorV2.sol:EmberDistributorV2",
            "label": "ember",
            "offset": 0,
            "slot": "2",
            "type": "t_contract(IBoringERC20)529"
          },
          {
            "astId": 939,
            "contract": "contracts/farm/EmberDistributorV2.sol:EmberDistributorV2",
            "label": "emberPerSec",
            "offset": 0,
            "slot": "3",
            "type": "t_uint256"
          },
          {
            "astId": 949,
            "contract": "contracts/farm/EmberDistributorV2.sol:EmberDistributorV2",
            "label": "poolInfo",
            "offset": 0,
            "slot": "4",
            "type": "t_array(t_struct(PoolInfo)934_storage)dyn_storage"
          },
          {
            "astId": 956,
            "contract": "contracts/farm/EmberDistributorV2.sol:EmberDistributorV2",
            "label": "userInfo",
            "offset": 0,
            "slot": "5",
            "type": "t_mapping(t_uint256,t_mapping(t_address,t_struct(UserInfo)914_storage))"
          },
          {
            "astId": 959,
            "contract": "contracts/farm/EmberDistributorV2.sol:EmberDistributorV2",
            "label": "totalAllocPoint",
            "offset": 0,
            "slot": "6",
            "type": "t_uint256"
          },
          {
            "astId": 961,
            "contract": "contracts/farm/EmberDistributorV2.sol:EmberDistributorV2",
            "label": "startTimestamp",
            "offset": 0,
            "slot": "7",
            "type": "t_uint256"
          },
          {
            "astId": 963,
            "contract": "contracts/farm/EmberDistributorV2.sol:EmberDistributorV2",
            "label": "totalLockedUpRewards",
            "offset": 0,
            "slot": "8",
            "type": "t_uint256"
          },
          {
            "astId": 966,
            "contract": "contracts/farm/EmberDistributorV2.sol:EmberDistributorV2",
            "label": "totalEmberInPools",
            "offset": 0,
            "slot": "9",
            "type": "t_uint256"
          },
          {
            "astId": 968,
            "contract": "contracts/farm/EmberDistributorV2.sol:EmberDistributorV2",
            "label": "teamAddress",
            "offset": 0,
            "slot": "10",
            "type": "t_address"
          },
          {
            "astId": 970,
            "contract": "contracts/farm/EmberDistributorV2.sol:EmberDistributorV2",
            "label": "treasuryAddress",
            "offset": 0,
            "slot": "11",
            "type": "t_address"
          },
          {
            "astId": 972,
            "contract": "contracts/farm/EmberDistributorV2.sol:EmberDistributorV2",
            "label": "investorAddress",
            "offset": 0,
            "slot": "12",
            "type": "t_address"
          },
          {
            "astId": 974,
            "contract": "contracts/farm/EmberDistributorV2.sol:EmberDistributorV2",
            "label": "teamPercent",
            "offset": 0,
            "slot": "13",
            "type": "t_uint256"
          },
          {
            "astId": 976,
            "contract": "contracts/farm/EmberDistributorV2.sol:EmberDistributorV2",
            "label": "treasuryPercent",
            "offset": 0,
            "slot": "14",
            "type": "t_uint256"
          },
          {
            "astId": 978,
            "contract": "contracts/farm/EmberDistributorV2.sol:EmberDistributorV2",
            "label": "investorPercent",
            "offset": 0,
            "slot": "15",
            "type": "t_uint256"
          }
        ],
        "types": {
          "t_address": {
            "encoding": "inplace",
            "label": "address",
            "numberOfBytes": "20"
          },
          "t_array(t_contract(IComplexRewarder)562)dyn_storage": {
            "base": "t_contract(IComplexRewarder)562",
            "encoding": "dynamic_array",
            "label": "contract IComplexRewarder[]",
            "numberOfBytes": "32"
          },
          "t_array(t_struct(PoolInfo)934_storage)dyn_storage": {
            "base": "t_struct(PoolInfo)934_storage",
            "encoding": "dynamic_array",
            "label": "struct EmberDistributorV2.PoolInfo[]",
            "numberOfBytes": "32"
          },
          "t_contract(IBoringERC20)529": {
            "encoding": "inplace",
            "label": "contract IBoringERC20",
            "numberOfBytes": "20"
          },
          "t_contract(IComplexRewarder)562": {
            "encoding": "inplace",
            "label": "contract IComplexRewarder",
            "numberOfBytes": "20"
          },
          "t_mapping(t_address,t_struct(UserInfo)914_storage)": {
            "encoding": "mapping",
            "key": "t_address",
            "label": "mapping(address => struct EmberDistributorV2.UserInfo)",
            "numberOfBytes": "32",
            "value": "t_struct(UserInfo)914_storage"
          },
          "t_mapping(t_uint256,t_mapping(t_address,t_struct(UserInfo)914_storage))": {
            "encoding": "mapping",
            "key": "t_uint256",
            "label": "mapping(uint256 => mapping(address => struct EmberDistributorV2.UserInfo))",
            "numberOfBytes": "32",
            "value": "t_mapping(t_address,t_struct(UserInfo)914_storage)"
          },
          "t_struct(PoolInfo)934_storage": {
            "encoding": "inplace",
            "label": "struct EmberDistributorV2.PoolInfo",
            "members": [
              {
                "astId": 917,
                "contract": "contracts/farm/EmberDistributorV2.sol:EmberDistributorV2",
                "label": "lpToken",
                "offset": 0,
                "slot": "0",
                "type": "t_contract(IBoringERC20)529"
              },
              {
                "astId": 919,
                "contract": "contracts/farm/EmberDistributorV2.sol:EmberDistributorV2",
                "label": "allocPoint",
                "offset": 0,
                "slot": "1",
                "type": "t_uint256"
              },
              {
                "astId": 921,
                "contract": "contracts/farm/EmberDistributorV2.sol:EmberDistributorV2",
                "label": "lastRewardTimestamp",
                "offset": 0,
                "slot": "2",
                "type": "t_uint256"
              },
              {
                "astId": 923,
                "contract": "contracts/farm/EmberDistributorV2.sol:EmberDistributorV2",
                "label": "accEmberPerShare",
                "offset": 0,
                "slot": "3",
                "type": "t_uint256"
              },
              {
                "astId": 925,
                "contract": "contracts/farm/EmberDistributorV2.sol:EmberDistributorV2",
                "label": "depositFeeBP",
                "offset": 0,
                "slot": "4",
                "type": "t_uint16"
              },
              {
                "astId": 927,
                "contract": "contracts/farm/EmberDistributorV2.sol:EmberDistributorV2",
                "label": "harvestInterval",
                "offset": 0,
                "slot": "5",
                "type": "t_uint256"
              },
              {
                "astId": 929,
                "contract": "contracts/farm/EmberDistributorV2.sol:EmberDistributorV2",
                "label": "totalLp",
                "offset": 0,
                "slot": "6",
                "type": "t_uint256"
              },
              {
                "astId": 933,
                "contract": "contracts/farm/EmberDistributorV2.sol:EmberDistributorV2",
                "label": "rewarders",
                "offset": 0,
                "slot": "7",
                "type": "t_array(t_contract(IComplexRewarder)562)dyn_storage"
              }
            ],
            "numberOfBytes": "256"
          },
          "t_struct(UserInfo)914_storage": {
            "encoding": "inplace",
            "label": "struct EmberDistributorV2.UserInfo",
            "members": [
              {
                "astId": 907,
                "contract": "contracts/farm/EmberDistributorV2.sol:EmberDistributorV2",
                "label": "amount",
                "offset": 0,
                "slot": "0",
                "type": "t_uint256"
              },
              {
                "astId": 909,
                "contract": "contracts/farm/EmberDistributorV2.sol:EmberDistributorV2",
                "label": "rewardDebt",
                "offset": 0,
                "slot": "1",
                "type": "t_uint256"
              },
              {
                "astId": 911,
                "contract": "contracts/farm/EmberDistributorV2.sol:EmberDistributorV2",
                "label": "rewardLockedUp",
                "offset": 0,
                "slot": "2",
                "type": "t_uint256"
              },
              {
                "astId": 913,
                "contract": "contracts/farm/EmberDistributorV2.sol:EmberDistributorV2",
                "label": "nextHarvestUntil",
                "offset": 0,
                "slot": "3",
                "type": "t_uint256"
              }
            ],
            "numberOfBytes": "128"
          },
          "t_uint16": {
            "encoding": "inplace",
            "label": "uint16",
            "numberOfBytes": "2"
          },
          "t_uint256": {
            "encoding": "inplace",
            "label": "uint256",
            "numberOfBytes": "32"
          }
        }
      },
      "userdoc": {
        "kind": "user",
        "methods": {
          "poolRewardsPerSec(uint256)": {
            "notice": "View function to see pool rewards per sec"
          }
        },
        "version": 1
      }
    }
  }
}