{
  "contracts/farm/EmberDistributor.sol": {
    "EmberDistributor": {
      "abi": [
        {
          "inputs": [
            {
              "internalType": "contract IEmberERC20",
              "name": "_ember",
              "type": "address"
            },
            {
              "internalType": "uint256",
              "name": "_emberPerBlock",
              "type": "uint256"
            }
          ],
          "stateMutability": "nonpayable",
          "type": "constructor"
        },
        {
          "anonymous": false,
          "inputs": [
            {
              "indexed": true,
              "internalType": "address",
              "name": "caller",
              "type": "address"
            },
            {
              "indexed": false,
              "internalType": "uint256",
              "name": "previousAmount",
              "type": "uint256"
            },
            {
              "indexed": false,
              "internalType": "uint256",
              "name": "newAmount",
              "type": "uint256"
            }
          ],
          "name": "AllocPointsUpdated",
          "type": "event"
        },
        {
          "anonymous": false,
          "inputs": [
            {
              "indexed": true,
              "internalType": "address",
              "name": "user",
              "type": "address"
            },
            {
              "indexed": true,
              "internalType": "uint256",
              "name": "pid",
              "type": "uint256"
            },
            {
              "indexed": false,
              "internalType": "uint256",
              "name": "amount",
              "type": "uint256"
            }
          ],
          "name": "Deposit",
          "type": "event"
        },
        {
          "anonymous": false,
          "inputs": [
            {
              "indexed": true,
              "internalType": "address",
              "name": "caller",
              "type": "address"
            },
            {
              "indexed": false,
              "internalType": "address",
              "name": "oldAddress",
              "type": "address"
            },
            {
              "indexed": false,
              "internalType": "address",
              "name": "newAddress",
              "type": "address"
            }
          ],
          "name": "DevAddressChanged",
          "type": "event"
        },
        {
          "anonymous": false,
          "inputs": [
            {
              "indexed": true,
              "internalType": "address",
              "name": "user",
              "type": "address"
            },
            {
              "indexed": true,
              "internalType": "uint256",
              "name": "pid",
              "type": "uint256"
            },
            {
              "indexed": false,
              "internalType": "uint256",
              "name": "amount",
              "type": "uint256"
            }
          ],
          "name": "EmergencyWithdraw",
          "type": "event"
        },
        {
          "anonymous": false,
          "inputs": [
            {
              "indexed": true,
              "internalType": "address",
              "name": "caller",
              "type": "address"
            },
            {
              "indexed": false,
              "internalType": "uint256",
              "name": "previousAmount",
              "type": "uint256"
            },
            {
              "indexed": false,
              "internalType": "uint256",
              "name": "newAmount",
              "type": "uint256"
            }
          ],
          "name": "EmissionRateUpdated",
          "type": "event"
        },
        {
          "anonymous": false,
          "inputs": [
            {
              "indexed": true,
              "internalType": "address",
              "name": "caller",
              "type": "address"
            },
            {
              "indexed": false,
              "internalType": "address",
              "name": "oldAddress",
              "type": "address"
            },
            {
              "indexed": false,
              "internalType": "address",
              "name": "newAddress",
              "type": "address"
            }
          ],
          "name": "FeeAddressChanged",
          "type": "event"
        },
        {
          "anonymous": false,
          "inputs": [
            {
              "indexed": true,
              "internalType": "address",
              "name": "caller",
              "type": "address"
            }
          ],
          "name": "MetaTxnsDisabled",
          "type": "event"
        },
        {
          "anonymous": false,
          "inputs": [
            {
              "indexed": true,
              "internalType": "address",
              "name": "caller",
              "type": "address"
            }
          ],
          "name": "MetaTxnsEnabled",
          "type": "event"
        },
        {
          "anonymous": false,
          "inputs": [
            {
              "indexed": true,
              "internalType": "address",
              "name": "previousOperator",
              "type": "address"
            },
            {
              "indexed": true,
              "internalType": "address",
              "name": "newOperator",
              "type": "address"
            }
          ],
          "name": "OperatorTransferred",
          "type": "event"
        },
        {
          "anonymous": false,
          "inputs": [
            {
              "indexed": true,
              "internalType": "address",
              "name": "previousOwner",
              "type": "address"
            },
            {
              "indexed": true,
              "internalType": "address",
              "name": "newOwner",
              "type": "address"
            }
          ],
          "name": "OwnershipTransferred",
          "type": "event"
        },
        {
          "anonymous": false,
          "inputs": [
            {
              "indexed": true,
              "internalType": "address",
              "name": "user",
              "type": "address"
            },
            {
              "indexed": true,
              "internalType": "uint256",
              "name": "pid",
              "type": "uint256"
            },
            {
              "indexed": false,
              "internalType": "uint256",
              "name": "amountLockedUp",
              "type": "uint256"
            }
          ],
          "name": "RewardLockedUp",
          "type": "event"
        },
        {
          "anonymous": false,
          "inputs": [
            {
              "indexed": true,
              "internalType": "address",
              "name": "user",
              "type": "address"
            },
            {
              "indexed": true,
              "internalType": "uint256",
              "name": "pid",
              "type": "uint256"
            },
            {
              "indexed": false,
              "internalType": "uint256",
              "name": "amount",
              "type": "uint256"
            }
          ],
          "name": "Withdraw",
          "type": "event"
        },
        {
          "inputs": [],
          "name": "MAXIMUM_DEPOSIT_FEE_RATE",
          "outputs": [
            {
              "internalType": "uint16",
              "name": "",
              "type": "uint16"
            }
          ],
          "stateMutability": "view",
          "type": "function"
        },
        {
          "inputs": [],
          "name": "MAXIMUM_HARVEST_INTERVAL",
          "outputs": [
            {
              "internalType": "uint256",
              "name": "",
              "type": "uint256"
            }
          ],
          "stateMutability": "view",
          "type": "function"
        },
        {
          "inputs": [
            {
              "internalType": "uint256",
              "name": "_allocPoint",
              "type": "uint256"
            },
            {
              "internalType": "contract IERC20",
              "name": "_lpToken",
              "type": "address"
            },
            {
              "internalType": "uint16",
              "name": "_depositFeeBP",
              "type": "uint16"
            },
            {
              "internalType": "uint256",
              "name": "_harvestInterval",
              "type": "uint256"
            },
            {
              "internalType": "bool",
              "name": "_withUpdate",
              "type": "bool"
            }
          ],
          "name": "add",
          "outputs": [],
          "stateMutability": "nonpayable",
          "type": "function"
        },
        {
          "inputs": [
            {
              "internalType": "uint256",
              "name": "_pid",
              "type": "uint256"
            },
            {
              "internalType": "address",
              "name": "_user",
              "type": "address"
            }
          ],
          "name": "canHarvest",
          "outputs": [
            {
              "internalType": "bool",
              "name": "",
              "type": "bool"
            }
          ],
          "stateMutability": "view",
          "type": "function"
        },
        {
          "inputs": [
            {
              "internalType": "uint256",
              "name": "_pid",
              "type": "uint256"
            },
            {
              "internalType": "uint256",
              "name": "_amount",
              "type": "uint256"
            }
          ],
          "name": "deposit",
          "outputs": [],
          "stateMutability": "nonpayable",
          "type": "function"
        },
        {
          "inputs": [],
          "name": "devAddress",
          "outputs": [
            {
              "internalType": "address",
              "name": "",
              "type": "address"
            }
          ],
          "stateMutability": "view",
          "type": "function"
        },
        {
          "inputs": [],
          "name": "disableMetaTxns",
          "outputs": [],
          "stateMutability": "nonpayable",
          "type": "function"
        },
        {
          "inputs": [],
          "name": "ember",
          "outputs": [
            {
              "internalType": "contract IEmberERC20",
              "name": "",
              "type": "address"
            }
          ],
          "stateMutability": "view",
          "type": "function"
        },
        {
          "inputs": [],
          "name": "emberPerBlock",
          "outputs": [
            {
              "internalType": "uint256",
              "name": "",
              "type": "uint256"
            }
          ],
          "stateMutability": "view",
          "type": "function"
        },
        {
          "inputs": [
            {
              "internalType": "uint256",
              "name": "_pid",
              "type": "uint256"
            }
          ],
          "name": "emergencyWithdraw",
          "outputs": [],
          "stateMutability": "nonpayable",
          "type": "function"
        },
        {
          "inputs": [],
          "name": "enableMetaTxns",
          "outputs": [],
          "stateMutability": "nonpayable",
          "type": "function"
        },
        {
          "inputs": [],
          "name": "feeAddress",
          "outputs": [
            {
              "internalType": "address",
              "name": "",
              "type": "address"
            }
          ],
          "stateMutability": "view",
          "type": "function"
        },
        {
          "inputs": [
            {
              "internalType": "uint256",
              "name": "_from",
              "type": "uint256"
            },
            {
              "internalType": "uint256",
              "name": "_to",
              "type": "uint256"
            }
          ],
          "name": "getMultiplier",
          "outputs": [
            {
              "internalType": "uint256",
              "name": "",
              "type": "uint256"
            }
          ],
          "stateMutability": "pure",
          "type": "function"
        },
        {
          "inputs": [
            {
              "internalType": "address",
              "name": "forwarder",
              "type": "address"
            }
          ],
          "name": "isTrustedForwarder",
          "outputs": [
            {
              "internalType": "bool",
              "name": "",
              "type": "bool"
            }
          ],
          "stateMutability": "view",
          "type": "function"
        },
        {
          "inputs": [],
          "name": "massUpdatePools",
          "outputs": [],
          "stateMutability": "nonpayable",
          "type": "function"
        },
        {
          "inputs": [],
          "name": "metaTxnsEnabled",
          "outputs": [
            {
              "internalType": "bool",
              "name": "",
              "type": "bool"
            }
          ],
          "stateMutability": "view",
          "type": "function"
        },
        {
          "inputs": [],
          "name": "operator",
          "outputs": [
            {
              "internalType": "address",
              "name": "",
              "type": "address"
            }
          ],
          "stateMutability": "view",
          "type": "function"
        },
        {
          "inputs": [],
          "name": "owner",
          "outputs": [
            {
              "internalType": "address",
              "name": "",
              "type": "address"
            }
          ],
          "stateMutability": "view",
          "type": "function"
        },
        {
          "inputs": [
            {
              "internalType": "uint256",
              "name": "_pid",
              "type": "uint256"
            },
            {
              "internalType": "address",
              "name": "_user",
              "type": "address"
            }
          ],
          "name": "pendingEmber",
          "outputs": [
            {
              "internalType": "uint256",
              "name": "",
              "type": "uint256"
            }
          ],
          "stateMutability": "view",
          "type": "function"
        },
        {
          "inputs": [
            {
              "internalType": "uint256",
              "name": "",
              "type": "uint256"
            }
          ],
          "name": "poolInfo",
          "outputs": [
            {
              "internalType": "contract IERC20",
              "name": "lpToken",
              "type": "address"
            },
            {
              "internalType": "uint256",
              "name": "allocPoint",
              "type": "uint256"
            },
            {
              "internalType": "uint256",
              "name": "lastRewardBlock",
              "type": "uint256"
            },
            {
              "internalType": "uint256",
              "name": "accEmberPerShare",
              "type": "uint256"
            },
            {
              "internalType": "uint16",
              "name": "depositFeeBP",
              "type": "uint16"
            },
            {
              "internalType": "uint256",
              "name": "harvestInterval",
              "type": "uint256"
            },
            {
              "internalType": "uint256",
              "name": "totalLp",
              "type": "uint256"
            }
          ],
          "stateMutability": "view",
          "type": "function"
        },
        {
          "inputs": [],
          "name": "poolLength",
          "outputs": [
            {
              "internalType": "uint256",
              "name": "",
              "type": "uint256"
            }
          ],
          "stateMutability": "view",
          "type": "function"
        },
        {
          "inputs": [],
          "name": "renounceOwnership",
          "outputs": [],
          "stateMutability": "nonpayable",
          "type": "function"
        },
        {
          "inputs": [
            {
              "internalType": "uint256",
              "name": "_pid",
              "type": "uint256"
            },
            {
              "internalType": "uint256",
              "name": "_allocPoint",
              "type": "uint256"
            },
            {
              "internalType": "uint16",
              "name": "_depositFeeBP",
              "type": "uint16"
            },
            {
              "internalType": "uint256",
              "name": "_harvestInterval",
              "type": "uint256"
            },
            {
              "internalType": "bool",
              "name": "_withUpdate",
              "type": "bool"
            }
          ],
          "name": "set",
          "outputs": [],
          "stateMutability": "nonpayable",
          "type": "function"
        },
        {
          "inputs": [
            {
              "internalType": "address",
              "name": "_devAddress",
              "type": "address"
            }
          ],
          "name": "setDevAddress",
          "outputs": [],
          "stateMutability": "nonpayable",
          "type": "function"
        },
        {
          "inputs": [
            {
              "internalType": "address",
              "name": "_feeAddress",
              "type": "address"
            }
          ],
          "name": "setFeeAddress",
          "outputs": [],
          "stateMutability": "nonpayable",
          "type": "function"
        },
        {
          "inputs": [],
          "name": "startBlock",
          "outputs": [
            {
              "internalType": "uint256",
              "name": "",
              "type": "uint256"
            }
          ],
          "stateMutability": "view",
          "type": "function"
        },
        {
          "inputs": [],
          "name": "startFarming",
          "outputs": [],
          "stateMutability": "nonpayable",
          "type": "function"
        },
        {
          "inputs": [],
          "name": "totalAllocPoint",
          "outputs": [
            {
              "internalType": "uint256",
              "name": "",
              "type": "uint256"
            }
          ],
          "stateMutability": "view",
          "type": "function"
        },
        {
          "inputs": [],
          "name": "totalEmberInPools",
          "outputs": [
            {
              "internalType": "uint256",
              "name": "",
              "type": "uint256"
            }
          ],
          "stateMutability": "view",
          "type": "function"
        },
        {
          "inputs": [],
          "name": "totalLockedUpRewards",
          "outputs": [
            {
              "internalType": "uint256",
              "name": "",
              "type": "uint256"
            }
          ],
          "stateMutability": "view",
          "type": "function"
        },
        {
          "inputs": [
            {
              "internalType": "address",
              "name": "newOperator",
              "type": "address"
            }
          ],
          "name": "transferOperator",
          "outputs": [],
          "stateMutability": "nonpayable",
          "type": "function"
        },
        {
          "inputs": [
            {
              "internalType": "address",
              "name": "newOwner",
              "type": "address"
            }
          ],
          "name": "transferOwnership",
          "outputs": [],
          "stateMutability": "nonpayable",
          "type": "function"
        },
        {
          "inputs": [
            {
              "internalType": "uint256",
              "name": "_pid",
              "type": "uint256"
            },
            {
              "internalType": "uint256",
              "name": "_allocPoint",
              "type": "uint256"
            },
            {
              "internalType": "bool",
              "name": "_withUpdate",
              "type": "bool"
            }
          ],
          "name": "updateAllocPoint",
          "outputs": [],
          "stateMutability": "nonpayable",
          "type": "function"
        },
        {
          "inputs": [
            {
              "internalType": "uint256",
              "name": "_emberPerBlock",
              "type": "uint256"
            }
          ],
          "name": "updateEmissionRate",
          "outputs": [],
          "stateMutability": "nonpayable",
          "type": "function"
        },
        {
          "inputs": [
            {
              "internalType": "uint256",
              "name": "_pid",
              "type": "uint256"
            }
          ],
          "name": "updatePool",
          "outputs": [],
          "stateMutability": "nonpayable",
          "type": "function"
        },
        {
          "inputs": [
            {
              "internalType": "uint256",
              "name": "",
              "type": "uint256"
            },
            {
              "internalType": "address",
              "name": "",
              "type": "address"
            }
          ],
          "name": "userInfo",
          "outputs": [
            {
              "internalType": "uint256",
              "name": "amount",
              "type": "uint256"
            },
            {
              "internalType": "uint256",
              "name": "rewardDebt",
              "type": "uint256"
            },
            {
              "internalType": "uint256",
              "name": "rewardLockedUp",
              "type": "uint256"
            },
            {
              "internalType": "uint256",
              "name": "nextHarvestUntil",
              "type": "uint256"
            }
          ],
          "stateMutability": "view",
          "type": "function"
        },
        {
          "inputs": [
            {
              "internalType": "uint256",
              "name": "_pid",
              "type": "uint256"
            },
            {
              "internalType": "uint256",
              "name": "_amount",
              "type": "uint256"
            }
          ],
          "name": "withdraw",
          "outputs": [],
          "stateMutability": "nonpayable",
          "type": "function"
        }
      ],
      "devdoc": {
        "kind": "dev",
        "methods": {
          "owner()": {
            "details": "Returns the address of the current owner."
          },
          "renounceOwnership()": {
            "details": "Leaves the contract without owner. It will not be possible to call `onlyOwner` functions anymore. Can only be called by the current owner. NOTE: Renouncing ownership will leave the contract without an owner, thereby removing any functionality that is only available to the owner."
          },
          "transferOwnership(address)": {
            "details": "Transfers ownership of the contract to a new account (`newOwner`). Can only be called by the current owner."
          }
        },
        "version": 1
      },
      "evm": {
        "bytecode": {
          "linkReferences": {},
          "object": "608060405260006009819055600c55600d805460ff191690553480156200002557600080fd5b5060405162003837380380620038378339810160408190526200004891620001b2565b6200005c62000056620000ec565b62000126565b6001805562000070436312cc0300620001ee565b600a55600280546001600160a01b0384166001600160a01b031991821617909155600682905560048054821633908117909155600580548316821790556003805490921681179091556040516000907f74da04524d50c64947f5dd5381ef1a4dca5cba8ed1d816243f9e48aa0b5617ed908290a3505062000215565b6000620000f93362000176565b156200010c575060131936013560601c90565b62000121620001ae60201b6200295b1760201c565b905090565b600080546001600160a01b038381166001600160a01b0319831681178455604051919092169283917f8be0079c531659141344cd1fd0a4f28419497f9722a3daafe3b4186f6b6457e09190a35050565b600d5460009060ff168015620001a857506001600160a01b038216730d998dda948c62a4feca7355e46d6b801a1aedd6145b92915050565b3390565b60008060408385031215620001c657600080fd5b82516001600160a01b0381168114620001de57600080fd5b6020939093015192949293505050565b600082198211156200021057634e487b7160e01b600052601160045260246000fd5b500190565b61361280620002256000396000f3fe608060405234801561001057600080fd5b50600436106102775760003560e01c8063572b6c0511610160578063a8c95dc0116100d8578063c9e118521161008c578063de73149d11610071578063de73149d146105b1578063e2bbb158146105bb578063f2fde38b146105ce57600080fd5b8063c9e1185214610595578063d0d41fe11461059e57600080fd5b8063afbcfea1116100bd578063afbcfea114610567578063bc83ee221461056f578063bde4aeca1461058257600080fd5b8063a8c95dc014610547578063af018de81461055457600080fd5b8063812c64f11161012f5780638da5cb5b116101145780638da5cb5b146104b65780638dbb1e3a146104d457806393f1a40b146104e757600080fd5b8063812c64f1146104875780638705fcd4146104a357600080fd5b8063572b6c051461045c578063578bb42d1461046f578063630b5ba114610477578063715018a61461047f57600080fd5b80632e6c998d116101f3578063474fa630116101c257806351eb05a6116101a757806351eb05a6146104185780635312ea8e1461042b578063570ca7351461043e57600080fd5b8063474fa6301461040657806348cd4cb11461040f57600080fd5b80632e6c998d146103905780633ad10ef6146103b357806341275358146103d3578063441a3e70146103f357600080fd5b806317caf6f11161024a5780632143e5451161022f5780632143e5451461036157806329605e77146103745780632a22bc431461038757600080fd5b806317caf6f1146103135780631f1b9a7c1461031c57600080fd5b8063081e3eda1461027c57806308383640146102935780630ba84cd21461029d5780631526fe27146102b0575b600080fd5b6007545b6040519081526020015b60405180910390f35b61029b6105e1565b005b61029b6102ab36600461328c565b610792565b6102c36102be36600461328c565b610883565b6040805173ffffffffffffffffffffffffffffffffffffffff9098168852602088019690965294860193909352606085019190915261ffff16608084015260a083015260c082015260e00161028a565b61028060095481565b60025461033c9073ffffffffffffffffffffffffffffffffffffffff1681565b60405173ffffffffffffffffffffffffffffffffffffffff909116815260200161028a565b61029b61036f3660046133a6565b6108ed565b61029b610382366004613252565b610b73565b610280600c5481565b6103a361039e3660046132be565b610d4a565b604051901515815260200161028a565b60045461033c9073ffffffffffffffffffffffffffffffffffffffff1681565b60055461033c9073ffffffffffffffffffffffffffffffffffffffff1681565b61029b61040136600461334b565b610d97565b610280600b5481565b610280600a5481565b61029b61042636600461328c565b611082565b61029b61043936600461328c565b611294565b60035473ffffffffffffffffffffffffffffffffffffffff1661033c565b6103a361046a366004613252565b6114e1565b61029b611525565b61029b6116d5565b61029b611700565b6104906103e881565b60405161ffff909116815260200161028a565b61029b6104b1366004613252565b6117c6565b60005473ffffffffffffffffffffffffffffffffffffffff1661033c565b6102806104e236600461334b565b611989565b6105276104f53660046132be565b600860209081526000928352604080842090915290825290208054600182015460028301546003909301549192909184565b60408051948552602085019390935291830152606082015260800161028a565b600d546103a39060ff1681565b61029b6105623660046132ee565b61199c565b61029b611d37565b61028061057d3660046132be565b611eb2565b61029b61059036600461336d565b612065565b61028060065481565b61029b6105ac366004613252565b6121eb565b6102806212750081565b61029b6105c936600461334b565b6123ae565b61029b6105dc366004613252565b6127f2565b60035473ffffffffffffffffffffffffffffffffffffffff16331461068c576040517f08c379a0000000000000000000000000000000000000000000000000000000008152602060048201526024808201527f4f70657261746f723a2063616c6c6572206973206e6f7420746865206f70657260448201527f61746f720000000000000000000000000000000000000000000000000000000060648201526084015b60405180910390fd5b600d5460ff1661071e576040517f08c379a000000000000000000000000000000000000000000000000000000000815260206004820152602660248201527f4d657461207472616e73616374696f6e732061726520616c726561647920646960448201527f7361626c656400000000000000000000000000000000000000000000000000006064820152608401610683565b600d80547fffffffffffffffffffffffffffffffffffffffffffffffffffffffffffffff0016905561074e61295f565b73ffffffffffffffffffffffffffffffffffffffff167f096be170ccc67847e55535e7d8334b2afedd95805baedc160005addb9144745060405160405180910390a2565b60035473ffffffffffffffffffffffffffffffffffffffff163314610838576040517f08c379a0000000000000000000000000000000000000000000000000000000008152602060048201526024808201527f4f70657261746f723a2063616c6c6572206973206e6f7420746865206f70657260448201527f61746f72000000000000000000000000000000000000000000000000000000006064820152608401610683565b6108406116d5565b600654604080519182526020820183905233917feedc6338c9c1ad8f3cd6c90dd09dbe98dbd57e610d3e59a17996d07acb0d9511910160405180910390a2600655565b6007818154811061089357600080fd5b6000918252602090912060079091020180546001820154600283015460038401546004850154600586015460069096015473ffffffffffffffffffffffffffffffffffffffff909516965092949193909261ffff16919087565b6108f561295f565b73ffffffffffffffffffffffffffffffffffffffff1661092a60005473ffffffffffffffffffffffffffffffffffffffff1690565b73ffffffffffffffffffffffffffffffffffffffff16146109a7576040517f08c379a000000000000000000000000000000000000000000000000000000000815260206004820181905260248201527f4f776e61626c653a2063616c6c6572206973206e6f7420746865206f776e65726044820152606401610683565b6103e861ffff84161115610a17576040517f08c379a000000000000000000000000000000000000000000000000000000000815260206004820152601960248201527f7365743a206465706f7369742066656520746f6f2068696768000000000000006044820152606401610683565b62127500821115610a84576040517f08c379a000000000000000000000000000000000000000000000000000000000815260206004820152601d60248201527f7365743a20696e76616c6964206861727665737420696e74657276616c0000006044820152606401610683565b8015610a9257610a926116d5565b610ad584610acf60078881548110610aac57610aac61357d565b90600052602060002090600702016001015460095461299f90919063ffffffff16565b906129ab565b6009819055508360078681548110610aef57610aef61357d565b9060005260206000209060070201600101819055508260078681548110610b1857610b1861357d565b906000526020600020906007020160040160006101000a81548161ffff021916908361ffff1602179055508160078681548110610b5757610b5761357d565b9060005260206000209060070201600501819055505050505050565b60035473ffffffffffffffffffffffffffffffffffffffff163314610c19576040517f08c379a0000000000000000000000000000000000000000000000000000000008152602060048201526024808201527f4f70657261746f723a2063616c6c6572206973206e6f7420746865206f70657260448201527f61746f72000000000000000000000000000000000000000000000000000000006064820152608401610683565b73ffffffffffffffffffffffffffffffffffffffff8116610cbc576040517f08c379a000000000000000000000000000000000000000000000000000000000815260206004820152603260248201527f5472616e736665724f70657261746f723a206e6577206f70657261746f72206960448201527f7320746865207a65726f206164647265737300000000000000000000000000006064820152608401610683565b60035460405173ffffffffffffffffffffffffffffffffffffffff8084169216907f74da04524d50c64947f5dd5381ef1a4dca5cba8ed1d816243f9e48aa0b5617ed90600090a3600380547fffffffffffffffffffffffff00000000000000000000000000000000000000001673ffffffffffffffffffffffffffffffffffffffff92909216919091179055565b600082815260086020908152604080832073ffffffffffffffffffffffffffffffffffffffff851684529091528120600a544310801590610d8f575080600301544210155b949350505050565b60026001541415610e04576040517f08c379a000000000000000000000000000000000000000000000000000000000815260206004820152601f60248201527f5265656e7472616e637947756172643a207265656e7472616e742063616c6c006044820152606401610683565b6002600181905550600060078381548110610e2157610e2161357d565b60009182526020808320868452600890915260408320600790920201925081610e4861295f565b73ffffffffffffffffffffffffffffffffffffffff1673ffffffffffffffffffffffffffffffffffffffff16815260200190815260200160002090508281600001541015610ef2576040517f08c379a000000000000000000000000000000000000000000000000000000000815260206004820181905260248201527f57697468647261773a205573657220616d6f756e74206e6f7420656e6f7567686044820152606401610683565b8282600601541015610f60576040517f08c379a000000000000000000000000000000000000000000000000000000000815260206004820152601f60248201527f57697468647261773a20506f6f6c20746f74616c206e6f7420656e6f756768006044820152606401610683565b610f6984611082565b610f72846129b7565b8215610ffa578054610f84908461299f565b81556006820154610f95908461299f565b6006830155600254825473ffffffffffffffffffffffffffffffffffffffff90811691161415610fd057600c54610fcc908461299f565b600c555b610ffa610fdb61295f565b835473ffffffffffffffffffffffffffffffffffffffff169085612bad565b6003820154815461101b9164e8d4a510009161101591612c86565b90612c92565b60018201558361102961295f565b73ffffffffffffffffffffffffffffffffffffffff167ff279e6a1f5e320cca91135676d9cb6e44ca8a08c0b88342bcdb1144f6511b5688560405161107091815260200190565b60405180910390a35050600180555050565b6000600782815481106110975761109761357d565b90600052602060002090600702019050806002015443116110b6575050565b60068101548015806110ca57506001820154155b156110da57504360029091015550565b60006110ea836002015443611989565b90506000611117600954611015866001015461111160065487612c8690919063ffffffff16565b90612c86565b60025460045491925073ffffffffffffffffffffffffffffffffffffffff908116916340c10f19911661114b84600a612c92565b6040517fffffffff0000000000000000000000000000000000000000000000000000000060e085901b16815273ffffffffffffffffffffffffffffffffffffffff90921660048301526024820152604401600060405180830381600087803b1580156111b657600080fd5b505af11580156111ca573d6000803e3d6000fd5b50506002546040517f40c10f190000000000000000000000000000000000000000000000000000000081523060048201526024810185905273ffffffffffffffffffffffffffffffffffffffff90911692506340c10f199150604401600060405180830381600087803b15801561124057600080fd5b505af1158015611254573d6000803e3d6000fd5b505050600685015461127f9150611274906110158464e8d4a51000612c86565b6003860154906129ab565b60038501555050436002909201919091555050565b60026001541415611301576040517f08c379a000000000000000000000000000000000000000000000000000000000815260206004820152601f60248201527f5265656e7472616e637947756172643a207265656e7472616e742063616c6c006044820152606401610683565b600260018190555060006007828154811061131e5761131e61357d565b6000918252602080832085845260089091526040832060079092020192508161134561295f565b73ffffffffffffffffffffffffffffffffffffffff16815260208101919091526040016000208054600684015491925090811115611405576040517f08c379a000000000000000000000000000000000000000000000000000000000815260206004820152602860248201527f456d657267656e637957697468647261773a20506f6f6c20746f74616c206e6f60448201527f7420656e6f7567680000000000000000000000000000000000000000000000006064820152608401610683565b600080835560018301819055600283018190556003830155600683015461142c908261299f565b6006840155600254835473ffffffffffffffffffffffffffffffffffffffff9081169116141561146757600c54611463908261299f565b600c555b61149161147261295f565b845473ffffffffffffffffffffffffffffffffffffffff169083612bad565b8361149a61295f565b73ffffffffffffffffffffffffffffffffffffffff167fbb757047c2b5f3974fe26b7c10f732e7bce710b0952a71082702781e62ae05958360405161107091815260200190565b600d5460009060ff16801561151f575073ffffffffffffffffffffffffffffffffffffffff8216730d998dda948c62a4feca7355e46d6b801a1aedd6145b92915050565b60035473ffffffffffffffffffffffffffffffffffffffff1633146115cb576040517f08c379a0000000000000000000000000000000000000000000000000000000008152602060048201526024808201527f4f70657261746f723a2063616c6c6572206973206e6f7420746865206f70657260448201527f61746f72000000000000000000000000000000000000000000000000000000006064820152608401610683565b600d5460ff161561165e576040517f08c379a000000000000000000000000000000000000000000000000000000000815260206004820152602560248201527f4d657461207472616e73616374696f6e732061726520616c726561647920656e60448201527f61626c65640000000000000000000000000000000000000000000000000000006064820152608401610683565b600d80547fffffffffffffffffffffffffffffffffffffffffffffffffffffffffffffff0016600117905561169161295f565b73ffffffffffffffffffffffffffffffffffffffff167f92e4c08d47b71e8dc051232b8e475ec296489a67a4ba5cca88ff20fb6ac499e660405160405180910390a2565b60075460005b818110156116fc576116ec81611082565b6116f581613515565b90506116db565b5050565b61170861295f565b73ffffffffffffffffffffffffffffffffffffffff1661173d60005473ffffffffffffffffffffffffffffffffffffffff1690565b73ffffffffffffffffffffffffffffffffffffffff16146117ba576040517f08c379a000000000000000000000000000000000000000000000000000000000815260206004820181905260248201527f4f776e61626c653a2063616c6c6572206973206e6f7420746865206f776e65726044820152606401610683565b6117c46000612c9e565b565b60055473ffffffffffffffffffffffffffffffffffffffff166117e761295f565b73ffffffffffffffffffffffffffffffffffffffff1614611864576040517f08c379a000000000000000000000000000000000000000000000000000000000815260206004820152601860248201527f736574466565416464726573733a20464f5242494444454e00000000000000006044820152606401610683565b73ffffffffffffffffffffffffffffffffffffffff81166118e1576040517f08c379a000000000000000000000000000000000000000000000000000000000815260206004820152601360248201527f736574466565416464726573733a205a45524f000000000000000000000000006044820152606401610683565b6118e961295f565b6005546040805173ffffffffffffffffffffffffffffffffffffffff9283168152848316602082015292909116917f6690a53895b5691c039238b384bd857e65c42adcc727775381e02cb90a122613910160405180910390a2600580547fffffffffffffffffffffffff00000000000000000000000000000000000000001673ffffffffffffffffffffffffffffffffffffffff92909216919091179055565b6000611995828461299f565b9392505050565b6119a461295f565b73ffffffffffffffffffffffffffffffffffffffff166119d960005473ffffffffffffffffffffffffffffffffffffffff1690565b73ffffffffffffffffffffffffffffffffffffffff1614611a56576040517f08c379a000000000000000000000000000000000000000000000000000000000815260206004820181905260248201527f4f776e61626c653a2063616c6c6572206973206e6f7420746865206f776e65726044820152606401610683565b6103e861ffff84161115611ac6576040517f08c379a000000000000000000000000000000000000000000000000000000000815260206004820152601960248201527f6164643a206465706f7369742066656520746f6f2068696768000000000000006044820152606401610683565b62127500821115611b33576040517f08c379a000000000000000000000000000000000000000000000000000000000815260206004820152601d60248201527f6164643a20696e76616c6964206861727665737420696e74657276616c0000006044820152606401610683565b8015611b4157611b416116d5565b6000600a544311611b5457600a54611b56565b435b600954909150611b6690876129ab565b6009556040805160e08101825273ffffffffffffffffffffffffffffffffffffffff96871681526020810197885290810191825260006060820181815261ffff9687166080840190815260a0840196875260c08401838152600780546001810182559481905294517fa66cc928b5edb82af9bd49922954155ab7b0942694bea4ce44661d9a8736c6889490950293840180547fffffffffffffffffffffffff00000000000000000000000000000000000000001695909a169490941790985597517fa66cc928b5edb82af9bd49922954155ab7b0942694bea4ce44661d9a8736c68982015591517fa66cc928b5edb82af9bd49922954155ab7b0942694bea4ce44661d9a8736c68a83015595517fa66cc928b5edb82af9bd49922954155ab7b0942694bea4ce44661d9a8736c68b82015593517fa66cc928b5edb82af9bd49922954155ab7b0942694bea4ce44661d9a8736c68c850180547fffffffffffffffffffffffffffffffffffffffffffffffffffffffffffff0000169190941617909255517fa66cc928b5edb82af9bd49922954155ab7b0942694bea4ce44661d9a8736c68d8301555090517fa66cc928b5edb82af9bd49922954155ab7b0942694bea4ce44661d9a8736c68e90910155565b611d3f61295f565b73ffffffffffffffffffffffffffffffffffffffff16611d7460005473ffffffffffffffffffffffffffffffffffffffff1690565b73ffffffffffffffffffffffffffffffffffffffff1614611df1576040517f08c379a000000000000000000000000000000000000000000000000000000000815260206004820181905260248201527f4f776e61626c653a2063616c6c6572206973206e6f7420746865206f776e65726044820152606401610683565b600a544310611e5c576040517f08c379a000000000000000000000000000000000000000000000000000000000815260206004820152601b60248201527f4572726f723a3a4661726d207374617274656420616c726561647900000000006044820152606401610683565b60075460005b81811015611eaa57600060078281548110611e7f57611e7f61357d565b906000526020600020906007020190504381600201819055505080611ea390613515565b9050611e62565b505043600a55565b60008060078481548110611ec857611ec861357d565b6000918252602080832087845260088252604080852073ffffffffffffffffffffffffffffffffffffffff898116875293528085206007949094029091016003810154815492517f70a0823100000000000000000000000000000000000000000000000000000000815230600482015291965093949291909116906370a082319060240160206040518083038186803b158015611f6457600080fd5b505afa158015611f78573d6000803e3d6000fd5b505050506040513d601f19601f82011682018060405250810190611f9c91906132a5565b9050836002015443118015611fb057508015155b15612010576000611fc5856002015443611989565b90506000611fec600954611015886001015461111160065487612c8690919063ffffffff16565b905061200b612004846110158464e8d4a51000612c86565b85906129ab565b935050505b6000612040846001015461203a64e8d4a51000611015878960000154612c8690919063ffffffff16565b9061299f565b90506120598460020154826129ab90919063ffffffff16565b98975050505050505050565b60035473ffffffffffffffffffffffffffffffffffffffff16331461210b576040517f08c379a0000000000000000000000000000000000000000000000000000000008152602060048201526024808201527f4f70657261746f723a2063616c6c6572206973206e6f7420746865206f70657260448201527f61746f72000000000000000000000000000000000000000000000000000000006064820152608401610683565b8015612119576121196116d5565b61212161295f565b73ffffffffffffffffffffffffffffffffffffffff167f802633c8d26237616d81bdac01bc40fcdf36e098832601582ec19d7e431c5ef36007858154811061216b5761216b61357d565b90600052602060002090600702016001015484604051612195929190918252602082015260400190565b60405180910390a26121b782610acf60078681548110610aac57610aac61357d565b60098190555081600784815481106121d1576121d161357d565b906000526020600020906007020160010181905550505050565b60045473ffffffffffffffffffffffffffffffffffffffff1661220c61295f565b73ffffffffffffffffffffffffffffffffffffffff1614612289576040517f08c379a000000000000000000000000000000000000000000000000000000000815260206004820152601860248201527f736574446576416464726573733a20464f5242494444454e00000000000000006044820152606401610683565b73ffffffffffffffffffffffffffffffffffffffff8116612306576040517f08c379a000000000000000000000000000000000000000000000000000000000815260206004820152601360248201527f736574446576416464726573733a205a45524f000000000000000000000000006044820152606401610683565b61230e61295f565b6004546040805173ffffffffffffffffffffffffffffffffffffffff9283168152848316602082015292909116917fd36d63f6c513a911d7912853de740af476b0fbb569aa769e1a4f5bfa37a325c4910160405180910390a2600480547fffffffffffffffffffffffff00000000000000000000000000000000000000001673ffffffffffffffffffffffffffffffffffffffff92909216919091179055565b6002600154141561241b576040517f08c379a000000000000000000000000000000000000000000000000000000000815260206004820152601f60248201527f5265656e7472616e637947756172643a207265656e7472616e742063616c6c006044820152606401610683565b6002600155600a544310156124b2576040517f08c379a000000000000000000000000000000000000000000000000000000000815260206004820152602e60248201527f456d6265724469737472696275746f723a2043616e206e6f74206465706f736960448201527f74206265666f72652073746172740000000000000000000000000000000000006064820152608401610683565b6000600783815481106124c7576124c761357d565b600091825260208083208684526008909152604083206007909202019250816124ee61295f565b73ffffffffffffffffffffffffffffffffffffffff1673ffffffffffffffffffffffffffffffffffffffff168152602001908152602001600020905061253384611082565b61253c846129b7565b82156127825781546040517f70a0823100000000000000000000000000000000000000000000000000000000815230600482015260009173ffffffffffffffffffffffffffffffffffffffff16906370a082319060240160206040518083038186803b1580156125ab57600080fd5b505afa1580156125bf573d6000803e3d6000fd5b505050506040513d601f19601f820116820180604052508101906125e391906132a5565b90506126106125f061295f565b845473ffffffffffffffffffffffffffffffffffffffff16903087612d13565b82546040517f70a0823100000000000000000000000000000000000000000000000000000000815230600482015260009173ffffffffffffffffffffffffffffffffffffffff16906370a082319060240160206040518083038186803b15801561267957600080fd5b505afa15801561268d573d6000803e3d6000fd5b505050506040513d601f19601f820116820180604052508101906126b191906132a5565b90506126bd818361299f565b600485015490955061ffff16156127275760048401546000906126ed906127109061101590899061ffff16612c86565b60055486549192506127199173ffffffffffffffffffffffffffffffffffffffff908116911683612bad565b612723868261299f565b9550505b825461273390866129ab565b8355600684015461274490866129ab565b6006850155600254845473ffffffffffffffffffffffffffffffffffffffff9081169116141561277f57600c5461277b90866129ab565b600c555b50505b6003820154815461279d9164e8d4a510009161101591612c86565b6001820155836127ab61295f565b73ffffffffffffffffffffffffffffffffffffffff167f90890809c654f11d6e72a28fa60149770a0d11ec6c92319d6ceb2bb0a4ea1a158560405161107091815260200190565b6127fa61295f565b73ffffffffffffffffffffffffffffffffffffffff1661282f60005473ffffffffffffffffffffffffffffffffffffffff1690565b73ffffffffffffffffffffffffffffffffffffffff16146128ac576040517f08c379a000000000000000000000000000000000000000000000000000000000815260206004820181905260248201527f4f776e61626c653a2063616c6c6572206973206e6f7420746865206f776e65726044820152606401610683565b73ffffffffffffffffffffffffffffffffffffffff811661294f576040517f08c379a000000000000000000000000000000000000000000000000000000000815260206004820152602660248201527f4f776e61626c653a206e6577206f776e657220697320746865207a65726f206160448201527f64647265737300000000000000000000000000000000000000000000000000006064820152608401610683565b61295881612c9e565b50565b3390565b600061296a336114e1565b1561299a57507fffffffffffffffffffffffffffffffffffffffffffffffffffffffffffffffec36013560601c90565b503390565b600061199582846134d2565b60006119958284613442565b6000600782815481106129cc576129cc61357d565b600091825260208083208584526008909152604083206007909202019250816129f361295f565b73ffffffffffffffffffffffffffffffffffffffff1673ffffffffffffffffffffffffffffffffffffffff168152602001908152602001600020905080600301546000148015612a455750600a544310155b15612a60576005820154612a5a9042906129ab565b60038201555b6000612a8e826001015461203a64e8d4a5100061101587600301548760000154612c8690919063ffffffff16565b9050612a9c8461039e61295f565b15612b24576000811180612ab4575060008260020154115b15612b1f576000612ad28360020154836129ab90919063ffffffff16565b9050612aed8360020154600b5461299f90919063ffffffff16565b600b55600060028401556005840154612b079042906129ab565b6003840155612b1d612b1761295f565b82612d71565b505b612ba7565b8015612ba7576002820154612b3990826129ab565b6002830155600b54612b4b90826129ab565b600b5583612b5761295f565b73ffffffffffffffffffffffffffffffffffffffff167fee470483107f579a55c754fa00613c45a9a3b617a418b39cb0be97e5381ba7c183604051612b9e91815260200190565b60405180910390a35b50505050565b60405173ffffffffffffffffffffffffffffffffffffffff8316602482015260448101829052612c819084907fa9059cbb00000000000000000000000000000000000000000000000000000000906064015b604080517fffffffffffffffffffffffffffffffffffffffffffffffffffffffffffffffe08184030181529190526020810180517bffffffffffffffffffffffffffffffffffffffffffffffffffffffff167fffffffff0000000000000000000000000000000000000000000000000000000090931692909217909152612fe3565b505050565b60006119958284613495565b6000611995828461345a565b6000805473ffffffffffffffffffffffffffffffffffffffff8381167fffffffffffffffffffffffff0000000000000000000000000000000000000000831681178455604051919092169283917f8be0079c531659141344cd1fd0a4f28419497f9722a3daafe3b4186f6b6457e09190a35050565b60405173ffffffffffffffffffffffffffffffffffffffff80851660248301528316604482015260648101829052612ba79085907f23b872dd0000000000000000000000000000000000000000000000000000000090608401612bff565b600c546002546040517f70a0823100000000000000000000000000000000000000000000000000000000815230600482015273ffffffffffffffffffffffffffffffffffffffff909116906370a082319060240160206040518083038186803b158015612ddd57600080fd5b505afa158015612df1573d6000803e3d6000fd5b505050506040513d601f19601f82011682018060405250810190612e1591906132a5565b11156116fc57600c546002546040517f70a08231000000000000000000000000000000000000000000000000000000008152306004820152600092612ec892909173ffffffffffffffffffffffffffffffffffffffff909116906370a082319060240160206040518083038186803b158015612e9057600080fd5b505afa158015612ea4573d6000803e3d6000fd5b505050506040513d601f19601f8201168201806040525081019061203a91906132a5565b9050808210612f7e576002546040517fa9059cbb00000000000000000000000000000000000000000000000000000000815273ffffffffffffffffffffffffffffffffffffffff8581166004830152602482018490529091169063a9059cbb906044015b602060405180830381600087803b158015612f4657600080fd5b505af1158015612f5a573d6000803e3d6000fd5b505050506040513d601f19601f82011682018060405250810190612ba7919061326f565b8115612c81576002546040517fa9059cbb00000000000000000000000000000000000000000000000000000000815273ffffffffffffffffffffffffffffffffffffffff8581166004830152602482018590529091169063a9059cbb90604401612f2c565b6000613045826040518060400160405280602081526020017f5361666545524332303a206c6f772d6c6576656c2063616c6c206661696c65648152508573ffffffffffffffffffffffffffffffffffffffff166130ef9092919063ffffffff16565b805190915015612c815780806020019051810190613063919061326f565b612c81576040517f08c379a000000000000000000000000000000000000000000000000000000000815260206004820152602a60248201527f5361666545524332303a204552433230206f7065726174696f6e20646964206e60448201527f6f742073756363656564000000000000000000000000000000000000000000006064820152608401610683565b6060610d8f848460008585843b613162576040517f08c379a000000000000000000000000000000000000000000000000000000000815260206004820152601d60248201527f416464726573733a2063616c6c20746f206e6f6e2d636f6e74726163740000006044820152606401610683565b6000808673ffffffffffffffffffffffffffffffffffffffff16858760405161318b91906133d5565b60006040518083038185875af1925050503d80600081146131c8576040519150601f19603f3d011682016040523d82523d6000602084013e6131cd565b606091505b50915091506131dd8282866131e8565b979650505050505050565b606083156131f7575081611995565b8251156132075782518084602001fd5b816040517f08c379a000000000000000000000000000000000000000000000000000000000815260040161068391906133f1565b803561ffff8116811461324d57600080fd5b919050565b60006020828403121561326457600080fd5b8135611995816135ac565b60006020828403121561328157600080fd5b8151611995816135ce565b60006020828403121561329e57600080fd5b5035919050565b6000602082840312156132b757600080fd5b5051919050565b600080604083850312156132d157600080fd5b8235915060208301356132e3816135ac565b809150509250929050565b600080600080600060a0868803121561330657600080fd5b853594506020860135613318816135ac565b93506133266040870161323b565b925060608601359150608086013561333d816135ce565b809150509295509295909350565b6000806040838503121561335e57600080fd5b50508035926020909101359150565b60008060006060848603121561338257600080fd5b8335925060208401359150604084013561339b816135ce565b809150509250925092565b600080600080600060a086880312156133be57600080fd5b85359450602086013593506133266040870161323b565b600082516133e78184602087016134e9565b9190910192915050565b60208152600082518060208401526134108160408501602087016134e9565b601f017fffffffffffffffffffffffffffffffffffffffffffffffffffffffffffffffe0169190910160400192915050565b600082198211156134555761345561354e565b500190565b600082613490577f4e487b7100000000000000000000000000000000000000000000000000000000600052601260045260246000fd5b500490565b6000817fffffffffffffffffffffffffffffffffffffffffffffffffffffffffffffffff04831182151516156134cd576134cd61354e565b500290565b6000828210156134e4576134e461354e565b500390565b60005b838110156135045781810151838201526020016134ec565b83811115612ba75750506000910152565b60007fffffffffffffffffffffffffffffffffffffffffffffffffffffffffffffffff8214156135475761354761354e565b5060010190565b7f4e487b7100000000000000000000000000000000000000000000000000000000600052601160045260246000fd5b7f4e487b7100000000000000000000000000000000000000000000000000000000600052603260045260246000fd5b73ffffffffffffffffffffffffffffffffffffffff8116811461295857600080fd5b801515811461295857600080fdfea2646970667358221220f0582c43b1c69b8215cee1c4248b8b37dc0c7eb4344cbbd222ec3343307701f464736f6c63430008070033",
          "opcodes": "PUSH1 0x80 PUSH1 0x40 MSTORE PUSH1 0x0 PUSH1 0x9 DUP2 SWAP1 SSTORE PUSH1 0xC SSTORE PUSH1 0xD DUP1 SLOAD PUSH1 0xFF NOT AND SWAP1 SSTORE CALLVALUE DUP1 ISZERO PUSH3 0x25 JUMPI PUSH1 0x0 DUP1 REVERT JUMPDEST POP PUSH1 0x40 MLOAD PUSH3 0x3837 CODESIZE SUB DUP1 PUSH3 0x3837 DUP4 CODECOPY DUP2 ADD PUSH1 0x40 DUP2 SWAP1 MSTORE PUSH3 0x48 SWAP2 PUSH3 0x1B2 JUMP JUMPDEST PUSH3 0x5C PUSH3 0x56 PUSH3 0xEC JUMP JUMPDEST PUSH3 0x126 JUMP JUMPDEST PUSH1 0x1 DUP1 SSTORE PUSH3 0x70 NUMBER PUSH4 0x12CC0300 PUSH3 0x1EE JUMP JUMPDEST PUSH1 0xA SSTORE PUSH1 0x2 DUP1 SLOAD PUSH1 0x1 PUSH1 0x1 PUSH1 0xA0 SHL SUB DUP5 AND PUSH1 0x1 PUSH1 0x1 PUSH1 0xA0 SHL SUB NOT SWAP2 DUP3 AND OR SWAP1 SWAP2 SSTORE PUSH1 0x6 DUP3 SWAP1 SSTORE PUSH1 0x4 DUP1 SLOAD DUP3 AND CALLER SWAP1 DUP2 OR SWAP1 SWAP2 SSTORE PUSH1 0x5 DUP1 SLOAD DUP4 AND DUP3 OR SWAP1 SSTORE PUSH1 0x3 DUP1 SLOAD SWAP1 SWAP3 AND DUP2 OR SWAP1 SWAP2 SSTORE PUSH1 0x40 MLOAD PUSH1 0x0 SWAP1 PUSH32 0x74DA04524D50C64947F5DD5381EF1A4DCA5CBA8ED1D816243F9E48AA0B5617ED SWAP1 DUP3 SWAP1 LOG3 POP POP PUSH3 0x215 JUMP JUMPDEST PUSH1 0x0 PUSH3 0xF9 CALLER PUSH3 0x176 JUMP JUMPDEST ISZERO PUSH3 0x10C JUMPI POP PUSH1 0x13 NOT CALLDATASIZE ADD CALLDATALOAD PUSH1 0x60 SHR SWAP1 JUMP JUMPDEST PUSH3 0x121 PUSH3 0x1AE PUSH1 0x20 SHL PUSH3 0x295B OR PUSH1 0x20 SHR JUMP JUMPDEST SWAP1 POP SWAP1 JUMP JUMPDEST PUSH1 0x0 DUP1 SLOAD PUSH1 0x1 PUSH1 0x1 PUSH1 0xA0 SHL SUB DUP4 DUP2 AND PUSH1 0x1 PUSH1 0x1 PUSH1 0xA0 SHL SUB NOT DUP4 AND DUP2 OR DUP5 SSTORE PUSH1 0x40 MLOAD SWAP2 SWAP1 SWAP3 AND SWAP3 DUP4 SWAP2 PUSH32 0x8BE0079C531659141344CD1FD0A4F28419497F9722A3DAAFE3B4186F6B6457E0 SWAP2 SWAP1 LOG3 POP POP JUMP JUMPDEST PUSH1 0xD SLOAD PUSH1 0x0 SWAP1 PUSH1 0xFF AND DUP1 ISZERO PUSH3 0x1A8 JUMPI POP PUSH1 0x1 PUSH1 0x1 PUSH1 0xA0 SHL SUB DUP3 AND PUSH20 0xD998DDA948C62A4FECA7355E46D6B801A1AEDD6 EQ JUMPDEST SWAP3 SWAP2 POP POP JUMP JUMPDEST CALLER SWAP1 JUMP JUMPDEST PUSH1 0x0 DUP1 PUSH1 0x40 DUP4 DUP6 SUB SLT ISZERO PUSH3 0x1C6 JUMPI PUSH1 0x0 DUP1 REVERT JUMPDEST DUP3 MLOAD PUSH1 0x1 PUSH1 0x1 PUSH1 0xA0 SHL SUB DUP2 AND DUP2 EQ PUSH3 0x1DE JUMPI PUSH1 0x0 DUP1 REVERT JUMPDEST PUSH1 0x20 SWAP4 SWAP1 SWAP4 ADD MLOAD SWAP3 SWAP5 SWAP3 SWAP4 POP POP POP JUMP JUMPDEST PUSH1 0x0 DUP3 NOT DUP3 GT ISZERO PUSH3 0x210 JUMPI PUSH4 0x4E487B71 PUSH1 0xE0 SHL PUSH1 0x0 MSTORE PUSH1 0x11 PUSH1 0x4 MSTORE PUSH1 0x24 PUSH1 0x0 REVERT JUMPDEST POP ADD SWAP1 JUMP JUMPDEST PUSH2 0x3612 DUP1 PUSH3 0x225 PUSH1 0x0 CODECOPY PUSH1 0x0 RETURN INVALID PUSH1 0x80 PUSH1 0x40 MSTORE CALLVALUE DUP1 ISZERO PUSH2 0x10 JUMPI PUSH1 0x0 DUP1 REVERT JUMPDEST POP PUSH1 0x4 CALLDATASIZE LT PUSH2 0x277 JUMPI PUSH1 0x0 CALLDATALOAD PUSH1 0xE0 SHR DUP1 PUSH4 0x572B6C05 GT PUSH2 0x160 JUMPI DUP1 PUSH4 0xA8C95DC0 GT PUSH2 0xD8 JUMPI DUP1 PUSH4 0xC9E11852 GT PUSH2 0x8C JUMPI DUP1 PUSH4 0xDE73149D GT PUSH2 0x71 JUMPI DUP1 PUSH4 0xDE73149D EQ PUSH2 0x5B1 JUMPI DUP1 PUSH4 0xE2BBB158 EQ PUSH2 0x5BB JUMPI DUP1 PUSH4 0xF2FDE38B EQ PUSH2 0x5CE JUMPI PUSH1 0x0 DUP1 REVERT JUMPDEST DUP1 PUSH4 0xC9E11852 EQ PUSH2 0x595 JUMPI DUP1 PUSH4 0xD0D41FE1 EQ PUSH2 0x59E JUMPI PUSH1 0x0 DUP1 REVERT JUMPDEST DUP1 PUSH4 0xAFBCFEA1 GT PUSH2 0xBD JUMPI DUP1 PUSH4 0xAFBCFEA1 EQ PUSH2 0x567 JUMPI DUP1 PUSH4 0xBC83EE22 EQ PUSH2 0x56F JUMPI DUP1 PUSH4 0xBDE4AECA EQ PUSH2 0x582 JUMPI PUSH1 0x0 DUP1 REVERT JUMPDEST DUP1 PUSH4 0xA8C95DC0 EQ PUSH2 0x547 JUMPI DUP1 PUSH4 0xAF018DE8 EQ PUSH2 0x554 JUMPI PUSH1 0x0 DUP1 REVERT JUMPDEST DUP1 PUSH4 0x812C64F1 GT PUSH2 0x12F JUMPI DUP1 PUSH4 0x8DA5CB5B GT PUSH2 0x114 JUMPI DUP1 PUSH4 0x8DA5CB5B EQ PUSH2 0x4B6 JUMPI DUP1 PUSH4 0x8DBB1E3A EQ PUSH2 0x4D4 JUMPI DUP1 PUSH4 0x93F1A40B EQ PUSH2 0x4E7 JUMPI PUSH1 0x0 DUP1 REVERT JUMPDEST DUP1 PUSH4 0x812C64F1 EQ PUSH2 0x487 JUMPI DUP1 PUSH4 0x8705FCD4 EQ PUSH2 0x4A3 JUMPI PUSH1 0x0 DUP1 REVERT JUMPDEST DUP1 PUSH4 0x572B6C05 EQ PUSH2 0x45C JUMPI DUP1 PUSH4 0x578BB42D EQ PUSH2 0x46F JUMPI DUP1 PUSH4 0x630B5BA1 EQ PUSH2 0x477 JUMPI DUP1 PUSH4 0x715018A6 EQ PUSH2 0x47F JUMPI PUSH1 0x0 DUP1 REVERT JUMPDEST DUP1 PUSH4 0x2E6C998D GT PUSH2 0x1F3 JUMPI DUP1 PUSH4 0x474FA630 GT PUSH2 0x1C2 JUMPI DUP1 PUSH4 0x51EB05A6 GT PUSH2 0x1A7 JUMPI DUP1 PUSH4 0x51EB05A6 EQ PUSH2 0x418 JUMPI DUP1 PUSH4 0x5312EA8E EQ PUSH2 0x42B JUMPI DUP1 PUSH4 0x570CA735 EQ PUSH2 0x43E JUMPI PUSH1 0x0 DUP1 REVERT JUMPDEST DUP1 PUSH4 0x474FA630 EQ PUSH2 0x406 JUMPI DUP1 PUSH4 0x48CD4CB1 EQ PUSH2 0x40F JUMPI PUSH1 0x0 DUP1 REVERT JUMPDEST DUP1 PUSH4 0x2E6C998D EQ PUSH2 0x390 JUMPI DUP1 PUSH4 0x3AD10EF6 EQ PUSH2 0x3B3 JUMPI DUP1 PUSH4 0x41275358 EQ PUSH2 0x3D3 JUMPI DUP1 PUSH4 0x441A3E70 EQ PUSH2 0x3F3 JUMPI PUSH1 0x0 DUP1 REVERT JUMPDEST DUP1 PUSH4 0x17CAF6F1 GT PUSH2 0x24A JUMPI DUP1 PUSH4 0x2143E545 GT PUSH2 0x22F JUMPI DUP1 PUSH4 0x2143E545 EQ PUSH2 0x361 JUMPI DUP1 PUSH4 0x29605E77 EQ PUSH2 0x374 JUMPI DUP1 PUSH4 0x2A22BC43 EQ PUSH2 0x387 JUMPI PUSH1 0x0 DUP1 REVERT JUMPDEST DUP1 PUSH4 0x17CAF6F1 EQ PUSH2 0x313 JUMPI DUP1 PUSH4 0x1F1B9A7C EQ PUSH2 0x31C JUMPI PUSH1 0x0 DUP1 REVERT JUMPDEST DUP1 PUSH4 0x81E3EDA EQ PUSH2 0x27C JUMPI DUP1 PUSH4 0x8383640 EQ PUSH2 0x293 JUMPI DUP1 PUSH4 0xBA84CD2 EQ PUSH2 0x29D JUMPI DUP1 PUSH4 0x1526FE27 EQ PUSH2 0x2B0 JUMPI JUMPDEST PUSH1 0x0 DUP1 REVERT JUMPDEST PUSH1 0x7 SLOAD JUMPDEST PUSH1 0x40 MLOAD SWAP1 DUP2 MSTORE PUSH1 0x20 ADD JUMPDEST PUSH1 0x40 MLOAD DUP1 SWAP2 SUB SWAP1 RETURN JUMPDEST PUSH2 0x29B PUSH2 0x5E1 JUMP JUMPDEST STOP JUMPDEST PUSH2 0x29B PUSH2 0x2AB CALLDATASIZE PUSH1 0x4 PUSH2 0x328C JUMP JUMPDEST PUSH2 0x792 JUMP JUMPDEST PUSH2 0x2C3 PUSH2 0x2BE CALLDATASIZE PUSH1 0x4 PUSH2 0x328C JUMP JUMPDEST PUSH2 0x883 JUMP JUMPDEST PUSH1 0x40 DUP1 MLOAD PUSH20 0xFFFFFFFFFFFFFFFFFFFFFFFFFFFFFFFFFFFFFFFF SWAP1 SWAP9 AND DUP9 MSTORE PUSH1 0x20 DUP9 ADD SWAP7 SWAP1 SWAP7 MSTORE SWAP5 DUP7 ADD SWAP4 SWAP1 SWAP4 MSTORE PUSH1 0x60 DUP6 ADD SWAP2 SWAP1 SWAP2 MSTORE PUSH2 0xFFFF AND PUSH1 0x80 DUP5 ADD MSTORE PUSH1 0xA0 DUP4 ADD MSTORE PUSH1 0xC0 DUP3 ADD MSTORE PUSH1 0xE0 ADD PUSH2 0x28A JUMP JUMPDEST PUSH2 0x280 PUSH1 0x9 SLOAD DUP2 JUMP JUMPDEST PUSH1 0x2 SLOAD PUSH2 0x33C SWAP1 PUSH20 0xFFFFFFFFFFFFFFFFFFFFFFFFFFFFFFFFFFFFFFFF AND DUP2 JUMP JUMPDEST PUSH1 0x40 MLOAD PUSH20 0xFFFFFFFFFFFFFFFFFFFFFFFFFFFFFFFFFFFFFFFF SWAP1 SWAP2 AND DUP2 MSTORE PUSH1 0x20 ADD PUSH2 0x28A JUMP JUMPDEST PUSH2 0x29B PUSH2 0x36F CALLDATASIZE PUSH1 0x4 PUSH2 0x33A6 JUMP JUMPDEST PUSH2 0x8ED JUMP JUMPDEST PUSH2 0x29B PUSH2 0x382 CALLDATASIZE PUSH1 0x4 PUSH2 0x3252 JUMP JUMPDEST PUSH2 0xB73 JUMP JUMPDEST PUSH2 0x280 PUSH1 0xC SLOAD DUP2 JUMP JUMPDEST PUSH2 0x3A3 PUSH2 0x39E CALLDATASIZE PUSH1 0x4 PUSH2 0x32BE JUMP JUMPDEST PUSH2 0xD4A JUMP JUMPDEST PUSH1 0x40 MLOAD SWAP1 ISZERO ISZERO DUP2 MSTORE PUSH1 0x20 ADD PUSH2 0x28A JUMP JUMPDEST PUSH1 0x4 SLOAD PUSH2 0x33C SWAP1 PUSH20 0xFFFFFFFFFFFFFFFFFFFFFFFFFFFFFFFFFFFFFFFF AND DUP2 JUMP JUMPDEST PUSH1 0x5 SLOAD PUSH2 0x33C SWAP1 PUSH20 0xFFFFFFFFFFFFFFFFFFFFFFFFFFFFFFFFFFFFFFFF AND DUP2 JUMP JUMPDEST PUSH2 0x29B PUSH2 0x401 CALLDATASIZE PUSH1 0x4 PUSH2 0x334B JUMP JUMPDEST PUSH2 0xD97 JUMP JUMPDEST PUSH2 0x280 PUSH1 0xB SLOAD DUP2 JUMP JUMPDEST PUSH2 0x280 PUSH1 0xA SLOAD DUP2 JUMP JUMPDEST PUSH2 0x29B PUSH2 0x426 CALLDATASIZE PUSH1 0x4 PUSH2 0x328C JUMP JUMPDEST PUSH2 0x1082 JUMP JUMPDEST PUSH2 0x29B PUSH2 0x439 CALLDATASIZE PUSH1 0x4 PUSH2 0x328C JUMP JUMPDEST PUSH2 0x1294 JUMP JUMPDEST PUSH1 0x3 SLOAD PUSH20 0xFFFFFFFFFFFFFFFFFFFFFFFFFFFFFFFFFFFFFFFF AND PUSH2 0x33C JUMP JUMPDEST PUSH2 0x3A3 PUSH2 0x46A CALLDATASIZE PUSH1 0x4 PUSH2 0x3252 JUMP JUMPDEST PUSH2 0x14E1 JUMP JUMPDEST PUSH2 0x29B PUSH2 0x1525 JUMP JUMPDEST PUSH2 0x29B PUSH2 0x16D5 JUMP JUMPDEST PUSH2 0x29B PUSH2 0x1700 JUMP JUMPDEST PUSH2 0x490 PUSH2 0x3E8 DUP2 JUMP JUMPDEST PUSH1 0x40 MLOAD PUSH2 0xFFFF SWAP1 SWAP2 AND DUP2 MSTORE PUSH1 0x20 ADD PUSH2 0x28A JUMP JUMPDEST PUSH2 0x29B PUSH2 0x4B1 CALLDATASIZE PUSH1 0x4 PUSH2 0x3252 JUMP JUMPDEST PUSH2 0x17C6 JUMP JUMPDEST PUSH1 0x0 SLOAD PUSH20 0xFFFFFFFFFFFFFFFFFFFFFFFFFFFFFFFFFFFFFFFF AND PUSH2 0x33C JUMP JUMPDEST PUSH2 0x280 PUSH2 0x4E2 CALLDATASIZE PUSH1 0x4 PUSH2 0x334B JUMP JUMPDEST PUSH2 0x1989 JUMP JUMPDEST PUSH2 0x527 PUSH2 0x4F5 CALLDATASIZE PUSH1 0x4 PUSH2 0x32BE JUMP JUMPDEST PUSH1 0x8 PUSH1 0x20 SWAP1 DUP2 MSTORE PUSH1 0x0 SWAP3 DUP4 MSTORE PUSH1 0x40 DUP1 DUP5 KECCAK256 SWAP1 SWAP2 MSTORE SWAP1 DUP3 MSTORE SWAP1 KECCAK256 DUP1 SLOAD PUSH1 0x1 DUP3 ADD SLOAD PUSH1 0x2 DUP4 ADD SLOAD PUSH1 0x3 SWAP1 SWAP4 ADD SLOAD SWAP2 SWAP3 SWAP1 SWAP2 DUP5 JUMP JUMPDEST PUSH1 0x40 DUP1 MLOAD SWAP5 DUP6 MSTORE PUSH1 0x20 DUP6 ADD SWAP4 SWAP1 SWAP4 MSTORE SWAP2 DUP4 ADD MSTORE PUSH1 0x60 DUP3 ADD MSTORE PUSH1 0x80 ADD PUSH2 0x28A JUMP JUMPDEST PUSH1 0xD SLOAD PUSH2 0x3A3 SWAP1 PUSH1 0xFF AND DUP2 JUMP JUMPDEST PUSH2 0x29B PUSH2 0x562 CALLDATASIZE PUSH1 0x4 PUSH2 0x32EE JUMP JUMPDEST PUSH2 0x199C JUMP JUMPDEST PUSH2 0x29B PUSH2 0x1D37 JUMP JUMPDEST PUSH2 0x280 PUSH2 0x57D CALLDATASIZE PUSH1 0x4 PUSH2 0x32BE JUMP JUMPDEST PUSH2 0x1EB2 JUMP JUMPDEST PUSH2 0x29B PUSH2 0x590 CALLDATASIZE PUSH1 0x4 PUSH2 0x336D JUMP JUMPDEST PUSH2 0x2065 JUMP JUMPDEST PUSH2 0x280 PUSH1 0x6 SLOAD DUP2 JUMP JUMPDEST PUSH2 0x29B PUSH2 0x5AC CALLDATASIZE PUSH1 0x4 PUSH2 0x3252 JUMP JUMPDEST PUSH2 0x21EB JUMP JUMPDEST PUSH2 0x280 PUSH3 0x127500 DUP2 JUMP JUMPDEST PUSH2 0x29B PUSH2 0x5C9 CALLDATASIZE PUSH1 0x4 PUSH2 0x334B JUMP JUMPDEST PUSH2 0x23AE JUMP JUMPDEST PUSH2 0x29B PUSH2 0x5DC CALLDATASIZE PUSH1 0x4 PUSH2 0x3252 JUMP JUMPDEST PUSH2 0x27F2 JUMP JUMPDEST PUSH1 0x3 SLOAD PUSH20 0xFFFFFFFFFFFFFFFFFFFFFFFFFFFFFFFFFFFFFFFF AND CALLER EQ PUSH2 0x68C JUMPI PUSH1 0x40 MLOAD PUSH32 0x8C379A000000000000000000000000000000000000000000000000000000000 DUP2 MSTORE PUSH1 0x20 PUSH1 0x4 DUP3 ADD MSTORE PUSH1 0x24 DUP1 DUP3 ADD MSTORE PUSH32 0x4F70657261746F723A2063616C6C6572206973206E6F7420746865206F706572 PUSH1 0x44 DUP3 ADD MSTORE PUSH32 0x61746F7200000000000000000000000000000000000000000000000000000000 PUSH1 0x64 DUP3 ADD MSTORE PUSH1 0x84 ADD JUMPDEST PUSH1 0x40 MLOAD DUP1 SWAP2 SUB SWAP1 REVERT JUMPDEST PUSH1 0xD SLOAD PUSH1 0xFF AND PUSH2 0x71E JUMPI PUSH1 0x40 MLOAD PUSH32 0x8C379A000000000000000000000000000000000000000000000000000000000 DUP2 MSTORE PUSH1 0x20 PUSH1 0x4 DUP3 ADD MSTORE PUSH1 0x26 PUSH1 0x24 DUP3 ADD MSTORE PUSH32 0x4D657461207472616E73616374696F6E732061726520616C7265616479206469 PUSH1 0x44 DUP3 ADD MSTORE PUSH32 0x7361626C65640000000000000000000000000000000000000000000000000000 PUSH1 0x64 DUP3 ADD MSTORE PUSH1 0x84 ADD PUSH2 0x683 JUMP JUMPDEST PUSH1 0xD DUP1 SLOAD PUSH32 0xFFFFFFFFFFFFFFFFFFFFFFFFFFFFFFFFFFFFFFFFFFFFFFFFFFFFFFFFFFFFFF00 AND SWAP1 SSTORE PUSH2 0x74E PUSH2 0x295F JUMP JUMPDEST PUSH20 0xFFFFFFFFFFFFFFFFFFFFFFFFFFFFFFFFFFFFFFFF AND PUSH32 0x96BE170CCC67847E55535E7D8334B2AFEDD95805BAEDC160005ADDB91447450 PUSH1 0x40 MLOAD PUSH1 0x40 MLOAD DUP1 SWAP2 SUB SWAP1 LOG2 JUMP JUMPDEST PUSH1 0x3 SLOAD PUSH20 0xFFFFFFFFFFFFFFFFFFFFFFFFFFFFFFFFFFFFFFFF AND CALLER EQ PUSH2 0x838 JUMPI PUSH1 0x40 MLOAD PUSH32 0x8C379A000000000000000000000000000000000000000000000000000000000 DUP2 MSTORE PUSH1 0x20 PUSH1 0x4 DUP3 ADD MSTORE PUSH1 0x24 DUP1 DUP3 ADD MSTORE PUSH32 0x4F70657261746F723A2063616C6C6572206973206E6F7420746865206F706572 PUSH1 0x44 DUP3 ADD MSTORE PUSH32 0x61746F7200000000000000000000000000000000000000000000000000000000 PUSH1 0x64 DUP3 ADD MSTORE PUSH1 0x84 ADD PUSH2 0x683 JUMP JUMPDEST PUSH2 0x840 PUSH2 0x16D5 JUMP JUMPDEST PUSH1 0x6 SLOAD PUSH1 0x40 DUP1 MLOAD SWAP2 DUP3 MSTORE PUSH1 0x20 DUP3 ADD DUP4 SWAP1 MSTORE CALLER SWAP2 PUSH32 0xEEDC6338C9C1AD8F3CD6C90DD09DBE98DBD57E610D3E59A17996D07ACB0D9511 SWAP2 ADD PUSH1 0x40 MLOAD DUP1 SWAP2 SUB SWAP1 LOG2 PUSH1 0x6 SSTORE JUMP JUMPDEST PUSH1 0x7 DUP2 DUP2 SLOAD DUP2 LT PUSH2 0x893 JUMPI PUSH1 0x0 DUP1 REVERT JUMPDEST PUSH1 0x0 SWAP2 DUP3 MSTORE PUSH1 0x20 SWAP1 SWAP2 KECCAK256 PUSH1 0x7 SWAP1 SWAP2 MUL ADD DUP1 SLOAD PUSH1 0x1 DUP3 ADD SLOAD PUSH1 0x2 DUP4 ADD SLOAD PUSH1 0x3 DUP5 ADD SLOAD PUSH1 0x4 DUP6 ADD SLOAD PUSH1 0x5 DUP7 ADD SLOAD PUSH1 0x6 SWAP1 SWAP7 ADD SLOAD PUSH20 0xFFFFFFFFFFFFFFFFFFFFFFFFFFFFFFFFFFFFFFFF SWAP1 SWAP6 AND SWAP7 POP SWAP3 SWAP5 SWAP2 SWAP4 SWAP1 SWAP3 PUSH2 0xFFFF AND SWAP2 SWAP1 DUP8 JUMP JUMPDEST PUSH2 0x8F5 PUSH2 0x295F JUMP JUMPDEST PUSH20 0xFFFFFFFFFFFFFFFFFFFFFFFFFFFFFFFFFFFFFFFF AND PUSH2 0x92A PUSH1 0x0 SLOAD PUSH20 0xFFFFFFFFFFFFFFFFFFFFFFFFFFFFFFFFFFFFFFFF AND SWAP1 JUMP JUMPDEST PUSH20 0xFFFFFFFFFFFFFFFFFFFFFFFFFFFFFFFFFFFFFFFF AND EQ PUSH2 0x9A7 JUMPI PUSH1 0x40 MLOAD PUSH32 0x8C379A000000000000000000000000000000000000000000000000000000000 DUP2 MSTORE PUSH1 0x20 PUSH1 0x4 DUP3 ADD DUP2 SWAP1 MSTORE PUSH1 0x24 DUP3 ADD MSTORE PUSH32 0x4F776E61626C653A2063616C6C6572206973206E6F7420746865206F776E6572 PUSH1 0x44 DUP3 ADD MSTORE PUSH1 0x64 ADD PUSH2 0x683 JUMP JUMPDEST PUSH2 0x3E8 PUSH2 0xFFFF DUP5 AND GT ISZERO PUSH2 0xA17 JUMPI PUSH1 0x40 MLOAD PUSH32 0x8C379A000000000000000000000000000000000000000000000000000000000 DUP2 MSTORE PUSH1 0x20 PUSH1 0x4 DUP3 ADD MSTORE PUSH1 0x19 PUSH1 0x24 DUP3 ADD MSTORE PUSH32 0x7365743A206465706F7369742066656520746F6F206869676800000000000000 PUSH1 0x44 DUP3 ADD MSTORE PUSH1 0x64 ADD PUSH2 0x683 JUMP JUMPDEST PUSH3 0x127500 DUP3 GT ISZERO PUSH2 0xA84 JUMPI PUSH1 0x40 MLOAD PUSH32 0x8C379A000000000000000000000000000000000000000000000000000000000 DUP2 MSTORE PUSH1 0x20 PUSH1 0x4 DUP3 ADD MSTORE PUSH1 0x1D PUSH1 0x24 DUP3 ADD MSTORE PUSH32 0x7365743A20696E76616C6964206861727665737420696E74657276616C000000 PUSH1 0x44 DUP3 ADD MSTORE PUSH1 0x64 ADD PUSH2 0x683 JUMP JUMPDEST DUP1 ISZERO PUSH2 0xA92 JUMPI PUSH2 0xA92 PUSH2 0x16D5 JUMP JUMPDEST PUSH2 0xAD5 DUP5 PUSH2 0xACF PUSH1 0x7 DUP9 DUP2 SLOAD DUP2 LT PUSH2 0xAAC JUMPI PUSH2 0xAAC PUSH2 0x357D JUMP JUMPDEST SWAP1 PUSH1 0x0 MSTORE PUSH1 0x20 PUSH1 0x0 KECCAK256 SWAP1 PUSH1 0x7 MUL ADD PUSH1 0x1 ADD SLOAD PUSH1 0x9 SLOAD PUSH2 0x299F SWAP1 SWAP2 SWAP1 PUSH4 0xFFFFFFFF AND JUMP JUMPDEST SWAP1 PUSH2 0x29AB JUMP JUMPDEST PUSH1 0x9 DUP2 SWAP1 SSTORE POP DUP4 PUSH1 0x7 DUP7 DUP2 SLOAD DUP2 LT PUSH2 0xAEF JUMPI PUSH2 0xAEF PUSH2 0x357D JUMP JUMPDEST SWAP1 PUSH1 0x0 MSTORE PUSH1 0x20 PUSH1 0x0 KECCAK256 SWAP1 PUSH1 0x7 MUL ADD PUSH1 0x1 ADD DUP2 SWAP1 SSTORE POP DUP3 PUSH1 0x7 DUP7 DUP2 SLOAD DUP2 LT PUSH2 0xB18 JUMPI PUSH2 0xB18 PUSH2 0x357D JUMP JUMPDEST SWAP1 PUSH1 0x0 MSTORE PUSH1 0x20 PUSH1 0x0 KECCAK256 SWAP1 PUSH1 0x7 MUL ADD PUSH1 0x4 ADD PUSH1 0x0 PUSH2 0x100 EXP DUP2 SLOAD DUP2 PUSH2 0xFFFF MUL NOT AND SWAP1 DUP4 PUSH2 0xFFFF AND MUL OR SWAP1 SSTORE POP DUP2 PUSH1 0x7 DUP7 DUP2 SLOAD DUP2 LT PUSH2 0xB57 JUMPI PUSH2 0xB57 PUSH2 0x357D JUMP JUMPDEST SWAP1 PUSH1 0x0 MSTORE PUSH1 0x20 PUSH1 0x0 KECCAK256 SWAP1 PUSH1 0x7 MUL ADD PUSH1 0x5 ADD DUP2 SWAP1 SSTORE POP POP POP POP POP POP JUMP JUMPDEST PUSH1 0x3 SLOAD PUSH20 0xFFFFFFFFFFFFFFFFFFFFFFFFFFFFFFFFFFFFFFFF AND CALLER EQ PUSH2 0xC19 JUMPI PUSH1 0x40 MLOAD PUSH32 0x8C379A000000000000000000000000000000000000000000000000000000000 DUP2 MSTORE PUSH1 0x20 PUSH1 0x4 DUP3 ADD MSTORE PUSH1 0x24 DUP1 DUP3 ADD MSTORE PUSH32 0x4F70657261746F723A2063616C6C6572206973206E6F7420746865206F706572 PUSH1 0x44 DUP3 ADD MSTORE PUSH32 0x61746F7200000000000000000000000000000000000000000000000000000000 PUSH1 0x64 DUP3 ADD MSTORE PUSH1 0x84 ADD PUSH2 0x683 JUMP JUMPDEST PUSH20 0xFFFFFFFFFFFFFFFFFFFFFFFFFFFFFFFFFFFFFFFF DUP2 AND PUSH2 0xCBC JUMPI PUSH1 0x40 MLOAD PUSH32 0x8C379A000000000000000000000000000000000000000000000000000000000 DUP2 MSTORE PUSH1 0x20 PUSH1 0x4 DUP3 ADD MSTORE PUSH1 0x32 PUSH1 0x24 DUP3 ADD MSTORE PUSH32 0x5472616E736665724F70657261746F723A206E6577206F70657261746F722069 PUSH1 0x44 DUP3 ADD MSTORE PUSH32 0x7320746865207A65726F20616464726573730000000000000000000000000000 PUSH1 0x64 DUP3 ADD MSTORE PUSH1 0x84 ADD PUSH2 0x683 JUMP JUMPDEST PUSH1 0x3 SLOAD PUSH1 0x40 MLOAD PUSH20 0xFFFFFFFFFFFFFFFFFFFFFFFFFFFFFFFFFFFFFFFF DUP1 DUP5 AND SWAP3 AND SWAP1 PUSH32 0x74DA04524D50C64947F5DD5381EF1A4DCA5CBA8ED1D816243F9E48AA0B5617ED SWAP1 PUSH1 0x0 SWAP1 LOG3 PUSH1 0x3 DUP1 SLOAD PUSH32 0xFFFFFFFFFFFFFFFFFFFFFFFF0000000000000000000000000000000000000000 AND PUSH20 0xFFFFFFFFFFFFFFFFFFFFFFFFFFFFFFFFFFFFFFFF SWAP3 SWAP1 SWAP3 AND SWAP2 SWAP1 SWAP2 OR SWAP1 SSTORE JUMP JUMPDEST PUSH1 0x0 DUP3 DUP2 MSTORE PUSH1 0x8 PUSH1 0x20 SWAP1 DUP2 MSTORE PUSH1 0x40 DUP1 DUP4 KECCAK256 PUSH20 0xFFFFFFFFFFFFFFFFFFFFFFFFFFFFFFFFFFFFFFFF DUP6 AND DUP5 MSTORE SWAP1 SWAP2 MSTORE DUP2 KECCAK256 PUSH1 0xA SLOAD NUMBER LT DUP1 ISZERO SWAP1 PUSH2 0xD8F JUMPI POP DUP1 PUSH1 0x3 ADD SLOAD TIMESTAMP LT ISZERO JUMPDEST SWAP5 SWAP4 POP POP POP POP JUMP JUMPDEST PUSH1 0x2 PUSH1 0x1 SLOAD EQ ISZERO PUSH2 0xE04 JUMPI PUSH1 0x40 MLOAD PUSH32 0x8C379A000000000000000000000000000000000000000000000000000000000 DUP2 MSTORE PUSH1 0x20 PUSH1 0x4 DUP3 ADD MSTORE PUSH1 0x1F PUSH1 0x24 DUP3 ADD MSTORE PUSH32 0x5265656E7472616E637947756172643A207265656E7472616E742063616C6C00 PUSH1 0x44 DUP3 ADD MSTORE PUSH1 0x64 ADD PUSH2 0x683 JUMP JUMPDEST PUSH1 0x2 PUSH1 0x1 DUP2 SWAP1 SSTORE POP PUSH1 0x0 PUSH1 0x7 DUP4 DUP2 SLOAD DUP2 LT PUSH2 0xE21 JUMPI PUSH2 0xE21 PUSH2 0x357D JUMP JUMPDEST PUSH1 0x0 SWAP2 DUP3 MSTORE PUSH1 0x20 DUP1 DUP4 KECCAK256 DUP7 DUP5 MSTORE PUSH1 0x8 SWAP1 SWAP2 MSTORE PUSH1 0x40 DUP4 KECCAK256 PUSH1 0x7 SWAP1 SWAP3 MUL ADD SWAP3 POP DUP2 PUSH2 0xE48 PUSH2 0x295F JUMP JUMPDEST PUSH20 0xFFFFFFFFFFFFFFFFFFFFFFFFFFFFFFFFFFFFFFFF AND PUSH20 0xFFFFFFFFFFFFFFFFFFFFFFFFFFFFFFFFFFFFFFFF AND DUP2 MSTORE PUSH1 0x20 ADD SWAP1 DUP2 MSTORE PUSH1 0x20 ADD PUSH1 0x0 KECCAK256 SWAP1 POP DUP3 DUP2 PUSH1 0x0 ADD SLOAD LT ISZERO PUSH2 0xEF2 JUMPI PUSH1 0x40 MLOAD PUSH32 0x8C379A000000000000000000000000000000000000000000000000000000000 DUP2 MSTORE PUSH1 0x20 PUSH1 0x4 DUP3 ADD DUP2 SWAP1 MSTORE PUSH1 0x24 DUP3 ADD MSTORE PUSH32 0x57697468647261773A205573657220616D6F756E74206E6F7420656E6F756768 PUSH1 0x44 DUP3 ADD MSTORE PUSH1 0x64 ADD PUSH2 0x683 JUMP JUMPDEST DUP3 DUP3 PUSH1 0x6 ADD SLOAD LT ISZERO PUSH2 0xF60 JUMPI PUSH1 0x40 MLOAD PUSH32 0x8C379A000000000000000000000000000000000000000000000000000000000 DUP2 MSTORE PUSH1 0x20 PUSH1 0x4 DUP3 ADD MSTORE PUSH1 0x1F PUSH1 0x24 DUP3 ADD MSTORE PUSH32 0x57697468647261773A20506F6F6C20746F74616C206E6F7420656E6F75676800 PUSH1 0x44 DUP3 ADD MSTORE PUSH1 0x64 ADD PUSH2 0x683 JUMP JUMPDEST PUSH2 0xF69 DUP5 PUSH2 0x1082 JUMP JUMPDEST PUSH2 0xF72 DUP5 PUSH2 0x29B7 JUMP JUMPDEST DUP3 ISZERO PUSH2 0xFFA JUMPI DUP1 SLOAD PUSH2 0xF84 SWAP1 DUP5 PUSH2 0x299F JUMP JUMPDEST DUP2 SSTORE PUSH1 0x6 DUP3 ADD SLOAD PUSH2 0xF95 SWAP1 DUP5 PUSH2 0x299F JUMP JUMPDEST PUSH1 0x6 DUP4 ADD SSTORE PUSH1 0x2 SLOAD DUP3 SLOAD PUSH20 0xFFFFFFFFFFFFFFFFFFFFFFFFFFFFFFFFFFFFFFFF SWAP1 DUP2 AND SWAP2 AND EQ ISZERO PUSH2 0xFD0 JUMPI PUSH1 0xC SLOAD PUSH2 0xFCC SWAP1 DUP5 PUSH2 0x299F JUMP JUMPDEST PUSH1 0xC SSTORE JUMPDEST PUSH2 0xFFA PUSH2 0xFDB PUSH2 0x295F JUMP JUMPDEST DUP4 SLOAD PUSH20 0xFFFFFFFFFFFFFFFFFFFFFFFFFFFFFFFFFFFFFFFF AND SWAP1 DUP6 PUSH2 0x2BAD JUMP JUMPDEST PUSH1 0x3 DUP3 ADD SLOAD DUP2 SLOAD PUSH2 0x101B SWAP2 PUSH5 0xE8D4A51000 SWAP2 PUSH2 0x1015 SWAP2 PUSH2 0x2C86 JUMP JUMPDEST SWAP1 PUSH2 0x2C92 JUMP JUMPDEST PUSH1 0x1 DUP3 ADD SSTORE DUP4 PUSH2 0x1029 PUSH2 0x295F JUMP JUMPDEST PUSH20 0xFFFFFFFFFFFFFFFFFFFFFFFFFFFFFFFFFFFFFFFF AND PUSH32 0xF279E6A1F5E320CCA91135676D9CB6E44CA8A08C0B88342BCDB1144F6511B568 DUP6 PUSH1 0x40 MLOAD PUSH2 0x1070 SWAP2 DUP2 MSTORE PUSH1 0x20 ADD SWAP1 JUMP JUMPDEST PUSH1 0x40 MLOAD DUP1 SWAP2 SUB SWAP1 LOG3 POP POP PUSH1 0x1 DUP1 SSTORE POP POP JUMP JUMPDEST PUSH1 0x0 PUSH1 0x7 DUP3 DUP2 SLOAD DUP2 LT PUSH2 0x1097 JUMPI PUSH2 0x1097 PUSH2 0x357D JUMP JUMPDEST SWAP1 PUSH1 0x0 MSTORE PUSH1 0x20 PUSH1 0x0 KECCAK256 SWAP1 PUSH1 0x7 MUL ADD SWAP1 POP DUP1 PUSH1 0x2 ADD SLOAD NUMBER GT PUSH2 0x10B6 JUMPI POP POP JUMP JUMPDEST PUSH1 0x6 DUP2 ADD SLOAD DUP1 ISZERO DUP1 PUSH2 0x10CA JUMPI POP PUSH1 0x1 DUP3 ADD SLOAD ISZERO JUMPDEST ISZERO PUSH2 0x10DA JUMPI POP NUMBER PUSH1 0x2 SWAP1 SWAP2 ADD SSTORE POP JUMP JUMPDEST PUSH1 0x0 PUSH2 0x10EA DUP4 PUSH1 0x2 ADD SLOAD NUMBER PUSH2 0x1989 JUMP JUMPDEST SWAP1 POP PUSH1 0x0 PUSH2 0x1117 PUSH1 0x9 SLOAD PUSH2 0x1015 DUP7 PUSH1 0x1 ADD SLOAD PUSH2 0x1111 PUSH1 0x6 SLOAD DUP8 PUSH2 0x2C86 SWAP1 SWAP2 SWAP1 PUSH4 0xFFFFFFFF AND JUMP JUMPDEST SWAP1 PUSH2 0x2C86 JUMP JUMPDEST PUSH1 0x2 SLOAD PUSH1 0x4 SLOAD SWAP2 SWAP3 POP PUSH20 0xFFFFFFFFFFFFFFFFFFFFFFFFFFFFFFFFFFFFFFFF SWAP1 DUP2 AND SWAP2 PUSH4 0x40C10F19 SWAP2 AND PUSH2 0x114B DUP5 PUSH1 0xA PUSH2 0x2C92 JUMP JUMPDEST PUSH1 0x40 MLOAD PUSH32 0xFFFFFFFF00000000000000000000000000000000000000000000000000000000 PUSH1 0xE0 DUP6 SWAP1 SHL AND DUP2 MSTORE PUSH20 0xFFFFFFFFFFFFFFFFFFFFFFFFFFFFFFFFFFFFFFFF SWAP1 SWAP3 AND PUSH1 0x4 DUP4 ADD MSTORE PUSH1 0x24 DUP3 ADD MSTORE PUSH1 0x44 ADD PUSH1 0x0 PUSH1 0x40 MLOAD DUP1 DUP4 SUB DUP2 PUSH1 0x0 DUP8 DUP1 EXTCODESIZE ISZERO DUP1 ISZERO PUSH2 0x11B6 JUMPI PUSH1 0x0 DUP1 REVERT JUMPDEST POP GAS CALL ISZERO DUP1 ISZERO PUSH2 0x11CA JUMPI RETURNDATASIZE PUSH1 0x0 DUP1 RETURNDATACOPY RETURNDATASIZE PUSH1 0x0 REVERT JUMPDEST POP POP PUSH1 0x2 SLOAD PUSH1 0x40 MLOAD PUSH32 0x40C10F1900000000000000000000000000000000000000000000000000000000 DUP2 MSTORE ADDRESS PUSH1 0x4 DUP3 ADD MSTORE PUSH1 0x24 DUP2 ADD DUP6 SWAP1 MSTORE PUSH20 0xFFFFFFFFFFFFFFFFFFFFFFFFFFFFFFFFFFFFFFFF SWAP1 SWAP2 AND SWAP3 POP PUSH4 0x40C10F19 SWAP2 POP PUSH1 0x44 ADD PUSH1 0x0 PUSH1 0x40 MLOAD DUP1 DUP4 SUB DUP2 PUSH1 0x0 DUP8 DUP1 EXTCODESIZE ISZERO DUP1 ISZERO PUSH2 0x1240 JUMPI PUSH1 0x0 DUP1 REVERT JUMPDEST POP GAS CALL ISZERO DUP1 ISZERO PUSH2 0x1254 JUMPI RETURNDATASIZE PUSH1 0x0 DUP1 RETURNDATACOPY RETURNDATASIZE PUSH1 0x0 REVERT JUMPDEST POP POP POP PUSH1 0x6 DUP6 ADD SLOAD PUSH2 0x127F SWAP2 POP PUSH2 0x1274 SWAP1 PUSH2 0x1015 DUP5 PUSH5 0xE8D4A51000 PUSH2 0x2C86 JUMP JUMPDEST PUSH1 0x3 DUP7 ADD SLOAD SWAP1 PUSH2 0x29AB JUMP JUMPDEST PUSH1 0x3 DUP6 ADD SSTORE POP POP NUMBER PUSH1 0x2 SWAP1 SWAP3 ADD SWAP2 SWAP1 SWAP2 SSTORE POP POP JUMP JUMPDEST PUSH1 0x2 PUSH1 0x1 SLOAD EQ ISZERO PUSH2 0x1301 JUMPI PUSH1 0x40 MLOAD PUSH32 0x8C379A000000000000000000000000000000000000000000000000000000000 DUP2 MSTORE PUSH1 0x20 PUSH1 0x4 DUP3 ADD MSTORE PUSH1 0x1F PUSH1 0x24 DUP3 ADD MSTORE PUSH32 0x5265656E7472616E637947756172643A207265656E7472616E742063616C6C00 PUSH1 0x44 DUP3 ADD MSTORE PUSH1 0x64 ADD PUSH2 0x683 JUMP JUMPDEST PUSH1 0x2 PUSH1 0x1 DUP2 SWAP1 SSTORE POP PUSH1 0x0 PUSH1 0x7 DUP3 DUP2 SLOAD DUP2 LT PUSH2 0x131E JUMPI PUSH2 0x131E PUSH2 0x357D JUMP JUMPDEST PUSH1 0x0 SWAP2 DUP3 MSTORE PUSH1 0x20 DUP1 DUP4 KECCAK256 DUP6 DUP5 MSTORE PUSH1 0x8 SWAP1 SWAP2 MSTORE PUSH1 0x40 DUP4 KECCAK256 PUSH1 0x7 SWAP1 SWAP3 MUL ADD SWAP3 POP DUP2 PUSH2 0x1345 PUSH2 0x295F JUMP JUMPDEST PUSH20 0xFFFFFFFFFFFFFFFFFFFFFFFFFFFFFFFFFFFFFFFF AND DUP2 MSTORE PUSH1 0x20 DUP2 ADD SWAP2 SWAP1 SWAP2 MSTORE PUSH1 0x40 ADD PUSH1 0x0 KECCAK256 DUP1 SLOAD PUSH1 0x6 DUP5 ADD SLOAD SWAP2 SWAP3 POP SWAP1 DUP2 GT ISZERO PUSH2 0x1405 JUMPI PUSH1 0x40 MLOAD PUSH32 0x8C379A000000000000000000000000000000000000000000000000000000000 DUP2 MSTORE PUSH1 0x20 PUSH1 0x4 DUP3 ADD MSTORE PUSH1 0x28 PUSH1 0x24 DUP3 ADD MSTORE PUSH32 0x456D657267656E637957697468647261773A20506F6F6C20746F74616C206E6F PUSH1 0x44 DUP3 ADD MSTORE PUSH32 0x7420656E6F756768000000000000000000000000000000000000000000000000 PUSH1 0x64 DUP3 ADD MSTORE PUSH1 0x84 ADD PUSH2 0x683 JUMP JUMPDEST PUSH1 0x0 DUP1 DUP4 SSTORE PUSH1 0x1 DUP4 ADD DUP2 SWAP1 SSTORE PUSH1 0x2 DUP4 ADD DUP2 SWAP1 SSTORE PUSH1 0x3 DUP4 ADD SSTORE PUSH1 0x6 DUP4 ADD SLOAD PUSH2 0x142C SWAP1 DUP3 PUSH2 0x299F JUMP JUMPDEST PUSH1 0x6 DUP5 ADD SSTORE PUSH1 0x2 SLOAD DUP4 SLOAD PUSH20 0xFFFFFFFFFFFFFFFFFFFFFFFFFFFFFFFFFFFFFFFF SWAP1 DUP2 AND SWAP2 AND EQ ISZERO PUSH2 0x1467 JUMPI PUSH1 0xC SLOAD PUSH2 0x1463 SWAP1 DUP3 PUSH2 0x299F JUMP JUMPDEST PUSH1 0xC SSTORE JUMPDEST PUSH2 0x1491 PUSH2 0x1472 PUSH2 0x295F JUMP JUMPDEST DUP5 SLOAD PUSH20 0xFFFFFFFFFFFFFFFFFFFFFFFFFFFFFFFFFFFFFFFF AND SWAP1 DUP4 PUSH2 0x2BAD JUMP JUMPDEST DUP4 PUSH2 0x149A PUSH2 0x295F JUMP JUMPDEST PUSH20 0xFFFFFFFFFFFFFFFFFFFFFFFFFFFFFFFFFFFFFFFF AND PUSH32 0xBB757047C2B5F3974FE26B7C10F732E7BCE710B0952A71082702781E62AE0595 DUP4 PUSH1 0x40 MLOAD PUSH2 0x1070 SWAP2 DUP2 MSTORE PUSH1 0x20 ADD SWAP1 JUMP JUMPDEST PUSH1 0xD SLOAD PUSH1 0x0 SWAP1 PUSH1 0xFF AND DUP1 ISZERO PUSH2 0x151F JUMPI POP PUSH20 0xFFFFFFFFFFFFFFFFFFFFFFFFFFFFFFFFFFFFFFFF DUP3 AND PUSH20 0xD998DDA948C62A4FECA7355E46D6B801A1AEDD6 EQ JUMPDEST SWAP3 SWAP2 POP POP JUMP JUMPDEST PUSH1 0x3 SLOAD PUSH20 0xFFFFFFFFFFFFFFFFFFFFFFFFFFFFFFFFFFFFFFFF AND CALLER EQ PUSH2 0x15CB JUMPI PUSH1 0x40 MLOAD PUSH32 0x8C379A000000000000000000000000000000000000000000000000000000000 DUP2 MSTORE PUSH1 0x20 PUSH1 0x4 DUP3 ADD MSTORE PUSH1 0x24 DUP1 DUP3 ADD MSTORE PUSH32 0x4F70657261746F723A2063616C6C6572206973206E6F7420746865206F706572 PUSH1 0x44 DUP3 ADD MSTORE PUSH32 0x61746F7200000000000000000000000000000000000000000000000000000000 PUSH1 0x64 DUP3 ADD MSTORE PUSH1 0x84 ADD PUSH2 0x683 JUMP JUMPDEST PUSH1 0xD SLOAD PUSH1 0xFF AND ISZERO PUSH2 0x165E JUMPI PUSH1 0x40 MLOAD PUSH32 0x8C379A000000000000000000000000000000000000000000000000000000000 DUP2 MSTORE PUSH1 0x20 PUSH1 0x4 DUP3 ADD MSTORE PUSH1 0x25 PUSH1 0x24 DUP3 ADD MSTORE PUSH32 0x4D657461207472616E73616374696F6E732061726520616C726561647920656E PUSH1 0x44 DUP3 ADD MSTORE PUSH32 0x61626C6564000000000000000000000000000000000000000000000000000000 PUSH1 0x64 DUP3 ADD MSTORE PUSH1 0x84 ADD PUSH2 0x683 JUMP JUMPDEST PUSH1 0xD DUP1 SLOAD PUSH32 0xFFFFFFFFFFFFFFFFFFFFFFFFFFFFFFFFFFFFFFFFFFFFFFFFFFFFFFFFFFFFFF00 AND PUSH1 0x1 OR SWAP1 SSTORE PUSH2 0x1691 PUSH2 0x295F JUMP JUMPDEST PUSH20 0xFFFFFFFFFFFFFFFFFFFFFFFFFFFFFFFFFFFFFFFF AND PUSH32 0x92E4C08D47B71E8DC051232B8E475EC296489A67A4BA5CCA88FF20FB6AC499E6 PUSH1 0x40 MLOAD PUSH1 0x40 MLOAD DUP1 SWAP2 SUB SWAP1 LOG2 JUMP JUMPDEST PUSH1 0x7 SLOAD PUSH1 0x0 JUMPDEST DUP2 DUP2 LT ISZERO PUSH2 0x16FC JUMPI PUSH2 0x16EC DUP2 PUSH2 0x1082 JUMP JUMPDEST PUSH2 0x16F5 DUP2 PUSH2 0x3515 JUMP JUMPDEST SWAP1 POP PUSH2 0x16DB JUMP JUMPDEST POP POP JUMP JUMPDEST PUSH2 0x1708 PUSH2 0x295F JUMP JUMPDEST PUSH20 0xFFFFFFFFFFFFFFFFFFFFFFFFFFFFFFFFFFFFFFFF AND PUSH2 0x173D PUSH1 0x0 SLOAD PUSH20 0xFFFFFFFFFFFFFFFFFFFFFFFFFFFFFFFFFFFFFFFF AND SWAP1 JUMP JUMPDEST PUSH20 0xFFFFFFFFFFFFFFFFFFFFFFFFFFFFFFFFFFFFFFFF AND EQ PUSH2 0x17BA JUMPI PUSH1 0x40 MLOAD PUSH32 0x8C379A000000000000000000000000000000000000000000000000000000000 DUP2 MSTORE PUSH1 0x20 PUSH1 0x4 DUP3 ADD DUP2 SWAP1 MSTORE PUSH1 0x24 DUP3 ADD MSTORE PUSH32 0x4F776E61626C653A2063616C6C6572206973206E6F7420746865206F776E6572 PUSH1 0x44 DUP3 ADD MSTORE PUSH1 0x64 ADD PUSH2 0x683 JUMP JUMPDEST PUSH2 0x17C4 PUSH1 0x0 PUSH2 0x2C9E JUMP JUMPDEST JUMP JUMPDEST PUSH1 0x5 SLOAD PUSH20 0xFFFFFFFFFFFFFFFFFFFFFFFFFFFFFFFFFFFFFFFF AND PUSH2 0x17E7 PUSH2 0x295F JUMP JUMPDEST PUSH20 0xFFFFFFFFFFFFFFFFFFFFFFFFFFFFFFFFFFFFFFFF AND EQ PUSH2 0x1864 JUMPI PUSH1 0x40 MLOAD PUSH32 0x8C379A000000000000000000000000000000000000000000000000000000000 DUP2 MSTORE PUSH1 0x20 PUSH1 0x4 DUP3 ADD MSTORE PUSH1 0x18 PUSH1 0x24 DUP3 ADD MSTORE PUSH32 0x736574466565416464726573733A20464F5242494444454E0000000000000000 PUSH1 0x44 DUP3 ADD MSTORE PUSH1 0x64 ADD PUSH2 0x683 JUMP JUMPDEST PUSH20 0xFFFFFFFFFFFFFFFFFFFFFFFFFFFFFFFFFFFFFFFF DUP2 AND PUSH2 0x18E1 JUMPI PUSH1 0x40 MLOAD PUSH32 0x8C379A000000000000000000000000000000000000000000000000000000000 DUP2 MSTORE PUSH1 0x20 PUSH1 0x4 DUP3 ADD MSTORE PUSH1 0x13 PUSH1 0x24 DUP3 ADD MSTORE PUSH32 0x736574466565416464726573733A205A45524F00000000000000000000000000 PUSH1 0x44 DUP3 ADD MSTORE PUSH1 0x64 ADD PUSH2 0x683 JUMP JUMPDEST PUSH2 0x18E9 PUSH2 0x295F JUMP JUMPDEST PUSH1 0x5 SLOAD PUSH1 0x40 DUP1 MLOAD PUSH20 0xFFFFFFFFFFFFFFFFFFFFFFFFFFFFFFFFFFFFFFFF SWAP3 DUP4 AND DUP2 MSTORE DUP5 DUP4 AND PUSH1 0x20 DUP3 ADD MSTORE SWAP3 SWAP1 SWAP2 AND SWAP2 PUSH32 0x6690A53895B5691C039238B384BD857E65C42ADCC727775381E02CB90A122613 SWAP2 ADD PUSH1 0x40 MLOAD DUP1 SWAP2 SUB SWAP1 LOG2 PUSH1 0x5 DUP1 SLOAD PUSH32 0xFFFFFFFFFFFFFFFFFFFFFFFF0000000000000000000000000000000000000000 AND PUSH20 0xFFFFFFFFFFFFFFFFFFFFFFFFFFFFFFFFFFFFFFFF SWAP3 SWAP1 SWAP3 AND SWAP2 SWAP1 SWAP2 OR SWAP1 SSTORE JUMP JUMPDEST PUSH1 0x0 PUSH2 0x1995 DUP3 DUP5 PUSH2 0x299F JUMP JUMPDEST SWAP4 SWAP3 POP POP POP JUMP JUMPDEST PUSH2 0x19A4 PUSH2 0x295F JUMP JUMPDEST PUSH20 0xFFFFFFFFFFFFFFFFFFFFFFFFFFFFFFFFFFFFFFFF AND PUSH2 0x19D9 PUSH1 0x0 SLOAD PUSH20 0xFFFFFFFFFFFFFFFFFFFFFFFFFFFFFFFFFFFFFFFF AND SWAP1 JUMP JUMPDEST PUSH20 0xFFFFFFFFFFFFFFFFFFFFFFFFFFFFFFFFFFFFFFFF AND EQ PUSH2 0x1A56 JUMPI PUSH1 0x40 MLOAD PUSH32 0x8C379A000000000000000000000000000000000000000000000000000000000 DUP2 MSTORE PUSH1 0x20 PUSH1 0x4 DUP3 ADD DUP2 SWAP1 MSTORE PUSH1 0x24 DUP3 ADD MSTORE PUSH32 0x4F776E61626C653A2063616C6C6572206973206E6F7420746865206F776E6572 PUSH1 0x44 DUP3 ADD MSTORE PUSH1 0x64 ADD PUSH2 0x683 JUMP JUMPDEST PUSH2 0x3E8 PUSH2 0xFFFF DUP5 AND GT ISZERO PUSH2 0x1AC6 JUMPI PUSH1 0x40 MLOAD PUSH32 0x8C379A000000000000000000000000000000000000000000000000000000000 DUP2 MSTORE PUSH1 0x20 PUSH1 0x4 DUP3 ADD MSTORE PUSH1 0x19 PUSH1 0x24 DUP3 ADD MSTORE PUSH32 0x6164643A206465706F7369742066656520746F6F206869676800000000000000 PUSH1 0x44 DUP3 ADD MSTORE PUSH1 0x64 ADD PUSH2 0x683 JUMP JUMPDEST PUSH3 0x127500 DUP3 GT ISZERO PUSH2 0x1B33 JUMPI PUSH1 0x40 MLOAD PUSH32 0x8C379A000000000000000000000000000000000000000000000000000000000 DUP2 MSTORE PUSH1 0x20 PUSH1 0x4 DUP3 ADD MSTORE PUSH1 0x1D PUSH1 0x24 DUP3 ADD MSTORE PUSH32 0x6164643A20696E76616C6964206861727665737420696E74657276616C000000 PUSH1 0x44 DUP3 ADD MSTORE PUSH1 0x64 ADD PUSH2 0x683 JUMP JUMPDEST DUP1 ISZERO PUSH2 0x1B41 JUMPI PUSH2 0x1B41 PUSH2 0x16D5 JUMP JUMPDEST PUSH1 0x0 PUSH1 0xA SLOAD NUMBER GT PUSH2 0x1B54 JUMPI PUSH1 0xA SLOAD PUSH2 0x1B56 JUMP JUMPDEST NUMBER JUMPDEST PUSH1 0x9 SLOAD SWAP1 SWAP2 POP PUSH2 0x1B66 SWAP1 DUP8 PUSH2 0x29AB JUMP JUMPDEST PUSH1 0x9 SSTORE PUSH1 0x40 DUP1 MLOAD PUSH1 0xE0 DUP2 ADD DUP3 MSTORE PUSH20 0xFFFFFFFFFFFFFFFFFFFFFFFFFFFFFFFFFFFFFFFF SWAP7 DUP8 AND DUP2 MSTORE PUSH1 0x20 DUP2 ADD SWAP8 DUP9 MSTORE SWAP1 DUP2 ADD SWAP2 DUP3 MSTORE PUSH1 0x0 PUSH1 0x60 DUP3 ADD DUP2 DUP2 MSTORE PUSH2 0xFFFF SWAP7 DUP8 AND PUSH1 0x80 DUP5 ADD SWAP1 DUP2 MSTORE PUSH1 0xA0 DUP5 ADD SWAP7 DUP8 MSTORE PUSH1 0xC0 DUP5 ADD DUP4 DUP2 MSTORE PUSH1 0x7 DUP1 SLOAD PUSH1 0x1 DUP2 ADD DUP3 SSTORE SWAP5 DUP2 SWAP1 MSTORE SWAP5 MLOAD PUSH32 0xA66CC928B5EDB82AF9BD49922954155AB7B0942694BEA4CE44661D9A8736C688 SWAP5 SWAP1 SWAP6 MUL SWAP4 DUP5 ADD DUP1 SLOAD PUSH32 0xFFFFFFFFFFFFFFFFFFFFFFFF0000000000000000000000000000000000000000 AND SWAP6 SWAP1 SWAP11 AND SWAP5 SWAP1 SWAP5 OR SWAP1 SWAP9 SSTORE SWAP8 MLOAD PUSH32 0xA66CC928B5EDB82AF9BD49922954155AB7B0942694BEA4CE44661D9A8736C689 DUP3 ADD SSTORE SWAP2 MLOAD PUSH32 0xA66CC928B5EDB82AF9BD49922954155AB7B0942694BEA4CE44661D9A8736C68A DUP4 ADD SSTORE SWAP6 MLOAD PUSH32 0xA66CC928B5EDB82AF9BD49922954155AB7B0942694BEA4CE44661D9A8736C68B DUP3 ADD SSTORE SWAP4 MLOAD PUSH32 0xA66CC928B5EDB82AF9BD49922954155AB7B0942694BEA4CE44661D9A8736C68C DUP6 ADD DUP1 SLOAD PUSH32 0xFFFFFFFFFFFFFFFFFFFFFFFFFFFFFFFFFFFFFFFFFFFFFFFFFFFFFFFFFFFF0000 AND SWAP2 SWAP1 SWAP5 AND OR SWAP1 SWAP3 SSTORE MLOAD PUSH32 0xA66CC928B5EDB82AF9BD49922954155AB7B0942694BEA4CE44661D9A8736C68D DUP4 ADD SSTORE POP SWAP1 MLOAD PUSH32 0xA66CC928B5EDB82AF9BD49922954155AB7B0942694BEA4CE44661D9A8736C68E SWAP1 SWAP2 ADD SSTORE JUMP JUMPDEST PUSH2 0x1D3F PUSH2 0x295F JUMP JUMPDEST PUSH20 0xFFFFFFFFFFFFFFFFFFFFFFFFFFFFFFFFFFFFFFFF AND PUSH2 0x1D74 PUSH1 0x0 SLOAD PUSH20 0xFFFFFFFFFFFFFFFFFFFFFFFFFFFFFFFFFFFFFFFF AND SWAP1 JUMP JUMPDEST PUSH20 0xFFFFFFFFFFFFFFFFFFFFFFFFFFFFFFFFFFFFFFFF AND EQ PUSH2 0x1DF1 JUMPI PUSH1 0x40 MLOAD PUSH32 0x8C379A000000000000000000000000000000000000000000000000000000000 DUP2 MSTORE PUSH1 0x20 PUSH1 0x4 DUP3 ADD DUP2 SWAP1 MSTORE PUSH1 0x24 DUP3 ADD MSTORE PUSH32 0x4F776E61626C653A2063616C6C6572206973206E6F7420746865206F776E6572 PUSH1 0x44 DUP3 ADD MSTORE PUSH1 0x64 ADD PUSH2 0x683 JUMP JUMPDEST PUSH1 0xA SLOAD NUMBER LT PUSH2 0x1E5C JUMPI PUSH1 0x40 MLOAD PUSH32 0x8C379A000000000000000000000000000000000000000000000000000000000 DUP2 MSTORE PUSH1 0x20 PUSH1 0x4 DUP3 ADD MSTORE PUSH1 0x1B PUSH1 0x24 DUP3 ADD MSTORE PUSH32 0x4572726F723A3A4661726D207374617274656420616C72656164790000000000 PUSH1 0x44 DUP3 ADD MSTORE PUSH1 0x64 ADD PUSH2 0x683 JUMP JUMPDEST PUSH1 0x7 SLOAD PUSH1 0x0 JUMPDEST DUP2 DUP2 LT ISZERO PUSH2 0x1EAA JUMPI PUSH1 0x0 PUSH1 0x7 DUP3 DUP2 SLOAD DUP2 LT PUSH2 0x1E7F JUMPI PUSH2 0x1E7F PUSH2 0x357D JUMP JUMPDEST SWAP1 PUSH1 0x0 MSTORE PUSH1 0x20 PUSH1 0x0 KECCAK256 SWAP1 PUSH1 0x7 MUL ADD SWAP1 POP NUMBER DUP2 PUSH1 0x2 ADD DUP2 SWAP1 SSTORE POP POP DUP1 PUSH2 0x1EA3 SWAP1 PUSH2 0x3515 JUMP JUMPDEST SWAP1 POP PUSH2 0x1E62 JUMP JUMPDEST POP POP NUMBER PUSH1 0xA SSTORE JUMP JUMPDEST PUSH1 0x0 DUP1 PUSH1 0x7 DUP5 DUP2 SLOAD DUP2 LT PUSH2 0x1EC8 JUMPI PUSH2 0x1EC8 PUSH2 0x357D JUMP JUMPDEST PUSH1 0x0 SWAP2 DUP3 MSTORE PUSH1 0x20 DUP1 DUP4 KECCAK256 DUP8 DUP5 MSTORE PUSH1 0x8 DUP3 MSTORE PUSH1 0x40 DUP1 DUP6 KECCAK256 PUSH20 0xFFFFFFFFFFFFFFFFFFFFFFFFFFFFFFFFFFFFFFFF DUP10 DUP2 AND DUP8 MSTORE SWAP4 MSTORE DUP1 DUP6 KECCAK256 PUSH1 0x7 SWAP5 SWAP1 SWAP5 MUL SWAP1 SWAP2 ADD PUSH1 0x3 DUP2 ADD SLOAD DUP2 SLOAD SWAP3 MLOAD PUSH32 0x70A0823100000000000000000000000000000000000000000000000000000000 DUP2 MSTORE ADDRESS PUSH1 0x4 DUP3 ADD MSTORE SWAP2 SWAP7 POP SWAP4 SWAP5 SWAP3 SWAP2 SWAP1 SWAP2 AND SWAP1 PUSH4 0x70A08231 SWAP1 PUSH1 0x24 ADD PUSH1 0x20 PUSH1 0x40 MLOAD DUP1 DUP4 SUB DUP2 DUP7 DUP1 EXTCODESIZE ISZERO DUP1 ISZERO PUSH2 0x1F64 JUMPI PUSH1 0x0 DUP1 REVERT JUMPDEST POP GAS STATICCALL ISZERO DUP1 ISZERO PUSH2 0x1F78 JUMPI RETURNDATASIZE PUSH1 0x0 DUP1 RETURNDATACOPY RETURNDATASIZE PUSH1 0x0 REVERT JUMPDEST POP POP POP POP PUSH1 0x40 MLOAD RETURNDATASIZE PUSH1 0x1F NOT PUSH1 0x1F DUP3 ADD AND DUP3 ADD DUP1 PUSH1 0x40 MSTORE POP DUP2 ADD SWAP1 PUSH2 0x1F9C SWAP2 SWAP1 PUSH2 0x32A5 JUMP JUMPDEST SWAP1 POP DUP4 PUSH1 0x2 ADD SLOAD NUMBER GT DUP1 ISZERO PUSH2 0x1FB0 JUMPI POP DUP1 ISZERO ISZERO JUMPDEST ISZERO PUSH2 0x2010 JUMPI PUSH1 0x0 PUSH2 0x1FC5 DUP6 PUSH1 0x2 ADD SLOAD NUMBER PUSH2 0x1989 JUMP JUMPDEST SWAP1 POP PUSH1 0x0 PUSH2 0x1FEC PUSH1 0x9 SLOAD PUSH2 0x1015 DUP9 PUSH1 0x1 ADD SLOAD PUSH2 0x1111 PUSH1 0x6 SLOAD DUP8 PUSH2 0x2C86 SWAP1 SWAP2 SWAP1 PUSH4 0xFFFFFFFF AND JUMP JUMPDEST SWAP1 POP PUSH2 0x200B PUSH2 0x2004 DUP5 PUSH2 0x1015 DUP5 PUSH5 0xE8D4A51000 PUSH2 0x2C86 JUMP JUMPDEST DUP6 SWAP1 PUSH2 0x29AB JUMP JUMPDEST SWAP4 POP POP POP JUMPDEST PUSH1 0x0 PUSH2 0x2040 DUP5 PUSH1 0x1 ADD SLOAD PUSH2 0x203A PUSH5 0xE8D4A51000 PUSH2 0x1015 DUP8 DUP10 PUSH1 0x0 ADD SLOAD PUSH2 0x2C86 SWAP1 SWAP2 SWAP1 PUSH4 0xFFFFFFFF AND JUMP JUMPDEST SWAP1 PUSH2 0x299F JUMP JUMPDEST SWAP1 POP PUSH2 0x2059 DUP5 PUSH1 0x2 ADD SLOAD DUP3 PUSH2 0x29AB SWAP1 SWAP2 SWAP1 PUSH4 0xFFFFFFFF AND JUMP JUMPDEST SWAP9 SWAP8 POP POP POP POP POP POP POP POP JUMP JUMPDEST PUSH1 0x3 SLOAD PUSH20 0xFFFFFFFFFFFFFFFFFFFFFFFFFFFFFFFFFFFFFFFF AND CALLER EQ PUSH2 0x210B JUMPI PUSH1 0x40 MLOAD PUSH32 0x8C379A000000000000000000000000000000000000000000000000000000000 DUP2 MSTORE PUSH1 0x20 PUSH1 0x4 DUP3 ADD MSTORE PUSH1 0x24 DUP1 DUP3 ADD MSTORE PUSH32 0x4F70657261746F723A2063616C6C6572206973206E6F7420746865206F706572 PUSH1 0x44 DUP3 ADD MSTORE PUSH32 0x61746F7200000000000000000000000000000000000000000000000000000000 PUSH1 0x64 DUP3 ADD MSTORE PUSH1 0x84 ADD PUSH2 0x683 JUMP JUMPDEST DUP1 ISZERO PUSH2 0x2119 JUMPI PUSH2 0x2119 PUSH2 0x16D5 JUMP JUMPDEST PUSH2 0x2121 PUSH2 0x295F JUMP JUMPDEST PUSH20 0xFFFFFFFFFFFFFFFFFFFFFFFFFFFFFFFFFFFFFFFF AND PUSH32 0x802633C8D26237616D81BDAC01BC40FCDF36E098832601582EC19D7E431C5EF3 PUSH1 0x7 DUP6 DUP2 SLOAD DUP2 LT PUSH2 0x216B JUMPI PUSH2 0x216B PUSH2 0x357D JUMP JUMPDEST SWAP1 PUSH1 0x0 MSTORE PUSH1 0x20 PUSH1 0x0 KECCAK256 SWAP1 PUSH1 0x7 MUL ADD PUSH1 0x1 ADD SLOAD DUP5 PUSH1 0x40 MLOAD PUSH2 0x2195 SWAP3 SWAP2 SWAP1 SWAP2 DUP3 MSTORE PUSH1 0x20 DUP3 ADD MSTORE PUSH1 0x40 ADD SWAP1 JUMP JUMPDEST PUSH1 0x40 MLOAD DUP1 SWAP2 SUB SWAP1 LOG2 PUSH2 0x21B7 DUP3 PUSH2 0xACF PUSH1 0x7 DUP7 DUP2 SLOAD DUP2 LT PUSH2 0xAAC JUMPI PUSH2 0xAAC PUSH2 0x357D JUMP JUMPDEST PUSH1 0x9 DUP2 SWAP1 SSTORE POP DUP2 PUSH1 0x7 DUP5 DUP2 SLOAD DUP2 LT PUSH2 0x21D1 JUMPI PUSH2 0x21D1 PUSH2 0x357D JUMP JUMPDEST SWAP1 PUSH1 0x0 MSTORE PUSH1 0x20 PUSH1 0x0 KECCAK256 SWAP1 PUSH1 0x7 MUL ADD PUSH1 0x1 ADD DUP2 SWAP1 SSTORE POP POP POP POP JUMP JUMPDEST PUSH1 0x4 SLOAD PUSH20 0xFFFFFFFFFFFFFFFFFFFFFFFFFFFFFFFFFFFFFFFF AND PUSH2 0x220C PUSH2 0x295F JUMP JUMPDEST PUSH20 0xFFFFFFFFFFFFFFFFFFFFFFFFFFFFFFFFFFFFFFFF AND EQ PUSH2 0x2289 JUMPI PUSH1 0x40 MLOAD PUSH32 0x8C379A000000000000000000000000000000000000000000000000000000000 DUP2 MSTORE PUSH1 0x20 PUSH1 0x4 DUP3 ADD MSTORE PUSH1 0x18 PUSH1 0x24 DUP3 ADD MSTORE PUSH32 0x736574446576416464726573733A20464F5242494444454E0000000000000000 PUSH1 0x44 DUP3 ADD MSTORE PUSH1 0x64 ADD PUSH2 0x683 JUMP JUMPDEST PUSH20 0xFFFFFFFFFFFFFFFFFFFFFFFFFFFFFFFFFFFFFFFF DUP2 AND PUSH2 0x2306 JUMPI PUSH1 0x40 MLOAD PUSH32 0x8C379A000000000000000000000000000000000000000000000000000000000 DUP2 MSTORE PUSH1 0x20 PUSH1 0x4 DUP3 ADD MSTORE PUSH1 0x13 PUSH1 0x24 DUP3 ADD MSTORE PUSH32 0x736574446576416464726573733A205A45524F00000000000000000000000000 PUSH1 0x44 DUP3 ADD MSTORE PUSH1 0x64 ADD PUSH2 0x683 JUMP JUMPDEST PUSH2 0x230E PUSH2 0x295F JUMP JUMPDEST PUSH1 0x4 SLOAD PUSH1 0x40 DUP1 MLOAD PUSH20 0xFFFFFFFFFFFFFFFFFFFFFFFFFFFFFFFFFFFFFFFF SWAP3 DUP4 AND DUP2 MSTORE DUP5 DUP4 AND PUSH1 0x20 DUP3 ADD MSTORE SWAP3 SWAP1 SWAP2 AND SWAP2 PUSH32 0xD36D63F6C513A911D7912853DE740AF476B0FBB569AA769E1A4F5BFA37A325C4 SWAP2 ADD PUSH1 0x40 MLOAD DUP1 SWAP2 SUB SWAP1 LOG2 PUSH1 0x4 DUP1 SLOAD PUSH32 0xFFFFFFFFFFFFFFFFFFFFFFFF0000000000000000000000000000000000000000 AND PUSH20 0xFFFFFFFFFFFFFFFFFFFFFFFFFFFFFFFFFFFFFFFF SWAP3 SWAP1 SWAP3 AND SWAP2 SWAP1 SWAP2 OR SWAP1 SSTORE JUMP JUMPDEST PUSH1 0x2 PUSH1 0x1 SLOAD EQ ISZERO PUSH2 0x241B JUMPI PUSH1 0x40 MLOAD PUSH32 0x8C379A000000000000000000000000000000000000000000000000000000000 DUP2 MSTORE PUSH1 0x20 PUSH1 0x4 DUP3 ADD MSTORE PUSH1 0x1F PUSH1 0x24 DUP3 ADD MSTORE PUSH32 0x5265656E7472616E637947756172643A207265656E7472616E742063616C6C00 PUSH1 0x44 DUP3 ADD MSTORE PUSH1 0x64 ADD PUSH2 0x683 JUMP JUMPDEST PUSH1 0x2 PUSH1 0x1 SSTORE PUSH1 0xA SLOAD NUMBER LT ISZERO PUSH2 0x24B2 JUMPI PUSH1 0x40 MLOAD PUSH32 0x8C379A000000000000000000000000000000000000000000000000000000000 DUP2 MSTORE PUSH1 0x20 PUSH1 0x4 DUP3 ADD MSTORE PUSH1 0x2E PUSH1 0x24 DUP3 ADD MSTORE PUSH32 0x456D6265724469737472696275746F723A2043616E206E6F74206465706F7369 PUSH1 0x44 DUP3 ADD MSTORE PUSH32 0x74206265666F7265207374617274000000000000000000000000000000000000 PUSH1 0x64 DUP3 ADD MSTORE PUSH1 0x84 ADD PUSH2 0x683 JUMP JUMPDEST PUSH1 0x0 PUSH1 0x7 DUP4 DUP2 SLOAD DUP2 LT PUSH2 0x24C7 JUMPI PUSH2 0x24C7 PUSH2 0x357D JUMP JUMPDEST PUSH1 0x0 SWAP2 DUP3 MSTORE PUSH1 0x20 DUP1 DUP4 KECCAK256 DUP7 DUP5 MSTORE PUSH1 0x8 SWAP1 SWAP2 MSTORE PUSH1 0x40 DUP4 KECCAK256 PUSH1 0x7 SWAP1 SWAP3 MUL ADD SWAP3 POP DUP2 PUSH2 0x24EE PUSH2 0x295F JUMP JUMPDEST PUSH20 0xFFFFFFFFFFFFFFFFFFFFFFFFFFFFFFFFFFFFFFFF AND PUSH20 0xFFFFFFFFFFFFFFFFFFFFFFFFFFFFFFFFFFFFFFFF AND DUP2 MSTORE PUSH1 0x20 ADD SWAP1 DUP2 MSTORE PUSH1 0x20 ADD PUSH1 0x0 KECCAK256 SWAP1 POP PUSH2 0x2533 DUP5 PUSH2 0x1082 JUMP JUMPDEST PUSH2 0x253C DUP5 PUSH2 0x29B7 JUMP JUMPDEST DUP3 ISZERO PUSH2 0x2782 JUMPI DUP2 SLOAD PUSH1 0x40 MLOAD PUSH32 0x70A0823100000000000000000000000000000000000000000000000000000000 DUP2 MSTORE ADDRESS PUSH1 0x4 DUP3 ADD MSTORE PUSH1 0x0 SWAP2 PUSH20 0xFFFFFFFFFFFFFFFFFFFFFFFFFFFFFFFFFFFFFFFF AND SWAP1 PUSH4 0x70A08231 SWAP1 PUSH1 0x24 ADD PUSH1 0x20 PUSH1 0x40 MLOAD DUP1 DUP4 SUB DUP2 DUP7 DUP1 EXTCODESIZE ISZERO DUP1 ISZERO PUSH2 0x25AB JUMPI PUSH1 0x0 DUP1 REVERT JUMPDEST POP GAS STATICCALL ISZERO DUP1 ISZERO PUSH2 0x25BF JUMPI RETURNDATASIZE PUSH1 0x0 DUP1 RETURNDATACOPY RETURNDATASIZE PUSH1 0x0 REVERT JUMPDEST POP POP POP POP PUSH1 0x40 MLOAD RETURNDATASIZE PUSH1 0x1F NOT PUSH1 0x1F DUP3 ADD AND DUP3 ADD DUP1 PUSH1 0x40 MSTORE POP DUP2 ADD SWAP1 PUSH2 0x25E3 SWAP2 SWAP1 PUSH2 0x32A5 JUMP JUMPDEST SWAP1 POP PUSH2 0x2610 PUSH2 0x25F0 PUSH2 0x295F JUMP JUMPDEST DUP5 SLOAD PUSH20 0xFFFFFFFFFFFFFFFFFFFFFFFFFFFFFFFFFFFFFFFF AND SWAP1 ADDRESS DUP8 PUSH2 0x2D13 JUMP JUMPDEST DUP3 SLOAD PUSH1 0x40 MLOAD PUSH32 0x70A0823100000000000000000000000000000000000000000000000000000000 DUP2 MSTORE ADDRESS PUSH1 0x4 DUP3 ADD MSTORE PUSH1 0x0 SWAP2 PUSH20 0xFFFFFFFFFFFFFFFFFFFFFFFFFFFFFFFFFFFFFFFF AND SWAP1 PUSH4 0x70A08231 SWAP1 PUSH1 0x24 ADD PUSH1 0x20 PUSH1 0x40 MLOAD DUP1 DUP4 SUB DUP2 DUP7 DUP1 EXTCODESIZE ISZERO DUP1 ISZERO PUSH2 0x2679 JUMPI PUSH1 0x0 DUP1 REVERT JUMPDEST POP GAS STATICCALL ISZERO DUP1 ISZERO PUSH2 0x268D JUMPI RETURNDATASIZE PUSH1 0x0 DUP1 RETURNDATACOPY RETURNDATASIZE PUSH1 0x0 REVERT JUMPDEST POP POP POP POP PUSH1 0x40 MLOAD RETURNDATASIZE PUSH1 0x1F NOT PUSH1 0x1F DUP3 ADD AND DUP3 ADD DUP1 PUSH1 0x40 MSTORE POP DUP2 ADD SWAP1 PUSH2 0x26B1 SWAP2 SWAP1 PUSH2 0x32A5 JUMP JUMPDEST SWAP1 POP PUSH2 0x26BD DUP2 DUP4 PUSH2 0x299F JUMP JUMPDEST PUSH1 0x4 DUP6 ADD SLOAD SWAP1 SWAP6 POP PUSH2 0xFFFF AND ISZERO PUSH2 0x2727 JUMPI PUSH1 0x4 DUP5 ADD SLOAD PUSH1 0x0 SWAP1 PUSH2 0x26ED SWAP1 PUSH2 0x2710 SWAP1 PUSH2 0x1015 SWAP1 DUP10 SWAP1 PUSH2 0xFFFF AND PUSH2 0x2C86 JUMP JUMPDEST PUSH1 0x5 SLOAD DUP7 SLOAD SWAP2 SWAP3 POP PUSH2 0x2719 SWAP2 PUSH20 0xFFFFFFFFFFFFFFFFFFFFFFFFFFFFFFFFFFFFFFFF SWAP1 DUP2 AND SWAP2 AND DUP4 PUSH2 0x2BAD JUMP JUMPDEST PUSH2 0x2723 DUP7 DUP3 PUSH2 0x299F JUMP JUMPDEST SWAP6 POP POP JUMPDEST DUP3 SLOAD PUSH2 0x2733 SWAP1 DUP7 PUSH2 0x29AB JUMP JUMPDEST DUP4 SSTORE PUSH1 0x6 DUP5 ADD SLOAD PUSH2 0x2744 SWAP1 DUP7 PUSH2 0x29AB JUMP JUMPDEST PUSH1 0x6 DUP6 ADD SSTORE PUSH1 0x2 SLOAD DUP5 SLOAD PUSH20 0xFFFFFFFFFFFFFFFFFFFFFFFFFFFFFFFFFFFFFFFF SWAP1 DUP2 AND SWAP2 AND EQ ISZERO PUSH2 0x277F JUMPI PUSH1 0xC SLOAD PUSH2 0x277B SWAP1 DUP7 PUSH2 0x29AB JUMP JUMPDEST PUSH1 0xC SSTORE JUMPDEST POP POP JUMPDEST PUSH1 0x3 DUP3 ADD SLOAD DUP2 SLOAD PUSH2 0x279D SWAP2 PUSH5 0xE8D4A51000 SWAP2 PUSH2 0x1015 SWAP2 PUSH2 0x2C86 JUMP JUMPDEST PUSH1 0x1 DUP3 ADD SSTORE DUP4 PUSH2 0x27AB PUSH2 0x295F JUMP JUMPDEST PUSH20 0xFFFFFFFFFFFFFFFFFFFFFFFFFFFFFFFFFFFFFFFF AND PUSH32 0x90890809C654F11D6E72A28FA60149770A0D11EC6C92319D6CEB2BB0A4EA1A15 DUP6 PUSH1 0x40 MLOAD PUSH2 0x1070 SWAP2 DUP2 MSTORE PUSH1 0x20 ADD SWAP1 JUMP JUMPDEST PUSH2 0x27FA PUSH2 0x295F JUMP JUMPDEST PUSH20 0xFFFFFFFFFFFFFFFFFFFFFFFFFFFFFFFFFFFFFFFF AND PUSH2 0x282F PUSH1 0x0 SLOAD PUSH20 0xFFFFFFFFFFFFFFFFFFFFFFFFFFFFFFFFFFFFFFFF AND SWAP1 JUMP JUMPDEST PUSH20 0xFFFFFFFFFFFFFFFFFFFFFFFFFFFFFFFFFFFFFFFF AND EQ PUSH2 0x28AC JUMPI PUSH1 0x40 MLOAD PUSH32 0x8C379A000000000000000000000000000000000000000000000000000000000 DUP2 MSTORE PUSH1 0x20 PUSH1 0x4 DUP3 ADD DUP2 SWAP1 MSTORE PUSH1 0x24 DUP3 ADD MSTORE PUSH32 0x4F776E61626C653A2063616C6C6572206973206E6F7420746865206F776E6572 PUSH1 0x44 DUP3 ADD MSTORE PUSH1 0x64 ADD PUSH2 0x683 JUMP JUMPDEST PUSH20 0xFFFFFFFFFFFFFFFFFFFFFFFFFFFFFFFFFFFFFFFF DUP2 AND PUSH2 0x294F JUMPI PUSH1 0x40 MLOAD PUSH32 0x8C379A000000000000000000000000000000000000000000000000000000000 DUP2 MSTORE PUSH1 0x20 PUSH1 0x4 DUP3 ADD MSTORE PUSH1 0x26 PUSH1 0x24 DUP3 ADD MSTORE PUSH32 0x4F776E61626C653A206E6577206F776E657220697320746865207A65726F2061 PUSH1 0x44 DUP3 ADD MSTORE PUSH32 0x6464726573730000000000000000000000000000000000000000000000000000 PUSH1 0x64 DUP3 ADD MSTORE PUSH1 0x84 ADD PUSH2 0x683 JUMP JUMPDEST PUSH2 0x2958 DUP2 PUSH2 0x2C9E JUMP JUMPDEST POP JUMP JUMPDEST CALLER SWAP1 JUMP JUMPDEST PUSH1 0x0 PUSH2 0x296A CALLER PUSH2 0x14E1 JUMP JUMPDEST ISZERO PUSH2 0x299A JUMPI POP PUSH32 0xFFFFFFFFFFFFFFFFFFFFFFFFFFFFFFFFFFFFFFFFFFFFFFFFFFFFFFFFFFFFFFEC CALLDATASIZE ADD CALLDATALOAD PUSH1 0x60 SHR SWAP1 JUMP JUMPDEST POP CALLER SWAP1 JUMP JUMPDEST PUSH1 0x0 PUSH2 0x1995 DUP3 DUP5 PUSH2 0x34D2 JUMP JUMPDEST PUSH1 0x0 PUSH2 0x1995 DUP3 DUP5 PUSH2 0x3442 JUMP JUMPDEST PUSH1 0x0 PUSH1 0x7 DUP3 DUP2 SLOAD DUP2 LT PUSH2 0x29CC JUMPI PUSH2 0x29CC PUSH2 0x357D JUMP JUMPDEST PUSH1 0x0 SWAP2 DUP3 MSTORE PUSH1 0x20 DUP1 DUP4 KECCAK256 DUP6 DUP5 MSTORE PUSH1 0x8 SWAP1 SWAP2 MSTORE PUSH1 0x40 DUP4 KECCAK256 PUSH1 0x7 SWAP1 SWAP3 MUL ADD SWAP3 POP DUP2 PUSH2 0x29F3 PUSH2 0x295F JUMP JUMPDEST PUSH20 0xFFFFFFFFFFFFFFFFFFFFFFFFFFFFFFFFFFFFFFFF AND PUSH20 0xFFFFFFFFFFFFFFFFFFFFFFFFFFFFFFFFFFFFFFFF AND DUP2 MSTORE PUSH1 0x20 ADD SWAP1 DUP2 MSTORE PUSH1 0x20 ADD PUSH1 0x0 KECCAK256 SWAP1 POP DUP1 PUSH1 0x3 ADD SLOAD PUSH1 0x0 EQ DUP1 ISZERO PUSH2 0x2A45 JUMPI POP PUSH1 0xA SLOAD NUMBER LT ISZERO JUMPDEST ISZERO PUSH2 0x2A60 JUMPI PUSH1 0x5 DUP3 ADD SLOAD PUSH2 0x2A5A SWAP1 TIMESTAMP SWAP1 PUSH2 0x29AB JUMP JUMPDEST PUSH1 0x3 DUP3 ADD SSTORE JUMPDEST PUSH1 0x0 PUSH2 0x2A8E DUP3 PUSH1 0x1 ADD SLOAD PUSH2 0x203A PUSH5 0xE8D4A51000 PUSH2 0x1015 DUP8 PUSH1 0x3 ADD SLOAD DUP8 PUSH1 0x0 ADD SLOAD PUSH2 0x2C86 SWAP1 SWAP2 SWAP1 PUSH4 0xFFFFFFFF AND JUMP JUMPDEST SWAP1 POP PUSH2 0x2A9C DUP5 PUSH2 0x39E PUSH2 0x295F JUMP JUMPDEST ISZERO PUSH2 0x2B24 JUMPI PUSH1 0x0 DUP2 GT DUP1 PUSH2 0x2AB4 JUMPI POP PUSH1 0x0 DUP3 PUSH1 0x2 ADD SLOAD GT JUMPDEST ISZERO PUSH2 0x2B1F JUMPI PUSH1 0x0 PUSH2 0x2AD2 DUP4 PUSH1 0x2 ADD SLOAD DUP4 PUSH2 0x29AB SWAP1 SWAP2 SWAP1 PUSH4 0xFFFFFFFF AND JUMP JUMPDEST SWAP1 POP PUSH2 0x2AED DUP4 PUSH1 0x2 ADD SLOAD PUSH1 0xB SLOAD PUSH2 0x299F SWAP1 SWAP2 SWAP1 PUSH4 0xFFFFFFFF AND JUMP JUMPDEST PUSH1 0xB SSTORE PUSH1 0x0 PUSH1 0x2 DUP5 ADD SSTORE PUSH1 0x5 DUP5 ADD SLOAD PUSH2 0x2B07 SWAP1 TIMESTAMP SWAP1 PUSH2 0x29AB JUMP JUMPDEST PUSH1 0x3 DUP5 ADD SSTORE PUSH2 0x2B1D PUSH2 0x2B17 PUSH2 0x295F JUMP JUMPDEST DUP3 PUSH2 0x2D71 JUMP JUMPDEST POP JUMPDEST PUSH2 0x2BA7 JUMP JUMPDEST DUP1 ISZERO PUSH2 0x2BA7 JUMPI PUSH1 0x2 DUP3 ADD SLOAD PUSH2 0x2B39 SWAP1 DUP3 PUSH2 0x29AB JUMP JUMPDEST PUSH1 0x2 DUP4 ADD SSTORE PUSH1 0xB SLOAD PUSH2 0x2B4B SWAP1 DUP3 PUSH2 0x29AB JUMP JUMPDEST PUSH1 0xB SSTORE DUP4 PUSH2 0x2B57 PUSH2 0x295F JUMP JUMPDEST PUSH20 0xFFFFFFFFFFFFFFFFFFFFFFFFFFFFFFFFFFFFFFFF AND PUSH32 0xEE470483107F579A55C754FA00613C45A9A3B617A418B39CB0BE97E5381BA7C1 DUP4 PUSH1 0x40 MLOAD PUSH2 0x2B9E SWAP2 DUP2 MSTORE PUSH1 0x20 ADD SWAP1 JUMP JUMPDEST PUSH1 0x40 MLOAD DUP1 SWAP2 SUB SWAP1 LOG3 JUMPDEST POP POP POP POP JUMP JUMPDEST PUSH1 0x40 MLOAD PUSH20 0xFFFFFFFFFFFFFFFFFFFFFFFFFFFFFFFFFFFFFFFF DUP4 AND PUSH1 0x24 DUP3 ADD MSTORE PUSH1 0x44 DUP2 ADD DUP3 SWAP1 MSTORE PUSH2 0x2C81 SWAP1 DUP5 SWAP1 PUSH32 0xA9059CBB00000000000000000000000000000000000000000000000000000000 SWAP1 PUSH1 0x64 ADD JUMPDEST PUSH1 0x40 DUP1 MLOAD PUSH32 0xFFFFFFFFFFFFFFFFFFFFFFFFFFFFFFFFFFFFFFFFFFFFFFFFFFFFFFFFFFFFFFE0 DUP2 DUP5 SUB ADD DUP2 MSTORE SWAP2 SWAP1 MSTORE PUSH1 0x20 DUP2 ADD DUP1 MLOAD PUSH28 0xFFFFFFFFFFFFFFFFFFFFFFFFFFFFFFFFFFFFFFFFFFFFFFFFFFFFFFFF AND PUSH32 0xFFFFFFFF00000000000000000000000000000000000000000000000000000000 SWAP1 SWAP4 AND SWAP3 SWAP1 SWAP3 OR SWAP1 SWAP2 MSTORE PUSH2 0x2FE3 JUMP JUMPDEST POP POP POP JUMP JUMPDEST PUSH1 0x0 PUSH2 0x1995 DUP3 DUP5 PUSH2 0x3495 JUMP JUMPDEST PUSH1 0x0 PUSH2 0x1995 DUP3 DUP5 PUSH2 0x345A JUMP JUMPDEST PUSH1 0x0 DUP1 SLOAD PUSH20 0xFFFFFFFFFFFFFFFFFFFFFFFFFFFFFFFFFFFFFFFF DUP4 DUP2 AND PUSH32 0xFFFFFFFFFFFFFFFFFFFFFFFF0000000000000000000000000000000000000000 DUP4 AND DUP2 OR DUP5 SSTORE PUSH1 0x40 MLOAD SWAP2 SWAP1 SWAP3 AND SWAP3 DUP4 SWAP2 PUSH32 0x8BE0079C531659141344CD1FD0A4F28419497F9722A3DAAFE3B4186F6B6457E0 SWAP2 SWAP1 LOG3 POP POP JUMP JUMPDEST PUSH1 0x40 MLOAD PUSH20 0xFFFFFFFFFFFFFFFFFFFFFFFFFFFFFFFFFFFFFFFF DUP1 DUP6 AND PUSH1 0x24 DUP4 ADD MSTORE DUP4 AND PUSH1 0x44 DUP3 ADD MSTORE PUSH1 0x64 DUP2 ADD DUP3 SWAP1 MSTORE PUSH2 0x2BA7 SWAP1 DUP6 SWAP1 PUSH32 0x23B872DD00000000000000000000000000000000000000000000000000000000 SWAP1 PUSH1 0x84 ADD PUSH2 0x2BFF JUMP JUMPDEST PUSH1 0xC SLOAD PUSH1 0x2 SLOAD PUSH1 0x40 MLOAD PUSH32 0x70A0823100000000000000000000000000000000000000000000000000000000 DUP2 MSTORE ADDRESS PUSH1 0x4 DUP3 ADD MSTORE PUSH20 0xFFFFFFFFFFFFFFFFFFFFFFFFFFFFFFFFFFFFFFFF SWAP1 SWAP2 AND SWAP1 PUSH4 0x70A08231 SWAP1 PUSH1 0x24 ADD PUSH1 0x20 PUSH1 0x40 MLOAD DUP1 DUP4 SUB DUP2 DUP7 DUP1 EXTCODESIZE ISZERO DUP1 ISZERO PUSH2 0x2DDD JUMPI PUSH1 0x0 DUP1 REVERT JUMPDEST POP GAS STATICCALL ISZERO DUP1 ISZERO PUSH2 0x2DF1 JUMPI RETURNDATASIZE PUSH1 0x0 DUP1 RETURNDATACOPY RETURNDATASIZE PUSH1 0x0 REVERT JUMPDEST POP POP POP POP PUSH1 0x40 MLOAD RETURNDATASIZE PUSH1 0x1F NOT PUSH1 0x1F DUP3 ADD AND DUP3 ADD DUP1 PUSH1 0x40 MSTORE POP DUP2 ADD SWAP1 PUSH2 0x2E15 SWAP2 SWAP1 PUSH2 0x32A5 JUMP JUMPDEST GT ISZERO PUSH2 0x16FC JUMPI PUSH1 0xC SLOAD PUSH1 0x2 SLOAD PUSH1 0x40 MLOAD PUSH32 0x70A0823100000000000000000000000000000000000000000000000000000000 DUP2 MSTORE ADDRESS PUSH1 0x4 DUP3 ADD MSTORE PUSH1 0x0 SWAP3 PUSH2 0x2EC8 SWAP3 SWAP1 SWAP2 PUSH20 0xFFFFFFFFFFFFFFFFFFFFFFFFFFFFFFFFFFFFFFFF SWAP1 SWAP2 AND SWAP1 PUSH4 0x70A08231 SWAP1 PUSH1 0x24 ADD PUSH1 0x20 PUSH1 0x40 MLOAD DUP1 DUP4 SUB DUP2 DUP7 DUP1 EXTCODESIZE ISZERO DUP1 ISZERO PUSH2 0x2E90 JUMPI PUSH1 0x0 DUP1 REVERT JUMPDEST POP GAS STATICCALL ISZERO DUP1 ISZERO PUSH2 0x2EA4 JUMPI RETURNDATASIZE PUSH1 0x0 DUP1 RETURNDATACOPY RETURNDATASIZE PUSH1 0x0 REVERT JUMPDEST POP POP POP POP PUSH1 0x40 MLOAD RETURNDATASIZE PUSH1 0x1F NOT PUSH1 0x1F DUP3 ADD AND DUP3 ADD DUP1 PUSH1 0x40 MSTORE POP DUP2 ADD SWAP1 PUSH2 0x203A SWAP2 SWAP1 PUSH2 0x32A5 JUMP JUMPDEST SWAP1 POP DUP1 DUP3 LT PUSH2 0x2F7E JUMPI PUSH1 0x2 SLOAD PUSH1 0x40 MLOAD PUSH32 0xA9059CBB00000000000000000000000000000000000000000000000000000000 DUP2 MSTORE PUSH20 0xFFFFFFFFFFFFFFFFFFFFFFFFFFFFFFFFFFFFFFFF DUP6 DUP2 AND PUSH1 0x4 DUP4 ADD MSTORE PUSH1 0x24 DUP3 ADD DUP5 SWAP1 MSTORE SWAP1 SWAP2 AND SWAP1 PUSH4 0xA9059CBB SWAP1 PUSH1 0x44 ADD JUMPDEST PUSH1 0x20 PUSH1 0x40 MLOAD DUP1 DUP4 SUB DUP2 PUSH1 0x0 DUP8 DUP1 EXTCODESIZE ISZERO DUP1 ISZERO PUSH2 0x2F46 JUMPI PUSH1 0x0 DUP1 REVERT JUMPDEST POP GAS CALL ISZERO DUP1 ISZERO PUSH2 0x2F5A JUMPI RETURNDATASIZE PUSH1 0x0 DUP1 RETURNDATACOPY RETURNDATASIZE PUSH1 0x0 REVERT JUMPDEST POP POP POP POP PUSH1 0x40 MLOAD RETURNDATASIZE PUSH1 0x1F NOT PUSH1 0x1F DUP3 ADD AND DUP3 ADD DUP1 PUSH1 0x40 MSTORE POP DUP2 ADD SWAP1 PUSH2 0x2BA7 SWAP2 SWAP1 PUSH2 0x326F JUMP JUMPDEST DUP2 ISZERO PUSH2 0x2C81 JUMPI PUSH1 0x2 SLOAD PUSH1 0x40 MLOAD PUSH32 0xA9059CBB00000000000000000000000000000000000000000000000000000000 DUP2 MSTORE PUSH20 0xFFFFFFFFFFFFFFFFFFFFFFFFFFFFFFFFFFFFFFFF DUP6 DUP2 AND PUSH1 0x4 DUP4 ADD MSTORE PUSH1 0x24 DUP3 ADD DUP6 SWAP1 MSTORE SWAP1 SWAP2 AND SWAP1 PUSH4 0xA9059CBB SWAP1 PUSH1 0x44 ADD PUSH2 0x2F2C JUMP JUMPDEST PUSH1 0x0 PUSH2 0x3045 DUP3 PUSH1 0x40 MLOAD DUP1 PUSH1 0x40 ADD PUSH1 0x40 MSTORE DUP1 PUSH1 0x20 DUP2 MSTORE PUSH1 0x20 ADD PUSH32 0x5361666545524332303A206C6F772D6C6576656C2063616C6C206661696C6564 DUP2 MSTORE POP DUP6 PUSH20 0xFFFFFFFFFFFFFFFFFFFFFFFFFFFFFFFFFFFFFFFF AND PUSH2 0x30EF SWAP1 SWAP3 SWAP2 SWAP1 PUSH4 0xFFFFFFFF AND JUMP JUMPDEST DUP1 MLOAD SWAP1 SWAP2 POP ISZERO PUSH2 0x2C81 JUMPI DUP1 DUP1 PUSH1 0x20 ADD SWAP1 MLOAD DUP2 ADD SWAP1 PUSH2 0x3063 SWAP2 SWAP1 PUSH2 0x326F JUMP JUMPDEST PUSH2 0x2C81 JUMPI PUSH1 0x40 MLOAD PUSH32 0x8C379A000000000000000000000000000000000000000000000000000000000 DUP2 MSTORE PUSH1 0x20 PUSH1 0x4 DUP3 ADD MSTORE PUSH1 0x2A PUSH1 0x24 DUP3 ADD MSTORE PUSH32 0x5361666545524332303A204552433230206F7065726174696F6E20646964206E PUSH1 0x44 DUP3 ADD MSTORE PUSH32 0x6F74207375636365656400000000000000000000000000000000000000000000 PUSH1 0x64 DUP3 ADD MSTORE PUSH1 0x84 ADD PUSH2 0x683 JUMP JUMPDEST PUSH1 0x60 PUSH2 0xD8F DUP5 DUP5 PUSH1 0x0 DUP6 DUP6 DUP5 EXTCODESIZE PUSH2 0x3162 JUMPI PUSH1 0x40 MLOAD PUSH32 0x8C379A000000000000000000000000000000000000000000000000000000000 DUP2 MSTORE PUSH1 0x20 PUSH1 0x4 DUP3 ADD MSTORE PUSH1 0x1D PUSH1 0x24 DUP3 ADD MSTORE PUSH32 0x416464726573733A2063616C6C20746F206E6F6E2D636F6E7472616374000000 PUSH1 0x44 DUP3 ADD MSTORE PUSH1 0x64 ADD PUSH2 0x683 JUMP JUMPDEST PUSH1 0x0 DUP1 DUP7 PUSH20 0xFFFFFFFFFFFFFFFFFFFFFFFFFFFFFFFFFFFFFFFF AND DUP6 DUP8 PUSH1 0x40 MLOAD PUSH2 0x318B SWAP2 SWAP1 PUSH2 0x33D5 JUMP JUMPDEST PUSH1 0x0 PUSH1 0x40 MLOAD DUP1 DUP4 SUB DUP2 DUP6 DUP8 GAS CALL SWAP3 POP POP POP RETURNDATASIZE DUP1 PUSH1 0x0 DUP2 EQ PUSH2 0x31C8 JUMPI PUSH1 0x40 MLOAD SWAP2 POP PUSH1 0x1F NOT PUSH1 0x3F RETURNDATASIZE ADD AND DUP3 ADD PUSH1 0x40 MSTORE RETURNDATASIZE DUP3 MSTORE RETURNDATASIZE PUSH1 0x0 PUSH1 0x20 DUP5 ADD RETURNDATACOPY PUSH2 0x31CD JUMP JUMPDEST PUSH1 0x60 SWAP2 POP JUMPDEST POP SWAP2 POP SWAP2 POP PUSH2 0x31DD DUP3 DUP3 DUP7 PUSH2 0x31E8 JUMP JUMPDEST SWAP8 SWAP7 POP POP POP POP POP POP POP JUMP JUMPDEST PUSH1 0x60 DUP4 ISZERO PUSH2 0x31F7 JUMPI POP DUP2 PUSH2 0x1995 JUMP JUMPDEST DUP3 MLOAD ISZERO PUSH2 0x3207 JUMPI DUP3 MLOAD DUP1 DUP5 PUSH1 0x20 ADD REVERT JUMPDEST DUP2 PUSH1 0x40 MLOAD PUSH32 0x8C379A000000000000000000000000000000000000000000000000000000000 DUP2 MSTORE PUSH1 0x4 ADD PUSH2 0x683 SWAP2 SWAP1 PUSH2 0x33F1 JUMP JUMPDEST DUP1 CALLDATALOAD PUSH2 0xFFFF DUP2 AND DUP2 EQ PUSH2 0x324D JUMPI PUSH1 0x0 DUP1 REVERT JUMPDEST SWAP2 SWAP1 POP JUMP JUMPDEST PUSH1 0x0 PUSH1 0x20 DUP3 DUP5 SUB SLT ISZERO PUSH2 0x3264 JUMPI PUSH1 0x0 DUP1 REVERT JUMPDEST DUP2 CALLDATALOAD PUSH2 0x1995 DUP2 PUSH2 0x35AC JUMP JUMPDEST PUSH1 0x0 PUSH1 0x20 DUP3 DUP5 SUB SLT ISZERO PUSH2 0x3281 JUMPI PUSH1 0x0 DUP1 REVERT JUMPDEST DUP2 MLOAD PUSH2 0x1995 DUP2 PUSH2 0x35CE JUMP JUMPDEST PUSH1 0x0 PUSH1 0x20 DUP3 DUP5 SUB SLT ISZERO PUSH2 0x329E JUMPI PUSH1 0x0 DUP1 REVERT JUMPDEST POP CALLDATALOAD SWAP2 SWAP1 POP JUMP JUMPDEST PUSH1 0x0 PUSH1 0x20 DUP3 DUP5 SUB SLT ISZERO PUSH2 0x32B7 JUMPI PUSH1 0x0 DUP1 REVERT JUMPDEST POP MLOAD SWAP2 SWAP1 POP JUMP JUMPDEST PUSH1 0x0 DUP1 PUSH1 0x40 DUP4 DUP6 SUB SLT ISZERO PUSH2 0x32D1 JUMPI PUSH1 0x0 DUP1 REVERT JUMPDEST DUP3 CALLDATALOAD SWAP2 POP PUSH1 0x20 DUP4 ADD CALLDATALOAD PUSH2 0x32E3 DUP2 PUSH2 0x35AC JUMP JUMPDEST DUP1 SWAP2 POP POP SWAP3 POP SWAP3 SWAP1 POP JUMP JUMPDEST PUSH1 0x0 DUP1 PUSH1 0x0 DUP1 PUSH1 0x0 PUSH1 0xA0 DUP7 DUP9 SUB SLT ISZERO PUSH2 0x3306 JUMPI PUSH1 0x0 DUP1 REVERT JUMPDEST DUP6 CALLDATALOAD SWAP5 POP PUSH1 0x20 DUP7 ADD CALLDATALOAD PUSH2 0x3318 DUP2 PUSH2 0x35AC JUMP JUMPDEST SWAP4 POP PUSH2 0x3326 PUSH1 0x40 DUP8 ADD PUSH2 0x323B JUMP JUMPDEST SWAP3 POP PUSH1 0x60 DUP7 ADD CALLDATALOAD SWAP2 POP PUSH1 0x80 DUP7 ADD CALLDATALOAD PUSH2 0x333D DUP2 PUSH2 0x35CE JUMP JUMPDEST DUP1 SWAP2 POP POP SWAP3 SWAP6 POP SWAP3 SWAP6 SWAP1 SWAP4 POP JUMP JUMPDEST PUSH1 0x0 DUP1 PUSH1 0x40 DUP4 DUP6 SUB SLT ISZERO PUSH2 0x335E JUMPI PUSH1 0x0 DUP1 REVERT JUMPDEST POP POP DUP1 CALLDATALOAD SWAP3 PUSH1 0x20 SWAP1 SWAP2 ADD CALLDATALOAD SWAP2 POP JUMP JUMPDEST PUSH1 0x0 DUP1 PUSH1 0x0 PUSH1 0x60 DUP5 DUP7 SUB SLT ISZERO PUSH2 0x3382 JUMPI PUSH1 0x0 DUP1 REVERT JUMPDEST DUP4 CALLDATALOAD SWAP3 POP PUSH1 0x20 DUP5 ADD CALLDATALOAD SWAP2 POP PUSH1 0x40 DUP5 ADD CALLDATALOAD PUSH2 0x339B DUP2 PUSH2 0x35CE JUMP JUMPDEST DUP1 SWAP2 POP POP SWAP3 POP SWAP3 POP SWAP3 JUMP JUMPDEST PUSH1 0x0 DUP1 PUSH1 0x0 DUP1 PUSH1 0x0 PUSH1 0xA0 DUP7 DUP9 SUB SLT ISZERO PUSH2 0x33BE JUMPI PUSH1 0x0 DUP1 REVERT JUMPDEST DUP6 CALLDATALOAD SWAP5 POP PUSH1 0x20 DUP7 ADD CALLDATALOAD SWAP4 POP PUSH2 0x3326 PUSH1 0x40 DUP8 ADD PUSH2 0x323B JUMP JUMPDEST PUSH1 0x0 DUP3 MLOAD PUSH2 0x33E7 DUP2 DUP5 PUSH1 0x20 DUP8 ADD PUSH2 0x34E9 JUMP JUMPDEST SWAP2 SWAP1 SWAP2 ADD SWAP3 SWAP2 POP POP JUMP JUMPDEST PUSH1 0x20 DUP2 MSTORE PUSH1 0x0 DUP3 MLOAD DUP1 PUSH1 0x20 DUP5 ADD MSTORE PUSH2 0x3410 DUP2 PUSH1 0x40 DUP6 ADD PUSH1 0x20 DUP8 ADD PUSH2 0x34E9 JUMP JUMPDEST PUSH1 0x1F ADD PUSH32 0xFFFFFFFFFFFFFFFFFFFFFFFFFFFFFFFFFFFFFFFFFFFFFFFFFFFFFFFFFFFFFFE0 AND SWAP2 SWAP1 SWAP2 ADD PUSH1 0x40 ADD SWAP3 SWAP2 POP POP JUMP JUMPDEST PUSH1 0x0 DUP3 NOT DUP3 GT ISZERO PUSH2 0x3455 JUMPI PUSH2 0x3455 PUSH2 0x354E JUMP JUMPDEST POP ADD SWAP1 JUMP JUMPDEST PUSH1 0x0 DUP3 PUSH2 0x3490 JUMPI PUSH32 0x4E487B7100000000000000000000000000000000000000000000000000000000 PUSH1 0x0 MSTORE PUSH1 0x12 PUSH1 0x4 MSTORE PUSH1 0x24 PUSH1 0x0 REVERT JUMPDEST POP DIV SWAP1 JUMP JUMPDEST PUSH1 0x0 DUP2 PUSH32 0xFFFFFFFFFFFFFFFFFFFFFFFFFFFFFFFFFFFFFFFFFFFFFFFFFFFFFFFFFFFFFFFF DIV DUP4 GT DUP3 ISZERO ISZERO AND ISZERO PUSH2 0x34CD JUMPI PUSH2 0x34CD PUSH2 0x354E JUMP JUMPDEST POP MUL SWAP1 JUMP JUMPDEST PUSH1 0x0 DUP3 DUP3 LT ISZERO PUSH2 0x34E4 JUMPI PUSH2 0x34E4 PUSH2 0x354E JUMP JUMPDEST POP SUB SWAP1 JUMP JUMPDEST PUSH1 0x0 JUMPDEST DUP4 DUP2 LT ISZERO PUSH2 0x3504 JUMPI DUP2 DUP2 ADD MLOAD DUP4 DUP3 ADD MSTORE PUSH1 0x20 ADD PUSH2 0x34EC JUMP JUMPDEST DUP4 DUP2 GT ISZERO PUSH2 0x2BA7 JUMPI POP POP PUSH1 0x0 SWAP2 ADD MSTORE JUMP JUMPDEST PUSH1 0x0 PUSH32 0xFFFFFFFFFFFFFFFFFFFFFFFFFFFFFFFFFFFFFFFFFFFFFFFFFFFFFFFFFFFFFFFF DUP3 EQ ISZERO PUSH2 0x3547 JUMPI PUSH2 0x3547 PUSH2 0x354E JUMP JUMPDEST POP PUSH1 0x1 ADD SWAP1 JUMP JUMPDEST PUSH32 0x4E487B7100000000000000000000000000000000000000000000000000000000 PUSH1 0x0 MSTORE PUSH1 0x11 PUSH1 0x4 MSTORE PUSH1 0x24 PUSH1 0x0 REVERT JUMPDEST PUSH32 0x4E487B7100000000000000000000000000000000000000000000000000000000 PUSH1 0x0 MSTORE PUSH1 0x32 PUSH1 0x4 MSTORE PUSH1 0x24 PUSH1 0x0 REVERT JUMPDEST PUSH20 0xFFFFFFFFFFFFFFFFFFFFFFFFFFFFFFFFFFFFFFFF DUP2 AND DUP2 EQ PUSH2 0x2958 JUMPI PUSH1 0x0 DUP1 REVERT JUMPDEST DUP1 ISZERO ISZERO DUP2 EQ PUSH2 0x2958 JUMPI PUSH1 0x0 DUP1 REVERT INVALID LOG2 PUSH5 0x6970667358 0x22 SLT KECCAK256 CREATE PC 0x2C NUMBER 0xB1 0xC6 SWAP12 DUP3 ISZERO 0xCE 0xE1 0xC4 0x24 DUP12 DUP12 CALLDATACOPY 0xDC 0xC PUSH31 0xB4344CBBD222EC3343307701F464736F6C6343000807003300000000000000 "
        },
        "gasEstimates": {
          "creation": {
            "codeDepositCost": "2768400",
            "executionCost": "infinite",
            "totalCost": "infinite"
          },
          "external": {
            "MAXIMUM_DEPOSIT_FEE_RATE()": "272",
            "MAXIMUM_HARVEST_INTERVAL()": "250",
            "add(uint256,address,uint16,uint256,bool)": "infinite",
            "canHarvest(uint256,address)": "4835",
            "deposit(uint256,uint256)": "infinite",
            "devAddress()": "2381",
            "disableMetaTxns()": "32059",
            "ember()": "2404",
            "emberPerBlock()": "2351",
            "emergencyWithdraw(uint256)": "infinite",
            "enableMetaTxns()": "32098",
            "feeAddress()": "2403",
            "getMultiplier(uint256,uint256)": "infinite",
            "isTrustedForwarder(address)": "2555",
            "massUpdatePools()": "infinite",
            "metaTxnsEnabled()": "2378",
            "operator()": "2418",
            "owner()": "2374",
            "pendingEmber(uint256,address)": "infinite",
            "poolInfo(uint256)": "17539",
            "poolLength()": "2317",
            "renounceOwnership()": "30465",
            "set(uint256,uint256,uint16,uint256,bool)": "infinite",
            "setDevAddress(address)": "infinite",
            "setFeeAddress(address)": "infinite",
            "startBlock()": "2374",
            "startFarming()": "infinite",
            "totalAllocPoint()": "2353",
            "totalEmberInPools()": "2396",
            "totalLockedUpRewards()": "2352",
            "transferOperator(address)": "30409",
            "transferOwnership(address)": "infinite",
            "updateAllocPoint(uint256,uint256,bool)": "infinite",
            "updateEmissionRate(uint256)": "infinite",
            "updatePool(uint256)": "infinite",
            "userInfo(uint256,address)": "9117",
            "withdraw(uint256,uint256)": "infinite"
          },
          "internal": {
            "_msgData()": "infinite",
            "_msgSender()": "2238",
            "payOrLockupPendingEmber(uint256)": "infinite",
            "safeEmberTransfer(address,uint256)": "infinite"
          }
        },
        "methodIdentifiers": {
          "MAXIMUM_DEPOSIT_FEE_RATE()": "812c64f1",
          "MAXIMUM_HARVEST_INTERVAL()": "de73149d",
          "add(uint256,address,uint16,uint256,bool)": "af018de8",
          "canHarvest(uint256,address)": "2e6c998d",
          "deposit(uint256,uint256)": "e2bbb158",
          "devAddress()": "3ad10ef6",
          "disableMetaTxns()": "08383640",
          "ember()": "1f1b9a7c",
          "emberPerBlock()": "c9e11852",
          "emergencyWithdraw(uint256)": "5312ea8e",
          "enableMetaTxns()": "578bb42d",
          "feeAddress()": "41275358",
          "getMultiplier(uint256,uint256)": "8dbb1e3a",
          "isTrustedForwarder(address)": "572b6c05",
          "massUpdatePools()": "630b5ba1",
          "metaTxnsEnabled()": "a8c95dc0",
          "operator()": "570ca735",
          "owner()": "8da5cb5b",
          "pendingEmber(uint256,address)": "bc83ee22",
          "poolInfo(uint256)": "1526fe27",
          "poolLength()": "081e3eda",
          "renounceOwnership()": "715018a6",
          "set(uint256,uint256,uint16,uint256,bool)": "2143e545",
          "setDevAddress(address)": "d0d41fe1",
          "setFeeAddress(address)": "8705fcd4",
          "startBlock()": "48cd4cb1",
          "startFarming()": "afbcfea1",
          "totalAllocPoint()": "17caf6f1",
          "totalEmberInPools()": "2a22bc43",
          "totalLockedUpRewards()": "474fa630",
          "transferOperator(address)": "29605e77",
          "transferOwnership(address)": "f2fde38b",
          "updateAllocPoint(uint256,uint256,bool)": "bde4aeca",
          "updateEmissionRate(uint256)": "0ba84cd2",
          "updatePool(uint256)": "51eb05a6",
          "userInfo(uint256,address)": "93f1a40b",
          "withdraw(uint256,uint256)": "441a3e70"
        }
      },
      "storageLayout": {
        "storage": [
          {
            "astId": 619,
            "contract": "contracts/farm/EmberDistributor.sol:EmberDistributor",
            "label": "_owner",
            "offset": 0,
            "slot": "0",
            "type": "t_address"
          },
          {
            "astId": 725,
            "contract": "contracts/farm/EmberDistributor.sol:EmberDistributor",
            "label": "_status",
            "offset": 0,
            "slot": "1",
            "type": "t_uint256"
          },
          {
            "astId": 1157,
            "contract": "contracts/farm/EmberDistributor.sol:EmberDistributor",
            "label": "ember",
            "offset": 0,
            "slot": "2",
            "type": "t_contract(IEmberERC20)1114"
          },
          {
            "astId": 1159,
            "contract": "contracts/farm/EmberDistributor.sol:EmberDistributor",
            "label": "_operator",
            "offset": 0,
            "slot": "3",
            "type": "t_address"
          },
          {
            "astId": 1161,
            "contract": "contracts/farm/EmberDistributor.sol:EmberDistributor",
            "label": "devAddress",
            "offset": 0,
            "slot": "4",
            "type": "t_address"
          },
          {
            "astId": 1163,
            "contract": "contracts/farm/EmberDistributor.sol:EmberDistributor",
            "label": "feeAddress",
            "offset": 0,
            "slot": "5",
            "type": "t_address"
          },
          {
            "astId": 1165,
            "contract": "contracts/farm/EmberDistributor.sol:EmberDistributor",
            "label": "emberPerBlock",
            "offset": 0,
            "slot": "6",
            "type": "t_uint256"
          },
          {
            "astId": 1175,
            "contract": "contracts/farm/EmberDistributor.sol:EmberDistributor",
            "label": "poolInfo",
            "offset": 0,
            "slot": "7",
            "type": "t_array(t_struct(PoolInfo)1154_storage)dyn_storage"
          },
          {
            "astId": 1182,
            "contract": "contracts/farm/EmberDistributor.sol:EmberDistributor",
            "label": "userInfo",
            "offset": 0,
            "slot": "8",
            "type": "t_mapping(t_uint256,t_mapping(t_address,t_struct(UserInfo)1138_storage))"
          },
          {
            "astId": 1185,
            "contract": "contracts/farm/EmberDistributor.sol:EmberDistributor",
            "label": "totalAllocPoint",
            "offset": 0,
            "slot": "9",
            "type": "t_uint256"
          },
          {
            "astId": 1187,
            "contract": "contracts/farm/EmberDistributor.sol:EmberDistributor",
            "label": "startBlock",
            "offset": 0,
            "slot": "10",
            "type": "t_uint256"
          },
          {
            "astId": 1189,
            "contract": "contracts/farm/EmberDistributor.sol:EmberDistributor",
            "label": "totalLockedUpRewards",
            "offset": 0,
            "slot": "11",
            "type": "t_uint256"
          },
          {
            "astId": 1192,
            "contract": "contracts/farm/EmberDistributor.sol:EmberDistributor",
            "label": "totalEmberInPools",
            "offset": 0,
            "slot": "12",
            "type": "t_uint256"
          },
          {
            "astId": 1195,
            "contract": "contracts/farm/EmberDistributor.sol:EmberDistributor",
            "label": "metaTxnsEnabled",
            "offset": 0,
            "slot": "13",
            "type": "t_bool"
          }
        ],
        "types": {
          "t_address": {
            "encoding": "inplace",
            "label": "address",
            "numberOfBytes": "20"
          },
          "t_array(t_struct(PoolInfo)1154_storage)dyn_storage": {
            "base": "t_struct(PoolInfo)1154_storage",
            "encoding": "dynamic_array",
            "label": "struct EmberDistributor.PoolInfo[]",
            "numberOfBytes": "32"
          },
          "t_bool": {
            "encoding": "inplace",
            "label": "bool",
            "numberOfBytes": "1"
          },
          "t_contract(IERC20)77": {
            "encoding": "inplace",
            "label": "contract IERC20",
            "numberOfBytes": "20"
          },
          "t_contract(IEmberERC20)1114": {
            "encoding": "inplace",
            "label": "contract IEmberERC20",
            "numberOfBytes": "20"
          },
          "t_mapping(t_address,t_struct(UserInfo)1138_storage)": {
            "encoding": "mapping",
            "key": "t_address",
            "label": "mapping(address => struct EmberDistributor.UserInfo)",
            "numberOfBytes": "32",
            "value": "t_struct(UserInfo)1138_storage"
          },
          "t_mapping(t_uint256,t_mapping(t_address,t_struct(UserInfo)1138_storage))": {
            "encoding": "mapping",
            "key": "t_uint256",
            "label": "mapping(uint256 => mapping(address => struct EmberDistributor.UserInfo))",
            "numberOfBytes": "32",
            "value": "t_mapping(t_address,t_struct(UserInfo)1138_storage)"
          },
          "t_struct(PoolInfo)1154_storage": {
            "encoding": "inplace",
            "label": "struct EmberDistributor.PoolInfo",
            "members": [
              {
                "astId": 1141,
                "contract": "contracts/farm/EmberDistributor.sol:EmberDistributor",
                "label": "lpToken",
                "offset": 0,
                "slot": "0",
                "type": "t_contract(IERC20)77"
              },
              {
                "astId": 1143,
                "contract": "contracts/farm/EmberDistributor.sol:EmberDistributor",
                "label": "allocPoint",
                "offset": 0,
                "slot": "1",
                "type": "t_uint256"
              },
              {
                "astId": 1145,
                "contract": "contracts/farm/EmberDistributor.sol:EmberDistributor",
                "label": "lastRewardBlock",
                "offset": 0,
                "slot": "2",
                "type": "t_uint256"
              },
              {
                "astId": 1147,
                "contract": "contracts/farm/EmberDistributor.sol:EmberDistributor",
                "label": "accEmberPerShare",
                "offset": 0,
                "slot": "3",
                "type": "t_uint256"
              },
              {
                "astId": 1149,
                "contract": "contracts/farm/EmberDistributor.sol:EmberDistributor",
                "label": "depositFeeBP",
                "offset": 0,
                "slot": "4",
                "type": "t_uint16"
              },
              {
                "astId": 1151,
                "contract": "contracts/farm/EmberDistributor.sol:EmberDistributor",
                "label": "harvestInterval",
                "offset": 0,
                "slot": "5",
                "type": "t_uint256"
              },
              {
                "astId": 1153,
                "contract": "contracts/farm/EmberDistributor.sol:EmberDistributor",
                "label": "totalLp",
                "offset": 0,
                "slot": "6",
                "type": "t_uint256"
              }
            ],
            "numberOfBytes": "224"
          },
          "t_struct(UserInfo)1138_storage": {
            "encoding": "inplace",
            "label": "struct EmberDistributor.UserInfo",
            "members": [
              {
                "astId": 1131,
                "contract": "contracts/farm/EmberDistributor.sol:EmberDistributor",
                "label": "amount",
                "offset": 0,
                "slot": "0",
                "type": "t_uint256"
              },
              {
                "astId": 1133,
                "contract": "contracts/farm/EmberDistributor.sol:EmberDistributor",
                "label": "rewardDebt",
                "offset": 0,
                "slot": "1",
                "type": "t_uint256"
              },
              {
                "astId": 1135,
                "contract": "contracts/farm/EmberDistributor.sol:EmberDistributor",
                "label": "rewardLockedUp",
                "offset": 0,
                "slot": "2",
                "type": "t_uint256"
              },
              {
                "astId": 1137,
                "contract": "contracts/farm/EmberDistributor.sol:EmberDistributor",
                "label": "nextHarvestUntil",
                "offset": 0,
                "slot": "3",
                "type": "t_uint256"
              }
            ],
            "numberOfBytes": "128"
          },
          "t_uint16": {
            "encoding": "inplace",
            "label": "uint16",
            "numberOfBytes": "2"
          },
          "t_uint256": {
            "encoding": "inplace",
            "label": "uint256",
            "numberOfBytes": "32"
          }
        }
      },
      "userdoc": {
        "kind": "user",
        "methods": {},
        "version": 1
      }
    }
  }
}