{
  "contracts/farm/rewarders/ComplexRewarderPerSecV2.sol": {
    "ComplexRewarderPerSecV2": {
      "abi": [
        {
          "inputs": [
            {
              "internalType": "contract IBoringERC20",
              "name": "_rewardToken",
              "type": "address"
            },
            {
              "internalType": "contract IEmberDistributorV2",
              "name": "_distributorV2",
              "type": "address"
            },
            {
              "internalType": "bool",
              "name": "_isNative",
              "type": "bool"
            }
          ],
          "stateMutability": "nonpayable",
          "type": "constructor"
        },
        {
          "anonymous": false,
          "inputs": [
            {
              "indexed": true,
              "internalType": "uint256",
              "name": "pid",
              "type": "uint256"
            },
            {
              "indexed": false,
              "internalType": "uint256",
              "name": "allocPoint",
              "type": "uint256"
            }
          ],
          "name": "AddPool",
          "type": "event"
        },
        {
          "anonymous": false,
          "inputs": [
            {
              "indexed": true,
              "internalType": "uint256",
              "name": "pid",
              "type": "uint256"
            },
            {
              "indexed": true,
              "internalType": "uint256",
              "name": "phase",
              "type": "uint256"
            },
            {
              "indexed": false,
              "internalType": "uint256",
              "name": "endTimestamp",
              "type": "uint256"
            },
            {
              "indexed": false,
              "internalType": "uint256",
              "name": "rewardPerSec",
              "type": "uint256"
            }
          ],
          "name": "AddRewardInfo",
          "type": "event"
        },
        {
          "anonymous": false,
          "inputs": [
            {
              "indexed": true,
              "internalType": "address",
              "name": "user",
              "type": "address"
            },
            {
              "indexed": false,
              "internalType": "uint256",
              "name": "amount",
              "type": "uint256"
            }
          ],
          "name": "OnReward",
          "type": "event"
        },
        {
          "anonymous": false,
          "inputs": [
            {
              "indexed": true,
              "internalType": "address",
              "name": "previousOwner",
              "type": "address"
            },
            {
              "indexed": true,
              "internalType": "address",
              "name": "newOwner",
              "type": "address"
            }
          ],
          "name": "OwnershipTransferred",
          "type": "event"
        },
        {
          "anonymous": false,
          "inputs": [
            {
              "indexed": false,
              "internalType": "uint256",
              "name": "oldRate",
              "type": "uint256"
            },
            {
              "indexed": false,
              "internalType": "uint256",
              "name": "newRate",
              "type": "uint256"
            }
          ],
          "name": "RewardRateUpdated",
          "type": "event"
        },
        {
          "anonymous": false,
          "inputs": [
            {
              "indexed": true,
              "internalType": "uint256",
              "name": "pid",
              "type": "uint256"
            },
            {
              "indexed": false,
              "internalType": "uint256",
              "name": "allocPoint",
              "type": "uint256"
            }
          ],
          "name": "SetPool",
          "type": "event"
        },
        {
          "anonymous": false,
          "inputs": [
            {
              "indexed": true,
              "internalType": "uint256",
              "name": "pid",
              "type": "uint256"
            },
            {
              "indexed": false,
              "internalType": "uint256",
              "name": "lastRewardTimestamp",
              "type": "uint256"
            },
            {
              "indexed": false,
              "internalType": "uint256",
              "name": "lpSupply",
              "type": "uint256"
            },
            {
              "indexed": false,
              "internalType": "uint256",
              "name": "accTokenPerShare",
              "type": "uint256"
            }
          ],
          "name": "UpdatePool",
          "type": "event"
        },
        {
          "inputs": [
            {
              "internalType": "uint256",
              "name": "_from",
              "type": "uint256"
            },
            {
              "internalType": "uint256",
              "name": "_to",
              "type": "uint256"
            },
            {
              "internalType": "uint256",
              "name": "_endTimestamp",
              "type": "uint256"
            }
          ],
          "name": "_getTimeElapsed",
          "outputs": [
            {
              "internalType": "uint256",
              "name": "",
              "type": "uint256"
            }
          ],
          "stateMutability": "pure",
          "type": "function"
        },
        {
          "inputs": [
            {
              "internalType": "uint256",
              "name": "pid",
              "type": "uint256"
            }
          ],
          "name": "_updatePool",
          "outputs": [
            {
              "components": [
                {
                  "internalType": "uint256",
                  "name": "accTokenPerShare",
                  "type": "uint256"
                },
                {
                  "internalType": "uint256",
                  "name": "startTimestamp",
                  "type": "uint256"
                },
                {
                  "internalType": "uint256",
                  "name": "lastRewardTimestamp",
                  "type": "uint256"
                },
                {
                  "internalType": "uint256",
                  "name": "allocPoint",
                  "type": "uint256"
                },
                {
                  "internalType": "uint256",
                  "name": "totalRewards",
                  "type": "uint256"
                }
              ],
              "internalType": "struct ComplexRewarderPerSecV2.PoolInfo",
              "name": "pool",
              "type": "tuple"
            }
          ],
          "stateMutability": "nonpayable",
          "type": "function"
        },
        {
          "inputs": [
            {
              "internalType": "uint256",
              "name": "_pid",
              "type": "uint256"
            },
            {
              "internalType": "uint256",
              "name": "_allocPoint",
              "type": "uint256"
            },
            {
              "internalType": "uint256",
              "name": "_startTimestamp",
              "type": "uint256"
            }
          ],
          "name": "add",
          "outputs": [],
          "stateMutability": "nonpayable",
          "type": "function"
        },
        {
          "inputs": [
            {
              "internalType": "uint256",
              "name": "_pid",
              "type": "uint256"
            },
            {
              "internalType": "uint256",
              "name": "_endTimestamp",
              "type": "uint256"
            },
            {
              "internalType": "uint256",
              "name": "_rewardPerSec",
              "type": "uint256"
            }
          ],
          "name": "addRewardInfo",
          "outputs": [],
          "stateMutability": "payable",
          "type": "function"
        },
        {
          "inputs": [
            {
              "internalType": "uint256",
              "name": "_pid",
              "type": "uint256"
            }
          ],
          "name": "currentEndTimestamp",
          "outputs": [
            {
              "internalType": "uint256",
              "name": "",
              "type": "uint256"
            }
          ],
          "stateMutability": "view",
          "type": "function"
        },
        {
          "inputs": [],
          "name": "distributorV2",
          "outputs": [
            {
              "internalType": "contract IEmberDistributorV2",
              "name": "",
              "type": "address"
            }
          ],
          "stateMutability": "view",
          "type": "function"
        },
        {
          "inputs": [
            {
              "internalType": "uint256",
              "name": "_pid",
              "type": "uint256"
            },
            {
              "internalType": "uint256",
              "name": "_amount",
              "type": "uint256"
            },
            {
              "internalType": "address",
              "name": "_beneficiary",
              "type": "address"
            }
          ],
          "name": "emergencyRewardWithdraw",
          "outputs": [],
          "stateMutability": "nonpayable",
          "type": "function"
        },
        {
          "inputs": [],
          "name": "isNative",
          "outputs": [
            {
              "internalType": "bool",
              "name": "",
              "type": "bool"
            }
          ],
          "stateMutability": "view",
          "type": "function"
        },
        {
          "inputs": [],
          "name": "massUpdatePools",
          "outputs": [],
          "stateMutability": "nonpayable",
          "type": "function"
        },
        {
          "inputs": [
            {
              "internalType": "uint256",
              "name": "_pid",
              "type": "uint256"
            },
            {
              "internalType": "address",
              "name": "_user",
              "type": "address"
            },
            {
              "internalType": "uint256",
              "name": "_amount",
              "type": "uint256"
            }
          ],
          "name": "onEmberReward",
          "outputs": [],
          "stateMutability": "nonpayable",
          "type": "function"
        },
        {
          "inputs": [],
          "name": "owner",
          "outputs": [
            {
              "internalType": "address",
              "name": "",
              "type": "address"
            }
          ],
          "stateMutability": "view",
          "type": "function"
        },
        {
          "inputs": [
            {
              "internalType": "uint256",
              "name": "_pid",
              "type": "uint256"
            },
            {
              "internalType": "address",
              "name": "_user",
              "type": "address"
            }
          ],
          "name": "pendingTokens",
          "outputs": [
            {
              "internalType": "uint256",
              "name": "",
              "type": "uint256"
            }
          ],
          "stateMutability": "view",
          "type": "function"
        },
        {
          "inputs": [
            {
              "internalType": "uint256",
              "name": "",
              "type": "uint256"
            }
          ],
          "name": "poolIds",
          "outputs": [
            {
              "internalType": "uint256",
              "name": "",
              "type": "uint256"
            }
          ],
          "stateMutability": "view",
          "type": "function"
        },
        {
          "inputs": [
            {
              "internalType": "uint256",
              "name": "",
              "type": "uint256"
            }
          ],
          "name": "poolInfo",
          "outputs": [
            {
              "internalType": "uint256",
              "name": "accTokenPerShare",
              "type": "uint256"
            },
            {
              "internalType": "uint256",
              "name": "startTimestamp",
              "type": "uint256"
            },
            {
              "internalType": "uint256",
              "name": "lastRewardTimestamp",
              "type": "uint256"
            },
            {
              "internalType": "uint256",
              "name": "allocPoint",
              "type": "uint256"
            },
            {
              "internalType": "uint256",
              "name": "totalRewards",
              "type": "uint256"
            }
          ],
          "stateMutability": "view",
          "type": "function"
        },
        {
          "inputs": [
            {
              "internalType": "uint256",
              "name": "",
              "type": "uint256"
            },
            {
              "internalType": "uint256",
              "name": "",
              "type": "uint256"
            }
          ],
          "name": "poolRewardInfo",
          "outputs": [
            {
              "internalType": "uint256",
              "name": "startTimestamp",
              "type": "uint256"
            },
            {
              "internalType": "uint256",
              "name": "endTimestamp",
              "type": "uint256"
            },
            {
              "internalType": "uint256",
              "name": "rewardPerSec",
              "type": "uint256"
            }
          ],
          "stateMutability": "view",
          "type": "function"
        },
        {
          "inputs": [
            {
              "internalType": "uint256",
              "name": "_pid",
              "type": "uint256"
            }
          ],
          "name": "poolRewardsPerSec",
          "outputs": [
            {
              "internalType": "uint256",
              "name": "",
              "type": "uint256"
            }
          ],
          "stateMutability": "view",
          "type": "function"
        },
        {
          "inputs": [],
          "name": "renounceOwnership",
          "outputs": [],
          "stateMutability": "nonpayable",
          "type": "function"
        },
        {
          "inputs": [],
          "name": "rewardInfoLimit",
          "outputs": [
            {
              "internalType": "uint256",
              "name": "",
              "type": "uint256"
            }
          ],
          "stateMutability": "view",
          "type": "function"
        },
        {
          "inputs": [],
          "name": "rewardToken",
          "outputs": [
            {
              "internalType": "contract IBoringERC20",
              "name": "",
              "type": "address"
            }
          ],
          "stateMutability": "view",
          "type": "function"
        },
        {
          "inputs": [],
          "name": "totalAllocPoint",
          "outputs": [
            {
              "internalType": "uint256",
              "name": "",
              "type": "uint256"
            }
          ],
          "stateMutability": "view",
          "type": "function"
        },
        {
          "inputs": [
            {
              "internalType": "address",
              "name": "newOwner",
              "type": "address"
            }
          ],
          "name": "transferOwnership",
          "outputs": [],
          "stateMutability": "nonpayable",
          "type": "function"
        },
        {
          "inputs": [
            {
              "internalType": "uint256",
              "name": "_pid",
              "type": "uint256"
            }
          ],
          "name": "updatePool",
          "outputs": [
            {
              "components": [
                {
                  "internalType": "uint256",
                  "name": "accTokenPerShare",
                  "type": "uint256"
                },
                {
                  "internalType": "uint256",
                  "name": "startTimestamp",
                  "type": "uint256"
                },
                {
                  "internalType": "uint256",
                  "name": "lastRewardTimestamp",
                  "type": "uint256"
                },
                {
                  "internalType": "uint256",
                  "name": "allocPoint",
                  "type": "uint256"
                },
                {
                  "internalType": "uint256",
                  "name": "totalRewards",
                  "type": "uint256"
                }
              ],
              "internalType": "struct ComplexRewarderPerSecV2.PoolInfo",
              "name": "pool",
              "type": "tuple"
            }
          ],
          "stateMutability": "nonpayable",
          "type": "function"
        },
        {
          "inputs": [
            {
              "internalType": "uint256",
              "name": "",
              "type": "uint256"
            },
            {
              "internalType": "address",
              "name": "",
              "type": "address"
            }
          ],
          "name": "userInfo",
          "outputs": [
            {
              "internalType": "uint256",
              "name": "amount",
              "type": "uint256"
            },
            {
              "internalType": "uint256",
              "name": "rewardDebt",
              "type": "uint256"
            }
          ],
          "stateMutability": "view",
          "type": "function"
        }
      ],
      "devdoc": {
        "kind": "dev",
        "methods": {
          "_updatePool(uint256)": {
            "params": {
              "pid": "The index of the pool. See `poolInfo`."
            },
            "returns": {
              "pool": "Returns the pool that was updated."
            }
          },
          "add(uint256,uint256,uint256)": {
            "params": {
              "_allocPoint": "allocation of the new pool.",
              "_pid": "pool id on DistributorV2"
            }
          },
          "onEmberReward(uint256,address,uint256)": {
            "params": {
              "_amount": "Number of LP tokens the user has",
              "_user": "Address of user"
            }
          },
          "owner()": {
            "details": "Returns the address of the current owner."
          },
          "renounceOwnership()": {
            "details": "Leaves the contract without owner. It will not be possible to call `onlyOwner` functions anymore. Can only be called by the current owner. NOTE: Renouncing ownership will leave the contract without an owner, thereby removing any functionality that is only available to the owner."
          },
          "transferOwnership(address)": {
            "details": "Transfers ownership of the contract to a new account (`newOwner`). Can only be called by the current owner."
          },
          "updatePool(uint256)": {
            "params": {
              "_pid": "The index of the pool. See `poolInfo`."
            },
            "returns": {
              "pool": "Returns the pool that was updated."
            }
          }
        },
        "stateVariables": {
          "poolRewardInfo": {
            "details": "this is mostly used for extending reward period"
          },
          "totalAllocPoint": {
            "details": "Total allocation points. Must be the sum of all allocation points in all pools."
          }
        },
        "version": 1
      },
      "evm": {
        "bytecode": {
          "linkReferences": {},
          "object": "6101206040526000600655603460e0523480156200001c57600080fd5b5060405162003126380380620031268339810160408190526200003f9162000376565b6200004a3362000257565b600180819055506200006783620002a760201b62001da11760201c565b620000d45760405162461bcd60e51b815260206004820152603260248201527f636f6e7374727563746f723a2072657761726420746f6b656e206d7573742062604482015271194818481d985b1a590818dbdb9d1c9858dd60721b60648201526084015b60405180910390fd5b620000ea82620002a760201b62001da11760201c565b6200015e5760405162461bcd60e51b815260206004820152603860248201527f636f6e7374727563746f723a20456d6265724469737472696275746f7256322060448201527f6d75737420626520612076616c696420636f6e747261637400000000000000006064820152608401620000cb565b6001600160601b0319606084811b821660805283901b1660a05280151560f81b60c052600081620001ae57620001a8846001600160a01b0316620002ad60201b62001da71760201c565b620001b1565b60125b60ff169050601e81106200022e5760405162461bcd60e51b815260206004820152603960248201527f636f6e7374727563746f723a2072657761726420746f6b656e20646563696d6160448201527f6c73206d75737420626520696e666572696f7220746f203330000000000000006064820152608401620000cb565b6200023b81601e6200053f565b6200024890600a62000481565b61010052506200058892505050565b600080546001600160a01b038381166001600160a01b0319831681178455604051919092169283917f8be0079c531659141344cd1fd0a4f28419497f9722a3daafe3b4186f6b6457e09190a35050565b3b151590565b60408051600481526024810182526020810180516001600160e01b031663313ce56760e01b1790529051600091829182916001600160a01b03861691620002f59190620003fa565b600060405180830381855afa9150503d806000811462000332576040519150601f19603f3d011682016040523d82523d6000602084013e62000337565b606091505b50915091508180156200034b575080516020145b620003585760126200036e565b808060200190518101906200036e9190620003ce565b949350505050565b6000806000606084860312156200038c57600080fd5b835162000399816200056f565b6020850151909350620003ac816200056f565b60408501519092508015158114620003c357600080fd5b809150509250925092565b600060208284031215620003e157600080fd5b815160ff81168114620003f357600080fd5b9392505050565b6000825160005b818110156200041d576020818601810151858301520162000401565b818111156200042d576000828501525b509190910192915050565b600181815b80851115620004795781600019048211156200045d576200045d62000559565b808516156200046b57918102915b93841c93908002906200043d565b509250929050565b6000620003f383836000826200049a5750600162000539565b81620004a95750600062000539565b8160018114620004c25760028114620004cd57620004ed565b600191505062000539565b60ff841115620004e157620004e162000559565b50506001821b62000539565b5060208310610133831016604e8410600b841016171562000512575081810a62000539565b6200051e838362000438565b806000190482111562000535576200053562000559565b0290505b92915050565b60008282101562000554576200055462000559565b500390565b634e487b7160e01b600052601160045260246000fd5b6001600160a01b03811681146200058557600080fd5b50565b60805160601c60a05160601c60c05160f81c60e05161010051612ad262000654600039600081816115a7015281816117a301528181611b5e015281816120e001526121340152600081816101960152610a9c0152600081816103e10152818161089501528181610d45015281816114aa01526115ee0152600081816104250152818161073c01528181611325015281816119760152611f9101526000818161057d015281816108d401528181610d82015281816115030152818161172f01526117750152612ad26000f3fe60806040526004361061017f5760003560e01c8063715018a6116100d657806393f1a40b1161007f578063f2fde38b11610059578063f2fde38b1461054b578063f7c618c11461056b578063ffcd42631461059f57600080fd5b806393f1a40b146104b75780639e494bee1461050b578063d4aa89b51461052b57600080fd5b80637d0d9d5f116100b05780637d0d9d5f146104135780638ad147281461046c5780638da5cb5b1461048c57600080fd5b8063715018a61461039a57806372333631146103af57806373cfc6b2146103cf57600080fd5b80632ea807c51161013857806351eb05a61161011257806351eb05a614610303578063630b5ba11461036557806369883b4e1461037a57600080fd5b80632ea807c5146102b0578063465e81ec146102c3578063505fb46c146102e357600080fd5b80631526fe27116101695780631526fe271461020657806317caf6f1146102785780631d1231311461028e57600080fd5b8062d74850146101845780630832cfbf146101cb575b600080fd5b34801561019057600080fd5b506101b87f000000000000000000000000000000000000000000000000000000000000000081565b6040519081526020015b60405180910390f35b3480156101d757600080fd5b506101eb6101e636600461287d565b6105bf565b604080519384526020840192909252908201526060016101c2565b34801561021257600080fd5b506102506102213660046127ea565b600260208190526000918252604090912080546001820154928201546003830154600490930154919392909185565b604080519586526020860194909452928401919091526060830152608082015260a0016101c2565b34801561028457600080fd5b506101b860065481565b34801561029a57600080fd5b506102ae6102a936600461289f565b610601565b005b6102ae6102be3660046128d4565b6109fe565b3480156102cf57600080fd5b506101b86102de3660046127ea565b610ef0565b3480156102ef57600080fd5b506102ae6102fe3660046128d4565b610f02565b34801561030f57600080fd5b5061032361031e3660046127ea565b6110df565b6040516101c29190600060a082019050825182526020830151602083015260408301516040830152606083015160608301526080830151608083015292915050565b34801561037157600080fd5b506102ae611196565b34801561038657600080fd5b506101b86103953660046127ea565b611216565b3480156103a657600080fd5b506102ae611237565b3480156103bb57600080fd5b506101b86103ca3660046128d4565b6112c4565b3480156103db57600080fd5b506104037f000000000000000000000000000000000000000000000000000000000000000081565b60405190151581526020016101c2565b34801561041f57600080fd5b506104477f000000000000000000000000000000000000000000000000000000000000000081565b60405173ffffffffffffffffffffffffffffffffffffffff90911681526020016101c2565b34801561047857600080fd5b506102ae610487366004612848565b61130d565b34801561049857600080fd5b5060005473ffffffffffffffffffffffffffffffffffffffff16610447565b3480156104c357600080fd5b506104f66104d236600461281c565b60056020908152600092835260408084209091529082529020805460019091015482565b604080519283526020830191909152016101c2565b34801561051757600080fd5b506101b86105263660046127ea565b611834565b34801561053757600080fd5b506103236105463660046127ea565b611840565b34801561055757600080fd5b506102ae6105663660046127ad565b611c2f565b34801561057757600080fd5b506104477f000000000000000000000000000000000000000000000000000000000000000081565b3480156105ab57600080fd5b506101b86105ba36600461281c565b611d5f565b600360205281600052604060002081815481106105db57600080fd5b600091825260209091206003909102018054600182015460029092015490935090915083565b60005473ffffffffffffffffffffffffffffffffffffffff163314610687576040517f08c379a000000000000000000000000000000000000000000000000000000000815260206004820181905260248201527f4f776e61626c653a2063616c6c6572206973206e6f7420746865206f776e657260448201526064015b60405180910390fd5b600260015414156106f4576040517f08c379a000000000000000000000000000000000000000000000000000000000815260206004820152601f60248201527f5265656e7472616e637947756172643a207265656e7472616e742063616c6c00604482015260640161067e565b600260018190556000848152602091909152604080822090517f654c9ece000000000000000000000000000000000000000000000000000000008152600481018690529091907f000000000000000000000000000000000000000000000000000000000000000073ffffffffffffffffffffffffffffffffffffffff169063654c9ece9060240160206040518083038186803b15801561079357600080fd5b505afa1580156107a7573d6000803e3d6000fd5b505050506040513d601f19601f820116820180604052508101906107cb9190612803565b905060006107db86836000611ea2565b60048401549091506107ed868361295e565b111561087b576040517f08c379a000000000000000000000000000000000000000000000000000000000815260206004820152603260248201527f656d657267656e6379207265776172642077697468647261773a206e6f74206560448201527f6e6f7567682072657761726420746f6b656e0000000000000000000000000000606482015260840161067e565b8483600401600082825461088f91906129ee565b909155507f00000000000000000000000000000000000000000000000000000000000000009050610900576108fb73ffffffffffffffffffffffffffffffffffffffff7f000000000000000000000000000000000000000000000000000000000000000016858761217d565b6109f2565b60008473ffffffffffffffffffffffffffffffffffffffff168660405160006040518083038185875af1925050503d806000811461095a576040519150601f19603f3d011682016040523d82523d6000602084013e61095f565b606091505b50509050806109f0576040517f08c379a000000000000000000000000000000000000000000000000000000000815260206004820152602960248201527f656d657267656e6379207265776172642077697468647261773a206661696c6560448201527f6420746f2073656e640000000000000000000000000000000000000000000000606482015260840161067e565b505b50506001805550505050565b60005473ffffffffffffffffffffffffffffffffffffffff163314610a7f576040517f08c379a000000000000000000000000000000000000000000000000000000000815260206004820181905260248201527f4f776e61626c653a2063616c6c6572206973206e6f7420746865206f776e6572604482015260640161067e565b6000838152600360209081526040808320600290925290912081547f000000000000000000000000000000000000000000000000000000000000000011610b48576040517f08c379a000000000000000000000000000000000000000000000000000000000815260206004820152603560248201527f6164642072657761726420696e666f3a2072657761726420696e666f206c656e60448201527f677468206578636565647320746865206c696d69740000000000000000000000606482015260840161067e565b81541580610b885750815442908390610b63906001906129ee565b81548110610b7357610b73612a6d565b90600052602060002090600302016001015410155b610c13576040517f08c379a0000000000000000000000000000000000000000000000000000000008152602060048201526024808201527f6164642072657761726420696e666f3a2072657761726420706572696f64206560448201527f6e64656400000000000000000000000000000000000000000000000000000000606482015260840161067e565b81541580610c525750815484908390610c2e906001906129ee565b81548110610c3e57610c3e612a6d565b906000526020600020906003020160010154105b610cde576040517f08c379a000000000000000000000000000000000000000000000000000000000815260206004820152602560248201527f6164642072657761726420696e666f3a20626164206e657720656e6454696d6560448201527f7374616d70000000000000000000000000000000000000000000000000000000606482015260840161067e565b815460009015610d1f5782548390610cf8906001906129ee565b81548110610d0857610d08612a6d565b906000526020600020906003020160010154610d25565b81600101545b90506000610d3382876129ee565b90506000610d4186836129b1565b90507f0000000000000000000000000000000000000000000000000000000000000000610daf57610daa73ffffffffffffffffffffffffffffffffffffffff7f0000000000000000000000000000000000000000000000000000000000000000163330846122ed565b610e3e565b803414610e3e576040517f08c379a000000000000000000000000000000000000000000000000000000000815260206004820152602d60248201527f6164642072657761726420696e666f3a206e6f7420656e6f7567682066756e6460448201527f7320746f207472616e7366657200000000000000000000000000000000000000606482015260840161067e565b80846004016000828254610e52919061295e565b90915550506040805160608101825284815260208082018a8152928201898152885460018181018b5560008b8152939093209351600390910290930192835592518282015591516002909101558554610eab91906129ee565b60408051898152602081018990528a917fad90731bd0d97445f5af66088f3adebf343c520c20e033cc42f93b124258cdc2910160405180910390a35050505050505050565b6000610efc8242612466565b92915050565b60005473ffffffffffffffffffffffffffffffffffffffff163314610f83576040517f08c379a000000000000000000000000000000000000000000000000000000000815260206004820181905260248201527f4f776e61626c653a2063616c6c6572206973206e6f7420746865206f776e6572604482015260640161067e565b6000838152600260208190526040909120015415610ffd576040517f08c379a000000000000000000000000000000000000000000000000000000000815260206004820152601360248201527f706f6f6c20616c72656164792065786973747300000000000000000000000000604482015260640161067e565b816006600082825461100f919061295e565b90915550506040805160a0810182526000808252602080830185815283850186815260608501888152608086018581528a86526002948590528786209651875592516001808801919091559151938601939093559151600385015551600493840155825490810183559190527f8a35acfbc15ff81a39ae7d344fd709f28e8600b4aa8c65c6b64bfe7fe36bd19b018490555183907fa6b36ea399c1eae2ba98a011138f78722b48f46ad93349269348ccc6e8f1cced906110d29085815260200190565b60405180910390a2505050565b6111116040518060a0016040528060008152602001600081526020016000815260200160008152602001600081525090565b6002600154141561117e576040517f08c379a000000000000000000000000000000000000000000000000000000000815260206004820152601f60248201527f5265656e7472616e637947756172643a207265656e7472616e742063616c6c00604482015260640161067e565b600260015561118c82611840565b6001805592915050565b60026001541415611203576040517f08c379a000000000000000000000000000000000000000000000000000000000815260206004820152601f60248201527f5265656e7472616e637947756172643a207265656e7472616e742063616c6c00604482015260640161067e565b600260015561121061259a565b60018055565b6004818154811061122657600080fd5b600091825260209091200154905081565b60005473ffffffffffffffffffffffffffffffffffffffff1633146112b8576040517f08c379a000000000000000000000000000000000000000000000000000000000815260206004820181905260248201527f4f776e61626c653a2063616c6c6572206973206e6f7420746865206f776e6572604482015260640161067e565b6112c260006125e3565b565b600081841015806112d457508284115b156112e157506000611306565b8183116112f9576112f284846129ee565b9050611306565b61130384836129ee565b90505b9392505050565b3373ffffffffffffffffffffffffffffffffffffffff7f000000000000000000000000000000000000000000000000000000000000000016146113f8576040517f08c379a000000000000000000000000000000000000000000000000000000000815260206004820152604160248201527f6f6e6c794469737472696275746f7256323a206f6e6c7920456d62657244697360448201527f7472696275746f7256322063616e2063616c6c20746869732066756e6374696f60648201527f6e00000000000000000000000000000000000000000000000000000000000000608482015260a40161067e565b60026001541415611465576040517f08c379a000000000000000000000000000000000000000000000000000000000815260206004820152601f60248201527f5265656e7472616e637947756172643a207265656e7472616e742063616c6c00604482015260640161067e565b6002600155600061147584611840565b600085815260056020908152604080832073ffffffffffffffffffffffffffffffffffffffff881684529091528120919250807f0000000000000000000000000000000000000000000000000000000000000000156114d5575047611595565b6040517f70a082310000000000000000000000000000000000000000000000000000000081523060048201527f000000000000000000000000000000000000000000000000000000000000000073ffffffffffffffffffffffffffffffffffffffff16906370a082319060240160206040518083038186803b15801561155a57600080fd5b505afa15801561156e573d6000803e3d6000fd5b505050506040513d601f19601f820116820180604052508101906115929190612803565b90505b82541561179c576001830154845184547f0000000000000000000000000000000000000000000000000000000000000000916115d0916129b1565b6115da9190612976565b6115e491906129ee565b9150811561179c577f00000000000000000000000000000000000000000000000000000000000000001561170d57808211156116eb5760008673ffffffffffffffffffffffffffffffffffffffff16826040515b60006040518083038185875af1925050503d8060008114611675576040519150601f19603f3d011682016040523d82523d6000602084013e61167a565b606091505b50509050806116e5576040517f08c379a000000000000000000000000000000000000000000000000000000000815260206004820152600f60248201527f5472616e73666572206661696c65640000000000000000000000000000000000604482015260640161067e565b5061179c565b60008673ffffffffffffffffffffffffffffffffffffffff1683604051611638565b8082111561175b5761175673ffffffffffffffffffffffffffffffffffffffff7f000000000000000000000000000000000000000000000000000000000000000016878361217d565b61179c565b61179c73ffffffffffffffffffffffffffffffffffffffff7f000000000000000000000000000000000000000000000000000000000000000016878461217d565b84835583517f0000000000000000000000000000000000000000000000000000000000000000906117cd90876129b1565b6117d79190612976565b600184015560405182815273ffffffffffffffffffffffffffffffffffffffff8716907fd1072bb52c3131d0c96197b73fb8a45637e30f8b6664fc142310cc9b242859b49060200160405180910390a25050600180555050505050565b6000610efc8242612658565b6118726040518060a0016040528060008152602001600081526020016000815260200160008152602001600081525090565b506000818152600260208181526040808420815160a08101835281548152600182015481850152938101548483015260038082015460608601526004909101546080850152858552825280842080548251818502810185019093528083529394939192909190849084015b8282101561192d57838290600052602060002090600302016040518060600160405290816000820154815260200160018201548152602001600282015481525050815260200190600101906118dd565b505050509050816040015142116119445750919050565b6040517f654c9ece000000000000000000000000000000000000000000000000000000008152600481018490526000907f000000000000000000000000000000000000000000000000000000000000000073ffffffffffffffffffffffffffffffffffffffff169063654c9ece9060240160206040518083038186803b1580156119cd57600080fd5b505afa1580156119e1573d6000803e3d6000fd5b505050506040513d601f19601f82011682018060405250810190611a059190612803565b905080611a7057611a168442612658565b421115611a695742604084810182905284518151928352602083018490529082015284907f3be3541fc42237d611b30329040bfa4569541d156560acdbbae57640d20b8f46906060015b60405180910390a25b5050919050565b60005b8251811015611bb2576000611aaa856040015142868581518110611a9957611a99612a6d565b6020026020010151602001516112c4565b905080611ab75750611ba2565b838281518110611ac957611ac9612a6d565b602002602001015160200151421115611b0857838281518110611aee57611aee612a6d565b602002602001015160200151856040018181525050611b0f565b4260408601525b60006006548660600151868581518110611b2b57611b2b612a6d565b60200260200101516040015184611b4291906129b1565b611b4c91906129b1565b611b569190612976565b905083611b837f0000000000000000000000000000000000000000000000000000000000000000836129b1565b611b8d9190612976565b86518790611b9c90839061295e565b90525050505b611bab81612a05565b9050611a73565b506000848152600260208181526040928390208651808255878301516001830155878501519382018490556060808901516003840155608089015160049093019290925584519384529183018590529282015285917f3be3541fc42237d611b30329040bfa4569541d156560acdbbae57640d20b8f469101611a60565b60005473ffffffffffffffffffffffffffffffffffffffff163314611cb0576040517f08c379a000000000000000000000000000000000000000000000000000000000815260206004820181905260248201527f4f776e61626c653a2063616c6c6572206973206e6f7420746865206f776e6572604482015260640161067e565b73ffffffffffffffffffffffffffffffffffffffff8116611d53576040517f08c379a000000000000000000000000000000000000000000000000000000000815260206004820152602660248201527f4f776e61626c653a206e6577206f776e657220697320746865207a65726f206160448201527f6464726573730000000000000000000000000000000000000000000000000000606482015260840161067e565b611d5c816125e3565b50565b600082815260056020908152604080832073ffffffffffffffffffffffffffffffffffffffff8516845290915281208054600190910154611306918591611ea2565b3b151590565b60408051600481526024810182526020810180517bffffffffffffffffffffffffffffffffffffffffffffffffffffffff167f313ce5670000000000000000000000000000000000000000000000000000000017905290516000918291829173ffffffffffffffffffffffffffffffffffffffff861691611e289190612923565b600060405180830381855afa9150503d8060008114611e63576040519150601f19603f3d011682016040523d82523d6000602084013e611e68565b606091505b5091509150818015611e7b575080516020145b611e86576012611e9a565b80806020019051810190611e9a9190612900565b949350505050565b6000838152600260208181526040808420815160a08101835281548152600182015481850152938101548483015260038082015460608601526004909101546080850152878552825280842080548251818502810185019093528083528593849084015b82821015611f565783829060005260206000209060030201604051806060016040529081600082015481526020016001820154815260200160028201548152505081526020019060010190611f06565b505084516040517f654c9ece000000000000000000000000000000000000000000000000000000008152600481018b905293945092600092507f000000000000000000000000000000000000000000000000000000000000000073ffffffffffffffffffffffffffffffffffffffff16915063654c9ece9060240160206040518083038186803b158015611fe957600080fd5b505afa158015611ffd573d6000803e3d6000fd5b505050506040513d601f19601f820116820180604052508101906120219190612803565b905083604001514211801561203557508015155b1561213157604084015160005b845181101561212e5760006120648342888581518110611a9957611a99612a6d565b905080612071575061211e565b85828151811061208357612083612a6d565b6020026020010151602001519250600060065488606001518885815181106120ad576120ad612a6d565b602002602001015160400151846120c491906129b1565b6120ce91906129b1565b6120d89190612976565b9050846121057f0000000000000000000000000000000000000000000000000000000000000000836129b1565b61210f9190612976565b612119908761295e565b955050505b61212781612a05565b9050612042565b50505b857f000000000000000000000000000000000000000000000000000000000000000061215d848a6129b1565b6121679190612976565b61217191906129ee565b98975050505050505050565b6040805173ffffffffffffffffffffffffffffffffffffffff8481166024830152604480830185905283518084039091018152606490920183526020820180517bffffffffffffffffffffffffffffffffffffffffffffffffffffffff167fa9059cbb0000000000000000000000000000000000000000000000000000000017905291516000928392908716916122149190612923565b6000604051808303816000865af19150503d8060008114612251576040519150601f19603f3d011682016040523d82523d6000602084013e612256565b606091505b509150915081801561228057508051158061228057508080602001905181019061228091906127c8565b6122e6576040517f08c379a000000000000000000000000000000000000000000000000000000000815260206004820152601c60248201527f426f72696e6745524332303a205472616e73666572206661696c656400000000604482015260640161067e565b5050505050565b6040805173ffffffffffffffffffffffffffffffffffffffff85811660248301528481166044830152606480830185905283518084039091018152608490920183526020820180517bffffffffffffffffffffffffffffffffffffffffffffffffffffffff167f23b872dd00000000000000000000000000000000000000000000000000000000179052915160009283929088169161238c9190612923565b6000604051808303816000865af19150503d80600081146123c9576040519150601f19603f3d011682016040523d82523d6000602084013e6123ce565b606091505b50915091508180156123f85750805115806123f85750808060200190518101906123f891906127c8565b61245e576040517f08c379a000000000000000000000000000000000000000000000000000000000815260206004820181905260248201527f426f72696e6745524332303a205472616e7366657246726f6d206661696c6564604482015260640161067e565b505050505050565b600082815260036020908152604080832080548251818502810185019093528083528493849084015b828210156124df578382906000526020600020906003020160405180606001604052908160008201548152602001600182015481526020016002820154815250508152602001906001019061248f565b50505060008681526002602052604090208251929350919050806125095760009350505050610efc565b60005b8181101561258d5783818151811061252657612526612a6d565b602002602001015160200151861161257d57600654836003015485838151811061255257612552612a6d565b60200260200101516040015161256891906129b1565b6125729190612976565b945050505050610efc565b61258681612a05565b905061250c565b5060009695505050505050565b60045460005b818110156125df576125ce600482815481106125be576125be612a6d565b9060005260206000200154611840565b506125d881612a05565b90506125a0565b5050565b6000805473ffffffffffffffffffffffffffffffffffffffff8381167fffffffffffffffffffffffff0000000000000000000000000000000000000000831681178455604051919092169283917f8be0079c531659141344cd1fd0a4f28419497f9722a3daafe3b4186f6b6457e09190a35050565b600082815260036020908152604080832080548251818502810185019093528083528493849084015b828210156126d15783829060005260206000209060030201604051806060016040529081600082015481526020016001820154815260200160028201548152505081526020019060010190612681565b505082519293505050806126ea57600092505050610efc565b60005b818110156127515782818151811061270757612707612a6d565b60200260200101516020015185116127415782818151811061272b5761272b612a6d565b6020026020010151602001519350505050610efc565b61274a81612a05565b90506126ed565b508161275e6001836129ee565b8151811061276e5761276e612a6d565b6020026020010151602001519250505092915050565b803573ffffffffffffffffffffffffffffffffffffffff811681146127a857600080fd5b919050565b6000602082840312156127bf57600080fd5b61130682612784565b6000602082840312156127da57600080fd5b8151801515811461130657600080fd5b6000602082840312156127fc57600080fd5b5035919050565b60006020828403121561281557600080fd5b5051919050565b6000806040838503121561282f57600080fd5b8235915061283f60208401612784565b90509250929050565b60008060006060848603121561285d57600080fd5b8335925061286d60208501612784565b9150604084013590509250925092565b6000806040838503121561289057600080fd5b50508035926020909101359150565b6000806000606084860312156128b457600080fd5b83359250602084013591506128cb60408501612784565b90509250925092565b6000806000606084860312156128e957600080fd5b505081359360208301359350604090920135919050565b60006020828403121561291257600080fd5b815160ff8116811461130657600080fd5b6000825160005b81811015612944576020818601810151858301520161292a565b81811115612953576000828501525b509190910192915050565b6000821982111561297157612971612a3e565b500190565b6000826129ac577f4e487b7100000000000000000000000000000000000000000000000000000000600052601260045260246000fd5b500490565b6000817fffffffffffffffffffffffffffffffffffffffffffffffffffffffffffffffff04831182151516156129e9576129e9612a3e565b500290565b600082821015612a0057612a00612a3e565b500390565b60007fffffffffffffffffffffffffffffffffffffffffffffffffffffffffffffffff821415612a3757612a37612a3e565b5060010190565b7f4e487b7100000000000000000000000000000000000000000000000000000000600052601160045260246000fd5b7f4e487b7100000000000000000000000000000000000000000000000000000000600052603260045260246000fdfea2646970667358221220b95786d44e081aa6c09467635b2a5f59f92fd9ad2aa1fe77ab649de9b28e4a8964736f6c63430008070033",
          "opcodes": "PUSH2 0x120 PUSH1 0x40 MSTORE PUSH1 0x0 PUSH1 0x6 SSTORE PUSH1 0x34 PUSH1 0xE0 MSTORE CALLVALUE DUP1 ISZERO PUSH3 0x1C JUMPI PUSH1 0x0 DUP1 REVERT JUMPDEST POP PUSH1 0x40 MLOAD PUSH3 0x3126 CODESIZE SUB DUP1 PUSH3 0x3126 DUP4 CODECOPY DUP2 ADD PUSH1 0x40 DUP2 SWAP1 MSTORE PUSH3 0x3F SWAP2 PUSH3 0x376 JUMP JUMPDEST PUSH3 0x4A CALLER PUSH3 0x257 JUMP JUMPDEST PUSH1 0x1 DUP1 DUP2 SWAP1 SSTORE POP PUSH3 0x67 DUP4 PUSH3 0x2A7 PUSH1 0x20 SHL PUSH3 0x1DA1 OR PUSH1 0x20 SHR JUMP JUMPDEST PUSH3 0xD4 JUMPI PUSH1 0x40 MLOAD PUSH3 0x461BCD PUSH1 0xE5 SHL DUP2 MSTORE PUSH1 0x20 PUSH1 0x4 DUP3 ADD MSTORE PUSH1 0x32 PUSH1 0x24 DUP3 ADD MSTORE PUSH32 0x636F6E7374727563746F723A2072657761726420746F6B656E206D7573742062 PUSH1 0x44 DUP3 ADD MSTORE PUSH18 0x194818481D985B1A590818DBDB9D1C9858DD PUSH1 0x72 SHL PUSH1 0x64 DUP3 ADD MSTORE PUSH1 0x84 ADD JUMPDEST PUSH1 0x40 MLOAD DUP1 SWAP2 SUB SWAP1 REVERT JUMPDEST PUSH3 0xEA DUP3 PUSH3 0x2A7 PUSH1 0x20 SHL PUSH3 0x1DA1 OR PUSH1 0x20 SHR JUMP JUMPDEST PUSH3 0x15E JUMPI PUSH1 0x40 MLOAD PUSH3 0x461BCD PUSH1 0xE5 SHL DUP2 MSTORE PUSH1 0x20 PUSH1 0x4 DUP3 ADD MSTORE PUSH1 0x38 PUSH1 0x24 DUP3 ADD MSTORE PUSH32 0x636F6E7374727563746F723A20456D6265724469737472696275746F72563220 PUSH1 0x44 DUP3 ADD MSTORE PUSH32 0x6D75737420626520612076616C696420636F6E74726163740000000000000000 PUSH1 0x64 DUP3 ADD MSTORE PUSH1 0x84 ADD PUSH3 0xCB JUMP JUMPDEST PUSH1 0x1 PUSH1 0x1 PUSH1 0x60 SHL SUB NOT PUSH1 0x60 DUP5 DUP2 SHL DUP3 AND PUSH1 0x80 MSTORE DUP4 SWAP1 SHL AND PUSH1 0xA0 MSTORE DUP1 ISZERO ISZERO PUSH1 0xF8 SHL PUSH1 0xC0 MSTORE PUSH1 0x0 DUP2 PUSH3 0x1AE JUMPI PUSH3 0x1A8 DUP5 PUSH1 0x1 PUSH1 0x1 PUSH1 0xA0 SHL SUB AND PUSH3 0x2AD PUSH1 0x20 SHL PUSH3 0x1DA7 OR PUSH1 0x20 SHR JUMP JUMPDEST PUSH3 0x1B1 JUMP JUMPDEST PUSH1 0x12 JUMPDEST PUSH1 0xFF AND SWAP1 POP PUSH1 0x1E DUP2 LT PUSH3 0x22E JUMPI PUSH1 0x40 MLOAD PUSH3 0x461BCD PUSH1 0xE5 SHL DUP2 MSTORE PUSH1 0x20 PUSH1 0x4 DUP3 ADD MSTORE PUSH1 0x39 PUSH1 0x24 DUP3 ADD MSTORE PUSH32 0x636F6E7374727563746F723A2072657761726420746F6B656E20646563696D61 PUSH1 0x44 DUP3 ADD MSTORE PUSH32 0x6C73206D75737420626520696E666572696F7220746F20333000000000000000 PUSH1 0x64 DUP3 ADD MSTORE PUSH1 0x84 ADD PUSH3 0xCB JUMP JUMPDEST PUSH3 0x23B DUP2 PUSH1 0x1E PUSH3 0x53F JUMP JUMPDEST PUSH3 0x248 SWAP1 PUSH1 0xA PUSH3 0x481 JUMP JUMPDEST PUSH2 0x100 MSTORE POP PUSH3 0x588 SWAP3 POP POP POP JUMP JUMPDEST PUSH1 0x0 DUP1 SLOAD PUSH1 0x1 PUSH1 0x1 PUSH1 0xA0 SHL SUB DUP4 DUP2 AND PUSH1 0x1 PUSH1 0x1 PUSH1 0xA0 SHL SUB NOT DUP4 AND DUP2 OR DUP5 SSTORE PUSH1 0x40 MLOAD SWAP2 SWAP1 SWAP3 AND SWAP3 DUP4 SWAP2 PUSH32 0x8BE0079C531659141344CD1FD0A4F28419497F9722A3DAAFE3B4186F6B6457E0 SWAP2 SWAP1 LOG3 POP POP JUMP JUMPDEST EXTCODESIZE ISZERO ISZERO SWAP1 JUMP JUMPDEST PUSH1 0x40 DUP1 MLOAD PUSH1 0x4 DUP2 MSTORE PUSH1 0x24 DUP2 ADD DUP3 MSTORE PUSH1 0x20 DUP2 ADD DUP1 MLOAD PUSH1 0x1 PUSH1 0x1 PUSH1 0xE0 SHL SUB AND PUSH4 0x313CE567 PUSH1 0xE0 SHL OR SWAP1 MSTORE SWAP1 MLOAD PUSH1 0x0 SWAP2 DUP3 SWAP2 DUP3 SWAP2 PUSH1 0x1 PUSH1 0x1 PUSH1 0xA0 SHL SUB DUP7 AND SWAP2 PUSH3 0x2F5 SWAP2 SWAP1 PUSH3 0x3FA JUMP JUMPDEST PUSH1 0x0 PUSH1 0x40 MLOAD DUP1 DUP4 SUB DUP2 DUP6 GAS STATICCALL SWAP2 POP POP RETURNDATASIZE DUP1 PUSH1 0x0 DUP2 EQ PUSH3 0x332 JUMPI PUSH1 0x40 MLOAD SWAP2 POP PUSH1 0x1F NOT PUSH1 0x3F RETURNDATASIZE ADD AND DUP3 ADD PUSH1 0x40 MSTORE RETURNDATASIZE DUP3 MSTORE RETURNDATASIZE PUSH1 0x0 PUSH1 0x20 DUP5 ADD RETURNDATACOPY PUSH3 0x337 JUMP JUMPDEST PUSH1 0x60 SWAP2 POP JUMPDEST POP SWAP2 POP SWAP2 POP DUP2 DUP1 ISZERO PUSH3 0x34B JUMPI POP DUP1 MLOAD PUSH1 0x20 EQ JUMPDEST PUSH3 0x358 JUMPI PUSH1 0x12 PUSH3 0x36E JUMP JUMPDEST DUP1 DUP1 PUSH1 0x20 ADD SWAP1 MLOAD DUP2 ADD SWAP1 PUSH3 0x36E SWAP2 SWAP1 PUSH3 0x3CE JUMP JUMPDEST SWAP5 SWAP4 POP POP POP POP JUMP JUMPDEST PUSH1 0x0 DUP1 PUSH1 0x0 PUSH1 0x60 DUP5 DUP7 SUB SLT ISZERO PUSH3 0x38C JUMPI PUSH1 0x0 DUP1 REVERT JUMPDEST DUP4 MLOAD PUSH3 0x399 DUP2 PUSH3 0x56F JUMP JUMPDEST PUSH1 0x20 DUP6 ADD MLOAD SWAP1 SWAP4 POP PUSH3 0x3AC DUP2 PUSH3 0x56F JUMP JUMPDEST PUSH1 0x40 DUP6 ADD MLOAD SWAP1 SWAP3 POP DUP1 ISZERO ISZERO DUP2 EQ PUSH3 0x3C3 JUMPI PUSH1 0x0 DUP1 REVERT JUMPDEST DUP1 SWAP2 POP POP SWAP3 POP SWAP3 POP SWAP3 JUMP JUMPDEST PUSH1 0x0 PUSH1 0x20 DUP3 DUP5 SUB SLT ISZERO PUSH3 0x3E1 JUMPI PUSH1 0x0 DUP1 REVERT JUMPDEST DUP2 MLOAD PUSH1 0xFF DUP2 AND DUP2 EQ PUSH3 0x3F3 JUMPI PUSH1 0x0 DUP1 REVERT JUMPDEST SWAP4 SWAP3 POP POP POP JUMP JUMPDEST PUSH1 0x0 DUP3 MLOAD PUSH1 0x0 JUMPDEST DUP2 DUP2 LT ISZERO PUSH3 0x41D JUMPI PUSH1 0x20 DUP2 DUP7 ADD DUP2 ADD MLOAD DUP6 DUP4 ADD MSTORE ADD PUSH3 0x401 JUMP JUMPDEST DUP2 DUP2 GT ISZERO PUSH3 0x42D JUMPI PUSH1 0x0 DUP3 DUP6 ADD MSTORE JUMPDEST POP SWAP2 SWAP1 SWAP2 ADD SWAP3 SWAP2 POP POP JUMP JUMPDEST PUSH1 0x1 DUP2 DUP2 JUMPDEST DUP1 DUP6 GT ISZERO PUSH3 0x479 JUMPI DUP2 PUSH1 0x0 NOT DIV DUP3 GT ISZERO PUSH3 0x45D JUMPI PUSH3 0x45D PUSH3 0x559 JUMP JUMPDEST DUP1 DUP6 AND ISZERO PUSH3 0x46B JUMPI SWAP2 DUP2 MUL SWAP2 JUMPDEST SWAP4 DUP5 SHR SWAP4 SWAP1 DUP1 MUL SWAP1 PUSH3 0x43D JUMP JUMPDEST POP SWAP3 POP SWAP3 SWAP1 POP JUMP JUMPDEST PUSH1 0x0 PUSH3 0x3F3 DUP4 DUP4 PUSH1 0x0 DUP3 PUSH3 0x49A JUMPI POP PUSH1 0x1 PUSH3 0x539 JUMP JUMPDEST DUP2 PUSH3 0x4A9 JUMPI POP PUSH1 0x0 PUSH3 0x539 JUMP JUMPDEST DUP2 PUSH1 0x1 DUP2 EQ PUSH3 0x4C2 JUMPI PUSH1 0x2 DUP2 EQ PUSH3 0x4CD JUMPI PUSH3 0x4ED JUMP JUMPDEST PUSH1 0x1 SWAP2 POP POP PUSH3 0x539 JUMP JUMPDEST PUSH1 0xFF DUP5 GT ISZERO PUSH3 0x4E1 JUMPI PUSH3 0x4E1 PUSH3 0x559 JUMP JUMPDEST POP POP PUSH1 0x1 DUP3 SHL PUSH3 0x539 JUMP JUMPDEST POP PUSH1 0x20 DUP4 LT PUSH2 0x133 DUP4 LT AND PUSH1 0x4E DUP5 LT PUSH1 0xB DUP5 LT AND OR ISZERO PUSH3 0x512 JUMPI POP DUP2 DUP2 EXP PUSH3 0x539 JUMP JUMPDEST PUSH3 0x51E DUP4 DUP4 PUSH3 0x438 JUMP JUMPDEST DUP1 PUSH1 0x0 NOT DIV DUP3 GT ISZERO PUSH3 0x535 JUMPI PUSH3 0x535 PUSH3 0x559 JUMP JUMPDEST MUL SWAP1 POP JUMPDEST SWAP3 SWAP2 POP POP JUMP JUMPDEST PUSH1 0x0 DUP3 DUP3 LT ISZERO PUSH3 0x554 JUMPI PUSH3 0x554 PUSH3 0x559 JUMP JUMPDEST POP SUB SWAP1 JUMP JUMPDEST PUSH4 0x4E487B71 PUSH1 0xE0 SHL PUSH1 0x0 MSTORE PUSH1 0x11 PUSH1 0x4 MSTORE PUSH1 0x24 PUSH1 0x0 REVERT JUMPDEST PUSH1 0x1 PUSH1 0x1 PUSH1 0xA0 SHL SUB DUP2 AND DUP2 EQ PUSH3 0x585 JUMPI PUSH1 0x0 DUP1 REVERT JUMPDEST POP JUMP JUMPDEST PUSH1 0x80 MLOAD PUSH1 0x60 SHR PUSH1 0xA0 MLOAD PUSH1 0x60 SHR PUSH1 0xC0 MLOAD PUSH1 0xF8 SHR PUSH1 0xE0 MLOAD PUSH2 0x100 MLOAD PUSH2 0x2AD2 PUSH3 0x654 PUSH1 0x0 CODECOPY PUSH1 0x0 DUP2 DUP2 PUSH2 0x15A7 ADD MSTORE DUP2 DUP2 PUSH2 0x17A3 ADD MSTORE DUP2 DUP2 PUSH2 0x1B5E ADD MSTORE DUP2 DUP2 PUSH2 0x20E0 ADD MSTORE PUSH2 0x2134 ADD MSTORE PUSH1 0x0 DUP2 DUP2 PUSH2 0x196 ADD MSTORE PUSH2 0xA9C ADD MSTORE PUSH1 0x0 DUP2 DUP2 PUSH2 0x3E1 ADD MSTORE DUP2 DUP2 PUSH2 0x895 ADD MSTORE DUP2 DUP2 PUSH2 0xD45 ADD MSTORE DUP2 DUP2 PUSH2 0x14AA ADD MSTORE PUSH2 0x15EE ADD MSTORE PUSH1 0x0 DUP2 DUP2 PUSH2 0x425 ADD MSTORE DUP2 DUP2 PUSH2 0x73C ADD MSTORE DUP2 DUP2 PUSH2 0x1325 ADD MSTORE DUP2 DUP2 PUSH2 0x1976 ADD MSTORE PUSH2 0x1F91 ADD MSTORE PUSH1 0x0 DUP2 DUP2 PUSH2 0x57D ADD MSTORE DUP2 DUP2 PUSH2 0x8D4 ADD MSTORE DUP2 DUP2 PUSH2 0xD82 ADD MSTORE DUP2 DUP2 PUSH2 0x1503 ADD MSTORE DUP2 DUP2 PUSH2 0x172F ADD MSTORE PUSH2 0x1775 ADD MSTORE PUSH2 0x2AD2 PUSH1 0x0 RETURN INVALID PUSH1 0x80 PUSH1 0x40 MSTORE PUSH1 0x4 CALLDATASIZE LT PUSH2 0x17F JUMPI PUSH1 0x0 CALLDATALOAD PUSH1 0xE0 SHR DUP1 PUSH4 0x715018A6 GT PUSH2 0xD6 JUMPI DUP1 PUSH4 0x93F1A40B GT PUSH2 0x7F JUMPI DUP1 PUSH4 0xF2FDE38B GT PUSH2 0x59 JUMPI DUP1 PUSH4 0xF2FDE38B EQ PUSH2 0x54B JUMPI DUP1 PUSH4 0xF7C618C1 EQ PUSH2 0x56B JUMPI DUP1 PUSH4 0xFFCD4263 EQ PUSH2 0x59F JUMPI PUSH1 0x0 DUP1 REVERT JUMPDEST DUP1 PUSH4 0x93F1A40B EQ PUSH2 0x4B7 JUMPI DUP1 PUSH4 0x9E494BEE EQ PUSH2 0x50B JUMPI DUP1 PUSH4 0xD4AA89B5 EQ PUSH2 0x52B JUMPI PUSH1 0x0 DUP1 REVERT JUMPDEST DUP1 PUSH4 0x7D0D9D5F GT PUSH2 0xB0 JUMPI DUP1 PUSH4 0x7D0D9D5F EQ PUSH2 0x413 JUMPI DUP1 PUSH4 0x8AD14728 EQ PUSH2 0x46C JUMPI DUP1 PUSH4 0x8DA5CB5B EQ PUSH2 0x48C JUMPI PUSH1 0x0 DUP1 REVERT JUMPDEST DUP1 PUSH4 0x715018A6 EQ PUSH2 0x39A JUMPI DUP1 PUSH4 0x72333631 EQ PUSH2 0x3AF JUMPI DUP1 PUSH4 0x73CFC6B2 EQ PUSH2 0x3CF JUMPI PUSH1 0x0 DUP1 REVERT JUMPDEST DUP1 PUSH4 0x2EA807C5 GT PUSH2 0x138 JUMPI DUP1 PUSH4 0x51EB05A6 GT PUSH2 0x112 JUMPI DUP1 PUSH4 0x51EB05A6 EQ PUSH2 0x303 JUMPI DUP1 PUSH4 0x630B5BA1 EQ PUSH2 0x365 JUMPI DUP1 PUSH4 0x69883B4E EQ PUSH2 0x37A JUMPI PUSH1 0x0 DUP1 REVERT JUMPDEST DUP1 PUSH4 0x2EA807C5 EQ PUSH2 0x2B0 JUMPI DUP1 PUSH4 0x465E81EC EQ PUSH2 0x2C3 JUMPI DUP1 PUSH4 0x505FB46C EQ PUSH2 0x2E3 JUMPI PUSH1 0x0 DUP1 REVERT JUMPDEST DUP1 PUSH4 0x1526FE27 GT PUSH2 0x169 JUMPI DUP1 PUSH4 0x1526FE27 EQ PUSH2 0x206 JUMPI DUP1 PUSH4 0x17CAF6F1 EQ PUSH2 0x278 JUMPI DUP1 PUSH4 0x1D123131 EQ PUSH2 0x28E JUMPI PUSH1 0x0 DUP1 REVERT JUMPDEST DUP1 PUSH3 0xD74850 EQ PUSH2 0x184 JUMPI DUP1 PUSH4 0x832CFBF EQ PUSH2 0x1CB JUMPI JUMPDEST PUSH1 0x0 DUP1 REVERT JUMPDEST CALLVALUE DUP1 ISZERO PUSH2 0x190 JUMPI PUSH1 0x0 DUP1 REVERT JUMPDEST POP PUSH2 0x1B8 PUSH32 0x0 DUP2 JUMP JUMPDEST PUSH1 0x40 MLOAD SWAP1 DUP2 MSTORE PUSH1 0x20 ADD JUMPDEST PUSH1 0x40 MLOAD DUP1 SWAP2 SUB SWAP1 RETURN JUMPDEST CALLVALUE DUP1 ISZERO PUSH2 0x1D7 JUMPI PUSH1 0x0 DUP1 REVERT JUMPDEST POP PUSH2 0x1EB PUSH2 0x1E6 CALLDATASIZE PUSH1 0x4 PUSH2 0x287D JUMP JUMPDEST PUSH2 0x5BF JUMP JUMPDEST PUSH1 0x40 DUP1 MLOAD SWAP4 DUP5 MSTORE PUSH1 0x20 DUP5 ADD SWAP3 SWAP1 SWAP3 MSTORE SWAP1 DUP3 ADD MSTORE PUSH1 0x60 ADD PUSH2 0x1C2 JUMP JUMPDEST CALLVALUE DUP1 ISZERO PUSH2 0x212 JUMPI PUSH1 0x0 DUP1 REVERT JUMPDEST POP PUSH2 0x250 PUSH2 0x221 CALLDATASIZE PUSH1 0x4 PUSH2 0x27EA JUMP JUMPDEST PUSH1 0x2 PUSH1 0x20 DUP2 SWAP1 MSTORE PUSH1 0x0 SWAP2 DUP3 MSTORE PUSH1 0x40 SWAP1 SWAP2 KECCAK256 DUP1 SLOAD PUSH1 0x1 DUP3 ADD SLOAD SWAP3 DUP3 ADD SLOAD PUSH1 0x3 DUP4 ADD SLOAD PUSH1 0x4 SWAP1 SWAP4 ADD SLOAD SWAP2 SWAP4 SWAP3 SWAP1 SWAP2 DUP6 JUMP JUMPDEST PUSH1 0x40 DUP1 MLOAD SWAP6 DUP7 MSTORE PUSH1 0x20 DUP7 ADD SWAP5 SWAP1 SWAP5 MSTORE SWAP3 DUP5 ADD SWAP2 SWAP1 SWAP2 MSTORE PUSH1 0x60 DUP4 ADD MSTORE PUSH1 0x80 DUP3 ADD MSTORE PUSH1 0xA0 ADD PUSH2 0x1C2 JUMP JUMPDEST CALLVALUE DUP1 ISZERO PUSH2 0x284 JUMPI PUSH1 0x0 DUP1 REVERT JUMPDEST POP PUSH2 0x1B8 PUSH1 0x6 SLOAD DUP2 JUMP JUMPDEST CALLVALUE DUP1 ISZERO PUSH2 0x29A JUMPI PUSH1 0x0 DUP1 REVERT JUMPDEST POP PUSH2 0x2AE PUSH2 0x2A9 CALLDATASIZE PUSH1 0x4 PUSH2 0x289F JUMP JUMPDEST PUSH2 0x601 JUMP JUMPDEST STOP JUMPDEST PUSH2 0x2AE PUSH2 0x2BE CALLDATASIZE PUSH1 0x4 PUSH2 0x28D4 JUMP JUMPDEST PUSH2 0x9FE JUMP JUMPDEST CALLVALUE DUP1 ISZERO PUSH2 0x2CF JUMPI PUSH1 0x0 DUP1 REVERT JUMPDEST POP PUSH2 0x1B8 PUSH2 0x2DE CALLDATASIZE PUSH1 0x4 PUSH2 0x27EA JUMP JUMPDEST PUSH2 0xEF0 JUMP JUMPDEST CALLVALUE DUP1 ISZERO PUSH2 0x2EF JUMPI PUSH1 0x0 DUP1 REVERT JUMPDEST POP PUSH2 0x2AE PUSH2 0x2FE CALLDATASIZE PUSH1 0x4 PUSH2 0x28D4 JUMP JUMPDEST PUSH2 0xF02 JUMP JUMPDEST CALLVALUE DUP1 ISZERO PUSH2 0x30F JUMPI PUSH1 0x0 DUP1 REVERT JUMPDEST POP PUSH2 0x323 PUSH2 0x31E CALLDATASIZE PUSH1 0x4 PUSH2 0x27EA JUMP JUMPDEST PUSH2 0x10DF JUMP JUMPDEST PUSH1 0x40 MLOAD PUSH2 0x1C2 SWAP2 SWAP1 PUSH1 0x0 PUSH1 0xA0 DUP3 ADD SWAP1 POP DUP3 MLOAD DUP3 MSTORE PUSH1 0x20 DUP4 ADD MLOAD PUSH1 0x20 DUP4 ADD MSTORE PUSH1 0x40 DUP4 ADD MLOAD PUSH1 0x40 DUP4 ADD MSTORE PUSH1 0x60 DUP4 ADD MLOAD PUSH1 0x60 DUP4 ADD MSTORE PUSH1 0x80 DUP4 ADD MLOAD PUSH1 0x80 DUP4 ADD MSTORE SWAP3 SWAP2 POP POP JUMP JUMPDEST CALLVALUE DUP1 ISZERO PUSH2 0x371 JUMPI PUSH1 0x0 DUP1 REVERT JUMPDEST POP PUSH2 0x2AE PUSH2 0x1196 JUMP JUMPDEST CALLVALUE DUP1 ISZERO PUSH2 0x386 JUMPI PUSH1 0x0 DUP1 REVERT JUMPDEST POP PUSH2 0x1B8 PUSH2 0x395 CALLDATASIZE PUSH1 0x4 PUSH2 0x27EA JUMP JUMPDEST PUSH2 0x1216 JUMP JUMPDEST CALLVALUE DUP1 ISZERO PUSH2 0x3A6 JUMPI PUSH1 0x0 DUP1 REVERT JUMPDEST POP PUSH2 0x2AE PUSH2 0x1237 JUMP JUMPDEST CALLVALUE DUP1 ISZERO PUSH2 0x3BB JUMPI PUSH1 0x0 DUP1 REVERT JUMPDEST POP PUSH2 0x1B8 PUSH2 0x3CA CALLDATASIZE PUSH1 0x4 PUSH2 0x28D4 JUMP JUMPDEST PUSH2 0x12C4 JUMP JUMPDEST CALLVALUE DUP1 ISZERO PUSH2 0x3DB JUMPI PUSH1 0x0 DUP1 REVERT JUMPDEST POP PUSH2 0x403 PUSH32 0x0 DUP2 JUMP JUMPDEST PUSH1 0x40 MLOAD SWAP1 ISZERO ISZERO DUP2 MSTORE PUSH1 0x20 ADD PUSH2 0x1C2 JUMP JUMPDEST CALLVALUE DUP1 ISZERO PUSH2 0x41F JUMPI PUSH1 0x0 DUP1 REVERT JUMPDEST POP PUSH2 0x447 PUSH32 0x0 DUP2 JUMP JUMPDEST PUSH1 0x40 MLOAD PUSH20 0xFFFFFFFFFFFFFFFFFFFFFFFFFFFFFFFFFFFFFFFF SWAP1 SWAP2 AND DUP2 MSTORE PUSH1 0x20 ADD PUSH2 0x1C2 JUMP JUMPDEST CALLVALUE DUP1 ISZERO PUSH2 0x478 JUMPI PUSH1 0x0 DUP1 REVERT JUMPDEST POP PUSH2 0x2AE PUSH2 0x487 CALLDATASIZE PUSH1 0x4 PUSH2 0x2848 JUMP JUMPDEST PUSH2 0x130D JUMP JUMPDEST CALLVALUE DUP1 ISZERO PUSH2 0x498 JUMPI PUSH1 0x0 DUP1 REVERT JUMPDEST POP PUSH1 0x0 SLOAD PUSH20 0xFFFFFFFFFFFFFFFFFFFFFFFFFFFFFFFFFFFFFFFF AND PUSH2 0x447 JUMP JUMPDEST CALLVALUE DUP1 ISZERO PUSH2 0x4C3 JUMPI PUSH1 0x0 DUP1 REVERT JUMPDEST POP PUSH2 0x4F6 PUSH2 0x4D2 CALLDATASIZE PUSH1 0x4 PUSH2 0x281C JUMP JUMPDEST PUSH1 0x5 PUSH1 0x20 SWAP1 DUP2 MSTORE PUSH1 0x0 SWAP3 DUP4 MSTORE PUSH1 0x40 DUP1 DUP5 KECCAK256 SWAP1 SWAP2 MSTORE SWAP1 DUP3 MSTORE SWAP1 KECCAK256 DUP1 SLOAD PUSH1 0x1 SWAP1 SWAP2 ADD SLOAD DUP3 JUMP JUMPDEST PUSH1 0x40 DUP1 MLOAD SWAP3 DUP4 MSTORE PUSH1 0x20 DUP4 ADD SWAP2 SWAP1 SWAP2 MSTORE ADD PUSH2 0x1C2 JUMP JUMPDEST CALLVALUE DUP1 ISZERO PUSH2 0x517 JUMPI PUSH1 0x0 DUP1 REVERT JUMPDEST POP PUSH2 0x1B8 PUSH2 0x526 CALLDATASIZE PUSH1 0x4 PUSH2 0x27EA JUMP JUMPDEST PUSH2 0x1834 JUMP JUMPDEST CALLVALUE DUP1 ISZERO PUSH2 0x537 JUMPI PUSH1 0x0 DUP1 REVERT JUMPDEST POP PUSH2 0x323 PUSH2 0x546 CALLDATASIZE PUSH1 0x4 PUSH2 0x27EA JUMP JUMPDEST PUSH2 0x1840 JUMP JUMPDEST CALLVALUE DUP1 ISZERO PUSH2 0x557 JUMPI PUSH1 0x0 DUP1 REVERT JUMPDEST POP PUSH2 0x2AE PUSH2 0x566 CALLDATASIZE PUSH1 0x4 PUSH2 0x27AD JUMP JUMPDEST PUSH2 0x1C2F JUMP JUMPDEST CALLVALUE DUP1 ISZERO PUSH2 0x577 JUMPI PUSH1 0x0 DUP1 REVERT JUMPDEST POP PUSH2 0x447 PUSH32 0x0 DUP2 JUMP JUMPDEST CALLVALUE DUP1 ISZERO PUSH2 0x5AB JUMPI PUSH1 0x0 DUP1 REVERT JUMPDEST POP PUSH2 0x1B8 PUSH2 0x5BA CALLDATASIZE PUSH1 0x4 PUSH2 0x281C JUMP JUMPDEST PUSH2 0x1D5F JUMP JUMPDEST PUSH1 0x3 PUSH1 0x20 MSTORE DUP2 PUSH1 0x0 MSTORE PUSH1 0x40 PUSH1 0x0 KECCAK256 DUP2 DUP2 SLOAD DUP2 LT PUSH2 0x5DB JUMPI PUSH1 0x0 DUP1 REVERT JUMPDEST PUSH1 0x0 SWAP2 DUP3 MSTORE PUSH1 0x20 SWAP1 SWAP2 KECCAK256 PUSH1 0x3 SWAP1 SWAP2 MUL ADD DUP1 SLOAD PUSH1 0x1 DUP3 ADD SLOAD PUSH1 0x2 SWAP1 SWAP3 ADD SLOAD SWAP1 SWAP4 POP SWAP1 SWAP2 POP DUP4 JUMP JUMPDEST PUSH1 0x0 SLOAD PUSH20 0xFFFFFFFFFFFFFFFFFFFFFFFFFFFFFFFFFFFFFFFF AND CALLER EQ PUSH2 0x687 JUMPI PUSH1 0x40 MLOAD PUSH32 0x8C379A000000000000000000000000000000000000000000000000000000000 DUP2 MSTORE PUSH1 0x20 PUSH1 0x4 DUP3 ADD DUP2 SWAP1 MSTORE PUSH1 0x24 DUP3 ADD MSTORE PUSH32 0x4F776E61626C653A2063616C6C6572206973206E6F7420746865206F776E6572 PUSH1 0x44 DUP3 ADD MSTORE PUSH1 0x64 ADD JUMPDEST PUSH1 0x40 MLOAD DUP1 SWAP2 SUB SWAP1 REVERT JUMPDEST PUSH1 0x2 PUSH1 0x1 SLOAD EQ ISZERO PUSH2 0x6F4 JUMPI PUSH1 0x40 MLOAD PUSH32 0x8C379A000000000000000000000000000000000000000000000000000000000 DUP2 MSTORE PUSH1 0x20 PUSH1 0x4 DUP3 ADD MSTORE PUSH1 0x1F PUSH1 0x24 DUP3 ADD MSTORE PUSH32 0x5265656E7472616E637947756172643A207265656E7472616E742063616C6C00 PUSH1 0x44 DUP3 ADD MSTORE PUSH1 0x64 ADD PUSH2 0x67E JUMP JUMPDEST PUSH1 0x2 PUSH1 0x1 DUP2 SWAP1 SSTORE PUSH1 0x0 DUP5 DUP2 MSTORE PUSH1 0x20 SWAP2 SWAP1 SWAP2 MSTORE PUSH1 0x40 DUP1 DUP3 KECCAK256 SWAP1 MLOAD PUSH32 0x654C9ECE00000000000000000000000000000000000000000000000000000000 DUP2 MSTORE PUSH1 0x4 DUP2 ADD DUP7 SWAP1 MSTORE SWAP1 SWAP2 SWAP1 PUSH32 0x0 PUSH20 0xFFFFFFFFFFFFFFFFFFFFFFFFFFFFFFFFFFFFFFFF AND SWAP1 PUSH4 0x654C9ECE SWAP1 PUSH1 0x24 ADD PUSH1 0x20 PUSH1 0x40 MLOAD DUP1 DUP4 SUB DUP2 DUP7 DUP1 EXTCODESIZE ISZERO DUP1 ISZERO PUSH2 0x793 JUMPI PUSH1 0x0 DUP1 REVERT JUMPDEST POP GAS STATICCALL ISZERO DUP1 ISZERO PUSH2 0x7A7 JUMPI RETURNDATASIZE PUSH1 0x0 DUP1 RETURNDATACOPY RETURNDATASIZE PUSH1 0x0 REVERT JUMPDEST POP POP POP POP PUSH1 0x40 MLOAD RETURNDATASIZE PUSH1 0x1F NOT PUSH1 0x1F DUP3 ADD AND DUP3 ADD DUP1 PUSH1 0x40 MSTORE POP DUP2 ADD SWAP1 PUSH2 0x7CB SWAP2 SWAP1 PUSH2 0x2803 JUMP JUMPDEST SWAP1 POP PUSH1 0x0 PUSH2 0x7DB DUP7 DUP4 PUSH1 0x0 PUSH2 0x1EA2 JUMP JUMPDEST PUSH1 0x4 DUP5 ADD SLOAD SWAP1 SWAP2 POP PUSH2 0x7ED DUP7 DUP4 PUSH2 0x295E JUMP JUMPDEST GT ISZERO PUSH2 0x87B JUMPI PUSH1 0x40 MLOAD PUSH32 0x8C379A000000000000000000000000000000000000000000000000000000000 DUP2 MSTORE PUSH1 0x20 PUSH1 0x4 DUP3 ADD MSTORE PUSH1 0x32 PUSH1 0x24 DUP3 ADD MSTORE PUSH32 0x656D657267656E6379207265776172642077697468647261773A206E6F742065 PUSH1 0x44 DUP3 ADD MSTORE PUSH32 0x6E6F7567682072657761726420746F6B656E0000000000000000000000000000 PUSH1 0x64 DUP3 ADD MSTORE PUSH1 0x84 ADD PUSH2 0x67E JUMP JUMPDEST DUP5 DUP4 PUSH1 0x4 ADD PUSH1 0x0 DUP3 DUP3 SLOAD PUSH2 0x88F SWAP2 SWAP1 PUSH2 0x29EE JUMP JUMPDEST SWAP1 SWAP2 SSTORE POP PUSH32 0x0 SWAP1 POP PUSH2 0x900 JUMPI PUSH2 0x8FB PUSH20 0xFFFFFFFFFFFFFFFFFFFFFFFFFFFFFFFFFFFFFFFF PUSH32 0x0 AND DUP6 DUP8 PUSH2 0x217D JUMP JUMPDEST PUSH2 0x9F2 JUMP JUMPDEST PUSH1 0x0 DUP5 PUSH20 0xFFFFFFFFFFFFFFFFFFFFFFFFFFFFFFFFFFFFFFFF AND DUP7 PUSH1 0x40 MLOAD PUSH1 0x0 PUSH1 0x40 MLOAD DUP1 DUP4 SUB DUP2 DUP6 DUP8 GAS CALL SWAP3 POP POP POP RETURNDATASIZE DUP1 PUSH1 0x0 DUP2 EQ PUSH2 0x95A JUMPI PUSH1 0x40 MLOAD SWAP2 POP PUSH1 0x1F NOT PUSH1 0x3F RETURNDATASIZE ADD AND DUP3 ADD PUSH1 0x40 MSTORE RETURNDATASIZE DUP3 MSTORE RETURNDATASIZE PUSH1 0x0 PUSH1 0x20 DUP5 ADD RETURNDATACOPY PUSH2 0x95F JUMP JUMPDEST PUSH1 0x60 SWAP2 POP JUMPDEST POP POP SWAP1 POP DUP1 PUSH2 0x9F0 JUMPI PUSH1 0x40 MLOAD PUSH32 0x8C379A000000000000000000000000000000000000000000000000000000000 DUP2 MSTORE PUSH1 0x20 PUSH1 0x4 DUP3 ADD MSTORE PUSH1 0x29 PUSH1 0x24 DUP3 ADD MSTORE PUSH32 0x656D657267656E6379207265776172642077697468647261773A206661696C65 PUSH1 0x44 DUP3 ADD MSTORE PUSH32 0x6420746F2073656E640000000000000000000000000000000000000000000000 PUSH1 0x64 DUP3 ADD MSTORE PUSH1 0x84 ADD PUSH2 0x67E JUMP JUMPDEST POP JUMPDEST POP POP PUSH1 0x1 DUP1 SSTORE POP POP POP POP JUMP JUMPDEST PUSH1 0x0 SLOAD PUSH20 0xFFFFFFFFFFFFFFFFFFFFFFFFFFFFFFFFFFFFFFFF AND CALLER EQ PUSH2 0xA7F JUMPI PUSH1 0x40 MLOAD PUSH32 0x8C379A000000000000000000000000000000000000000000000000000000000 DUP2 MSTORE PUSH1 0x20 PUSH1 0x4 DUP3 ADD DUP2 SWAP1 MSTORE PUSH1 0x24 DUP3 ADD MSTORE PUSH32 0x4F776E61626C653A2063616C6C6572206973206E6F7420746865206F776E6572 PUSH1 0x44 DUP3 ADD MSTORE PUSH1 0x64 ADD PUSH2 0x67E JUMP JUMPDEST PUSH1 0x0 DUP4 DUP2 MSTORE PUSH1 0x3 PUSH1 0x20 SWAP1 DUP2 MSTORE PUSH1 0x40 DUP1 DUP4 KECCAK256 PUSH1 0x2 SWAP1 SWAP3 MSTORE SWAP1 SWAP2 KECCAK256 DUP2 SLOAD PUSH32 0x0 GT PUSH2 0xB48 JUMPI PUSH1 0x40 MLOAD PUSH32 0x8C379A000000000000000000000000000000000000000000000000000000000 DUP2 MSTORE PUSH1 0x20 PUSH1 0x4 DUP3 ADD MSTORE PUSH1 0x35 PUSH1 0x24 DUP3 ADD MSTORE PUSH32 0x6164642072657761726420696E666F3A2072657761726420696E666F206C656E PUSH1 0x44 DUP3 ADD MSTORE PUSH32 0x677468206578636565647320746865206C696D69740000000000000000000000 PUSH1 0x64 DUP3 ADD MSTORE PUSH1 0x84 ADD PUSH2 0x67E JUMP JUMPDEST DUP2 SLOAD ISZERO DUP1 PUSH2 0xB88 JUMPI POP DUP2 SLOAD TIMESTAMP SWAP1 DUP4 SWAP1 PUSH2 0xB63 SWAP1 PUSH1 0x1 SWAP1 PUSH2 0x29EE JUMP JUMPDEST DUP2 SLOAD DUP2 LT PUSH2 0xB73 JUMPI PUSH2 0xB73 PUSH2 0x2A6D JUMP JUMPDEST SWAP1 PUSH1 0x0 MSTORE PUSH1 0x20 PUSH1 0x0 KECCAK256 SWAP1 PUSH1 0x3 MUL ADD PUSH1 0x1 ADD SLOAD LT ISZERO JUMPDEST PUSH2 0xC13 JUMPI PUSH1 0x40 MLOAD PUSH32 0x8C379A000000000000000000000000000000000000000000000000000000000 DUP2 MSTORE PUSH1 0x20 PUSH1 0x4 DUP3 ADD MSTORE PUSH1 0x24 DUP1 DUP3 ADD MSTORE PUSH32 0x6164642072657761726420696E666F3A2072657761726420706572696F642065 PUSH1 0x44 DUP3 ADD MSTORE PUSH32 0x6E64656400000000000000000000000000000000000000000000000000000000 PUSH1 0x64 DUP3 ADD MSTORE PUSH1 0x84 ADD PUSH2 0x67E JUMP JUMPDEST DUP2 SLOAD ISZERO DUP1 PUSH2 0xC52 JUMPI POP DUP2 SLOAD DUP5 SWAP1 DUP4 SWAP1 PUSH2 0xC2E SWAP1 PUSH1 0x1 SWAP1 PUSH2 0x29EE JUMP JUMPDEST DUP2 SLOAD DUP2 LT PUSH2 0xC3E JUMPI PUSH2 0xC3E PUSH2 0x2A6D JUMP JUMPDEST SWAP1 PUSH1 0x0 MSTORE PUSH1 0x20 PUSH1 0x0 KECCAK256 SWAP1 PUSH1 0x3 MUL ADD PUSH1 0x1 ADD SLOAD LT JUMPDEST PUSH2 0xCDE JUMPI PUSH1 0x40 MLOAD PUSH32 0x8C379A000000000000000000000000000000000000000000000000000000000 DUP2 MSTORE PUSH1 0x20 PUSH1 0x4 DUP3 ADD MSTORE PUSH1 0x25 PUSH1 0x24 DUP3 ADD MSTORE PUSH32 0x6164642072657761726420696E666F3A20626164206E657720656E6454696D65 PUSH1 0x44 DUP3 ADD MSTORE PUSH32 0x7374616D70000000000000000000000000000000000000000000000000000000 PUSH1 0x64 DUP3 ADD MSTORE PUSH1 0x84 ADD PUSH2 0x67E JUMP JUMPDEST DUP2 SLOAD PUSH1 0x0 SWAP1 ISZERO PUSH2 0xD1F JUMPI DUP3 SLOAD DUP4 SWAP1 PUSH2 0xCF8 SWAP1 PUSH1 0x1 SWAP1 PUSH2 0x29EE JUMP JUMPDEST DUP2 SLOAD DUP2 LT PUSH2 0xD08 JUMPI PUSH2 0xD08 PUSH2 0x2A6D JUMP JUMPDEST SWAP1 PUSH1 0x0 MSTORE PUSH1 0x20 PUSH1 0x0 KECCAK256 SWAP1 PUSH1 0x3 MUL ADD PUSH1 0x1 ADD SLOAD PUSH2 0xD25 JUMP JUMPDEST DUP2 PUSH1 0x1 ADD SLOAD JUMPDEST SWAP1 POP PUSH1 0x0 PUSH2 0xD33 DUP3 DUP8 PUSH2 0x29EE JUMP JUMPDEST SWAP1 POP PUSH1 0x0 PUSH2 0xD41 DUP7 DUP4 PUSH2 0x29B1 JUMP JUMPDEST SWAP1 POP PUSH32 0x0 PUSH2 0xDAF JUMPI PUSH2 0xDAA PUSH20 0xFFFFFFFFFFFFFFFFFFFFFFFFFFFFFFFFFFFFFFFF PUSH32 0x0 AND CALLER ADDRESS DUP5 PUSH2 0x22ED JUMP JUMPDEST PUSH2 0xE3E JUMP JUMPDEST DUP1 CALLVALUE EQ PUSH2 0xE3E JUMPI PUSH1 0x40 MLOAD PUSH32 0x8C379A000000000000000000000000000000000000000000000000000000000 DUP2 MSTORE PUSH1 0x20 PUSH1 0x4 DUP3 ADD MSTORE PUSH1 0x2D PUSH1 0x24 DUP3 ADD MSTORE PUSH32 0x6164642072657761726420696E666F3A206E6F7420656E6F7567682066756E64 PUSH1 0x44 DUP3 ADD MSTORE PUSH32 0x7320746F207472616E7366657200000000000000000000000000000000000000 PUSH1 0x64 DUP3 ADD MSTORE PUSH1 0x84 ADD PUSH2 0x67E JUMP JUMPDEST DUP1 DUP5 PUSH1 0x4 ADD PUSH1 0x0 DUP3 DUP3 SLOAD PUSH2 0xE52 SWAP2 SWAP1 PUSH2 0x295E JUMP JUMPDEST SWAP1 SWAP2 SSTORE POP POP PUSH1 0x40 DUP1 MLOAD PUSH1 0x60 DUP2 ADD DUP3 MSTORE DUP5 DUP2 MSTORE PUSH1 0x20 DUP1 DUP3 ADD DUP11 DUP2 MSTORE SWAP3 DUP3 ADD DUP10 DUP2 MSTORE DUP9 SLOAD PUSH1 0x1 DUP2 DUP2 ADD DUP12 SSTORE PUSH1 0x0 DUP12 DUP2 MSTORE SWAP4 SWAP1 SWAP4 KECCAK256 SWAP4 MLOAD PUSH1 0x3 SWAP1 SWAP2 MUL SWAP1 SWAP4 ADD SWAP3 DUP4 SSTORE SWAP3 MLOAD DUP3 DUP3 ADD SSTORE SWAP2 MLOAD PUSH1 0x2 SWAP1 SWAP2 ADD SSTORE DUP6 SLOAD PUSH2 0xEAB SWAP2 SWAP1 PUSH2 0x29EE JUMP JUMPDEST PUSH1 0x40 DUP1 MLOAD DUP10 DUP2 MSTORE PUSH1 0x20 DUP2 ADD DUP10 SWAP1 MSTORE DUP11 SWAP2 PUSH32 0xAD90731BD0D97445F5AF66088F3ADEBF343C520C20E033CC42F93B124258CDC2 SWAP2 ADD PUSH1 0x40 MLOAD DUP1 SWAP2 SUB SWAP1 LOG3 POP POP POP POP POP POP POP POP JUMP JUMPDEST PUSH1 0x0 PUSH2 0xEFC DUP3 TIMESTAMP PUSH2 0x2466 JUMP JUMPDEST SWAP3 SWAP2 POP POP JUMP JUMPDEST PUSH1 0x0 SLOAD PUSH20 0xFFFFFFFFFFFFFFFFFFFFFFFFFFFFFFFFFFFFFFFF AND CALLER EQ PUSH2 0xF83 JUMPI PUSH1 0x40 MLOAD PUSH32 0x8C379A000000000000000000000000000000000000000000000000000000000 DUP2 MSTORE PUSH1 0x20 PUSH1 0x4 DUP3 ADD DUP2 SWAP1 MSTORE PUSH1 0x24 DUP3 ADD MSTORE PUSH32 0x4F776E61626C653A2063616C6C6572206973206E6F7420746865206F776E6572 PUSH1 0x44 DUP3 ADD MSTORE PUSH1 0x64 ADD PUSH2 0x67E JUMP JUMPDEST PUSH1 0x0 DUP4 DUP2 MSTORE PUSH1 0x2 PUSH1 0x20 DUP2 SWAP1 MSTORE PUSH1 0x40 SWAP1 SWAP2 KECCAK256 ADD SLOAD ISZERO PUSH2 0xFFD JUMPI PUSH1 0x40 MLOAD PUSH32 0x8C379A000000000000000000000000000000000000000000000000000000000 DUP2 MSTORE PUSH1 0x20 PUSH1 0x4 DUP3 ADD MSTORE PUSH1 0x13 PUSH1 0x24 DUP3 ADD MSTORE PUSH32 0x706F6F6C20616C72656164792065786973747300000000000000000000000000 PUSH1 0x44 DUP3 ADD MSTORE PUSH1 0x64 ADD PUSH2 0x67E JUMP JUMPDEST DUP2 PUSH1 0x6 PUSH1 0x0 DUP3 DUP3 SLOAD PUSH2 0x100F SWAP2 SWAP1 PUSH2 0x295E JUMP JUMPDEST SWAP1 SWAP2 SSTORE POP POP PUSH1 0x40 DUP1 MLOAD PUSH1 0xA0 DUP2 ADD DUP3 MSTORE PUSH1 0x0 DUP1 DUP3 MSTORE PUSH1 0x20 DUP1 DUP4 ADD DUP6 DUP2 MSTORE DUP4 DUP6 ADD DUP7 DUP2 MSTORE PUSH1 0x60 DUP6 ADD DUP9 DUP2 MSTORE PUSH1 0x80 DUP7 ADD DUP6 DUP2 MSTORE DUP11 DUP7 MSTORE PUSH1 0x2 SWAP5 DUP6 SWAP1 MSTORE DUP8 DUP7 KECCAK256 SWAP7 MLOAD DUP8 SSTORE SWAP3 MLOAD PUSH1 0x1 DUP1 DUP9 ADD SWAP2 SWAP1 SWAP2 SSTORE SWAP2 MLOAD SWAP4 DUP7 ADD SWAP4 SWAP1 SWAP4 SSTORE SWAP2 MLOAD PUSH1 0x3 DUP6 ADD SSTORE MLOAD PUSH1 0x4 SWAP4 DUP5 ADD SSTORE DUP3 SLOAD SWAP1 DUP2 ADD DUP4 SSTORE SWAP2 SWAP1 MSTORE PUSH32 0x8A35ACFBC15FF81A39AE7D344FD709F28E8600B4AA8C65C6B64BFE7FE36BD19B ADD DUP5 SWAP1 SSTORE MLOAD DUP4 SWAP1 PUSH32 0xA6B36EA399C1EAE2BA98A011138F78722B48F46AD93349269348CCC6E8F1CCED SWAP1 PUSH2 0x10D2 SWAP1 DUP6 DUP2 MSTORE PUSH1 0x20 ADD SWAP1 JUMP JUMPDEST PUSH1 0x40 MLOAD DUP1 SWAP2 SUB SWAP1 LOG2 POP POP POP JUMP JUMPDEST PUSH2 0x1111 PUSH1 0x40 MLOAD DUP1 PUSH1 0xA0 ADD PUSH1 0x40 MSTORE DUP1 PUSH1 0x0 DUP2 MSTORE PUSH1 0x20 ADD PUSH1 0x0 DUP2 MSTORE PUSH1 0x20 ADD PUSH1 0x0 DUP2 MSTORE PUSH1 0x20 ADD PUSH1 0x0 DUP2 MSTORE PUSH1 0x20 ADD PUSH1 0x0 DUP2 MSTORE POP SWAP1 JUMP JUMPDEST PUSH1 0x2 PUSH1 0x1 SLOAD EQ ISZERO PUSH2 0x117E JUMPI PUSH1 0x40 MLOAD PUSH32 0x8C379A000000000000000000000000000000000000000000000000000000000 DUP2 MSTORE PUSH1 0x20 PUSH1 0x4 DUP3 ADD MSTORE PUSH1 0x1F PUSH1 0x24 DUP3 ADD MSTORE PUSH32 0x5265656E7472616E637947756172643A207265656E7472616E742063616C6C00 PUSH1 0x44 DUP3 ADD MSTORE PUSH1 0x64 ADD PUSH2 0x67E JUMP JUMPDEST PUSH1 0x2 PUSH1 0x1 SSTORE PUSH2 0x118C DUP3 PUSH2 0x1840 JUMP JUMPDEST PUSH1 0x1 DUP1 SSTORE SWAP3 SWAP2 POP POP JUMP JUMPDEST PUSH1 0x2 PUSH1 0x1 SLOAD EQ ISZERO PUSH2 0x1203 JUMPI PUSH1 0x40 MLOAD PUSH32 0x8C379A000000000000000000000000000000000000000000000000000000000 DUP2 MSTORE PUSH1 0x20 PUSH1 0x4 DUP3 ADD MSTORE PUSH1 0x1F PUSH1 0x24 DUP3 ADD MSTORE PUSH32 0x5265656E7472616E637947756172643A207265656E7472616E742063616C6C00 PUSH1 0x44 DUP3 ADD MSTORE PUSH1 0x64 ADD PUSH2 0x67E JUMP JUMPDEST PUSH1 0x2 PUSH1 0x1 SSTORE PUSH2 0x1210 PUSH2 0x259A JUMP JUMPDEST PUSH1 0x1 DUP1 SSTORE JUMP JUMPDEST PUSH1 0x4 DUP2 DUP2 SLOAD DUP2 LT PUSH2 0x1226 JUMPI PUSH1 0x0 DUP1 REVERT JUMPDEST PUSH1 0x0 SWAP2 DUP3 MSTORE PUSH1 0x20 SWAP1 SWAP2 KECCAK256 ADD SLOAD SWAP1 POP DUP2 JUMP JUMPDEST PUSH1 0x0 SLOAD PUSH20 0xFFFFFFFFFFFFFFFFFFFFFFFFFFFFFFFFFFFFFFFF AND CALLER EQ PUSH2 0x12B8 JUMPI PUSH1 0x40 MLOAD PUSH32 0x8C379A000000000000000000000000000000000000000000000000000000000 DUP2 MSTORE PUSH1 0x20 PUSH1 0x4 DUP3 ADD DUP2 SWAP1 MSTORE PUSH1 0x24 DUP3 ADD MSTORE PUSH32 0x4F776E61626C653A2063616C6C6572206973206E6F7420746865206F776E6572 PUSH1 0x44 DUP3 ADD MSTORE PUSH1 0x64 ADD PUSH2 0x67E JUMP JUMPDEST PUSH2 0x12C2 PUSH1 0x0 PUSH2 0x25E3 JUMP JUMPDEST JUMP JUMPDEST PUSH1 0x0 DUP2 DUP5 LT ISZERO DUP1 PUSH2 0x12D4 JUMPI POP DUP3 DUP5 GT JUMPDEST ISZERO PUSH2 0x12E1 JUMPI POP PUSH1 0x0 PUSH2 0x1306 JUMP JUMPDEST DUP2 DUP4 GT PUSH2 0x12F9 JUMPI PUSH2 0x12F2 DUP5 DUP5 PUSH2 0x29EE JUMP JUMPDEST SWAP1 POP PUSH2 0x1306 JUMP JUMPDEST PUSH2 0x1303 DUP5 DUP4 PUSH2 0x29EE JUMP JUMPDEST SWAP1 POP JUMPDEST SWAP4 SWAP3 POP POP POP JUMP JUMPDEST CALLER PUSH20 0xFFFFFFFFFFFFFFFFFFFFFFFFFFFFFFFFFFFFFFFF PUSH32 0x0 AND EQ PUSH2 0x13F8 JUMPI PUSH1 0x40 MLOAD PUSH32 0x8C379A000000000000000000000000000000000000000000000000000000000 DUP2 MSTORE PUSH1 0x20 PUSH1 0x4 DUP3 ADD MSTORE PUSH1 0x41 PUSH1 0x24 DUP3 ADD MSTORE PUSH32 0x6F6E6C794469737472696275746F7256323A206F6E6C7920456D626572446973 PUSH1 0x44 DUP3 ADD MSTORE PUSH32 0x7472696275746F7256322063616E2063616C6C20746869732066756E6374696F PUSH1 0x64 DUP3 ADD MSTORE PUSH32 0x6E00000000000000000000000000000000000000000000000000000000000000 PUSH1 0x84 DUP3 ADD MSTORE PUSH1 0xA4 ADD PUSH2 0x67E JUMP JUMPDEST PUSH1 0x2 PUSH1 0x1 SLOAD EQ ISZERO PUSH2 0x1465 JUMPI PUSH1 0x40 MLOAD PUSH32 0x8C379A000000000000000000000000000000000000000000000000000000000 DUP2 MSTORE PUSH1 0x20 PUSH1 0x4 DUP3 ADD MSTORE PUSH1 0x1F PUSH1 0x24 DUP3 ADD MSTORE PUSH32 0x5265656E7472616E637947756172643A207265656E7472616E742063616C6C00 PUSH1 0x44 DUP3 ADD MSTORE PUSH1 0x64 ADD PUSH2 0x67E JUMP JUMPDEST PUSH1 0x2 PUSH1 0x1 SSTORE PUSH1 0x0 PUSH2 0x1475 DUP5 PUSH2 0x1840 JUMP JUMPDEST PUSH1 0x0 DUP6 DUP2 MSTORE PUSH1 0x5 PUSH1 0x20 SWAP1 DUP2 MSTORE PUSH1 0x40 DUP1 DUP4 KECCAK256 PUSH20 0xFFFFFFFFFFFFFFFFFFFFFFFFFFFFFFFFFFFFFFFF DUP9 AND DUP5 MSTORE SWAP1 SWAP2 MSTORE DUP2 KECCAK256 SWAP2 SWAP3 POP DUP1 PUSH32 0x0 ISZERO PUSH2 0x14D5 JUMPI POP SELFBALANCE PUSH2 0x1595 JUMP JUMPDEST PUSH1 0x40 MLOAD PUSH32 0x70A0823100000000000000000000000000000000000000000000000000000000 DUP2 MSTORE ADDRESS PUSH1 0x4 DUP3 ADD MSTORE PUSH32 0x0 PUSH20 0xFFFFFFFFFFFFFFFFFFFFFFFFFFFFFFFFFFFFFFFF AND SWAP1 PUSH4 0x70A08231 SWAP1 PUSH1 0x24 ADD PUSH1 0x20 PUSH1 0x40 MLOAD DUP1 DUP4 SUB DUP2 DUP7 DUP1 EXTCODESIZE ISZERO DUP1 ISZERO PUSH2 0x155A JUMPI PUSH1 0x0 DUP1 REVERT JUMPDEST POP GAS STATICCALL ISZERO DUP1 ISZERO PUSH2 0x156E JUMPI RETURNDATASIZE PUSH1 0x0 DUP1 RETURNDATACOPY RETURNDATASIZE PUSH1 0x0 REVERT JUMPDEST POP POP POP POP PUSH1 0x40 MLOAD RETURNDATASIZE PUSH1 0x1F NOT PUSH1 0x1F DUP3 ADD AND DUP3 ADD DUP1 PUSH1 0x40 MSTORE POP DUP2 ADD SWAP1 PUSH2 0x1592 SWAP2 SWAP1 PUSH2 0x2803 JUMP JUMPDEST SWAP1 POP JUMPDEST DUP3 SLOAD ISZERO PUSH2 0x179C JUMPI PUSH1 0x1 DUP4 ADD SLOAD DUP5 MLOAD DUP5 SLOAD PUSH32 0x0 SWAP2 PUSH2 0x15D0 SWAP2 PUSH2 0x29B1 JUMP JUMPDEST PUSH2 0x15DA SWAP2 SWAP1 PUSH2 0x2976 JUMP JUMPDEST PUSH2 0x15E4 SWAP2 SWAP1 PUSH2 0x29EE JUMP JUMPDEST SWAP2 POP DUP2 ISZERO PUSH2 0x179C JUMPI PUSH32 0x0 ISZERO PUSH2 0x170D JUMPI DUP1 DUP3 GT ISZERO PUSH2 0x16EB JUMPI PUSH1 0x0 DUP7 PUSH20 0xFFFFFFFFFFFFFFFFFFFFFFFFFFFFFFFFFFFFFFFF AND DUP3 PUSH1 0x40 MLOAD JUMPDEST PUSH1 0x0 PUSH1 0x40 MLOAD DUP1 DUP4 SUB DUP2 DUP6 DUP8 GAS CALL SWAP3 POP POP POP RETURNDATASIZE DUP1 PUSH1 0x0 DUP2 EQ PUSH2 0x1675 JUMPI PUSH1 0x40 MLOAD SWAP2 POP PUSH1 0x1F NOT PUSH1 0x3F RETURNDATASIZE ADD AND DUP3 ADD PUSH1 0x40 MSTORE RETURNDATASIZE DUP3 MSTORE RETURNDATASIZE PUSH1 0x0 PUSH1 0x20 DUP5 ADD RETURNDATACOPY PUSH2 0x167A JUMP JUMPDEST PUSH1 0x60 SWAP2 POP JUMPDEST POP POP SWAP1 POP DUP1 PUSH2 0x16E5 JUMPI PUSH1 0x40 MLOAD PUSH32 0x8C379A000000000000000000000000000000000000000000000000000000000 DUP2 MSTORE PUSH1 0x20 PUSH1 0x4 DUP3 ADD MSTORE PUSH1 0xF PUSH1 0x24 DUP3 ADD MSTORE PUSH32 0x5472616E73666572206661696C65640000000000000000000000000000000000 PUSH1 0x44 DUP3 ADD MSTORE PUSH1 0x64 ADD PUSH2 0x67E JUMP JUMPDEST POP PUSH2 0x179C JUMP JUMPDEST PUSH1 0x0 DUP7 PUSH20 0xFFFFFFFFFFFFFFFFFFFFFFFFFFFFFFFFFFFFFFFF AND DUP4 PUSH1 0x40 MLOAD PUSH2 0x1638 JUMP JUMPDEST DUP1 DUP3 GT ISZERO PUSH2 0x175B JUMPI PUSH2 0x1756 PUSH20 0xFFFFFFFFFFFFFFFFFFFFFFFFFFFFFFFFFFFFFFFF PUSH32 0x0 AND DUP8 DUP4 PUSH2 0x217D JUMP JUMPDEST PUSH2 0x179C JUMP JUMPDEST PUSH2 0x179C PUSH20 0xFFFFFFFFFFFFFFFFFFFFFFFFFFFFFFFFFFFFFFFF PUSH32 0x0 AND DUP8 DUP5 PUSH2 0x217D JUMP JUMPDEST DUP5 DUP4 SSTORE DUP4 MLOAD PUSH32 0x0 SWAP1 PUSH2 0x17CD SWAP1 DUP8 PUSH2 0x29B1 JUMP JUMPDEST PUSH2 0x17D7 SWAP2 SWAP1 PUSH2 0x2976 JUMP JUMPDEST PUSH1 0x1 DUP5 ADD SSTORE PUSH1 0x40 MLOAD DUP3 DUP2 MSTORE PUSH20 0xFFFFFFFFFFFFFFFFFFFFFFFFFFFFFFFFFFFFFFFF DUP8 AND SWAP1 PUSH32 0xD1072BB52C3131D0C96197B73FB8A45637E30F8B6664FC142310CC9B242859B4 SWAP1 PUSH1 0x20 ADD PUSH1 0x40 MLOAD DUP1 SWAP2 SUB SWAP1 LOG2 POP POP PUSH1 0x1 DUP1 SSTORE POP POP POP POP POP JUMP JUMPDEST PUSH1 0x0 PUSH2 0xEFC DUP3 TIMESTAMP PUSH2 0x2658 JUMP JUMPDEST PUSH2 0x1872 PUSH1 0x40 MLOAD DUP1 PUSH1 0xA0 ADD PUSH1 0x40 MSTORE DUP1 PUSH1 0x0 DUP2 MSTORE PUSH1 0x20 ADD PUSH1 0x0 DUP2 MSTORE PUSH1 0x20 ADD PUSH1 0x0 DUP2 MSTORE PUSH1 0x20 ADD PUSH1 0x0 DUP2 MSTORE PUSH1 0x20 ADD PUSH1 0x0 DUP2 MSTORE POP SWAP1 JUMP JUMPDEST POP PUSH1 0x0 DUP2 DUP2 MSTORE PUSH1 0x2 PUSH1 0x20 DUP2 DUP2 MSTORE PUSH1 0x40 DUP1 DUP5 KECCAK256 DUP2 MLOAD PUSH1 0xA0 DUP2 ADD DUP4 MSTORE DUP2 SLOAD DUP2 MSTORE PUSH1 0x1 DUP3 ADD SLOAD DUP2 DUP6 ADD MSTORE SWAP4 DUP2 ADD SLOAD DUP5 DUP4 ADD MSTORE PUSH1 0x3 DUP1 DUP3 ADD SLOAD PUSH1 0x60 DUP7 ADD MSTORE PUSH1 0x4 SWAP1 SWAP2 ADD SLOAD PUSH1 0x80 DUP6 ADD MSTORE DUP6 DUP6 MSTORE DUP3 MSTORE DUP1 DUP5 KECCAK256 DUP1 SLOAD DUP3 MLOAD DUP2 DUP6 MUL DUP2 ADD DUP6 ADD SWAP1 SWAP4 MSTORE DUP1 DUP4 MSTORE SWAP4 SWAP5 SWAP4 SWAP2 SWAP3 SWAP1 SWAP2 SWAP1 DUP5 SWAP1 DUP5 ADD JUMPDEST DUP3 DUP3 LT ISZERO PUSH2 0x192D JUMPI DUP4 DUP3 SWAP1 PUSH1 0x0 MSTORE PUSH1 0x20 PUSH1 0x0 KECCAK256 SWAP1 PUSH1 0x3 MUL ADD PUSH1 0x40 MLOAD DUP1 PUSH1 0x60 ADD PUSH1 0x40 MSTORE SWAP1 DUP2 PUSH1 0x0 DUP3 ADD SLOAD DUP2 MSTORE PUSH1 0x20 ADD PUSH1 0x1 DUP3 ADD SLOAD DUP2 MSTORE PUSH1 0x20 ADD PUSH1 0x2 DUP3 ADD SLOAD DUP2 MSTORE POP POP DUP2 MSTORE PUSH1 0x20 ADD SWAP1 PUSH1 0x1 ADD SWAP1 PUSH2 0x18DD JUMP JUMPDEST POP POP POP POP SWAP1 POP DUP2 PUSH1 0x40 ADD MLOAD TIMESTAMP GT PUSH2 0x1944 JUMPI POP SWAP2 SWAP1 POP JUMP JUMPDEST PUSH1 0x40 MLOAD PUSH32 0x654C9ECE00000000000000000000000000000000000000000000000000000000 DUP2 MSTORE PUSH1 0x4 DUP2 ADD DUP5 SWAP1 MSTORE PUSH1 0x0 SWAP1 PUSH32 0x0 PUSH20 0xFFFFFFFFFFFFFFFFFFFFFFFFFFFFFFFFFFFFFFFF AND SWAP1 PUSH4 0x654C9ECE SWAP1 PUSH1 0x24 ADD PUSH1 0x20 PUSH1 0x40 MLOAD DUP1 DUP4 SUB DUP2 DUP7 DUP1 EXTCODESIZE ISZERO DUP1 ISZERO PUSH2 0x19CD JUMPI PUSH1 0x0 DUP1 REVERT JUMPDEST POP GAS STATICCALL ISZERO DUP1 ISZERO PUSH2 0x19E1 JUMPI RETURNDATASIZE PUSH1 0x0 DUP1 RETURNDATACOPY RETURNDATASIZE PUSH1 0x0 REVERT JUMPDEST POP POP POP POP PUSH1 0x40 MLOAD RETURNDATASIZE PUSH1 0x1F NOT PUSH1 0x1F DUP3 ADD AND DUP3 ADD DUP1 PUSH1 0x40 MSTORE POP DUP2 ADD SWAP1 PUSH2 0x1A05 SWAP2 SWAP1 PUSH2 0x2803 JUMP JUMPDEST SWAP1 POP DUP1 PUSH2 0x1A70 JUMPI PUSH2 0x1A16 DUP5 TIMESTAMP PUSH2 0x2658 JUMP JUMPDEST TIMESTAMP GT ISZERO PUSH2 0x1A69 JUMPI TIMESTAMP PUSH1 0x40 DUP5 DUP2 ADD DUP3 SWAP1 MSTORE DUP5 MLOAD DUP2 MLOAD SWAP3 DUP4 MSTORE PUSH1 0x20 DUP4 ADD DUP5 SWAP1 MSTORE SWAP1 DUP3 ADD MSTORE DUP5 SWAP1 PUSH32 0x3BE3541FC42237D611B30329040BFA4569541D156560ACDBBAE57640D20B8F46 SWAP1 PUSH1 0x60 ADD JUMPDEST PUSH1 0x40 MLOAD DUP1 SWAP2 SUB SWAP1 LOG2 JUMPDEST POP POP SWAP2 SWAP1 POP JUMP JUMPDEST PUSH1 0x0 JUMPDEST DUP3 MLOAD DUP2 LT ISZERO PUSH2 0x1BB2 JUMPI PUSH1 0x0 PUSH2 0x1AAA DUP6 PUSH1 0x40 ADD MLOAD TIMESTAMP DUP7 DUP6 DUP2 MLOAD DUP2 LT PUSH2 0x1A99 JUMPI PUSH2 0x1A99 PUSH2 0x2A6D JUMP JUMPDEST PUSH1 0x20 MUL PUSH1 0x20 ADD ADD MLOAD PUSH1 0x20 ADD MLOAD PUSH2 0x12C4 JUMP JUMPDEST SWAP1 POP DUP1 PUSH2 0x1AB7 JUMPI POP PUSH2 0x1BA2 JUMP JUMPDEST DUP4 DUP3 DUP2 MLOAD DUP2 LT PUSH2 0x1AC9 JUMPI PUSH2 0x1AC9 PUSH2 0x2A6D JUMP JUMPDEST PUSH1 0x20 MUL PUSH1 0x20 ADD ADD MLOAD PUSH1 0x20 ADD MLOAD TIMESTAMP GT ISZERO PUSH2 0x1B08 JUMPI DUP4 DUP3 DUP2 MLOAD DUP2 LT PUSH2 0x1AEE JUMPI PUSH2 0x1AEE PUSH2 0x2A6D JUMP JUMPDEST PUSH1 0x20 MUL PUSH1 0x20 ADD ADD MLOAD PUSH1 0x20 ADD MLOAD DUP6 PUSH1 0x40 ADD DUP2 DUP2 MSTORE POP POP PUSH2 0x1B0F JUMP JUMPDEST TIMESTAMP PUSH1 0x40 DUP7 ADD MSTORE JUMPDEST PUSH1 0x0 PUSH1 0x6 SLOAD DUP7 PUSH1 0x60 ADD MLOAD DUP7 DUP6 DUP2 MLOAD DUP2 LT PUSH2 0x1B2B JUMPI PUSH2 0x1B2B PUSH2 0x2A6D JUMP JUMPDEST PUSH1 0x20 MUL PUSH1 0x20 ADD ADD MLOAD PUSH1 0x40 ADD MLOAD DUP5 PUSH2 0x1B42 SWAP2 SWAP1 PUSH2 0x29B1 JUMP JUMPDEST PUSH2 0x1B4C SWAP2 SWAP1 PUSH2 0x29B1 JUMP JUMPDEST PUSH2 0x1B56 SWAP2 SWAP1 PUSH2 0x2976 JUMP JUMPDEST SWAP1 POP DUP4 PUSH2 0x1B83 PUSH32 0x0 DUP4 PUSH2 0x29B1 JUMP JUMPDEST PUSH2 0x1B8D SWAP2 SWAP1 PUSH2 0x2976 JUMP JUMPDEST DUP7 MLOAD DUP8 SWAP1 PUSH2 0x1B9C SWAP1 DUP4 SWAP1 PUSH2 0x295E JUMP JUMPDEST SWAP1 MSTORE POP POP POP JUMPDEST PUSH2 0x1BAB DUP2 PUSH2 0x2A05 JUMP JUMPDEST SWAP1 POP PUSH2 0x1A73 JUMP JUMPDEST POP PUSH1 0x0 DUP5 DUP2 MSTORE PUSH1 0x2 PUSH1 0x20 DUP2 DUP2 MSTORE PUSH1 0x40 SWAP3 DUP4 SWAP1 KECCAK256 DUP7 MLOAD DUP1 DUP3 SSTORE DUP8 DUP4 ADD MLOAD PUSH1 0x1 DUP4 ADD SSTORE DUP8 DUP6 ADD MLOAD SWAP4 DUP3 ADD DUP5 SWAP1 SSTORE PUSH1 0x60 DUP1 DUP10 ADD MLOAD PUSH1 0x3 DUP5 ADD SSTORE PUSH1 0x80 DUP10 ADD MLOAD PUSH1 0x4 SWAP1 SWAP4 ADD SWAP3 SWAP1 SWAP3 SSTORE DUP5 MLOAD SWAP4 DUP5 MSTORE SWAP2 DUP4 ADD DUP6 SWAP1 MSTORE SWAP3 DUP3 ADD MSTORE DUP6 SWAP2 PUSH32 0x3BE3541FC42237D611B30329040BFA4569541D156560ACDBBAE57640D20B8F46 SWAP2 ADD PUSH2 0x1A60 JUMP JUMPDEST PUSH1 0x0 SLOAD PUSH20 0xFFFFFFFFFFFFFFFFFFFFFFFFFFFFFFFFFFFFFFFF AND CALLER EQ PUSH2 0x1CB0 JUMPI PUSH1 0x40 MLOAD PUSH32 0x8C379A000000000000000000000000000000000000000000000000000000000 DUP2 MSTORE PUSH1 0x20 PUSH1 0x4 DUP3 ADD DUP2 SWAP1 MSTORE PUSH1 0x24 DUP3 ADD MSTORE PUSH32 0x4F776E61626C653A2063616C6C6572206973206E6F7420746865206F776E6572 PUSH1 0x44 DUP3 ADD MSTORE PUSH1 0x64 ADD PUSH2 0x67E JUMP JUMPDEST PUSH20 0xFFFFFFFFFFFFFFFFFFFFFFFFFFFFFFFFFFFFFFFF DUP2 AND PUSH2 0x1D53 JUMPI PUSH1 0x40 MLOAD PUSH32 0x8C379A000000000000000000000000000000000000000000000000000000000 DUP2 MSTORE PUSH1 0x20 PUSH1 0x4 DUP3 ADD MSTORE PUSH1 0x26 PUSH1 0x24 DUP3 ADD MSTORE PUSH32 0x4F776E61626C653A206E6577206F776E657220697320746865207A65726F2061 PUSH1 0x44 DUP3 ADD MSTORE PUSH32 0x6464726573730000000000000000000000000000000000000000000000000000 PUSH1 0x64 DUP3 ADD MSTORE PUSH1 0x84 ADD PUSH2 0x67E JUMP JUMPDEST PUSH2 0x1D5C DUP2 PUSH2 0x25E3 JUMP JUMPDEST POP JUMP JUMPDEST PUSH1 0x0 DUP3 DUP2 MSTORE PUSH1 0x5 PUSH1 0x20 SWAP1 DUP2 MSTORE PUSH1 0x40 DUP1 DUP4 KECCAK256 PUSH20 0xFFFFFFFFFFFFFFFFFFFFFFFFFFFFFFFFFFFFFFFF DUP6 AND DUP5 MSTORE SWAP1 SWAP2 MSTORE DUP2 KECCAK256 DUP1 SLOAD PUSH1 0x1 SWAP1 SWAP2 ADD SLOAD PUSH2 0x1306 SWAP2 DUP6 SWAP2 PUSH2 0x1EA2 JUMP JUMPDEST EXTCODESIZE ISZERO ISZERO SWAP1 JUMP JUMPDEST PUSH1 0x40 DUP1 MLOAD PUSH1 0x4 DUP2 MSTORE PUSH1 0x24 DUP2 ADD DUP3 MSTORE PUSH1 0x20 DUP2 ADD DUP1 MLOAD PUSH28 0xFFFFFFFFFFFFFFFFFFFFFFFFFFFFFFFFFFFFFFFFFFFFFFFFFFFFFFFF AND PUSH32 0x313CE56700000000000000000000000000000000000000000000000000000000 OR SWAP1 MSTORE SWAP1 MLOAD PUSH1 0x0 SWAP2 DUP3 SWAP2 DUP3 SWAP2 PUSH20 0xFFFFFFFFFFFFFFFFFFFFFFFFFFFFFFFFFFFFFFFF DUP7 AND SWAP2 PUSH2 0x1E28 SWAP2 SWAP1 PUSH2 0x2923 JUMP JUMPDEST PUSH1 0x0 PUSH1 0x40 MLOAD DUP1 DUP4 SUB DUP2 DUP6 GAS STATICCALL SWAP2 POP POP RETURNDATASIZE DUP1 PUSH1 0x0 DUP2 EQ PUSH2 0x1E63 JUMPI PUSH1 0x40 MLOAD SWAP2 POP PUSH1 0x1F NOT PUSH1 0x3F RETURNDATASIZE ADD AND DUP3 ADD PUSH1 0x40 MSTORE RETURNDATASIZE DUP3 MSTORE RETURNDATASIZE PUSH1 0x0 PUSH1 0x20 DUP5 ADD RETURNDATACOPY PUSH2 0x1E68 JUMP JUMPDEST PUSH1 0x60 SWAP2 POP JUMPDEST POP SWAP2 POP SWAP2 POP DUP2 DUP1 ISZERO PUSH2 0x1E7B JUMPI POP DUP1 MLOAD PUSH1 0x20 EQ JUMPDEST PUSH2 0x1E86 JUMPI PUSH1 0x12 PUSH2 0x1E9A JUMP JUMPDEST DUP1 DUP1 PUSH1 0x20 ADD SWAP1 MLOAD DUP2 ADD SWAP1 PUSH2 0x1E9A SWAP2 SWAP1 PUSH2 0x2900 JUMP JUMPDEST SWAP5 SWAP4 POP POP POP POP JUMP JUMPDEST PUSH1 0x0 DUP4 DUP2 MSTORE PUSH1 0x2 PUSH1 0x20 DUP2 DUP2 MSTORE PUSH1 0x40 DUP1 DUP5 KECCAK256 DUP2 MLOAD PUSH1 0xA0 DUP2 ADD DUP4 MSTORE DUP2 SLOAD DUP2 MSTORE PUSH1 0x1 DUP3 ADD SLOAD DUP2 DUP6 ADD MSTORE SWAP4 DUP2 ADD SLOAD DUP5 DUP4 ADD MSTORE PUSH1 0x3 DUP1 DUP3 ADD SLOAD PUSH1 0x60 DUP7 ADD MSTORE PUSH1 0x4 SWAP1 SWAP2 ADD SLOAD PUSH1 0x80 DUP6 ADD MSTORE DUP8 DUP6 MSTORE DUP3 MSTORE DUP1 DUP5 KECCAK256 DUP1 SLOAD DUP3 MLOAD DUP2 DUP6 MUL DUP2 ADD DUP6 ADD SWAP1 SWAP4 MSTORE DUP1 DUP4 MSTORE DUP6 SWAP4 DUP5 SWAP1 DUP5 ADD JUMPDEST DUP3 DUP3 LT ISZERO PUSH2 0x1F56 JUMPI DUP4 DUP3 SWAP1 PUSH1 0x0 MSTORE PUSH1 0x20 PUSH1 0x0 KECCAK256 SWAP1 PUSH1 0x3 MUL ADD PUSH1 0x40 MLOAD DUP1 PUSH1 0x60 ADD PUSH1 0x40 MSTORE SWAP1 DUP2 PUSH1 0x0 DUP3 ADD SLOAD DUP2 MSTORE PUSH1 0x20 ADD PUSH1 0x1 DUP3 ADD SLOAD DUP2 MSTORE PUSH1 0x20 ADD PUSH1 0x2 DUP3 ADD SLOAD DUP2 MSTORE POP POP DUP2 MSTORE PUSH1 0x20 ADD SWAP1 PUSH1 0x1 ADD SWAP1 PUSH2 0x1F06 JUMP JUMPDEST POP POP DUP5 MLOAD PUSH1 0x40 MLOAD PUSH32 0x654C9ECE00000000000000000000000000000000000000000000000000000000 DUP2 MSTORE PUSH1 0x4 DUP2 ADD DUP12 SWAP1 MSTORE SWAP4 SWAP5 POP SWAP3 PUSH1 0x0 SWAP3 POP PUSH32 0x0 PUSH20 0xFFFFFFFFFFFFFFFFFFFFFFFFFFFFFFFFFFFFFFFF AND SWAP2 POP PUSH4 0x654C9ECE SWAP1 PUSH1 0x24 ADD PUSH1 0x20 PUSH1 0x40 MLOAD DUP1 DUP4 SUB DUP2 DUP7 DUP1 EXTCODESIZE ISZERO DUP1 ISZERO PUSH2 0x1FE9 JUMPI PUSH1 0x0 DUP1 REVERT JUMPDEST POP GAS STATICCALL ISZERO DUP1 ISZERO PUSH2 0x1FFD JUMPI RETURNDATASIZE PUSH1 0x0 DUP1 RETURNDATACOPY RETURNDATASIZE PUSH1 0x0 REVERT JUMPDEST POP POP POP POP PUSH1 0x40 MLOAD RETURNDATASIZE PUSH1 0x1F NOT PUSH1 0x1F DUP3 ADD AND DUP3 ADD DUP1 PUSH1 0x40 MSTORE POP DUP2 ADD SWAP1 PUSH2 0x2021 SWAP2 SWAP1 PUSH2 0x2803 JUMP JUMPDEST SWAP1 POP DUP4 PUSH1 0x40 ADD MLOAD TIMESTAMP GT DUP1 ISZERO PUSH2 0x2035 JUMPI POP DUP1 ISZERO ISZERO JUMPDEST ISZERO PUSH2 0x2131 JUMPI PUSH1 0x40 DUP5 ADD MLOAD PUSH1 0x0 JUMPDEST DUP5 MLOAD DUP2 LT ISZERO PUSH2 0x212E JUMPI PUSH1 0x0 PUSH2 0x2064 DUP4 TIMESTAMP DUP9 DUP6 DUP2 MLOAD DUP2 LT PUSH2 0x1A99 JUMPI PUSH2 0x1A99 PUSH2 0x2A6D JUMP JUMPDEST SWAP1 POP DUP1 PUSH2 0x2071 JUMPI POP PUSH2 0x211E JUMP JUMPDEST DUP6 DUP3 DUP2 MLOAD DUP2 LT PUSH2 0x2083 JUMPI PUSH2 0x2083 PUSH2 0x2A6D JUMP JUMPDEST PUSH1 0x20 MUL PUSH1 0x20 ADD ADD MLOAD PUSH1 0x20 ADD MLOAD SWAP3 POP PUSH1 0x0 PUSH1 0x6 SLOAD DUP9 PUSH1 0x60 ADD MLOAD DUP9 DUP6 DUP2 MLOAD DUP2 LT PUSH2 0x20AD JUMPI PUSH2 0x20AD PUSH2 0x2A6D JUMP JUMPDEST PUSH1 0x20 MUL PUSH1 0x20 ADD ADD MLOAD PUSH1 0x40 ADD MLOAD DUP5 PUSH2 0x20C4 SWAP2 SWAP1 PUSH2 0x29B1 JUMP JUMPDEST PUSH2 0x20CE SWAP2 SWAP1 PUSH2 0x29B1 JUMP JUMPDEST PUSH2 0x20D8 SWAP2 SWAP1 PUSH2 0x2976 JUMP JUMPDEST SWAP1 POP DUP5 PUSH2 0x2105 PUSH32 0x0 DUP4 PUSH2 0x29B1 JUMP JUMPDEST PUSH2 0x210F SWAP2 SWAP1 PUSH2 0x2976 JUMP JUMPDEST PUSH2 0x2119 SWAP1 DUP8 PUSH2 0x295E JUMP JUMPDEST SWAP6 POP POP POP JUMPDEST PUSH2 0x2127 DUP2 PUSH2 0x2A05 JUMP JUMPDEST SWAP1 POP PUSH2 0x2042 JUMP JUMPDEST POP POP JUMPDEST DUP6 PUSH32 0x0 PUSH2 0x215D DUP5 DUP11 PUSH2 0x29B1 JUMP JUMPDEST PUSH2 0x2167 SWAP2 SWAP1 PUSH2 0x2976 JUMP JUMPDEST PUSH2 0x2171 SWAP2 SWAP1 PUSH2 0x29EE JUMP JUMPDEST SWAP9 SWAP8 POP POP POP POP POP POP POP POP JUMP JUMPDEST PUSH1 0x40 DUP1 MLOAD PUSH20 0xFFFFFFFFFFFFFFFFFFFFFFFFFFFFFFFFFFFFFFFF DUP5 DUP2 AND PUSH1 0x24 DUP4 ADD MSTORE PUSH1 0x44 DUP1 DUP4 ADD DUP6 SWAP1 MSTORE DUP4 MLOAD DUP1 DUP5 SUB SWAP1 SWAP2 ADD DUP2 MSTORE PUSH1 0x64 SWAP1 SWAP3 ADD DUP4 MSTORE PUSH1 0x20 DUP3 ADD DUP1 MLOAD PUSH28 0xFFFFFFFFFFFFFFFFFFFFFFFFFFFFFFFFFFFFFFFFFFFFFFFFFFFFFFFF AND PUSH32 0xA9059CBB00000000000000000000000000000000000000000000000000000000 OR SWAP1 MSTORE SWAP2 MLOAD PUSH1 0x0 SWAP3 DUP4 SWAP3 SWAP1 DUP8 AND SWAP2 PUSH2 0x2214 SWAP2 SWAP1 PUSH2 0x2923 JUMP JUMPDEST PUSH1 0x0 PUSH1 0x40 MLOAD DUP1 DUP4 SUB DUP2 PUSH1 0x0 DUP7 GAS CALL SWAP2 POP POP RETURNDATASIZE DUP1 PUSH1 0x0 DUP2 EQ PUSH2 0x2251 JUMPI PUSH1 0x40 MLOAD SWAP2 POP PUSH1 0x1F NOT PUSH1 0x3F RETURNDATASIZE ADD AND DUP3 ADD PUSH1 0x40 MSTORE RETURNDATASIZE DUP3 MSTORE RETURNDATASIZE PUSH1 0x0 PUSH1 0x20 DUP5 ADD RETURNDATACOPY PUSH2 0x2256 JUMP JUMPDEST PUSH1 0x60 SWAP2 POP JUMPDEST POP SWAP2 POP SWAP2 POP DUP2 DUP1 ISZERO PUSH2 0x2280 JUMPI POP DUP1 MLOAD ISZERO DUP1 PUSH2 0x2280 JUMPI POP DUP1 DUP1 PUSH1 0x20 ADD SWAP1 MLOAD DUP2 ADD SWAP1 PUSH2 0x2280 SWAP2 SWAP1 PUSH2 0x27C8 JUMP JUMPDEST PUSH2 0x22E6 JUMPI PUSH1 0x40 MLOAD PUSH32 0x8C379A000000000000000000000000000000000000000000000000000000000 DUP2 MSTORE PUSH1 0x20 PUSH1 0x4 DUP3 ADD MSTORE PUSH1 0x1C PUSH1 0x24 DUP3 ADD MSTORE PUSH32 0x426F72696E6745524332303A205472616E73666572206661696C656400000000 PUSH1 0x44 DUP3 ADD MSTORE PUSH1 0x64 ADD PUSH2 0x67E JUMP JUMPDEST POP POP POP POP POP JUMP JUMPDEST PUSH1 0x40 DUP1 MLOAD PUSH20 0xFFFFFFFFFFFFFFFFFFFFFFFFFFFFFFFFFFFFFFFF DUP6 DUP2 AND PUSH1 0x24 DUP4 ADD MSTORE DUP5 DUP2 AND PUSH1 0x44 DUP4 ADD MSTORE PUSH1 0x64 DUP1 DUP4 ADD DUP6 SWAP1 MSTORE DUP4 MLOAD DUP1 DUP5 SUB SWAP1 SWAP2 ADD DUP2 MSTORE PUSH1 0x84 SWAP1 SWAP3 ADD DUP4 MSTORE PUSH1 0x20 DUP3 ADD DUP1 MLOAD PUSH28 0xFFFFFFFFFFFFFFFFFFFFFFFFFFFFFFFFFFFFFFFFFFFFFFFFFFFFFFFF AND PUSH32 0x23B872DD00000000000000000000000000000000000000000000000000000000 OR SWAP1 MSTORE SWAP2 MLOAD PUSH1 0x0 SWAP3 DUP4 SWAP3 SWAP1 DUP9 AND SWAP2 PUSH2 0x238C SWAP2 SWAP1 PUSH2 0x2923 JUMP JUMPDEST PUSH1 0x0 PUSH1 0x40 MLOAD DUP1 DUP4 SUB DUP2 PUSH1 0x0 DUP7 GAS CALL SWAP2 POP POP RETURNDATASIZE DUP1 PUSH1 0x0 DUP2 EQ PUSH2 0x23C9 JUMPI PUSH1 0x40 MLOAD SWAP2 POP PUSH1 0x1F NOT PUSH1 0x3F RETURNDATASIZE ADD AND DUP3 ADD PUSH1 0x40 MSTORE RETURNDATASIZE DUP3 MSTORE RETURNDATASIZE PUSH1 0x0 PUSH1 0x20 DUP5 ADD RETURNDATACOPY PUSH2 0x23CE JUMP JUMPDEST PUSH1 0x60 SWAP2 POP JUMPDEST POP SWAP2 POP SWAP2 POP DUP2 DUP1 ISZERO PUSH2 0x23F8 JUMPI POP DUP1 MLOAD ISZERO DUP1 PUSH2 0x23F8 JUMPI POP DUP1 DUP1 PUSH1 0x20 ADD SWAP1 MLOAD DUP2 ADD SWAP1 PUSH2 0x23F8 SWAP2 SWAP1 PUSH2 0x27C8 JUMP JUMPDEST PUSH2 0x245E JUMPI PUSH1 0x40 MLOAD PUSH32 0x8C379A000000000000000000000000000000000000000000000000000000000 DUP2 MSTORE PUSH1 0x20 PUSH1 0x4 DUP3 ADD DUP2 SWAP1 MSTORE PUSH1 0x24 DUP3 ADD MSTORE PUSH32 0x426F72696E6745524332303A205472616E7366657246726F6D206661696C6564 PUSH1 0x44 DUP3 ADD MSTORE PUSH1 0x64 ADD PUSH2 0x67E JUMP JUMPDEST POP POP POP POP POP POP JUMP JUMPDEST PUSH1 0x0 DUP3 DUP2 MSTORE PUSH1 0x3 PUSH1 0x20 SWAP1 DUP2 MSTORE PUSH1 0x40 DUP1 DUP4 KECCAK256 DUP1 SLOAD DUP3 MLOAD DUP2 DUP6 MUL DUP2 ADD DUP6 ADD SWAP1 SWAP4 MSTORE DUP1 DUP4 MSTORE DUP5 SWAP4 DUP5 SWAP1 DUP5 ADD JUMPDEST DUP3 DUP3 LT ISZERO PUSH2 0x24DF JUMPI DUP4 DUP3 SWAP1 PUSH1 0x0 MSTORE PUSH1 0x20 PUSH1 0x0 KECCAK256 SWAP1 PUSH1 0x3 MUL ADD PUSH1 0x40 MLOAD DUP1 PUSH1 0x60 ADD PUSH1 0x40 MSTORE SWAP1 DUP2 PUSH1 0x0 DUP3 ADD SLOAD DUP2 MSTORE PUSH1 0x20 ADD PUSH1 0x1 DUP3 ADD SLOAD DUP2 MSTORE PUSH1 0x20 ADD PUSH1 0x2 DUP3 ADD SLOAD DUP2 MSTORE POP POP DUP2 MSTORE PUSH1 0x20 ADD SWAP1 PUSH1 0x1 ADD SWAP1 PUSH2 0x248F JUMP JUMPDEST POP POP POP PUSH1 0x0 DUP7 DUP2 MSTORE PUSH1 0x2 PUSH1 0x20 MSTORE PUSH1 0x40 SWAP1 KECCAK256 DUP3 MLOAD SWAP3 SWAP4 POP SWAP2 SWAP1 POP DUP1 PUSH2 0x2509 JUMPI PUSH1 0x0 SWAP4 POP POP POP POP PUSH2 0xEFC JUMP JUMPDEST PUSH1 0x0 JUMPDEST DUP2 DUP2 LT ISZERO PUSH2 0x258D JUMPI DUP4 DUP2 DUP2 MLOAD DUP2 LT PUSH2 0x2526 JUMPI PUSH2 0x2526 PUSH2 0x2A6D JUMP JUMPDEST PUSH1 0x20 MUL PUSH1 0x20 ADD ADD MLOAD PUSH1 0x20 ADD MLOAD DUP7 GT PUSH2 0x257D JUMPI PUSH1 0x6 SLOAD DUP4 PUSH1 0x3 ADD SLOAD DUP6 DUP4 DUP2 MLOAD DUP2 LT PUSH2 0x2552 JUMPI PUSH2 0x2552 PUSH2 0x2A6D JUMP JUMPDEST PUSH1 0x20 MUL PUSH1 0x20 ADD ADD MLOAD PUSH1 0x40 ADD MLOAD PUSH2 0x2568 SWAP2 SWAP1 PUSH2 0x29B1 JUMP JUMPDEST PUSH2 0x2572 SWAP2 SWAP1 PUSH2 0x2976 JUMP JUMPDEST SWAP5 POP POP POP POP POP PUSH2 0xEFC JUMP JUMPDEST PUSH2 0x2586 DUP2 PUSH2 0x2A05 JUMP JUMPDEST SWAP1 POP PUSH2 0x250C JUMP JUMPDEST POP PUSH1 0x0 SWAP7 SWAP6 POP POP POP POP POP POP JUMP JUMPDEST PUSH1 0x4 SLOAD PUSH1 0x0 JUMPDEST DUP2 DUP2 LT ISZERO PUSH2 0x25DF JUMPI PUSH2 0x25CE PUSH1 0x4 DUP3 DUP2 SLOAD DUP2 LT PUSH2 0x25BE JUMPI PUSH2 0x25BE PUSH2 0x2A6D JUMP JUMPDEST SWAP1 PUSH1 0x0 MSTORE PUSH1 0x20 PUSH1 0x0 KECCAK256 ADD SLOAD PUSH2 0x1840 JUMP JUMPDEST POP PUSH2 0x25D8 DUP2 PUSH2 0x2A05 JUMP JUMPDEST SWAP1 POP PUSH2 0x25A0 JUMP JUMPDEST POP POP JUMP JUMPDEST PUSH1 0x0 DUP1 SLOAD PUSH20 0xFFFFFFFFFFFFFFFFFFFFFFFFFFFFFFFFFFFFFFFF DUP4 DUP2 AND PUSH32 0xFFFFFFFFFFFFFFFFFFFFFFFF0000000000000000000000000000000000000000 DUP4 AND DUP2 OR DUP5 SSTORE PUSH1 0x40 MLOAD SWAP2 SWAP1 SWAP3 AND SWAP3 DUP4 SWAP2 PUSH32 0x8BE0079C531659141344CD1FD0A4F28419497F9722A3DAAFE3B4186F6B6457E0 SWAP2 SWAP1 LOG3 POP POP JUMP JUMPDEST PUSH1 0x0 DUP3 DUP2 MSTORE PUSH1 0x3 PUSH1 0x20 SWAP1 DUP2 MSTORE PUSH1 0x40 DUP1 DUP4 KECCAK256 DUP1 SLOAD DUP3 MLOAD DUP2 DUP6 MUL DUP2 ADD DUP6 ADD SWAP1 SWAP4 MSTORE DUP1 DUP4 MSTORE DUP5 SWAP4 DUP5 SWAP1 DUP5 ADD JUMPDEST DUP3 DUP3 LT ISZERO PUSH2 0x26D1 JUMPI DUP4 DUP3 SWAP1 PUSH1 0x0 MSTORE PUSH1 0x20 PUSH1 0x0 KECCAK256 SWAP1 PUSH1 0x3 MUL ADD PUSH1 0x40 MLOAD DUP1 PUSH1 0x60 ADD PUSH1 0x40 MSTORE SWAP1 DUP2 PUSH1 0x0 DUP3 ADD SLOAD DUP2 MSTORE PUSH1 0x20 ADD PUSH1 0x1 DUP3 ADD SLOAD DUP2 MSTORE PUSH1 0x20 ADD PUSH1 0x2 DUP3 ADD SLOAD DUP2 MSTORE POP POP DUP2 MSTORE PUSH1 0x20 ADD SWAP1 PUSH1 0x1 ADD SWAP1 PUSH2 0x2681 JUMP JUMPDEST POP POP DUP3 MLOAD SWAP3 SWAP4 POP POP POP DUP1 PUSH2 0x26EA JUMPI PUSH1 0x0 SWAP3 POP POP POP PUSH2 0xEFC JUMP JUMPDEST PUSH1 0x0 JUMPDEST DUP2 DUP2 LT ISZERO PUSH2 0x2751 JUMPI DUP3 DUP2 DUP2 MLOAD DUP2 LT PUSH2 0x2707 JUMPI PUSH2 0x2707 PUSH2 0x2A6D JUMP JUMPDEST PUSH1 0x20 MUL PUSH1 0x20 ADD ADD MLOAD PUSH1 0x20 ADD MLOAD DUP6 GT PUSH2 0x2741 JUMPI DUP3 DUP2 DUP2 MLOAD DUP2 LT PUSH2 0x272B JUMPI PUSH2 0x272B PUSH2 0x2A6D JUMP JUMPDEST PUSH1 0x20 MUL PUSH1 0x20 ADD ADD MLOAD PUSH1 0x20 ADD MLOAD SWAP4 POP POP POP POP PUSH2 0xEFC JUMP JUMPDEST PUSH2 0x274A DUP2 PUSH2 0x2A05 JUMP JUMPDEST SWAP1 POP PUSH2 0x26ED JUMP JUMPDEST POP DUP2 PUSH2 0x275E PUSH1 0x1 DUP4 PUSH2 0x29EE JUMP JUMPDEST DUP2 MLOAD DUP2 LT PUSH2 0x276E JUMPI PUSH2 0x276E PUSH2 0x2A6D JUMP JUMPDEST PUSH1 0x20 MUL PUSH1 0x20 ADD ADD MLOAD PUSH1 0x20 ADD MLOAD SWAP3 POP POP POP SWAP3 SWAP2 POP POP JUMP JUMPDEST DUP1 CALLDATALOAD PUSH20 0xFFFFFFFFFFFFFFFFFFFFFFFFFFFFFFFFFFFFFFFF DUP2 AND DUP2 EQ PUSH2 0x27A8 JUMPI PUSH1 0x0 DUP1 REVERT JUMPDEST SWAP2 SWAP1 POP JUMP JUMPDEST PUSH1 0x0 PUSH1 0x20 DUP3 DUP5 SUB SLT ISZERO PUSH2 0x27BF JUMPI PUSH1 0x0 DUP1 REVERT JUMPDEST PUSH2 0x1306 DUP3 PUSH2 0x2784 JUMP JUMPDEST PUSH1 0x0 PUSH1 0x20 DUP3 DUP5 SUB SLT ISZERO PUSH2 0x27DA JUMPI PUSH1 0x0 DUP1 REVERT JUMPDEST DUP2 MLOAD DUP1 ISZERO ISZERO DUP2 EQ PUSH2 0x1306 JUMPI PUSH1 0x0 DUP1 REVERT JUMPDEST PUSH1 0x0 PUSH1 0x20 DUP3 DUP5 SUB SLT ISZERO PUSH2 0x27FC JUMPI PUSH1 0x0 DUP1 REVERT JUMPDEST POP CALLDATALOAD SWAP2 SWAP1 POP JUMP JUMPDEST PUSH1 0x0 PUSH1 0x20 DUP3 DUP5 SUB SLT ISZERO PUSH2 0x2815 JUMPI PUSH1 0x0 DUP1 REVERT JUMPDEST POP MLOAD SWAP2 SWAP1 POP JUMP JUMPDEST PUSH1 0x0 DUP1 PUSH1 0x40 DUP4 DUP6 SUB SLT ISZERO PUSH2 0x282F JUMPI PUSH1 0x0 DUP1 REVERT JUMPDEST DUP3 CALLDATALOAD SWAP2 POP PUSH2 0x283F PUSH1 0x20 DUP5 ADD PUSH2 0x2784 JUMP JUMPDEST SWAP1 POP SWAP3 POP SWAP3 SWAP1 POP JUMP JUMPDEST PUSH1 0x0 DUP1 PUSH1 0x0 PUSH1 0x60 DUP5 DUP7 SUB SLT ISZERO PUSH2 0x285D JUMPI PUSH1 0x0 DUP1 REVERT JUMPDEST DUP4 CALLDATALOAD SWAP3 POP PUSH2 0x286D PUSH1 0x20 DUP6 ADD PUSH2 0x2784 JUMP JUMPDEST SWAP2 POP PUSH1 0x40 DUP5 ADD CALLDATALOAD SWAP1 POP SWAP3 POP SWAP3 POP SWAP3 JUMP JUMPDEST PUSH1 0x0 DUP1 PUSH1 0x40 DUP4 DUP6 SUB SLT ISZERO PUSH2 0x2890 JUMPI PUSH1 0x0 DUP1 REVERT JUMPDEST POP POP DUP1 CALLDATALOAD SWAP3 PUSH1 0x20 SWAP1 SWAP2 ADD CALLDATALOAD SWAP2 POP JUMP JUMPDEST PUSH1 0x0 DUP1 PUSH1 0x0 PUSH1 0x60 DUP5 DUP7 SUB SLT ISZERO PUSH2 0x28B4 JUMPI PUSH1 0x0 DUP1 REVERT JUMPDEST DUP4 CALLDATALOAD SWAP3 POP PUSH1 0x20 DUP5 ADD CALLDATALOAD SWAP2 POP PUSH2 0x28CB PUSH1 0x40 DUP6 ADD PUSH2 0x2784 JUMP JUMPDEST SWAP1 POP SWAP3 POP SWAP3 POP SWAP3 JUMP JUMPDEST PUSH1 0x0 DUP1 PUSH1 0x0 PUSH1 0x60 DUP5 DUP7 SUB SLT ISZERO PUSH2 0x28E9 JUMPI PUSH1 0x0 DUP1 REVERT JUMPDEST POP POP DUP2 CALLDATALOAD SWAP4 PUSH1 0x20 DUP4 ADD CALLDATALOAD SWAP4 POP PUSH1 0x40 SWAP1 SWAP3 ADD CALLDATALOAD SWAP2 SWAP1 POP JUMP JUMPDEST PUSH1 0x0 PUSH1 0x20 DUP3 DUP5 SUB SLT ISZERO PUSH2 0x2912 JUMPI PUSH1 0x0 DUP1 REVERT JUMPDEST DUP2 MLOAD PUSH1 0xFF DUP2 AND DUP2 EQ PUSH2 0x1306 JUMPI PUSH1 0x0 DUP1 REVERT JUMPDEST PUSH1 0x0 DUP3 MLOAD PUSH1 0x0 JUMPDEST DUP2 DUP2 LT ISZERO PUSH2 0x2944 JUMPI PUSH1 0x20 DUP2 DUP7 ADD DUP2 ADD MLOAD DUP6 DUP4 ADD MSTORE ADD PUSH2 0x292A JUMP JUMPDEST DUP2 DUP2 GT ISZERO PUSH2 0x2953 JUMPI PUSH1 0x0 DUP3 DUP6 ADD MSTORE JUMPDEST POP SWAP2 SWAP1 SWAP2 ADD SWAP3 SWAP2 POP POP JUMP JUMPDEST PUSH1 0x0 DUP3 NOT DUP3 GT ISZERO PUSH2 0x2971 JUMPI PUSH2 0x2971 PUSH2 0x2A3E JUMP JUMPDEST POP ADD SWAP1 JUMP JUMPDEST PUSH1 0x0 DUP3 PUSH2 0x29AC JUMPI PUSH32 0x4E487B7100000000000000000000000000000000000000000000000000000000 PUSH1 0x0 MSTORE PUSH1 0x12 PUSH1 0x4 MSTORE PUSH1 0x24 PUSH1 0x0 REVERT JUMPDEST POP DIV SWAP1 JUMP JUMPDEST PUSH1 0x0 DUP2 PUSH32 0xFFFFFFFFFFFFFFFFFFFFFFFFFFFFFFFFFFFFFFFFFFFFFFFFFFFFFFFFFFFFFFFF DIV DUP4 GT DUP3 ISZERO ISZERO AND ISZERO PUSH2 0x29E9 JUMPI PUSH2 0x29E9 PUSH2 0x2A3E JUMP JUMPDEST POP MUL SWAP1 JUMP JUMPDEST PUSH1 0x0 DUP3 DUP3 LT ISZERO PUSH2 0x2A00 JUMPI PUSH2 0x2A00 PUSH2 0x2A3E JUMP JUMPDEST POP SUB SWAP1 JUMP JUMPDEST PUSH1 0x0 PUSH32 0xFFFFFFFFFFFFFFFFFFFFFFFFFFFFFFFFFFFFFFFFFFFFFFFFFFFFFFFFFFFFFFFF DUP3 EQ ISZERO PUSH2 0x2A37 JUMPI PUSH2 0x2A37 PUSH2 0x2A3E JUMP JUMPDEST POP PUSH1 0x1 ADD SWAP1 JUMP JUMPDEST PUSH32 0x4E487B7100000000000000000000000000000000000000000000000000000000 PUSH1 0x0 MSTORE PUSH1 0x11 PUSH1 0x4 MSTORE PUSH1 0x24 PUSH1 0x0 REVERT JUMPDEST PUSH32 0x4E487B7100000000000000000000000000000000000000000000000000000000 PUSH1 0x0 MSTORE PUSH1 0x32 PUSH1 0x4 MSTORE PUSH1 0x24 PUSH1 0x0 REVERT INVALID LOG2 PUSH5 0x6970667358 0x22 SLT KECCAK256 0xB9 JUMPI DUP7 0xD4 0x4E ADDMOD BYTE 0xA6 0xC0 SWAP5 PUSH8 0x635B2A5F59F92FD9 0xAD 0x2A LOG1 INVALID PUSH24 0xAB649DE9B28E4A8964736F6C634300080700330000000000 "
        },
        "gasEstimates": {
          "creation": {
            "codeDepositCost": "2192400",
            "executionCost": "infinite",
            "totalCost": "infinite"
          },
          "external": {
            "_getTimeElapsed(uint256,uint256,uint256)": "559",
            "_updatePool(uint256)": "infinite",
            "add(uint256,uint256,uint256)": "153361",
            "addRewardInfo(uint256,uint256,uint256)": "infinite",
            "currentEndTimestamp(uint256)": "infinite",
            "distributorV2()": "infinite",
            "emergencyRewardWithdraw(uint256,uint256,address)": "infinite",
            "isNative()": "infinite",
            "massUpdatePools()": "infinite",
            "onEmberReward(uint256,address,uint256)": "infinite",
            "owner()": "2396",
            "pendingTokens(uint256,address)": "infinite",
            "poolIds(uint256)": "4653",
            "poolInfo(uint256)": "11031",
            "poolRewardInfo(uint256,uint256)": "9021",
            "poolRewardsPerSec(uint256)": "infinite",
            "renounceOwnership()": "28121",
            "rewardInfoLimit()": "infinite",
            "rewardToken()": "infinite",
            "totalAllocPoint()": "2352",
            "transferOwnership(address)": "28290",
            "updatePool(uint256)": "infinite",
            "userInfo(uint256,address)": "4789"
          },
          "internal": {
            "_endTimestampOf(uint256,uint256)": "infinite",
            "_massUpdatePools()": "infinite",
            "_pendingTokens(uint256,uint256,uint256)": "infinite",
            "_rewardPerSecOf(uint256,uint256)": "infinite"
          }
        },
        "methodIdentifiers": {
          "_getTimeElapsed(uint256,uint256,uint256)": "72333631",
          "_updatePool(uint256)": "d4aa89b5",
          "add(uint256,uint256,uint256)": "505fb46c",
          "addRewardInfo(uint256,uint256,uint256)": "2ea807c5",
          "currentEndTimestamp(uint256)": "9e494bee",
          "distributorV2()": "7d0d9d5f",
          "emergencyRewardWithdraw(uint256,uint256,address)": "1d123131",
          "isNative()": "73cfc6b2",
          "massUpdatePools()": "630b5ba1",
          "onEmberReward(uint256,address,uint256)": "8ad14728",
          "owner()": "8da5cb5b",
          "pendingTokens(uint256,address)": "ffcd4263",
          "poolIds(uint256)": "69883b4e",
          "poolInfo(uint256)": "1526fe27",
          "poolRewardInfo(uint256,uint256)": "0832cfbf",
          "poolRewardsPerSec(uint256)": "465e81ec",
          "renounceOwnership()": "715018a6",
          "rewardInfoLimit()": "00d74850",
          "rewardToken()": "f7c618c1",
          "totalAllocPoint()": "17caf6f1",
          "transferOwnership(address)": "f2fde38b",
          "updatePool(uint256)": "51eb05a6",
          "userInfo(uint256,address)": "93f1a40b"
        }
      },
      "storageLayout": {
        "storage": [
          {
            "astId": 321,
            "contract": "contracts/farm/rewarders/ComplexRewarderPerSecV2.sol:ComplexRewarderPerSecV2",
            "label": "_owner",
            "offset": 0,
            "slot": "0",
            "type": "t_address"
          },
          {
            "astId": 427,
            "contract": "contracts/farm/rewarders/ComplexRewarderPerSecV2.sol:ComplexRewarderPerSecV2",
            "label": "_status",
            "offset": 0,
            "slot": "1",
            "type": "t_uint256"
          },
          {
            "astId": 947,
            "contract": "contracts/farm/rewarders/ComplexRewarderPerSecV2.sol:ComplexRewarderPerSecV2",
            "label": "poolInfo",
            "offset": 0,
            "slot": "2",
            "type": "t_mapping(t_uint256,t_struct(PoolInfo)934_storage)"
          },
          {
            "astId": 954,
            "contract": "contracts/farm/rewarders/ComplexRewarderPerSecV2.sol:ComplexRewarderPerSecV2",
            "label": "poolRewardInfo",
            "offset": 0,
            "slot": "3",
            "type": "t_mapping(t_uint256,t_array(t_struct(RewardInfo)941_storage)dyn_storage)"
          },
          {
            "astId": 957,
            "contract": "contracts/farm/rewarders/ComplexRewarderPerSecV2.sol:ComplexRewarderPerSecV2",
            "label": "poolIds",
            "offset": 0,
            "slot": "4",
            "type": "t_array(t_uint256)dyn_storage"
          },
          {
            "astId": 965,
            "contract": "contracts/farm/rewarders/ComplexRewarderPerSecV2.sol:ComplexRewarderPerSecV2",
            "label": "userInfo",
            "offset": 0,
            "slot": "5",
            "type": "t_mapping(t_uint256,t_mapping(t_address,t_struct(UserInfo)923_storage))"
          },
          {
            "astId": 969,
            "contract": "contracts/farm/rewarders/ComplexRewarderPerSecV2.sol:ComplexRewarderPerSecV2",
            "label": "totalAllocPoint",
            "offset": 0,
            "slot": "6",
            "type": "t_uint256"
          }
        ],
        "types": {
          "t_address": {
            "encoding": "inplace",
            "label": "address",
            "numberOfBytes": "20"
          },
          "t_array(t_struct(RewardInfo)941_storage)dyn_storage": {
            "base": "t_struct(RewardInfo)941_storage",
            "encoding": "dynamic_array",
            "label": "struct ComplexRewarderPerSecV2.RewardInfo[]",
            "numberOfBytes": "32"
          },
          "t_array(t_uint256)dyn_storage": {
            "base": "t_uint256",
            "encoding": "dynamic_array",
            "label": "uint256[]",
            "numberOfBytes": "32"
          },
          "t_mapping(t_address,t_struct(UserInfo)923_storage)": {
            "encoding": "mapping",
            "key": "t_address",
            "label": "mapping(address => struct ComplexRewarderPerSecV2.UserInfo)",
            "numberOfBytes": "32",
            "value": "t_struct(UserInfo)923_storage"
          },
          "t_mapping(t_uint256,t_array(t_struct(RewardInfo)941_storage)dyn_storage)": {
            "encoding": "mapping",
            "key": "t_uint256",
            "label": "mapping(uint256 => struct ComplexRewarderPerSecV2.RewardInfo[])",
            "numberOfBytes": "32",
            "value": "t_array(t_struct(RewardInfo)941_storage)dyn_storage"
          },
          "t_mapping(t_uint256,t_mapping(t_address,t_struct(UserInfo)923_storage))": {
            "encoding": "mapping",
            "key": "t_uint256",
            "label": "mapping(uint256 => mapping(address => struct ComplexRewarderPerSecV2.UserInfo))",
            "numberOfBytes": "32",
            "value": "t_mapping(t_address,t_struct(UserInfo)923_storage)"
          },
          "t_mapping(t_uint256,t_struct(PoolInfo)934_storage)": {
            "encoding": "mapping",
            "key": "t_uint256",
            "label": "mapping(uint256 => struct ComplexRewarderPerSecV2.PoolInfo)",
            "numberOfBytes": "32",
            "value": "t_struct(PoolInfo)934_storage"
          },
          "t_struct(PoolInfo)934_storage": {
            "encoding": "inplace",
            "label": "struct ComplexRewarderPerSecV2.PoolInfo",
            "members": [
              {
                "astId": 925,
                "contract": "contracts/farm/rewarders/ComplexRewarderPerSecV2.sol:ComplexRewarderPerSecV2",
                "label": "accTokenPerShare",
                "offset": 0,
                "slot": "0",
                "type": "t_uint256"
              },
              {
                "astId": 927,
                "contract": "contracts/farm/rewarders/ComplexRewarderPerSecV2.sol:ComplexRewarderPerSecV2",
                "label": "startTimestamp",
                "offset": 0,
                "slot": "1",
                "type": "t_uint256"
              },
              {
                "astId": 929,
                "contract": "contracts/farm/rewarders/ComplexRewarderPerSecV2.sol:ComplexRewarderPerSecV2",
                "label": "lastRewardTimestamp",
                "offset": 0,
                "slot": "2",
                "type": "t_uint256"
              },
              {
                "astId": 931,
                "contract": "contracts/farm/rewarders/ComplexRewarderPerSecV2.sol:ComplexRewarderPerSecV2",
                "label": "allocPoint",
                "offset": 0,
                "slot": "3",
                "type": "t_uint256"
              },
              {
                "astId": 933,
                "contract": "contracts/farm/rewarders/ComplexRewarderPerSecV2.sol:ComplexRewarderPerSecV2",
                "label": "totalRewards",
                "offset": 0,
                "slot": "4",
                "type": "t_uint256"
              }
            ],
            "numberOfBytes": "160"
          },
          "t_struct(RewardInfo)941_storage": {
            "encoding": "inplace",
            "label": "struct ComplexRewarderPerSecV2.RewardInfo",
            "members": [
              {
                "astId": 936,
                "contract": "contracts/farm/rewarders/ComplexRewarderPerSecV2.sol:ComplexRewarderPerSecV2",
                "label": "startTimestamp",
                "offset": 0,
                "slot": "0",
                "type": "t_uint256"
              },
              {
                "astId": 938,
                "contract": "contracts/farm/rewarders/ComplexRewarderPerSecV2.sol:ComplexRewarderPerSecV2",
                "label": "endTimestamp",
                "offset": 0,
                "slot": "1",
                "type": "t_uint256"
              },
              {
                "astId": 940,
                "contract": "contracts/farm/rewarders/ComplexRewarderPerSecV2.sol:ComplexRewarderPerSecV2",
                "label": "rewardPerSec",
                "offset": 0,
                "slot": "2",
                "type": "t_uint256"
              }
            ],
            "numberOfBytes": "96"
          },
          "t_struct(UserInfo)923_storage": {
            "encoding": "inplace",
            "label": "struct ComplexRewarderPerSecV2.UserInfo",
            "members": [
              {
                "astId": 920,
                "contract": "contracts/farm/rewarders/ComplexRewarderPerSecV2.sol:ComplexRewarderPerSecV2",
                "label": "amount",
                "offset": 0,
                "slot": "0",
                "type": "t_uint256"
              },
              {
                "astId": 922,
                "contract": "contracts/farm/rewarders/ComplexRewarderPerSecV2.sol:ComplexRewarderPerSecV2",
                "label": "rewardDebt",
                "offset": 0,
                "slot": "1",
                "type": "t_uint256"
              }
            ],
            "numberOfBytes": "64"
          },
          "t_uint256": {
            "encoding": "inplace",
            "label": "uint256",
            "numberOfBytes": "32"
          }
        }
      },
      "userdoc": {
        "kind": "user",
        "methods": {
          "_getTimeElapsed(uint256,uint256,uint256)": {
            "notice": "Return reward multiplier over the given _from to _to timestamp."
          },
          "_updatePool(uint256)": {
            "notice": "Update reward variables of the given pool."
          },
          "add(uint256,uint256,uint256)": {
            "notice": "Add a new pool. Can only be called by the owner."
          },
          "addRewardInfo(uint256,uint256,uint256)": {
            "notice": "if the new reward info is added, the reward & its end timestamp will be extended by the newly pushed reward info."
          },
          "currentEndTimestamp(uint256)": {
            "notice": "this will return end timestamp based on the current block timestamp."
          },
          "emergencyRewardWithdraw(uint256,uint256,address)": {
            "notice": "Withdraw reward. EMERGENCY ONLY."
          },
          "onEmberReward(uint256,address,uint256)": {
            "notice": "Function called by EmberDistributorV2 whenever staker claims EMBER harvest. Allows staker to also receive a 2nd reward token."
          },
          "pendingTokens(uint256,address)": {
            "notice": "View function to see pending Reward on frontend."
          },
          "poolInfo(uint256)": {
            "notice": "Info of each pool."
          },
          "poolRewardInfo(uint256,uint256)": {
            "notice": "Reward info is a set of {endTimestamp, rewardPerSec} indexed by pool id"
          },
          "poolRewardsPerSec(uint256)": {
            "notice": "View function to see pool rewards per sec"
          },
          "rewardInfoLimit()": {
            "notice": "limit length of reward info how many phases are allowed"
          },
          "updatePool(uint256)": {
            "notice": "Update reward variables of the given pool."
          },
          "userInfo(uint256,address)": {
            "notice": "Info of each user that stakes LP tokens."
          }
        },
        "notice": "This is a sample contract to be used in the EmberDistributorV2 contract for partners to reward stakers with their native token alongside EMBER. It assumes no minting rights, so requires a set amount of YOUR_TOKEN to be transferred to this contract prior. E.g. say you've allocated 100,000 XYZ to the EMBER-XYZ farm over 30 days. Then you would need to transfer 100,000 XYZ and set the block reward accordingly so it's fully distributed after 30 days.",
        "version": 1
      }
    }
  }
}