{
  "contracts/farm/rewarders/SimpleRewarderPerSec.sol": {
    "SimpleRewarderPerSec": {
      "abi": [
        {
          "inputs": [
            {
              "internalType": "contract IBoringERC20",
              "name": "_rewardToken",
              "type": "address"
            },
            {
              "internalType": "uint256",
              "name": "_tokenPerSec",
              "type": "uint256"
            },
            {
              "internalType": "contract IEmberDistributorV2",
              "name": "_distributorV2",
              "type": "address"
            },
            {
              "internalType": "uint256",
              "name": "_pid",
              "type": "uint256"
            },
            {
              "internalType": "bool",
              "name": "_isNative",
              "type": "bool"
            }
          ],
          "stateMutability": "nonpayable",
          "type": "constructor"
        },
        {
          "anonymous": false,
          "inputs": [
            {
              "indexed": true,
              "internalType": "address",
              "name": "user",
              "type": "address"
            },
            {
              "indexed": false,
              "internalType": "uint256",
              "name": "amount",
              "type": "uint256"
            }
          ],
          "name": "OnReward",
          "type": "event"
        },
        {
          "anonymous": false,
          "inputs": [
            {
              "indexed": true,
              "internalType": "address",
              "name": "previousOwner",
              "type": "address"
            },
            {
              "indexed": true,
              "internalType": "address",
              "name": "newOwner",
              "type": "address"
            }
          ],
          "name": "OwnershipTransferred",
          "type": "event"
        },
        {
          "anonymous": false,
          "inputs": [
            {
              "indexed": false,
              "internalType": "uint256",
              "name": "oldRate",
              "type": "uint256"
            },
            {
              "indexed": false,
              "internalType": "uint256",
              "name": "newRate",
              "type": "uint256"
            }
          ],
          "name": "RewardRateUpdated",
          "type": "event"
        },
        {
          "inputs": [],
          "name": "balance",
          "outputs": [
            {
              "internalType": "uint256",
              "name": "",
              "type": "uint256"
            }
          ],
          "stateMutability": "view",
          "type": "function"
        },
        {
          "inputs": [],
          "name": "distributorV2",
          "outputs": [
            {
              "internalType": "contract IEmberDistributorV2",
              "name": "",
              "type": "address"
            }
          ],
          "stateMutability": "view",
          "type": "function"
        },
        {
          "inputs": [],
          "name": "emergencyWithdraw",
          "outputs": [],
          "stateMutability": "nonpayable",
          "type": "function"
        },
        {
          "inputs": [],
          "name": "isNative",
          "outputs": [
            {
              "internalType": "bool",
              "name": "",
              "type": "bool"
            }
          ],
          "stateMutability": "view",
          "type": "function"
        },
        {
          "inputs": [
            {
              "internalType": "address",
              "name": "_user",
              "type": "address"
            },
            {
              "internalType": "uint256",
              "name": "_lpAmount",
              "type": "uint256"
            }
          ],
          "name": "onEmberReward",
          "outputs": [],
          "stateMutability": "nonpayable",
          "type": "function"
        },
        {
          "inputs": [],
          "name": "owner",
          "outputs": [
            {
              "internalType": "address",
              "name": "",
              "type": "address"
            }
          ],
          "stateMutability": "view",
          "type": "function"
        },
        {
          "inputs": [
            {
              "internalType": "address",
              "name": "_user",
              "type": "address"
            }
          ],
          "name": "pendingTokens",
          "outputs": [
            {
              "internalType": "uint256",
              "name": "pending",
              "type": "uint256"
            }
          ],
          "stateMutability": "view",
          "type": "function"
        },
        {
          "inputs": [],
          "name": "pid",
          "outputs": [
            {
              "internalType": "uint256",
              "name": "",
              "type": "uint256"
            }
          ],
          "stateMutability": "view",
          "type": "function"
        },
        {
          "inputs": [],
          "name": "poolInfo",
          "outputs": [
            {
              "internalType": "uint256",
              "name": "accTokenPerShare",
              "type": "uint256"
            },
            {
              "internalType": "uint256",
              "name": "lastRewardTimestamp",
              "type": "uint256"
            }
          ],
          "stateMutability": "view",
          "type": "function"
        },
        {
          "inputs": [],
          "name": "renounceOwnership",
          "outputs": [],
          "stateMutability": "nonpayable",
          "type": "function"
        },
        {
          "inputs": [],
          "name": "rewardToken",
          "outputs": [
            {
              "internalType": "contract IBoringERC20",
              "name": "",
              "type": "address"
            }
          ],
          "stateMutability": "view",
          "type": "function"
        },
        {
          "inputs": [
            {
              "internalType": "uint256",
              "name": "_tokenPerSec",
              "type": "uint256"
            }
          ],
          "name": "setRewardRate",
          "outputs": [],
          "stateMutability": "nonpayable",
          "type": "function"
        },
        {
          "inputs": [],
          "name": "tokenPerSec",
          "outputs": [
            {
              "internalType": "uint256",
              "name": "",
              "type": "uint256"
            }
          ],
          "stateMutability": "view",
          "type": "function"
        },
        {
          "inputs": [
            {
              "internalType": "address",
              "name": "newOwner",
              "type": "address"
            }
          ],
          "name": "transferOwnership",
          "outputs": [],
          "stateMutability": "nonpayable",
          "type": "function"
        },
        {
          "inputs": [],
          "name": "updatePool",
          "outputs": [
            {
              "components": [
                {
                  "internalType": "uint256",
                  "name": "accTokenPerShare",
                  "type": "uint256"
                },
                {
                  "internalType": "uint256",
                  "name": "lastRewardTimestamp",
                  "type": "uint256"
                }
              ],
              "internalType": "struct SimpleRewarderPerSec.PoolInfo",
              "name": "pool",
              "type": "tuple"
            }
          ],
          "stateMutability": "nonpayable",
          "type": "function"
        },
        {
          "inputs": [
            {
              "internalType": "address",
              "name": "",
              "type": "address"
            }
          ],
          "name": "userInfo",
          "outputs": [
            {
              "internalType": "uint256",
              "name": "amount",
              "type": "uint256"
            },
            {
              "internalType": "uint256",
              "name": "rewardDebt",
              "type": "uint256"
            }
          ],
          "stateMutability": "view",
          "type": "function"
        },
        {
          "stateMutability": "payable",
          "type": "receive"
        }
      ],
      "devdoc": {
        "kind": "dev",
        "methods": {
          "onEmberReward(address,uint256)": {
            "params": {
              "_lpAmount": "Number of LP tokens the user has",
              "_user": "Address of user"
            }
          },
          "owner()": {
            "details": "Returns the address of the current owner."
          },
          "pendingTokens(address)": {
            "params": {
              "_user": "Address of user."
            },
            "returns": {
              "pending": "reward for a given user."
            }
          },
          "renounceOwnership()": {
            "details": "Leaves the contract without owner. It will not be possible to call `onlyOwner` functions anymore. Can only be called by the current owner. NOTE: Renouncing ownership will leave the contract without an owner, thereby removing any functionality that is only available to the owner."
          },
          "setRewardRate(uint256)": {
            "params": {
              "_tokenPerSec": "The number of tokens to distribute per second"
            }
          },
          "transferOwnership(address)": {
            "details": "Transfers ownership of the contract to a new account (`newOwner`). Can only be called by the current owner."
          },
          "updatePool()": {
            "returns": {
              "pool": "Returns the pool that was updated."
            }
          }
        },
        "version": 1
      },
      "evm": {
        "bytecode": {
          "linkReferences": {},
          "object": "6101006040523480156200001257600080fd5b50604051620017fd380380620017fd8339810160408190526200003591620001fe565b6200004033620001a8565b600180819055506200005d85620001f860201b62000ff71760201c565b620000ca5760405162461bcd60e51b815260206004820152603260248201527f636f6e7374727563746f723a2072657761726420746f6b656e206d7573742062604482015271194818481d985b1a590818dbdb9d1c9858dd60721b60648201526084015b60405180910390fd5b620000e083620001f860201b62000ff71760201c565b620001545760405162461bcd60e51b815260206004820152603860248201527f636f6e7374727563746f723a20456d6265724469737472696275746f7256322060448201527f6d75737420626520612076616c696420636f6e747261637400000000000000006064820152608401620000c1565b6001600160601b0319606095861b811660805260a092909252600593909355921b90911660e052151560f81b60c0526040805180820190915260008082524260209290920182905260025560035562000283565b600080546001600160a01b038381166001600160a01b0319831681178455604051919092169283917f8be0079c531659141344cd1fd0a4f28419497f9722a3daafe3b4186f6b6457e09190a35050565b3b151590565b600080600080600060a086880312156200021757600080fd5b855162000224816200026a565b6020870151604088015191965094506200023e816200026a565b60608701516080880151919450925080151581146200025c57600080fd5b809150509295509295909350565b6001600160a01b03811681146200028057600080fd5b50565b60805160601c60a05160c05160f81c60e05160601c6114dc62000321600039600081816101fd0152818161045b015281816109a20152610dc90152600081816101b90152818161062d01528181610b6d015261107601526000818161033b015281816109d10152610da001526000818161038f0152818161076e015281816107b401528181610c8f01528181610d2001526110cd01526114dc6000f3fe6080604052600436106100f75760003560e01c80639e447fc61161008a578063e3161ddd11610059578063e3161ddd146102f9578063f106845414610329578063f2fde38b1461035d578063f7c618c11461037d57600080fd5b80639e447fc61461028f578063b69ef8a8146102af578063c031a66f146102c4578063db2e21bc146102e457600080fd5b806373cfc6b2116100c657806373cfc6b2146101a75780637d0d9d5f146101eb57806383dfba0d146102445780638da5cb5b1461026457600080fd5b80631959a0021461010357806350fd1f3e146101515780635a2f3d0914610175578063715018a61461019057600080fd5b366100fe57005b600080fd5b34801561010f57600080fd5b5061013761011e3660046112f5565b6004602052600090815260409020805460019091015482565b604080519283526020830191909152015b60405180910390f35b34801561015d57600080fd5b5061016760055481565b604051908152602001610148565b34801561018157600080fd5b50600254600354610137919082565b34801561019c57600080fd5b506101a56103b1565b005b3480156101b357600080fd5b506101db7f000000000000000000000000000000000000000000000000000000000000000081565b6040519015158152602001610148565b3480156101f757600080fd5b5061021f7f000000000000000000000000000000000000000000000000000000000000000081565b60405173ffffffffffffffffffffffffffffffffffffffff9091168152602001610148565b34801561025057600080fd5b506101a561025f366004611317565b610443565b34801561027057600080fd5b5060005473ffffffffffffffffffffffffffffffffffffffff1661021f565b34801561029b57600080fd5b506101a56102aa366004611363565b610857565b3480156102bb57600080fd5b50610167610922565b3480156102d057600080fd5b506101676102df3660046112f5565b610931565b3480156102f057600080fd5b506101a5610aea565b34801561030557600080fd5b5061030e610d47565b60408051825181526020928301519281019290925201610148565b34801561033557600080fd5b506101677f000000000000000000000000000000000000000000000000000000000000000081565b34801561036957600080fd5b506101a56103783660046112f5565b610eca565b34801561038957600080fd5b5061021f7f000000000000000000000000000000000000000000000000000000000000000081565b60005473ffffffffffffffffffffffffffffffffffffffff163314610437576040517f08c379a000000000000000000000000000000000000000000000000000000000815260206004820181905260248201527f4f776e61626c653a2063616c6c6572206973206e6f7420746865206f776e657260448201526064015b60405180910390fd5b6104416000610ffd565b565b3373ffffffffffffffffffffffffffffffffffffffff7f0000000000000000000000000000000000000000000000000000000000000000161461052e576040517f08c379a000000000000000000000000000000000000000000000000000000000815260206004820152604160248201527f6f6e6c794469737472696275746f7256323a206f6e6c7920456d62657244697360448201527f7472696275746f7256322063616e2063616c6c20746869732066756e6374696f60648201527f6e00000000000000000000000000000000000000000000000000000000000000608482015260a40161042e565b6002600154141561059b576040517f08c379a000000000000000000000000000000000000000000000000000000000815260206004820152601f60248201527f5265656e7472616e637947756172643a207265656e7472616e742063616c6c00604482015260640161042e565b60026001556105a8610d47565b50604080518082018252600254815260035460208083019190915273ffffffffffffffffffffffffffffffffffffffff8516600090815260049091529182209091806105f2611072565b8354909150156107db5760018301548451845464e8d4a510009161061591611423565b61061f91906113e8565b6106299190611460565b91507f00000000000000000000000000000000000000000000000000000000000000001561074c578082111561072a5760008673ffffffffffffffffffffffffffffffffffffffff16826040515b60006040518083038185875af1925050503d80600081146106b4576040519150601f19603f3d011682016040523d82523d6000602084013e6106b9565b606091505b5050905080610724576040517f08c379a000000000000000000000000000000000000000000000000000000000815260206004820152600f60248201527f5472616e73666572206661696c65640000000000000000000000000000000000604482015260640161042e565b506107db565b60008673ffffffffffffffffffffffffffffffffffffffff1683604051610677565b8082111561079a5761079573ffffffffffffffffffffffffffffffffffffffff7f000000000000000000000000000000000000000000000000000000000000000016878361115c565b6107db565b6107db73ffffffffffffffffffffffffffffffffffffffff7f000000000000000000000000000000000000000000000000000000000000000016878461115c565b848355835164e8d4a51000906107f19087611423565b6107fb91906113e8565b600184015560405182815273ffffffffffffffffffffffffffffffffffffffff8716907fd1072bb52c3131d0c96197b73fb8a45637e30f8b6664fc142310cc9b242859b49060200160405180910390a250506001805550505050565b60005473ffffffffffffffffffffffffffffffffffffffff1633146108d8576040517f08c379a000000000000000000000000000000000000000000000000000000000815260206004820181905260248201527f4f776e61626c653a2063616c6c6572206973206e6f7420746865206f776e6572604482015260640161042e565b6108e0610d47565b5060055460408051918252602082018390527fc390a98ace15a7bb6bab611eedfdbb2685043b241a869420043cdfb23ccfee50910160405180910390a1600555565b600061092c611072565b905090565b604080518082018252600254815260035460208083019190915273ffffffffffffffffffffffffffffffffffffffff8085166000908152600492839052848120845195517f654c9ece00000000000000000000000000000000000000000000000000000000815291959093909286927f00000000000000000000000000000000000000000000000000000000000000009091169163654c9ece916109fb917f0000000000000000000000000000000000000000000000000000000000000000910190815260200190565b60206040518083038186803b158015610a1357600080fd5b505afa158015610a27573d6000803e3d6000fd5b505050506040513d601f19601f82011682018060405250810190610a4b919061137c565b9050836020015142118015610a5f57508015155b15610ab3576000846020015142610a769190611460565b9050600060055482610a889190611423565b905082610a9a64e8d4a5100083611423565b610aa491906113e8565b610aae90856113d0565b935050505b6001830154835464e8d4a5100090610acc908590611423565b610ad691906113e8565b610ae09190611460565b9695505050505050565b60005473ffffffffffffffffffffffffffffffffffffffff163314610b6b576040517f08c379a000000000000000000000000000000000000000000000000000000000815260206004820181905260248201527f4f776e61626c653a2063616c6c6572206973206e6f7420746865206f776e6572604482015260640161042e565b7f000000000000000000000000000000000000000000000000000000000000000015610c4657604051600090339047908381818185875af1925050503d8060008114610bd3576040519150601f19603f3d011682016040523d82523d6000602084013e610bd8565b606091505b5050905080610c43576040517f08c379a000000000000000000000000000000000000000000000000000000000815260206004820152600f60248201527f5472616e73666572206661696c65640000000000000000000000000000000000604482015260640161042e565b50565b6040517f70a0823100000000000000000000000000000000000000000000000000000000815230600482015261044190339073ffffffffffffffffffffffffffffffffffffffff7f000000000000000000000000000000000000000000000000000000000000000016906370a082319060240160206040518083038186803b158015610cd157600080fd5b505afa158015610ce5573d6000803e3d6000fd5b505050506040513d601f19601f82011682018060405250810190610d09919061137c565b73ffffffffffffffffffffffffffffffffffffffff7f000000000000000000000000000000000000000000000000000000000000000016919061115c565b604080518082018252600080825260209182015281518083019092526002548252600354908201819052421115610ec7576040517f654c9ece0000000000000000000000000000000000000000000000000000000081527f000000000000000000000000000000000000000000000000000000000000000060048201526000907f000000000000000000000000000000000000000000000000000000000000000073ffffffffffffffffffffffffffffffffffffffff169063654c9ece9060240160206040518083038186803b158015610e2057600080fd5b505afa158015610e34573d6000803e3d6000fd5b505050506040513d601f19601f82011682018060405250810190610e58919061137c565b90508015610eb5576000826020015142610e729190611460565b9050600060055482610e849190611423565b905082610e9664e8d4a5100083611423565b610ea091906113e8565b84518590610eaf9083906113d0565b90525050505b50426020820181905281516002556003555b90565b60005473ffffffffffffffffffffffffffffffffffffffff163314610f4b576040517f08c379a000000000000000000000000000000000000000000000000000000000815260206004820181905260248201527f4f776e61626c653a2063616c6c6572206973206e6f7420746865206f776e6572604482015260640161042e565b73ffffffffffffffffffffffffffffffffffffffff8116610fee576040517f08c379a000000000000000000000000000000000000000000000000000000000815260206004820152602660248201527f4f776e61626c653a206e6577206f776e657220697320746865207a65726f206160448201527f6464726573730000000000000000000000000000000000000000000000000000606482015260840161042e565b610c4381610ffd565b3b151590565b6000805473ffffffffffffffffffffffffffffffffffffffff8381167fffffffffffffffffffffffff0000000000000000000000000000000000000000831681178455604051919092169283917f8be0079c531659141344cd1fd0a4f28419497f9722a3daafe3b4186f6b6457e09190a35050565b60007f00000000000000000000000000000000000000000000000000000000000000001561109f57504790565b6040517f70a082310000000000000000000000000000000000000000000000000000000081523060048201527f000000000000000000000000000000000000000000000000000000000000000073ffffffffffffffffffffffffffffffffffffffff16906370a082319060240160206040518083038186803b15801561112457600080fd5b505afa158015611138573d6000803e3d6000fd5b505050506040513d601f19601f8201168201806040525081019061092c919061137c565b6040805173ffffffffffffffffffffffffffffffffffffffff8481166024830152604480830185905283518084039091018152606490920183526020820180517bffffffffffffffffffffffffffffffffffffffffffffffffffffffff167fa9059cbb0000000000000000000000000000000000000000000000000000000017905291516000928392908716916111f39190611395565b6000604051808303816000865af19150503d8060008114611230576040519150601f19603f3d011682016040523d82523d6000602084013e611235565b606091505b509150915081801561125f57508051158061125f57508080602001905181019061125f9190611341565b6112c5576040517f08c379a000000000000000000000000000000000000000000000000000000000815260206004820152601c60248201527f426f72696e6745524332303a205472616e73666572206661696c656400000000604482015260640161042e565b5050505050565b803573ffffffffffffffffffffffffffffffffffffffff811681146112f057600080fd5b919050565b60006020828403121561130757600080fd5b611310826112cc565b9392505050565b6000806040838503121561132a57600080fd5b611333836112cc565b946020939093013593505050565b60006020828403121561135357600080fd5b8151801515811461131057600080fd5b60006020828403121561137557600080fd5b5035919050565b60006020828403121561138e57600080fd5b5051919050565b6000825160005b818110156113b6576020818601810151858301520161139c565b818111156113c5576000828501525b509190910192915050565b600082198211156113e3576113e3611477565b500190565b60008261141e577f4e487b7100000000000000000000000000000000000000000000000000000000600052601260045260246000fd5b500490565b6000817fffffffffffffffffffffffffffffffffffffffffffffffffffffffffffffffff048311821515161561145b5761145b611477565b500290565b60008282101561147257611472611477565b500390565b7f4e487b7100000000000000000000000000000000000000000000000000000000600052601160045260246000fdfea264697066735822122098a0271050d77cbd67924e844a4aad236571140bbef0ad99c466312bf9329bde64736f6c63430008070033",
          "opcodes": "PUSH2 0x100 PUSH1 0x40 MSTORE CALLVALUE DUP1 ISZERO PUSH3 0x12 JUMPI PUSH1 0x0 DUP1 REVERT JUMPDEST POP PUSH1 0x40 MLOAD PUSH3 0x17FD CODESIZE SUB DUP1 PUSH3 0x17FD DUP4 CODECOPY DUP2 ADD PUSH1 0x40 DUP2 SWAP1 MSTORE PUSH3 0x35 SWAP2 PUSH3 0x1FE JUMP JUMPDEST PUSH3 0x40 CALLER PUSH3 0x1A8 JUMP JUMPDEST PUSH1 0x1 DUP1 DUP2 SWAP1 SSTORE POP PUSH3 0x5D DUP6 PUSH3 0x1F8 PUSH1 0x20 SHL PUSH3 0xFF7 OR PUSH1 0x20 SHR JUMP JUMPDEST PUSH3 0xCA JUMPI PUSH1 0x40 MLOAD PUSH3 0x461BCD PUSH1 0xE5 SHL DUP2 MSTORE PUSH1 0x20 PUSH1 0x4 DUP3 ADD MSTORE PUSH1 0x32 PUSH1 0x24 DUP3 ADD MSTORE PUSH32 0x636F6E7374727563746F723A2072657761726420746F6B656E206D7573742062 PUSH1 0x44 DUP3 ADD MSTORE PUSH18 0x194818481D985B1A590818DBDB9D1C9858DD PUSH1 0x72 SHL PUSH1 0x64 DUP3 ADD MSTORE PUSH1 0x84 ADD JUMPDEST PUSH1 0x40 MLOAD DUP1 SWAP2 SUB SWAP1 REVERT JUMPDEST PUSH3 0xE0 DUP4 PUSH3 0x1F8 PUSH1 0x20 SHL PUSH3 0xFF7 OR PUSH1 0x20 SHR JUMP JUMPDEST PUSH3 0x154 JUMPI PUSH1 0x40 MLOAD PUSH3 0x461BCD PUSH1 0xE5 SHL DUP2 MSTORE PUSH1 0x20 PUSH1 0x4 DUP3 ADD MSTORE PUSH1 0x38 PUSH1 0x24 DUP3 ADD MSTORE PUSH32 0x636F6E7374727563746F723A20456D6265724469737472696275746F72563220 PUSH1 0x44 DUP3 ADD MSTORE PUSH32 0x6D75737420626520612076616C696420636F6E74726163740000000000000000 PUSH1 0x64 DUP3 ADD MSTORE PUSH1 0x84 ADD PUSH3 0xC1 JUMP JUMPDEST PUSH1 0x1 PUSH1 0x1 PUSH1 0x60 SHL SUB NOT PUSH1 0x60 SWAP6 DUP7 SHL DUP2 AND PUSH1 0x80 MSTORE PUSH1 0xA0 SWAP3 SWAP1 SWAP3 MSTORE PUSH1 0x5 SWAP4 SWAP1 SWAP4 SSTORE SWAP3 SHL SWAP1 SWAP2 AND PUSH1 0xE0 MSTORE ISZERO ISZERO PUSH1 0xF8 SHL PUSH1 0xC0 MSTORE PUSH1 0x40 DUP1 MLOAD DUP1 DUP3 ADD SWAP1 SWAP2 MSTORE PUSH1 0x0 DUP1 DUP3 MSTORE TIMESTAMP PUSH1 0x20 SWAP3 SWAP1 SWAP3 ADD DUP3 SWAP1 MSTORE PUSH1 0x2 SSTORE PUSH1 0x3 SSTORE PUSH3 0x283 JUMP JUMPDEST PUSH1 0x0 DUP1 SLOAD PUSH1 0x1 PUSH1 0x1 PUSH1 0xA0 SHL SUB DUP4 DUP2 AND PUSH1 0x1 PUSH1 0x1 PUSH1 0xA0 SHL SUB NOT DUP4 AND DUP2 OR DUP5 SSTORE PUSH1 0x40 MLOAD SWAP2 SWAP1 SWAP3 AND SWAP3 DUP4 SWAP2 PUSH32 0x8BE0079C531659141344CD1FD0A4F28419497F9722A3DAAFE3B4186F6B6457E0 SWAP2 SWAP1 LOG3 POP POP JUMP JUMPDEST EXTCODESIZE ISZERO ISZERO SWAP1 JUMP JUMPDEST PUSH1 0x0 DUP1 PUSH1 0x0 DUP1 PUSH1 0x0 PUSH1 0xA0 DUP7 DUP9 SUB SLT ISZERO PUSH3 0x217 JUMPI PUSH1 0x0 DUP1 REVERT JUMPDEST DUP6 MLOAD PUSH3 0x224 DUP2 PUSH3 0x26A JUMP JUMPDEST PUSH1 0x20 DUP8 ADD MLOAD PUSH1 0x40 DUP9 ADD MLOAD SWAP2 SWAP7 POP SWAP5 POP PUSH3 0x23E DUP2 PUSH3 0x26A JUMP JUMPDEST PUSH1 0x60 DUP8 ADD MLOAD PUSH1 0x80 DUP9 ADD MLOAD SWAP2 SWAP5 POP SWAP3 POP DUP1 ISZERO ISZERO DUP2 EQ PUSH3 0x25C JUMPI PUSH1 0x0 DUP1 REVERT JUMPDEST DUP1 SWAP2 POP POP SWAP3 SWAP6 POP SWAP3 SWAP6 SWAP1 SWAP4 POP JUMP JUMPDEST PUSH1 0x1 PUSH1 0x1 PUSH1 0xA0 SHL SUB DUP2 AND DUP2 EQ PUSH3 0x280 JUMPI PUSH1 0x0 DUP1 REVERT JUMPDEST POP JUMP JUMPDEST PUSH1 0x80 MLOAD PUSH1 0x60 SHR PUSH1 0xA0 MLOAD PUSH1 0xC0 MLOAD PUSH1 0xF8 SHR PUSH1 0xE0 MLOAD PUSH1 0x60 SHR PUSH2 0x14DC PUSH3 0x321 PUSH1 0x0 CODECOPY PUSH1 0x0 DUP2 DUP2 PUSH2 0x1FD ADD MSTORE DUP2 DUP2 PUSH2 0x45B ADD MSTORE DUP2 DUP2 PUSH2 0x9A2 ADD MSTORE PUSH2 0xDC9 ADD MSTORE PUSH1 0x0 DUP2 DUP2 PUSH2 0x1B9 ADD MSTORE DUP2 DUP2 PUSH2 0x62D ADD MSTORE DUP2 DUP2 PUSH2 0xB6D ADD MSTORE PUSH2 0x1076 ADD MSTORE PUSH1 0x0 DUP2 DUP2 PUSH2 0x33B ADD MSTORE DUP2 DUP2 PUSH2 0x9D1 ADD MSTORE PUSH2 0xDA0 ADD MSTORE PUSH1 0x0 DUP2 DUP2 PUSH2 0x38F ADD MSTORE DUP2 DUP2 PUSH2 0x76E ADD MSTORE DUP2 DUP2 PUSH2 0x7B4 ADD MSTORE DUP2 DUP2 PUSH2 0xC8F ADD MSTORE DUP2 DUP2 PUSH2 0xD20 ADD MSTORE PUSH2 0x10CD ADD MSTORE PUSH2 0x14DC PUSH1 0x0 RETURN INVALID PUSH1 0x80 PUSH1 0x40 MSTORE PUSH1 0x4 CALLDATASIZE LT PUSH2 0xF7 JUMPI PUSH1 0x0 CALLDATALOAD PUSH1 0xE0 SHR DUP1 PUSH4 0x9E447FC6 GT PUSH2 0x8A JUMPI DUP1 PUSH4 0xE3161DDD GT PUSH2 0x59 JUMPI DUP1 PUSH4 0xE3161DDD EQ PUSH2 0x2F9 JUMPI DUP1 PUSH4 0xF1068454 EQ PUSH2 0x329 JUMPI DUP1 PUSH4 0xF2FDE38B EQ PUSH2 0x35D JUMPI DUP1 PUSH4 0xF7C618C1 EQ PUSH2 0x37D JUMPI PUSH1 0x0 DUP1 REVERT JUMPDEST DUP1 PUSH4 0x9E447FC6 EQ PUSH2 0x28F JUMPI DUP1 PUSH4 0xB69EF8A8 EQ PUSH2 0x2AF JUMPI DUP1 PUSH4 0xC031A66F EQ PUSH2 0x2C4 JUMPI DUP1 PUSH4 0xDB2E21BC EQ PUSH2 0x2E4 JUMPI PUSH1 0x0 DUP1 REVERT JUMPDEST DUP1 PUSH4 0x73CFC6B2 GT PUSH2 0xC6 JUMPI DUP1 PUSH4 0x73CFC6B2 EQ PUSH2 0x1A7 JUMPI DUP1 PUSH4 0x7D0D9D5F EQ PUSH2 0x1EB JUMPI DUP1 PUSH4 0x83DFBA0D EQ PUSH2 0x244 JUMPI DUP1 PUSH4 0x8DA5CB5B EQ PUSH2 0x264 JUMPI PUSH1 0x0 DUP1 REVERT JUMPDEST DUP1 PUSH4 0x1959A002 EQ PUSH2 0x103 JUMPI DUP1 PUSH4 0x50FD1F3E EQ PUSH2 0x151 JUMPI DUP1 PUSH4 0x5A2F3D09 EQ PUSH2 0x175 JUMPI DUP1 PUSH4 0x715018A6 EQ PUSH2 0x190 JUMPI PUSH1 0x0 DUP1 REVERT JUMPDEST CALLDATASIZE PUSH2 0xFE JUMPI STOP JUMPDEST PUSH1 0x0 DUP1 REVERT JUMPDEST CALLVALUE DUP1 ISZERO PUSH2 0x10F JUMPI PUSH1 0x0 DUP1 REVERT JUMPDEST POP PUSH2 0x137 PUSH2 0x11E CALLDATASIZE PUSH1 0x4 PUSH2 0x12F5 JUMP JUMPDEST PUSH1 0x4 PUSH1 0x20 MSTORE PUSH1 0x0 SWAP1 DUP2 MSTORE PUSH1 0x40 SWAP1 KECCAK256 DUP1 SLOAD PUSH1 0x1 SWAP1 SWAP2 ADD SLOAD DUP3 JUMP JUMPDEST PUSH1 0x40 DUP1 MLOAD SWAP3 DUP4 MSTORE PUSH1 0x20 DUP4 ADD SWAP2 SWAP1 SWAP2 MSTORE ADD JUMPDEST PUSH1 0x40 MLOAD DUP1 SWAP2 SUB SWAP1 RETURN JUMPDEST CALLVALUE DUP1 ISZERO PUSH2 0x15D JUMPI PUSH1 0x0 DUP1 REVERT JUMPDEST POP PUSH2 0x167 PUSH1 0x5 SLOAD DUP2 JUMP JUMPDEST PUSH1 0x40 MLOAD SWAP1 DUP2 MSTORE PUSH1 0x20 ADD PUSH2 0x148 JUMP JUMPDEST CALLVALUE DUP1 ISZERO PUSH2 0x181 JUMPI PUSH1 0x0 DUP1 REVERT JUMPDEST POP PUSH1 0x2 SLOAD PUSH1 0x3 SLOAD PUSH2 0x137 SWAP2 SWAP1 DUP3 JUMP JUMPDEST CALLVALUE DUP1 ISZERO PUSH2 0x19C JUMPI PUSH1 0x0 DUP1 REVERT JUMPDEST POP PUSH2 0x1A5 PUSH2 0x3B1 JUMP JUMPDEST STOP JUMPDEST CALLVALUE DUP1 ISZERO PUSH2 0x1B3 JUMPI PUSH1 0x0 DUP1 REVERT JUMPDEST POP PUSH2 0x1DB PUSH32 0x0 DUP2 JUMP JUMPDEST PUSH1 0x40 MLOAD SWAP1 ISZERO ISZERO DUP2 MSTORE PUSH1 0x20 ADD PUSH2 0x148 JUMP JUMPDEST CALLVALUE DUP1 ISZERO PUSH2 0x1F7 JUMPI PUSH1 0x0 DUP1 REVERT JUMPDEST POP PUSH2 0x21F PUSH32 0x0 DUP2 JUMP JUMPDEST PUSH1 0x40 MLOAD PUSH20 0xFFFFFFFFFFFFFFFFFFFFFFFFFFFFFFFFFFFFFFFF SWAP1 SWAP2 AND DUP2 MSTORE PUSH1 0x20 ADD PUSH2 0x148 JUMP JUMPDEST CALLVALUE DUP1 ISZERO PUSH2 0x250 JUMPI PUSH1 0x0 DUP1 REVERT JUMPDEST POP PUSH2 0x1A5 PUSH2 0x25F CALLDATASIZE PUSH1 0x4 PUSH2 0x1317 JUMP JUMPDEST PUSH2 0x443 JUMP JUMPDEST CALLVALUE DUP1 ISZERO PUSH2 0x270 JUMPI PUSH1 0x0 DUP1 REVERT JUMPDEST POP PUSH1 0x0 SLOAD PUSH20 0xFFFFFFFFFFFFFFFFFFFFFFFFFFFFFFFFFFFFFFFF AND PUSH2 0x21F JUMP JUMPDEST CALLVALUE DUP1 ISZERO PUSH2 0x29B JUMPI PUSH1 0x0 DUP1 REVERT JUMPDEST POP PUSH2 0x1A5 PUSH2 0x2AA CALLDATASIZE PUSH1 0x4 PUSH2 0x1363 JUMP JUMPDEST PUSH2 0x857 JUMP JUMPDEST CALLVALUE DUP1 ISZERO PUSH2 0x2BB JUMPI PUSH1 0x0 DUP1 REVERT JUMPDEST POP PUSH2 0x167 PUSH2 0x922 JUMP JUMPDEST CALLVALUE DUP1 ISZERO PUSH2 0x2D0 JUMPI PUSH1 0x0 DUP1 REVERT JUMPDEST POP PUSH2 0x167 PUSH2 0x2DF CALLDATASIZE PUSH1 0x4 PUSH2 0x12F5 JUMP JUMPDEST PUSH2 0x931 JUMP JUMPDEST CALLVALUE DUP1 ISZERO PUSH2 0x2F0 JUMPI PUSH1 0x0 DUP1 REVERT JUMPDEST POP PUSH2 0x1A5 PUSH2 0xAEA JUMP JUMPDEST CALLVALUE DUP1 ISZERO PUSH2 0x305 JUMPI PUSH1 0x0 DUP1 REVERT JUMPDEST POP PUSH2 0x30E PUSH2 0xD47 JUMP JUMPDEST PUSH1 0x40 DUP1 MLOAD DUP3 MLOAD DUP2 MSTORE PUSH1 0x20 SWAP3 DUP4 ADD MLOAD SWAP3 DUP2 ADD SWAP3 SWAP1 SWAP3 MSTORE ADD PUSH2 0x148 JUMP JUMPDEST CALLVALUE DUP1 ISZERO PUSH2 0x335 JUMPI PUSH1 0x0 DUP1 REVERT JUMPDEST POP PUSH2 0x167 PUSH32 0x0 DUP2 JUMP JUMPDEST CALLVALUE DUP1 ISZERO PUSH2 0x369 JUMPI PUSH1 0x0 DUP1 REVERT JUMPDEST POP PUSH2 0x1A5 PUSH2 0x378 CALLDATASIZE PUSH1 0x4 PUSH2 0x12F5 JUMP JUMPDEST PUSH2 0xECA JUMP JUMPDEST CALLVALUE DUP1 ISZERO PUSH2 0x389 JUMPI PUSH1 0x0 DUP1 REVERT JUMPDEST POP PUSH2 0x21F PUSH32 0x0 DUP2 JUMP JUMPDEST PUSH1 0x0 SLOAD PUSH20 0xFFFFFFFFFFFFFFFFFFFFFFFFFFFFFFFFFFFFFFFF AND CALLER EQ PUSH2 0x437 JUMPI PUSH1 0x40 MLOAD PUSH32 0x8C379A000000000000000000000000000000000000000000000000000000000 DUP2 MSTORE PUSH1 0x20 PUSH1 0x4 DUP3 ADD DUP2 SWAP1 MSTORE PUSH1 0x24 DUP3 ADD MSTORE PUSH32 0x4F776E61626C653A2063616C6C6572206973206E6F7420746865206F776E6572 PUSH1 0x44 DUP3 ADD MSTORE PUSH1 0x64 ADD JUMPDEST PUSH1 0x40 MLOAD DUP1 SWAP2 SUB SWAP1 REVERT JUMPDEST PUSH2 0x441 PUSH1 0x0 PUSH2 0xFFD JUMP JUMPDEST JUMP JUMPDEST CALLER PUSH20 0xFFFFFFFFFFFFFFFFFFFFFFFFFFFFFFFFFFFFFFFF PUSH32 0x0 AND EQ PUSH2 0x52E JUMPI PUSH1 0x40 MLOAD PUSH32 0x8C379A000000000000000000000000000000000000000000000000000000000 DUP2 MSTORE PUSH1 0x20 PUSH1 0x4 DUP3 ADD MSTORE PUSH1 0x41 PUSH1 0x24 DUP3 ADD MSTORE PUSH32 0x6F6E6C794469737472696275746F7256323A206F6E6C7920456D626572446973 PUSH1 0x44 DUP3 ADD MSTORE PUSH32 0x7472696275746F7256322063616E2063616C6C20746869732066756E6374696F PUSH1 0x64 DUP3 ADD MSTORE PUSH32 0x6E00000000000000000000000000000000000000000000000000000000000000 PUSH1 0x84 DUP3 ADD MSTORE PUSH1 0xA4 ADD PUSH2 0x42E JUMP JUMPDEST PUSH1 0x2 PUSH1 0x1 SLOAD EQ ISZERO PUSH2 0x59B JUMPI PUSH1 0x40 MLOAD PUSH32 0x8C379A000000000000000000000000000000000000000000000000000000000 DUP2 MSTORE PUSH1 0x20 PUSH1 0x4 DUP3 ADD MSTORE PUSH1 0x1F PUSH1 0x24 DUP3 ADD MSTORE PUSH32 0x5265656E7472616E637947756172643A207265656E7472616E742063616C6C00 PUSH1 0x44 DUP3 ADD MSTORE PUSH1 0x64 ADD PUSH2 0x42E JUMP JUMPDEST PUSH1 0x2 PUSH1 0x1 SSTORE PUSH2 0x5A8 PUSH2 0xD47 JUMP JUMPDEST POP PUSH1 0x40 DUP1 MLOAD DUP1 DUP3 ADD DUP3 MSTORE PUSH1 0x2 SLOAD DUP2 MSTORE PUSH1 0x3 SLOAD PUSH1 0x20 DUP1 DUP4 ADD SWAP2 SWAP1 SWAP2 MSTORE PUSH20 0xFFFFFFFFFFFFFFFFFFFFFFFFFFFFFFFFFFFFFFFF DUP6 AND PUSH1 0x0 SWAP1 DUP2 MSTORE PUSH1 0x4 SWAP1 SWAP2 MSTORE SWAP2 DUP3 KECCAK256 SWAP1 SWAP2 DUP1 PUSH2 0x5F2 PUSH2 0x1072 JUMP JUMPDEST DUP4 SLOAD SWAP1 SWAP2 POP ISZERO PUSH2 0x7DB JUMPI PUSH1 0x1 DUP4 ADD SLOAD DUP5 MLOAD DUP5 SLOAD PUSH5 0xE8D4A51000 SWAP2 PUSH2 0x615 SWAP2 PUSH2 0x1423 JUMP JUMPDEST PUSH2 0x61F SWAP2 SWAP1 PUSH2 0x13E8 JUMP JUMPDEST PUSH2 0x629 SWAP2 SWAP1 PUSH2 0x1460 JUMP JUMPDEST SWAP2 POP PUSH32 0x0 ISZERO PUSH2 0x74C JUMPI DUP1 DUP3 GT ISZERO PUSH2 0x72A JUMPI PUSH1 0x0 DUP7 PUSH20 0xFFFFFFFFFFFFFFFFFFFFFFFFFFFFFFFFFFFFFFFF AND DUP3 PUSH1 0x40 MLOAD JUMPDEST PUSH1 0x0 PUSH1 0x40 MLOAD DUP1 DUP4 SUB DUP2 DUP6 DUP8 GAS CALL SWAP3 POP POP POP RETURNDATASIZE DUP1 PUSH1 0x0 DUP2 EQ PUSH2 0x6B4 JUMPI PUSH1 0x40 MLOAD SWAP2 POP PUSH1 0x1F NOT PUSH1 0x3F RETURNDATASIZE ADD AND DUP3 ADD PUSH1 0x40 MSTORE RETURNDATASIZE DUP3 MSTORE RETURNDATASIZE PUSH1 0x0 PUSH1 0x20 DUP5 ADD RETURNDATACOPY PUSH2 0x6B9 JUMP JUMPDEST PUSH1 0x60 SWAP2 POP JUMPDEST POP POP SWAP1 POP DUP1 PUSH2 0x724 JUMPI PUSH1 0x40 MLOAD PUSH32 0x8C379A000000000000000000000000000000000000000000000000000000000 DUP2 MSTORE PUSH1 0x20 PUSH1 0x4 DUP3 ADD MSTORE PUSH1 0xF PUSH1 0x24 DUP3 ADD MSTORE PUSH32 0x5472616E73666572206661696C65640000000000000000000000000000000000 PUSH1 0x44 DUP3 ADD MSTORE PUSH1 0x64 ADD PUSH2 0x42E JUMP JUMPDEST POP PUSH2 0x7DB JUMP JUMPDEST PUSH1 0x0 DUP7 PUSH20 0xFFFFFFFFFFFFFFFFFFFFFFFFFFFFFFFFFFFFFFFF AND DUP4 PUSH1 0x40 MLOAD PUSH2 0x677 JUMP JUMPDEST DUP1 DUP3 GT ISZERO PUSH2 0x79A JUMPI PUSH2 0x795 PUSH20 0xFFFFFFFFFFFFFFFFFFFFFFFFFFFFFFFFFFFFFFFF PUSH32 0x0 AND DUP8 DUP4 PUSH2 0x115C JUMP JUMPDEST PUSH2 0x7DB JUMP JUMPDEST PUSH2 0x7DB PUSH20 0xFFFFFFFFFFFFFFFFFFFFFFFFFFFFFFFFFFFFFFFF PUSH32 0x0 AND DUP8 DUP5 PUSH2 0x115C JUMP JUMPDEST DUP5 DUP4 SSTORE DUP4 MLOAD PUSH5 0xE8D4A51000 SWAP1 PUSH2 0x7F1 SWAP1 DUP8 PUSH2 0x1423 JUMP JUMPDEST PUSH2 0x7FB SWAP2 SWAP1 PUSH2 0x13E8 JUMP JUMPDEST PUSH1 0x1 DUP5 ADD SSTORE PUSH1 0x40 MLOAD DUP3 DUP2 MSTORE PUSH20 0xFFFFFFFFFFFFFFFFFFFFFFFFFFFFFFFFFFFFFFFF DUP8 AND SWAP1 PUSH32 0xD1072BB52C3131D0C96197B73FB8A45637E30F8B6664FC142310CC9B242859B4 SWAP1 PUSH1 0x20 ADD PUSH1 0x40 MLOAD DUP1 SWAP2 SUB SWAP1 LOG2 POP POP PUSH1 0x1 DUP1 SSTORE POP POP POP POP JUMP JUMPDEST PUSH1 0x0 SLOAD PUSH20 0xFFFFFFFFFFFFFFFFFFFFFFFFFFFFFFFFFFFFFFFF AND CALLER EQ PUSH2 0x8D8 JUMPI PUSH1 0x40 MLOAD PUSH32 0x8C379A000000000000000000000000000000000000000000000000000000000 DUP2 MSTORE PUSH1 0x20 PUSH1 0x4 DUP3 ADD DUP2 SWAP1 MSTORE PUSH1 0x24 DUP3 ADD MSTORE PUSH32 0x4F776E61626C653A2063616C6C6572206973206E6F7420746865206F776E6572 PUSH1 0x44 DUP3 ADD MSTORE PUSH1 0x64 ADD PUSH2 0x42E JUMP JUMPDEST PUSH2 0x8E0 PUSH2 0xD47 JUMP JUMPDEST POP PUSH1 0x5 SLOAD PUSH1 0x40 DUP1 MLOAD SWAP2 DUP3 MSTORE PUSH1 0x20 DUP3 ADD DUP4 SWAP1 MSTORE PUSH32 0xC390A98ACE15A7BB6BAB611EEDFDBB2685043B241A869420043CDFB23CCFEE50 SWAP2 ADD PUSH1 0x40 MLOAD DUP1 SWAP2 SUB SWAP1 LOG1 PUSH1 0x5 SSTORE JUMP JUMPDEST PUSH1 0x0 PUSH2 0x92C PUSH2 0x1072 JUMP JUMPDEST SWAP1 POP SWAP1 JUMP JUMPDEST PUSH1 0x40 DUP1 MLOAD DUP1 DUP3 ADD DUP3 MSTORE PUSH1 0x2 SLOAD DUP2 MSTORE PUSH1 0x3 SLOAD PUSH1 0x20 DUP1 DUP4 ADD SWAP2 SWAP1 SWAP2 MSTORE PUSH20 0xFFFFFFFFFFFFFFFFFFFFFFFFFFFFFFFFFFFFFFFF DUP1 DUP6 AND PUSH1 0x0 SWAP1 DUP2 MSTORE PUSH1 0x4 SWAP3 DUP4 SWAP1 MSTORE DUP5 DUP2 KECCAK256 DUP5 MLOAD SWAP6 MLOAD PUSH32 0x654C9ECE00000000000000000000000000000000000000000000000000000000 DUP2 MSTORE SWAP2 SWAP6 SWAP1 SWAP4 SWAP1 SWAP3 DUP7 SWAP3 PUSH32 0x0 SWAP1 SWAP2 AND SWAP2 PUSH4 0x654C9ECE SWAP2 PUSH2 0x9FB SWAP2 PUSH32 0x0 SWAP2 ADD SWAP1 DUP2 MSTORE PUSH1 0x20 ADD SWAP1 JUMP JUMPDEST PUSH1 0x20 PUSH1 0x40 MLOAD DUP1 DUP4 SUB DUP2 DUP7 DUP1 EXTCODESIZE ISZERO DUP1 ISZERO PUSH2 0xA13 JUMPI PUSH1 0x0 DUP1 REVERT JUMPDEST POP GAS STATICCALL ISZERO DUP1 ISZERO PUSH2 0xA27 JUMPI RETURNDATASIZE PUSH1 0x0 DUP1 RETURNDATACOPY RETURNDATASIZE PUSH1 0x0 REVERT JUMPDEST POP POP POP POP PUSH1 0x40 MLOAD RETURNDATASIZE PUSH1 0x1F NOT PUSH1 0x1F DUP3 ADD AND DUP3 ADD DUP1 PUSH1 0x40 MSTORE POP DUP2 ADD SWAP1 PUSH2 0xA4B SWAP2 SWAP1 PUSH2 0x137C JUMP JUMPDEST SWAP1 POP DUP4 PUSH1 0x20 ADD MLOAD TIMESTAMP GT DUP1 ISZERO PUSH2 0xA5F JUMPI POP DUP1 ISZERO ISZERO JUMPDEST ISZERO PUSH2 0xAB3 JUMPI PUSH1 0x0 DUP5 PUSH1 0x20 ADD MLOAD TIMESTAMP PUSH2 0xA76 SWAP2 SWAP1 PUSH2 0x1460 JUMP JUMPDEST SWAP1 POP PUSH1 0x0 PUSH1 0x5 SLOAD DUP3 PUSH2 0xA88 SWAP2 SWAP1 PUSH2 0x1423 JUMP JUMPDEST SWAP1 POP DUP3 PUSH2 0xA9A PUSH5 0xE8D4A51000 DUP4 PUSH2 0x1423 JUMP JUMPDEST PUSH2 0xAA4 SWAP2 SWAP1 PUSH2 0x13E8 JUMP JUMPDEST PUSH2 0xAAE SWAP1 DUP6 PUSH2 0x13D0 JUMP JUMPDEST SWAP4 POP POP POP JUMPDEST PUSH1 0x1 DUP4 ADD SLOAD DUP4 SLOAD PUSH5 0xE8D4A51000 SWAP1 PUSH2 0xACC SWAP1 DUP6 SWAP1 PUSH2 0x1423 JUMP JUMPDEST PUSH2 0xAD6 SWAP2 SWAP1 PUSH2 0x13E8 JUMP JUMPDEST PUSH2 0xAE0 SWAP2 SWAP1 PUSH2 0x1460 JUMP JUMPDEST SWAP7 SWAP6 POP POP POP POP POP POP JUMP JUMPDEST PUSH1 0x0 SLOAD PUSH20 0xFFFFFFFFFFFFFFFFFFFFFFFFFFFFFFFFFFFFFFFF AND CALLER EQ PUSH2 0xB6B JUMPI PUSH1 0x40 MLOAD PUSH32 0x8C379A000000000000000000000000000000000000000000000000000000000 DUP2 MSTORE PUSH1 0x20 PUSH1 0x4 DUP3 ADD DUP2 SWAP1 MSTORE PUSH1 0x24 DUP3 ADD MSTORE PUSH32 0x4F776E61626C653A2063616C6C6572206973206E6F7420746865206F776E6572 PUSH1 0x44 DUP3 ADD MSTORE PUSH1 0x64 ADD PUSH2 0x42E JUMP JUMPDEST PUSH32 0x0 ISZERO PUSH2 0xC46 JUMPI PUSH1 0x40 MLOAD PUSH1 0x0 SWAP1 CALLER SWAP1 SELFBALANCE SWAP1 DUP4 DUP2 DUP2 DUP2 DUP6 DUP8 GAS CALL SWAP3 POP POP POP RETURNDATASIZE DUP1 PUSH1 0x0 DUP2 EQ PUSH2 0xBD3 JUMPI PUSH1 0x40 MLOAD SWAP2 POP PUSH1 0x1F NOT PUSH1 0x3F RETURNDATASIZE ADD AND DUP3 ADD PUSH1 0x40 MSTORE RETURNDATASIZE DUP3 MSTORE RETURNDATASIZE PUSH1 0x0 PUSH1 0x20 DUP5 ADD RETURNDATACOPY PUSH2 0xBD8 JUMP JUMPDEST PUSH1 0x60 SWAP2 POP JUMPDEST POP POP SWAP1 POP DUP1 PUSH2 0xC43 JUMPI PUSH1 0x40 MLOAD PUSH32 0x8C379A000000000000000000000000000000000000000000000000000000000 DUP2 MSTORE PUSH1 0x20 PUSH1 0x4 DUP3 ADD MSTORE PUSH1 0xF PUSH1 0x24 DUP3 ADD MSTORE PUSH32 0x5472616E73666572206661696C65640000000000000000000000000000000000 PUSH1 0x44 DUP3 ADD MSTORE PUSH1 0x64 ADD PUSH2 0x42E JUMP JUMPDEST POP JUMP JUMPDEST PUSH1 0x40 MLOAD PUSH32 0x70A0823100000000000000000000000000000000000000000000000000000000 DUP2 MSTORE ADDRESS PUSH1 0x4 DUP3 ADD MSTORE PUSH2 0x441 SWAP1 CALLER SWAP1 PUSH20 0xFFFFFFFFFFFFFFFFFFFFFFFFFFFFFFFFFFFFFFFF PUSH32 0x0 AND SWAP1 PUSH4 0x70A08231 SWAP1 PUSH1 0x24 ADD PUSH1 0x20 PUSH1 0x40 MLOAD DUP1 DUP4 SUB DUP2 DUP7 DUP1 EXTCODESIZE ISZERO DUP1 ISZERO PUSH2 0xCD1 JUMPI PUSH1 0x0 DUP1 REVERT JUMPDEST POP GAS STATICCALL ISZERO DUP1 ISZERO PUSH2 0xCE5 JUMPI RETURNDATASIZE PUSH1 0x0 DUP1 RETURNDATACOPY RETURNDATASIZE PUSH1 0x0 REVERT JUMPDEST POP POP POP POP PUSH1 0x40 MLOAD RETURNDATASIZE PUSH1 0x1F NOT PUSH1 0x1F DUP3 ADD AND DUP3 ADD DUP1 PUSH1 0x40 MSTORE POP DUP2 ADD SWAP1 PUSH2 0xD09 SWAP2 SWAP1 PUSH2 0x137C JUMP JUMPDEST PUSH20 0xFFFFFFFFFFFFFFFFFFFFFFFFFFFFFFFFFFFFFFFF PUSH32 0x0 AND SWAP2 SWAP1 PUSH2 0x115C JUMP JUMPDEST PUSH1 0x40 DUP1 MLOAD DUP1 DUP3 ADD DUP3 MSTORE PUSH1 0x0 DUP1 DUP3 MSTORE PUSH1 0x20 SWAP2 DUP3 ADD MSTORE DUP2 MLOAD DUP1 DUP4 ADD SWAP1 SWAP3 MSTORE PUSH1 0x2 SLOAD DUP3 MSTORE PUSH1 0x3 SLOAD SWAP1 DUP3 ADD DUP2 SWAP1 MSTORE TIMESTAMP GT ISZERO PUSH2 0xEC7 JUMPI PUSH1 0x40 MLOAD PUSH32 0x654C9ECE00000000000000000000000000000000000000000000000000000000 DUP2 MSTORE PUSH32 0x0 PUSH1 0x4 DUP3 ADD MSTORE PUSH1 0x0 SWAP1 PUSH32 0x0 PUSH20 0xFFFFFFFFFFFFFFFFFFFFFFFFFFFFFFFFFFFFFFFF AND SWAP1 PUSH4 0x654C9ECE SWAP1 PUSH1 0x24 ADD PUSH1 0x20 PUSH1 0x40 MLOAD DUP1 DUP4 SUB DUP2 DUP7 DUP1 EXTCODESIZE ISZERO DUP1 ISZERO PUSH2 0xE20 JUMPI PUSH1 0x0 DUP1 REVERT JUMPDEST POP GAS STATICCALL ISZERO DUP1 ISZERO PUSH2 0xE34 JUMPI RETURNDATASIZE PUSH1 0x0 DUP1 RETURNDATACOPY RETURNDATASIZE PUSH1 0x0 REVERT JUMPDEST POP POP POP POP PUSH1 0x40 MLOAD RETURNDATASIZE PUSH1 0x1F NOT PUSH1 0x1F DUP3 ADD AND DUP3 ADD DUP1 PUSH1 0x40 MSTORE POP DUP2 ADD SWAP1 PUSH2 0xE58 SWAP2 SWAP1 PUSH2 0x137C JUMP JUMPDEST SWAP1 POP DUP1 ISZERO PUSH2 0xEB5 JUMPI PUSH1 0x0 DUP3 PUSH1 0x20 ADD MLOAD TIMESTAMP PUSH2 0xE72 SWAP2 SWAP1 PUSH2 0x1460 JUMP JUMPDEST SWAP1 POP PUSH1 0x0 PUSH1 0x5 SLOAD DUP3 PUSH2 0xE84 SWAP2 SWAP1 PUSH2 0x1423 JUMP JUMPDEST SWAP1 POP DUP3 PUSH2 0xE96 PUSH5 0xE8D4A51000 DUP4 PUSH2 0x1423 JUMP JUMPDEST PUSH2 0xEA0 SWAP2 SWAP1 PUSH2 0x13E8 JUMP JUMPDEST DUP5 MLOAD DUP6 SWAP1 PUSH2 0xEAF SWAP1 DUP4 SWAP1 PUSH2 0x13D0 JUMP JUMPDEST SWAP1 MSTORE POP POP POP JUMPDEST POP TIMESTAMP PUSH1 0x20 DUP3 ADD DUP2 SWAP1 MSTORE DUP2 MLOAD PUSH1 0x2 SSTORE PUSH1 0x3 SSTORE JUMPDEST SWAP1 JUMP JUMPDEST PUSH1 0x0 SLOAD PUSH20 0xFFFFFFFFFFFFFFFFFFFFFFFFFFFFFFFFFFFFFFFF AND CALLER EQ PUSH2 0xF4B JUMPI PUSH1 0x40 MLOAD PUSH32 0x8C379A000000000000000000000000000000000000000000000000000000000 DUP2 MSTORE PUSH1 0x20 PUSH1 0x4 DUP3 ADD DUP2 SWAP1 MSTORE PUSH1 0x24 DUP3 ADD MSTORE PUSH32 0x4F776E61626C653A2063616C6C6572206973206E6F7420746865206F776E6572 PUSH1 0x44 DUP3 ADD MSTORE PUSH1 0x64 ADD PUSH2 0x42E JUMP JUMPDEST PUSH20 0xFFFFFFFFFFFFFFFFFFFFFFFFFFFFFFFFFFFFFFFF DUP2 AND PUSH2 0xFEE JUMPI PUSH1 0x40 MLOAD PUSH32 0x8C379A000000000000000000000000000000000000000000000000000000000 DUP2 MSTORE PUSH1 0x20 PUSH1 0x4 DUP3 ADD MSTORE PUSH1 0x26 PUSH1 0x24 DUP3 ADD MSTORE PUSH32 0x4F776E61626C653A206E6577206F776E657220697320746865207A65726F2061 PUSH1 0x44 DUP3 ADD MSTORE PUSH32 0x6464726573730000000000000000000000000000000000000000000000000000 PUSH1 0x64 DUP3 ADD MSTORE PUSH1 0x84 ADD PUSH2 0x42E JUMP JUMPDEST PUSH2 0xC43 DUP2 PUSH2 0xFFD JUMP JUMPDEST EXTCODESIZE ISZERO ISZERO SWAP1 JUMP JUMPDEST PUSH1 0x0 DUP1 SLOAD PUSH20 0xFFFFFFFFFFFFFFFFFFFFFFFFFFFFFFFFFFFFFFFF DUP4 DUP2 AND PUSH32 0xFFFFFFFFFFFFFFFFFFFFFFFF0000000000000000000000000000000000000000 DUP4 AND DUP2 OR DUP5 SSTORE PUSH1 0x40 MLOAD SWAP2 SWAP1 SWAP3 AND SWAP3 DUP4 SWAP2 PUSH32 0x8BE0079C531659141344CD1FD0A4F28419497F9722A3DAAFE3B4186F6B6457E0 SWAP2 SWAP1 LOG3 POP POP JUMP JUMPDEST PUSH1 0x0 PUSH32 0x0 ISZERO PUSH2 0x109F JUMPI POP SELFBALANCE SWAP1 JUMP JUMPDEST PUSH1 0x40 MLOAD PUSH32 0x70A0823100000000000000000000000000000000000000000000000000000000 DUP2 MSTORE ADDRESS PUSH1 0x4 DUP3 ADD MSTORE PUSH32 0x0 PUSH20 0xFFFFFFFFFFFFFFFFFFFFFFFFFFFFFFFFFFFFFFFF AND SWAP1 PUSH4 0x70A08231 SWAP1 PUSH1 0x24 ADD PUSH1 0x20 PUSH1 0x40 MLOAD DUP1 DUP4 SUB DUP2 DUP7 DUP1 EXTCODESIZE ISZERO DUP1 ISZERO PUSH2 0x1124 JUMPI PUSH1 0x0 DUP1 REVERT JUMPDEST POP GAS STATICCALL ISZERO DUP1 ISZERO PUSH2 0x1138 JUMPI RETURNDATASIZE PUSH1 0x0 DUP1 RETURNDATACOPY RETURNDATASIZE PUSH1 0x0 REVERT JUMPDEST POP POP POP POP PUSH1 0x40 MLOAD RETURNDATASIZE PUSH1 0x1F NOT PUSH1 0x1F DUP3 ADD AND DUP3 ADD DUP1 PUSH1 0x40 MSTORE POP DUP2 ADD SWAP1 PUSH2 0x92C SWAP2 SWAP1 PUSH2 0x137C JUMP JUMPDEST PUSH1 0x40 DUP1 MLOAD PUSH20 0xFFFFFFFFFFFFFFFFFFFFFFFFFFFFFFFFFFFFFFFF DUP5 DUP2 AND PUSH1 0x24 DUP4 ADD MSTORE PUSH1 0x44 DUP1 DUP4 ADD DUP6 SWAP1 MSTORE DUP4 MLOAD DUP1 DUP5 SUB SWAP1 SWAP2 ADD DUP2 MSTORE PUSH1 0x64 SWAP1 SWAP3 ADD DUP4 MSTORE PUSH1 0x20 DUP3 ADD DUP1 MLOAD PUSH28 0xFFFFFFFFFFFFFFFFFFFFFFFFFFFFFFFFFFFFFFFFFFFFFFFFFFFFFFFF AND PUSH32 0xA9059CBB00000000000000000000000000000000000000000000000000000000 OR SWAP1 MSTORE SWAP2 MLOAD PUSH1 0x0 SWAP3 DUP4 SWAP3 SWAP1 DUP8 AND SWAP2 PUSH2 0x11F3 SWAP2 SWAP1 PUSH2 0x1395 JUMP JUMPDEST PUSH1 0x0 PUSH1 0x40 MLOAD DUP1 DUP4 SUB DUP2 PUSH1 0x0 DUP7 GAS CALL SWAP2 POP POP RETURNDATASIZE DUP1 PUSH1 0x0 DUP2 EQ PUSH2 0x1230 JUMPI PUSH1 0x40 MLOAD SWAP2 POP PUSH1 0x1F NOT PUSH1 0x3F RETURNDATASIZE ADD AND DUP3 ADD PUSH1 0x40 MSTORE RETURNDATASIZE DUP3 MSTORE RETURNDATASIZE PUSH1 0x0 PUSH1 0x20 DUP5 ADD RETURNDATACOPY PUSH2 0x1235 JUMP JUMPDEST PUSH1 0x60 SWAP2 POP JUMPDEST POP SWAP2 POP SWAP2 POP DUP2 DUP1 ISZERO PUSH2 0x125F JUMPI POP DUP1 MLOAD ISZERO DUP1 PUSH2 0x125F JUMPI POP DUP1 DUP1 PUSH1 0x20 ADD SWAP1 MLOAD DUP2 ADD SWAP1 PUSH2 0x125F SWAP2 SWAP1 PUSH2 0x1341 JUMP JUMPDEST PUSH2 0x12C5 JUMPI PUSH1 0x40 MLOAD PUSH32 0x8C379A000000000000000000000000000000000000000000000000000000000 DUP2 MSTORE PUSH1 0x20 PUSH1 0x4 DUP3 ADD MSTORE PUSH1 0x1C PUSH1 0x24 DUP3 ADD MSTORE PUSH32 0x426F72696E6745524332303A205472616E73666572206661696C656400000000 PUSH1 0x44 DUP3 ADD MSTORE PUSH1 0x64 ADD PUSH2 0x42E JUMP JUMPDEST POP POP POP POP POP JUMP JUMPDEST DUP1 CALLDATALOAD PUSH20 0xFFFFFFFFFFFFFFFFFFFFFFFFFFFFFFFFFFFFFFFF DUP2 AND DUP2 EQ PUSH2 0x12F0 JUMPI PUSH1 0x0 DUP1 REVERT JUMPDEST SWAP2 SWAP1 POP JUMP JUMPDEST PUSH1 0x0 PUSH1 0x20 DUP3 DUP5 SUB SLT ISZERO PUSH2 0x1307 JUMPI PUSH1 0x0 DUP1 REVERT JUMPDEST PUSH2 0x1310 DUP3 PUSH2 0x12CC JUMP JUMPDEST SWAP4 SWAP3 POP POP POP JUMP JUMPDEST PUSH1 0x0 DUP1 PUSH1 0x40 DUP4 DUP6 SUB SLT ISZERO PUSH2 0x132A JUMPI PUSH1 0x0 DUP1 REVERT JUMPDEST PUSH2 0x1333 DUP4 PUSH2 0x12CC JUMP JUMPDEST SWAP5 PUSH1 0x20 SWAP4 SWAP1 SWAP4 ADD CALLDATALOAD SWAP4 POP POP POP JUMP JUMPDEST PUSH1 0x0 PUSH1 0x20 DUP3 DUP5 SUB SLT ISZERO PUSH2 0x1353 JUMPI PUSH1 0x0 DUP1 REVERT JUMPDEST DUP2 MLOAD DUP1 ISZERO ISZERO DUP2 EQ PUSH2 0x1310 JUMPI PUSH1 0x0 DUP1 REVERT JUMPDEST PUSH1 0x0 PUSH1 0x20 DUP3 DUP5 SUB SLT ISZERO PUSH2 0x1375 JUMPI PUSH1 0x0 DUP1 REVERT JUMPDEST POP CALLDATALOAD SWAP2 SWAP1 POP JUMP JUMPDEST PUSH1 0x0 PUSH1 0x20 DUP3 DUP5 SUB SLT ISZERO PUSH2 0x138E JUMPI PUSH1 0x0 DUP1 REVERT JUMPDEST POP MLOAD SWAP2 SWAP1 POP JUMP JUMPDEST PUSH1 0x0 DUP3 MLOAD PUSH1 0x0 JUMPDEST DUP2 DUP2 LT ISZERO PUSH2 0x13B6 JUMPI PUSH1 0x20 DUP2 DUP7 ADD DUP2 ADD MLOAD DUP6 DUP4 ADD MSTORE ADD PUSH2 0x139C JUMP JUMPDEST DUP2 DUP2 GT ISZERO PUSH2 0x13C5 JUMPI PUSH1 0x0 DUP3 DUP6 ADD MSTORE JUMPDEST POP SWAP2 SWAP1 SWAP2 ADD SWAP3 SWAP2 POP POP JUMP JUMPDEST PUSH1 0x0 DUP3 NOT DUP3 GT ISZERO PUSH2 0x13E3 JUMPI PUSH2 0x13E3 PUSH2 0x1477 JUMP JUMPDEST POP ADD SWAP1 JUMP JUMPDEST PUSH1 0x0 DUP3 PUSH2 0x141E JUMPI PUSH32 0x4E487B7100000000000000000000000000000000000000000000000000000000 PUSH1 0x0 MSTORE PUSH1 0x12 PUSH1 0x4 MSTORE PUSH1 0x24 PUSH1 0x0 REVERT JUMPDEST POP DIV SWAP1 JUMP JUMPDEST PUSH1 0x0 DUP2 PUSH32 0xFFFFFFFFFFFFFFFFFFFFFFFFFFFFFFFFFFFFFFFFFFFFFFFFFFFFFFFFFFFFFFFF DIV DUP4 GT DUP3 ISZERO ISZERO AND ISZERO PUSH2 0x145B JUMPI PUSH2 0x145B PUSH2 0x1477 JUMP JUMPDEST POP MUL SWAP1 JUMP JUMPDEST PUSH1 0x0 DUP3 DUP3 LT ISZERO PUSH2 0x1472 JUMPI PUSH2 0x1472 PUSH2 0x1477 JUMP JUMPDEST POP SUB SWAP1 JUMP JUMPDEST PUSH32 0x4E487B7100000000000000000000000000000000000000000000000000000000 PUSH1 0x0 MSTORE PUSH1 0x11 PUSH1 0x4 MSTORE PUSH1 0x24 PUSH1 0x0 REVERT INVALID LOG2 PUSH5 0x6970667358 0x22 SLT KECCAK256 SWAP9 LOG0 0x27 LT POP 0xD7 PUSH29 0xBD67924E844A4AAD236571140BBEF0AD99C466312BF9329BDE64736F6C PUSH4 0x43000807 STOP CALLER "
        },
        "gasEstimates": {
          "creation": {
            "codeDepositCost": "1068000",
            "executionCost": "infinite",
            "totalCost": "infinite"
          },
          "external": {
            "balance()": "infinite",
            "distributorV2()": "infinite",
            "emergencyWithdraw()": "infinite",
            "isNative()": "infinite",
            "onEmberReward(address,uint256)": "infinite",
            "owner()": "2396",
            "pendingTokens(address)": "infinite",
            "pid()": "infinite",
            "poolInfo()": "4485",
            "renounceOwnership()": "28165",
            "rewardToken()": "infinite",
            "setRewardRate(uint256)": "infinite",
            "tokenPerSec()": "2341",
            "transferOwnership(address)": "28312",
            "updatePool()": "infinite",
            "userInfo(address)": "4659"
          },
          "internal": {
            "_balance()": "infinite"
          }
        },
        "methodIdentifiers": {
          "balance()": "b69ef8a8",
          "distributorV2()": "7d0d9d5f",
          "emergencyWithdraw()": "db2e21bc",
          "isNative()": "73cfc6b2",
          "onEmberReward(address,uint256)": "83dfba0d",
          "owner()": "8da5cb5b",
          "pendingTokens(address)": "c031a66f",
          "pid()": "f1068454",
          "poolInfo()": "5a2f3d09",
          "renounceOwnership()": "715018a6",
          "rewardToken()": "f7c618c1",
          "setRewardRate(uint256)": "9e447fc6",
          "tokenPerSec()": "50fd1f3e",
          "transferOwnership(address)": "f2fde38b",
          "updatePool()": "e3161ddd",
          "userInfo(address)": "1959a002"
        }
      },
      "storageLayout": {
        "storage": [
          {
            "astId": 321,
            "contract": "contracts/farm/rewarders/SimpleRewarderPerSec.sol:SimpleRewarderPerSec",
            "label": "_owner",
            "offset": 0,
            "slot": "0",
            "type": "t_address"
          },
          {
            "astId": 427,
            "contract": "contracts/farm/rewarders/SimpleRewarderPerSec.sol:SimpleRewarderPerSec",
            "label": "_status",
            "offset": 0,
            "slot": "1",
            "type": "t_uint256"
          },
          {
            "astId": 923,
            "contract": "contracts/farm/rewarders/SimpleRewarderPerSec.sol:SimpleRewarderPerSec",
            "label": "poolInfo",
            "offset": 0,
            "slot": "2",
            "type": "t_struct(PoolInfo)919_storage"
          },
          {
            "astId": 929,
            "contract": "contracts/farm/rewarders/SimpleRewarderPerSec.sol:SimpleRewarderPerSec",
            "label": "userInfo",
            "offset": 0,
            "slot": "4",
            "type": "t_mapping(t_address,t_struct(UserInfo)914_storage)"
          },
          {
            "astId": 931,
            "contract": "contracts/farm/rewarders/SimpleRewarderPerSec.sol:SimpleRewarderPerSec",
            "label": "tokenPerSec",
            "offset": 0,
            "slot": "5",
            "type": "t_uint256"
          }
        ],
        "types": {
          "t_address": {
            "encoding": "inplace",
            "label": "address",
            "numberOfBytes": "20"
          },
          "t_mapping(t_address,t_struct(UserInfo)914_storage)": {
            "encoding": "mapping",
            "key": "t_address",
            "label": "mapping(address => struct SimpleRewarderPerSec.UserInfo)",
            "numberOfBytes": "32",
            "value": "t_struct(UserInfo)914_storage"
          },
          "t_struct(PoolInfo)919_storage": {
            "encoding": "inplace",
            "label": "struct SimpleRewarderPerSec.PoolInfo",
            "members": [
              {
                "astId": 916,
                "contract": "contracts/farm/rewarders/SimpleRewarderPerSec.sol:SimpleRewarderPerSec",
                "label": "accTokenPerShare",
                "offset": 0,
                "slot": "0",
                "type": "t_uint256"
              },
              {
                "astId": 918,
                "contract": "contracts/farm/rewarders/SimpleRewarderPerSec.sol:SimpleRewarderPerSec",
                "label": "lastRewardTimestamp",
                "offset": 0,
                "slot": "1",
                "type": "t_uint256"
              }
            ],
            "numberOfBytes": "64"
          },
          "t_struct(UserInfo)914_storage": {
            "encoding": "inplace",
            "label": "struct SimpleRewarderPerSec.UserInfo",
            "members": [
              {
                "astId": 911,
                "contract": "contracts/farm/rewarders/SimpleRewarderPerSec.sol:SimpleRewarderPerSec",
                "label": "amount",
                "offset": 0,
                "slot": "0",
                "type": "t_uint256"
              },
              {
                "astId": 913,
                "contract": "contracts/farm/rewarders/SimpleRewarderPerSec.sol:SimpleRewarderPerSec",
                "label": "rewardDebt",
                "offset": 0,
                "slot": "1",
                "type": "t_uint256"
              }
            ],
            "numberOfBytes": "64"
          },
          "t_uint256": {
            "encoding": "inplace",
            "label": "uint256",
            "numberOfBytes": "32"
          }
        }
      },
      "userdoc": {
        "kind": "user",
        "methods": {
          "balance()": {
            "notice": "View function to see balance of reward token."
          },
          "emergencyWithdraw()": {
            "notice": "In case rewarder is stopped before emissions finished, this function allows withdrawal of remaining tokens."
          },
          "onEmberReward(address,uint256)": {
            "notice": "Function called by EmberDistributorV2 whenever staker claims EMBER harvest. Allows staker to also receive a 2nd reward token."
          },
          "pendingTokens(address)": {
            "notice": "View function to see pending tokens"
          },
          "poolInfo()": {
            "notice": "Info of the poolInfo."
          },
          "setRewardRate(uint256)": {
            "notice": "Sets the distribution reward rate. This will also update the poolInfo."
          },
          "updatePool()": {
            "notice": "Update reward variables of the given poolInfo."
          },
          "userInfo(address)": {
            "notice": "Info of each user that stakes LP tokens."
          }
        },
        "notice": "This is a sample contract to be used in the EmberDistributorV2 contract for partners to reward stakers with their native token alongside EMBER. It assumes no minting rights, so requires a set amount of YOUR_TOKEN to be transferred to this contract prior. E.g. say you've allocated 100,000 XYZ to the EMBER-XYZ farm over 30 days. Then you would need to transfer 100,000 XYZ and set the block reward accordingly so it's fully distributed after 30 days.",
        "version": 1
      }
    }
  }
}