{
  "_format": "hh-sol-artifact-1",
  "contractName": "EmberVault",
  "sourceName": "contracts/farm/EmberVault.sol",
  "abi": [
    {
      "inputs": [
        {
          "internalType": "contract IEmberERC20",
          "name": "_ember",
          "type": "address"
        },
        {
          "internalType": "uint256",
          "name": "_emberPerBlock",
          "type": "uint256"
        }
      ],
      "stateMutability": "nonpayable",
      "type": "constructor"
    },
    {
      "anonymous": false,
      "inputs": [
        {
          "indexed": true,
          "internalType": "address",
          "name": "caller",
          "type": "address"
        },
        {
          "indexed": false,
          "internalType": "uint256",
          "name": "previousAmount",
          "type": "uint256"
        },
        {
          "indexed": false,
          "internalType": "uint256",
          "name": "newAmount",
          "type": "uint256"
        }
      ],
      "name": "AllocPointsUpdated",
      "type": "event"
    },
    {
      "anonymous": false,
      "inputs": [
        {
          "indexed": true,
          "internalType": "address",
          "name": "user",
          "type": "address"
        },
        {
          "indexed": true,
          "internalType": "uint256",
          "name": "pid",
          "type": "uint256"
        },
        {
          "indexed": false,
          "internalType": "uint256",
          "name": "amount",
          "type": "uint256"
        }
      ],
      "name": "Deposit",
      "type": "event"
    },
    {
      "anonymous": false,
      "inputs": [
        {
          "indexed": true,
          "internalType": "address",
          "name": "caller",
          "type": "address"
        },
        {
          "indexed": false,
          "internalType": "address",
          "name": "oldAddress",
          "type": "address"
        },
        {
          "indexed": false,
          "internalType": "address",
          "name": "newAddress",
          "type": "address"
        }
      ],
      "name": "DevAddressChanged",
      "type": "event"
    },
    {
      "anonymous": false,
      "inputs": [
        {
          "indexed": true,
          "internalType": "address",
          "name": "user",
          "type": "address"
        },
        {
          "indexed": true,
          "internalType": "uint256",
          "name": "pid",
          "type": "uint256"
        },
        {
          "indexed": false,
          "internalType": "uint256",
          "name": "amount",
          "type": "uint256"
        }
      ],
      "name": "EmergencyWithdraw",
      "type": "event"
    },
    {
      "anonymous": false,
      "inputs": [
        {
          "indexed": true,
          "internalType": "address",
          "name": "caller",
          "type": "address"
        },
        {
          "indexed": false,
          "internalType": "uint256",
          "name": "previousAmount",
          "type": "uint256"
        },
        {
          "indexed": false,
          "internalType": "uint256",
          "name": "newAmount",
          "type": "uint256"
        }
      ],
      "name": "EmissionRateUpdated",
      "type": "event"
    },
    {
      "anonymous": false,
      "inputs": [
        {
          "indexed": true,
          "internalType": "address",
          "name": "caller",
          "type": "address"
        },
        {
          "indexed": false,
          "internalType": "address",
          "name": "oldAddress",
          "type": "address"
        },
        {
          "indexed": false,
          "internalType": "address",
          "name": "newAddress",
          "type": "address"
        }
      ],
      "name": "FeeAddressChanged",
      "type": "event"
    },
    {
      "anonymous": false,
      "inputs": [
        {
          "indexed": true,
          "internalType": "address",
          "name": "caller",
          "type": "address"
        }
      ],
      "name": "MetaTxnsDisabled",
      "type": "event"
    },
    {
      "anonymous": false,
      "inputs": [
        {
          "indexed": true,
          "internalType": "address",
          "name": "caller",
          "type": "address"
        }
      ],
      "name": "MetaTxnsEnabled",
      "type": "event"
    },
    {
      "anonymous": false,
      "inputs": [
        {
          "indexed": true,
          "internalType": "address",
          "name": "previousOperator",
          "type": "address"
        },
        {
          "indexed": true,
          "internalType": "address",
          "name": "newOperator",
          "type": "address"
        }
      ],
      "name": "OperatorTransferred",
      "type": "event"
    },
    {
      "anonymous": false,
      "inputs": [
        {
          "indexed": true,
          "internalType": "address",
          "name": "previousOwner",
          "type": "address"
        },
        {
          "indexed": true,
          "internalType": "address",
          "name": "newOwner",
          "type": "address"
        }
      ],
      "name": "OwnershipTransferred",
      "type": "event"
    },
    {
      "anonymous": false,
      "inputs": [
        {
          "indexed": true,
          "internalType": "address",
          "name": "user",
          "type": "address"
        },
        {
          "indexed": true,
          "internalType": "uint256",
          "name": "pid",
          "type": "uint256"
        },
        {
          "indexed": false,
          "internalType": "uint256",
          "name": "amountLockedUp",
          "type": "uint256"
        }
      ],
      "name": "RewardLockedUp",
      "type": "event"
    },
    {
      "anonymous": false,
      "inputs": [
        {
          "indexed": true,
          "internalType": "address",
          "name": "user",
          "type": "address"
        },
        {
          "indexed": true,
          "internalType": "uint256",
          "name": "pid",
          "type": "uint256"
        },
        {
          "indexed": false,
          "internalType": "uint256",
          "name": "amount",
          "type": "uint256"
        }
      ],
      "name": "Withdraw",
      "type": "event"
    },
    {
      "inputs": [],
      "name": "MAXIMUM_DEPOSIT_FEE_RATE",
      "outputs": [
        {
          "internalType": "uint16",
          "name": "",
          "type": "uint16"
        }
      ],
      "stateMutability": "view",
      "type": "function"
    },
    {
      "inputs": [],
      "name": "MAXIMUM_HARVEST_INTERVAL",
      "outputs": [
        {
          "internalType": "uint256",
          "name": "",
          "type": "uint256"
        }
      ],
      "stateMutability": "view",
      "type": "function"
    },
    {
      "inputs": [
        {
          "internalType": "uint256",
          "name": "_allocPoint",
          "type": "uint256"
        },
        {
          "internalType": "contract IERC20",
          "name": "_lpToken",
          "type": "address"
        },
        {
          "internalType": "uint16",
          "name": "_depositFeeBP",
          "type": "uint16"
        },
        {
          "internalType": "uint256",
          "name": "_harvestInterval",
          "type": "uint256"
        },
        {
          "internalType": "uint256",
          "name": "_lockupDuration",
          "type": "uint256"
        },
        {
          "internalType": "bool",
          "name": "_withUpdate",
          "type": "bool"
        }
      ],
      "name": "add",
      "outputs": [],
      "stateMutability": "nonpayable",
      "type": "function"
    },
    {
      "inputs": [
        {
          "internalType": "uint256",
          "name": "_pid",
          "type": "uint256"
        },
        {
          "internalType": "address",
          "name": "_user",
          "type": "address"
        }
      ],
      "name": "canHarvest",
      "outputs": [
        {
          "internalType": "bool",
          "name": "",
          "type": "bool"
        }
      ],
      "stateMutability": "view",
      "type": "function"
    },
    {
      "inputs": [
        {
          "internalType": "uint256",
          "name": "_pid",
          "type": "uint256"
        },
        {
          "internalType": "uint256",
          "name": "_amount",
          "type": "uint256"
        }
      ],
      "name": "deposit",
      "outputs": [],
      "stateMutability": "nonpayable",
      "type": "function"
    },
    {
      "inputs": [],
      "name": "devAddress",
      "outputs": [
        {
          "internalType": "address",
          "name": "",
          "type": "address"
        }
      ],
      "stateMutability": "view",
      "type": "function"
    },
    {
      "inputs": [],
      "name": "disableMetaTxns",
      "outputs": [],
      "stateMutability": "nonpayable",
      "type": "function"
    },
    {
      "inputs": [],
      "name": "ember",
      "outputs": [
        {
          "internalType": "contract IEmberERC20",
          "name": "",
          "type": "address"
        }
      ],
      "stateMutability": "view",
      "type": "function"
    },
    {
      "inputs": [],
      "name": "emberPerBlock",
      "outputs": [
        {
          "internalType": "uint256",
          "name": "",
          "type": "uint256"
        }
      ],
      "stateMutability": "view",
      "type": "function"
    },
    {
      "inputs": [],
      "name": "enableMetaTxns",
      "outputs": [],
      "stateMutability": "nonpayable",
      "type": "function"
    },
    {
      "inputs": [],
      "name": "feeAddress",
      "outputs": [
        {
          "internalType": "address",
          "name": "",
          "type": "address"
        }
      ],
      "stateMutability": "view",
      "type": "function"
    },
    {
      "inputs": [
        {
          "internalType": "uint256",
          "name": "_from",
          "type": "uint256"
        },
        {
          "internalType": "uint256",
          "name": "_to",
          "type": "uint256"
        }
      ],
      "name": "getMultiplier",
      "outputs": [
        {
          "internalType": "uint256",
          "name": "",
          "type": "uint256"
        }
      ],
      "stateMutability": "pure",
      "type": "function"
    },
    {
      "inputs": [
        {
          "internalType": "address",
          "name": "forwarder",
          "type": "address"
        }
      ],
      "name": "isTrustedForwarder",
      "outputs": [
        {
          "internalType": "bool",
          "name": "",
          "type": "bool"
        }
      ],
      "stateMutability": "view",
      "type": "function"
    },
    {
      "inputs": [],
      "name": "massUpdatePools",
      "outputs": [],
      "stateMutability": "nonpayable",
      "type": "function"
    },
    {
      "inputs": [],
      "name": "metaTxnsEnabled",
      "outputs": [
        {
          "internalType": "bool",
          "name": "",
          "type": "bool"
        }
      ],
      "stateMutability": "view",
      "type": "function"
    },
    {
      "inputs": [],
      "name": "operator",
      "outputs": [
        {
          "internalType": "address",
          "name": "",
          "type": "address"
        }
      ],
      "stateMutability": "view",
      "type": "function"
    },
    {
      "inputs": [],
      "name": "owner",
      "outputs": [
        {
          "internalType": "address",
          "name": "",
          "type": "address"
        }
      ],
      "stateMutability": "view",
      "type": "function"
    },
    {
      "inputs": [
        {
          "internalType": "uint256",
          "name": "_pid",
          "type": "uint256"
        },
        {
          "internalType": "address",
          "name": "_user",
          "type": "address"
        }
      ],
      "name": "pendingEmber",
      "outputs": [
        {
          "internalType": "uint256",
          "name": "",
          "type": "uint256"
        }
      ],
      "stateMutability": "view",
      "type": "function"
    },
    {
      "inputs": [
        {
          "internalType": "uint256",
          "name": "",
          "type": "uint256"
        }
      ],
      "name": "poolInfo",
      "outputs": [
        {
          "internalType": "contract IERC20",
          "name": "lpToken",
          "type": "address"
        },
        {
          "internalType": "uint256",
          "name": "allocPoint",
          "type": "uint256"
        },
        {
          "internalType": "uint256",
          "name": "lastRewardBlock",
          "type": "uint256"
        },
        {
          "internalType": "uint256",
          "name": "accEmberPerShare",
          "type": "uint256"
        },
        {
          "internalType": "uint16",
          "name": "depositFeeBP",
          "type": "uint16"
        },
        {
          "internalType": "uint256",
          "name": "harvestInterval",
          "type": "uint256"
        },
        {
          "internalType": "uint256",
          "name": "totalLp",
          "type": "uint256"
        },
        {
          "internalType": "uint256",
          "name": "lockupDuration",
          "type": "uint256"
        }
      ],
      "stateMutability": "view",
      "type": "function"
    },
    {
      "inputs": [],
      "name": "poolLength",
      "outputs": [
        {
          "internalType": "uint256",
          "name": "",
          "type": "uint256"
        }
      ],
      "stateMutability": "view",
      "type": "function"
    },
    {
      "inputs": [],
      "name": "renounceOwnership",
      "outputs": [],
      "stateMutability": "nonpayable",
      "type": "function"
    },
    {
      "inputs": [
        {
          "internalType": "address",
          "name": "_devAddress",
          "type": "address"
        }
      ],
      "name": "setDevAddress",
      "outputs": [],
      "stateMutability": "nonpayable",
      "type": "function"
    },
    {
      "inputs": [
        {
          "internalType": "address",
          "name": "_feeAddress",
          "type": "address"
        }
      ],
      "name": "setFeeAddress",
      "outputs": [],
      "stateMutability": "nonpayable",
      "type": "function"
    },
    {
      "inputs": [],
      "name": "startBlock",
      "outputs": [
        {
          "internalType": "uint256",
          "name": "",
          "type": "uint256"
        }
      ],
      "stateMutability": "view",
      "type": "function"
    },
    {
      "inputs": [],
      "name": "startFarming",
      "outputs": [],
      "stateMutability": "nonpayable",
      "type": "function"
    },
    {
      "inputs": [],
      "name": "totalAllocPoint",
      "outputs": [
        {
          "internalType": "uint256",
          "name": "",
          "type": "uint256"
        }
      ],
      "stateMutability": "view",
      "type": "function"
    },
    {
      "inputs": [],
      "name": "totalEmberInPools",
      "outputs": [
        {
          "internalType": "uint256",
          "name": "",
          "type": "uint256"
        }
      ],
      "stateMutability": "view",
      "type": "function"
    },
    {
      "inputs": [],
      "name": "totalLockedUpRewards",
      "outputs": [
        {
          "internalType": "uint256",
          "name": "",
          "type": "uint256"
        }
      ],
      "stateMutability": "view",
      "type": "function"
    },
    {
      "inputs": [
        {
          "internalType": "address",
          "name": "newOperator",
          "type": "address"
        }
      ],
      "name": "transferOperator",
      "outputs": [],
      "stateMutability": "nonpayable",
      "type": "function"
    },
    {
      "inputs": [
        {
          "internalType": "address",
          "name": "newOwner",
          "type": "address"
        }
      ],
      "name": "transferOwnership",
      "outputs": [],
      "stateMutability": "nonpayable",
      "type": "function"
    },
    {
      "inputs": [
        {
          "internalType": "uint256",
          "name": "_pid",
          "type": "uint256"
        },
        {
          "internalType": "uint256",
          "name": "_allocPoint",
          "type": "uint256"
        },
        {
          "internalType": "bool",
          "name": "_withUpdate",
          "type": "bool"
        }
      ],
      "name": "updateAllocPoint",
      "outputs": [],
      "stateMutability": "nonpayable",
      "type": "function"
    },
    {
      "inputs": [
        {
          "internalType": "uint256",
          "name": "_emberPerBlock",
          "type": "uint256"
        }
      ],
      "name": "updateEmissionRate",
      "outputs": [],
      "stateMutability": "nonpayable",
      "type": "function"
    },
    {
      "inputs": [
        {
          "internalType": "uint256",
          "name": "_pid",
          "type": "uint256"
        }
      ],
      "name": "updatePool",
      "outputs": [],
      "stateMutability": "nonpayable",
      "type": "function"
    },
    {
      "inputs": [
        {
          "internalType": "uint256",
          "name": "",
          "type": "uint256"
        },
        {
          "internalType": "address",
          "name": "",
          "type": "address"
        }
      ],
      "name": "userInfo",
      "outputs": [
        {
          "internalType": "uint256",
          "name": "amount",
          "type": "uint256"
        },
        {
          "internalType": "uint256",
          "name": "rewardDebt",
          "type": "uint256"
        },
        {
          "internalType": "uint256",
          "name": "rewardLockedUp",
          "type": "uint256"
        },
        {
          "internalType": "uint256",
          "name": "nextHarvestUntil",
          "type": "uint256"
        },
        {
          "internalType": "uint256",
          "name": "lastInteraction",
          "type": "uint256"
        }
      ],
      "stateMutability": "view",
      "type": "function"
    },
    {
      "inputs": [
        {
          "internalType": "uint256",
          "name": "_pid",
          "type": "uint256"
        },
        {
          "internalType": "address",
          "name": "_user",
          "type": "address"
        }
      ],
      "name": "userLockedUntil",
      "outputs": [
        {
          "internalType": "uint256",
          "name": "",
          "type": "uint256"
        }
      ],
      "stateMutability": "view",
      "type": "function"
    },
    {
      "inputs": [
        {
          "internalType": "uint256",
          "name": "_pid",
          "type": "uint256"
        },
        {
          "internalType": "uint256",
          "name": "_amount",
          "type": "uint256"
        }
      ],
      "name": "withdraw",
      "outputs": [],
      "stateMutability": "nonpayable",
      "type": "function"
    }
  ],
  "bytecode": "0x608060405260006009819055600c55600d805460ff191690553480156200002557600080fd5b5060405162003504380380620035048339810160408190526200004891620001b2565b6200005c62000056620000ec565b62000126565b6001805562000070436312cc0300620001ee565b600a55600280546001600160a01b0384166001600160a01b031991821617909155600682905560048054821633908117909155600580548316821790556003805490921681179091556040516000907f74da04524d50c64947f5dd5381ef1a4dca5cba8ed1d816243f9e48aa0b5617ed908290a3505062000215565b6000620000f93362000176565b156200010c575060131936013560601c90565b62000121620001ae60201b620026481760201c565b905090565b600080546001600160a01b038381166001600160a01b0319831681178455604051919092169283917f8be0079c531659141344cd1fd0a4f28419497f9722a3daafe3b4186f6b6457e09190a35050565b600d5460009060ff168015620001a857506001600160a01b038216730d998dda948c62a4feca7355e46d6b801a1aedd6145b92915050565b3390565b60008060408385031215620001c657600080fd5b82516001600160a01b0381168114620001de57600080fd5b6020939093015192949293505050565b600082198211156200021057634e487b7160e01b600052601160045260246000fd5b500190565b6132df80620002256000396000f3fe608060405234801561001057600080fd5b506004361061025c5760003560e01c8063578bb42d11610145578063afbcfea1116100bd578063d0d41fe11161008c578063de73149d11610071578063de73149d14610599578063e2bbb158146105a3578063f2fde38b146105b657600080fd5b8063d0d41fe114610573578063d1593bc81461058657600080fd5b8063afbcfea11461053c578063bc83ee2214610544578063bde4aeca14610557578063c9e118521461056a57600080fd5b80638705fcd4116101145780638dbb1e3a116100f95780638dbb1e3a146104ac57806393f1a40b146104bf578063a8c95dc01461052f57600080fd5b80638705fcd41461047b5780638da5cb5b1461048e57600080fd5b8063578bb42d14610447578063630b5ba11461044f578063715018a614610457578063812c64f11461045f57600080fd5b8063330ae003116101d8578063474fa630116101a757806351eb05a61161018c57806351eb05a614610403578063570ca73514610416578063572b6c051461043457600080fd5b8063474fa630146103f157806348cd4cb1146103fa57600080fd5b8063330ae0031461038b5780633ad10ef61461039e57806341275358146103be578063441a3e70146103de57600080fd5b806317caf6f11161022f57806329605e771161021457806329605e771461034c5780632a22bc431461035f5780632e6c998d1461036857600080fd5b806317caf6f1146102fe5780631f1b9a7c1461030757600080fd5b8063081e3eda1461026157806308383640146102785780630ba84cd2146102825780631526fe2714610295575b600080fd5b6007545b6040519081526020015b60405180910390f35b6102806105c9565b005b610280610290366004612f77565b61077a565b6102a86102a3366004612f77565b61086b565b6040805173ffffffffffffffffffffffffffffffffffffffff9099168952602089019790975295870194909452606086019290925261ffff16608085015260a084015260c083015260e08201526101000161026f565b61026560095481565b6002546103279073ffffffffffffffffffffffffffffffffffffffff1681565b60405173ffffffffffffffffffffffffffffffffffffffff909116815260200161026f565b61028061035a366004612f3d565b6108dd565b610265600c5481565b61037b610376366004612fa9565b610ab4565b604051901515815260200161026f565b610280610399366004612fd9565b610b01565b6004546103279073ffffffffffffffffffffffffffffffffffffffff1681565b6005546103279073ffffffffffffffffffffffffffffffffffffffff1681565b6102806103ec366004613047565b610ec7565b610265600b5481565b610265600a5481565b610280610411366004612f77565b6112ae565b60035473ffffffffffffffffffffffffffffffffffffffff16610327565b61037b610442366004612f3d565b6114c0565b610280611504565b6102806116b4565b6102806116df565b6104686103e881565b60405161ffff909116815260200161026f565b610280610489366004612f3d565b6117a5565b60005473ffffffffffffffffffffffffffffffffffffffff16610327565b6102656104ba366004613047565b611968565b6105076104cd366004612fa9565b6008602090815260009283526040808420909152908252902080546001820154600283015460038401546004909401549293919290919085565b604080519586526020860194909452928401919091526060830152608082015260a00161026f565b600d5461037b9060ff1681565b61028061197b565b610265610552366004612fa9565b611af6565b610280610565366004613069565b611ca8565b61026560065481565b610280610581366004612f3d565b611e57565b610265610594366004612fa9565b61201a565b6102656212750081565b6102806105b1366004613047565b61208d565b6102806105c4366004612f3d565b6124df565b60035473ffffffffffffffffffffffffffffffffffffffff163314610674576040517f08c379a0000000000000000000000000000000000000000000000000000000008152602060048201526024808201527f4f70657261746f723a2063616c6c6572206973206e6f7420746865206f70657260448201527f61746f720000000000000000000000000000000000000000000000000000000060648201526084015b60405180910390fd5b600d5460ff16610706576040517f08c379a000000000000000000000000000000000000000000000000000000000815260206004820152603260248201527f456d6265725661756c743a206d657461207472616e73616374696f6e7320617260448201527f6520616c72656164792064697361626c65640000000000000000000000000000606482015260840161066b565b600d80547fffffffffffffffffffffffffffffffffffffffffffffffffffffffffffffff0016905561073661264c565b73ffffffffffffffffffffffffffffffffffffffff167f096be170ccc67847e55535e7d8334b2afedd95805baedc160005addb9144745060405160405180910390a2565b60035473ffffffffffffffffffffffffffffffffffffffff163314610820576040517f08c379a0000000000000000000000000000000000000000000000000000000008152602060048201526024808201527f4f70657261746f723a2063616c6c6572206973206e6f7420746865206f70657260448201527f61746f7200000000000000000000000000000000000000000000000000000000606482015260840161066b565b6108286116b4565b600654604080519182526020820183905233917feedc6338c9c1ad8f3cd6c90dd09dbe98dbd57e610d3e59a17996d07acb0d9511910160405180910390a2600655565b6007818154811061087b57600080fd5b60009182526020909120600890910201805460018201546002830154600384015460048501546005860154600687015460079097015473ffffffffffffffffffffffffffffffffffffffff909616975093959294919361ffff90911692909188565b60035473ffffffffffffffffffffffffffffffffffffffff163314610983576040517f08c379a0000000000000000000000000000000000000000000000000000000008152602060048201526024808201527f4f70657261746f723a2063616c6c6572206973206e6f7420746865206f70657260448201527f61746f7200000000000000000000000000000000000000000000000000000000606482015260840161066b565b73ffffffffffffffffffffffffffffffffffffffff8116610a26576040517f08c379a000000000000000000000000000000000000000000000000000000000815260206004820152603260248201527f5472616e736665724f70657261746f723a206e6577206f70657261746f72206960448201527f7320746865207a65726f20616464726573730000000000000000000000000000606482015260840161066b565b60035460405173ffffffffffffffffffffffffffffffffffffffff8084169216907f74da04524d50c64947f5dd5381ef1a4dca5cba8ed1d816243f9e48aa0b5617ed90600090a3600380547fffffffffffffffffffffffff00000000000000000000000000000000000000001673ffffffffffffffffffffffffffffffffffffffff92909216919091179055565b600082815260086020908152604080832073ffffffffffffffffffffffffffffffffffffffff851684529091528120600a544310801590610af9575080600301544210155b949350505050565b610b0961264c565b73ffffffffffffffffffffffffffffffffffffffff16610b3e60005473ffffffffffffffffffffffffffffffffffffffff1690565b73ffffffffffffffffffffffffffffffffffffffff1614610bbb576040517f08c379a000000000000000000000000000000000000000000000000000000000815260206004820181905260248201527f4f776e61626c653a2063616c6c6572206973206e6f7420746865206f776e6572604482015260640161066b565b6103e861ffff85161115610c2b576040517f08c379a000000000000000000000000000000000000000000000000000000000815260206004820152601960248201527f4164643a206465706f7369742066656520746f6f206869676800000000000000604482015260640161066b565b62127500831115610c98576040517f08c379a000000000000000000000000000000000000000000000000000000000815260206004820152601d60248201527f4164643a20696e76616c6964206861727665737420696e74657276616c000000604482015260640161066b565b8015610ca657610ca66116b4565b6000600a544311610cb957600a54610cbb565b435b600954909150610ccb908861268c565b600955604080516101008101825273ffffffffffffffffffffffffffffffffffffffff97881681526020810198895290810191825260006060820181815261ffff9788166080840190815260a0840197885260c0840183815260e0850197885260078054600181018255945293517fa66cc928b5edb82af9bd49922954155ab7b0942694bea4ce44661d9a8736c688600890940293840180547fffffffffffffffffffffffff00000000000000000000000000000000000000001691909b161790995598517fa66cc928b5edb82af9bd49922954155ab7b0942694bea4ce44661d9a8736c68982015591517fa66cc928b5edb82af9bd49922954155ab7b0942694bea4ce44661d9a8736c68a83015596517fa66cc928b5edb82af9bd49922954155ab7b0942694bea4ce44661d9a8736c68b82015594517fa66cc928b5edb82af9bd49922954155ab7b0942694bea4ce44661d9a8736c68c860180547fffffffffffffffffffffffffffffffffffffffffffffffffffffffffffff000016919095161790935590517fa66cc928b5edb82af9bd49922954155ab7b0942694bea4ce44661d9a8736c68d84015592517fa66cc928b5edb82af9bd49922954155ab7b0942694bea4ce44661d9a8736c68e8301555090517fa66cc928b5edb82af9bd49922954155ab7b0942694bea4ce44661d9a8736c68f90910155565b60026001541415610f34576040517f08c379a000000000000000000000000000000000000000000000000000000000815260206004820152601f60248201527f5265656e7472616e637947756172643a207265656e7472616e742063616c6c00604482015260640161066b565b6002600181905550600060078381548110610f5157610f5161324a565b906000526020600020906008020190506000600860008581526020019081526020016000206000610f8061264c565b73ffffffffffffffffffffffffffffffffffffffff1673ffffffffffffffffffffffffffffffffffffffff16815260200190815260200160002090508281600001541015611050576040517f08c379a000000000000000000000000000000000000000000000000000000000815260206004820152602360248201527f57697468647261773a207573657220616d6f756e74206973206e6f7420656e6f60448201527f7567680000000000000000000000000000000000000000000000000000000000606482015260840161066b565b82826006015410156110e4576040517f08c379a000000000000000000000000000000000000000000000000000000000815260206004820152602260248201527f57697468647261773a20706f6f6c20746f74616c206973206e6f7420656e6f7560448201527f6768000000000000000000000000000000000000000000000000000000000000606482015260840161066b565b816007015481600401546110f8919061310f565b4211611186576040517f08c379a000000000000000000000000000000000000000000000000000000000815260206004820152602160248201527f57697468647261773a20796f752063616e6e6f7420776974686472617720796560448201527f7400000000000000000000000000000000000000000000000000000000000000606482015260840161066b565b61118f846112ae565b61119884612698565b82156112205780546111aa90846128a3565b815560068201546111bb90846128a3565b6006830155600254825473ffffffffffffffffffffffffffffffffffffffff908116911614156111f657600c546111f290846128a3565b600c555b61122061120161264c565b835473ffffffffffffffffffffffffffffffffffffffff1690856128af565b600382015481546112419164e8d4a510009161123b91612988565b90612994565b60018201554260048201558361125561264c565b73ffffffffffffffffffffffffffffffffffffffff167ff279e6a1f5e320cca91135676d9cb6e44ca8a08c0b88342bcdb1144f6511b5688560405161129c91815260200190565b60405180910390a35050600180555050565b6000600782815481106112c3576112c361324a565b90600052602060002090600802019050806002015443116112e2575050565b60068101548015806112f657506001820154155b1561130657504360029091015550565b6000611316836002015443611968565b9050600061134360095461123b866001015461133d6006548761298890919063ffffffff16565b90612988565b60025460045491925073ffffffffffffffffffffffffffffffffffffffff908116916340c10f19911661137784600a612994565b6040517fffffffff0000000000000000000000000000000000000000000000000000000060e085901b16815273ffffffffffffffffffffffffffffffffffffffff90921660048301526024820152604401600060405180830381600087803b1580156113e257600080fd5b505af11580156113f6573d6000803e3d6000fd5b50506002546040517f40c10f190000000000000000000000000000000000000000000000000000000081523060048201526024810185905273ffffffffffffffffffffffffffffffffffffffff90911692506340c10f199150604401600060405180830381600087803b15801561146c57600080fd5b505af1158015611480573d6000803e3d6000fd5b50505060068501546114ab91506114a09061123b8464e8d4a51000612988565b60038601549061268c565b60038501555050436002909201919091555050565b600d5460009060ff1680156114fe575073ffffffffffffffffffffffffffffffffffffffff8216730d998dda948c62a4feca7355e46d6b801a1aedd6145b92915050565b60035473ffffffffffffffffffffffffffffffffffffffff1633146115aa576040517f08c379a0000000000000000000000000000000000000000000000000000000008152602060048201526024808201527f4f70657261746f723a2063616c6c6572206973206e6f7420746865206f70657260448201527f61746f7200000000000000000000000000000000000000000000000000000000606482015260840161066b565b600d5460ff161561163d576040517f08c379a000000000000000000000000000000000000000000000000000000000815260206004820152603160248201527f456d6265725661756c743a206d657461207472616e73616374696f6e7320617260448201527f6520616c726561647920656e61626c6564000000000000000000000000000000606482015260840161066b565b600d80547fffffffffffffffffffffffffffffffffffffffffffffffffffffffffffffff0016600117905561167061264c565b73ffffffffffffffffffffffffffffffffffffffff167f92e4c08d47b71e8dc051232b8e475ec296489a67a4ba5cca88ff20fb6ac499e660405160405180910390a2565b60075460005b818110156116db576116cb816112ae565b6116d4816131e2565b90506116ba565b5050565b6116e761264c565b73ffffffffffffffffffffffffffffffffffffffff1661171c60005473ffffffffffffffffffffffffffffffffffffffff1690565b73ffffffffffffffffffffffffffffffffffffffff1614611799576040517f08c379a000000000000000000000000000000000000000000000000000000000815260206004820181905260248201527f4f776e61626c653a2063616c6c6572206973206e6f7420746865206f776e6572604482015260640161066b565b6117a360006129a0565b565b60055473ffffffffffffffffffffffffffffffffffffffff166117c661264c565b73ffffffffffffffffffffffffffffffffffffffff1614611843576040517f08c379a000000000000000000000000000000000000000000000000000000000815260206004820152601860248201527f736574466565416464726573733a20464f5242494444454e0000000000000000604482015260640161066b565b73ffffffffffffffffffffffffffffffffffffffff81166118c0576040517f08c379a000000000000000000000000000000000000000000000000000000000815260206004820152601360248201527f736574466565416464726573733a205a45524f00000000000000000000000000604482015260640161066b565b6118c861264c565b6005546040805173ffffffffffffffffffffffffffffffffffffffff9283168152848316602082015292909116917f6690a53895b5691c039238b384bd857e65c42adcc727775381e02cb90a122613910160405180910390a2600580547fffffffffffffffffffffffff00000000000000000000000000000000000000001673ffffffffffffffffffffffffffffffffffffffff92909216919091179055565b600061197482846128a3565b9392505050565b61198361264c565b73ffffffffffffffffffffffffffffffffffffffff166119b860005473ffffffffffffffffffffffffffffffffffffffff1690565b73ffffffffffffffffffffffffffffffffffffffff1614611a35576040517f08c379a000000000000000000000000000000000000000000000000000000000815260206004820181905260248201527f4f776e61626c653a2063616c6c6572206973206e6f7420746865206f776e6572604482015260640161066b565b600a544310611aa0576040517f08c379a000000000000000000000000000000000000000000000000000000000815260206004820152601b60248201527f4572726f723a206661726d207374617274656420616c72656164790000000000604482015260640161066b565b60075460005b81811015611aee57600060078281548110611ac357611ac361324a565b906000526020600020906008020190504381600201819055505080611ae7906131e2565b9050611aa6565b505043600a55565b60008060078481548110611b0c57611b0c61324a565b600091825260208083208784526008808352604080862073ffffffffffffffffffffffffffffffffffffffff8a811688529452808620949091029091016003810154815492517f70a0823100000000000000000000000000000000000000000000000000000000815230600482015291965093949291909116906370a082319060240160206040518083038186803b158015611ba757600080fd5b505afa158015611bbb573d6000803e3d6000fd5b505050506040513d601f19601f82011682018060405250810190611bdf9190612f90565b9050836002015443118015611bf357508015155b15611c53576000611c08856002015443611968565b90506000611c2f60095461123b886001015461133d6006548761298890919063ffffffff16565b9050611c4e611c478461123b8464e8d4a51000612988565b859061268c565b935050505b6000611c838460010154611c7d64e8d4a5100061123b87896000015461298890919063ffffffff16565b906128a3565b9050611c9c84600201548261268c90919063ffffffff16565b98975050505050505050565b60035473ffffffffffffffffffffffffffffffffffffffff163314611d4e576040517f08c379a0000000000000000000000000000000000000000000000000000000008152602060048201526024808201527f4f70657261746f723a2063616c6c6572206973206e6f7420746865206f70657260448201527f61746f7200000000000000000000000000000000000000000000000000000000606482015260840161066b565b8015611d5c57611d5c6116b4565b611d6461264c565b73ffffffffffffffffffffffffffffffffffffffff167f802633c8d26237616d81bdac01bc40fcdf36e098832601582ec19d7e431c5ef360078581548110611dae57611dae61324a565b90600052602060002090600802016001015484604051611dd8929190918252602082015260400190565b60405180910390a2611e2382611e1d60078681548110611dfa57611dfa61324a565b9060005260206000209060080201600101546009546128a390919063ffffffff16565b9061268c565b6009819055508160078481548110611e3d57611e3d61324a565b906000526020600020906008020160010181905550505050565b60045473ffffffffffffffffffffffffffffffffffffffff16611e7861264c565b73ffffffffffffffffffffffffffffffffffffffff1614611ef5576040517f08c379a000000000000000000000000000000000000000000000000000000000815260206004820152601860248201527f736574446576416464726573733a20464f5242494444454e0000000000000000604482015260640161066b565b73ffffffffffffffffffffffffffffffffffffffff8116611f72576040517f08c379a000000000000000000000000000000000000000000000000000000000815260206004820152601360248201527f736574446576416464726573733a205a45524f00000000000000000000000000604482015260640161066b565b611f7a61264c565b6004546040805173ffffffffffffffffffffffffffffffffffffffff9283168152848316602082015292909116917fd36d63f6c513a911d7912853de740af476b0fbb569aa769e1a4f5bfa37a325c4910160405180910390a2600480547fffffffffffffffffffffffff00000000000000000000000000000000000000001673ffffffffffffffffffffffffffffffffffffffff92909216919091179055565b600082815260086020908152604080832073ffffffffffffffffffffffffffffffffffffffff85168452909152812060078054839190869081106120605761206061324a565b9060005260206000209060080201905080600701548260040154612084919061310f565b95945050505050565b600260015414156120fa576040517f08c379a000000000000000000000000000000000000000000000000000000000815260206004820152601f60248201527f5265656e7472616e637947756172643a207265656e7472616e742063616c6c00604482015260640161066b565b6002600155600a54431015612191576040517f08c379a000000000000000000000000000000000000000000000000000000000815260206004820152602f60248201527f456d6265725661756c743a2063616e6e6f74206465706f736974206265666f7260448201527f65206661726d696e672073746172740000000000000000000000000000000000606482015260840161066b565b6000600783815481106121a6576121a661324a565b9060005260206000209060080201905060006008600085815260200190815260200160002060006121d561264c565b73ffffffffffffffffffffffffffffffffffffffff1673ffffffffffffffffffffffffffffffffffffffff168152602001908152602001600020905061221a846112ae565b61222384612698565b82156124695781546040517f70a0823100000000000000000000000000000000000000000000000000000000815230600482015260009173ffffffffffffffffffffffffffffffffffffffff16906370a082319060240160206040518083038186803b15801561229257600080fd5b505afa1580156122a6573d6000803e3d6000fd5b505050506040513d601f19601f820116820180604052508101906122ca9190612f90565b90506122f76122d761264c565b845473ffffffffffffffffffffffffffffffffffffffff16903087612a15565b82546040517f70a0823100000000000000000000000000000000000000000000000000000000815230600482015260009173ffffffffffffffffffffffffffffffffffffffff16906370a082319060240160206040518083038186803b15801561236057600080fd5b505afa158015612374573d6000803e3d6000fd5b505050506040513d601f19601f820116820180604052508101906123989190612f90565b90506123a481836128a3565b600485015490955061ffff161561240e5760048401546000906123d4906127109061123b90899061ffff16612988565b60055486549192506124009173ffffffffffffffffffffffffffffffffffffffff9081169116836128af565b61240a86826128a3565b9550505b825461241a908661268c565b8355600684015461242b908661268c565b6006850155600254845473ffffffffffffffffffffffffffffffffffffffff9081169116141561246657600c54612462908661268c565b600c555b50505b600382015481546124849164e8d4a510009161123b91612988565b60018201554260048201558361249861264c565b73ffffffffffffffffffffffffffffffffffffffff167f90890809c654f11d6e72a28fa60149770a0d11ec6c92319d6ceb2bb0a4ea1a158560405161129c91815260200190565b6124e761264c565b73ffffffffffffffffffffffffffffffffffffffff1661251c60005473ffffffffffffffffffffffffffffffffffffffff1690565b73ffffffffffffffffffffffffffffffffffffffff1614612599576040517f08c379a000000000000000000000000000000000000000000000000000000000815260206004820181905260248201527f4f776e61626c653a2063616c6c6572206973206e6f7420746865206f776e6572604482015260640161066b565b73ffffffffffffffffffffffffffffffffffffffff811661263c576040517f08c379a000000000000000000000000000000000000000000000000000000000815260206004820152602660248201527f4f776e61626c653a206e6577206f776e657220697320746865207a65726f206160448201527f6464726573730000000000000000000000000000000000000000000000000000606482015260840161066b565b612645816129a0565b50565b3390565b6000612657336114c0565b1561268757507fffffffffffffffffffffffffffffffffffffffffffffffffffffffffffffffec36013560601c90565b503390565b6000611974828461310f565b6000600782815481106126ad576126ad61324a565b9060005260206000209060080201905060006008600084815260200190815260200160002060006126dc61264c565b73ffffffffffffffffffffffffffffffffffffffff1673ffffffffffffffffffffffffffffffffffffffff16815260200190815260200160002090508060030154600014801561272e5750600a544310155b1561274957600582015461274390429061268c565b60038201555b60006127778260010154611c7d64e8d4a5100061123b8760030154876000015461298890919063ffffffff16565b90506127858461037661264c565b1561281457600081118061279d575060008260020154115b1561280f5760006127bb83600201548361268c90919063ffffffff16565b90506127d68360020154600b546128a390919063ffffffff16565b600b5560006002840155426004840181905560058501546127f7919061268c565b600384015561280d61280761264c565b82612a73565b505b61289d565b801561289d576002820154612829908261268c565b6002830155426004830155600b54612841908261268c565b600b558361284d61264c565b73ffffffffffffffffffffffffffffffffffffffff167fee470483107f579a55c754fa00613c45a9a3b617a418b39cb0be97e5381ba7c18360405161289491815260200190565b60405180910390a35b50505050565b6000611974828461319f565b60405173ffffffffffffffffffffffffffffffffffffffff83166024820152604481018290526129839084907fa9059cbb00000000000000000000000000000000000000000000000000000000906064015b604080517fffffffffffffffffffffffffffffffffffffffffffffffffffffffffffffffe08184030181529190526020810180517bffffffffffffffffffffffffffffffffffffffffffffffffffffffff167fffffffff0000000000000000000000000000000000000000000000000000000090931692909217909152612ce5565b505050565b60006119748284613162565b60006119748284613127565b6000805473ffffffffffffffffffffffffffffffffffffffff8381167fffffffffffffffffffffffff0000000000000000000000000000000000000000831681178455604051919092169283917f8be0079c531659141344cd1fd0a4f28419497f9722a3daafe3b4186f6b6457e09190a35050565b60405173ffffffffffffffffffffffffffffffffffffffff8085166024830152831660448201526064810182905261289d9085907f23b872dd0000000000000000000000000000000000000000000000000000000090608401612901565b600c546002546040517f70a0823100000000000000000000000000000000000000000000000000000000815230600482015273ffffffffffffffffffffffffffffffffffffffff909116906370a082319060240160206040518083038186803b158015612adf57600080fd5b505afa158015612af3573d6000803e3d6000fd5b505050506040513d601f19601f82011682018060405250810190612b179190612f90565b11156116db57600c546002546040517f70a08231000000000000000000000000000000000000000000000000000000008152306004820152600092612bca92909173ffffffffffffffffffffffffffffffffffffffff909116906370a082319060240160206040518083038186803b158015612b9257600080fd5b505afa158015612ba6573d6000803e3d6000fd5b505050506040513d601f19601f82011682018060405250810190611c7d9190612f90565b9050808210612c80576002546040517fa9059cbb00000000000000000000000000000000000000000000000000000000815273ffffffffffffffffffffffffffffffffffffffff8581166004830152602482018490529091169063a9059cbb906044015b602060405180830381600087803b158015612c4857600080fd5b505af1158015612c5c573d6000803e3d6000fd5b505050506040513d601f19601f8201168201806040525081019061289d9190612f5a565b8115612983576002546040517fa9059cbb00000000000000000000000000000000000000000000000000000000815273ffffffffffffffffffffffffffffffffffffffff8581166004830152602482018590529091169063a9059cbb90604401612c2e565b6000612d47826040518060400160405280602081526020017f5361666545524332303a206c6f772d6c6576656c2063616c6c206661696c65648152508573ffffffffffffffffffffffffffffffffffffffff16612df19092919063ffffffff16565b8051909150156129835780806020019051810190612d659190612f5a565b612983576040517f08c379a000000000000000000000000000000000000000000000000000000000815260206004820152602a60248201527f5361666545524332303a204552433230206f7065726174696f6e20646964206e60448201527f6f74207375636365656400000000000000000000000000000000000000000000606482015260840161066b565b6060610af9848460008585843b612e64576040517f08c379a000000000000000000000000000000000000000000000000000000000815260206004820152601d60248201527f416464726573733a2063616c6c20746f206e6f6e2d636f6e7472616374000000604482015260640161066b565b6000808673ffffffffffffffffffffffffffffffffffffffff168587604051612e8d91906130a2565b60006040518083038185875af1925050503d8060008114612eca576040519150601f19603f3d011682016040523d82523d6000602084013e612ecf565b606091505b5091509150612edf828286612eea565b979650505050505050565b60608315612ef9575081611974565b825115612f095782518084602001fd5b816040517f08c379a000000000000000000000000000000000000000000000000000000000815260040161066b91906130be565b600060208284031215612f4f57600080fd5b813561197481613279565b600060208284031215612f6c57600080fd5b81516119748161329b565b600060208284031215612f8957600080fd5b5035919050565b600060208284031215612fa257600080fd5b5051919050565b60008060408385031215612fbc57600080fd5b823591506020830135612fce81613279565b809150509250929050565b60008060008060008060c08789031215612ff257600080fd5b86359550602087013561300481613279565b9450604087013561ffff8116811461301b57600080fd5b9350606087013592506080870135915060a08701356130398161329b565b809150509295509295509295565b6000806040838503121561305a57600080fd5b50508035926020909101359150565b60008060006060848603121561307e57600080fd5b833592506020840135915060408401356130978161329b565b809150509250925092565b600082516130b48184602087016131b6565b9190910192915050565b60208152600082518060208401526130dd8160408501602087016131b6565b601f017fffffffffffffffffffffffffffffffffffffffffffffffffffffffffffffffe0169190910160400192915050565b600082198211156131225761312261321b565b500190565b60008261315d577f4e487b7100000000000000000000000000000000000000000000000000000000600052601260045260246000fd5b500490565b6000817fffffffffffffffffffffffffffffffffffffffffffffffffffffffffffffffff048311821515161561319a5761319a61321b565b500290565b6000828210156131b1576131b161321b565b500390565b60005b838110156131d15781810151838201526020016131b9565b8381111561289d5750506000910152565b60007fffffffffffffffffffffffffffffffffffffffffffffffffffffffffffffffff8214156132145761321461321b565b5060010190565b7f4e487b7100000000000000000000000000000000000000000000000000000000600052601160045260246000fd5b7f4e487b7100000000000000000000000000000000000000000000000000000000600052603260045260246000fd5b73ffffffffffffffffffffffffffffffffffffffff8116811461264557600080fd5b801515811461264557600080fdfea26469706673582212207dc5611a2fb5fc7e9275fc2459a49ad85d99823e7cc290c1204308ea6bbe435064736f6c63430008070033",
  "linkReferences": {},
  "deployedLinkReferences": {}
}