{
  "_format": "hh-sol-artifact-1",
  "contractName": "Timelock",
  "sourceName": "contracts/helpers/Timelock.sol",
  "abi": [
    {
      "inputs": [
        {
          "internalType": "address",
          "name": "admin_",
          "type": "address"
        },
        {
          "internalType": "uint256",
          "name": "delay_",
          "type": "uint256"
        }
      ],
      "stateMutability": "nonpayable",
      "type": "constructor"
    },
    {
      "anonymous": false,
      "inputs": [
        {
          "indexed": true,
          "internalType": "bytes32",
          "name": "txHash",
          "type": "bytes32"
        },
        {
          "indexed": true,
          "internalType": "address",
          "name": "target",
          "type": "address"
        },
        {
          "indexed": false,
          "internalType": "uint256",
          "name": "value",
          "type": "uint256"
        },
        {
          "indexed": false,
          "internalType": "string",
          "name": "signature",
          "type": "string"
        },
        {
          "indexed": false,
          "internalType": "bytes",
          "name": "data",
          "type": "bytes"
        },
        {
          "indexed": false,
          "internalType": "uint256",
          "name": "eta",
          "type": "uint256"
        }
      ],
      "name": "CancelTransaction",
      "type": "event"
    },
    {
      "anonymous": false,
      "inputs": [
        {
          "indexed": true,
          "internalType": "bytes32",
          "name": "txHash",
          "type": "bytes32"
        },
        {
          "indexed": true,
          "internalType": "address",
          "name": "target",
          "type": "address"
        },
        {
          "indexed": false,
          "internalType": "uint256",
          "name": "value",
          "type": "uint256"
        },
        {
          "indexed": false,
          "internalType": "string",
          "name": "signature",
          "type": "string"
        },
        {
          "indexed": false,
          "internalType": "bytes",
          "name": "data",
          "type": "bytes"
        },
        {
          "indexed": false,
          "internalType": "uint256",
          "name": "eta",
          "type": "uint256"
        }
      ],
      "name": "ExecuteTransaction",
      "type": "event"
    },
    {
      "anonymous": false,
      "inputs": [
        {
          "indexed": true,
          "internalType": "address",
          "name": "newAdmin",
          "type": "address"
        }
      ],
      "name": "NewAdmin",
      "type": "event"
    },
    {
      "anonymous": false,
      "inputs": [
        {
          "indexed": true,
          "internalType": "uint256",
          "name": "newDelay",
          "type": "uint256"
        }
      ],
      "name": "NewDelay",
      "type": "event"
    },
    {
      "anonymous": false,
      "inputs": [
        {
          "indexed": true,
          "internalType": "address",
          "name": "newPendingAdmin",
          "type": "address"
        }
      ],
      "name": "NewPendingAdmin",
      "type": "event"
    },
    {
      "anonymous": false,
      "inputs": [
        {
          "indexed": true,
          "internalType": "bytes32",
          "name": "txHash",
          "type": "bytes32"
        },
        {
          "indexed": true,
          "internalType": "address",
          "name": "target",
          "type": "address"
        },
        {
          "indexed": false,
          "internalType": "uint256",
          "name": "value",
          "type": "uint256"
        },
        {
          "indexed": false,
          "internalType": "string",
          "name": "signature",
          "type": "string"
        },
        {
          "indexed": false,
          "internalType": "bytes",
          "name": "data",
          "type": "bytes"
        },
        {
          "indexed": false,
          "internalType": "uint256",
          "name": "eta",
          "type": "uint256"
        }
      ],
      "name": "QueueTransaction",
      "type": "event"
    },
    {
      "inputs": [],
      "name": "GRACE_PERIOD",
      "outputs": [
        {
          "internalType": "uint256",
          "name": "",
          "type": "uint256"
        }
      ],
      "stateMutability": "view",
      "type": "function"
    },
    {
      "inputs": [],
      "name": "MAXIMUM_DELAY",
      "outputs": [
        {
          "internalType": "uint256",
          "name": "",
          "type": "uint256"
        }
      ],
      "stateMutability": "view",
      "type": "function"
    },
    {
      "inputs": [],
      "name": "MINIMUM_DELAY",
      "outputs": [
        {
          "internalType": "uint256",
          "name": "",
          "type": "uint256"
        }
      ],
      "stateMutability": "view",
      "type": "function"
    },
    {
      "inputs": [],
      "name": "acceptAdmin",
      "outputs": [],
      "stateMutability": "nonpayable",
      "type": "function"
    },
    {
      "inputs": [],
      "name": "admin",
      "outputs": [
        {
          "internalType": "address",
          "name": "",
          "type": "address"
        }
      ],
      "stateMutability": "view",
      "type": "function"
    },
    {
      "inputs": [],
      "name": "admin_initialized",
      "outputs": [
        {
          "internalType": "bool",
          "name": "",
          "type": "bool"
        }
      ],
      "stateMutability": "view",
      "type": "function"
    },
    {
      "inputs": [
        {
          "internalType": "address",
          "name": "target",
          "type": "address"
        },
        {
          "internalType": "uint256",
          "name": "value",
          "type": "uint256"
        },
        {
          "internalType": "string",
          "name": "signature",
          "type": "string"
        },
        {
          "internalType": "bytes",
          "name": "data",
          "type": "bytes"
        },
        {
          "internalType": "uint256",
          "name": "eta",
          "type": "uint256"
        }
      ],
      "name": "cancelTransaction",
      "outputs": [],
      "stateMutability": "nonpayable",
      "type": "function"
    },
    {
      "inputs": [],
      "name": "delay",
      "outputs": [
        {
          "internalType": "uint256",
          "name": "",
          "type": "uint256"
        }
      ],
      "stateMutability": "view",
      "type": "function"
    },
    {
      "inputs": [
        {
          "internalType": "address",
          "name": "target",
          "type": "address"
        },
        {
          "internalType": "uint256",
          "name": "value",
          "type": "uint256"
        },
        {
          "internalType": "string",
          "name": "signature",
          "type": "string"
        },
        {
          "internalType": "bytes",
          "name": "data",
          "type": "bytes"
        },
        {
          "internalType": "uint256",
          "name": "eta",
          "type": "uint256"
        }
      ],
      "name": "executeTransaction",
      "outputs": [
        {
          "internalType": "bytes",
          "name": "",
          "type": "bytes"
        }
      ],
      "stateMutability": "payable",
      "type": "function"
    },
    {
      "inputs": [],
      "name": "pendingAdmin",
      "outputs": [
        {
          "internalType": "address",
          "name": "",
          "type": "address"
        }
      ],
      "stateMutability": "view",
      "type": "function"
    },
    {
      "inputs": [
        {
          "internalType": "address",
          "name": "target",
          "type": "address"
        },
        {
          "internalType": "uint256",
          "name": "value",
          "type": "uint256"
        },
        {
          "internalType": "string",
          "name": "signature",
          "type": "string"
        },
        {
          "internalType": "bytes",
          "name": "data",
          "type": "bytes"
        },
        {
          "internalType": "uint256",
          "name": "eta",
          "type": "uint256"
        }
      ],
      "name": "queueTransaction",
      "outputs": [
        {
          "internalType": "bytes32",
          "name": "",
          "type": "bytes32"
        }
      ],
      "stateMutability": "nonpayable",
      "type": "function"
    },
    {
      "inputs": [
        {
          "internalType": "bytes32",
          "name": "",
          "type": "bytes32"
        }
      ],
      "name": "queuedTransactions",
      "outputs": [
        {
          "internalType": "bool",
          "name": "",
          "type": "bool"
        }
      ],
      "stateMutability": "view",
      "type": "function"
    },
    {
      "inputs": [
        {
          "internalType": "uint256",
          "name": "delay_",
          "type": "uint256"
        }
      ],
      "name": "setDelay",
      "outputs": [],
      "stateMutability": "nonpayable",
      "type": "function"
    },
    {
      "inputs": [
        {
          "internalType": "address",
          "name": "pendingAdmin_",
          "type": "address"
        }
      ],
      "name": "setPendingAdmin",
      "outputs": [],
      "stateMutability": "nonpayable",
      "type": "function"
    },
    {
      "stateMutability": "payable",
      "type": "receive"
    }
  ],
  "bytecode": "0x608060405234801561001057600080fd5b50604051620015f5380380620015f583398101604081905261003191610138565b61546081101561009d5760405162461bcd60e51b81526020600482015260376024820152600080516020620015d583398151915260448201527f7420657863656564206d696e696d756d2064656c61792e00000000000000000060648201526084015b60405180910390fd5b62278d008111156101055760405162461bcd60e51b815260206004820152603b6024820152600080516020620015d583398151915260448201527f74206e6f7420657863656564206d6178696d756d2064656c61792e00000000006064820152608401610094565b600080546001600160a01b0319166001600160a01b0393909316929092179091556002556003805460ff19169055610170565b6000806040838503121561014a578182fd5b82516001600160a01b0381168114610160578283fd5b6020939093015192949293505050565b61145580620001806000396000f3fe6080604052600436106100e15760003560e01c80636fc1f57e1161007f578063c1a287e211610059578063c1a287e21461025a578063e177246e14610271578063f2b0653714610291578063f851a440146102c1576100e8565b80636fc1f57e146102035780637d645fab1461022d578063b1b43ae514610244576100e8565b80633a66f901116100bb5780633a66f9011461017f5780634dd18bf5146101ad578063591fcdfe146101cd5780636a42b8f8146101ed576100e8565b80630825f38f146100ed5780630e18b68114610116578063267822471461012d576100e8565b366100e857005b600080fd5b6101006100fb366004611167565b6102ee565b60405161010d9190611333565b60405180910390f35b34801561012257600080fd5b5061012b6107ae565b005b34801561013957600080fd5b5060015461015a9073ffffffffffffffffffffffffffffffffffffffff1681565b60405173ffffffffffffffffffffffffffffffffffffffff909116815260200161010d565b34801561018b57600080fd5b5061019f61019a366004611167565b6108cd565b60405190815260200161010d565b3480156101b957600080fd5b5061012b6101c836600461114d565b610b25565b3480156101d957600080fd5b5061012b6101e8366004611167565b610d0c565b3480156101f957600080fd5b5061019f60025481565b34801561020f57600080fd5b5060035461021d9060ff1681565b604051901515815260200161010d565b34801561023957600080fd5b5061019f62278d0081565b34801561025057600080fd5b5061019f61546081565b34801561026657600080fd5b5061019f6212750081565b34801561027d57600080fd5b5061012b61028c366004611213565b610e96565b34801561029d57600080fd5b5061021d6102ac366004611213565b60046020526000908152604090205460ff1681565b3480156102cd57600080fd5b5060005461015a9073ffffffffffffffffffffffffffffffffffffffff1681565b60005460609073ffffffffffffffffffffffffffffffffffffffff16331461039d576040517f08c379a000000000000000000000000000000000000000000000000000000000815260206004820152603860248201527f54696d656c6f636b3a3a657865637574655472616e73616374696f6e3a20436160448201527f6c6c206d75737420636f6d652066726f6d2061646d696e2e000000000000000060648201526084015b60405180910390fd5b600086868686866040516020016103b89594939291906112d9565b604080517fffffffffffffffffffffffffffffffffffffffffffffffffffffffffffffffe081840301815291815281516020928301206000818152600490935291205490915060ff1661048d576040517f08c379a000000000000000000000000000000000000000000000000000000000815260206004820152603d60248201527f54696d656c6f636b3a3a657865637574655472616e73616374696f6e3a20547260448201527f616e73616374696f6e206861736e2774206265656e207175657565642e0000006064820152608401610394565b82421015610543576040517f08c379a000000000000000000000000000000000000000000000000000000000815260206004820152604560248201527f54696d656c6f636b3a3a657865637574655472616e73616374696f6e3a20547260448201527f616e73616374696f6e206861736e2774207375727061737365642074696d652060648201527f6c6f636b2e000000000000000000000000000000000000000000000000000000608482015260a401610394565b610550836212750061107d565b4211156105df576040517f08c379a000000000000000000000000000000000000000000000000000000000815260206004820152603360248201527f54696d656c6f636b3a3a657865637574655472616e73616374696f6e3a20547260448201527f616e73616374696f6e206973207374616c652e000000000000000000000000006064820152608401610394565b600081815260046020526040902080547fffffffffffffffffffffffffffffffffffffffffffffffffffffffffffffff00169055845160609061062357508361064f565b85805190602001208560405160200161063d929190611275565b60405160208183030381529060405290505b6000808973ffffffffffffffffffffffffffffffffffffffff16898460405161067891906112bd565b60006040518083038185875af1925050503d80600081146106b5576040519150601f19603f3d011682016040523d82523d6000602084013e6106ba565b606091505b50915091508161074c576040517f08c379a000000000000000000000000000000000000000000000000000000000815260206004820152603d60248201527f54696d656c6f636b3a3a657865637574655472616e73616374696f6e3a20547260448201527f616e73616374696f6e20657865637574696f6e2072657665727465642e0000006064820152608401610394565b8973ffffffffffffffffffffffffffffffffffffffff16847fa560e3198060a2f10670c1ec5b403077ea6ae93ca8de1c32b451dc1a943cd6e78b8b8b8b6040516107999493929190611346565b60405180910390a39998505050505050505050565b60015473ffffffffffffffffffffffffffffffffffffffff163314610855576040517f08c379a000000000000000000000000000000000000000000000000000000000815260206004820152603860248201527f54696d656c6f636b3a3a61636365707441646d696e3a2043616c6c206d75737460448201527f20636f6d652066726f6d2070656e64696e6741646d696e2e00000000000000006064820152608401610394565b60008054337fffffffffffffffffffffffff0000000000000000000000000000000000000000918216178083556001805490921690915560405173ffffffffffffffffffffffffffffffffffffffff909116917f71614071b88dee5e0b2ae578a9dd7b2ebbe9ae832ba419dc0242cd065a290b6c91a2565b6000805473ffffffffffffffffffffffffffffffffffffffff163314610975576040517f08c379a000000000000000000000000000000000000000000000000000000000815260206004820152603660248201527f54696d656c6f636b3a3a71756575655472616e73616374696f6e3a2043616c6c60448201527f206d75737420636f6d652066726f6d2061646d696e2e000000000000000000006064820152608401610394565b6109886002546109824290565b9061107d565b821015610a3d576040517f08c379a000000000000000000000000000000000000000000000000000000000815260206004820152604960248201527f54696d656c6f636b3a3a71756575655472616e73616374696f6e3a204573746960448201527f6d6174656420657865637574696f6e20626c6f636b206d75737420736174697360648201527f66792064656c61792e0000000000000000000000000000000000000000000000608482015260a401610394565b60008686868686604051602001610a589594939291906112d9565b604080517fffffffffffffffffffffffffffffffffffffffffffffffffffffffffffffffe081840301815282825280516020918201206000818152600490925291902080547fffffffffffffffffffffffffffffffffffffffffffffffffffffffffffffff00166001179055915073ffffffffffffffffffffffffffffffffffffffff88169082907f76e2796dc3a81d57b0e8504b647febcbeeb5f4af818e164f11eef8131a6a763f90610b13908a908a908a908a90611346565b60405180910390a39695505050505050565b60035460ff1615610bc457333014610bbf576040517f08c379a000000000000000000000000000000000000000000000000000000000815260206004820152603860248201527f54696d656c6f636b3a3a73657450656e64696e6741646d696e3a2043616c6c2060448201527f6d75737420636f6d652066726f6d2054696d656c6f636b2e00000000000000006064820152608401610394565b610c97565b60005473ffffffffffffffffffffffffffffffffffffffff163314610c6b576040517f08c379a000000000000000000000000000000000000000000000000000000000815260206004820152603b60248201527f54696d656c6f636b3a3a73657450656e64696e6741646d696e3a20466972737460448201527f2063616c6c206d75737420636f6d652066726f6d2061646d696e2e00000000006064820152608401610394565b600380547fffffffffffffffffffffffffffffffffffffffffffffffffffffffffffffff001660011790555b600180547fffffffffffffffffffffffff00000000000000000000000000000000000000001673ffffffffffffffffffffffffffffffffffffffff83811691909117918290556040519116907f69d78e38a01985fbb1462961809b4b2d65531bc93b2b94037f3334b82ca4a75690600090a250565b60005473ffffffffffffffffffffffffffffffffffffffff163314610db3576040517f08c379a000000000000000000000000000000000000000000000000000000000815260206004820152603760248201527f54696d656c6f636b3a3a63616e63656c5472616e73616374696f6e3a2043616c60448201527f6c206d75737420636f6d652066726f6d2061646d696e2e0000000000000000006064820152608401610394565b60008585858585604051602001610dce9594939291906112d9565b604080517fffffffffffffffffffffffffffffffffffffffffffffffffffffffffffffffe081840301815282825280516020918201206000818152600490925291902080547fffffffffffffffffffffffffffffffffffffffffffffffffffffffffffffff00169055915073ffffffffffffffffffffffffffffffffffffffff87169082907f2fffc091a501fd91bfbff27141450d3acb40fb8e6d8382b243ec7a812a3aaf8790610e86908990899089908990611346565b60405180910390a3505050505050565b333014610f25576040517f08c379a000000000000000000000000000000000000000000000000000000000815260206004820152603160248201527f54696d656c6f636b3a3a73657444656c61793a2043616c6c206d75737420636f60448201527f6d652066726f6d2054696d656c6f636b2e0000000000000000000000000000006064820152608401610394565b615460811015610fb7576040517f08c379a000000000000000000000000000000000000000000000000000000000815260206004820152603460248201527f54696d656c6f636b3a3a73657444656c61793a2044656c6179206d757374206560448201527f7863656564206d696e696d756d2064656c61792e0000000000000000000000006064820152608401610394565b62278d0081111561104a576040517f08c379a000000000000000000000000000000000000000000000000000000000815260206004820152603860248201527f54696d656c6f636b3a3a73657444656c61793a2044656c6179206d757374206e60448201527f6f7420657863656564206d6178696d756d2064656c61792e00000000000000006064820152608401610394565b600281905560405181907f948b1f6a42ee138b7e34058ba85a37f716d55ff25ff05a763f15bed6a04c8d2c90600090a250565b60006110898284611383565b9392505050565b600067ffffffffffffffff808411156110ab576110ab6113f0565b604051601f85017fffffffffffffffffffffffffffffffffffffffffffffffffffffffffffffffe0908116603f011681019082821181831017156110f1576110f16113f0565b8160405280935085815286868601111561110a57600080fd5b858560208301376000602087830101525050509392505050565b803573ffffffffffffffffffffffffffffffffffffffff8116811461114857600080fd5b919050565b60006020828403121561115e578081fd5b61108982611124565b600080600080600060a0868803121561117e578081fd5b61118786611124565b945060208601359350604086013567ffffffffffffffff808211156111aa578283fd5b818801915088601f8301126111bd578283fd5b6111cc89833560208501611090565b945060608801359150808211156111e1578283fd5b508601601f810188136111f2578182fd5b61120188823560208401611090565b95989497509295608001359392505050565b600060208284031215611224578081fd5b5035919050565b600081518084526112438160208601602086016113c0565b601f017fffffffffffffffffffffffffffffffffffffffffffffffffffffffffffffffe0169290920160200192915050565b60007fffffffff000000000000000000000000000000000000000000000000000000008416825282516112af8160048501602087016113c0565b919091016004019392505050565b600082516112cf8184602087016113c0565b9190910192915050565b600073ffffffffffffffffffffffffffffffffffffffff8716825285602083015260a0604083015261130e60a083018661122b565b8281036060840152611320818661122b565b9150508260808301529695505050505050565b600060208252611089602083018461122b565b60008582526080602083015261135f608083018661122b565b8281036040840152611371818661122b565b91505082606083015295945050505050565b600082198211156113bb577f4e487b710000000000000000000000000000000000000000000000000000000081526011600452602481fd5b500190565b60005b838110156113db5781810151838201526020016113c3565b838111156113ea576000848401525b50505050565b7f4e487b7100000000000000000000000000000000000000000000000000000000600052604160045260246000fdfea26469706673582212206f087e112544b91040fc3d6f0781107899892bd9b6f8df632d99c0c60c72a0eb64736f6c6343000802003354696d656c6f636b3a3a636f6e7374727563746f723a2044656c6179206d7573",
  "linkReferences": {},
  "deployedLinkReferences": {}
}