{
  "_format": "hh-sol-artifact-1",
  "contractName": "EmberLocker",
  "sourceName": "contracts/locker/EmberLocker.sol",
  "abi": [
    {
      "inputs": [],
      "stateMutability": "nonpayable",
      "type": "constructor"
    },
    {
      "anonymous": false,
      "inputs": [
        {
          "indexed": false,
          "internalType": "address",
          "name": "token",
          "type": "address"
        },
        {
          "indexed": false,
          "internalType": "uint256",
          "name": "amount",
          "type": "uint256"
        },
        {
          "indexed": false,
          "internalType": "uint256",
          "name": "id",
          "type": "uint256"
        }
      ],
      "name": "Lock",
      "type": "event"
    },
    {
      "anonymous": false,
      "inputs": [
        {
          "indexed": true,
          "internalType": "address",
          "name": "previousOwner",
          "type": "address"
        },
        {
          "indexed": true,
          "internalType": "address",
          "name": "newOwner",
          "type": "address"
        }
      ],
      "name": "OwnershipTransferred",
      "type": "event"
    },
    {
      "anonymous": false,
      "inputs": [
        {
          "indexed": false,
          "internalType": "address",
          "name": "withdrawer",
          "type": "address"
        },
        {
          "indexed": false,
          "internalType": "uint256",
          "name": "amount",
          "type": "uint256"
        }
      ],
      "name": "Withdraw",
      "type": "event"
    },
    {
      "inputs": [
        {
          "internalType": "address",
          "name": "",
          "type": "address"
        },
        {
          "internalType": "uint256",
          "name": "",
          "type": "uint256"
        }
      ],
      "name": "depositsByWithdrawer",
      "outputs": [
        {
          "internalType": "uint256",
          "name": "",
          "type": "uint256"
        }
      ],
      "stateMutability": "view",
      "type": "function"
    },
    {
      "inputs": [],
      "name": "depositsCount",
      "outputs": [
        {
          "internalType": "uint256",
          "name": "",
          "type": "uint256"
        }
      ],
      "stateMutability": "view",
      "type": "function"
    },
    {
      "inputs": [
        {
          "internalType": "address",
          "name": "_token",
          "type": "address"
        }
      ],
      "name": "getDepositsByTokenAddress",
      "outputs": [
        {
          "internalType": "uint256[]",
          "name": "",
          "type": "uint256[]"
        }
      ],
      "stateMutability": "view",
      "type": "function"
    },
    {
      "inputs": [
        {
          "internalType": "address",
          "name": "_withdrawer",
          "type": "address"
        }
      ],
      "name": "getDepositsByWithdrawer",
      "outputs": [
        {
          "internalType": "uint256[]",
          "name": "",
          "type": "uint256[]"
        }
      ],
      "stateMutability": "view",
      "type": "function"
    },
    {
      "inputs": [
        {
          "internalType": "address",
          "name": "_token",
          "type": "address"
        }
      ],
      "name": "getTokenTotalLockedBalance",
      "outputs": [
        {
          "internalType": "uint256",
          "name": "",
          "type": "uint256"
        }
      ],
      "stateMutability": "view",
      "type": "function"
    },
    {
      "inputs": [],
      "name": "lockFee",
      "outputs": [
        {
          "internalType": "uint256",
          "name": "",
          "type": "uint256"
        }
      ],
      "stateMutability": "view",
      "type": "function"
    },
    {
      "inputs": [
        {
          "internalType": "contract IERC20",
          "name": "_token",
          "type": "address"
        },
        {
          "internalType": "address",
          "name": "_withdrawer",
          "type": "address"
        },
        {
          "internalType": "uint256",
          "name": "_amount",
          "type": "uint256"
        },
        {
          "internalType": "uint256",
          "name": "_unlockTimestamp",
          "type": "uint256"
        }
      ],
      "name": "lockTokens",
      "outputs": [
        {
          "internalType": "uint256",
          "name": "_id",
          "type": "uint256"
        }
      ],
      "stateMutability": "payable",
      "type": "function"
    },
    {
      "inputs": [
        {
          "internalType": "uint256",
          "name": "",
          "type": "uint256"
        }
      ],
      "name": "lockedToken",
      "outputs": [
        {
          "internalType": "contract IERC20",
          "name": "token",
          "type": "address"
        },
        {
          "internalType": "address",
          "name": "withdrawer",
          "type": "address"
        },
        {
          "internalType": "uint256",
          "name": "amount",
          "type": "uint256"
        },
        {
          "internalType": "uint256",
          "name": "unlockTimestamp",
          "type": "uint256"
        },
        {
          "internalType": "bool",
          "name": "withdrawn",
          "type": "bool"
        }
      ],
      "stateMutability": "view",
      "type": "function"
    },
    {
      "inputs": [],
      "name": "marketingAddress",
      "outputs": [
        {
          "internalType": "address",
          "name": "",
          "type": "address"
        }
      ],
      "stateMutability": "view",
      "type": "function"
    },
    {
      "inputs": [],
      "name": "owner",
      "outputs": [
        {
          "internalType": "address",
          "name": "",
          "type": "address"
        }
      ],
      "stateMutability": "view",
      "type": "function"
    },
    {
      "inputs": [],
      "name": "renounceOwnership",
      "outputs": [],
      "stateMutability": "nonpayable",
      "type": "function"
    },
    {
      "inputs": [
        {
          "internalType": "uint256",
          "name": "_lockFee",
          "type": "uint256"
        }
      ],
      "name": "setLockFee",
      "outputs": [],
      "stateMutability": "nonpayable",
      "type": "function"
    },
    {
      "inputs": [
        {
          "internalType": "address",
          "name": "_marketingAddress",
          "type": "address"
        }
      ],
      "name": "setMarketingAddress",
      "outputs": [],
      "stateMutability": "nonpayable",
      "type": "function"
    },
    {
      "inputs": [
        {
          "internalType": "address",
          "name": "newOwner",
          "type": "address"
        }
      ],
      "name": "transferOwnership",
      "outputs": [],
      "stateMutability": "nonpayable",
      "type": "function"
    },
    {
      "inputs": [
        {
          "internalType": "address",
          "name": "",
          "type": "address"
        },
        {
          "internalType": "address",
          "name": "",
          "type": "address"
        }
      ],
      "name": "walletTokenBalance",
      "outputs": [
        {
          "internalType": "uint256",
          "name": "",
          "type": "uint256"
        }
      ],
      "stateMutability": "view",
      "type": "function"
    },
    {
      "inputs": [
        {
          "internalType": "uint256",
          "name": "_id",
          "type": "uint256"
        }
      ],
      "name": "withdrawTokens",
      "outputs": [],
      "stateMutability": "nonpayable",
      "type": "function"
    }
  ],
  "bytecode": "0x608060405267016345785d8a000060065534801561001c57600080fd5b506100263361003d565b600780546001600160a01b0319163317905561008d565b600080546001600160a01b038381166001600160a01b0319831681178455604051919092169283917f8be0079c531659141344cd1fd0a4f28419497f9722a3daafe3b4186f6b6457e09190a35050565b611a988061009c6000396000f3fe6080604052600436106100f35760003560e01c80638da5cb5b1161008a578063b78a153211610059578063b78a1532146102a7578063b9e7df1c146102c7578063bb941cff146102ff578063f2fde38b146103a857600080fd5b80638da5cb5b146101ee578063906e9dd01461023a5780639f7260bd1461025a578063a5ece9411461027a57600080fd5b806356a06235116100c657806356a0623514610190578063715018a6146101a65780637d533c1e146101bb57806386f65a22146101ce57600080fd5b806323c4a921146100f8578063315a095d1461012b5780634506e9351461014d578063469d86e214610163575b600080fd5b34801561010457600080fd5b50610118610113366004611806565b6103c8565b6040519081526020015b60405180910390f35b34801561013757600080fd5b5061014b61014636600461189a565b6103f9565b005b34801561015957600080fd5b5061011860015481565b34801561016f57600080fd5b5061018361017e3660046117b0565b6106bc565b60405161012291906118e8565b34801561019c57600080fd5b5061011860065481565b3480156101b257600080fd5b5061014b610735565b6101186101c9366004611854565b6107c2565b3480156101da57600080fd5b506101836101e93660046117b0565b610f51565b3480156101fa57600080fd5b5060005473ffffffffffffffffffffffffffffffffffffffff165b60405173ffffffffffffffffffffffffffffffffffffffff9091168152602001610122565b34801561024657600080fd5b5061014b6102553660046117b0565b610fc8565b34801561026657600080fd5b5061014b61027536600461189a565b611090565b34801561028657600080fd5b506007546102159073ffffffffffffffffffffffffffffffffffffffff1681565b3480156102b357600080fd5b506101186102c23660046117b0565b611116565b3480156102d357600080fd5b506101186102e23660046117cd565b600560209081526000928352604080842090915290825290205481565b34801561030b57600080fd5b5061036661031a36600461189a565b60046020819052600091825260409091208054600182015460028301546003840154939094015473ffffffffffffffffffffffffffffffffffffffff9283169492909116929060ff1685565b6040805173ffffffffffffffffffffffffffffffffffffffff96871681529590941660208601529284019190915260608301521515608082015260a001610122565b3480156103b457600080fd5b5061014b6103c33660046117b0565b6111bc565b600360205281600052604060002081815481106103e457600080fd5b90600052602060002001600091509150505481565b600081815260046020526040902060030154421015610479576040517f08c379a000000000000000000000000000000000000000000000000000000000815260206004820152601860248201527f546f6b656e7320617265207374696c6c206c6f636b656421000000000000000060448201526064015b60405180910390fd5b60008181526004602052604090206001015473ffffffffffffffffffffffffffffffffffffffff163314610509576040517f08c379a000000000000000000000000000000000000000000000000000000000815260206004820152601b60248201527f596f7520617265206e6f742074686520776974686472617765722100000000006044820152606401610470565b6000818152600460208190526040909120015460ff1615610586576040517f08c379a000000000000000000000000000000000000000000000000000000000815260206004820152601d60248201527f546f6b656e732061726520616c72656164792077697468647261776e210000006044820152606401610470565b600081815260046020818152604080842092830180547fffffffffffffffffffffffffffffffffffffffffffffffffffffffffffffff001660011790556002830154925473ffffffffffffffffffffffffffffffffffffffff16845260058252808420338552909152909120546105fc916112e9565b6000828152600460208181526040808420805473ffffffffffffffffffffffffffffffffffffffff168552600583528185203380875290845282862096909655938690529181526002909201548151938452918301919091527f884edad9ce6fa2440d8a54cc123490eb96d2768479d49ff9c7366125a9424364910160405180910390a16000818152600460205260409020600281015490546106b99173ffffffffffffffffffffffffffffffffffffffff9091169033906112fc565b50565b73ffffffffffffffffffffffffffffffffffffffff811660009081526003602090815260409182902080548351818402810184019094528084526060939283018282801561072957602002820191906000526020600020905b815481526020019060010190808311610715575b50505050509050919050565b60005473ffffffffffffffffffffffffffffffffffffffff1633146107b6576040517f08c379a000000000000000000000000000000000000000000000000000000000815260206004820181905260248201527f4f776e61626c653a2063616c6c6572206973206e6f7420746865206f776e65726044820152606401610470565b6107c060006113d5565b565b600080831161082d576040517f08c379a000000000000000000000000000000000000000000000000000000000815260206004820152601560248201527f546f6b656e20616d6f756e7420746f6f206c6f772100000000000000000000006044820152606401610470565b6402540be40082106108c1576040517f08c379a000000000000000000000000000000000000000000000000000000000815260206004820152602360248201527f556e6c6f636b2074696d657374616d70206973206e6f7420696e207365636f6e60448201527f64732100000000000000000000000000000000000000000000000000000000006064820152608401610470565b428211610950576040517f08c379a000000000000000000000000000000000000000000000000000000000815260206004820152602660248201527f556e6c6f636b2074696d657374616d70206973206e6f7420696e20746865206660448201527f75747572652100000000000000000000000000000000000000000000000000006064820152608401610470565b6040517fdd62ed3e000000000000000000000000000000000000000000000000000000008152336004820152306024820152839073ffffffffffffffffffffffffffffffffffffffff87169063dd62ed3e9060440160206040518083038186803b1580156109bd57600080fd5b505afa1580156109d1573d6000803e3d6000fd5b505050506040513d601f19601f820116820180604052508101906109f591906118b3565b1015610a5d576040517f08c379a000000000000000000000000000000000000000000000000000000000815260206004820152601560248201527f417070726f766520746f6b656e732066697273742100000000000000000000006044820152606401610470565b600654341015610ac9576040517f08c379a000000000000000000000000000000000000000000000000000000000815260206004820152601560248201527f4e65656420746f20706179206c6f636b206665652100000000000000000000006044820152606401610470565b6040517f70a0823100000000000000000000000000000000000000000000000000000000815230600482015260009073ffffffffffffffffffffffffffffffffffffffff8716906370a082319060240160206040518083038186803b158015610b3157600080fd5b505afa158015610b45573d6000803e3d6000fd5b505050506040513d601f19601f82011682018060405250810190610b6991906118b3565b9050610b8d73ffffffffffffffffffffffffffffffffffffffff871633308761144a565b6040517f70a0823100000000000000000000000000000000000000000000000000000000815230600482015260009073ffffffffffffffffffffffffffffffffffffffff8816906370a082319060240160206040518083038186803b158015610bf557600080fd5b505afa158015610c09573d6000803e3d6000fd5b505050506040513d601f19601f82011682018060405250810190610c2d91906118b3565b9050610c3981836112e9565b60075460405191965073ffffffffffffffffffffffffffffffffffffffff16903480156108fc02916000818181858888f19350505050158015610c80573d6000803e3d6000fd5b5073ffffffffffffffffffffffffffffffffffffffff87166000908152600560209081526040808320338452909152902054610cbc90866114ae565b73ffffffffffffffffffffffffffffffffffffffff8816600090815260056020908152604080832033845290915281209190915560018054909190610d00906119d8565b9190508190559250866004600085815260200190815260200160002060000160006101000a81548173ffffffffffffffffffffffffffffffffffffffff021916908373ffffffffffffffffffffffffffffffffffffffff160217905550856004600085815260200190815260200160002060010160006101000a81548173ffffffffffffffffffffffffffffffffffffffff021916908373ffffffffffffffffffffffffffffffffffffffff16021790555084600460008581526020019081526020016000206002018190555083600460008581526020019081526020016000206003018190555060006004600085815260200190815260200160002060040160006101000a81548160ff021916908315150217905550600260008873ffffffffffffffffffffffffffffffffffffffff1673ffffffffffffffffffffffffffffffffffffffff168152602001908152602001600020839080600181540180825580915050600190039060005260206000200160009091909190915055600360008773ffffffffffffffffffffffffffffffffffffffff1673ffffffffffffffffffffffffffffffffffffffff1681526020019081526020016000208390806001815401808255809150506001900390600052602060002001600090919091909150557f49eaf4942f1237055eb4cfa5f31c9dfe50d5b4ade01e021f7de8be2fbbde557b878685604051610f3f9392919073ffffffffffffffffffffffffffffffffffffffff9390931683526020830191909152604082015260600190565b60405180910390a15050949350505050565b73ffffffffffffffffffffffffffffffffffffffff811660009081526002602090815260409182902080548351818402810184019094528084526060939283018282801561072957602002820191906000526020600020908154815260200190600101908083116107155750505050509050919050565b60005473ffffffffffffffffffffffffffffffffffffffff163314611049576040517f08c379a000000000000000000000000000000000000000000000000000000000815260206004820181905260248201527f4f776e61626c653a2063616c6c6572206973206e6f7420746865206f776e65726044820152606401610470565b600780547fffffffffffffffffffffffff00000000000000000000000000000000000000001673ffffffffffffffffffffffffffffffffffffffff92909216919091179055565b60005473ffffffffffffffffffffffffffffffffffffffff163314611111576040517f08c379a000000000000000000000000000000000000000000000000000000000815260206004820181905260248201527f4f776e61626c653a2063616c6c6572206973206e6f7420746865206f776e65726044820152606401610470565b600655565b6040517f70a0823100000000000000000000000000000000000000000000000000000000815230600482015260009073ffffffffffffffffffffffffffffffffffffffff8316906370a082319060240160206040518083038186803b15801561117e57600080fd5b505afa158015611192573d6000803e3d6000fd5b505050506040513d601f19601f820116820180604052508101906111b691906118b3565b92915050565b60005473ffffffffffffffffffffffffffffffffffffffff16331461123d576040517f08c379a000000000000000000000000000000000000000000000000000000000815260206004820181905260248201527f4f776e61626c653a2063616c6c6572206973206e6f7420746865206f776e65726044820152606401610470565b73ffffffffffffffffffffffffffffffffffffffff81166112e0576040517f08c379a000000000000000000000000000000000000000000000000000000000815260206004820152602660248201527f4f776e61626c653a206e6577206f776e657220697320746865207a65726f206160448201527f64647265737300000000000000000000000000000000000000000000000000006064820152608401610470565b6106b9816113d5565b60006112f58284611995565b9392505050565b60405173ffffffffffffffffffffffffffffffffffffffff83166024820152604481018290526113d09084907fa9059cbb00000000000000000000000000000000000000000000000000000000906064015b604080517fffffffffffffffffffffffffffffffffffffffffffffffffffffffffffffffe08184030181529190526020810180517bffffffffffffffffffffffffffffffffffffffffffffffffffffffff167fffffffff00000000000000000000000000000000000000000000000000000000909316929092179091526114ba565b505050565b6000805473ffffffffffffffffffffffffffffffffffffffff8381167fffffffffffffffffffffffff0000000000000000000000000000000000000000831681178455604051919092169283917f8be0079c531659141344cd1fd0a4f28419497f9722a3daafe3b4186f6b6457e09190a35050565b60405173ffffffffffffffffffffffffffffffffffffffff808516602483015283166044820152606481018290526114a89085907f23b872dd000000000000000000000000000000000000000000000000000000009060840161134e565b50505050565b60006112f5828461197d565b600061151c826040518060400160405280602081526020017f5361666545524332303a206c6f772d6c6576656c2063616c6c206661696c65648152508573ffffffffffffffffffffffffffffffffffffffff166115c69092919063ffffffff16565b8051909150156113d0578080602001905181019061153a9190611832565b6113d0576040517f08c379a000000000000000000000000000000000000000000000000000000000815260206004820152602a60248201527f5361666545524332303a204552433230206f7065726174696f6e20646964206e60448201527f6f742073756363656564000000000000000000000000000000000000000000006064820152608401610470565b60606115d584846000856115dd565b949350505050565b60608247101561166f576040517f08c379a000000000000000000000000000000000000000000000000000000000815260206004820152602660248201527f416464726573733a20696e73756666696369656e742062616c616e636520666f60448201527f722063616c6c00000000000000000000000000000000000000000000000000006064820152608401610470565b843b6116d7576040517f08c379a000000000000000000000000000000000000000000000000000000000815260206004820152601d60248201527f416464726573733a2063616c6c20746f206e6f6e2d636f6e74726163740000006044820152606401610470565b6000808673ffffffffffffffffffffffffffffffffffffffff16858760405161170091906118cc565b60006040518083038185875af1925050503d806000811461173d576040519150601f19603f3d011682016040523d82523d6000602084013e611742565b606091505b509150915061175282828661175d565b979650505050505050565b6060831561176c5750816112f5565b82511561177c5782518084602001fd5b816040517f08c379a0000000000000000000000000000000000000000000000000000000008152600401610470919061192c565b6000602082840312156117c257600080fd5b81356112f581611a40565b600080604083850312156117e057600080fd5b82356117eb81611a40565b915060208301356117fb81611a40565b809150509250929050565b6000806040838503121561181957600080fd5b823561182481611a40565b946020939093013593505050565b60006020828403121561184457600080fd5b815180151581146112f557600080fd5b6000806000806080858703121561186a57600080fd5b843561187581611a40565b9350602085013561188581611a40565b93969395505050506040820135916060013590565b6000602082840312156118ac57600080fd5b5035919050565b6000602082840312156118c557600080fd5b5051919050565b600082516118de8184602087016119ac565b9190910192915050565b6020808252825182820181905260009190848201906040850190845b8181101561192057835183529284019291840191600101611904565b50909695505050505050565b602081526000825180602084015261194b8160408501602087016119ac565b601f017fffffffffffffffffffffffffffffffffffffffffffffffffffffffffffffffe0169190910160400192915050565b6000821982111561199057611990611a11565b500190565b6000828210156119a7576119a7611a11565b500390565b60005b838110156119c75781810151838201526020016119af565b838111156114a85750506000910152565b60007fffffffffffffffffffffffffffffffffffffffffffffffffffffffffffffffff821415611a0a57611a0a611a11565b5060010190565b7f4e487b7100000000000000000000000000000000000000000000000000000000600052601160045260246000fd5b73ffffffffffffffffffffffffffffffffffffffff811681146106b957600080fdfea26469706673582212205864e023eb7533c85193fae18f564a6d79666107a122020c10a5e7bb8743833264736f6c63430008070033",
  "linkReferences": {},
  "deployedLinkReferences": {}
}