{
  "_format": "hh-sol-artifact-1",
  "contractName": "TokenFarm",
  "sourceName": "contracts/staking/TokenFarm.sol",
  "abi": [
    {
      "inputs": [
        {
          "internalType": "address",
          "name": "_rewardHolder",
          "type": "address"
        }
      ],
      "stateMutability": "nonpayable",
      "type": "constructor"
    },
    {
      "anonymous": false,
      "inputs": [
        {
          "indexed": true,
          "internalType": "uint256",
          "name": "campaignID",
          "type": "uint256"
        },
        {
          "indexed": false,
          "internalType": "contract IBoringERC20",
          "name": "stakingToken",
          "type": "address"
        },
        {
          "indexed": false,
          "internalType": "contract IBoringERC20",
          "name": "rewardToken",
          "type": "address"
        },
        {
          "indexed": false,
          "internalType": "uint256",
          "name": "startTimestamp",
          "type": "uint256"
        }
      ],
      "name": "AddCampaignInfo",
      "type": "event"
    },
    {
      "anonymous": false,
      "inputs": [
        {
          "indexed": true,
          "internalType": "uint256",
          "name": "campaignID",
          "type": "uint256"
        },
        {
          "indexed": true,
          "internalType": "uint256",
          "name": "phase",
          "type": "uint256"
        },
        {
          "indexed": false,
          "internalType": "uint256",
          "name": "endTimestamp",
          "type": "uint256"
        },
        {
          "indexed": false,
          "internalType": "uint256",
          "name": "rewardPerTimestamp",
          "type": "uint256"
        }
      ],
      "name": "AddRewardInfo",
      "type": "event"
    },
    {
      "anonymous": false,
      "inputs": [
        {
          "indexed": true,
          "internalType": "address",
          "name": "user",
          "type": "address"
        },
        {
          "indexed": false,
          "internalType": "uint256",
          "name": "amount",
          "type": "uint256"
        },
        {
          "indexed": false,
          "internalType": "uint256",
          "name": "campaign",
          "type": "uint256"
        }
      ],
      "name": "Deposit",
      "type": "event"
    },
    {
      "anonymous": false,
      "inputs": [
        {
          "indexed": true,
          "internalType": "address",
          "name": "user",
          "type": "address"
        },
        {
          "indexed": false,
          "internalType": "uint256",
          "name": "amount",
          "type": "uint256"
        },
        {
          "indexed": false,
          "internalType": "uint256",
          "name": "campaign",
          "type": "uint256"
        }
      ],
      "name": "EmergencyWithdraw",
      "type": "event"
    },
    {
      "anonymous": false,
      "inputs": [
        {
          "indexed": true,
          "internalType": "address",
          "name": "previousOwner",
          "type": "address"
        },
        {
          "indexed": true,
          "internalType": "address",
          "name": "newOwner",
          "type": "address"
        }
      ],
      "name": "OwnershipTransferred",
      "type": "event"
    },
    {
      "anonymous": false,
      "inputs": [
        {
          "indexed": false,
          "internalType": "address",
          "name": "rewardHolder",
          "type": "address"
        }
      ],
      "name": "SetRewardHolder",
      "type": "event"
    },
    {
      "anonymous": false,
      "inputs": [
        {
          "indexed": false,
          "internalType": "uint256",
          "name": "rewardInfoLimit",
          "type": "uint256"
        }
      ],
      "name": "SetRewardInfoLimit",
      "type": "event"
    },
    {
      "anonymous": false,
      "inputs": [
        {
          "indexed": true,
          "internalType": "address",
          "name": "user",
          "type": "address"
        },
        {
          "indexed": false,
          "internalType": "uint256",
          "name": "amount",
          "type": "uint256"
        },
        {
          "indexed": false,
          "internalType": "uint256",
          "name": "campaign",
          "type": "uint256"
        }
      ],
      "name": "Withdraw",
      "type": "event"
    },
    {
      "inputs": [
        {
          "internalType": "contract IBoringERC20",
          "name": "_stakingToken",
          "type": "address"
        },
        {
          "internalType": "contract IBoringERC20",
          "name": "_rewardToken",
          "type": "address"
        },
        {
          "internalType": "uint256",
          "name": "_startTimestamp",
          "type": "uint256"
        }
      ],
      "name": "addCampaignInfo",
      "outputs": [],
      "stateMutability": "nonpayable",
      "type": "function"
    },
    {
      "inputs": [
        {
          "internalType": "uint256",
          "name": "_campaignID",
          "type": "uint256"
        },
        {
          "internalType": "uint256",
          "name": "_endTimestamp",
          "type": "uint256"
        },
        {
          "internalType": "uint256",
          "name": "_rewardPerSec",
          "type": "uint256"
        }
      ],
      "name": "addRewardInfo",
      "outputs": [],
      "stateMutability": "nonpayable",
      "type": "function"
    },
    {
      "inputs": [
        {
          "internalType": "uint256",
          "name": "",
          "type": "uint256"
        }
      ],
      "name": "campaignInfo",
      "outputs": [
        {
          "internalType": "contract IBoringERC20",
          "name": "stakingToken",
          "type": "address"
        },
        {
          "internalType": "contract IBoringERC20",
          "name": "rewardToken",
          "type": "address"
        },
        {
          "internalType": "uint256",
          "name": "precision",
          "type": "uint256"
        },
        {
          "internalType": "uint256",
          "name": "startTimestamp",
          "type": "uint256"
        },
        {
          "internalType": "uint256",
          "name": "lastRewardTimestamp",
          "type": "uint256"
        },
        {
          "internalType": "uint256",
          "name": "accRewardPerShare",
          "type": "uint256"
        },
        {
          "internalType": "uint256",
          "name": "totalStaked",
          "type": "uint256"
        },
        {
          "internalType": "uint256",
          "name": "totalRewards",
          "type": "uint256"
        }
      ],
      "stateMutability": "view",
      "type": "function"
    },
    {
      "inputs": [],
      "name": "campaignInfoLen",
      "outputs": [
        {
          "internalType": "uint256",
          "name": "",
          "type": "uint256"
        }
      ],
      "stateMutability": "view",
      "type": "function"
    },
    {
      "inputs": [
        {
          "internalType": "uint256",
          "name": "",
          "type": "uint256"
        },
        {
          "internalType": "uint256",
          "name": "",
          "type": "uint256"
        }
      ],
      "name": "campaignRewardInfo",
      "outputs": [
        {
          "internalType": "uint256",
          "name": "endTimestamp",
          "type": "uint256"
        },
        {
          "internalType": "uint256",
          "name": "rewardPerSec",
          "type": "uint256"
        }
      ],
      "stateMutability": "view",
      "type": "function"
    },
    {
      "inputs": [
        {
          "internalType": "uint256",
          "name": "_campaignID",
          "type": "uint256"
        }
      ],
      "name": "currentEndTimestamp",
      "outputs": [
        {
          "internalType": "uint256",
          "name": "",
          "type": "uint256"
        }
      ],
      "stateMutability": "view",
      "type": "function"
    },
    {
      "inputs": [
        {
          "internalType": "uint256",
          "name": "_campaignID",
          "type": "uint256"
        }
      ],
      "name": "currentRewardPerSec",
      "outputs": [
        {
          "internalType": "uint256",
          "name": "",
          "type": "uint256"
        }
      ],
      "stateMutability": "view",
      "type": "function"
    },
    {
      "inputs": [
        {
          "internalType": "uint256",
          "name": "_campaignID",
          "type": "uint256"
        },
        {
          "internalType": "uint256",
          "name": "_amount",
          "type": "uint256"
        }
      ],
      "name": "deposit",
      "outputs": [],
      "stateMutability": "nonpayable",
      "type": "function"
    },
    {
      "inputs": [
        {
          "internalType": "uint256",
          "name": "_campaignID",
          "type": "uint256"
        },
        {
          "internalType": "uint256",
          "name": "_amount",
          "type": "uint256"
        },
        {
          "internalType": "uint256",
          "name": "deadline",
          "type": "uint256"
        },
        {
          "internalType": "uint8",
          "name": "v",
          "type": "uint8"
        },
        {
          "internalType": "bytes32",
          "name": "r",
          "type": "bytes32"
        },
        {
          "internalType": "bytes32",
          "name": "s",
          "type": "bytes32"
        }
      ],
      "name": "depositWithPermit",
      "outputs": [],
      "stateMutability": "nonpayable",
      "type": "function"
    },
    {
      "inputs": [
        {
          "internalType": "uint256",
          "name": "_campaignID",
          "type": "uint256"
        },
        {
          "internalType": "uint256",
          "name": "_amount",
          "type": "uint256"
        },
        {
          "internalType": "address",
          "name": "_beneficiary",
          "type": "address"
        }
      ],
      "name": "emergencyRewardWithdraw",
      "outputs": [],
      "stateMutability": "nonpayable",
      "type": "function"
    },
    {
      "inputs": [
        {
          "internalType": "uint256",
          "name": "_campaignID",
          "type": "uint256"
        }
      ],
      "name": "emergencyWithdraw",
      "outputs": [],
      "stateMutability": "nonpayable",
      "type": "function"
    },
    {
      "inputs": [
        {
          "internalType": "uint256",
          "name": "_from",
          "type": "uint256"
        },
        {
          "internalType": "uint256",
          "name": "_to",
          "type": "uint256"
        },
        {
          "internalType": "uint256",
          "name": "_endTimestamp",
          "type": "uint256"
        }
      ],
      "name": "getMultiplier",
      "outputs": [
        {
          "internalType": "uint256",
          "name": "",
          "type": "uint256"
        }
      ],
      "stateMutability": "pure",
      "type": "function"
    },
    {
      "inputs": [
        {
          "internalType": "uint256[]",
          "name": "_campaignIDs",
          "type": "uint256[]"
        }
      ],
      "name": "harvest",
      "outputs": [],
      "stateMutability": "nonpayable",
      "type": "function"
    },
    {
      "inputs": [],
      "name": "massUpdateCampaigns",
      "outputs": [],
      "stateMutability": "nonpayable",
      "type": "function"
    },
    {
      "inputs": [],
      "name": "owner",
      "outputs": [
        {
          "internalType": "address",
          "name": "",
          "type": "address"
        }
      ],
      "stateMutability": "view",
      "type": "function"
    },
    {
      "inputs": [
        {
          "internalType": "uint256",
          "name": "_campaignID",
          "type": "uint256"
        },
        {
          "internalType": "address",
          "name": "_user",
          "type": "address"
        }
      ],
      "name": "pendingReward",
      "outputs": [
        {
          "internalType": "uint256",
          "name": "",
          "type": "uint256"
        }
      ],
      "stateMutability": "view",
      "type": "function"
    },
    {
      "inputs": [],
      "name": "renounceOwnership",
      "outputs": [],
      "stateMutability": "nonpayable",
      "type": "function"
    },
    {
      "inputs": [],
      "name": "rewardHolder",
      "outputs": [
        {
          "internalType": "address",
          "name": "",
          "type": "address"
        }
      ],
      "stateMutability": "view",
      "type": "function"
    },
    {
      "inputs": [
        {
          "internalType": "uint256",
          "name": "_campaignID",
          "type": "uint256"
        }
      ],
      "name": "rewardInfoLen",
      "outputs": [
        {
          "internalType": "uint256",
          "name": "",
          "type": "uint256"
        }
      ],
      "stateMutability": "view",
      "type": "function"
    },
    {
      "inputs": [],
      "name": "rewardInfoLimit",
      "outputs": [
        {
          "internalType": "uint256",
          "name": "",
          "type": "uint256"
        }
      ],
      "stateMutability": "view",
      "type": "function"
    },
    {
      "inputs": [
        {
          "internalType": "address",
          "name": "_rewardHolder",
          "type": "address"
        }
      ],
      "name": "setRewardHolder",
      "outputs": [],
      "stateMutability": "nonpayable",
      "type": "function"
    },
    {
      "inputs": [
        {
          "internalType": "uint256",
          "name": "_updatedRewardInfoLimit",
          "type": "uint256"
        }
      ],
      "name": "setRewardInfoLimit",
      "outputs": [],
      "stateMutability": "nonpayable",
      "type": "function"
    },
    {
      "inputs": [
        {
          "internalType": "address",
          "name": "newOwner",
          "type": "address"
        }
      ],
      "name": "transferOwnership",
      "outputs": [],
      "stateMutability": "nonpayable",
      "type": "function"
    },
    {
      "inputs": [
        {
          "internalType": "uint256",
          "name": "_campaignID",
          "type": "uint256"
        }
      ],
      "name": "updateCampaign",
      "outputs": [],
      "stateMutability": "nonpayable",
      "type": "function"
    },
    {
      "inputs": [
        {
          "internalType": "uint256",
          "name": "",
          "type": "uint256"
        },
        {
          "internalType": "address",
          "name": "",
          "type": "address"
        }
      ],
      "name": "userInfo",
      "outputs": [
        {
          "internalType": "uint256",
          "name": "amount",
          "type": "uint256"
        },
        {
          "internalType": "uint256",
          "name": "rewardDebt",
          "type": "uint256"
        }
      ],
      "stateMutability": "view",
      "type": "function"
    },
    {
      "inputs": [
        {
          "internalType": "uint256",
          "name": "_campaignID",
          "type": "uint256"
        },
        {
          "internalType": "uint256",
          "name": "_amount",
          "type": "uint256"
        }
      ],
      "name": "withdraw",
      "outputs": [],
      "stateMutability": "nonpayable",
      "type": "function"
    }
  ],
  "bytecode": "0x60806040523480156200001157600080fd5b5060405162002c5238038062002c528339810160408190526200003491620000be565b6200003f336200006e565b600180556035600555600680546001600160a01b0319166001600160a01b0392909216919091179055620000f0565b600080546001600160a01b038381166001600160a01b0319831681178455604051919092169283917f8be0079c531659141344cd1fd0a4f28419497f9722a3daafe3b4186f6b6457e09190a35050565b600060208284031215620000d157600080fd5b81516001600160a01b0381168114620000e957600080fd5b9392505050565b612b5280620001006000396000f3fe608060405234801561001057600080fd5b50600436106101ad5760003560e01c80635d14b06f116100ee57806398969e8211610097578063cef7042d11610071578063cef7042d1461041a578063e2bbb1581461042d578063eebdced514610440578063f2fde38b1461044857600080fd5b806398969e821461038e5780639e494bee146103a1578063bb2238ec146103b457600080fd5b80637bafb029116100c85780637bafb0291461032b5780638da5cb5b1461033e57806393f1a40b1461035c57600080fd5b80635d14b06f146102fd5780636806cc9314610310578063715018a61461032357600080fd5b8063409e00fc1161015b5780634ae56bae116101355780634ae56bae14610272578063515bc323146102925780635312ea8e146102a5578063569c93d2146102b857600080fd5b8063409e00fc14610244578063441a3e70146102575780634ad7ce801461026a57600080fd5b80632ea807c51161018c5780632ea807c51461020b57806332215c421461021e57806333824b871461023157600080fd5b8062d74850146101b257806310f7a6af146101ce5780631d123131146101f6575b600080fd5b6101bb60055481565b6040519081526020015b60405180910390f35b6101e16101dc366004612754565b61045b565b604080519283526020830191909152016101c5565b610209610204366004612776565b610497565b005b6102096102193660046127af565b6106b3565b6101bb61022c36600461270b565b610ace565b61020961023f36600461270b565b610ae0565b6102096102523660046126ca565b610b9d565b610209610265366004612754565b610f34565b6003546101bb565b6101bb61028036600461270b565b60009081526002602052604090205490565b6102096102a03660046127db565b610fb8565b6102096102b336600461270b565b611117565b6006546102d89073ffffffffffffffffffffffffffffffffffffffff1681565b60405173ffffffffffffffffffffffffffffffffffffffff90911681526020016101c5565b61020961030b366004612633565b61125b565b61020961031e366004612616565b611314565b610209611408565b6101bb6103393660046127af565b611495565b60005473ffffffffffffffffffffffffffffffffffffffff166102d8565b6101e161036a366004612724565b60046020908152600092835260408084209091529082529020805460019091015482565b6101bb61039c366004612724565b6114de565b6101bb6103af36600461270b565b611520565b6103c76103c236600461270b565b61152c565b6040805173ffffffffffffffffffffffffffffffffffffffff998a168152989097166020890152958701949094526060860192909252608085015260a084015260c083015260e0820152610100016101c5565b61020961042836600461270b565b61159b565b61020961043b366004612754565b61161d565b610209611699565b610209610456366004612616565b611732565b6002602052816000526040600020818154811061047757600080fd5b600091825260209091206002909102018054600190910154909250905082565b60005473ffffffffffffffffffffffffffffffffffffffff16331461051d576040517f08c379a000000000000000000000000000000000000000000000000000000000815260206004820181905260248201527f4f776e61626c653a2063616c6c6572206973206e6f7420746865206f776e657260448201526064015b60405180910390fd5b6002600154141561058a576040517f08c379a000000000000000000000000000000000000000000000000000000000815260206004820152601f60248201527f5265656e7472616e637947756172643a207265656e7472616e742063616c6c006044820152606401610514565b60026001819055506000600384815481106105a7576105a7612abc565b9060005260206000209060080201905060006105c98583600601546000611862565b60078301549091506105db8583612886565b1115610669576040517f08c379a000000000000000000000000000000000000000000000000000000000815260206004820152603060248201527f656d657267656e637952657761726457697468647261773a3a6e6f7420656e6f60448201527f7567682072657761726420746f6b656e000000000000000000000000000000006064820152608401610514565b8382600701600082825461067d9190612a3d565b909155505060018201546106a89073ffffffffffffffffffffffffffffffffffffffff168486611a8d565b505060018055505050565b60005473ffffffffffffffffffffffffffffffffffffffff163314610734576040517f08c379a000000000000000000000000000000000000000000000000000000000815260206004820181905260248201527f4f776e61626c653a2063616c6c6572206973206e6f7420746865206f776e65726044820152606401610514565b6000838152600260205260408120600380549192918690811061075957610759612abc565b906000526020600020906008020190506005548280549050106107fe576040517f08c379a000000000000000000000000000000000000000000000000000000000815260206004820152603360248201527f616464526577617264496e666f3a3a72657761726420696e666f206c656e677460448201527f68206578636565647320746865206c696d6974000000000000000000000000006064820152608401610514565b8154158061083e575081544290839061081990600190612a3d565b8154811061082957610829612abc565b90600052602060002090600202016000015410155b6108ca576040517f08c379a000000000000000000000000000000000000000000000000000000000815260206004820152602260248201527f616464526577617264496e666f3a3a72657761726420706572696f6420656e6460448201527f65640000000000000000000000000000000000000000000000000000000000006064820152608401610514565b8154158061090957508154849083906108e590600190612a3d565b815481106108f5576108f5612abc565b906000526020600020906002020160000154105b610995576040517f08c379a000000000000000000000000000000000000000000000000000000000815260206004820152602360248201527f616464526577617264496e666f3a3a626164206e657720656e6454696d65737460448201527f616d7000000000000000000000000000000000000000000000000000000000006064820152608401610514565b8154600090156109d657825483906109af90600190612a3d565b815481106109bf576109bf612abc565b9060005260206000209060020201600001546109dc565b81600301545b905060006109ea8287612a3d565b905060006109f88287612a00565b6006546001860154919250610a289173ffffffffffffffffffffffffffffffffffffffff90811691163084611bfd565b80846007016000828254610a3c9190612886565b9091555050604080518082019091528781526020808201888152875460018181018a5560008a8152939093209351600290910290930192835551918101919091558554610a899190612a3d565b60408051898152602081018990528a917fad90731bd0d97445f5af66088f3adebf343c520c20e033cc42f93b124258cdc2910160405180910390a35050505050505050565b6000610ada8242611d76565b92915050565b60005473ffffffffffffffffffffffffffffffffffffffff163314610b61576040517f08c379a000000000000000000000000000000000000000000000000000000000815260206004820181905260248201527f4f776e61626c653a2063616c6c6572206973206e6f7420746865206f776e65726044820152606401610514565b60058190556040518181527fb64f58843e750a8bea7135ef396cf0a7790bfc9a8f43f11ac0e0aacc1b5787ba906020015b60405180910390a150565b60005473ffffffffffffffffffffffffffffffffffffffff163314610c1e576040517f08c379a000000000000000000000000000000000000000000000000000000000815260206004820181905260248201527f4f776e61626c653a2063616c6c6572206973206e6f7420746865206f776e65726044820152606401610514565b6000610c3f8373ffffffffffffffffffffffffffffffffffffffff16611e71565b60ff169050601e8110610cd4576040517f08c379a000000000000000000000000000000000000000000000000000000000815260206004820152603960248201527f636f6e7374727563746f723a2072657761726420746f6b656e20646563696d6160448201527f6c73206d75737420626520696e666572696f7220746f203330000000000000006064820152608401610514565b6000610ce182601e612a3d565b610cec90600a61293a565b604080516101008101825273ffffffffffffffffffffffffffffffffffffffff8089168252878116602083019081529282018481526060830188815260808401898152600060a0860181815260c0870182815260e0880183815260038054600181810183559582905299516008909a027fc2575a0e9e593c00f959f8c92f12db2869c3395a3b0502d05e2516446f71f85b810180549b8b167fffffffffffffffffffffffff00000000000000000000000000000000000000009c8d161790559a517fc2575a0e9e593c00f959f8c92f12db2869c3395a3b0502d05e2516446f71f85c8c01805491909a169a169990991790975594517fc2575a0e9e593c00f959f8c92f12db2869c3395a3b0502d05e2516446f71f85d89015592517fc2575a0e9e593c00f959f8c92f12db2869c3395a3b0502d05e2516446f71f85e88015590517fc2575a0e9e593c00f959f8c92f12db2869c3395a3b0502d05e2516446f71f85f87015590517fc2575a0e9e593c00f959f8c92f12db2869c3395a3b0502d05e2516446f71f86086015590517fc2575a0e9e593c00f959f8c92f12db2869c3395a3b0502d05e2516446f71f86185015590517fc2575a0e9e593c00f959f8c92f12db2869c3395a3b0502d05e2516446f71f8629093019290925554919250610ed491612a3d565b6040805173ffffffffffffffffffffffffffffffffffffffff8089168252871660208201529081018590527f9b2f18f9a188a5aec4a95ee3164fe234dfbb6117628b2ad1a581939e61c69f4e906060015b60405180910390a25050505050565b60026001541415610fa1576040517f08c379a000000000000000000000000000000000000000000000000000000000815260206004820152601f60248201527f5265656e7472616e637947756172643a207265656e7472616e742063616c6c006044820152606401610514565b6002600155610fb08282611f6c565b505060018055565b60026001541415611025576040517f08c379a000000000000000000000000000000000000000000000000000000000815260206004820152601f60248201527f5265656e7472616e637947756172643a207265656e7472616e742063616c6c006044820152606401610514565b600260018190555060006003878154811061104257611042612abc565b6000918252602090912060089091020180546040517fd505accf000000000000000000000000000000000000000000000000000000008152336004820152306024820152604481018990526064810188905260ff8716608482015260a4810186905260c4810185905291925073ffffffffffffffffffffffffffffffffffffffff169063d505accf9060e401600060405180830381600087803b1580156110e857600080fd5b505af11580156110fc573d6000803e3d6000fd5b5050505061110a8787612138565b5050600180555050505050565b60026001541415611184576040517f08c379a000000000000000000000000000000000000000000000000000000000815260206004820152601f60248201527f5265656e7472616e637947756172643a207265656e7472616e742063616c6c006044820152606401610514565b60026001819055506000600382815481106111a1576111a1612abc565b60009182526020808320858452600482526040808520338652909252908320805460089390930290910160068101805491955091938392916111e4908490612a3d565b90915550506000808355600183015582546112169073ffffffffffffffffffffffffffffffffffffffff163383611a8d565b604080518281526020810186905233917fbb757047c2b5f3974fe26b7c10f732e7bce710b0952a71082702781e62ae0595910160405180910390a25050600180555050565b600260015414156112c8576040517f08c379a000000000000000000000000000000000000000000000000000000000815260206004820152601f60248201527f5265656e7472616e637947756172643a207265656e7472616e742063616c6c006044820152606401610514565b600260015560005b8181101561130b576112fb8383838181106112ed576112ed612abc565b905060200201356000611f6c565b61130481612a54565b90506112d0565b50506001805550565b60005473ffffffffffffffffffffffffffffffffffffffff163314611395576040517f08c379a000000000000000000000000000000000000000000000000000000000815260206004820181905260248201527f4f776e61626c653a2063616c6c6572206973206e6f7420746865206f776e65726044820152606401610514565b600680547fffffffffffffffffffffffff00000000000000000000000000000000000000001673ffffffffffffffffffffffffffffffffffffffff83169081179091556040519081527f860da714d66641e1bb8025e657aa279ec5bbe56385e52a9ee03a12718e5600cb90602001610b92565b60005473ffffffffffffffffffffffffffffffffffffffff163314611489576040517f08c379a000000000000000000000000000000000000000000000000000000000815260206004820181905260248201527f4f776e61626c653a2063616c6c6572206973206e6f7420746865206f776e65726044820152606401610514565b61149360006122ae565b565b600081841015806114a557508284115b156114b2575060006114d7565b8183116114ca576114c38484612a3d565b90506114d7565b6114d48483612a3d565b90505b9392505050565b600082815260046020908152604080832073ffffffffffffffffffffffffffffffffffffffff85168452909152812080546001909101546114d7918591611862565b6000610ada8242612323565b6003818154811061153c57600080fd5b60009182526020909120600890910201805460018201546002830154600384015460048501546005860154600687015460079097015473ffffffffffffffffffffffffffffffffffffffff968716985094909516959294919390929088565b60026001541415611608576040517f08c379a000000000000000000000000000000000000000000000000000000000815260206004820152601f60248201527f5265656e7472616e637947756172643a207265656e7472616e742063616c6c006044820152606401610514565b600260015561161681612445565b5060018055565b6002600154141561168a576040517f08c379a000000000000000000000000000000000000000000000000000000000815260206004820152601f60248201527f5265656e7472616e637947756172643a207265656e7472616e742063616c6c006044820152606401610514565b6002600155610fb08282612138565b60026001541415611706576040517f08c379a000000000000000000000000000000000000000000000000000000000815260206004820152601f60248201527f5265656e7472616e637947756172643a207265656e7472616e742063616c6c006044820152606401610514565b600260015560035460005b81811015610fb05761172281612445565b61172b81612a54565b9050611711565b60005473ffffffffffffffffffffffffffffffffffffffff1633146117b3576040517f08c379a000000000000000000000000000000000000000000000000000000000815260206004820181905260248201527f4f776e61626c653a2063616c6c6572206973206e6f7420746865206f776e65726044820152606401610514565b73ffffffffffffffffffffffffffffffffffffffff8116611856576040517f08c379a000000000000000000000000000000000000000000000000000000000815260206004820152602660248201527f4f776e61626c653a206e6577206f776e657220697320746865207a65726f206160448201527f64647265737300000000000000000000000000000000000000000000000000006064820152608401610514565b61185f816122ae565b50565b6000806003858154811061187857611878612abc565b6000918252602080832060408051610100810182526008909402909101805473ffffffffffffffffffffffffffffffffffffffff908116855260018201541684840152600280820154858401526003820154606086015260048201546080860152600582015460a0860152600682015460c086015260079091015460e08501528985528252808420805482518185028101850190935280835293955090929091849084015b828210156119635783829060005260206000209060020201604051806040016040529081600082015481526020016001820154815250508152602001906001019061191d565b50505050905060008260a001519050826080015142118015611988575060c083015115155b15611a5d57608083015160005b8351811015611a5a5760006119c883428785815181106119b7576119b7612abc565b602002602001015160000151611495565b9050806119d55750611a4a565b8482815181106119e7576119e7612abc565b60200260200101516000015192508560c001518660400151868481518110611a1157611a11612abc565b60200260200101516020015183611a289190612a00565b611a329190612a00565b611a3c919061289e565b611a469085612886565b9350505b611a5381612a54565b9050611995565b50505b60408301518590611a6e8389612a00565b611a78919061289e565b611a829190612a3d565b979650505050505050565b6040805173ffffffffffffffffffffffffffffffffffffffff8481166024830152604480830185905283518084039091018152606490920183526020820180517bffffffffffffffffffffffffffffffffffffffffffffffffffffffff167fa9059cbb000000000000000000000000000000000000000000000000000000001790529151600092839290871691611b24919061284b565b6000604051808303816000865af19150503d8060008114611b61576040519150601f19603f3d011682016040523d82523d6000602084013e611b66565b606091505b5091509150818015611b90575080511580611b90575080806020019051810190611b9091906126a8565b611bf6576040517f08c379a000000000000000000000000000000000000000000000000000000000815260206004820152601c60248201527f426f72696e6745524332303a205472616e73666572206661696c6564000000006044820152606401610514565b5050505050565b6040805173ffffffffffffffffffffffffffffffffffffffff85811660248301528481166044830152606480830185905283518084039091018152608490920183526020820180517bffffffffffffffffffffffffffffffffffffffffffffffffffffffff167f23b872dd000000000000000000000000000000000000000000000000000000001790529151600092839290881691611c9c919061284b565b6000604051808303816000865af19150503d8060008114611cd9576040519150601f19603f3d011682016040523d82523d6000602084013e611cde565b606091505b5091509150818015611d08575080511580611d08575080806020019051810190611d0891906126a8565b611d6e576040517f08c379a000000000000000000000000000000000000000000000000000000000815260206004820181905260248201527f426f72696e6745524332303a205472616e7366657246726f6d206661696c65646044820152606401610514565b505050505050565b600082815260026020908152604080832080548251818502810185019093528083528493849084015b82821015611de557838290600052602060002090600202016040518060400160405290816000820154815260200160018201548152505081526020019060010190611d9f565b50508251929350505080611dfe57600092505050610ada565b60005b81811015611e6557828181518110611e1b57611e1b612abc565b6020026020010151600001518511611e5557828181518110611e3f57611e3f612abc565b6020026020010151602001519350505050610ada565b611e5e81612a54565b9050611e01565b50600095945050505050565b60408051600481526024810182526020810180517bffffffffffffffffffffffffffffffffffffffffffffffffffffffff167f313ce5670000000000000000000000000000000000000000000000000000000017905290516000918291829173ffffffffffffffffffffffffffffffffffffffff861691611ef2919061284b565b600060405180830381855afa9150503d8060008114611f2d576040519150601f19603f3d011682016040523d82523d6000602084013e611f32565b606091505b5091509150818015611f45575080516020145b611f50576012611f64565b80806020019051810190611f64919061282e565b949350505050565b600060038381548110611f8157611f81612abc565b600091825260208083208684526004825260408085203386529092529220805460089092029092019250831115612014576040517f08c379a000000000000000000000000000000000000000000000000000000000815260206004820152601d60248201527f77697468647261773a3a62616420776974686472617720616d6f756e740000006044820152606401610514565b61201d84612445565b6000816001015483600201548460050154846000015461203d9190612a00565b612047919061289e565b6120519190612a3d565b9050801561207f57600183015461207f9073ffffffffffffffffffffffffffffffffffffffff163383611a8d565b83156120db57838260000160008282546120999190612a3d565b909155505082546120c19073ffffffffffffffffffffffffffffffffffffffff163386611a8d565b838360060160008282546120d59190612a3d565b90915550505b6002830154600584015483546120f19190612a00565b6120fb919061289e565b6001830155604080518581526020810187905233917ff279e6a1f5e320cca91135676d9cb6e44ca8a08c0b88342bcdb1144f6511b5689101610f25565b60006003838154811061214d5761214d612abc565b6000918252602080832086845260048252604080852033865290925292206008909102909101915061217e84612445565b8054156121e957600081600101548360020154846005015484600001546121a59190612a00565b6121af919061289e565b6121b99190612a3d565b905080156121e75760018301546121e79073ffffffffffffffffffffffffffffffffffffffff163383611a8d565b505b82156122485781546122139073ffffffffffffffffffffffffffffffffffffffff16333086611bfd565b828160000160008282546122279190612886565b92505081905550828260060160008282546122429190612886565b90915550505b60028201546005830154825461225e9190612a00565b612268919061289e565b6001820155604080518481526020810186905233917f90890809c654f11d6e72a28fa60149770a0d11ec6c92319d6ceb2bb0a4ea1a15910160405180910390a250505050565b6000805473ffffffffffffffffffffffffffffffffffffffff8381167fffffffffffffffffffffffff0000000000000000000000000000000000000000831681178455604051919092169283917f8be0079c531659141344cd1fd0a4f28419497f9722a3daafe3b4186f6b6457e09190a35050565b600082815260026020908152604080832080548251818502810185019093528083528493849084015b828210156123925783829060005260206000209060020201604051806040016040529081600082015481526020016001820154815250508152602001906001019061234c565b505082519293505050806123ab57600092505050610ada565b60005b81811015612412578281815181106123c8576123c8612abc565b6020026020010151600001518511612402578281815181106123ec576123ec612abc565b6020026020010151600001519350505050610ada565b61240b81612a54565b90506123ae565b508161241f600183612a3d565b8151811061242f5761242f612abc565b6020026020010151600001519250505092915050565b60006003828154811061245a5761245a612abc565b60009182526020808320858452600282526040808520805482518186028101860190935280835260089095029092019550929091849084015b828210156124d957838290600052602060002090600202016040518060400160405290816000820154815260200160018201548152505081526020019060010190612493565b505050509050816004015442116124ef57505050565b6006820154612515576125028342612323565b421115612510574260048301555b505050565b60005b815181101561261057600061253e8460040154428585815181106119b7576119b7612abc565b90508061254b5750612600565b82828151811061255d5761255d612abc565b6020026020010151600001514211156125985782828151811061258257612582612abc565b602090810291909101015151600485015561259f565b4260048501555b836006015484600201548484815181106125bb576125bb612abc565b602002602001015160200151836125d29190612a00565b6125dc9190612a00565b6125e6919061289e565b8460050160008282546125f99190612886565b9091555050505b61260981612a54565b9050612518565b50505050565b60006020828403121561262857600080fd5b81356114d781612aeb565b6000806020838503121561264657600080fd5b823567ffffffffffffffff8082111561265e57600080fd5b818501915085601f83011261267257600080fd5b81358181111561268157600080fd5b8660208260051b850101111561269657600080fd5b60209290920196919550909350505050565b6000602082840312156126ba57600080fd5b815180151581146114d757600080fd5b6000806000606084860312156126df57600080fd5b83356126ea81612aeb565b925060208401356126fa81612aeb565b929592945050506040919091013590565b60006020828403121561271d57600080fd5b5035919050565b6000806040838503121561273757600080fd5b82359150602083013561274981612aeb565b809150509250929050565b6000806040838503121561276757600080fd5b50508035926020909101359150565b60008060006060848603121561278b57600080fd5b833592506020840135915060408401356127a481612aeb565b809150509250925092565b6000806000606084860312156127c457600080fd5b505081359360208301359350604090920135919050565b60008060008060008060c087890312156127f457600080fd5b863595506020870135945060408701359350606087013561281481612b0d565b9598949750929560808101359460a0909101359350915050565b60006020828403121561284057600080fd5b81516114d781612b0d565b6000825160005b8181101561286c5760208186018101518583015201612852565b8181111561287b576000828501525b509190910192915050565b6000821982111561289957612899612a8d565b500190565b6000826128d4577f4e487b7100000000000000000000000000000000000000000000000000000000600052601260045260246000fd5b500490565b600181815b8085111561293257817fffffffffffffffffffffffffffffffffffffffffffffffffffffffffffffffff0482111561291857612918612a8d565b8085161561292557918102915b93841c93908002906128de565b509250929050565b60006114d7838360008261295057506001610ada565b8161295d57506000610ada565b8160018114612973576002811461297d57612999565b6001915050610ada565b60ff84111561298e5761298e612a8d565b50506001821b610ada565b5060208310610133831016604e8410600b84101617156129bc575081810a610ada565b6129c683836128d9565b807fffffffffffffffffffffffffffffffffffffffffffffffffffffffffffffffff048211156129f8576129f8612a8d565b029392505050565b6000817fffffffffffffffffffffffffffffffffffffffffffffffffffffffffffffffff0483118215151615612a3857612a38612a8d565b500290565b600082821015612a4f57612a4f612a8d565b500390565b60007fffffffffffffffffffffffffffffffffffffffffffffffffffffffffffffffff821415612a8657612a86612a8d565b5060010190565b7f4e487b7100000000000000000000000000000000000000000000000000000000600052601160045260246000fd5b7f4e487b7100000000000000000000000000000000000000000000000000000000600052603260045260246000fd5b73ffffffffffffffffffffffffffffffffffffffff8116811461185f57600080fd5b60ff8116811461185f57600080fdfea264697066735822122014b9146c3c7bf0e76c07837e7aed02bf4d6804c8ed65fdf1aafc171e1c41f6aa64736f6c63430008070033",
  "linkReferences": {},
  "deployedLinkReferences": {}
}