{
  "_format": "hh-sol-artifact-1",
  "contractName": "EmberFactory",
  "sourceName": "contracts/uniswapv2/EmberFactory.sol",
  "abi": [
    {
      "inputs": [
        {
          "internalType": "address",
          "name": "_feeToSetter",
          "type": "address"
        }
      ],
      "stateMutability": "nonpayable",
      "type": "constructor"
    },
    {
      "anonymous": false,
      "inputs": [
        {
          "indexed": true,
          "internalType": "address",
          "name": "token0",
          "type": "address"
        },
        {
          "indexed": true,
          "internalType": "address",
          "name": "token1",
          "type": "address"
        },
        {
          "indexed": false,
          "internalType": "address",
          "name": "pair",
          "type": "address"
        },
        {
          "indexed": false,
          "internalType": "uint256",
          "name": "",
          "type": "uint256"
        }
      ],
      "name": "PairCreated",
      "type": "event"
    },
    {
      "inputs": [],
      "name": "INIT_CODE_PAIR_HASH",
      "outputs": [
        {
          "internalType": "bytes32",
          "name": "",
          "type": "bytes32"
        }
      ],
      "stateMutability": "view",
      "type": "function"
    },
    {
      "inputs": [
        {
          "internalType": "uint256",
          "name": "",
          "type": "uint256"
        }
      ],
      "name": "allPairs",
      "outputs": [
        {
          "internalType": "address",
          "name": "",
          "type": "address"
        }
      ],
      "stateMutability": "view",
      "type": "function"
    },
    {
      "inputs": [],
      "name": "allPairsLength",
      "outputs": [
        {
          "internalType": "uint256",
          "name": "",
          "type": "uint256"
        }
      ],
      "stateMutability": "view",
      "type": "function"
    },
    {
      "inputs": [
        {
          "internalType": "address",
          "name": "tokenA",
          "type": "address"
        },
        {
          "internalType": "address",
          "name": "tokenB",
          "type": "address"
        }
      ],
      "name": "createPair",
      "outputs": [
        {
          "internalType": "address",
          "name": "pair",
          "type": "address"
        }
      ],
      "stateMutability": "nonpayable",
      "type": "function"
    },
    {
      "inputs": [],
      "name": "feeTo",
      "outputs": [
        {
          "internalType": "address",
          "name": "",
          "type": "address"
        }
      ],
      "stateMutability": "view",
      "type": "function"
    },
    {
      "inputs": [],
      "name": "feeToSetter",
      "outputs": [
        {
          "internalType": "address",
          "name": "",
          "type": "address"
        }
      ],
      "stateMutability": "view",
      "type": "function"
    },
    {
      "inputs": [
        {
          "internalType": "address",
          "name": "",
          "type": "address"
        },
        {
          "internalType": "address",
          "name": "",
          "type": "address"
        }
      ],
      "name": "getPair",
      "outputs": [
        {
          "internalType": "address",
          "name": "",
          "type": "address"
        }
      ],
      "stateMutability": "view",
      "type": "function"
    },
    {
      "inputs": [],
      "name": "migrator",
      "outputs": [
        {
          "internalType": "address",
          "name": "",
          "type": "address"
        }
      ],
      "stateMutability": "view",
      "type": "function"
    },
    {
      "inputs": [
        {
          "internalType": "address",
          "name": "_feeTo",
          "type": "address"
        }
      ],
      "name": "setFeeTo",
      "outputs": [],
      "stateMutability": "nonpayable",
      "type": "function"
    },
    {
      "inputs": [
        {
          "internalType": "address",
          "name": "_feeToSetter",
          "type": "address"
        }
      ],
      "name": "setFeeToSetter",
      "outputs": [],
      "stateMutability": "nonpayable",
      "type": "function"
    },
    {
      "inputs": [
        {
          "internalType": "address",
          "name": "_migrator",
          "type": "address"
        }
      ],
      "name": "setMigrator",
      "outputs": [],
      "stateMutability": "nonpayable",
      "type": "function"
    }
  ],
  "bytecode": "0x608060405234801561001057600080fd5b50604051613bfe380380613bfe8339818101604052602081101561003357600080fd5b5051600180546001600160a01b0319166001600160a01b03909216919091179055613b9b806100636000396000f3fe608060405234801561001057600080fd5b50600436106100c95760003560e01c80635855a25a11610081578063c9c653961161005b578063c9c65396146101b6578063e6a43905146101f1578063f46901ed1461022c576100c9565b80635855a25a146101735780637cd07e471461017b578063a2e74af614610183576100c9565b80631e3dd18b116100b25780631e3dd18b1461010757806323cf311814610124578063574f2ba314610159576100c9565b8063017e7e58146100ce578063094b7415146100ff575b600080fd5b6100d661025f565b6040805173ffffffffffffffffffffffffffffffffffffffff9092168252519081900360200190f35b6100d661027b565b6100d66004803603602081101561011d57600080fd5b5035610297565b6101576004803603602081101561013a57600080fd5b503573ffffffffffffffffffffffffffffffffffffffff166102cb565b005b610161610398565b60408051918252519081900360200190f35b61016161039e565b6100d661044f565b6101576004803603602081101561019957600080fd5b503573ffffffffffffffffffffffffffffffffffffffff1661046b565b6100d6600480360360408110156101cc57600080fd5b5073ffffffffffffffffffffffffffffffffffffffff81358116916020013516610538565b6100d66004803603604081101561020757600080fd5b5073ffffffffffffffffffffffffffffffffffffffff8135811691602001351661096c565b6101576004803603602081101561024257600080fd5b503573ffffffffffffffffffffffffffffffffffffffff1661099f565b60005473ffffffffffffffffffffffffffffffffffffffff1681565b60015473ffffffffffffffffffffffffffffffffffffffff1681565b600481815481106102a457fe5b60009182526020909120015473ffffffffffffffffffffffffffffffffffffffff16905081565b60015473ffffffffffffffffffffffffffffffffffffffff16331461035157604080517f08c379a000000000000000000000000000000000000000000000000000000000815260206004820152601060248201527f456d6265723a20464f5242494444454e00000000000000000000000000000000604482015290519081900360640190fd5b600280547fffffffffffffffffffffffff00000000000000000000000000000000000000001673ffffffffffffffffffffffffffffffffffffffff92909216919091179055565b60045490565b6040516103ad60208201610a6c565b6020820181038252601f19601f820116604052506040516020018082805190602001908083835b6020831061041157805182527fffffffffffffffffffffffffffffffffffffffffffffffffffffffffffffffe090920191602091820191016103d4565b6001836020036101000a0380198251168184511680821785525050505050509050019150506040516020818303038152906040528051906020012081565b60025473ffffffffffffffffffffffffffffffffffffffff1681565b60015473ffffffffffffffffffffffffffffffffffffffff1633146104f157604080517f08c379a000000000000000000000000000000000000000000000000000000000815260206004820152601060248201527f456d6265723a20464f5242494444454e00000000000000000000000000000000604482015290519081900360640190fd5b600180547fffffffffffffffffffffffff00000000000000000000000000000000000000001673ffffffffffffffffffffffffffffffffffffffff92909216919091179055565b60008173ffffffffffffffffffffffffffffffffffffffff168373ffffffffffffffffffffffffffffffffffffffff1614156105d557604080517f08c379a000000000000000000000000000000000000000000000000000000000815260206004820152601a60248201527f456d6265723a204944454e544943414c5f414444524553534553000000000000604482015290519081900360640190fd5b6000808373ffffffffffffffffffffffffffffffffffffffff168573ffffffffffffffffffffffffffffffffffffffff1610610612578385610615565b84845b909250905073ffffffffffffffffffffffffffffffffffffffff821661069c57604080517f08c379a000000000000000000000000000000000000000000000000000000000815260206004820152601360248201527f456d6265723a205a45524f5f4144445245535300000000000000000000000000604482015290519081900360640190fd5b73ffffffffffffffffffffffffffffffffffffffff82811660009081526003602090815260408083208585168452909152902054161561073d57604080517f08c379a000000000000000000000000000000000000000000000000000000000815260206004820152601260248201527f456d6265723a20504149525f4558495354530000000000000000000000000000604482015290519081900360640190fd5b60606040518060200161074f90610a6c565b6020820181038252601f19601f82011660405250905060008383604051602001808373ffffffffffffffffffffffffffffffffffffffff1660601b81526014018273ffffffffffffffffffffffffffffffffffffffff1660601b815260140192505050604051602081830303815290604052805190602001209050808251602084016000f594508473ffffffffffffffffffffffffffffffffffffffff1663485cc95585856040518363ffffffff1660e01b8152600401808373ffffffffffffffffffffffffffffffffffffffff1681526020018273ffffffffffffffffffffffffffffffffffffffff16815260200192505050600060405180830381600087803b15801561085d57600080fd5b505af1158015610871573d6000803e3d6000fd5b5050505073ffffffffffffffffffffffffffffffffffffffff84811660008181526003602081815260408084208987168086529083528185208054978d167fffffffffffffffffffffffff000000000000000000000000000000000000000098891681179091559383528185208686528352818520805488168517905560048054600181018255958190527f8a35acfbc15ff81a39ae7d344fd709f28e8600b4aa8c65c6b64bfe7fe36bd19b90950180549097168417909655925483519283529082015281517f0d3648bd0f6ba80134a33ba9275ac585d9d315f0ad8355cddefde31afa28d0e9929181900390910190a35050505092915050565b600360209081526000928352604080842090915290825290205473ffffffffffffffffffffffffffffffffffffffff1681565b60015473ffffffffffffffffffffffffffffffffffffffff163314610a2557604080517f08c379a000000000000000000000000000000000000000000000000000000000815260206004820152601060248201527f456d6265723a20464f5242494444454e00000000000000000000000000000000604482015290519081900360640190fd5b600080547fffffffffffffffffffffffff00000000000000000000000000000000000000001673ffffffffffffffffffffffffffffffffffffffff92909216919091179055565b6130ec80610a7a8339019056fe60806040526001600c5534801561001557600080fd5b50604080518082018252600e81526d22b6b132b9102628102a37b5b2b760911b6020918201528151808301835260018152603160f81b9082015281517f8b73c3c69bb8fe3d512ecc4cf759cc79239f7b179b0ffacaa9a75d522b39400f818301527fc951e60abe341900f2c363cc80fc7797939ab576c883d61e526bdf1dbcd6ceb7818401527fc89efdaa54c0f20c7adf612882df0950f5a951637e0307cdcb4c672f298b8bc660608201524660808201523060a0808301919091528351808303909101815260c09091019092528151910120600355600580546001600160a01b03191633179055612fe08061010c6000396000f3fe608060405234801561001057600080fd5b50600436106101b95760003560e01c80636a627842116100f9578063ba9a7a5611610097578063d21220a711610071578063d21220a7146105da578063d505accf146105e2578063dd62ed3e14610640578063fff6cae91461067b576101b9565b8063ba9a7a5614610597578063bc25cf771461059f578063c45a0155146105d2576101b9565b80637ecebe00116100d35780637ecebe00146104d757806389afcb441461050a57806395d89b4114610556578063a9059cbb1461055e576101b9565b80636a6278421461046957806370a082311461049c5780637464fc3d146104cf576101b9565b806323b872dd116101665780633644e515116101405780633644e51514610416578063485cc9551461041e5780635909c0d5146104595780635a3d549314610461576101b9565b806323b872dd146103ad57806330adf81f146103f0578063313ce567146103f8576101b9565b8063095ea7b311610197578063095ea7b3146103155780630dfe16811461036257806318160ddd14610393576101b9565b8063022c0d9f146101be57806306fdde03146102595780630902f1ac146102d6575b600080fd5b610257600480360360808110156101d457600080fd5b81359160208101359173ffffffffffffffffffffffffffffffffffffffff604083013516919081019060808101606082013564010000000081111561021857600080fd5b82018360208201111561022a57600080fd5b8035906020019184600183028401116401000000008311171561024c57600080fd5b509092509050610683565b005b610261610e5f565b6040805160208082528351818301528351919283929083019185019080838360005b8381101561029b578181015183820152602001610283565b50505050905090810190601f1680156102c85780820380516001836020036101000a031916815260200191505b509250505060405180910390f35b6102de610e98565b604080516dffffffffffffffffffffffffffff948516815292909316602083015263ffffffff168183015290519081900360600190f35b61034e6004803603604081101561032b57600080fd5b5073ffffffffffffffffffffffffffffffffffffffff8135169060200135610eed565b604080519115158252519081900360200190f35b61036a610f0b565b6040805173ffffffffffffffffffffffffffffffffffffffff9092168252519081900360200190f35b61039b610f27565b60408051918252519081900360200190f35b61034e600480360360608110156103c357600080fd5b5073ffffffffffffffffffffffffffffffffffffffff813581169160208101359091169060400135610f2d565b61039b611089565b6104006110ad565b6040805160ff9092168252519081900360200190f35b61039b6110b2565b6102576004803603604081101561043457600080fd5b5073ffffffffffffffffffffffffffffffffffffffff813581169160200135166110b8565b61039b611191565b61039b611197565b61039b6004803603602081101561047f57600080fd5b503573ffffffffffffffffffffffffffffffffffffffff1661119d565b61039b600480360360208110156104b257600080fd5b503573ffffffffffffffffffffffffffffffffffffffff166117c1565b61039b6117d3565b61039b600480360360208110156104ed57600080fd5b503573ffffffffffffffffffffffffffffffffffffffff166117d9565b61053d6004803603602081101561052057600080fd5b503573ffffffffffffffffffffffffffffffffffffffff166117eb565b6040805192835260208301919091528051918290030190f35b610261611c95565b61034e6004803603604081101561057457600080fd5b5073ffffffffffffffffffffffffffffffffffffffff8135169060200135611cce565b61039b611ce2565b610257600480360360208110156105b557600080fd5b503573ffffffffffffffffffffffffffffffffffffffff16611ce8565b61036a611ed5565b61036a611ef1565b610257600480360360e08110156105f857600080fd5b5073ffffffffffffffffffffffffffffffffffffffff813581169160208101359091169060408101359060608101359060ff6080820135169060a08101359060c00135611f0d565b61039b6004803603604081101561065657600080fd5b5073ffffffffffffffffffffffffffffffffffffffff813581169160200135166121d9565b6102576121f6565b600c546001146106f457604080517f08c379a000000000000000000000000000000000000000000000000000000000815260206004820152600d60248201527f456d6265723a204c4f434b454400000000000000000000000000000000000000604482015290519081900360640190fd5b6000600c55841515806107075750600084115b61075c576040517f08c379a0000000000000000000000000000000000000000000000000000000008152600401808060200182810382526021815260200180612f666021913960400191505060405180910390fd5b610764612eeb565b6040518060c0016040528060006dffffffffffffffffffffffffffff16815260200160006dffffffffffffffffffffffffffff168152602001600081526020016000815260200160008152602001600081525090506107c1610e98565b506dffffffffffffffffffffffffffff908116602084015216808252861080156107fe575080602001516dffffffffffffffffffffffffffff1685105b61086957604080517f08c379a000000000000000000000000000000000000000000000000000000000815260206004820152601d60248201527f456d6265723a20494e53554646494349454e545f4c4951554944495459000000604482015290519081900360640190fd5b60065460075473ffffffffffffffffffffffffffffffffffffffff9182169190811690861682148015906108c957508073ffffffffffffffffffffffffffffffffffffffff168673ffffffffffffffffffffffffffffffffffffffff1614155b61093457604080517f08c379a000000000000000000000000000000000000000000000000000000000815260206004820152601160248201527f456d6265723a20494e56414c49445f544f000000000000000000000000000000604482015290519081900360640190fd5b87156109455761094582878a6123dc565b8615610956576109568187896123dc565b8315610a29578573ffffffffffffffffffffffffffffffffffffffff166310d1e85c6109806125e9565b8a8a89896040518663ffffffff1660e01b8152600401808673ffffffffffffffffffffffffffffffffffffffff168152602001858152602001848152602001806020018281038252848482818152602001925080828437600081840152601f19601f8201169050808301925050509650505050505050600060405180830381600087803b158015610a1057600080fd5b505af1158015610a24573d6000803e3d6000fd5b505050505b604080517f70a08231000000000000000000000000000000000000000000000000000000008152306004820152905173ffffffffffffffffffffffffffffffffffffffff8416916370a08231916024808301926020929190829003018186803b158015610a9557600080fd5b505afa158015610aa9573d6000803e3d6000fd5b505050506040513d6020811015610abf57600080fd5b505160408085019190915280517f70a08231000000000000000000000000000000000000000000000000000000008152306004820152905173ffffffffffffffffffffffffffffffffffffffff8316916370a08231916024808301926020929190829003018186803b158015610b3457600080fd5b505afa158015610b48573d6000803e3d6000fd5b505050506040513d6020811015610b5e57600080fd5b505160608401525050805160408201516dffffffffffffffffffffffffffff90911687900310610b8f576000610bad565b8581600001516dffffffffffffffffffffffffffff16038160400151035b8160800181815250508481602001516dffffffffffffffffffffffffffff1603816060015111610bde576000610bfc565b8481602001516dffffffffffffffffffffffffffff16038160600151035b60a08201526080810151151580610c17575060008160a00151115b610c8257604080517f08c379a000000000000000000000000000000000000000000000000000000000815260206004820181905260248201527f456d6265723a20494e53554646494349454e545f494e5055545f414d4f554e54604482015290519081900360640190fd5b6000610cb6610c9f601984608001516125ed90919063ffffffff16565b6040840151610cb0906127106125ed565b90612673565b90506000610ce6610cd560198560a001516125ed90919063ffffffff16565b6060850151610cb0906127106125ed565b9050610d316305f5e100610d2b85602001516dffffffffffffffffffffffffffff1686600001516dffffffffffffffffffffffffffff166125ed90919063ffffffff16565b906125ed565b610d3b83836125ed565b1015610da857604080517f08c379a000000000000000000000000000000000000000000000000000000000815260206004820152600860248201527f456d6265723a204b000000000000000000000000000000000000000000000000604482015290519081900360640190fd5b5050610dc681604001518260600151836000015184602001516126e5565b8373ffffffffffffffffffffffffffffffffffffffff16610de56125e9565b73ffffffffffffffffffffffffffffffffffffffff167fd78ad95fa46c994b6551d0da85fc275fe613ce37657fb8d5e3d130840159d82283608001518460a001518a8a6040518085815260200184815260200183815260200182815260200194505050505060405180910390a350506001600c5550505050565b6040518060400160405280600e81526020017f456d626572204c5020546f6b656e00000000000000000000000000000000000081525081565b6008546dffffffffffffffffffffffffffff808216926e0100000000000000000000000000008304909116917c0100000000000000000000000000000000000000000000000000000000900463ffffffff1690565b6000610f01610efa6125e9565b848461299b565b5060015b92915050565b60065473ffffffffffffffffffffffffffffffffffffffff1681565b60005481565b73ffffffffffffffffffffffffffffffffffffffff831660009081526002602052604081207fffffffffffffffffffffffffffffffffffffffffffffffffffffffffffffffff9082610f7d6125e9565b73ffffffffffffffffffffffffffffffffffffffff1673ffffffffffffffffffffffffffffffffffffffff16815260200190815260200160002054146110745773ffffffffffffffffffffffffffffffffffffffff8416600090815260026020526040812061101e91849190610ff16125e9565b73ffffffffffffffffffffffffffffffffffffffff16815260208101919091526040016000205490612673565b73ffffffffffffffffffffffffffffffffffffffff851660009081526002602052604081209061104c6125e9565b73ffffffffffffffffffffffffffffffffffffffff1681526020810191909152604001600020555b61107f848484612a0a565b5060019392505050565b7f6e71edae12b1b97f4d1f60370fef10105fa2faae0126114a169c64845d6126c981565b601281565b60035481565b60055473ffffffffffffffffffffffffffffffffffffffff16331461113e57604080517f08c379a000000000000000000000000000000000000000000000000000000000815260206004820152601060248201527f456d6265723a20464f5242494444454e00000000000000000000000000000000604482015290519081900360640190fd5b6006805473ffffffffffffffffffffffffffffffffffffffff9384167fffffffffffffffffffffffff00000000000000000000000000000000000000009182161790915560078054929093169116179055565b60095481565b600a5481565b6000600c5460011461121057604080517f08c379a000000000000000000000000000000000000000000000000000000000815260206004820152600d60248201527f456d6265723a204c4f434b454400000000000000000000000000000000000000604482015290519081900360640190fd5b6000600c81905580611220610e98565b50600654604080517f70a08231000000000000000000000000000000000000000000000000000000008152306004820152905193955091935060009273ffffffffffffffffffffffffffffffffffffffff909116916370a08231916024808301926020929190829003018186803b15801561129a57600080fd5b505afa1580156112ae573d6000803e3d6000fd5b505050506040513d60208110156112c457600080fd5b5051600754604080517f70a08231000000000000000000000000000000000000000000000000000000008152306004820152905192935060009273ffffffffffffffffffffffffffffffffffffffff909216916370a0823191602480820192602092909190829003018186803b15801561133d57600080fd5b505afa158015611351573d6000803e3d6000fd5b505050506040513d602081101561136757600080fd5b505190506000611387836dffffffffffffffffffffffffffff8716612673565b905060006113a5836dffffffffffffffffffffffffffff8716612673565b905060006113b38787612adf565b6000549091508061165557600554604080517f7cd07e47000000000000000000000000000000000000000000000000000000008152905160009273ffffffffffffffffffffffffffffffffffffffff1691637cd07e47916004808301926020929190829003018186803b15801561142957600080fd5b505afa15801561143d573d6000803e3d6000fd5b505050506040513d602081101561145357600080fd5b5051905073ffffffffffffffffffffffffffffffffffffffff81166114766125e9565b73ffffffffffffffffffffffffffffffffffffffff1614156115a5578073ffffffffffffffffffffffffffffffffffffffff166340dc0e376040518163ffffffff1660e01b815260040160206040518083038186803b1580156114d857600080fd5b505afa1580156114ec573d6000803e3d6000fd5b505050506040513d602081101561150257600080fd5b50519950891580159061153557507fffffffffffffffffffffffffffffffffffffffffffffffffffffffffffffffff8a14155b6115a057604080517f08c379a000000000000000000000000000000000000000000000000000000000815260206004820152601560248201527f4261642064657369726564206c69717569646974790000000000000000000000604482015290519081900360640190fd5b61164f565b73ffffffffffffffffffffffffffffffffffffffff81161561162857604080517f08c379a000000000000000000000000000000000000000000000000000000000815260206004820152601660248201527f4d757374206e6f742068617665206d69677261746f7200000000000000000000604482015290519081900360640190fd5b6116406103e8610cb061163b88886125ed565b612c4d565b995061164f60006103e8612c9f565b506116a6565b6116a36dffffffffffffffffffffffffffff891661167386846125ed565b8161167a57fe5b046dffffffffffffffffffffffffffff891661169686856125ed565b8161169d57fe5b04612d43565b98505b600089116116ff576040517f08c379a0000000000000000000000000000000000000000000000000000000008152600401808060200182810382526024815260200180612f876024913960400191505060405180910390fd5b6117098a8a612c9f565b61171586868a8a6126e5565b81156117515760085461174d906dffffffffffffffffffffffffffff808216916e0100000000000000000000000000009004166125ed565b600b555b6117596125e9565b73ffffffffffffffffffffffffffffffffffffffff167f4c209b5fc8ad50758f13e2e1088ba56a560dff690a1c6fef26394f4c03821c4f8585604051808381526020018281526020019250505060405180910390a250506001600c5550949695505050505050565b60016020526000908152604090205481565b600b5481565b60046020526000908152604090205481565b600080600c5460011461185f57604080517f08c379a000000000000000000000000000000000000000000000000000000000815260206004820152600d60248201527f456d6265723a204c4f434b454400000000000000000000000000000000000000604482015290519081900360640190fd5b6000600c8190558061186f610e98565b50600654600754604080517f70a08231000000000000000000000000000000000000000000000000000000008152306004820152905194965092945073ffffffffffffffffffffffffffffffffffffffff9182169391169160009184916370a08231916024808301926020929190829003018186803b1580156118f157600080fd5b505afa158015611905573d6000803e3d6000fd5b505050506040513d602081101561191b57600080fd5b5051604080517f70a08231000000000000000000000000000000000000000000000000000000008152306004820152905191925060009173ffffffffffffffffffffffffffffffffffffffff8516916370a08231916024808301926020929190829003018186803b15801561198f57600080fd5b505afa1580156119a3573d6000803e3d6000fd5b505050506040513d60208110156119b957600080fd5b5051306000908152600160205260408120549192506119d88888612adf565b600054909150806119e984876125ed565b816119f057fe5b049a50806119fe84866125ed565b81611a0557fe5b04995060008b118015611a18575060008a115b611a6d576040517f08c379a0000000000000000000000000000000000000000000000000000000008152600401808060200182810382526024815260200180612f426024913960400191505060405180910390fd5b611a773084612d5b565b611a82878d8d6123dc565b611a8d868d8c6123dc565b604080517f70a08231000000000000000000000000000000000000000000000000000000008152306004820152905173ffffffffffffffffffffffffffffffffffffffff8916916370a08231916024808301926020929190829003018186803b158015611af957600080fd5b505afa158015611b0d573d6000803e3d6000fd5b505050506040513d6020811015611b2357600080fd5b5051604080517f70a08231000000000000000000000000000000000000000000000000000000008152306004820152905191965073ffffffffffffffffffffffffffffffffffffffff8816916370a0823191602480820192602092909190829003018186803b158015611b9557600080fd5b505afa158015611ba9573d6000803e3d6000fd5b505050506040513d6020811015611bbf57600080fd5b50519350611bcf85858b8b6126e5565b8115611c0b57600854611c07906dffffffffffffffffffffffffffff808216916e0100000000000000000000000000009004166125ed565b600b555b8b73ffffffffffffffffffffffffffffffffffffffff16611c2a6125e9565b73ffffffffffffffffffffffffffffffffffffffff167fdccd412f0b1252819cb1fd330b93224ca42612892bb3f4f789976e6d819364968d8d604051808381526020018281526020019250505060405180910390a35050505050505050506001600c81905550915091565b6040518060400160405280600881526020017f456d6265722d4c5000000000000000000000000000000000000000000000000081525081565b6000610f01611cdb6125e9565b8484612a0a565b6103e881565b600c54600114611d5957604080517f08c379a000000000000000000000000000000000000000000000000000000000815260206004820152600d60248201527f456d6265723a204c4f434b454400000000000000000000000000000000000000604482015290519081900360640190fd5b6000600c55600654600754600854604080517f70a08231000000000000000000000000000000000000000000000000000000008152306004820152905173ffffffffffffffffffffffffffffffffffffffff9485169490931692611e2f9285928792611e2a926dffffffffffffffffffffffffffff169185916370a0823191602480820192602092909190829003018186803b158015611df857600080fd5b505afa158015611e0c573d6000803e3d6000fd5b505050506040513d6020811015611e2257600080fd5b505190612673565b6123dc565b611ecb8184611e2a6008600e9054906101000a90046dffffffffffffffffffffffffffff166dffffffffffffffffffffffffffff168573ffffffffffffffffffffffffffffffffffffffff166370a08231306040518263ffffffff1660e01b8152600401808273ffffffffffffffffffffffffffffffffffffffff16815260200191505060206040518083038186803b158015611df857600080fd5b50506001600c5550565b60055473ffffffffffffffffffffffffffffffffffffffff1681565b60075473ffffffffffffffffffffffffffffffffffffffff1681565b42841015611f7c57604080517f08c379a000000000000000000000000000000000000000000000000000000000815260206004820152600e60248201527f456d6265723a2045585049524544000000000000000000000000000000000000604482015290519081900360640190fd5b60035473ffffffffffffffffffffffffffffffffffffffff80891660008181526004602090815260408083208054600180820190925582517f6e71edae12b1b97f4d1f60370fef10105fa2faae0126114a169c64845d6126c98186015280840196909652958d166060860152608085018c905260a085019590955260c08085018b90528151808603909101815260e0850182528051908301207f19010000000000000000000000000000000000000000000000000000000000006101008601526101028501969096526101228085019690965280518085039096018652610142840180825286519683019690962095839052610162840180825286905260ff89166101828501526101a284018890526101c28401879052519193926101e2808201937fffffffffffffffffffffffffffffffffffffffffffffffffffffffffffffffe081019281900390910190855afa1580156120dd573d6000803e3d6000fd5b50506040517fffffffffffffffffffffffffffffffffffffffffffffffffffffffffffffffe0015191505073ffffffffffffffffffffffffffffffffffffffff81161580159061215857508873ffffffffffffffffffffffffffffffffffffffff168173ffffffffffffffffffffffffffffffffffffffff16145b6121c357604080517f08c379a000000000000000000000000000000000000000000000000000000000815260206004820152601860248201527f456d6265723a20494e56414c49445f5349474e41545552450000000000000000604482015290519081900360640190fd5b6121ce89898961299b565b505050505050505050565b600260209081526000928352604080842090915290825290205481565b600c5460011461226757604080517f08c379a000000000000000000000000000000000000000000000000000000000815260206004820152600d60248201527f456d6265723a204c4f434b454400000000000000000000000000000000000000604482015290519081900360640190fd5b6000600c55600654604080517f70a0823100000000000000000000000000000000000000000000000000000000815230600482015290516123d59273ffffffffffffffffffffffffffffffffffffffff16916370a08231916024808301926020929190829003018186803b1580156122de57600080fd5b505afa1580156122f2573d6000803e3d6000fd5b505050506040513d602081101561230857600080fd5b5051600754604080517f70a08231000000000000000000000000000000000000000000000000000000008152306004820152905173ffffffffffffffffffffffffffffffffffffffff909216916370a0823191602480820192602092909190829003018186803b15801561237b57600080fd5b505afa15801561238f573d6000803e3d6000fd5b505050506040513d60208110156123a557600080fd5b50516008546dffffffffffffffffffffffffffff808216916e0100000000000000000000000000009004166126e5565b6001600c55565b604080518082018252601981527f7472616e7366657228616464726573732c75696e743235362900000000000000602091820152815173ffffffffffffffffffffffffffffffffffffffff85811660248301526044808301869052845180840390910181526064909201845291810180517bffffffffffffffffffffffffffffffffffffffffffffffffffffffff167fa9059cbb000000000000000000000000000000000000000000000000000000001781529251815160009460609489169392918291908083835b602083106124e257805182527fffffffffffffffffffffffffffffffffffffffffffffffffffffffffffffffe090920191602091820191016124a5565b6001836020036101000a0380198251168184511680821785525050505050509050019150506000604051808303816000865af19150503d8060008114612544576040519150601f19603f3d011682016040523d82523d6000602084013e612549565b606091505b5091509150818015612577575080511580612577575080806020019051602081101561257457600080fd5b50515b6125e257604080517f08c379a000000000000000000000000000000000000000000000000000000000815260206004820152601660248201527f456d6265723a205452414e534645525f4641494c454400000000000000000000604482015290519081900360640190fd5b5050505050565b3390565b60008115806126085750508082028282828161260557fe5b04145b610f0557604080517f08c379a000000000000000000000000000000000000000000000000000000000815260206004820152601460248201527f64732d6d6174682d6d756c2d6f766572666c6f77000000000000000000000000604482015290519081900360640190fd5b80820382811115610f0557604080517f08c379a000000000000000000000000000000000000000000000000000000000815260206004820152601560248201527f64732d6d6174682d7375622d756e646572666c6f770000000000000000000000604482015290519081900360640190fd5b6dffffffffffffffffffffffffffff841180159061271157506dffffffffffffffffffffffffffff8311155b61277c57604080517f08c379a000000000000000000000000000000000000000000000000000000000815260206004820152600f60248201527f456d6265723a204f564552464c4f570000000000000000000000000000000000604482015290519081900360640190fd5b60085463ffffffff428116917c0100000000000000000000000000000000000000000000000000000000900481168203908116158015906127cc57506dffffffffffffffffffffffffffff841615155b80156127e757506dffffffffffffffffffffffffffff831615155b15612891578063ffffffff166128248561280086612e14565b7bffffffffffffffffffffffffffffffffffffffffffffffffffffffff1690612e38565b600980547bffffffffffffffffffffffffffffffffffffffffffffffffffffffff929092169290920201905563ffffffff81166128648461280087612e14565b600a80547bffffffffffffffffffffffffffffffffffffffffffffffffffffffff92909216929092020190555b600880547fffffffffffffffffffffffffffffffffffff0000000000000000000000000000166dffffffffffffffffffffffffffff888116919091177fffffffff0000000000000000000000000000ffffffffffffffffffffffffffff166e0100000000000000000000000000008883168102919091177bffffffffffffffffffffffffffffffffffffffffffffffffffffffff167c010000000000000000000000000000000000000000000000000000000063ffffffff871602179283905560408051848416815291909304909116602082015281517f1c411e9a96e071241c2f21f7726b17ae89e3cab4c78be50e062b03a9fffbbad1929181900390910190a1505050505050565b73ffffffffffffffffffffffffffffffffffffffff808416600081815260026020908152604080832094871680845294825291829020859055815185815291517f8c5be1e5ebec7d5bd14f71427d1e84f3dd0314c0f7b2291e5b200ac8c7c3b9259281900390910190a3505050565b73ffffffffffffffffffffffffffffffffffffffff8316600090815260016020526040902054612a3a9082612673565b73ffffffffffffffffffffffffffffffffffffffff8085166000908152600160205260408082209390935590841681522054612a769082612e79565b73ffffffffffffffffffffffffffffffffffffffff80841660008181526001602090815260409182902094909455805185815290519193928716927fddf252ad1be2c89b69c2b068fc378daa952ba7f163c4a11628f55a4df523b3ef92918290030190a3505050565b600080600560009054906101000a900473ffffffffffffffffffffffffffffffffffffffff1673ffffffffffffffffffffffffffffffffffffffff1663017e7e586040518163ffffffff1660e01b815260040160206040518083038186803b158015612b4a57600080fd5b505afa158015612b5e573d6000803e3d6000fd5b505050506040513d6020811015612b7457600080fd5b5051600b5473ffffffffffffffffffffffffffffffffffffffff8216158015945091925090612c39578015612c34576000612bc561163b6dffffffffffffffffffffffffffff8881169088166125ed565b90506000612bd283612c4d565b905080821115612c31576000612bf4612beb8484612673565b600054906125ed565b90506000612c0d83612c078660056125ed565b90612e79565b90506000818381612c1a57fe5b0490508015612c2d57612c2d8782612c9f565b5050505b50505b612c45565b8015612c45576000600b555b505092915050565b60006003821115612c90575080600160028204015b81811015612c8a57809150600281828581612c7957fe5b040181612c8257fe5b049050612c62565b50612c9a565b8115612c9a575060015b919050565b600054612cac9082612e79565b600090815573ffffffffffffffffffffffffffffffffffffffff8316815260016020526040902054612cde9082612e79565b73ffffffffffffffffffffffffffffffffffffffff831660008181526001602090815260408083209490945583518581529351929391927fddf252ad1be2c89b69c2b068fc378daa952ba7f163c4a11628f55a4df523b3ef9281900390910190a35050565b6000818310612d525781612d54565b825b9392505050565b73ffffffffffffffffffffffffffffffffffffffff8216600090815260016020526040902054612d8b9082612673565b73ffffffffffffffffffffffffffffffffffffffff831660009081526001602052604081209190915554612dbf9082612673565b600090815560408051838152905173ffffffffffffffffffffffffffffffffffffffff8516917fddf252ad1be2c89b69c2b068fc378daa952ba7f163c4a11628f55a4df523b3ef919081900360200190a35050565b6dffffffffffffffffffffffffffff166e0100000000000000000000000000000290565b60006dffffffffffffffffffffffffffff82167bffffffffffffffffffffffffffffffffffffffffffffffffffffffff841681612e7157fe5b049392505050565b80820182811015610f0557604080517f08c379a000000000000000000000000000000000000000000000000000000000815260206004820152601460248201527f64732d6d6174682d6164642d6f766572666c6f77000000000000000000000000604482015290519081900360640190fd5b6040518060c0016040528060006dffffffffffffffffffffffffffff16815260200160006dffffffffffffffffffffffffffff16815260200160008152602001600081526020016000815260200160008152509056fe456d6265723a20494e53554646494349454e545f4c49515549444954595f4255524e4544456d6265723a20494e53554646494349454e545f4f55545055545f414d4f554e54456d6265723a20494e53554646494349454e545f4c49515549444954595f4d494e544544a2646970667358221220e49f5d1b6629aed73e29927f936dbc8f3b6f3fcafe205312eec708ab9ff4938e64736f6c634300060c0033a264697066735822122097645a0441e5e8bc9921c60b2599cd2ce39347d9267c19aa01cf6bc5dcce8fae64736f6c634300060c0033",
  "linkReferences": {},
  "deployedLinkReferences": {}
}