{
  "_format": "hh-sol-artifact-1",
  "contractName": "SimpleRewarderPerSec",
  "sourceName": "contracts/farm/rewarders/SimpleRewarderPerSec.sol",
  "abi": [
    {
      "inputs": [
        {
          "internalType": "contract IBoringERC20",
          "name": "_rewardToken",
          "type": "address"
        },
        {
          "internalType": "uint256",
          "name": "_tokenPerSec",
          "type": "uint256"
        },
        {
          "internalType": "contract IEmberDistributorV2",
          "name": "_distributorV2",
          "type": "address"
        },
        {
          "internalType": "uint256",
          "name": "_pid",
          "type": "uint256"
        },
        {
          "internalType": "bool",
          "name": "_isNative",
          "type": "bool"
        }
      ],
      "stateMutability": "nonpayable",
      "type": "constructor"
    },
    {
      "anonymous": false,
      "inputs": [
        {
          "indexed": true,
          "internalType": "address",
          "name": "user",
          "type": "address"
        },
        {
          "indexed": false,
          "internalType": "uint256",
          "name": "amount",
          "type": "uint256"
        }
      ],
      "name": "OnReward",
      "type": "event"
    },
    {
      "anonymous": false,
      "inputs": [
        {
          "indexed": true,
          "internalType": "address",
          "name": "previousOwner",
          "type": "address"
        },
        {
          "indexed": true,
          "internalType": "address",
          "name": "newOwner",
          "type": "address"
        }
      ],
      "name": "OwnershipTransferred",
      "type": "event"
    },
    {
      "anonymous": false,
      "inputs": [
        {
          "indexed": false,
          "internalType": "uint256",
          "name": "oldRate",
          "type": "uint256"
        },
        {
          "indexed": false,
          "internalType": "uint256",
          "name": "newRate",
          "type": "uint256"
        }
      ],
      "name": "RewardRateUpdated",
      "type": "event"
    },
    {
      "inputs": [],
      "name": "balance",
      "outputs": [
        {
          "internalType": "uint256",
          "name": "",
          "type": "uint256"
        }
      ],
      "stateMutability": "view",
      "type": "function"
    },
    {
      "inputs": [],
      "name": "distributorV2",
      "outputs": [
        {
          "internalType": "contract IEmberDistributorV2",
          "name": "",
          "type": "address"
        }
      ],
      "stateMutability": "view",
      "type": "function"
    },
    {
      "inputs": [],
      "name": "emergencyWithdraw",
      "outputs": [],
      "stateMutability": "nonpayable",
      "type": "function"
    },
    {
      "inputs": [],
      "name": "isNative",
      "outputs": [
        {
          "internalType": "bool",
          "name": "",
          "type": "bool"
        }
      ],
      "stateMutability": "view",
      "type": "function"
    },
    {
      "inputs": [
        {
          "internalType": "address",
          "name": "_user",
          "type": "address"
        },
        {
          "internalType": "uint256",
          "name": "_lpAmount",
          "type": "uint256"
        }
      ],
      "name": "onEmberReward",
      "outputs": [],
      "stateMutability": "nonpayable",
      "type": "function"
    },
    {
      "inputs": [],
      "name": "owner",
      "outputs": [
        {
          "internalType": "address",
          "name": "",
          "type": "address"
        }
      ],
      "stateMutability": "view",
      "type": "function"
    },
    {
      "inputs": [
        {
          "internalType": "address",
          "name": "_user",
          "type": "address"
        }
      ],
      "name": "pendingTokens",
      "outputs": [
        {
          "internalType": "uint256",
          "name": "pending",
          "type": "uint256"
        }
      ],
      "stateMutability": "view",
      "type": "function"
    },
    {
      "inputs": [],
      "name": "pid",
      "outputs": [
        {
          "internalType": "uint256",
          "name": "",
          "type": "uint256"
        }
      ],
      "stateMutability": "view",
      "type": "function"
    },
    {
      "inputs": [],
      "name": "poolInfo",
      "outputs": [
        {
          "internalType": "uint256",
          "name": "accTokenPerShare",
          "type": "uint256"
        },
        {
          "internalType": "uint256",
          "name": "lastRewardTimestamp",
          "type": "uint256"
        }
      ],
      "stateMutability": "view",
      "type": "function"
    },
    {
      "inputs": [],
      "name": "renounceOwnership",
      "outputs": [],
      "stateMutability": "nonpayable",
      "type": "function"
    },
    {
      "inputs": [],
      "name": "rewardToken",
      "outputs": [
        {
          "internalType": "contract IBoringERC20",
          "name": "",
          "type": "address"
        }
      ],
      "stateMutability": "view",
      "type": "function"
    },
    {
      "inputs": [
        {
          "internalType": "uint256",
          "name": "_tokenPerSec",
          "type": "uint256"
        }
      ],
      "name": "setRewardRate",
      "outputs": [],
      "stateMutability": "nonpayable",
      "type": "function"
    },
    {
      "inputs": [],
      "name": "tokenPerSec",
      "outputs": [
        {
          "internalType": "uint256",
          "name": "",
          "type": "uint256"
        }
      ],
      "stateMutability": "view",
      "type": "function"
    },
    {
      "inputs": [
        {
          "internalType": "address",
          "name": "newOwner",
          "type": "address"
        }
      ],
      "name": "transferOwnership",
      "outputs": [],
      "stateMutability": "nonpayable",
      "type": "function"
    },
    {
      "inputs": [],
      "name": "updatePool",
      "outputs": [
        {
          "components": [
            {
              "internalType": "uint256",
              "name": "accTokenPerShare",
              "type": "uint256"
            },
            {
              "internalType": "uint256",
              "name": "lastRewardTimestamp",
              "type": "uint256"
            }
          ],
          "internalType": "struct SimpleRewarderPerSec.PoolInfo",
          "name": "pool",
          "type": "tuple"
        }
      ],
      "stateMutability": "nonpayable",
      "type": "function"
    },
    {
      "inputs": [
        {
          "internalType": "address",
          "name": "",
          "type": "address"
        }
      ],
      "name": "userInfo",
      "outputs": [
        {
          "internalType": "uint256",
          "name": "amount",
          "type": "uint256"
        },
        {
          "internalType": "uint256",
          "name": "rewardDebt",
          "type": "uint256"
        }
      ],
      "stateMutability": "view",
      "type": "function"
    },
    {
      "stateMutability": "payable",
      "type": "receive"
    }
  ],
  "bytecode": "0x6101006040523480156200001257600080fd5b50604051620017fd380380620017fd8339810160408190526200003591620001fe565b6200004033620001a8565b600180819055506200005d85620001f860201b62000ff71760201c565b620000ca5760405162461bcd60e51b815260206004820152603260248201527f636f6e7374727563746f723a2072657761726420746f6b656e206d7573742062604482015271194818481d985b1a590818dbdb9d1c9858dd60721b60648201526084015b60405180910390fd5b620000e083620001f860201b62000ff71760201c565b620001545760405162461bcd60e51b815260206004820152603860248201527f636f6e7374727563746f723a20456d6265724469737472696275746f7256322060448201527f6d75737420626520612076616c696420636f6e747261637400000000000000006064820152608401620000c1565b6001600160601b0319606095861b811660805260a092909252600593909355921b90911660e052151560f81b60c0526040805180820190915260008082524260209290920182905260025560035562000283565b600080546001600160a01b038381166001600160a01b0319831681178455604051919092169283917f8be0079c531659141344cd1fd0a4f28419497f9722a3daafe3b4186f6b6457e09190a35050565b3b151590565b600080600080600060a086880312156200021757600080fd5b855162000224816200026a565b6020870151604088015191965094506200023e816200026a565b60608701516080880151919450925080151581146200025c57600080fd5b809150509295509295909350565b6001600160a01b03811681146200028057600080fd5b50565b60805160601c60a05160c05160f81c60e05160601c6114dc62000321600039600081816101fd0152818161045b015281816109a20152610dc90152600081816101b90152818161062d01528181610b6d015261107601526000818161033b015281816109d10152610da001526000818161038f0152818161076e015281816107b401528181610c8f01528181610d2001526110cd01526114dc6000f3fe6080604052600436106100f75760003560e01c80639e447fc61161008a578063e3161ddd11610059578063e3161ddd146102f9578063f106845414610329578063f2fde38b1461035d578063f7c618c11461037d57600080fd5b80639e447fc61461028f578063b69ef8a8146102af578063c031a66f146102c4578063db2e21bc146102e457600080fd5b806373cfc6b2116100c657806373cfc6b2146101a75780637d0d9d5f146101eb57806383dfba0d146102445780638da5cb5b1461026457600080fd5b80631959a0021461010357806350fd1f3e146101515780635a2f3d0914610175578063715018a61461019057600080fd5b366100fe57005b600080fd5b34801561010f57600080fd5b5061013761011e3660046112f5565b6004602052600090815260409020805460019091015482565b604080519283526020830191909152015b60405180910390f35b34801561015d57600080fd5b5061016760055481565b604051908152602001610148565b34801561018157600080fd5b50600254600354610137919082565b34801561019c57600080fd5b506101a56103b1565b005b3480156101b357600080fd5b506101db7f000000000000000000000000000000000000000000000000000000000000000081565b6040519015158152602001610148565b3480156101f757600080fd5b5061021f7f000000000000000000000000000000000000000000000000000000000000000081565b60405173ffffffffffffffffffffffffffffffffffffffff9091168152602001610148565b34801561025057600080fd5b506101a561025f366004611317565b610443565b34801561027057600080fd5b5060005473ffffffffffffffffffffffffffffffffffffffff1661021f565b34801561029b57600080fd5b506101a56102aa366004611363565b610857565b3480156102bb57600080fd5b50610167610922565b3480156102d057600080fd5b506101676102df3660046112f5565b610931565b3480156102f057600080fd5b506101a5610aea565b34801561030557600080fd5b5061030e610d47565b60408051825181526020928301519281019290925201610148565b34801561033557600080fd5b506101677f000000000000000000000000000000000000000000000000000000000000000081565b34801561036957600080fd5b506101a56103783660046112f5565b610eca565b34801561038957600080fd5b5061021f7f000000000000000000000000000000000000000000000000000000000000000081565b60005473ffffffffffffffffffffffffffffffffffffffff163314610437576040517f08c379a000000000000000000000000000000000000000000000000000000000815260206004820181905260248201527f4f776e61626c653a2063616c6c6572206973206e6f7420746865206f776e657260448201526064015b60405180910390fd5b6104416000610ffd565b565b3373ffffffffffffffffffffffffffffffffffffffff7f0000000000000000000000000000000000000000000000000000000000000000161461052e576040517f08c379a000000000000000000000000000000000000000000000000000000000815260206004820152604160248201527f6f6e6c794469737472696275746f7256323a206f6e6c7920456d62657244697360448201527f7472696275746f7256322063616e2063616c6c20746869732066756e6374696f60648201527f6e00000000000000000000000000000000000000000000000000000000000000608482015260a40161042e565b6002600154141561059b576040517f08c379a000000000000000000000000000000000000000000000000000000000815260206004820152601f60248201527f5265656e7472616e637947756172643a207265656e7472616e742063616c6c00604482015260640161042e565b60026001556105a8610d47565b50604080518082018252600254815260035460208083019190915273ffffffffffffffffffffffffffffffffffffffff8516600090815260049091529182209091806105f2611072565b8354909150156107db5760018301548451845464e8d4a510009161061591611423565b61061f91906113e8565b6106299190611460565b91507f00000000000000000000000000000000000000000000000000000000000000001561074c578082111561072a5760008673ffffffffffffffffffffffffffffffffffffffff16826040515b60006040518083038185875af1925050503d80600081146106b4576040519150601f19603f3d011682016040523d82523d6000602084013e6106b9565b606091505b5050905080610724576040517f08c379a000000000000000000000000000000000000000000000000000000000815260206004820152600f60248201527f5472616e73666572206661696c65640000000000000000000000000000000000604482015260640161042e565b506107db565b60008673ffffffffffffffffffffffffffffffffffffffff1683604051610677565b8082111561079a5761079573ffffffffffffffffffffffffffffffffffffffff7f000000000000000000000000000000000000000000000000000000000000000016878361115c565b6107db565b6107db73ffffffffffffffffffffffffffffffffffffffff7f000000000000000000000000000000000000000000000000000000000000000016878461115c565b848355835164e8d4a51000906107f19087611423565b6107fb91906113e8565b600184015560405182815273ffffffffffffffffffffffffffffffffffffffff8716907fd1072bb52c3131d0c96197b73fb8a45637e30f8b6664fc142310cc9b242859b49060200160405180910390a250506001805550505050565b60005473ffffffffffffffffffffffffffffffffffffffff1633146108d8576040517f08c379a000000000000000000000000000000000000000000000000000000000815260206004820181905260248201527f4f776e61626c653a2063616c6c6572206973206e6f7420746865206f776e6572604482015260640161042e565b6108e0610d47565b5060055460408051918252602082018390527fc390a98ace15a7bb6bab611eedfdbb2685043b241a869420043cdfb23ccfee50910160405180910390a1600555565b600061092c611072565b905090565b604080518082018252600254815260035460208083019190915273ffffffffffffffffffffffffffffffffffffffff8085166000908152600492839052848120845195517f654c9ece00000000000000000000000000000000000000000000000000000000815291959093909286927f00000000000000000000000000000000000000000000000000000000000000009091169163654c9ece916109fb917f0000000000000000000000000000000000000000000000000000000000000000910190815260200190565b60206040518083038186803b158015610a1357600080fd5b505afa158015610a27573d6000803e3d6000fd5b505050506040513d601f19601f82011682018060405250810190610a4b919061137c565b9050836020015142118015610a5f57508015155b15610ab3576000846020015142610a769190611460565b9050600060055482610a889190611423565b905082610a9a64e8d4a5100083611423565b610aa491906113e8565b610aae90856113d0565b935050505b6001830154835464e8d4a5100090610acc908590611423565b610ad691906113e8565b610ae09190611460565b9695505050505050565b60005473ffffffffffffffffffffffffffffffffffffffff163314610b6b576040517f08c379a000000000000000000000000000000000000000000000000000000000815260206004820181905260248201527f4f776e61626c653a2063616c6c6572206973206e6f7420746865206f776e6572604482015260640161042e565b7f000000000000000000000000000000000000000000000000000000000000000015610c4657604051600090339047908381818185875af1925050503d8060008114610bd3576040519150601f19603f3d011682016040523d82523d6000602084013e610bd8565b606091505b5050905080610c43576040517f08c379a000000000000000000000000000000000000000000000000000000000815260206004820152600f60248201527f5472616e73666572206661696c65640000000000000000000000000000000000604482015260640161042e565b50565b6040517f70a0823100000000000000000000000000000000000000000000000000000000815230600482015261044190339073ffffffffffffffffffffffffffffffffffffffff7f000000000000000000000000000000000000000000000000000000000000000016906370a082319060240160206040518083038186803b158015610cd157600080fd5b505afa158015610ce5573d6000803e3d6000fd5b505050506040513d601f19601f82011682018060405250810190610d09919061137c565b73ffffffffffffffffffffffffffffffffffffffff7f000000000000000000000000000000000000000000000000000000000000000016919061115c565b604080518082018252600080825260209182015281518083019092526002548252600354908201819052421115610ec7576040517f654c9ece0000000000000000000000000000000000000000000000000000000081527f000000000000000000000000000000000000000000000000000000000000000060048201526000907f000000000000000000000000000000000000000000000000000000000000000073ffffffffffffffffffffffffffffffffffffffff169063654c9ece9060240160206040518083038186803b158015610e2057600080fd5b505afa158015610e34573d6000803e3d6000fd5b505050506040513d601f19601f82011682018060405250810190610e58919061137c565b90508015610eb5576000826020015142610e729190611460565b9050600060055482610e849190611423565b905082610e9664e8d4a5100083611423565b610ea091906113e8565b84518590610eaf9083906113d0565b90525050505b50426020820181905281516002556003555b90565b60005473ffffffffffffffffffffffffffffffffffffffff163314610f4b576040517f08c379a000000000000000000000000000000000000000000000000000000000815260206004820181905260248201527f4f776e61626c653a2063616c6c6572206973206e6f7420746865206f776e6572604482015260640161042e565b73ffffffffffffffffffffffffffffffffffffffff8116610fee576040517f08c379a000000000000000000000000000000000000000000000000000000000815260206004820152602660248201527f4f776e61626c653a206e6577206f776e657220697320746865207a65726f206160448201527f6464726573730000000000000000000000000000000000000000000000000000606482015260840161042e565b610c4381610ffd565b3b151590565b6000805473ffffffffffffffffffffffffffffffffffffffff8381167fffffffffffffffffffffffff0000000000000000000000000000000000000000831681178455604051919092169283917f8be0079c531659141344cd1fd0a4f28419497f9722a3daafe3b4186f6b6457e09190a35050565b60007f00000000000000000000000000000000000000000000000000000000000000001561109f57504790565b6040517f70a082310000000000000000000000000000000000000000000000000000000081523060048201527f000000000000000000000000000000000000000000000000000000000000000073ffffffffffffffffffffffffffffffffffffffff16906370a082319060240160206040518083038186803b15801561112457600080fd5b505afa158015611138573d6000803e3d6000fd5b505050506040513d601f19601f8201168201806040525081019061092c919061137c565b6040805173ffffffffffffffffffffffffffffffffffffffff8481166024830152604480830185905283518084039091018152606490920183526020820180517bffffffffffffffffffffffffffffffffffffffffffffffffffffffff167fa9059cbb0000000000000000000000000000000000000000000000000000000017905291516000928392908716916111f39190611395565b6000604051808303816000865af19150503d8060008114611230576040519150601f19603f3d011682016040523d82523d6000602084013e611235565b606091505b509150915081801561125f57508051158061125f57508080602001905181019061125f9190611341565b6112c5576040517f08c379a000000000000000000000000000000000000000000000000000000000815260206004820152601c60248201527f426f72696e6745524332303a205472616e73666572206661696c656400000000604482015260640161042e565b5050505050565b803573ffffffffffffffffffffffffffffffffffffffff811681146112f057600080fd5b919050565b60006020828403121561130757600080fd5b611310826112cc565b9392505050565b6000806040838503121561132a57600080fd5b611333836112cc565b946020939093013593505050565b60006020828403121561135357600080fd5b8151801515811461131057600080fd5b60006020828403121561137557600080fd5b5035919050565b60006020828403121561138e57600080fd5b5051919050565b6000825160005b818110156113b6576020818601810151858301520161139c565b818111156113c5576000828501525b509190910192915050565b600082198211156113e3576113e3611477565b500190565b60008261141e577f4e487b7100000000000000000000000000000000000000000000000000000000600052601260045260246000fd5b500490565b6000817fffffffffffffffffffffffffffffffffffffffffffffffffffffffffffffffff048311821515161561145b5761145b611477565b500290565b60008282101561147257611472611477565b500390565b7f4e487b7100000000000000000000000000000000000000000000000000000000600052601160045260246000fdfea264697066735822122098a0271050d77cbd67924e844a4aad236571140bbef0ad99c466312bf9329bde64736f6c63430008070033",
  "linkReferences": {},
  "deployedLinkReferences": {}
}